:020000040800F2
:1000000068C5002005AA0508E37A0108797D010882
:10001000977D0108B57D0108D37D0108000000002F
:10002000000000000000000000000000F17D010859
:10003000017E010800000000117E0108217E0108F8
:10004000F9810108F9810108F9810108F9810108A4
:10005000F9810108F9810108317E0108F98101085F
:10006000F98101084B7E0108657E0108F9810108CC
:10007000F9810108F9810108F9810108F981010874
:100080007F7E0108F9810108F9810108F9810108E1
:10009000F9810108F9810108F98101088F7E0108C1
:1000A000F9810108077F0108F9810108F981010838
:1000B0003B7F01084B7F0108F9810108F9810108A4
:1000C000F9810108F9810108F9810108F981010824
:1000D000F981010819810108298101083981010884
:1000E0006B7F0108F9810108F9810108F37F01089C
:1000F00019800108F981010845800108F98101088A
:10010000F9810108498101085B7F0108F981010833
:100110005981010869810108F9810108F981010803
:10012000798101088981010899810108A981010863
:10013000F9810108F9810108F9810108F9810108B3
:10014000F9810108F9810108F9810108C9810108D3
:10015000F9810108B9810108F9810108D9810108F3
:10016000F9810108F9810108F9810108F981010883
:10017000F9810108E9810108F9810108F981010883
:10018000F981010810B5144C2078002805D1002110
:10019000124805F05DFB01202070114C20780028EA
:1001A00005D100210F4805F053FB012020700E4CB3
:1001B0002078002805D100210C4805F049FB0120DA
:1001C00020700B4C2078002805D10021094805F04B
:1001D0003FFB0120207010BDE59400209C9400207E
:1001E000E6940020A4940020E7940020A09400202E
:1001F000E8940020989400202DE9FE4FD6B004002A
:1002000056982060002300220021201D05F022FBCB
:100210006298C4F8980A04F69C2057A9082206F0B0
:10022000BDF8206810F5A47104F6A82006F0ACFB18
:10023000206810F590700090206810F58873206891
:1002400010F58072012114F52F6009F015FC04F6F9
:10025000383009F063FE04F6783009F081FF04F6C7
:10026000943009F0A3FF14F53A6009F09FFF04F6FB
:10027000AC3009F09BFF04F6B83009F0A1FF002173
:1002800004F648400AF034F804F64C400AF0A9F8A5
:10029000002204F65841201D0AF088F90200920855
:1002A000206810F1980104F658400BF033FA012051
:1002B00084F8200D0120229022A80BF077FDCDE9D3
:1002C00004014020029000200190012000904FF492
:1002D0008053206810F1D002206810F52A7104F6CE
:1002E00028500DF0E2F90023002204F6285114F5FD
:1002F00069600DF035FA14F5696204F6285141F28F
:10030000FC40204403F0A2FA206810F5D370059059
:10031000206800F2A5100490206810F5D2700390B8
:10032000206810F5CA700290206810F5C270019024
:10033000206810F5BA700090206810F5B27320683C
:1003400010F5AA72206810F51F7114F5A85006F078
:10035000BBFB002041F228616054002041F22A6179
:10036000605241F23060204400220023C0E90023A3
:100370004FF4FA6041F238616050002041F23C6174
:100380006054DFF8EC0D90ED002BDFF8E80D90EDF8
:10039000001BDFF8E40D90ED000B206810F5D4721F
:1003A000206810F52A7114F5B25008F0A1FF6420FE
:1003B000219021A80DF03EFDCDE92A012AA941F2A4
:1003C000F86020440DF038FE4FF4FA70209020A819
:1003D0000DF030FDCDE9280128A941F20870204434
:1003E0000DF02AFE4FF47A751F951FA80DF022FD1F
:1003F000CDE9260126A941F2187020440DF098FDA0
:10040000002041F230716054DFF8701D4FA80DF0EC
:10041000F1FE64201E901EA80DF00CFD0022049237
:10042000CDE90201002000904FAB206810F5DC728E
:10043000206810F5E47141F23870204406F000F9AC
:100440004FA80DF0E7FEDFF8381D48A80DF0D2FEEA
:1004500064201D901DA80DF0EDFC00220492CDE952
:1004600002010020009048AB206810F5EC72206873
:1004700010F5F47114F5BD5006F0E2F848A80DF03F
:10048000C9FEDFF8001D41A80DF0B4FE01230200F3
:10049000206810F5FC7141F60800204406F008F8C9
:1004A00041A80DF0B7FEDFF8E01C3AA80DF0A2FE5F
:1004B00064201C901CA80DF0BDFC00220492CDE924
:1004C0000201002000903AAB206810F5027220680B
:1004D00010F5067114F5C35006F0B2F83AA80DF005
:1004E00099FEDFF8A81C33A80DF084FE64201B9051
:1004F0001BA80DF09FFC00220492CDE90201002010
:10050000009033AB206810F50A72206810F50E7168
:1005100041F6C800204406F093F833A80DF07AFEA7
:10052000DFF86C1C2CA80DF065FE64201A901AA848
:100530000DF080FC00220492CDE902010020009021
:100540002CAB206810F51272206810F5167141F678
:100550003010204406F074F82CA80DF05BFE00204B
:1005600041F698116054002041F699116054002022
:1005700041F69A116054002041F69C1160501420FD
:1005800014F5CD510860022041F6A41160540020FA
:1005900041F6A511605441F6A81020440022DFF86E
:1005A000F43BC0E9002341F6B01020440022DFF8FC
:1005B000E43BC0E9002341F6B810204400220023A8
:1005C000C0E9002314F5CE5000220023C0E9002327
:1005D00041F6C810204400220023C0E9002341F660
:1005E000D010204400220023C0E9002341F6D81097
:1005F000204400220023C0E9002314F5CF5000223C
:100600000023C0E900236420199019A80DF012FC02
:1006100041F6E8122244C2E90001052041F6F0113A
:100620006050002041F6F411605041F6F81020446B
:100630000DF0F7FD41F6302020440DF0FEFD0120C5
:1006400041F63C21605414F5D2500DF0FEFD00201F
:1006500041F64C21605441F64D29002004F8090070
:1006600041F65020204400220023C0E9002300204E
:1006700041F658216054002041F659216054002071
:100680001790189518AA17A914F5D3500DF01AFC55
:10069000002041F678216050002041F67C21605016
:1006A000002014F5D4510860002041F684216050E8
:1006B00041F68820204404F069FF002041F6B02173
:1006C0006054169516A80DF0B5FBCDE9240124A9B8
:1006D00041F6B82020440DF0AFFC002041F6C821BF
:1006E000605441F6E81004EB000141F6D0202044AC
:1006F0000DF01EFC6420159015A80DF09BFB41F633
:10070000E8222244C2E9000141F6F02004EB000196
:100710000022DFF8843AC1E9002341F6F8212144A0
:100720000022DFF8783AC1E900234FF4D85104EBF6
:1007300001020026DFF85C7AC2E9006741F6083260
:1007400022440026DFF8547AC2E9006741F61032ED
:10075000224400260027C2E9006741F6183504EB61
:1007600005060022DFF8383AC6E9002304EB000250
:1007700092ED000B14F5D95282ED000B204490ED60
:10078000000B41F62830204480ED000B04EB010003
:1007900090ED000B41F63030204480ED000B04EB6F
:1007A000050090ED000B41F63830204480ED000B41
:1007B000012014F5DA51087004F61400109041F28B
:1007C000F02020440F9004F60C000E9041F2E82037
:1007D00020440D9004F604000C9004F2FC700B9081
:1007E00014F597500A9004F2F470099004F2EC703A
:1007F000089004F2E470079004F2DC70069004F2B2
:10080000D470059004F2CC70049004F2C47003908C
:1008100004F2BC70029004F2B4700190206810F5EC
:1008200066700090206810F56273206810F55E72A3
:10083000206810F55A7141F64830204407F090FACC
:1008400041F6886504EB05000022DFF84839C0E96D
:10085000002341F6906604EB0600DFF84829DFF834
:100860004839C0E9002341F6986704EB0702DFF836
:100870003C09DFF83C19C2E9000114F5F5520020EB
:100880000021C2E9000141F6A86004EB000200204B
:10089000DFF82019C2E9000141F6B0689FED671B3F
:1008A0009FEDF00B04F2C47104EB080007F068FF41
:1008B00041F6C86A04F68C000E9014F508600D909D
:1008C00004F674000C9004F664000B9004F65C00CF
:1008D0000A9004F65400099004F64C00089004F6BF
:1008E0004400079004F63C00069004F6340005909E
:1008F00004F62C00049004F62400039004F61C0077
:10090000029000200190206810F55270009004EBD6
:10091000070090ED002B04EB060090ED001B04EBAC
:10092000050090ED000B4623206810F5367204EBAD
:10093000080104EB0A000DF090FC04EB0A0141F6FB
:100940002870204407F080FF41F25030204410907E
:1009500041F2443020440F9041F2383020440E9050
:1009600041F2283020440D9014F599500C9041F23A
:10097000183020440B9041F2103020440A9041F28C
:1009800008302044099014F59850089041F2F8205E
:100990002044079004F68C00069014F5086005903A
:1009A00004F67400049004F65400039004F64C001E
:1009B000029004F64400019004F63C00009004F616
:1009C000340304F62C0204F61C0142F2F800204421
:1009D00008F01AFB42F2481504EB05000022DFF88C
:1009E000B437C0E9002342F2501604EB0600DFF8EA
:1009F000B427DFF8B437C0E9002342F2581704EBFC
:100A00000702DFF8A807DFF8A817C2E9000142F2E1
:100A1000601004EB000200200021C2E9000142F254
:100A2000681004EB00020020DFF88817C2E900011B
:100A300042F270189FED8D1B04E000BF0000000023
:100A4000008041409FED870B04F2BC7104EB08006D
:100A500007F096FE42F2881A04F608100E9004F68B
:100A6000FC000D9014F50F600C9014F50E600B90C7
:100A700004F6D8000A9014F50D60099004F6C80039
:100A8000089014F50C60079004F6B800069014F571
:100A90000B60059004F6A800049014F50A6003901A
:100AA00004F69800029000200190206810F556701E
:100AB000009004EB070090ED002B04EB060090ED96
:100AC000001B04EB050090ED000B4523206810F59A
:100AD000447204EB080104EB0A000DF0BEFB04EBCA
:100AE0000A0142F2E810204407F0AEFE41F2B430B1
:100AF0002044109041F2A83020440F9041F29C30E5
:100B000020440E9041F28C3020440D9041F284300C
:100B100020440C9041F27C3020440B9041F2743020
:100B200020440A9041F26C302044099041F2643034
:100B30002044089041F25C302044079004F60810ED
:100B4000069004F6FC00059014F50F60049014F56F
:100B50000D60039004F6C800029014F50C6001903B
:100B600004F6B800009014F50B6304F6A80204F62E
:100B7000980142F2B830204408F046FA002042F2D0
:100B800008416054200000F017FB200000F029FB12
:100B90000DF0B8FB149041F2240020440DF0B8FB96
:100BA0008DF8500041F22C0020440DF0B1FB8DF87F
:100BB000510041F2340020440DF0AAFB8DF85200A0
:100BC00041F23C0020440DF0A3FB8DF853000DF0E2
:100BD00099FB139041F2440020440DF099FB8DF8ED
:100BE0004C0041F24C0020440DF092FB8DF84D007A
:100BF00041F2540020440DF08BFB8DF84E0041F281
:100C00005C0020440DF084FB8DF84F000DF07AFB62
:100C1000129041F2640020440DF07AFB8DF84800F8
:100C200041F26C0020440DF073FB8DF8490041F255
:100C3000740020440DF06CFB8DF84A0041F27C06F4
:100C400004EB06000DF064FB8DF84B0041F28407C5
:100C500004EB07000DF06DFB00280BD001208DF890
:100C600044000AE00000000000002E4000000000E8
:100C70000080464000208DF844009DF8440000901C
:100C8000129B139A14992068A0300DF0DAFB0EF035
:100C90002CF80500082109A80EF044F8DDE9090147
:100CA000CDE9070107A928000EF048F814F569609E
:100CB0000EF054F841F63C216054214414F11C001C
:100CC0000EF05BF804F698600EF064F841F6B01090
:100CD00004EB000181ED000B04EB000114F1B40002
:100CE0000EF082F814F56A600EF054F841F6A81080
:100CF00004EB000181ED000B04EB000114F1BC00DA
:100D00000EF072F841F2140004EB000114F1D4006B
:100D10000EF077F841F21C0004EB000114F1DC0046
:100D20000EF06FF814F56C600EF018F8069006A837
:100D30000DF080F841F6E8122244C2E9000114F5F2
:100D40006C6114F501700EF06FF804F6D8600EF0C7
:100D500005F841F6F0116050214414F507700EF0CB
:100D600075F814F574600DF0E4FA002801D0012044
:100D700000E0002041F64C216054615C14F16000F9
:100D80000EF071F804F658700DF0D3FA002801D077
:100D9000012000E0002004F8090014F8091014F5FF
:100DA00015700EF060F841F2387A14F8091004EB6F
:100DB0000A000EF06EF814F8091014F5BD500EF08C
:100DC00068F814F8091014F5C3500EF062F841F6F3
:100DD000C80814F8091004EB08000EF05AF841F6A0
:100DE000301514F8091004EB05000EF052F841F22A
:100DF000B44904EB090104F628200EF002F804EBD4
:100E000009000DF0C7FF4FF4D95904EB090080ED3C
:100E1000000B41F2BC4B04EB0B0114F523600DF009
:100E2000F0FF04EB0B000DF0B5FF41F62830204435
:100E300080ED000B41F2C44B04EB0B0104F63820AB
:100E40000DF0DFFF04EB0B000DF0A4FF41F6303096
:100E5000204480ED000B41F2CC4B04EB0B0104F677
:100E600048200DF0CEFF04EB0B000DF093FF41F690
:100E70003830204480ED000B04EB090090ED000BAE
:100E800014F5B25008F069FB04F6D8700DF051FA71
:100E9000002801D0012000E0002014F5DA5108708C
:100EA00004F6D87114F556700DF0F6FF14F56C6069
:100EB0000DF054FF059005A80CF0BCFF41F6E812B8
:100EC0002244C2E9000141F2240004EB000114F5C0
:100ED000A0600EF000F841F22C0004EB000114F5C4
:100EE000A1600DF0F8FF41F2340004EB000114F5AD
:100EF000A2600DF0F0FF41F23C0004EB000114F59C
:100F0000A3600DF0E8FF41F2440004EB000114F58A
:100F1000A4600DF0E0FF41F24C0004EB000114F579
:100F2000A5600DF0D8FF41F2540004EB000114F568
:100F3000A6600DF0D0FF41F25C0004EB000114F557
:100F4000A7600DF0C8FF41F2640004EB000114F546
:100F5000A8600DF0C0FF41F26C0004EB000114F535
:100F6000A9600DF0B8FF41F2740004EB000114F524
:100F7000AA600DF0B0FF04EB060114F5AB600DF0B4
:100F8000AAFF04EB070114F5AC600DF085FF41F6F4
:100F9000E82604EB0600D0E9002304EB0A0005F084
:100FA000ABFB04EB0600D0E9002314F5BD5005F0BF
:100FB000A3FB04EB0600D0E9002341F6080020441F
:100FC00005F0B8FA04EB0600D0E9002314F5C3508D
:100FD00005F092FB04EB0600D0E9002304EB0800C7
:100FE00005F08AFB04EB0600D0E9002304EB0500C2
:100FF00005F082FB14F52F6104F678300DF07EFFCA
:1010000004F6383104F6B8300DF0A5FF04F6AC3123
:1010100004F6B8300DF0A1FF04F6943104F6B830B0
:101020000DF09BFF14F53A6104F6B8300DF095FF12
:101030001420049004A80CF0FDFE02000B0004F63E
:10104000B8300DF094FF1420039003A80CF0F2FECA
:1010500002000B0004F6B8300DF094FF4FF4FA7064
:10106000029002A80CF0E6FE02000B0004F6B83075
:101070000DF093FF3220019001A80CF0DBFE02007E
:101080000B0004F6B8300DF094FF78200DF094FFBB
:101090000500231D04F6AC3204F6783128000FF069
:1010A00068FF010004F6484010F090F8002104F6B3
:1010B000A82005F0A8FCB4F89E0A0090694604F642
:1010C00014100DF0C3FE14F59E5104F61C100DF023
:1010D000ABFE14F5B25010F08FF841F2D44020442A
:1010E0000DF016F941F22865605541F2E4402044C4
:1010F00010F086F841F22A66A05341F2EC402044F9
:101100000DF048FE41F2306704EB070080ED000B64
:1011100041F2F44020440DF021FE41F2386160506C
:1011200004EB050104F678200DF027FE04EB060120
:1011300004F6882010F075F804EB070114F5276019
:101140000DF052FE04EB070090ED000B14F5A850D3
:1011500005F028FE615D14F5A85005F0F6FDA15BD1
:1011600014F5A85005F002FE200059B0BDE8F08F3C
:1011700060AD050858AD050850AD050850AC050830
:1011800058AC050860AC050868AC050870AC0508EB
:1011900078AC05080000F03F0000284000006940DE
:1011A0000088C3409A9999999999A93FA4703D0ADA
:1011B000D7A3D03F0000394010B50400206810F5D7
:1011C000987104F6383008F03EFF206810F59E71E3
:1011D00004F6383008F04FFF04F6383008F06CFFA2
:1011E00010BD70472DE9F84F2DED048BFEB00400C3
:1011F00014F5A85005F010FE20680DF074FC04F6FC
:1012000058400AF0B3FB04F628500CF0C9F814F566
:10121000B25008F069FA94F8200D002834D00DF08F
:1012200071F804900DF06EF816900DF06BF81590B3
:1012300000208DF80D000DF10D00009015AB16AAE1
:1012400004A92068A0300DF0DDF89DF810000028FA
:101250000BD19DF81100002807D19DF8120000283D
:1012600003D19DF8130000280ED0002084F8200D33
:10127000206810F1A0010DF10E0006F03FFC0021E6
:1012800004F6A82005F0BFFB41F2387804EB080013
:1012900005F088FA14F5BD5005F084FA41F608050A
:1012A00004EB050005F09AF914F5C35005F07AFA3D
:1012B00041F6C80A04EB0A0005F074FA41F630164C
:1012C00004EB060005F06EFA04F6A82005F0B0FB6A
:1012D00004F648400FF0B2FF0FF0F0FE14F52F6057
:1012E00008F0A4FC04F6B8300FF0CAFF41F648300D
:1012F000204406F023FF41F62870204407F0B3FC99
:1013000042F2E810204407F0AEFC04F6943010F0EE
:101310000CF9002801D0012000E00020C0B2002814
:1013200004D0002104F6A82005F06DFB41F2F8601E
:1013300020440CF0A2FEC0B2002801D0012000E041
:101340000020C0B2002800F048840021201D10F0C9
:10135000F2F841F6981914F80900012800F09C8071
:1013600014F5AE700CF0E5FF070004EB080005F083
:10137000B0F9874201D0012000E00020C0B200286F
:1013800008D004EB080005F0A4F9010014F5AE70D4
:101390000DF069FD14F5B4700CF0CBFF070014F5E7
:1013A000BD5005F096F9874201D0012000E00020F1
:1013B000C0B2002808D014F5BD5005F08AF901002C
:1013C00014F5B4700DF04FFD14F59C700CF0B1FFE6
:1013D000070004EB050005F0A2F8874201D00120C8
:1013E00000E00020C0B2002808D004EB050005F0A2
:1013F00096F8010014F59C700DF035FD14F1FC0019
:101400000CF097FF070014F5C35005F062F987420E
:1014100001D0012000E00020C0B2002808D014F55F
:10142000C35005F056F9010014F1FC000DF01BFD4E
:1014300014F584700CF07DFF070004EB0A0005F042
:1014400048F9874201D0012000E00020C0B2002806
:1014500008D004EB0A0005F03CF9010014F5847093
:101460000DF001FD14F58A700CF063FF070004EB2A
:10147000060005F02EF9874201D0012000E000208F
:10148000C0B2002808D004EB060005F022F90100E4
:1014900014F58A700DF0E7FC14F5A85005F041FC36
:1014A000C0B2002801D0012000E00020C0B2002816
:1014B00044D014F5A85005F03CFC8DED320B32A958
:1014C00014F525600DF090FC14F5A85005F034FCDF
:1014D0008DED300B30A904F658200DF085FC14F585
:1014E000A85005F02CFC8DED2E0B2EA914F52660CE
:1014F0000DF07AFC14F5A85005F024FC8DED2C0BB2
:101500002CA904F668200DF06FFC14F5A85005F026
:1015100016FCB0EE408AF0EE608A14F5A85005F093
:1015200011FC51EC180B53EC102B10F01FF8CDE907
:101530002A012AA914F1C4000DF056FC14F5A85094
:1015400010F085F8ADF8140005A904F608200FF096
:1015500068FE04F678200CF0DBFE41F22867E15DBE
:10156000C0B2884201D0012000E00020C0B20028B3
:1015700017D004F678200CF0CBFE0100C9B214F5A8
:10158000A85005F0E2FBE05504EB070104F67820D3
:101590000DF0F3FB04EB070141F2D44020440DF0C1
:1015A000ECFB14F80900022800F0958004F688206E
:1015B0000FF026FE41F22A67E15B80B2884201D03B
:1015C000012000E00020C0B2002817D004F68820D7
:1015D0000FF016FE010089B214F5A85005F0C6FB05
:1015E000E05304EB070104F688200FF01AFE04EB29
:1015F000070141F2E44020440FF013FE14F5276088
:101600000DF0C8FB41F2306753EC102B04EB0700E0
:10161000D0E9000110F01EF801D0012000E0002008
:10162000C0B2002818D014F527600DF0B3FB14F5F4
:10163000A85005F0B7FB04EB070080ED000B04EBAE
:10164000070114F527600DF0CFFB04EB070141F211
:10165000EC4020440DF0C8FB14F529600DF07EFB32
:1016600041F23867E159884201D0012000E00020B2
:10167000C0B2002816D014F529600DF06FFB0100F0
:1016800014F5A85005F084FBE05104EB070114F5B4
:1016900029600DF0DBFB04EB070141F2F44020442C
:1016A0000DF0D4FB14F528600CF032FEC0B2002817
:1016B00001D0012000E00020C0B200280BD00020A3
:1016C0008DF80C0003A914F528600DF056FB14F5F5
:1016D000A85005F097FB14F190000CF019FE14F8D7
:1016E0000910C0B2884201D0012000E00020C0B241
:1016F000002809D014F809008DF80B000DF10B013A
:1017000014F190000DF039FB14F5B25007F098FF7A
:10171000B0EE408AF0EE608A14F524600DF03AFBDA
:1017200053EC182B51EC100B0FF094FF01D001205B
:1017300000E00020C0B200280AD014F5B25007F033
:101740007FFF8DED280B28A914F524600DF04CFBCC
:1017500014F8090000282CD141F69910205C0228C9
:1017600027D114F5AF600CF0E4FD012801D1012070
:1017700000E00020C0B200280CD0002114F5AF60BA
:101780000DF071FB002104F26C500DF06CFB200099
:1017900001F082FF04F26C500CF0CBFD002801D167
:1017A000012000E00020C0B2002802D0200001F09B
:1017B000DCFF14F11C000CF0ABFD070014F56960B0
:1017C0000DF0CCFAFFB2874201D0012000E00020EA
:1017D000C0B2002809D014F11C000CF099FD14903F
:1017E00014A914F569600DF031FB14F1B4000DF08B
:1017F000D1FAB0EE408AF0EE608A04F698600DF0FF
:10180000C9FA53EC182B51EC100B0FF023FF01D049
:10181000012000E00020C0B2002805D014F1B4017E
:1018200004F698600DF0EDFA14F1BC000DF0B2FA78
:10183000B0EE408AF0EE608A14F56A600DF0AAFA04
:1018400053EC182B51EC100B0FF004FF01D00120CA
:1018500000E00020C0B2002805D014F1BC0114F54E
:101860006A600DF0CEFA14F1D4000DF093FAB0EEE8
:10187000408AF0EE608A41F2140704EB07000DF095
:1018800089FA53EC182B51EC100B0FF0E3FE01D04A
:10189000012000E00020C0B2002805D014F1D401DE
:1018A00004EB07000DF0ADFA14F1DC000DF072FA54
:1018B000B0EE408AF0EE608A41F21C0704EB0700AC
:1018C0000DF068FA53EC182B51EC100B0FF0C2FE20
:1018D00001D0012000E00020C0B2002805D014F1A2
:1018E000DC0104EB07000DF08CFA14F501700DF02B
:1018F00035FA070014F56C600DF030FA874201D01C
:10190000012000E00020C0B2002805D014F50171CC
:1019100014F56C600DF088FA14F507700DF01EFADE
:10192000070004F6D8600DF019FA874201D00120B3
:1019300000E00020C0B2002805D014F5077104F6BD
:10194000D8600DF071FA14F160000CF0F2FC0700A1
:1019500014F574600CF0EDFC874201D0012000E02A
:101960000020C0B2002805D014F1600114F57460A5
:101970000DF092FA14F515700CF0DBFC070004F67C
:1019800058700CF0D6FC874201D0012000E0002006
:10199000C0B2002811D014F5157104F658700DF07E
:1019A0007BFA14F515700CF0C4FC002801D001205E
:1019B00000E0002041F64D21605442F20840205CD6
:1019C000012809D043D303281AD00FD305282AD0E1
:1019D0001FD3062831D03AE001208DF80A000DF11E
:1019E0000A0114F55C700DF0C8F938E002208DF89A
:1019F00009000DF1090114F55C700DF0BEF92EE03F
:101A000003208DF8080002A914F55C700DF0B5F9FB
:101A100025E004208DF807000DF1070114F55C7036
:101A20000DF0ABF91BE005208DF806000DF1060165
:101A300014F55C700DF0A1F911E006208DF8050099
:101A40000DF1050114F55C700DF097F907E0002029
:101A50008DF8040001A914F55C700DF08EF941F2C7
:101A6000240004EB000114F5A0600FF003FE41F226
:101A70002C0004EB000114F5A1600FF0FBFD41F216
:101A8000340004EB000114F5A2600FF0F3FD41F205
:101A90003C0004EB000114F5A3600FF0EBFD41F2F4
:101AA000440004EB000114F5A4600FF0E3FD41F2E3
:101AB0004C0004EB000114F5A5600FF0DBFD41F2D2
:101AC000540004EB000114F5A6600FF0D3FD41F2C1
:101AD0005C0004EB000114F5A7600FF0CBFD41F2B0
:101AE000640004EB000114F5A8600FF0C3FD41F29F
:101AF0006C0004EB000114F5A9600FF0BBFD41F28E
:101B0000740004EB000114F5AA600FF0B3FD41F27C
:101B10007C0004EB000114F5AB600FF0ABFD41F26B
:101B2000840004EB000114F5AC600FF0BFFD42F23D
:101B3000F800204407F0C6FA42F2B830204407F01B
:101B4000C1FA14F547700CF0F4FB012801D1012013
:101B500000E00020C0B2002807D0002114F5477033
:101B60000DF081F9200002F0C9FC04F614100DF00C
:101B7000F5F8B4F89E1A884201D0012000E0002058
:101B8000C0B2002807D0B4F89E0A099009A904F64B
:101B900014100DF05BF904F61C100DF0DFF80700CF
:101BA00014F59E500DF0DAF8874201D0012000E0D4
:101BB0000020C0B2002805D004F61C1114F59E5078
:101BC0000DF032F941F68820204403F0C4FD08905E
:101BD00008A914F509700DF039F941F20870204494
:101BE0000CF04BFAC0B2002801D0012000E0002028
:101BF000C0B2002814D041F23077E05D002804D054
:101C00002068C0300FF044FE03E02068C0300FF0C1
:101C100048FEE05D002801D1012000E00020E055F1
:101C200041F6B82020440CF028FAC0B2002801D0B8
:101C3000012000E00020C0B2002838D041F6B020DA
:101C4000205C00280AD041F678202158491C2150F8
:101C500004EB000114F50B700DF0F8F841F6981044
:101C6000205C022823D14FF4D4502158491C215024
:101C700041F68427E2590021E059401E10F00BF88C
:101C8000E05141F6882704EB070003F0CAFC14F585
:101C9000D45114F50F700DF0D9F804EB070003F0E0
:101CA00058FD079007A914F511700DF0CFF841F613
:101CB0009810205C002806D0022800F0B483C0F001
:101CC000F58001F0D4BC41F69917E05D002804D0FE
:101CD000022800F0AC8077D3E6E00DF006F8DFF8DC
:101CE000DC1C0FF0DFFF002104EB080004F0E8FC2F
:101CF000002114F5BD5004F0E3FC012104EB0500C4
:101D000004F004FC002114F5C35004F0D9FC0021B8
:101D100004EB0A0004F0D4FC002104EB060004F0FC
:101D2000CFFC002104EB08000DF0B3F8002114F5FE
:101D3000BD500DF0AEF8002114F5C3500DF0A9F818
:101D4000002104EB0A000DF0A4F8002104EB0600CA
:101D50000DF09FF8002114F178000DF084F841F6A1
:101D6000F01004EB000114F507700DF06FF841F26C
:101D7000187020440CF0F8F841F2286004EB0001E0
:101D800004F678200CF0F9FF41F22A6004EB000120
:101D900004F688200FF045FA41F2306004EB0001B0
:101DA00014F527600DF020F841F2386004EB0001D3
:101DB00014F529600DF04AF8002114F5A85004F03C
:101DC000A4FF0120E0556FE041F2187020440CF0B0
:101DD000D8F8C0B2002801D0012000E00020C0B235
:101DE000002823D00CF081FFDFF8D05B29000FF032
:101DF00059FF0CF07AFFDFF8886D31000FF058FFC3
:101E000029000FF04FFF0CF070FFDFF86C1D0FF092
:101E10004FFF29000FF046FF0CF067FF31000FF075
:101E200047FF29000FF03EFF0220E0553CE014F18F
:101E300078000CF07EFA012801D1012000E000209A
:101E4000C0B2002830D0002114F178000DF00BF85A
:101E5000002114F184000DF006F814F10C000CF0D0
:101E600057FAC0B2012802D0022807D013E001209F
:101E700041F6981160540020E05515E004F6484002
:101E80000FF0DCF90FF0E4F8022041F698116054ED
:101E90000020E05508E000208DF803000DF103015B
:101EA00014F10C000CF069FF01F0E1BB41F6582978
:101EB00014F80900002802D0012858D0B1E20CF033
:101EC00014FFDFF8F87A39000FF0ECFE0CF00DFF8C
:101ED000DFF8ACBC59460FF0EBFE39000FF0E2FE24
:101EE0000CF003FFDFF8941C0FF0E2FE39000FF056
:101EF000D9FE0CF0FAFE59460FF0DAFE39000FF069
:101F0000D1FE41F6E82704EB0700D0E9002304EBFB
:101F1000080004F0F1FB04EB0700D0E9002314F5FE
:101F2000BD5004F0E9FB04EB0700D0E9002304EB0B
:101F3000050004F0FFFA04EB0700D0E9002314F5D4
:101F4000C35004F0D9FB04EB0700D0E9002304EBF5
:101F50000A0004F0D1FB04EB0700D0E9002304EBF6
:101F6000060004F0C9FB012004F8090059E214F14D
:101F70006C000CF0DEF9012801D1012000E0002006
:101F8000C0B2002815D0002114F16C000CF06BFFDA
:101F9000002004F80900002041F698116054002048
:101FA0008DF802000DF1020114F10C000CF0E5FEB9
:101FB00037E214F5AE700CF0BCF9070004EB080032
:101FC00004F087FB874201D0012000E00020C0B26E
:101FD000002808D014F5AE700CF0ABF9010004EB4A
:101FE000080004F06DFB14F5B4700CF0A2F90700C2
:101FF00014F5BD5004F06DFB874201D0012000E0D4
:102000000020C0B2002808D014F5B4700CF091F98B
:10201000010014F5BD5004F053FB14F59C700CF056
:1020200088F9070004EB050004F079FA874201D033
:10203000012000E00020C0B2002808D014F59C70F8
:102040000CF077F9010004EB050004F05FFA14F1DD
:10205000FC000CF06EF9050014F5C35004F039FBD8
:10206000854201D0012000E00020C0B2002808D045
:1020700014F1FC000CF05DF9010014F5C35004F0FC
:102080001FFB14F584700CF054F9050004EB0A00F2
:1020900004F01FFB854201D0012000E00020C0B207
:1020A000002808D014F584700CF043F9010004EB0B
:1020B0000A0004F005FB14F58A700CF03AF90500EB
:1020C00004EB060004F005FB854201D0012000E08E
:1020D0000020C0B2002808D014F58A700CF029F94D
:1020E000010004EB060004F0EBFA04EB08000FF02B
:1020F000DAFE41F64D25615DC0B2814201D001207A
:1021000000E00020C0B2002804D0615D04EB0800AC
:102110000CF0BFFE14F5BD500FF0C5FE615DC0B2FE
:10212000814201D0012000E00020C0B2002804D08C
:10213000615D14F5BD500CF0ACFE14F5C3500FF00A
:10214000B2FE615DC0B2814201D0012000E00020FA
:10215000C0B2002804D0615D14F5C3500CF099FEA4
:1021600004EB0A000FF09FFE615DC0B2814201D016
:10217000012000E00020C0B2002804D0615D04EB23
:102180000A000CF086FE04EB06000FF08CFE615D89
:10219000C0B2814201D0012000E00020C0B200287E
:1021A00004D0615D04EB06000CF073FE04F62820F9
:1021B0000CF0F0FD4FF4D95553EC102B04EB050057
:1021C000D0E900010FF046FA01D0012000E0002024
:1021D000C0B200283BD004F628200CF0DBFD41F60D
:1021E000F820204490ED002B41F6F020204490EDA3
:1021F000001B0FF05BFE8DED120B04F628200CF097
:10220000C9FD53EC102BDDE912010FF023FA01D0C8
:10221000012000E00020C0B2002804D012A904F67A
:1022200028200CF0E1FD04EB05009DED120B80ED84
:10223000000B12A941F2B44020440CF0D5FD04EB90
:10224000050090ED000B14F5B25007F086F914F577
:1022500023600CF09FFD41F6283553EC102B04EB66
:102260000500D0E900010FF0F5F901D0012000E0F0
:102270000020C0B2002833D014F523600CF08AFD92
:1022800041F6F820204490ED002B41F6F020204448
:1022900090ED001B0FF00AFE8DED100B14F523607E
:1022A0000CF078FD53EC102BDDE910010FF0D2F9A2
:1022B00001D0012000E00020C0B2002804D010A905
:1022C00014F523600CF090FD04EB05009DED100B60
:1022D00080ED000B10A941F2BC4020440CF084FDBD
:1022E00004F638200CF056FD41F6303553EC102B37
:1022F00004EB0500D0E900010FF0ACF901D001209A
:1023000000E00020C0B200283AD004F638200CF0DB
:1023100041FD41F60830204490ED002B14F5D850D3
:1023200090ED001B0FF0C2FD8DED0E0B04F6382072
:102330000CF030FD53EC102BDDE90E010FF08AF9A3
:1023400001D0012000E00020C0B2002804D00EA976
:1023500004F638200CF048FD04EB05009DED0E0B53
:1023600080ED000B0EA941F2C44020440CF03CFD6E
:1023700004EB050090ED000B14F5B25007F07EF968
:1023800004F648200CF006FD41F6383553EC102BCE
:1023900004EB0500D0E900010FF05CF901D0012049
:1023A00000E00020C0B200283BD004F648200CF02A
:1023B000F1FC41F61830204490ED002B41F610302E
:1023C000204490ED001B0FF071FD8DED0C0B04F619
:1023D00048200CF0DFFC53EC102BDDE90C010FF072
:1023E00039F901D0012000E00020C0B2002804D05B
:1023F0000CA904F648200CF0F7FC04EB05009DED59
:102400000C0B80ED000B0CA941F2CC4020440CF0E9
:10241000EBFC04EB050090ED000B14F5B25007F057
:1024200013F901F024B941F69A17E05D00283DD078
:10243000022800F05883C0F03683042800F0F383AC
:10244000C0F0A483062800F01884C0F00184082896
:1024500000F08E84C0F032840A2800F0BF84C0F0FF
:102460009C840C2800F02A85C0F014850E2800F00A
:102470007385C0F03785102800F0AA85C0F08585E7
:10248000122800F06386C0F0C385142800F08B8604
:10249000C0F07586162800F0BB86C0F0AA86182802
:1024A00001F08A80C1F0208001F095B80CF01DFC8D
:1024B000DFF808150FF0F6FB0CF017FCDFF8C0B6DC
:1024C00059460FF0F5FBDFF8F4140FF0EBFB0CF0BE
:1024D0000CFCDFF8701C0FF0EBFBDFF8E0140FF0E2
:1024E000E1FB0CF002FC59460FF0E2FBDFF8CC14E4
:1024F0000FF0D8FB0CF0F9FBDFF84C1C0FF002FDDD
:1025000014F1B4000CF046FC41F6B010204480ED0C
:10251000000B14F1BC000CF03DFC41F6A810204467
:1025200080ED000B002041F6A511605414F50170F8
:102530000CF014FC0B900BA80BF07CFC41F6E81996
:1025400004EB0902C2E9000104EB0900D0E9002311
:1025500004EB080004F0D0F804EB0900D0E90023F4
:1025600014F5BD5004F0C8F804EB0900D0E90023CD
:1025700004EB050003F0DEFF04EB0900D0E90023C3
:1025800014F5C35004F0B8F804EB0900D0E90023B7
:1025900004EB0A0004F0B0F804EB0900D0E90023D2
:1025A00004EB060004F0A8F814F515700BF0C1FE5A
:1025B000002801D0012000E0002041F64D256055A3
:1025C000615D04F658700CF04EFC605D002818D078
:1025D000012104EB08000CF05CFC012114F5BD5056
:1025E0000CF057FC012114F5C3500CF052FC0121F2
:1025F00004EB0A000CF04DFC012104EB06000CF08A
:1026000048FC04EB090141F6D02020440BF0A1FC6A
:10261000002041F23C61605414F5D2500FF07CFC74
:1026200041F6F81020440FF092FC41F6302020448F
:102630000FF0A8FC14F11C000BF06AFE41F63C25DB
:102640006055605D022825DB04EB050114F1A00054
:102650000CF093FB0CF049FB59460FF029FBD749CE
:102660000FF020FB0CF041FBDFF8A01D0FF020FB6A
:102670000CF03BFB615D0FF0A0FCD04D29000FF08A
:1026800011FB0CF032FB59460FF012FB29000FF042
:1026900009FB08E001208DF801000DF1010114F1A2
:1026A000A0000CF06AFB14F160000BF042FE002861
:1026B00001D0012000E0002041F64C216054615C13
:1026C00014F160000CF0CFFB14F5A8500FF0F9FCEA
:1026D00041F22860215C14F5A85004F036FB41F269
:1026E0002A60215A14F5A85004F040FB14F5077035
:1026F0000CF034FB41F6F01560514FF47A700A90FB
:102700000AA80BF097FBCDE9260126A914F5D350B2
:102710000BF01FFC002041F678216050002014F5DA
:10272000D45108600020069006A914F50F700CF033
:102730008DFB41F6882B04EB0B0002F03CFF615946
:1027400004EB0B0002F064FF04F628200CF022FBDF
:102750004FF4D95504EB050080ED000B41F6F0294C
:1027600041F6F82804EB080090ED002B04EB09007B
:1027700090ED001B04EB050090ED000B0FF096FBB5
:1027800004EB050080ED000B41F2B44604EB0600BB
:102790000CF000FB04EB0500D0E9002351EC100B1A
:1027A0000EF058FF01D0012000E00020C0B2002848
:1027B00005D014F5D95104EB06000CF015FB14F507
:1027C00023600CF0E7FA41F6283604EB060080EDB2
:1027D000000B04EB080090ED002B04EB090090EDDA
:1027E000001B04EB060090ED000B0FF05FFB04EB09
:1027F000060080ED000B41F2BC4804EB08000CF031
:10280000C9FA04EB0600D0E9002351EC100B0EF0DE
:1028100021FF01D0012000E00020C0B2002805D037
:1028200004EB060104EB08000CF0DEFA04EB0500F3
:10283000D0E9000104EB0602D2E900230FF056FCB8
:1028400007D204EB060004EB050191ED000B80EDCF
:10285000000B04F638200CF09DFA41F6303904EBF9
:10286000090080ED000B41F60830204490ED002B6C
:1028700014F5D85090ED001B04EB090090ED000B0F
:102880000FF014FB04EB090080ED000B41F2C4488B
:1028900004EB08000CF07EFA04EB0900D0E90023F9
:1028A00051EC100B0EF0D6FE01D0012000E000200C
:1028B000C0B2002805D004EB090104EB08000CF0BD
:1028C00093FA04F648200CF065FA41F6383804EB28
:1028D000080080ED000B41F61830204490ED002BED
:1028E00041F61030204490ED001B04EB080090ED01
:1028F000000B0FF0DBFA04EB080080ED000B41F257
:10290000CC4A04EB0A000CF045FA04EB0800D0E9CD
:10291000002351EC100B0EF09DFE01D0012000E0D1
:102920000020C0B2002805D004EB080104EB0A0027
:102930000CF05AFA14F556700BF0FBFC002801D08D
:10294000012000E000204FF4DA5A04F80A0004F6EF
:10295000D8700BF0EEFC14F80A10814201D001206F
:1029600000E00020C0B2002805D014F80A1004F6D8
:10297000D8700CF078FA04EB080090ED000B14F519
:10298000B25006F061FE04EB090090ED000B14F567
:10299000B25006F073FE9FED7B8B14F80A000028FE
:1029A0000ED004EB060090ED000B14F5B25006F0CB
:1029B000D4FD04EB060090ED009B0DE0954A050860
:1029C00004EB050090ED000B14F5B25006F0C5FDC8
:1029D00004EB050090ED009B0CF087F9DFF8A01CDC
:1029E0000FF066F90CF081F9DFF8981C0FF08AFA05
:1029F000DFF854170FF086FA0600042134A80CF013
:102A000091F9DDE93401CDE9240124A930000CF06D
:102A100095F90CF06AF904EB050191ED000B0FF04C
:102A20007CFB0CF062F9DFF8601C0FF041F90CF050
:102A30005CF9B0EE490AF0EE690A0FF06EFB0CF09B
:102A400054F9CAA10FF034F9DFF8401C0FF02AF94D
:102A50000CF04BF90500082134A80CF063F9DDE90E
:102A60003401CDE9220122A928000CF067F90121E7
:102A700041F6483020440FF0C0FB42F208400121EB
:102A80002154215C04EB0B0002F067FE0A2104EBE9
:102A90000B0002F0DBFE002041F6C821605401204B
:102AA000E05500F098BD14F5A8500FF0ACFB0128DC
:102AB0000CD114F5B25006F00DFEC0B2002801D1C1
:102AC000012000E0002090F0010000E00020C0B2F2
:102AD000002806D0012114F5BD5003F0F1FD0220BD
:102AE000E05500F078BD20000FF090FBC0B2002848
:102AF00001D0012000E00020C0B200283AD0002020
:102B000041F6B021605414F5D3500BF02DFA41F684
:102B1000F010205841F6F41160500CF0E6F8DFF8A0
:102B20006C5B29000FF0BEF8DFF8641B0FF0C0F8F3
:102B30000CF0DBF8060014F507700CF00FF901003B
:102B400030000FF0B4FBD1A10FF0B2F829000FF064
:102B5000A9F842F2084002212154215C41F6882064
:102B6000204402F0FAFD002114F5A85004F0CDF83D
:102B70000320E05500F02FBD5C5C0508805C050873
:102B8000385C0508000000000000000014F5D35078
:102B90000BF0F7F9C0B2002801D0012000E00020BE
:102BA000C0B200283DD041F6F415605900281ED06F
:102BB00014F5D3500BF0D8F96059401E60510CF059
:102BC00094F8B3A10FF074F8DFF8C81A0FF06AF8A0
:102BD00060593C21B0FBF1F201FB1200002820D12A
:102BE0000CF083F8DFF8A41A0FF05CF819E014F584
:102BF000A8500FF066FA012041F6C82160540CF08D
:102C000074F8DFF8881A0FF04DF842F208400321FB
:102C10002154215C41F68820204402F09EFD0420CE
:102C2000E05500F0D8BC14F5A8500FF0AAFB00281E
:102C300001D0012000E00020C0B2002806D0002111
:102C400014F5BD5003F03CFD0520E05500F0C3BC79
:102C500020000FF0DBFAC0B2002801D0012000E014
:102C60000020C0B2002806D0002104EB050003F0CC
:102C70004DFC0620E05500F0AEBC20000FF0C6FA77
:102C8000C0B200280BD014F5A8500FF07AFB002832
:102C900001D1012000E0002090F0010000E00020C0
:102CA000C0B2002808D041F23860215814F5A8506D
:102CB00004F02BF80720E05500F08DBC14F5A85067
:102CC0000FF05FFB002801D0012000E00020C0B21F
:102CD000002849D014F5A85004F02BF841F6F81656
:102CE00004EB060080ED000B14F5A85004F024F866
:102CF0004FF4D05804EB080080ED000B0BF0F5FF0B
:102D0000DFF8301B0EF0D4FFDFF8805929000EF0F9
:102D1000C9FF0BF0EAFFDFF8201B0EF0C9FF04EB40
:102D2000060191ED000B0FF0F8F90BF0DEFF0FA696
:102D300031000EF0BDFF29000EF0B4FF0BF0D5FFFF
:102D4000DFF8F81A0EF0B4FF04EB080191ED000B68
:102D50000FF0E3F90BF0C9FF31000EF0A9FF2900D5
:102D60000EF0A0FF0820E05500F035BC20C20000A6
:102D700020000FF04BFAC0B2002801D0012000E083
:102D80000020C0B2002806D0012104EB060003F0A9
:102D900097FC0920E05500F01EBC20000FF036FA29
:102DA000C0B200280BD014F5A8500FF0EAFA0028A2
:102DB00001D1012000E0002090F0010000E000209F
:102DC000C0B2002808D041F23860215814F5A8504C
:102DD00003F09BFF0A20E05500F0FDBB14F5A8505E
:102DE0000FF0CFFA002801D0012000E00020C0B28F
:102DF000002849D014F5A85003F09BFF41F608269F
:102E000004EB060080ED000B14F5A85003F094FFCE
:102E100041F6102804EB080080ED000B0BF065FF75
:102E2000DFF81C1A0EF044FFDFF8605829000EF09E
:102E300039FF0BF05AFFDFF80C1A0EF039FF04EBE4
:102E4000060191ED000B0FF068F90BF04EFFBCA6E8
:102E500031000EF02DFF29000EF024FF0BF045FF8E
:102E6000DFF8E4190EF024FF04EB080191ED000BEC
:102E70000FF053F90BF039FF31000EF019FF290064
:102E80000EF010FF0B20E055A5E300BF206300000B
:102E90002E00000020000FF0B9F9C0B2002801D0C8
:102EA000012000E00020C0B2002806D0002104EB81
:102EB000060003F005FC0C20E0558CE320000FF029
:102EC000A5F9C0B2002801D0012000E00020C0B266
:102ED000002806D0012104EB050003F017FB0D20AC
:102EE000E05578E320000FF091F9C0B2002801D03E
:102EF000012000E00020C0B200282CD041F6A5102F
:102F0000205C002802D0012810D01EE0012114F519
:102F1000BD5003F0D5FB0BF0E8FEDFF8AC190EF066
:102F2000C7FEDFF868170EF0BDFE0EE0012104EBCE
:102F3000080003F0C5FB0BF0D8FEDFF890190EF087
:102F4000B7FEDFF848170EF0ADFE002041F23C61FD
:102F500060540E20E0553EE320000FF057F9C0B258
:102F6000002801D0012000E00020C0B200280BD0D2
:102F700041F64C20205C002804D0002104EB050021
:102F800003F0C4FA0F20E05525E320000FF03EF9CE
:102F9000C0B2002801D0012000E00020C0B200280B
:102FA00015D041F23C65615D20000FF0F3F901009E
:102FB00004EB0A0003F084FB615D20000FF0F0F9E0
:102FC000010014F5C35003F07BFB1020E05502E331
:102FD00020000FF01BF9C0B200280BD014F5A85048
:102FE0000FF0CFF9002801D1012000E0002090F07F
:102FF000010000E00020C0B2002808D041F2386093
:10300000215814F5A85003F080FE1120E055E2E2AB
:1030100014F5A8500FF0B5F9002801D0012000E008
:103020000020C0B2002800F0898014F5A85003F0F9
:1030300080FE8DED1A0B14F5A85003F07DFE8DED8A
:10304000180B1AA941F6182020440FF0AEF918A960
:1030500041F6242020440FF0A8F941F23C65665D5A
:103060000BF043FEDFF868180EF022FE31000EF080
:10307000A4FF0BF03AFEDFF85C180EF019FEDFF843
:103080000C8641460EF00EFE0BF02FFEDDA10EF079
:103090000FFE0BF02AFE8146615D20000FF080F9E3
:1030A000010048460EF089FF0BF01FFE8146615D6E
:1030B00020000FF06FF9010048460EF07EFF0BF084
:1030C00014FE0FF2443949460EF0F2FD9DED1A0B45
:1030D0000FF023F80FF2680A51460EF0E9FD414661
:1030E0000EF0E0FD0BF001FEC9A10EF0E1FD0BF0CA
:1030F000FCFD8346615D20000FF052F90100584647
:103100000EF05BFF0BF0F1FD8346615D20000FF0D8
:1031100041F9010058460EF050FF0BF0E6FD49461C
:103120000EF0C6FD9DED180B0EF0F7FF51460EF0A8
:10313000BFFD41460EF0B6FD1220E0554BE200BF48
:1031400020C20000A45C05089193050820000FF040
:103150005DF8C0B2002801D0012000E00020C0B21C
:1031600000280BD041F23C60215C032904DA0321E2
:1031700021540F20E05501E01320E0552BE2200000
:103180000FF044F8C0B2002801D0012000E0002078
:10319000C0B2002806D0012104EB050003F0B6F907
:1031A0001420E05517E220000FF030F8C0B20028DC
:1031B00001D0012000E00020C0B2002818D041F664
:1031C000A515605D002802D001280AD010E000217A
:1031D00014F5BD5003F074FA012060550D20E05540
:1031E00006E0002104EB080003F06AFA1520E05520
:1031F000F1E120000FF00AF8C0B2002801D0012050
:1032000000E00020C0B2002801D01620E055E2E125
:103210000BF06BFDDFF8C0160EF04AFDDFF86C54C2
:1032200029000EF03FFD022104F6A82003F0EBFB7D
:1032300041F67C2841F67826A05944F8080004EBB2
:10324000080114F50D700BF001FE0020A05104EBF5
:10325000060114F50B700BF0F9FD0BF046FD29008B
:103260000EF020FD54F80800549004F2D4700BF0D6
:1032700091FD8DED4E0B04F2BC700BF08BFD8DEDCE
:10328000500B04F2C4700BF085FD8DED520BC8A1FC
:1032900036A80AF0AFFFC7A13DA80AF0ABFF41F680
:1032A000182020440FF008F9060076080BF01DFDE9
:1032B0008046082134A80BF035FDDDE93401CDE965
:1032C000200120A940460BF039FD0BF00EFDDFF880
:1032D0000C160EF0EDFC41F6F811214491ED000BB7
:1032E0000EF01BFF0BF001FD0FF28C3841460EF083
:1032F000DFFC14F5D05191ED000B0EF00EFF29000C
:103300000EF0D0FC0BF0F1FCDFF8D4150EF0D0FC81
:1033100041F60821214491ED000B0EF0FEFE0BF06A
:10332000E4FC41460EF0C4FC41F61021214491ED2D
:10333000000B0EF0F2FE29000EF0B4FC5FF0000965
:103340004846C0B2022868DA5FF0000A5046C0B2B0
:10335000B0425FD20BF0C9FCC8A10EF0A9FC0BF083
:10336000C4FC83465146C9B220000FF019F8010091
:1033700058460EF022FE0BF0B8FC83465146C9B207
:1033800020000FF007F8010058460EF016FE0BF073
:10339000ACFC36AA4B46DBB21C214B4302EB0301CB
:1033A0000FF099F80BF0A1FC41460EF081FC83462A
:1033B0004846C0B2704350FA8AF141F618202044C2
:1033C0000FF094F890ED000B58460EF0A6FE0BF0AF
:1033D0008CFC41460EF06CFC83464846C0B27043FC
:1033E00050FA8AF141F6242020440FF07FF890ED46
:1033F000000B58460EF091FE29000EF053FC1AF116
:10340000010AA3E756315F00203D20002C87050804
:1034100056325F0019F1010992E70BF066FC2900B2
:103420000EF040FC41F6B81804EB08020020DFF86B
:10343000B414C2E900010BF058FCDFF8AC140EF034
:1034400037FC29000EF02EFC0BF04FFC81460E21BC
:1034500034A80BF06CFCDDE93401CDE91C011CA99A
:1034600048460BF06BFC81460E2134A80BF05AFC49
:10347000DDE93401CDE91E011EA948460BF05EFCD2
:103480000BF033FC04EB080191ED000B0EF045FE50
:1034900029000EF007FC04EB080090ED000B8DED09
:1034A000440B00200021CDE95C0100200021CDE982
:1034B0005E0100200021CDE9600100200021CDE95E
:1034C0006201002064900020659044A914F5D25058
:1034D0000FF016F81720E05502231C22DFF80C1419
:1034E00036A80FF097F876E0002114F1A0000FF055
:1034F000A9F814F5D2500FF0C5F841F63C25615DEE
:1035000088420DD3012114F184000BF0ACFC04F6C9
:1035100048400DF093FE0DF0A4FD1820E05545E065
:103520000BF0E3FBDFF8C86331000EF0C1FBDFF8FE
:103530005C8141460EF0B6FB0BF0D7FBDFF8B4130D
:103540000EF0B6FB0BF0D1FB814614F5D2500FF014
:1035500099F8401C010048460EF0A9FE0BF0C5FB8F
:10356000DFF894130EF0A4FB615D0EF026FD4146DA
:103570000EF098FB0BF0B9FB31000EF099FB4146C1
:103580000EF090FB002041F6A511605414F5DA50BE
:103590000078002808D041F62830204490ED000B38
:1035A00014F5B25005F0D9FF0420E05513E000BF38
:1035B0002D0000002B000000002041F6B0216054D7
:1035C000032104F6A82003F01EFA0020E055002095
:1035D00041F69811605414F16C000AF0AAFE01281B
:1035E00001D1012000E00020C0B200283FD00BF044
:1035F0007CFBDFF8FC120EF05BFB244D29000EF083
:1036000051FB0BF072FBDFF8F4120EF051FB2900B6
:103610000EF048FB002114F16C000BF024FC42F288
:10362000084000212154215C41F68820204402F00A
:1036300094F814F5A8500EF044FD41F69810215C62
:10364000022908D104F648400DF0F8FD0DF0F7FC12
:103650001820E0550BE00021E15500212154002005
:103660008DF80000694614F10C000BF086FB7EB06B
:10367000BDEC048BBDE8F18F20000000565F000018
:10368000408705080B85050854870508954A0508F5
:10369000D87B050857A0050838B584B004000AF0A7
:1036A00031FE039014F5A0600AF032FE8DF80C0094
:1036B00014F5A1600AF02CFE8DF80D0014F5A2603F
:1036C0000AF026FE8DF80E0014F5A3600AF020FE25
:1036D0008DF80F000AF016FE029014F5A4600AF0AF
:1036E00017FE8DF8080014F5A5600AF011FE8DF89C
:1036F000090014F5A6600AF00BFE8DF80A0014F517
:10370000A7600AF005FE8DF80B000AF0FBFD0190A2
:1037100014F5A8600AF0FCFD8DF8040014F5A9600A
:103720000AF0F6FD8DF8050014F5AA600AF0F0FD28
:103730008DF8060014F5AB600AF0EAFD8DF807007D
:1037400014F5AC600AF0F5FD002801D0012500E079
:1037500000252800C0B20090019B029A03992068BE
:10376000A0300AF06EFE05B030BD18B585B004007B
:103770000AF0C8FD04900AF0C5FD03900AF0C2FDEE
:10378000029000208DF8040001A8009002AB03AA6B
:1037900004A92068A0300AF035FE04A914F5A06041
:1037A0000BF0EBFA0DF1110114F5A1600BF0E5FA45
:1037B0000DF1120114F5A2600BF0DFFA0DF1130107
:1037C00014F5A3600BF0D9FA03A914F5A4600BF06B
:1037D000D4FA0DF10D0114F5A5600BF0CEFA0DF140
:1037E0000E0114F5A6600BF0C8FA0DF10F0114F5E7
:1037F000A7600BF0C2FA02A914F5A8600BF0BDFA9D
:103800000DF1090114F5A9600BF0B7FA0DF10A01E9
:1038100014F5AA600BF0B1FA0DF10B0114F5AB60D1
:103820000BF0ABFA9DF8041014F5AC600BF01BFB29
:1038300006B010BDC85C050880AC050888AC05085A
:10384000A071050890AC050898AC050870B5050096
:103850000E00140030003168C9688847C0B20028E3
:1038600001D1012000E00020C0B2002804D03000C7
:103870003168896A8847EDE7300009F051FFC0B22E
:10388000002801D0012000E00020C0B2002819D09B
:10389000002C0DD020000EF005FF0BF026FADFF80B
:1038A000B41B0EF005FADFF8A81B0EF0FBF909E0D7
:1038B0000BF01BFADFF8A01B0EF0FAF9DFF8901BF3
:1038C0000EF0F0F9280070BDEC5C0508105D0508ED
:1038D0007C9A050868870508345D0508A0AC0508D2
:1038E000A8AC05080000F03F7CA1050815E200081F
:1038F000385C05088C9A0508B0AC0508585D0508C9
:1039000070472DE9F843ADF5027D04000BF0EDF9A9
:10391000DFF8481B0EF0CCF90BF0E7F9DFF8305B6D
:1039200029000EF0BFF90BF0E0F90600122180A883
:103930000BF0FDF9DDE98001CDE97E017EA93000C3
:103940000BF0FCF9DFF8186B31000EF0DBFADFF852
:10395000141B0EF0ADF90BF0C8F90700072180A881
:103960000BF0E5F9DDE98001CDE97C017CA93800A7
:103970000BF0E4F931000EF0C5FA41F64C21615C20
:103980000FF0E0FB0BF0B1F90700202180A80BF04D
:10399000CEF9DDE98001CDE97A017AA938000BF092
:1039A000CDF931000EF0AEFADFF8BC1A0EF080F956
:1039B0000BF09BF90700072180A80BF0B8F9DDE9AF
:1039C0008001CDE9780178A938000BF0B7F9310012
:1039D0000EF098FA0BF089F90700202180A80BF06F
:1039E000A6F9DDE98001CDE9760176A938000BF072
:1039F000A5F931000EF086FADFF8701A0EF058F9CA
:103A00000BF073F90700072180A80BF090F9DDE9AE
:103A10008001CDE9740174A938000BF08FF93100F1
:103A20000EF070FA0BF061F929000EF03BF90BF083
:103A30005CF90700002180A80BF074F9DDE9800132
:103A4000CDE9720172A938000BF078F90BF04DF94D
:103A50000700122180A80BF06AF9DDE98001CDE9A9
:103A6000700170A938000BF069F931000EF04AFAC4
:103A7000DFF8FC190EF01CF90BF037F907000721ED
:103A800080A80BF054F9DDE98001CDE96E016EA943
:103A900038000BF053F931000EF034FA0BF025F931
:103AA0000700202180A80BF042F9DDE98001CDE973
:103AB0006C016CA938000BF041F931000EF022FACC
:103AC000DFF8B0190EF0F4F80BF00FF9070007213A
:103AD00080A80BF02CF9DDE98001CDE96A016AA923
:103AE00038000BF02BF931000EF00CFA0BF0FDF85A
:103AF0000700202180A80BF01AF9DDE98001CDE94B
:103B0000680168A938000BF019F931000EF0FAF9D4
:103B1000DFF864190EF0CCF80BF0E7F80700072186
:103B200080A80BF004F9DDE98001CDE9660166A902
:103B300038000BF003F931000EF0E4F90BF0D5F882
:103B400029000EF0AFF80BF0D0F80700122180A882
:103B50000BF0EDF8DDE98001CDE9640164A93800DE
:103B60000BF0ECF831000EF0CDF9DFF810190EF083
:103B70009FF80BF0BAF80700072180A80BF0D7F8E0
:103B8000DDE98001CDE9620162A938000BF0D6F8C9
:103B900031000EF0B7F90BF0A8F80700DFF8E008E5
:103BA000D0E900010FF03AFB8046894641F6E81063
:103BB0002044D0E900010FF031FB42464B460FF0A4
:103BC00065FB80468946DFF8BC08D0E900010FF0AC
:103BD00025FB02000B00404649460FF035FC002251
:103BE000DFF8A4380FF052FB41EC100B38000EF058
:103BF00094FA0BF07AF80700202180A80BF097F8D0
:103C0000DDE98001CDE9600160A938000BF096F88C
:103C100031000EF077F9DFF874180EF049F80BF068
:103C200064F80700072180A80BF081F8DDE9800126
:103C3000CDE95E015EA938000BF080F831000EF08E
:103C400061F90BF052F80700202180A80BF06FF803
:103C5000DDE98001CDE95C015CA938000BF06EF86C
:103C600031000EF04FF9DFF828180EF021F80BF0B4
:103C70003CF80700072180A80BF059F8DDE9800126
:103C8000CDE95A015AA938000BF058F831000EF06E
:103C900039F90BF02AF829000EF004F80BF025F89A
:103CA0000700122180A80BF042F8DDE98001CDE980
:103CB000580158A938000BF041F831000EF022F9F4
:103CC000DFF8D0170DF0F4FF0BF00FF80700072115
:103CD00080A80BF02CF8DDE98001CDE9560156A94A
:103CE00038000BF02BF831000EF00CF941F6F01112
:103CF00061580EF0DCFA0AF0F8FF0700202180A8D6
:103D00000BF015F8DDE98001CDE9540154A9380024
:103D10000BF014F831000EF0F5F8DFF87C170DF019
:103D2000C7FF0AF0E2FF0700072180A80AF0FFFFA3
:103D3000DDE98001CDE9520152A938000AF0FEFF09
:103D400031000EF0DFF80AF0D0FF0700202180A834
:103D50000AF0EDFFDDE98001CDE9500150A93800FE
:103D60000AF0ECFF31000EF0CDF8DFF830170DF05F
:103D70009FFF0AF0BAFF0700072180A80AF0D7FFCB
:103D8000DDE98001CDE94E014EA938000AF0D6FFE9
:103D900031000EF0B7F80AF0A8FF29000DF082FFFD
:103DA0000AF0A3FF0700122180A80AF0C0FFDDE996
:103DB0008001CDE94C014CA938000AF0BFFF310069
:103DC0000EF0A0F8DFF8D8160DF072FF0AF08DFFA4
:103DD0000700072180A80AF0AAFFDDE98001CDE9EC
:103DE0004A014AA938000AF0A9FF31000EF08AF80A
:103DF0000AF07BFF0700202180A80AF098FFDDE988
:103E00008001CDE9480148A938000AF097FF310048
:103E10000EF078F8DFF88C160DF04AFF0AF065FF17
:103E20000700072180A80AF082FFDDE98001CDE9C3
:103E3000460146A938000AF081FF31000EF062F811
:103E40000AF053FF0700202180A80AF070FFDDE987
:103E50008001CDE9440144A938000AF06FFF310028
:103E60000EF050F8DFF840160DF022FF0AF03DFF8B
:103E70000700072180A80AF05AFFDDE98001CDE99B
:103E8000420142A938000AF059FF31000EF03AF819
:103E90000AF02BFF29000DF005FF0AF026FF0700AE
:103EA000122180A80AF043FFDDE98001CDE940013D
:103EB00040A938000AF042FF31000EF023F8DFF885
:103EC000EC150DF0F5FE0AF010FF0700072180A8A1
:103ED0000AF02DFFDDE98001CDE93E013EA9380061
:103EE0000AF02CFF31000EF00DF841F6A411615CD0
:103EF0000EF063F80AF0F9FE0700202180A80AF00E
:103F000016FFDDE98001CDE93C013CA938000AF04B
:103F100015FF31000DF0F6FFDFF894150DF0C8FE27
:103F20000AF0E3FE0700072180A80AF000FFDDE9A0
:103F30008001CDE93A013AA938000AF0FFFE3100CC
:103F40000DF0E0FF0AF0D1FE0700202180A80AF062
:103F5000EEFEDDE98001CDE9380138A938000AF02C
:103F6000EDFE31000DF0CEFFDFF848150DF0A0FE9C
:103F70000AF0BBFE0700072180A80AF0D8FEDDE9A1
:103F80008001CDE9360136A938000AF0D7FE3100AC
:103F90000DF0B8FF0AF0A9FE29000DF083FE0AF02B
:103FA000A4FE0700122180A80AF0C1FEDDE980010D
:103FB000CDE9340134A938000AF0C0FE31000DF01B
:103FC000A1FFDFF8F4140DF073FE0AF08EFE070077
:103FD000072180A80AF0ABFEDDE98001CDE93201BE
:103FE00032A938000AF0AAFE31000DF08BFF07005D
:103FF00014F50D700AF0B2FE010038000EF057F90A
:104000000AF073FE0700202180A80AF090FEDDE987
:104010008001CDE9300130A938000AF08FFE31006F
:104020000DF070FFDFF894140DF042FE0AF05DFE13
:104030000700072180A80AF07AFEDDE98001CDE9BA
:104040002E012EA938000AF079FE31000DF05AFF3A
:104050000AF04BFE0700202180A80AF068FEDDE987
:104060008001CDE92C012CA938000AF067FE31004F
:104070000DF048FFDFF848140DF01AFE0AF035FE87
:104080000700072180A80AF052FEDDE98001CDE992
:104090002A012AA938000AF051FE31000DF032FF42
:1040A0000AF023FE29000DF0FDFD0AF01EFE0700B8
:1040B000012180A80AF036FEDDE98001CDE9280162
:1040C00028A938000AF03AFE0AF00FFE0700122174
:1040D00080A80AF02CFEDDE98001CDE9260126A9A1
:1040E00038000AF02BFE31000DF00CFFDFF8D4137E
:1040F0000DF0DEFD0AF0F9FD0700202180A80AF08E
:1041000016FEDDE98001CDE9240124A938000AF07A
:1041100015FE31000DF0F6FEEB490DF0C9FD0AF079
:10412000E4FD0700072180A80AF001FEDDE9800117
:10413000CDE9220122A938000AF000FE31000DF07D
:10414000E1FE0AF0D2FD0700202180A80AF0EFFD71
:10415000DDE98001CDE9200120A938000AF0EEFD5B
:1041600031000DF0CFFED9490DF0A2FD0AF0BDFDE2
:104170000700072180A80AF0DAFDDDE98001CDE91A
:104180001E011EA938000AF0D9FD31000DF0BAFE5B
:104190000AF0ABFD29000DF085FD0AF0A6FD070031
:1041A000122180A80AF0C3FDDDE98001CDE91C01E0
:1041B0001CA938000AF0C2FD31000DF0A3FEC4496D
:1041C0000DF076FD0AF091FD0700202180A80AF08D
:1041D000AEFDDDE98001CDE91A011AA938000AF027
:1041E000ADFD31000DF08EFEBA490DF061FD0AF013
:1041F0007CFD0700202180A80AF099FDDDE98001FF
:10420000CDE9180118A938000AF098FD31000DF029
:1042100079FEB1490DF04CFD0AF067FD29000DF063
:1042200041FD0AF062FD0700122180A80AF07FFD1F
:10423000DDE98001CDE9160116A938000AF07EFDFE
:1042400031000DF05FFEA5490DF032FD0AF04DFD85
:104250000700072180A80AF06AFDDDE98001CDE9A9
:10426000140114A938000AF069FD31000DF04AFE6E
:10427000070014F54A700AF05CF8010038000DF0F0
:104280009CFE0AF032FD0700022180A80AF04AFDD8
:10429000DDE98001CDE9120112A938000AF04EFDD6
:1042A0000AF023FD0700202180A80AF040FDDDE987
:1042B0008001CDE9100110A938000AF03FFD31005E
:1042C0000DF020FE86490DF0F3FC0AF00EFD07000C
:1042D000072180A80AF02BFDDDE98001CDE90E0160
:1042E0000EA938000AF02AFD31000DF00BFE0AF08D
:1042F000FCFC070004F6F8100AF04CFD38000DF045
:104300000CFF0AF0F2FC0700202180A80AF00FFD44
:10431000DDE98001CDE90C010CA938000AF00EFDA1
:1043200031000DF0EFFD6F490DF0C2FC0AF0DDFC2D
:104330000700072180A80AF0FAFCDDE98001CDE939
:104340000A010AA938000AF0F9FC31000DF0DAFD83
:104350000AF0CBFC070014F51F600AF01BFD3800C3
:104360000DF0DBFE0AF0C1FC29000DF09BFC0AF009
:10437000BCFC0700122180A80AF0D9FCDDE980010D
:10438000CDE9080108A938000AF0D8FC31000DF089
:10439000B9FD55490DF08CFC0AF0A7FC07001C2163
:1043A00080A80AF0C4FCDDE98001CDE9060106A978
:1043B00038000AF0C3FC31000DF0A4FD4B490DF0AC
:1043C00077FC0AF092FC4A490DF09CFD0AF08DFC46
:1043D00048490DF097FD0700082180A80AF0A2FCCB
:1043E000DDE98001CDE9040104A938000AF0A6FC4A
:1043F0000AF07BFC07001C2180A80AF098FCDDE98C
:104400008001CDE9020102A938000AF097FC3100D1
:104410000DF078FD38490DF04BFC0AF066FC070002
:10442000082180A80AF083FCDDE98001CDE90001C4
:10443000694638000AF082FC31000DF063FD0AF095
:1044400054FC29000DF02EFC0DF5037DBDE8F08332
:10445000954A050844520508847105083844050842
:10446000998E050888A105089C9A05087C8705088F
:10447000AC9A050890870508A4870508BC9A05082A
:1044800000000020E893002000408F40B887050816
:10449000F07B0508CC9A0508087C0508BC71050866
:1044A000CC870508106905087C5D050894A10508FE
:1044B000E0870508207C0508DC9A0508F4870508D4
:1044C000387C0508088805081C880508507C050804
:1044D000687C0508807C0508D8710508987C05086B
:1044E00030690508A05D0508B07C0508C87C050892
:1044F0000B85050891930508308805082DE9F047DC
:10450000EEB004000AF0F1FBDFF814160DF0FAFC2F
:10451000DFF8105629000DF0C5FB0AF0E6FBDFF8C6
:1045200008160DF0C5FB0AF0E0FBDFF800A65146C7
:104530000DF0BEFB29000DF0B5FB0AF0D6FBDFF84D
:10454000F0150DF0B5FB04F624100FF0A0F8C0B282
:10455000002801D0012000E00020C0B2002805D0D2
:104560000AF0C3FBDFF8CC150DF0A2FB14F51360C5
:104570000FF08DF8C0B2002801D0012000E000202B
:10458000C0B2002805D00AF0B0FBDFF8AC150DF082
:104590008FFB04F63C100FF07AF8C0B2002801D06F
:1045A000012000E00020C0B2002805D00AF09DFBE9
:1045B000DFF888150DF07CFB04F648100FF067F863
:1045C000C0B2002801D0012000E00020C0B20028C5
:1045D00005D00AF08AFBDFF868150DF069FB04F6D8
:1045E00054100FF054F8C0B2002801D0012000E0B0
:1045F0000020C0B2002805D00AF077FBDFF8441590
:104600000DF056FB14F516600FF041F8C0B200280B
:1046100001D0012000E00020C0B2002805D00AF03F
:1046200064FBDFF824150DF043FB04F66C100FF06B
:104630002EF8C0B2002801D0012000E00020C0B256
:10464000002805D00AF051FBDFF800150DF030FB13
:1046500004F678100FF01BF8C0B2002801D001203A
:1046600000E00020C0B2002805D00AF03EFBDFF8D1
:10467000E0140DF01DFB04F684100FF008F8C0B232
:10468000002801D0012000E00020C0B2002805D0A1
:104690000AF02BFBDFF8BC140DF00AFB04F69C10AB
:1046A0000EF0F5FFC0B2002801D0012000E000208C
:1046B000C0B2002805D00AF018FBDFF8901E0DF0FC
:1046C000F7FA04F6A8100EF0E2FFC0B2002801D0FD
:1046D000012000E00020C0B2002805D00AF005FB50
:1046E000DFF86C1E0DF0E4FA04F6B4100EF0CFFF04
:1046F000C0B2002801D0012000E00020C0B2002894
:1047000005D00AF0F2FADFF84C1E0DF0D1FA14F5DC
:104710001C600EF0BCFFC0B2002801D0012000E0F8
:104720000020C0B200280BD00AF0DFFADFF8281E04
:104730000DF0BEFA0AF0D9FADFF8201E0DF0B8FA33
:1047400004F6CC100EF0A3FFC0B2002801D0012067
:1047500000E00020C0B200280BD00AF0C6FADFF853
:10476000001E0DF0A5FA0AF0C0FADFF8F81D0DF0F2
:104770009FFA04F6D8100EF08AFFC0B2002801D0CC
:10478000012000E00020C0B200280BD00AF0ADFAF2
:10479000DFF8D41D0DF08CFA0AF0A7FADFF8CC1D73
:1047A0000DF086FA04F6E4100EF071FFC0B2002896
:1047B00001D0012000E00020C0B200280AD00AF099
:1047C00094FADFF8AC1D0DF073FA0AF08EFAD0A15E
:1047D0000DF06EFA41F6A416A05D05284CD10AF042
:1047E00084FADFF8901D0DF063FA0AF07EFADFF824
:1047F000881D0DF05DFA0AF078FADFF8801D0DF0E3
:1048000057FA0AF072FADFF8781D0DF051FA0AF043
:104810006CFADFF8701D0DF04BFA0AF066FADFF85B
:10482000681D0DF045FA0AF060FADFF8C81D0DF0BA
:104830003FFA0AF05AFADFF8C01D0DF039FA0AF013
:1048400054FADFF8B81D0DF033FA0AF04EFADFF82B
:10485000B01D0DF02DFA0AF048FADFF8A81D0DF092
:1048600027FA0AF042FADFF8A41D0DF021FA0AF047
:104870003CFAA8A10DF01CFA0AF037FA29000DF055
:1048800011FA002714F5D2500DF0FCFE874280F09B
:1048900000850AF02AFA80460A216CA80AF042FA3A
:1048A000DDE96C01CDE96A016AA940460AF046FAE1
:1048B0000AF01BFA804603216CA80AF038FADDE9F9
:1048C0006C01CDE9680168A940460AF037FA791C05
:1048D0000DF0EDFC0AF009FA0FF23C2841460DF00C
:1048E000E7F90AF002FA81460C216CA80AF01AFADC
:1048F000DDE96C01CDE9660166A948460AF01EFAB9
:1049000004F624100EF0C3FEC0B2002801D001202E
:1049100000E00020C0B200281CD00AF0E6F94146B1
:104920000DF0C6F981460D216CA80AF000FADDE908
:104930006C01CDE9640164A948460AF0FFF981469B
:10494000390014F5D2500EF0BAFE90ED000B484637
:104950000DF0E3FB0AF0C9F9814601216CA80AF0C9
:10496000E1F9DDE96C01CDE9620162A948460AF08E
:10497000E5F904F654100EF08AFEC0B2002801D00A
:10498000012000E00020C0B200281CD00AF0ADF9E0
:1049900041460DF08DF9814603216CA80AF0C7F954
:1049A000DDE96C01CDE9600160A948460AF0C6F96D
:1049B0008146390014F5D2500EF081FE90ED0A0BBD
:1049C00048460DF0AAFB14F516600EF060FEC0B26A
:1049D000002801D0012000E00020C0B200281CD037
:1049E0000AF083F94DA10DF063F9814603216CA80B
:1049F0000AF09DF9DDE96C01CDE95E015EA948464A
:104A00000AF09CF98146390014F5D2500EF057FE99
:104A100090ED0C0B48460DF080FB04F66C100EF088
:104A200036FEC0B2002801D0012000E00020C0B254
:104A300000281CD00AF059F938A10DF039F9814647
:104A400003216CA80AF073F9DDE96C01CDE95C0182
:104A50005CA948460AF072F98146390014F5D25033
:104A60000EF02DFE90ED0E0B48460DF056FB0AF0B1
:104A70003CF9814600216CA80AF054F9DDE96C018B
:104A8000CDE95A015AA948460AF058F904F68410AB
:104A90000EF0FDFDC0B2002801D0012000E0002092
:104AA000C0B200281BD00AF020F91CA10DF000F9BB
:104AB000814605216CA80AF03AF9DDE96C01CDE9DF
:104AC000580158A948460AF039F98146390014F5C9
:104AD000D2500EF0F4FD016C48460DF0E8FB0AF0F0
:104AE00004F9814602216CA80AF01CF9DDE96C0189
:104AF000CDE9560156A948460AF020F904F69C1063
:104B00000EF0C5FDC0B2002826D0012025E000BF70
:104B1000442B0000455252002000000020202000BD
:104B20000B850508954A0508744B0508EC9A05089D
:104B3000B8AC0508FC9A05080C9B05081C9B0508E9
:104B40002C9B0508C0AC0508C8AC0508D0AC05080E
:104B5000D8AC0508E0AC05080020C0B200281CD085
:104B60000AF0C3F841460DF0A3F8814607216CA86E
:104B70000AF0DDF8DDE96C01CDE9540154A948469D
:104B80000AF0DCF88146390014F5D2500EF097FD9A
:104B900090ED120B48460DF0C0FA04F6A8100EF086
:104BA00076FDC0B2002801D0012000E00020C0B294
:104BB00000281CD00AF099F841460DF079F881469A
:104BC00007216CA80AF0B3F8DDE96C01CDE95201C8
:104BD00052A948460AF0B2F88146390014F5D2507D
:104BE0000EF06DFD90ED140B48460DF096FA04F6AC
:104BF000B4100EF04CFDC0B2002801D0012000E03E
:104C00000020C0B200281CD00AF06FF841460DF019
:104C10004FF8814607216CA80AF089F8DDE96C019C
:104C2000CDE9500150A948460AF088F8814639007C
:104C300014F5D2500EF043FD90ED160B48460DF0E2
:104C40006CFA14F51C600EF022FDC0B2002801D0F1
:104C5000012000E00020C0B2002839D00AF045F859
:104C600041460DF025F8814607216CA80AF05FF84F
:104C7000DDE96C01CDE94E014EA948460AF05EF827
:104C80008146390014F5D2500EF019FD90ED180B45
:104C900048460DF042FA0AF028F841460DF008F8AF
:104CA000814607216CA80AF042F8DDE96C01CDE9E4
:104CB0004C014CA948460AF041F88146390014F5E8
:104CC000D2500EF0FCFC90ED1A0B48460DF025FA80
:104CD0000AF00BF8814604216CA80AF023F8DDE9FC
:104CE0006C01CDE94A014AA948460AF027F804F6C2
:104CF000CC100EF0CCFCC0B2002801D0012000E0A6
:104D00000020C0B2002839D009F0EFFF41460CF076
:104D1000CFFF814607216CA80AF009F8DDE96C0194
:104D2000CDE9480148A948460AF008F8814639000B
:104D300014F5D2500EF0C3FC90ED1C0B48460DF05C
:104D4000ECF909F0D2FF41460CF0B2FF8146072191
:104D50006CA809F0ECFFDDE96C01CDE9460146A93C
:104D6000484609F0EBFF8146390014F5D2500EF0A9
:104D7000A6FC90ED1E0B48460DF0CFF904F6D810B6
:104D80000EF085FCC0B2002801D0012000E0002018
:104D9000C0B2002839D009F0A8FF41460CF088FFC6
:104DA000814605216CA809F0C2FFDDE96C01CDE95F
:104DB000440144A9484609F0C1FF8146390014F571
:104DC000D2500EF07CFCD0F8801048460DF06FFAFF
:104DD00009F08BFF41460CF06BFF814605216CA862
:104DE00009F0A5FFDDE96C01CDE9420142A9484681
:104DF00009F0A4FF8146390014F5D2500EF05FFC93
:104E0000D0F8841048460DF052FA04F6E4100EF083
:104E10003EFCC0B2002801D0012000E00020C0B25A
:104E2000002839D009F061FF41460CF041FF81466E
:104E300005216CA809F07BFFDDE96C01CDE940019B
:104E400040A9484609F07AFF8146390014F5D2504E
:104E50000EF035FC90ED040B48460DF05EF909F0BC
:104E600044FF41460CF024FF814605216CA809F05F
:104E70005EFFDDE96C01CDE93E013EA9484609F03F
:104E80005DFF8146390014F5D2500EF018FC90ED0C
:104E9000020B48460DF041F9A05D052840F0F18174
:104EA00009F023FF814607216CA809F03BFFDDE9EB
:104EB0006C01CDE93C013CA9484609F03FFF09F0EF
:104EC00014FF41460CF0F4FE814609216CA809F05C
:104ED0002EFFDDE96C01CDE93A013AA9484609F017
:104EE0002DFF8146390014F5D2500EF0E8FB90ED0D
:104EF000220B48460DF011F909F0F7FE8146022118
:104F00006CA809F00FFFDDE96C01CDE9380138A983
:104F1000484609F013FF09F0E8FE41460CF0C8FED0
:104F2000814605216CA809F002FFDDE96C01CDE99D
:104F3000360136A9484609F001FF8146390014F5CB
:104F4000D2500EF0BCFB90ED240B48460DF0E5F876
:104F500009F0CBFE41460CF0ABFE814603216CA864
:104F600009F0E5FEDDE96C01CDE9340134A94846DC
:104F700009F0E4FE8146390014F5D2500EF09FFB93
:104F8000D0F8981048460DF092F909F0AEFE81462F
:104F900007216CA809F0C6FEDDE96C01CDE93201FC
:104FA00032A9484609F0CAFE09F09FFE41460CF0BE
:104FB0007FFE814609216CA809F0B9FEDDE96C018C
:104FC000CDE9300130A9484609F0B8FE81463900E4
:104FD00014F5D2500EF073FB90ED280B48460DF0FF
:104FE0009CF809F082FE814602216CA809F09AFE25
:104FF000DDE96C01CDE92E012EA9484609F09EFE9F
:1050000009F073FE41460CF053FE814605216CA861
:1050100009F08DFEDDE96C01CDE92C012CA9484693
:1050200009F08CFE8146390014F5D2500EF047FB92
:1050300090ED2A0B48460DF070F809F056FE4146F7
:105040000CF036FE814603216CA809F070FEDDE904
:105050006C01CDE92A012AA9484609F06FFE814674
:10506000390014F5D2500EF02AFBD0F8B0104846A3
:105070000DF01DF909F039FE814607216CA809F0F1
:1050800051FEDDE96C01CDE9280128A9484609F067
:1050900055FE09F02AFE41460CF00AFE8146092120
:1050A0006CA809F044FEDDE96C01CDE9260126A9D2
:1050B000484609F043FE8146390014F5D2500EF0FF
:1050C000FEFA90ED2E0B48460DF027F809F00DFE84
:1050D000814602216CA809F025FEDDE96C01CDE9CD
:1050E000240124A9484609F029FE09F0FEFD4146A5
:1050F0000CF0DEFD814605216CA809F018FEDDE903
:105100006C01CDE9220122A9484609F017FE81462B
:10511000390014F5D2500EF0D2FA90ED300B48461B
:105120000CF0FBFF09F0E1FD41460CF0C1FD8146AA
:1051300003216CA809F0FBFDDDE96C01CDE920013C
:1051400020A9484609F0FAFD8146390014F5D250ED
:105150000EF0B5FAD0F8C81048460DF0A8F809F0DE
:10516000C4FD814607216CA809F0DCFDDDE96C0176
:10517000CDE91E011EA9484609F0E0FD09F0B5FD84
:1051800041460CF095FD814609216CA809F0CFFD40
:10519000DDE96C01CDE91C011CA9484609F0CEFDF2
:1051A0008146390014F5D2500EF089FA90ED340B97
:1051B00048460CF0B2FF09F098FD814602216CA828
:1051C00009F0B0FDDDE96C01CDE91A011AA94846E4
:1051D00009F0B4FD09F089FD41460CF069FD8146F6
:1051E00005216CA809F0A3FDDDE96C01CDE91801EA
:1051F00018A9484609F0A2FD8146390014F5D2509D
:105200000EF05DFA90ED360B48460CF086FF09F083
:105210006CFD41460CF04CFD814603216CA809F061
:1052200086FDDDE96C01CDE9160116A9484609F0B5
:1052300085FD8146390014F5D2500EF040FAD0F8C1
:10524000E01048460DF033F809F04FFD41460CF0F0
:105250002FFD804603216CA809F069FDDDE96C0192
:10526000CDE9140114A9404609F068FD80463900D3
:1052700014F5D2500EF023FAD0F8E41040460DF0A9
:1052800016F809F032FD29000CF00CFD7F1CFFF729
:10529000F9BA14F519600EF0FAF9C0B2002801D07D
:1052A000012000E00020C0B2002800F0498109F090
:1052B0001CFD29000CF0F6FC09F017FDDFF848157D
:1052C0000CF0F6FC09F011FD51460CF0F1FC290040
:1052D0000CF0E8FC09F009FDDFF830150CF0E8FCF3
:1052E00009F003FDDFF828150CF0E2FC09F0FDFCE5
:1052F000DFF820150CF0DCFC09F0F7FCDFF81815DE
:105300000CF0D6FC09F0F1FCDFF810150CF0D0FC25
:10531000A05D012811D009F0E8FCDFF804150CF0BD
:10532000C7FC09F0E2FCDFF8FC140CF0C1FC09F04A
:10533000DCFCDFF8F4140CF0BBFC09F0D6FC29000F
:105340000CF0B0FC09F0D1FCDFF8E0140CF0DAFD51
:10535000002614F5D2500DF095F9864280F0D280E7
:1053600009F0C3FC070003216CA809F0E0FCDDE9AB
:105370006C01CDE9120112A9380009F0DFFC711CA3
:105380000CF095FF09F0B1FC9FA739000CF090FCE0
:1053900009F0ABFC804605216CA809F0C3FCDDE9EF
:1053A0006C01CDE9100110A9404609F0C7FC09F0D5
:1053B0009CFC80460D216CA809F0B9FCDDE96C016C
:1053C000CDE90E010EA9404609F0B8FC8046310037
:1053D00014F5D2500EF073F990ED040B40460CF02A
:1053E0009CFE09F082FC39000CF062FC09F07DFCA7
:1053F000804600216CA809F095FCDDE96C01CDE93F
:105400000C010CA9404609F099FC09F06EFC80469D
:105410000D216CA809F08BFCDDE96C01CDE90A01D6
:105420000AA9404609F08AFC8046310014F5D250A2
:105430000EF045F990ED080B40460CF06EFE09F0B9
:1054400054FC39000CF034FC09F04FFC8046052177
:105450006CA809F067FCDDE96C01CDE9080108A939
:10546000404609F06BFC09F040FC80460D216CA819
:1054700009F05DFCDDE96C01CDE9060106A94046B5
:1054800009F05CFC8046310014F5D2500EF017F99B
:1054900090ED020B40460CF040FE09F026FC8046E1
:1054A00000216CA809F03EFCDDE96C01CDE90401A6
:1054B00004A9404609F042FC09F017FC39000CF041
:1054C000F7FB09F012FC07000D216CA809F02FFC76
:1054D000DDE96C01CDE9020102A9380009F02EFCDA
:1054E0000700310014F5D2500EF0E9F890ED060BEC
:1054F00038000CF012FE09F0F8FB29000CF0D2FB8A
:10550000761C26E709F0F1FB060008216CA809F0DB
:1055100009FCDDE96C01CDE900016946300009F0C4
:105520000DFC09F0E2FBC2490CF0C2FB09F0DDFB07
:10553000C0490CF0BDFB09F0D8FB29000CF0B2FB10
:105540002000FEF7DEF96EB0BDE8F087E8AC050894
:10555000A0A10508ACA10508B8A10508C4A10508CB
:10556000D0A10508DCA10508E8A10508F4A10508FB
:10557000F0AC050800A20508F8AC050800AD050868
:105580000CA2050808AD050810AD05080021016052
:10559000002141600021816001210173002101612E
:1055A00000214161002181610021C161002101626E
:1055B00000214162704710B50400012020730020D3
:1055C0002060002060600020A0600020206100209A
:1055D00060610020A0610020E061142020620020B2
:1055E000606209F082FB94490CF062FB93490CF075
:1055F00059FB10BD18A2050818AD050820AD050817
:1056000024A2050828AD05082000000030AD0508DB
:10561000C16111F59672026100224261002282612D
:10562000704710B50400207B002809D0022810D054
:1056300007D304283ED024D306286FD052D387E066
:1056400086E0226900212069401E0CF024FB2061C5
:105650007EE06069401C6061226900212069401E73
:105660000CF019FB2061616914204143E069B1FB32
:10567000F0F0A06114220021A0690CF00CFBA061E5
:1056800066E06069401C60612269E1212069401E7A
:105690000CF001FB2061616A14204143206AB1FBD8
:1056A000F0F01430A06128221421A0690CF0F3FA64
:1056B000A0614DE06069401C6061226961689631BB
:1056C0002069401E0CF0E7FA2061616A1420414312
:1056D00049082831A1613C222821A0690CF0DBFA9D
:1056E000A06135E06069401C606122696168A06862
:1056F00041184B312069401E0CF0CDFA2061616ADF
:1057000014204143206AB1FBF0F03C30A0615022EC
:105710003C21A0690CF0BFFAA06119E06069401C4F
:1057200060612269616860684118A0684118206959
:10573000401E0CF0B0FA2061616A14204143490810
:105740005031A16164225021A0690CF0A4FAA0613B
:1057500010BD006970478069704738B504000D00BE
:105760002573207B002809D0022809D007D30428FC
:105770001AD006D3062843D02BD341E040E03FE0C7
:105780003EE06069206009F0B0FA2D490CF090FA13
:1057900009F0ABFA21680CF08AFD1AA10CF088FA26
:1057A00026490CF07FFA2BE061692068091A6160D4
:1057B00009F09BFA23490CF07BFA09F096FA61682C
:1057C0000CF075FD0FA10CF073FA1C490CF06AFA8D
:1057D00016E061692068091A6068091AA16009F079
:1057E00084FA19490CF064FA09F07FFAA1680CF008
:1057F0005EFD04A10CF05CFA10490CF053FAFFE7CF
:1058000031BD000020F10000A04B050838AD0508AF
:105810003C9B05084C9B05085C9B05086C9B050898
:105820007C9B05088C9B05089C9B0508998E0508A8
:10583000CC4B0508AC9B050830A20508954A050825
:1058400050690508C45D0508F471050801627047D8
:1058500001607047F8B505000E0017001C00280015
:105860000DF039FF15F108000DF03AFF15F11000A9
:105870000DF036FF15F118000DF032FF0023002265
:10588000002115F120000DF030FF0023002200213F
:1058900015F12C000DF029FF00230022002115F145
:1058A00038000DF022FF00230022002115F14400F2
:1058B0000DF01BFF00230022002115F150000DF018
:1058C00014FF00230022002115F15C000DF00DFFF4
:1058D00000230022002115F168000DF006FF0023CF
:1058E0000022002115F174000DF0FFFE00230022BC
:1058F000002115F180000DF0F8FE15F18C000DF07F
:10590000EFFE15F194000DF0EBFE15F19C000DF08B
:10591000E7FE00230022002115F1A4000DF0E5FEB2
:1059200015F1B0000DF0E5FE15F1B8000DF0E1FE47
:1059300015F1C0000DF0DDFE15F1C8000DF0D9FE27
:1059400015F1D0000DF0D5FE15F1D8000DF0D1FE07
:1059500000230022002115F1E0000DF0C6FE002317
:105960000022002115F1EC000DF0BFFE0023002203
:10597000002115F1F8000DF0B8FE002300220021EF
:1059800015F582700DF0B1FE00230022002115F5FF
:1059900088700DF0AAFE00230022002115F58E70FC
:1059A0000DF0A3FE00230022002115F594700DF0E8
:1059B0009CFE00230022002115F59A700DF095FE43
:1059C00000230022002115F5A0700DF08EFE0023AB
:1059D0000022002115F5A6700DF087FE002300229D
:1059E000002115F5AC700DF080FE0023002200218F
:1059F00015F5B2700DF079FE00230022002115F597
:105A0000B8700DF072FE00230022002115F5BE7063
:105A10000DF06BFE00230022002115F5C4700DF07F
:105A200064FE15F5CA700DF05BFE15F5CE700DF035
:105A300057FE00230022002115F5D2700DF055FE0F
:105A400015F5D8700DF055FE15F5DC700DF056FE0D
:105A500015F5E0700DF044FE15F5E4700DF040FE14
:105A600015F5E8700DF03CFE15F5EC700DF038FE04
:105A700015F5F0700DF03DFE15F5F4700DF039FEE2
:105A800015F5F8700DF035FE15F5FC700DF023FEE0
:105A900015F500700DF01FFE15F502700DF029FED2
:105AA00015F504700DF02AFE15F506700DF013FEC5
:105AB00015F508700DF00FFE15F50A700DF00BFED0
:105AC00015F50C700DF007FE15F50E700DF003FEC8
:105AD00015F510700DF0FFFD15F512700DF0FBFDC2
