:020000040800F2
:10000000E8AF002045C00508371E0208471E020859
:10001000571E0208671E0208771E02080000000033
:10002000000000000000000000000000871E020821
:10003000971E020800000000A71E0208B71E020853
:100040003D2202083D2202083D2202083D2202080C
:100050003D2202083D220208C71E02083D22020876
:100060003D220208E31E02083D2202083D2202084A
:100070003D2202083D2202083D2202083D220208DC
:100080003D2202083D2202083D2202083D220208CC
:100090003D2202083D2202083D220208FF1E0208FE
:1000A0003D220208931F02083D2202083D22020859
:1000B0003D220208D31F02083D2202083D22020809
:1000C0003D2202083D2202083D2202083D2202088C
:1000D0003D2202085D2102086D2102087D210208EF
:1000E000E31F02083D2202083D2202088D2002087B
:1000F000BF2002083D220208F32002083D22020828
:100100003D2202088D2102083D2202083D220208FC
:100110009D210208AD2102083D2202083D2202086D
:10012000BD210208CD210208DD210208ED210208CF
:100130003D2202083D2202083D2202083D2202081B
:100140003D2202083D2202083D2202080D2202083B
:100150003D220208FD2102083D2202081D2202085C
:100160003D2202083D2202083D2202083D220208EB
:100170003D2202082D2202083D2202083D220208EB
:100180003D22020880B516480078002806D10021DB
:1001900014480EF0E3F90120114908701248007864
:1001A000002806D1002111480EF0D8F901200E498F
:1001B00008700F480078002806D100210D480EF085
:1001C000CDF901200A4908700B480078002806D1B3
:1001D00000210A480EF0C2F901200749087001BD4C
:1001E0000F9A0020C8990020109A0020D099002072
:1001F000119A0020CC990020129A0020C499002066
:1002000070B52DED048BE8B00400150021600023CB
:1002100000220021201D0EF0A3F9C4F8BC5920686B
:1002200010F5A47114F51C600FF0DCFB206810F5CC
:1002300090700090206810F58873206810F5807227
:10024000012104F6082013F04DFB14F5256013F08E
:10025000A1FD14F5296013F0B7FE04F6AC2013F0ED
:10026000D9FE04F6B82013F0D5FE04F6C42013F02E
:10027000D1FE14F52D6013F0D7FE002114F5366081
:1002800013F06EFF04F6643013F0F7FF002214F54C
:100290003761201D14F0DCF880080200206810F19E
:1002A000980114F5376014F0ECFF0120229022A889
:1002B00015F0F2FACDE904014020029000200190EF
:1002C000012000904FF48053206810F1D002206884
:1002D00010F54C7104F6384016F037FE002300226A
:1002E00004F6384104F6985016F07EFE04F6985253
:1002F00004F6384141F26C30204409F0E7FA00205E
:100300000290206810F5EA700190206810F5E27004
:100310000090206810F5DA73206810F5D27220681A
:1003200010F5417141F27030204417F0D1F941F2DB
:10033000703004EB000141F2B83020440FF058F85F
:10034000206810F55773206810F5AA72206810F520
:10035000367141F2584020440FF0F9FB642021909F
:1003600021A817F0D7FBCDE92C012CA914F5B55025
:1003700017F08CFC4FF4FA70209020A817F0CAFBFD
:10038000CDE92A012AA941F2B060204417F07EFC91
:100390004FF47A701F901FA817F0BCFBCDE928011D
:1003A00028A914F5B65017F033FC002041F2D861AB
:1003B0006054DFF8BC1B61A817F040FD64201E905C
:1003C0001EA817F0A7FB00220492CDE9020100202D
:1003D000009061AB206810F50172206810F505717E
:1003E00014F5B7500EF0B8FE61A817F037FDDFF82E
:1003F000841B5AA817F022FD64201D901DA817F039
:1004000089FB00220492CDE90201002000905AAB42
:10041000206810F50972206810F50D7141F24870DE
:1004200020440EF099FE5AA817F018FDDFF8481B7B
:1004300053A817F003FD01230200206810F5117185
:1004400041F2B07020440EF0F5FD53A817F006FD00
:10045000DFF8281B4CA817F0F1FC002302002068ED
:1004600010F5157141F6080020440EF0E3FD4CA88C
:1004700017F0F4FCDFF8081B45A817F0DFFC002399
:100480000200206810F5197114F5C3500EF0D2FD6A
:1004900045A817F0E3FCDFF8EC1A3EA817F0CEFCF5
:1004A00064201C901CA817F035FB00220492CDE9B3
:1004B0000201002000903EAB206810F51D722068FC
:1004C00010F5217141F6B80020440EF045FE3EA81B
:1004D00017F0C4FCDFF8B01A37A817F0AFFC64209F
:1004E0001B901BA817F016FB00220492CDE9020115
:1004F0000020009037AB206810F52572206810F5B9
:10050000297114F5C9500EF027FE37A817F0A6FC84
:10051000DFF8781A30A817F091FC64201A901AA816
:1005200017F0F8FA00220492CDE9020100200090B1
:1005300030AB206810F52D72206810F5317141F64E
:10054000881020440EF008FE30A817F087FC002029
:1005500041F6F0116054002041F6F1116054002082
:1005600041F6F2116054002041F6F411605014205D
:1005700041F6F8116050022041F6FC11605403204E
:1005800014F5D0510860012041F60421605041F675
:100590000820204400220023C0E9002341F6102057
:1005A000204400220023C0E9002341F61820204403
:1005B00000220023C0E9002314F5D15000220023BB
:1005C000C0E9002312269FED1A8B3500002E00D5BE
:1005D0006D429FED199B07E051EC180B53EC182B63
:1005E00017F050FC41EC180BE80707D551EC190B3C
:1005F00053EC182B17F046FC41EC190B6D08002D3D
:10060000EAD1002E20D553EC192B0020002117F041
:1006100017FD02D19FED0A9B16E00020DFF88C1E2B
:1006200053EC192B17F01CFD41EC190B0CE000BF2B
:100630000000000000000040000000000000F03F4B
:10064000000000000000F07F41F62820204480EDEB
:10065000009B002041F63021605441F638202044B0
:100660000022DFF8483EC0E9002314F5D2500022F2
:10067000DFF8383EC0E9002341F64820204400223C
:100680000023C0E9002341F650202044002200232B
:10069000C0E9002341F65820204400220023C0E98D
:1006A000002314F5D35000220023C0E9002341F6B3
:1006B0006820204400220023C0E9002341F6702076
:1006C000204400220023C0E900236420199019A8C7
:1006D00017F020FA41F678222244C2E90001642092
:1006E000189018A817F016FA14F5D452C2E90001B0
:1006F0006520179017A817F00DFA41F688222244BA
:10070000C2E90001052041F690216050002041F629
:100710009421605041F69820204417F0C4FD41F622
:10072000A420204417F0BFFD41F6B0202044002251
:100730000023C0E9002341F6B82020440022002312
:10074000C0E9002314F5D65000220023C0E900239D
:10075000012041F6C821605441F6CC20204417F016
:10076000AAFD002041F6D8216054002041F6D9218D
:10077000605414F5D75000220023C0E9002341F64D
:10078000E82020440022DFF8283DC0E900230020B3
:1007900041F6F0216054002041F6F121605441F609
:1007A000F820204400220023C0E90023002014F593
:1007B000D8510870002015904FF47A70169016AA40
:1007C00015A941F60830204417F0F2F9002014F57D
:1007D000D9510860002041F624316050002041F6D4
:1007E00028316050002041F62C31605041F6303005
:1007F00020440DF064FA002041F6583160544FF463
:100800007A70149014A817F085F9CDE9260126A96D
:1008100014F5DB5017F03AFA002041F670316054BD
:1008200041F69030204400220023C0E9002341F625
:100830009830204400220023C0E9002314F5DD5045
:1008400000220023C0E9002341F6A8302044002202
:100850000023C0E9002341F6B030204400220023E9
:10086000C0E90023002041F6B831605414F5DE5091
:1008700000220023C0E90023002041F6C831605067
:10088000002041F6CC316050012041F6D03160505B
:10089000052041F6D4316050002041F6D831605037
:1008A00041F6DC30204417F00EFD41F6E8302044DC
:1008B00017F0F9FC022041F6F4316050002041F6B7
:1008C000F831605414F5E0500022DFF8E03BC0E955
:1008D000002341F6084020440022DFF8D03BC0E965
:1008E0000023002041F610416054002041F61141E0
:1008F0006054002041F648416054002014F5E45152
:100900000870002041F681416054002041F6B84152
:100910006054002014F5E9510870002041F6885118
:10092000605441F6782004EB000141F6D850204491
:1009300017F06EF9002041F64861605441F65060AE
:10094000204400220023C0E9002341F658602044DF
:1009500000220023C0E9002314F5F35000220023F5
:10096000C0E9002341F66860204400220023C0E96A
:10097000002341F67060204400220023C0E90023D8
:1009800041F69860204400220023C0E9002314F5BA
:10099000F55000220023C0E900236420139013A81F
:1009A00017F0B8F841F6A8622244C2E9000141F606
:1009B000B060204400220023C0E900230A2041F651
:1009C000B861605004F69C7017F085FC050004F6D1
:1009D0009C7017F080FC80B20200ADB2290041F695
:1009E000D860204417F087FC41F61870204400229C
:1009F0000023C0E9002314F5F95000220023C0E9C8
:100A0000002341F62870204400220023C0E900237F
:100A1000642041F630716050002041F668716054E6
:100A20007820129012A814F037FF41F67072224419
:100A3000C2E900014FF41670119011A814F02CFFB8
:100A400041F678722244C2E9000141F6787004EB65
:100A5000000114F5FC5017F0DBF8012041F6987105
:100A6000605414F5FD5000220023C0E9002341F634
:100A7000A870204400220023C0E90023002041F692
:100A8000B071605041F6B8702044DFF8602FDFF895
:100A9000603FC0E9002314F5FE500022DFF80C3A55
:100AA000C0E9002341F6C870204400220023C0E9B9
:100AB000002341F6D07020440022DFF8F039C0E96D
:100AC0000023012041F6D87160504FF47A7041F64E
:100AD000DC71605004F2D470109041F2C4102044D4
:100AE0000F9004F2CC700E9041F2BC1020440D9097
:100AF00004F2C4700C9004F2BC700B9041F2B4107C
:100B000020440A9004F2B470099004F2AC7008908A
:100B100004F2A470079004F29C70069004F29470A2
:100B2000059004F28C70049004F28470039004F237
:100B30007C70029004F274700190206810F584605B
:100B40000090206810F58263206810F580622068AC
:100B500010F57C7114F5FF5010F078FD42F2203052
:100B600020440022DFF84439C0E9002342F2283053
:100B70002044DFF8782EDFF87C3EC0E9002342F203
:100B8000303020440022DFF82439C0E9002342F24B
:100B90003830204400220023C0E9002314F50D5012
:100BA0000022DFF8543EC0E900239FED671B9FED54
:100BB000EE0B04F2847142F24830204411F023FA23
:100BC00004F64C000E9014F504600D9004F6340009
:100BD0000C9004F624000B9004F61C000A9004F616
:100BE0001400099004F60C00089004F60400079025
:100BF00004F2FC70069004F2F470059004F2EC70BC
:100C0000049004F2E470039004F2DC70029000207F
:100C10000190206810F57470009042F2303020444A
:100C200090ED002B42F22830204490ED001B42F260
:100C30002030204490ED000B4623206810F55872B8
:100C400042F2483004EB000142F26030204417F0D9
:100C50006BFB42F2603004EB000114F50F5011F011
:100C60002EFA41F224202044109041F21820204412
:100C70000F9041F20C2020440E9041F2FC102044D1
:100C80000D9041F2F41020440C9041F2EC102044FD
:100C90000B9041F2E41020440A9041F2DC10204411
:100CA000099041F2D4102044089041F2CC10204425
:100CB000079004F64C00069014F50460059004F6C5
:100CC0003400049004F61400039004F60C00029023
:100CD00004F60400019004F2FC70009004F2F47336
:100CE00004F2EC7204F2DC7142F29050204411F0F4
:100CF00073FD42F2E05020440022DFF8B037C0E933
:100D0000002342F2E8502044DFF8E02CDFF8E43C16
:100D1000C0E9002342F2F05020440022DFF88C3773
:100D2000C0E9002342F2F850204400220023C0E929
:100D3000002314F518500022DFF8BC3CC0E9002362
:100D40009FED931B04E000BF0000000000804140C5
:100D50009FED850B04F2747142F20860204411F09B
:100D600052F904F6C8000E9004F6BC000D9014F57C
:100D70000B600C9014F50A600B9004F698000A9032
:100D800014F50960099004F68800089014F50860CD
:100D9000079004F67800069014F50760059004F6B5
:100DA0006800049014F50660039004F65800029061
:100DB00000200190206810F57870009042F2F05009
:100DC000204490ED002B42F2E850204490ED001BAF
:100DD00042F2E050204490ED000B4523206810F5CE
:100DE000667242F2086004EB000142F22060204487
:100DF00017F09AFA42F2206004EB000114F51A5041
:100E000011F05DF941F288202044109041F27C20DD
:100E100020440F9041F2702020440E9014F593501E
:100E20000D9041F2582020440C9041F25020204473
:100E30000B9041F2482020440A9014F592500990FA
:100E400041F238202044089041F23020204407909D
:100E500004F6C800069004F6BC00059014F50B607B
:100E6000049014F50960039004F68800029014F5CC
:100E70000860019004F67800009014F5076304F60A
:100E8000680204F6580142F65000204411F0A4FC18
:100E9000002042F6A001605404F69852211D42F64B
:100EA000A80020440DF06EF8200000F0ADFD2000F9
:100EB00000F0BFFD17F07CFA039004F6F86017F01D
:100EC0007DFA8DF80C0014F5706017F077FA8DF844
:100ED0000D0004F6087017F071FA8DF80E0014F585
:100EE000716017F06BFA8DF80F0017F061FA02903D
:100EF00004F6187017F062FA8DF8080014F57260A5
:100F000017F05CFA8DF8090004F6287017F056FA0D
:100F10008DF80A0014F5736017F050FA8DF80B0085
:100F200017F046FA019004F6387017F047FA8DF87A
:100F3000040014F5746017F041FA8DF8050004F60A
:100F4000487017F03BFA8DF8060014F5756017F03D
:100F500035FA8DF8070004F6587017F03FFA0028AC
:100F60001AD0012019E000BF0000000000002E4050
:100F700084C205088CC2050894C205089CC20508F5
:100F8000A4C20508ACC20508B4C20508BCC2050865
:100F900000000000008046400020C0B20090019B8D
:100FA000029A03992068A03017F08AFA206810F19D
:100FB000A0010DF1020010F001FA17F00CFF05007E
:100FC000082101A817F04EFFDDE90101CDE92E014E
:100FD0002EA9280017F052FF04F6985017F05EFF74
:100FE00041F6C821605441F6C82004EB000114F119
:100FF0001C0017F061FF14F55A6017F06AFF14F532
:10100000D25080ED000B14F5D25114F1B40017F05A
:1010100086FF04F6A85017F05CFF41F63820204404
:1010200080ED000B41F6382004EB000114F1BC0008
:1010300017F075FF04F6E86114F1D40017F07CFF97
:1010400014F56F6114F1DC0017F076FF14F55B60A6
:1010500017F024FF0100C9B241F2B83020440EF06D
:1010600083FB41F2B83020440EF008FC8DF80100FB
:101070000DF1010114F5CC7017F01EFF04F6B85005
:1010800017F00CFF14F5D051086014F5D05000682B
:101090008DF80000694614F5D07017F00DFF14F5B7
:1010A0005C6017F0FBFE0D900DA816F033FD14F5F3
:1010B000D452C2E9000114F55C6114F5FE7017F01A
:1010C0004CFF41F6A8602044D0E9002341F2B8303B
:1010D00020440EF0D9FB14F56D6017F0DFFE0C9084
:1010E0000CA816F017FD41F688222244C2E900013F
:1010F00014F56D6114F56E7017F02FFF04F6C850EB
:1011000017F0CCFE0B900BA816F004FD41F67822E8
:101110002244C2E9000104F6C85114F5017017F029
:101120001CFF14F55D6017F0D4FE41F6F820204452
:1011300080ED000B41F6F82004EB000114F503707C
:1011400017F0EDFE04F6D85017F017FF17F02CFF3C
:1011500041F6F8222244C2E9000141F6F82004EBEE
:10116000000114F5037017F0DAFE14F55E6017F055
:1011700095FE41F69021605041F6902004EB00016D
:1011800014F5077017F021FF200008F0C5FD41F6A7
:10119000184004EB000141F2584020440FF0E8FCF5
:1011A00004F6647114F5767017F0C6FE04F66470E8
:1011B00017F08FFE41F65060204480ED000B04F6DE
:1011C0006C7114F5787017F0B7FE04F66C7017F0B8
:1011D00080FE41F65860204480ED000B04F67471E7
:1011E00014F57A7017F0A8FE04F6747017F071FE0B
:1011F00014F5F35080ED000B04F67C7114F57C704F
:1012000017F09AFE04F67C7017F063FE41F66860F2
:10121000204480ED000B41F2B830204417F0E2FE8C
:1012200041F60860204480ED000B41F2B8302044C4
:1012300017F026FF41F61060204480ED000B41F6C8
:101240001860204400220023C0E9002314F5F15067
:1012500000220023C0E9002341F628602044002238
:101260000023C0E90023002041F6306160500020D7
:1012700041F63461605041F638602044002200237A
:10128000C0E9002314F5F250DFF86027DFF86C376F
:10129000C0E9002304F6847114F5806017F04CFE59
:1012A00004F6847017F015FE41F69860204480ED36
:1012B000000B04F68C7114F5816017F03DFE04F606
:1012C0008C7017F006FE14F5F55080ED000B41F61A
:1012D0007860204441F69861214491ED000B80ED47
:1012E000000B14F5F45000220023C0E9002341F65E
:1012F0008860204400220023C0E90023012141F23C
:10130000584020440EF036FD14F5F550D0E9002386
:1013100051EC100B16F0B6FD41F690622244C2E982
:10132000000104F6947114F5846017F005FE04F6CC
:10133000947017F0CEFD41F6B060204480ED000BB4
:1013400004F69C7016F0C7FF80B241F6B861605099
:1013500014F5F65000220023C0E9002341F6C860CE
:10136000204400220023C0E90023012141F258401B
:1013700020440EF0FFFC41F6B0602044D0E9002389
:1013800051EC100B16F07EFD41F6D0622244C2E90A
:10139000000104F69C7114F5896017F0C3FE04F691
:1013A000B47017F096FD14F5F95080ED000B14F5AC
:1013B000F95090ED000B200008F0F4FB41F6187096
:1013C000204480ED000B14F5F95114F58D6017F0F1
:1013D000A6FD41F6187004EB000114F58C6017F0BF
:1013E0009EFD04F6BC7017F074FD41F62870204491
:1013F00080ED000B41F6287004EB000114F58E60BF
:1014000017F08DFD04F6A47016F0D8FFC0B211F0ED
:10141000EBFD41F69871605404F6A47114F58A60EE
:1014200017F091FE14F55F6017F053FD41F6883018
:10143000204480ED000B41F6883004EB000114F5E8
:10144000567017F06CFD14F5626017F042FD41F222
:10145000B83020440EF069FA41F2B83020440EF062
:101460006AFA8DED240B24A914F5647017F057FD6A
:1014700004F6286017F02DFD41F2B83020440EF03C
:1014800057FA41F2B83020440EF058FA8DED0E0BA9
:101490000EA914F5667017F042FD04F6386016F0D8
:1014A0009DFF002806D0012005E000BF0000F03FAE
:1014B00000B9EA40002041F6D821605441F6D82016
:1014C000215C14F1600017F04FFE04F6446016F042
:1014D00085FF002801D0012000E0002041F6703196
:1014E000605441F67030215C14F5C67017F03CFE74
:1014F00014F5656016F072FF002801D0012000E0AD
:10150000002041F6D921605441F6D920215C14F520
:10151000157017F029FE41F6D920215C14F5B7505B
:1015200017F038FE41F6D920215C41F24870204482
:1015300017F030FE41F6D920215C41F6B800204476
:1015400017F028FE41F6D920215C14F5C95017F098
:1015500021FE41F6D920215C41F68810204417F085
:1015600019FE04F65C6016F039FF002801D0012056
:1015700000E0002041F6B831605441F6B830215CFB
:1015800014F51E7017F0F0FD04F6B86017F0F5FCC6
:1015900041F60421605041F6042004EB000114F5EB
:1015A000687017F0FAFD14F56C6017F0E6FC41F670
:1015B000D031605041F6D0302058059005A914F57F
:1015C0006A7017F0EAFD04F6C86017F0D6FC41F621
:1015D000D431605041F6D4302058049004A914F559
:1015E0006C7017F0DAFD04F6D86017F072FC14F591
:1015F000E05080ED000B14F5E05114F5707017F019
:101600008EFC04F6686114F5217017F0D3FD14F513
:10161000686114F5447017F0CDFD14F5447016F0B0
:10162000DDFE002801D0012100E00021C9B241F215
:101630005840204417F0D7FD14F56E6017F049FCB0
:1016400041F60840204480ED000B41F6084004EBD1
:10165000000114F5727017F062FC04F6986016F041
:10166000ADFE0100C9B220000CF014FB41F6FC11E4
:10167000605404F6986114F52D7017F064FD04F6BB
:10168000AC6114F54D7017F095FD41F284102044C3
:1016900017F01FFC41F6B870204480ED000B41F2BA
:1016A000841004EB000114F5936017F045FC41F23F
:1016B0008C10204417F00DFC14F5FE5080ED000B4B
:1016C00041F28C1004EB000114F5946017F034FC27
:1016D00041F29410204417F0FCFB41F6C8702044FE
:1016E00080ED000B41F2941004EB000104F2547001
:1016F00017F022FC41F29C10204417F0EAFB41F65F
:10170000D070204480ED000B41F29C1004EB0001EE
:1017100004F25C7017F010FC41F2A410204417F0A2
:101720002CFC41F6D871605041F2A41004EB00018A
:1017300004F2647017F05AFD41F2AC10204417F027
:10174000C8FB51EC100B17F061FD41F6DC716050E5
:1017500041F2AC1004EB000104F26C7017F0ECFBEA
:1017600041F67830204400220023C0E9002314F51C
:10177000DC5000220023C0E9002314F55F6017F05D
:10178000A8FB41F68830204480ED000B04F6C850D9
:1017900017F084FB0A900AA816F0BCF941F67822EB
:1017A0002244C2E9000104F6F86114F5986017F0CC
:1017B000CAFC14F5706114F5996017F0C4FC04F6C6
:1017C000087114F59A6017F0BEFC14F5716114F5F8
:1017D0009B6017F0B8FC04F6187114F59C6017F0C4
:1017E000B2FC14F5726114F59D6017F0ACFC04F6C0
:1017F000287114F59E6017F0A6FC14F5736114F5BA
:101800009F6017F0A0FC04F6387114F5A06017F083
:101810009AFC14F5746114F5A16017F094FC04F6B9
:10182000487114F5A26017F08EFC14F5756114F57B
:10183000A36017F088FC04F6587114F5A46017F043
:10184000B9FC41F6A8602044D0E9002314F5B75054
:101850000DF0D9FC41F6A8602044D0E9002341F204
:10186000487020440DF0CFFC41F6A8602044D0E938
:10187000002341F2B07020440DF01CFC41F6A8603A
:101880002044D0E9002341F6080020440DF012FC6A
:1018900041F6A8602044D0E9002314F5C3500DF0B0
:1018A00009FC41F6A8602044D0E9002341F6B800C5
:1018B00020440DF0A8FC41F6A8602044D0E90023A4
:1018C00014F5C9500DF09FFC41F6A8602044D0E902
:1018D000002341F6881020440DF095FC04F6647155
:1018E00014F5767017F028FB04F6082114F529602A
:1018F00017F0A9FC14F5256114F52D6017F0CAFC4A
:1019000004F6C42114F52D6017F0C6FC04F6AC21D2
:1019100014F52D6017F0C0FC04F6B82114F52D6005
:1019200017F0BAFC1420099009A816F0F3F8020089
:101930000B0014F52D6017F0B8FC1420089008A8CF
:1019400016F0E8F802000B0014F52D6017F0B2FC59
:101950004FF4FA70079007A816F0DCF802000B00AD
:1019600014F52D6017F0ABFC3220069006A816F097
:10197000D1F802000B0014F52D6017F0AAFC7820B6
:1019800017F0AAFC0500231D04F6C42214F52961F2
:10199000280019F075FB010014F5366019F085FC7C
:1019A000002114F51C600EF05CF817F014FA1449CD
:1019B00019F08FFC17F00FFA082119F065FD114995
:1019C00019F0C0FD04F6BC1104F6D40017F0FDFABE
:1019D00041F2942004EB000104F6DC0017F0BDFA9C
:1019E000200068B0BDEC048B70BD00BF9A99999936
:1019F0009999D93F9999A93F000039409999B93FE0
:101A0000A48E0508C15D050810B50400206810F516
:101A1000987114F5256012F049FA206810F59E714E
:101A200014F5256012F05AFA14F5256012F077FAD1
:101A300010BD7047F8B52DED068BADF5176D05009F
:101A4000286817F0CEF815F5376013F01CFD05F681
:101A5000384015F02AF941F27030284415F074FF2F
:101A600041F2B83028440DF071FF41F2584028444B
:101A70000EF0E8FA15F5B7500DF0F9FB41F2487099
:101A800028440DF0F4FB41F2B07028440DF038FB0F
:101A900041F6080028440DF033FB15F5C3500DF056
:101AA0002FFB41F6B80028440DF0E1FB15F5C950B5
:101AB0000DF0DDFB41F6881028440DF0D8FB15F53C
:101AC0001C600DF0E3FF15F5366019F047FD19F0C5
:101AD00067FB05F6082011F0D7FF15F52D6019F00A
:101AE0005FFD15F5FF500FF0B0FF15F50F5010F02A
:101AF000E4FC15F51A5010F0E0FC05F6AC2019F0E6
:101B00006DFE002804D0002115F51C600DF0A9FF22
:101B100015F5B55016F0D8F8C0B2002800F030879F
:101B20000021281D19F060FE280008F0DAFC41F6BB
:101B300048416854280008F0F7FD010015F5E4500D
:101B40000078002802D115F5E4500170280008F053
:101B500017FF010041F68140285C002802D141F6C0
:101B600081402954280009F084F841F6B8416854AE
:101B7000280009F0ACF915F5E9510870280009F0C2
:101B8000D4FA41F688516854280008F05CFC41F60C
:101B9000F010285C012800F0138115F5DA7017F0B9
:101BA00098F9B0EE408AF0EE608A41F2B8302844ED
:101BB0000DF012FE53EC182B51EC100B16F040FAFE
:101BC0000BD041F2B83028440DF006FE8DED460BE7
:101BD00046A915F5DA7017F0A2F915F5DE7017F0C1
:101BE000CCF9040041F2B83028440DF041FE8442A3
:101BF0000AD041F2B83028440DF03AFE139013A9F0
:101C000015F5DE7017F0C9FA15F5D47016F0E6FB7D
:101C1000040041F2B83028440DF092FCC0B2844276
:101C20000AD041F2B83028440DF08AFC0100C9B254
:101C300015F5D47017F098FA15F5CC7016F0BEFBB8
:101C4000040041F2B83028440DF018FEE4B2C0B2EE
:101C500084420BD041F2B83028440DF00FFE8DF8CD
:101C6000100004A915F5CC7017F026F915F5AE7023
:101C700016F0B4FB040015F5B7500DF0B3FA84422A
:101C800008D015F5B7500DF0ADFA010015F5AE709E
:101C900017F06AFA15F5B47016F0A0FB040041F2D3
:101CA000487028440DF09EFA844209D041F24870F1
:101CB00028440DF097FA010015F5B47017F054FAA6
:101CC00015F59C7016F08AFB040041F2B0702844B0
:101CD0000DF0E5F9844209D041F2B07028440DF0CE
:101CE000DEF9010015F59C7017F03EFA15F1E400DD
:101CF00016F074FB040041F6080028440DF0CFF9FB
:101D0000844209D041F6080028440DF0C8F90100CA
:101D100015F1E40017F028FA15F1F00016F05EFB5B
:101D2000040015F5C3500DF0BAF9844208D015F53A
:101D3000C3500DF0B4F9010015F1F00017F014FADA
:101D400015F1FC0016F04AFB040041F6B8002844E7
:101D50000DF048FA844209D041F6B80028440DF04D
:101D600041FA010015F1FC0017F0FEF915F5847039
:101D700016F034FB040015F5C9500DF033FA844217
:101D800008D015F5C9500DF02DFA010015F5847035
:101D900017F0EAF915F58A7016F020FB040041F6F9
:101DA000881028440DF01EFA844209D041F68810AC
:101DB00028440DF017FA010015F58A7017F0D4F9D0
:101DC00041F25840284419F02AFDC0B200286CD0D6
:101DD00041F6905005EB000141F2584028440FF0C5
:101DE0008BFA41F6B85005EB000105F6B41017F078
:101DF000ECF841F698502844D0E900230020DFF8A1
:101E0000E01D16F03FF841EC100B51EC100B31F0D7
:101E1000004141EC100B8DED2E0B2EA915F59160B4
:101E200017F07DF815F5ED5115F5976017F0B5F938
:101E300041F6A85005EB000115F58F6017F06FF81B
:101E400041F6B0502844D0E900230020DFF8901D6F
:101E500016F018F8CDE92C012CA915F5906017F0B3
:101E60005EF841F6F010285C00280ED041F6F11023
:101E7000285C022809D041F69830284441F6905158
:101E8000294491ED000B80ED000B41F69850284459
:101E900090ED000B51EC100B31F0004141EC100BB8
:101EA00042F6A80028440CF019F915F5F27017F065
:101EB00010F853EC102B41F698302844D0E900017B
:101EC00016F0BEF81ED041F6983005EB000115F56E
:101ED000F27017F024F841F69830284490ED000B8A
:101EE00041F67830284419F014FF41F69030284428
:101EF00080ED000B41F6903005EB000115F55870B0
:101F000017F00DF815F5187016F068FA002829D0AA
:101F1000002115F5187017F027F941F6783028449C
:101F200041F69831294491ED000B80ED000B15F539
:101F3000DC5041F69831294491ED000B80ED000B07
:101F400041F69030284441F69831294491ED000B38
:101F500080ED000B41F6903005EB000115F558704F
:101F600016F0DDFF15F1900016F028FA41F6F01199
:101F7000695CC0B288420AD041F6F010285C8DF846
:101F80000F000DF10F0115F1900016F095FF15F5FA
:101F9000FA7016F09EFF53EC102B15F5DD50D0E9CA
:101FA000000116F04DF805D015F5DD5115F5FA7064
:101FB00016F0B5FF41F6F010285C002820D141F65C
:101FC000F110285C02281BD115F5A76016F006FA5F
:101FD00001280CD1002115F5A76017F0C5F80021E4
:101FE00005F22C5017F0C0F8280007F097FA05F218
:101FF0002C5016F0F3F9002802D1280007F0F4FA6B
:1020000015F11C0016F0DAF9040005F6985016F0E8
:1020100045FFE4B2844209D015F11C0016F0CEF958
:10202000129012A905F6985016F0CFFF15F1B400E2
:1020300016F04FFFB0EE408AF0EE608A15F55A6058
:1020400016F047FF53EC182B51EC100B15F0F8FF6E
:1020500005D015F1B40115F55A6016F06DFF15F1B4
:10206000BC0016F036FFB0EE408AF0EE608A05F64E
:10207000A85016F02EFF53EC182B51EC100B15F056
:10208000DFFF05D015F1BC0105F6A85016F054FF8E
:1020900015F1D40016F01DFFB0EE408AF0EE608A14
:1020A00005F6E86016F015FF53EC182B51EC100BF9
:1020B00015F0C6FF05D015F1D40105F6E86016F05D
:1020C0003BFF15F1DC0016F004FFB0EE408AF0EEA5
:1020D000608A15F56F6016F0FCFE53EC182B51EC7E
:1020E000100B15F0ADFF05D015F1DC0115F56F6093
:1020F00016F022FF15F5CC7016F060F9040015F506
:102100005B6016F0CBFEE4B2844209D015F5CC70CA
:1021100016F054F9119011A915F55B6016F055FFF2
:1021200015F5D07016F04AF9040005F6B85016F00F
:10213000B5FEE4B2844209D015F5D07016F03EF930
:10214000109010A905F6B85016F03FFF15F5FE7077
:1021500016F0A4FE040015F55C6016F09FFE8442A4
:1021600005D015F5FE7115F55C6016F0F6FE15F557
:10217000017016F093FE040005F6C85016F08EFEAE
:10218000844205D015F5017105F6C85016F0E5FE3C
:1021900015F5037016F09DFEB0EE408AF0EE608AF1
:1021A00015F55D6016F095FE53EC182B51EC100BF5
:1021B00015F046FF05D015F5037115F55D6016F0B5
:1021C000BBFE15F5057016F0D8FE040005F6D850D4
:1021D00016F0D3FE844205D015F5057105F6D850EA
:1021E00017F004F815F5077016F058FE040015F501
:1021F0005E6016F053FE844205D015F5077115F5A3
:102200005E6016F0AAFE15F5567016F062FE53ECED
:10221000102B41F688302844D0E9000115F010FF5A
:102220000ED015F5567016F054FE41F6883028444D
:1022300080ED000B15F5567115F55F6016F07CFE0C
:1022400015F55A7016F02AFE040005F6F85016F03F
:1022500025FE844205D015F55A7105F6F85016F0A2
:102260007CFE15F55C7016F019FE040015F5606033
:1022700016F014FE844205D015F55C7115F560600A
:1022800016F06BFE15F55E7016F008FE040005F6FC
:10229000086016F003FE844205D015F55E7105F660
:1022A000086016F05AFE15F5647016F012FEB0EED6
:1022B000408AF0EE608A15F5626016F00AFE53EC73
:1022C000182B51EC100B15F0BBFE05D015F5647101
:1022D00015F5626016F030FE15F5667016F0F9FD22
:1022E000B0EE408AF0EE608A05F6286016F0F1FD47
:1022F00053EC182B51EC100B15F0A2FE05D015F580
:10230000667105F6286016F017FE15F1600016F0EC
:1023100065F8040005F6386016F060F8844205D0D0
:1023200015F1600105F6386016F044FF15F5C6702A
:1023300016F054F8040005F6446016F04FF8844295
:1023400005D015F5C67105F6446016F033FF15F596
:102350001E7016F043F8040005F65C6016F03EF8B7
:10236000844205D015F51E7105F65C6016F022FF5B
:1023700015F5687016F001FE040005F6B86016F059
:10238000FCFD844205D015F5687105F6B86016F0BD
:102390002DFF15F56A7016F0F0FD040015F56C6060
:1023A00016F0EBFD844205D015F56A7115F56C60E9
:1023B00016F01CFF15F56C7016F0DFFD040005F635
:1023C000C86016F0DAFD844205D015F56C7105F68B
:1023D000C86016F00BFF15F56E7016F05FFD040077
:1023E00015F56D6016F05AFD844205D015F56E7135
:1023F00015F56D6016F0B1FD15F5707016F069FDFC
:10240000B0EE408AF0EE608A05F6D86016F061FD05
:1024100053EC182B51EC100B15F012FE05D015F5EE
:10242000707105F6D86016F087FD15F5217015F06E
:10243000D5FF040005F6686015F0D0FF844205D092
:1024400015F5217105F6686016F0B4FE15F54470B7
:1024500015F0C4FF040015F5686015F0BFFF844255
:1024600014D015F5447115F5686016F0A3FE15F546
:10247000447015F0B3FF002801D0012100E00021D5
:10248000C9B241F25840284416F0ADFE15F53B7034
:1024900015F0A4FF040005F6746015F09FFF844258
:1024A00005D015F53B7105F6746016F083FE15F541
:1024B000727016F00EFDB0EE408AF0EE608A15F5EF
:1024C0006E6016F006FD53EC182B51EC100B15F056
:1024D000B7FD05D015F5727115F56E6016F02CFD7F
:1024E00015F52D7015F06AFF040005F6986015F0DB
:1024F00065FFE4B2C0B2844205D015F52D7105F632
:10250000986016F020FE15F54D7015F067FF040079
:1025100005F6AC6015F062FF844205D015F54D71EB
:1025200005F6AC6016F046FE15F58A6015F046FF1C
:10253000040005F6A47015F041FFE4B2C0B2844275
:1025400005D015F58A6105F6A47016F0FCFD15F5A9
:10255000936016F0BEFCB0EE408AF0EE608A41F265
:102560008410284416F0B5FC53EC182B51EC100BDA
:1025700015F066FD20D015F5936141F284102844D2
:1025800016F0DAFC15F5936016F0A3FC41F6B8706E
:10259000284480ED000B41F2B07028440CF07FFD20
:1025A000012809D141F6B870284490ED000B41F2A2
:1025B000584028440EF0C3FE15F5946016F089FCCF
:1025C000B0EE408AF0EE608A41F28C10284416F09A
:1025D00080FC53EC182B51EC100B15F031FD1ED084
:1025E00015F5946141F28C10284416F0A5FC15F500
:1025F000946016F06EFC15F5FE5080ED000B41F274
:10260000B07028440CF04BFD002808D115F5FE50A1
:1026100090ED000B41F2584028440EF090FE15F565
:102620003B7015F0DBFE040005F6746015F0D6FE75
:10263000844205D015F53B7105F6746016F0BAFDBD
:1026400005F2547016F045FCB0EE408AF0EE608A58
:1026500041F29410284416F03CFC53EC182B51EC3A
:10266000100B15F0EDFC0FD005F2547141F29410EF
:10267000284416F061FC05F2547016F02AFC41F66D
:10268000C870284480ED000B05F25C7016F021FC48
:10269000B0EE408AF0EE608A41F29C10284416F0B9
:1026A00018FC53EC182B51EC100B15F0C9FC0FD093
:1026B00005F25C7141F29C10284416F03DFC05F2D5
:1026C0005C7016F006FC41F6D070284480ED000BDB
:1026D00005F2647016F051FC040041F2A410284485
:1026E00016F04BFC84420DD005F2647141F2A41047
:1026F000284416F07BFD05F2647016F03EFC41F6AE
:10270000D871685005F26C7016F0E3FBB0EE408AA9
:10271000F0EE608A41F2AC10284416F0DAFB53EC7C
:10272000182B51EC100B15F08BFC11D005F26C71CD
:1027300041F2AC10284416F0FFFB05F26C7016F065
:10274000C8FB51EC100B16F061FD41F6DC716850CE
:1027500015F5157015F042FE040015F5656015F0CD
:102760003DFE844211D015F5157115F5656016F022
:1027700021FD15F5157015F031FE002801D001205E
:1027800000E0002041F6D921685442F6A000285C00
:10279000012809D043D303281AD00FD305282AD003
:1027A0001FD3062831D03AE001208DF80E000DF13C
:1027B0000E0115F5507016F07FFB38E002208DF801
:1027C0000D000DF10D0115F5507016F075FB2EE0A2
:1027D00003208DF80C0003A915F5507016F06CFB62
:1027E00025E004208DF80B000DF10B0115F550705C
:1027F00016F062FB1BE005208DF80A000DF10A01BE
:1028000015F5507016F058FB11E006208DF8090000
:102810000DF1090115F5507016F04EFB07E0002090
:102820008DF8080002A915F5507016F045FB05F665
:10283000F86115F5986019F0EFFA15F5706115F566
:10284000996019F0E9FA05F6087115F59A6019F022
:10285000E3FA15F5716115F59B6019F0DDFA05F6DF
:10286000187115F59C6019F0D7FA15F5726115F518
:102870009D6019F0D1FA05F6287115F59E6019F0E2
:10288000CBFA15F5736115F59F6019F0C5FA05F6D9
:10289000387115F5A06019F0BFFA15F5746115F5DA
:1028A000A16019F0B9FA05F6487115F5A26019F0A2
:1028B000B3FA15F5756115F5A36019F0ADFA05F6D3
:1028C000587115F5A46019F0BDFA42F290502844F1
:1028D0000FF0F2FF42F6500028440FF0EDFF41F2F6
:1028E0005840284419F0C2FA012805D0012115F5F5
:1028F0002A7016F039FC04E0002115F52A7016F054
:1029000033FC15F5477015F069FD012807D100214A
:1029100015F5477016F028FC28000AF051FC05F662
:10292000D40016F0BBFAD5F8BC19884205D005F6DC
:10293000BC1105F6D40016F048FB05F6DC0016F0D5
:10294000ADFA040041F29420284416F0A7FA84421C
:1029500006D005F6DC0141F29420284416F0FDFA79
:1029600042F6A80028440BF0E0FB41F63030284442
:102970000BF09BFA079007A915F5097016F025FBD7
:1029800041F2B060284415F09FF9C0B2002818D079
:1029900041F2D860285C002804D02868C03019F0C3
:1029A0002EFB03E02868C03019F032FB41F2D860FA
:1029B000285C002801D1012000E0002041F2D8610C
:1029C000685415F5DB5015F07FF9C0B2002842D0ED
:1029D00041F65830285C00280CD015F5D950006815
:1029E000401C15F5D951086015F5D95115F50B7036
:1029F00016F0EBFA41F6F010285C02282BD141F6D4
:102A000028302858401C41F62831685041F62C30B7
:102A10002A58002141F62C302858401E19F074FC29
:102A200041F62C31685041F6303028440BF0A3F9C0
:102A300041F6283005EB000115F50F7016F0C5FAC8
:102A400041F6303028440BF02EFA069006A915F511
:102A5000117016F0BAFA41F6F010285C002809D07F
:102A6000022801F00B82C0F04C81032800F0B887E7
:102A700006F048BD41F6F110285C002805D0022878
:102A800000F0E080C0F0AE80F8E016F0A4F9DFF8C6
:102A9000DC1D18F057FD002115F5B7500CF09BFB1D
:102AA000002141F2487028440CF095FB012141F2CD
:102AB000B07028440CF0ECFA002141F608002844DC
:102AC0000CF0E6FA002115F5C3500CF0E1FA0021F4
:102AD00041F6B80028440CF07EFB002115F5C950E2
:102AE0000CF079FB002141F6881028440CF073FBB0
:102AF00041F6B870284490ED000B41F2584028444C
:102B00000EF01DFC41F2B830284419F004FC41F2EB
:102B1000B83028440CF0CCFC9FED2F0B41F2B830BC
:102B200028440CF0ABFD41F25840284419F0F7FB63
:102B300041F6184005EB000141F2584028440EF0E0
:102B400017F8002115F5B75016F024FB002141F2CB
:102B50004870284416F01EFB002141F6B8002844B6
:102B600016F018FB002115F5C95016F013FB0021D3
:102B700041F68810284416F00DFB002115F178006D
:102B800016F0F2FA41F6902005EB000115F50770FA
:102B900016F01BFA15F5B65015F052F8002115F590
:102BA000247016F0E1FA002041F6486168540021D3
:102BB00015F52F7016F0D8FA002115F5357016F0BE
:102BC000D3FA002115F5387016F0CEFA012041F63F
:102BD000F111685452E000BF000000000000000046
:102BE00080842E4115F5B65015F035F8C0B2002896
:102BF00027D016F0F0F8DFF8741C18F0A3FC16F0DC
:102C0000EAF8DFF8A81D18F064FBDFF8601C18F084
:102C100099FC16F0E0F8DFF88C1D18F05AFBDFF88D
:102C20004C1C18F08FFC16F0D6F8DFF8801D18F059
:102C300050FBDFF8381C18F085FC022041F6F1113A
:102C400068541BE015F1780015F0C8FB012817D077
:102C500041F25840284419F009F901280ED141F6F3
:102C60009830284441F69051294491ED000B80EDB5
:102C7000000B41F2584028440CF0FAFF06F042BC29
:102C8000002115F1780016F06FFA002115F184008B
:102C900016F06AFA15F10C0015F090FBC0B201288D
:102CA00004D024D3032819D009D320E0012041F611
:102CB000F0116854002041F6F1116854DEE715F573
:102CC000366018F04BFC18F041FA022041F6F01182
:102CD0006854002041F6F1116854CFE7032041F613
:102CE000F0116854002041F6F1116854C6E7002045
:102CF0008DF807000DF1070115F10C0016F0DCF856
:102D0000BCE741F6F020285C002815D0022800F02E
:102D1000D680C0F09280042800F06A83C0F03A8325
:102D2000062800F00A84C0F09483082800F040864A
:102D3000C0F0B78500F052BE16F04DF8DFF82C1B3E
:102D400018F000FC16F047F8DFF8601C18F0C1FA24
:102D5000DFF8181B18F0F6FB16F03DF8DFF8481CFA
:102D600018F0B7FADFF8041B18F0ECFB16F033F894
:102D7000DFF8381C18F0ADFADFF8F01A18F0E2FBB3
:102D800041F6A8602844D0E9002315F5B7500CF0AF
:102D90003AFA41F6A8602844D0E9002341F248708D
:102DA00028440CF030FA41F6A8602844D0E900230A
:102DB00041F2B07028440CF07DF941F6A860284437
:102DC000D0E9002341F6080028440CF073F941F6DD
:102DD000A8602844D0E9002315F5C3500CF06AF927
:102DE00041F6A8602844D0E9002341F6B800284401
:102DF0000CF009FA41F6A8602844D0E9002315F543
:102E0000C9500CF000FA41F6A8602844D0E900232C
:102E100041F6881028440CF0F6F941F6A8602844E1
:102E2000D0E9002341F2B83028440CF02DFD0120F8
:102E300041F6F021685400F0D1BD41F258402844D9
:102E400019F014F8012838D141F6884005EB00014B
:102E500041F2584028440DF08BFE012141F25840C8
:102E600028440CF0DBFFB0EE408AF0EE608A41F2BD
:102E7000B83028440CF0FCFC41F6E821294491EDDF
:102E8000003BB0EE439AF0EE639A16F08DF841ECF9
:102E9000120BB0EE493AF0EE693A41F69830284408
:102EA00090ED001BB0EE480AF0EE680A280006F02C
:102EB00044FD022041F6F021685400F08FBD15F169
:102EC0006C0015F08BFA01284FD015F5AE7015F097
:102ED00085FA040015F5B7500CF084F9844208D047
:102EE00015F5AE7015F07AFA010015F5B7500CF033
:102EF00072F915F5B47015F071FA040041F24870DA
:102F000028440CF06FF9844209D015F5B47015F01F
:102F100065FA010041F2487028440CF05CF915F59F
:102F20009C7015F05BFA040041F2B07028440CF07C
:102F3000B6F884423AD015F59C7015F04FFA0100AE
:102F400041F2B07028440CF0A3F815F59C7015F010
:102F500045FA012820D015F5FE5090ED000B41F206
:102F6000584028440EF0EBF920E0002115F16C00E8
:102F700016F0FAF8002041F6F0216854002041F6DE
:102F8000F011685400208DF806000DF1060115F1CE
:102F90000C0015F091FFF2E141F6B870284490ED75
:102FA000000B41F2584028440EF0C9F915F1E40035
:102FB00015F014FA040041F6080028440CF06FF8EC
:102FC000844209D015F1E40015F008FA010041F639
:102FD000080028440CF05CF815F1F00015F0FEF93B
:102FE000040015F5C3500CF05AF8844208D015F1CE
:102FF000F00015F0F3F9010015F5C3500CF048F896
:1030000015F1FC0015F0EAF9040041F6B800284477
:103010000CF0E8F8844209D015F1FC0015F0DEF957
:10302000010041F6B80028440CF0D5F815F584707D
:1030300015F0D4F9040015F5C9500CF0D3F884420A
:1030400008D015F5847015F0C9F9010015F5C950BF
:103050000CF0C1F815F58A7015F0C0F9040041F6BE
:10306000881028440CF0BEF8844209D015F58A7007
:1030700015F0B4F9010041F6881028440CF0ABF8C3
:1030800015F5B75019F04FF941F6D921695CC0B276
:10309000814206D041F6D920295C15F5B75016F0CB
:1030A00079F841F24870284419F03DF941F6D921E8
:1030B000695CC0B2814207D041F6D920295C41F257
:1030C0004870284416F066F841F6B800284419F014
:1030D0002AF941F6D921695CC0B2814207D041F694
:1030E000D920295C41F6B800284416F053F815F5AC
:1030F000C95019F018F941F6D921695CC0B2814272
:1031000006D041F6D920295C15F5C95016F042F8D1
:1031100041F68810284419F006F941F6D921695C76
:10312000C0B2814207D041F6D920295C41F688100F
:10313000284416F02FF815F5D47015F04FF9040057
:1031400041F2B83028440CF0FBF9C0B2844210D0F0
:1031500015F5D47015F042F9002840F0D48041F202
:10316000B83028440CF0C8F941F25840284419F00E
:10317000DDF815F5DE7015F000FF040041F2B830FF
:1031800028440CF075FB844234D015F5DE7015F040
:10319000F4FE15F009FF41EC100B41F2B830284461
:1031A0000CF06CFA41F25840284419F0BFF841F293
:1031B000B83028440CF010FB8DED440B44A915F5F4
:1031C000DA7015F0ACFE15F5DE7015F0D6FE0400D1
:1031D00041F2B83028440CF04BFB84420AD041F253
:1031E000B83028440CF044FB0F900FA915F5DE70A1
:1031F00015F0D3FF15F5DA7015F06BFEB0EE408ACE
:10320000F0EE608A41F2B83028440CF0E5FA53EC55
:10321000182B51EC100B14F013FF38D015F5DA70A1
:1032200015F057FE41F2B83028440CF09DF941F2F8
:103230005840284419F07AF841F2B83028440CF08C
:1032400017FB0E900EA915F5DE7015F0A6FF15F50B
:10325000DA7015F03EFEB0EE408AF0EE608A41F280
:10326000B83028440CF0B8FA53EC182B51EC100B82
:1032700014F0E6FE0BD041F2B83028440CF0ACFA62
:103280008DED420B42A915F5DA7015F048FE15F5E3
:10329000CC7015F093F8040041F2B83028440CF0DB
:1032A000EDFAE4B2C0B284420FD015F5CC7015F03F
:1032B00085F80100C9B241F2B83028440CF054FA44
:1032C00041F25840284419F031F841F6B840285CE2
:1032D00000280CD0002041F6B841685441F68840DF
:1032E00005EB000141F2584028440DF041FC15F572
:1032F000217015F073F8002810D141F2584028448D
:1033000019F00DF80FE041F2B83028440CF0D0F875
:1033100041F25840284419F009F82AE741F2584090
:10332000284419F007F815F53E7015F057F80128F4
:1033300009D141F25840284419F000F8002115F550
:103340003E7015F011FF41F25840284418F08EFDF0
:10335000012804D141F2584028440CF089FC15F5AD
:103360001B7015F03BF801280AD015F52F7015F0E9
:1033700035F8012803D1052041F6F02168542DE3EA
:10338000002115F51B7015F0EFFE032041F6F0212A
:103390006854F4E741F25840284418F067FD0128CA
:1033A00025D115F5217015F019F8002805D141F245
:1033B0005840284418F0BEFF04E041F25840284429
:1033C00018F0B8FF012041F6F411685015F11C0007
:1033D00014F0F4FFC0B241F6F811685041F25840C1
:1033E00028440CF045FC042041F6F0216854F5E235
:1033F00041F25840284418F039FD012828D141F6FF
:10340000F410285841F6F8116958884212D241F652
:10341000F4102858401C41F6F411685041F6F4109D
:1034200028588DF805000DF1050115F1A00015F0E3
:1034300043FD08E041F25840284418F070FF022094
:1034400041F6F021685441F2584028440CF010FC39
:10345000C4E2012041F64861685415F5787015F012
:1034600038FD41F65860284480ED000B15F57A7060
:1034700015F02FFD15F5F35080ED000B15F57C7060
:1034800015F027FD41F66860284480ED000B15F526
:10349000806015F01EFD41F69860284480ED000B19
:1034A00015F5816015F015FD15F5F55080ED000B53
:1034B00015F5846015F00DFD41F6B060284480EDEF
:1034C000000B012141F2584028440CF0A7FC41F6C2
:1034D0007060284480ED000B41F2B83028440CF0B5
:1034E000C7F941F6E821294491ED003BB0EE438A4B
:1034F000F0EE638A15F058FD41EC120BB0EE483A3D
:10350000F0EE683A41F69830284490ED001B41F601
:103510007060284490ED000B280006F00EFA15F0BC
:103520005AFCDFF8381C17F0D4FED04918F00AF81E
:10353000062041F6F021685450E215F16C0014F0B9
:103540004DFF012800F0728115F52F7014F046FF31
:10355000002800F08D8115F5DA7015F0BAFCB0EE98
:10356000408AF0EE608A41F2B83028440CF034F919
:1035700053EC182B51EC100B14F062FD0BD041F200
:10358000B83028440CF028F98DED400B40A915F512
:10359000DA7015F0C4FC15F5DE7015F0EEFC0400D1
:1035A00041F2B83028440CF063F984420AD041F269
:1035B000B83028440CF05CF90D900DA915F5DE70BB
:1035C00015F0EBFD41F6B840285C00283AD0002009
:1035D00041F6B841685441F6884005EB000141F2DC
:1035E000584028440DF0C4FA012141F258402844C3
:1035F0000CF014FC41F67060284480ED000B41F2A1
:10360000B83028440CF034F941F6E821294491ED12
:10361000003BB0EE438AF0EE638A15F0C5FC41EC46
:10362000120BB0EE483AF0EE683A41F69830284472
:1036300090ED001B41F67060284490ED000B2800CF
:1036400006F07BF941F68140285C002831D000204B
:1036500041F681416854002141F2584028440CF061
:10366000DDFB41F67060284480ED000B41F2B8307C
:1036700028440CF0FDF841F6E821294491ED003B87
:10368000B0EE438AF0EE638A15F08EFC41EC120B2B
:10369000B0EE483AF0EE683A41F69830284490EDA2
:1036A000001B41F67060284490ED000B280006F0E6
:1036B00044F915F5357014F091FE012811D100215F
:1036C00015F5357015F050FD15F085FBDFF8A01DE0
:1036D00017F0FFFD654917F035FF072041F6F0218F
:1036E000685441F25840284418F0C0FB012840F0CB
:1036F000D78041F2584028440CF0BAFA41F698308D
:10370000284490ED000B41F67860284418F040FB07
:103710008DED180B18A915F5826015F000FC9DEDD4
:10372000180B41F6F050284418F0BAF8B0EE408A71
:10373000F0EE608AB0EE480AF0EE680A41F2B83066
:1037400028440BF011FFB0EE480AF0EE680A15F5B8
:10375000F65018F0DEFA280006F024FA8DED2A0B58
:103760002AA915F5836015F0DAFB41F6386005EB00
:10377000000115F57E7015F0D2FBB0EE480AF0EEB0
:10378000680A41F6D860284418F0DCFD41F6D8609C
:10379000284418F047FE280006F004FA8DED280BA7
:1037A00028A915F5856015F0BAFB41F6D8602844C4
:1037B00018F042FE280006F0F5F98DED260B26A93B
:1037C00015F5866015F0ABFB41F6D860284418F07B
:1037D00029FE8DED240B24A915F5876015F09FFBBC
:1037E00041F6D860284418F027FE8DED220B22A95F
:1037F00015F5886015F093FB41F6D860284418F061
:103800001BFEB0EE408AF0EE608A15F58C6015F074
:1038100060FB51EC180B53EC102B18F037FE3AD329
:10382000002115F5387015F09FFC39E0002115F1E5
:103830006C0015F099FC002041F6F021685415F059
:10384000CAFADFF8C81C17F044FD084917F07AFEE1
:10385000002041F6F011685400208DF8040001A901
:1038600015F10C0015F028FB1AE000BFC15D05083A
:10387000022041F6F0216854002041F64861685466
:1038800015F0A9FADFF8841C17F023FDDFF8801C7F
:1038900017F058FE04E0012115F5387015F064FCAE
:1038A0009CE041F2B83028440CF036F8C0B2002851
:1038B00072D09FED3A0B41F2B83028440BF0DEFE97
:1038C000012141F2584028440CF0A8FA41F67060FA
:1038D000284480ED000B41F2B83028440BF0C8FFBB
:1038E00041F6E821294491ED003BB0EE438AF0EE29
:1038F000638A15F059FB41EC120BB0EE483AF0EE3A
:10390000683A41F69830284490ED001B41F670600B
:10391000284490ED000B280006F00FF841F63860BF
:10392000284400220023C0E9002315F5F1500022AD
:103930000023C0E9002341F6186028440022002338
:10394000C0E9002341F62860284400220023C0E992
:10395000002315F5F45000220023C0E9002341F6AE
:103960008860284400220023C0E9002315F5F650A2
:1039700000220023C0E9002341F6C8602844002249
:103980000023C0E9002341F6D860284418F095FDD3
:10399000082041F6F021685420E000BF000000003C
:1039A00000000000C46D0508E86D0508A06D05085D
:1039B00041F2B83028440BF0AFFFC0B200280DD060
:1039C00015F009FADFF84C1B17F083FCDFF8401BF9
:1039D00017F0B8FD062041F6F021685405F092BDBD
:1039E00041F6F120285C002817D0022800F0A380BF
:1039F000C0F08080042800F02981C0F0EF80062804
:103A000000F07181C0F05881082800F0D681C0F024
:103A10008981092800F0F281FEE115F0DCF9DFF878
:103A2000F01A17F08FFD15F0D6F9DFF8EC1A17F041
:103A300050FCDFF8DC1A17F085FD15F0CCF9DFF843
:103A4000DC1A17F046FCDFF8C81A17F07BFD15F0FA
:103A5000C2F9DFF8C41A17F03CFCDFF8B41A17F00B
:103A600071FD15F5D07014F0A9FCC0B26421484373
:103A700015F5D051086015F5D050006803280ED216
:103A8000032015F5D051086015F5D05000688DF869
:103A900003000DF1030115F5D07015F00DFA15F1C5
:103AA0001C0014F08BFC41F6C821685415F5037016
:103AB00015F00FFA41F6F820284480ED000B15F5BB
:103AC000077015F0EBF941F69021685041F690200F
:103AD00028580C900CA811F0DFFECDE93E013EA95C
:103AE00041F60830284414F0A3F8012041F6F121F2
:103AF000685491E1280018F0EFFCC0B2002819D0FA
:103B0000012115F5B7500BF066FB012141F6B80015
:103B100028440BF060FB002141F6881028440BF08C
:103B20005AFB002115F5C3500BF0B2FA022041F602
:103B3000F121685470E1280018F0CEFCC0B20028D2
:103B40004BD0002015F5D8510870002041F6F41133
:103B5000685041F60820284441F6F821294491EDA7
:103B6000000B80ED000B15F5D0500068400818F0F0
:103B7000E3FC02000B0041F608202844D0E90001D4
:103B800018F0EAFC41F608222A44C2E9000115F0C7
:103B900022F9DFF88C1917F09CFB15F5D051096854
:103BA00017F072FC15F017F9DFF8641917F0CAFC6A
:103BB00015F011F9DFF86C1917F08BFB41F60821AD
:103BC000294491ED000B18F038FDDFF8441917F087
:103BD000B9FC032041F6F12168541DE141F2B830EF
:103BE00028440BF099FEC0B200282ED041F60820E0
:103BF000284490ED000B41F2B83028440BF03EFD14
:103C000041F60830284414F01BF815F0E4F8DFF80A
:103C1000001917F097FCDFF8101917F05AFB040091
:103C200015F5077015F03AF90100200017F02CFC8B
:103C300015F0D1F85DA117F04CFBDFF8D41817F0A0
:103C400081FC042041F6F1216854E5E041F608309A
:103C5000284414F000F8C0B200280CD141F25840BA
:103C6000284418F003F9012804D141F258402844AF
:103C70000BF0FEFFD0E041F60830284413F0E8FFD7
:103C800041F6B840285C00280CD0002041F6B8412D
:103C9000685441F6884005EB000141F25840284441
:103CA0000CF066FF41F25840284418F043FB062010
:103CB00041F6F1216854DDE741F2B83028440BF0B9
:103CC0002BFEC0B200280DD041F60820284490ED0C
:103CD000000B41F2B83028440BF0D0FC062041F62E
:103CE000F121685498E041F2B83028440BF014FEFA
:103CF000C0B2002808D041F25840284418F0B6F865
:103D0000012801D1012000E00020C0B2002808D025
:103D100041F2584028440BF0ABFF072041F6F12157
:103D2000685479E041F25840284418F09FF801287F
:103D300042D115F5D8500078401C41F6C821695C85
:103D400088420BDA15F5D8500078401C15F5D8518B
:103D50000870062041F6F12168542DE0002015F589
:103D6000D851087041F6F4102858401C15F5D05170
:103D7000096888421CD241F6F4102858401C41F6CC
:103D8000F411685041F608202844D0E900230020AF
:103D9000DFF8981718F0B8FC41F608222A44C2E967
:103DA0000001052041F6F121685405E02063000080
:103DB000082041F6F12168542EE0280018F08CFB11
:103DC000C0B2002819D0002115F5B7500BF003FA46
:103DD000002141F6B80028440BF0FDF9002141F61E
:103DE000881028440BF0F7F9002115F5C3500BF0AB
:103DF0004FF9092041F6F12168540DE0280018F030
:103E00006BFBC0B2002807D0002041F6F0116854C7
:103E1000002041F6F121685415F16C0014F0DEFA2F
:103E2000012829D114F0D7FFDFF8EC1617F051FA6A
:103E3000DFF8DC1617F086FB14F0CDFFDFF8F01684
:103E400017F047FADFF8C81617F07CFB002115F1D0
:103E50006C0015F089F9002041F6F121685400202A
:103E600041F6F011685400208DF802000DF10201B6
:103E700015F10C0015F020F805F044BB41F6F210E6
:103E8000285C002800F0A180012800F05783022858
:103E900000F07F83032800F0C383042800F0078428
:103EA000052800F04384062800F09684072800F0D7
:103EB0009185082800F0A185092800F050860A287D
:103EC00000F069860B2800F0F1860C2800F03F878F
:103ED0000D2800F04E870E2800F058870F2800F0BC
:103EE0001087102800F02587112801F08180122802
:103EF00001F01282132801F08C84142801F09C84B4
:103F0000152801F04E85162801F0B285172801F01A
:103F1000D086182801F0F886192801F02F871A2872
:103F200001F086871B2801F096871C2801F0A587E1
:103F30001E2802F01C821F2802F09E84202802F016
:103F4000B384212802F0C384222802F0C6842328E7
:103F500002F06585242803F01980252803F08E805F
:103F6000262803F0A580272803F05781282803F08E
:103F7000F381292803F0AC822A2803F05D842B28E2
:103F800003F01B852C2803F03A852D2803F0458586
:103F90002E2803F067852F2803F07785302803F05B
:103FA0007F85312803F05486322803F09F87332819
:103FB00003F0CB87342804F01D80352805F0C98133
:103FC000362805F0408205F052BA14F004FFDFF8FD
:103FD000401517F0B7FA14F0FEFEDFF83C1517F0A5
:103FE00078F9DFF82C1517F0ADFA14F0F4FEDFF8CD
:103FF000441517F06EF9DFF8181517F0A3FA14F04E
:10400000EAFEDFF8141517F064F9DFF8041517F06D
:1040100099FA14F0E0FEDFF8201518F031FC15F1E4
:10402000B40014F056FF15F5D25080ED000B15F1D9
:10403000BC0014F04EFF41F63820284480ED000B00
:10404000002041F63021685415F5FE7014F026FF6B
:104050000B900BA813F05EFD15F5D452C2E90001D8
:1040600015F56E7014F01AFF0A900AA813F052FDAD
:1040700041F688222A44C2E9000115F5D450D0E95E
:10408000002341F2B83028440BF0FEFB41F2B83077
:10409000284418F0FEFB15F5017014F0FFFE09909E
:1040A00009A813F037FD41F678222A44C2E900013D
:1040B00041F678202844D0E9002315F5B7500BF0DD
:1040C000A2F841F678202844D0E9002341F2487054
:1040D00028440BF098F841F678202844D0E90023D2
:1040E00041F2B07028440AF0E5FF41F678202844F8
:1040F000D0E9002341F6080028440AF0DBFF41F62E
:1041000078202844D0E9002315F5C3500AF0D2FFE7
:1041100041F678202844D0E9002341F6B80028442D
:104120000BF071F841F678202844D0E9002315F50A
:10413000C9500BF068F841F678202844D0E90023F4
:1041400041F6881028440BF05EF815F5157014F050
:1041500045F9002804D0012003E000BFC4C20508CF
:10416000002041F6D921685441F6D920295C15F583
:10417000656014F0F9FF41F6D920285C00281BD0B7
:10418000012115F5B75015F005F8012141F24870ED
:10419000284414F0FFFF012141F6B800284414F030
:1041A000F9FF012115F5C95014F0F4FF012141F682
:1041B0008810284414F0EEFF41F6782005EB00014A
:1041C00041F6D850284413F033FD15F5D07014F0A3
:1041D000F5F8C0B215F5D051086015F5687014F007
:1041E000CCFE41F60421685015F56A7014F0C5FE46
:1041F00041F6D031685015F56C7014F0BEFE41F6F2
:10420000D431685015F5687014F0B7FE41F60421FA
:10421000695881420FD041F6042005EB000115F5E5
:10422000687014F0BAFF41F6042005EB000105F6B2
:10423000B86014F0B2FF15F51E7014F0CFF8002826
:1042400001D0012000E0002041F6B831685415F596
:10425000FD5000220023C0E9002341F6CC20284471
:1042600018F01BFB41F69820284418F031FB41F66A
:10427000A420284418F02CFB15F11C0014F09EF823
:1042800041F6C821685441F6C820285C022828DB82
:1042900041F6C82005EB000115F1A00014F00CFE5A
:1042A00014F099FD9C4917F014F8994917F04AF950
:1042B00014F091FDDFF8101E17F00BF814F08BFDD1
:1042C00041F6C821695C18F01EFB914917F03AF9D4
:1042D00014F081FD904916F0FCFF8D4917F032F97A
:1042E00008E001208DF801000DF1010115F1A00099
:1042F00014F0E2FD15F1600014F070F8002801D010
:10430000012000E0002041F6D821685441F6D82071
:10431000295C15F1600014F027FF41F25840284451
:1043200018F064FB15F5E65141F2584028440CF0B2
:104330001FFC14F050FDDFF8941D16F0CAFF7449FD
:1043400017F000F915F5077014F0A8FD41F690215B
:1043500068504FF47A70089008A813F0DBFBCDE9A1
:104360003C013CA941F60830284413F061FC0020D0
:1043700015F5D9510860002041F628316850002019
:10438000059005A915F50F7014F01FFE41F63030A9
:10439000284409F0A9FC41F69020295841F6303014
:1043A000284409F0DFFC15F5C67014F017F8002852
:1043B00001D0012000E0002041F67031685441F640
:1043C000A830284400220023C0E9002341F6B03081
:1043D000284400220023C0E9002341F6DC302844B1
:1043E00018F008FB002041F6CC316850002041F65F
:1043F000F831685415F5707014F06BFD15F5E05048
:1044000080ED000B15F5727014F063FD41F6084065
:10441000284480ED000B41F6182028440022002398
:10442000C0E90023012115F5FF5018F0FEFA15F53B
:104430002D7013F0C3FF0100C9B2280009F02AFC57
:1044400041F6FC11685414F0C6FCDFF8841C16F029
:1044500040FF41F6FC11695C18F055FA41F6FC107A
:10446000285C002806D0022818D00DD320E000BF19
:1044700098B7050814F0AFFCDFF8581C16F029FFB8
:10448000234917F05FF81CE014F0A5FCDFF8481C86
:1044900016F01FFF1E4917F055F812E014F09BFCB0
:1044A000DFF8381C16F015FF194917F04BF808E033
:1044B00014F091FCDFF8281C16F00BFF144917F0DC
:1044C00041F841F63870284418F0B5FA012042F658
:1044D000A001685442F6A000295C41F6303028441F
:1044E00009F0E5FC142141F63030284409F046FD7E
:1044F000002041F610416854002041F611416854F3
:10450000012041F6F211685404F0B1BFCCC2050895
:10451000C15D0508A4B70508A06D05080C6E050867
:1045200074AF0508209B0508D4C205080000F03FC1
:10453000306E0508546E0508D1A80508280017F04C
:10454000CBFFC0B2002822D041F6D820285C00283A
:104550000ED0002141F2B07028440AF099FD15F503
:10456000FE5090ED000B41F2584028440CF0E7FE5D
:10457000002141F6881028440AF02DFE002115F58F
:10458000C3500AF085FD022041F6F211685404F090
:104590006EBF280017F0A0FFC0B200283ED0012057
:1045A00041F65831685415F5DB5013F087FB41F69E
:1045B0003020285C002802D0012816D02AE014F010
:1045C0000AFCDFF8201B16F084FEDFF81C1B16F037
:1045D000B9FF012141F2487028440AF0FCFD012195
:1045E00015F5C9500AF0F7FD14E014F0F4FBDFF8FC
:1045F000FC1A16F06EFEDFF8F01A16F0A3FF012188
:1046000015F5B7500AF0E7FD012141F6B80028443E
:104610000AF0E1FD032041F6F211685404F027BFCF
:10462000280017F059FFC0B200283ED041F6D850FC
:10463000284413F005FB15F5017014F02FFC00EE73
:10464000100AB8EE400A10EE100A18F00FFADFF860
:10465000A02ADFF8A03A13F015FC18F02BFA08EEA8
:10466000100A14F0B8FB040002211AA814F0FAFB97
:10467000DDE91A01CDE9B001B0A9200014F0FEFB7C
:1046800014F0A9FBDFF8701A16F023FEB0EE480A0A
:1046900018F044FAC8A116F01CFEDFF84C1A16F008
:1046A00051FF042041F6F211685404F0E0BE41F6D7
:1046B000D850284413F0CFFAC0B2002834D014F0F8
:1046C0008AFBDFF8381A16F004FEDFF81C1A16F021
:1046D00039FF41F6FC10285C012804D1052041F681
:1046E000F211685420E041F6CC20284418F07BFAFF
:1046F000002815D141F63020285C002810D142F660
:10470000A800284418F07FFA002804D1152041F6AB
:10471000F211685408E0092041F6F211685403E0F0
:10472000182041F6F211685404F0A1BE41F2B830ED
:1047300028440BF0F1F8C0B200284BD041F63020ED
:10474000285C002802D0012810D027E041F638204C
:10475000284490ED001B15F5D25090ED000B0EF0A3
:1047600049FB15F5D15080ED000B17E041F6DC3028
:10477000284418F04AFA401E010041F6DC30284473
:1047800018F053FA90ED040B18F05CFA51EC100B92
:1047900091F0004115F5D152C2E9000141F688209F
:1047A0002844D0E9002341F2B83028440BF06CF8DB
:1047B00015F5D15090ED000B41F2B83028440AF0C5
:1047C0005DFF41F25840284418F010F9062041F6E8
:1047D000F211685404F04BBE41F2B83028440BF09B
:1047E0009BF8C0B2002808D041F25840284417F086
:1047F0003DFB012801D1012000E00020C0B20028CB
:1048000000F0E68041F6504005EB00010DF5C16077
:104810000BF07CF901208DF829060DF5C16141F2FC
:10482000584028440CF0A4F915F5767014F051FBAB
:1048300041F65060284480ED000B002141F25840C1
:1048400028440BF097FAB0EE408AF0EE608A41F609
:1048500050602844D0E9002351EC180B13F012FBF0
:1048600018F024FACDF80C060DF5C16141F258405C
:1048700028440CF07DF900220DF5C16141F2584049
:1048800028440CF0ADF9DDF80C0641F6B071685023
:1048900041F6B070285817F04FFE53EC182B13F068
:1048A000DFFB41F6A8722A44C2E9000141F65060DC
:1048B0002844D0E9000141F6A8722A44D2E9002335
:1048C00017F04AFECDE9140114F085FADFF830182C
:1048D00016F0FFFC14F07FFADFF80C1816F032FE29
:1048E0000DF5C162012141F2584028440CF09EFAB6
:1048F00014F071FADFF8781E16F0EBFC14F06BFA86
:10490000DFF8701E17F0BCFFDFF86C1E17F0B8FF61
:1049100041F65061294491ED000B17F08EFE14F022
:104920005AFADAA116F0D5FCDFF8BC1716F00AFE29
:10493000DDE914010022002317F0A8FD13D814F0BC
:104940004AFADFF8381E16F0C4FCDFF89C1716F0A0
:10495000F9FD41F2584028440BF08AF9082041F64D
:10496000F211685434E014A818F0B4F9CDE93A0112
:104970003AA941F6D850284413F05AF941F6D850D4
:10498000284413F05DF914F026FADFF8F41D16F050
:10499000A0FC14F020FADFF8DC1D17F071FFDFF83F
:1049A000D81D17F06DFF9DED140B17F046FE14F0A7
:1049B00012FAB6A102E000BF2063000016F089FCE5
:1049C000DFF8241716F0BEFD072041F6F2116854F7
:1049D00004F04DBD41F6D850284413F03CF9C0B264
:1049E000002808D041F2584028440BF041F9082033
:1049F00041F6F211685404F03ABD41F2584028449F
:104A000017F034FA012840F0A88040F628116944D4
:104A100041F2584028440CF06FFC41F6983028448D
:104A20004DF804CD0DF5006C9CED4B0B5DF804CBFF
:104A300080ED000B15F5FD504DF804CD0DF5006C23
:104A40009CED4D0B5DF804CB80ED000B14F0C3F929
:104A5000DFF8201D17F014FFDFF81C1D17F010FF02
:104A6000040000211AA814F0FDF9DDE91A01CDE9CE
:104A7000AE01AEA9200014F001FA14F0ACF9DFF891
:104A8000041D16F026FC14F0A6F915F5D15191ED90
:104A9000000B17F0D2FDDFF8501616F053FD14F09E
:104AA0009AF9040007211AA814F0DCF9DDE91A01CB
:104AB000CDE9AC01ACA9200014F0E0F914F08BF9B9
:104AC000DFF8C41C16F005FC14F085F941F69831A6
:104AD000294491ED000B17F0B0FD14F07CF96CA1A6
:104AE00016F0F7FBDFF8001616F02CFD14F073F942
:104AF000DFF8981C16F0EDFB14F06DF9040015F5C5
:104B0000FD50D0E900230020DFF8841C13F0BAF92F
:104B100041EC100B200017F090FD14F05CF9DFF869
:104B2000741C16F0D6FBDFF8C01516F00BFD14F060
:104B300052F9DFF8C01D16F0CCFB14F04CF9DDF88B
:104B4000501916F0A1FC14F046F9DFF89C1516F088
:104B5000F9FC112041F6F211685404F088BC41F2CE
:104B60005840284417F082F9012812D114F033F983
:104B7000DFF8241C16F0ADFBDFF86C1516F0E2FC34
:104B800041F2584028440BF073F80A2041F6F21124
:104B9000685404F06CBC41F25840284417F066F9A0
:104BA000012840F081800DF50E6141F25840284403
:104BB0000CF0A2FB4DF804CD0DF5006C9CED398B8B
:104BC0005DF804CB14F007F9040007211AA814F0CB
:104BD00049F9DDE91A01CDE9AA01AAA9200014F0DA
:104BE0004DF914F0F8F8DFF8B41B16F072FB14F06E
:104BF000F2F8B0EE480AF0EE680A17F01EFD14F065
:104C0000EAF823A116F065FBDFF8DC1416F09AFC35
:104C100041F6FC10285C01280ED114F0DCF8DFF816
:104C2000801B16F056FBDFF8C01416F08BFC0B202F
:104C300041F6F211685437E09DF82009002814D09D
:104C400014F0C9F8DFF85C1B16F043FB14F0C3F84E
:104C5000DFF8541B16F03DFBDFF88C1416F072FCE5
:104C60000B2041F6F21168541EE014F0B4F8DFF89E
:104C70003C1B16F02EFB14F0AEF8DFF8341B16F0D8
:104C800028FB14F0A8F8DFF82C1B03E020F100004B
:104C900020C2000016F01DFBDFF84C1416F052FC89
:104CA000152041F6F211685404F0E1BB41F2B8302E
:104CB000284417F0EEFD41F60820284415F5D1519F
:104CC00091ED000B80ED000B41F61020284441F6D9
:104CD0002821294491ED000B80ED000B002041F6C6
:104CE000F4116850132041F6F811685041F2B830C1
:104CF00028440AF0DDFB0F2041F6F211685404F05D
:104D0000B6BB41F2B83028440AF006FEC0B2002813
:104D10000DD041F60820284490ED000B41F2B83048
:104D200028440AF0ABFC102041F6F211685404F05C
:104D30009EBB41F2B83028440AF0EEFDC0B2002814
:104D400003D00C2041F6F211685404F090BB41F2FC
:104D50005840284417F08AF8012808D141F25840F9
:104D600028440AF085FF0D2041F6F211685404F042
:104D70007EBB41F25840284417F078F8012803D14F
:104D80000E2041F6F211685404F071BB40F6980110
:104D9000694441F2584028440CF0AEFA41F698308C
:104DA00028444DF804CD0DF5006C9CED270B5DF803
:104DB00004CB80ED000B41F6F4102858401CCDF8D0
:104DC000E00541F608202844D0E9000114F01EFA5D
:104DD000CDF8E40541F610202844D0E9000117F091
:104DE00065FFCDF8E80541F69830284490ED000BBA
:104DF0004DF804CD0DF5806C8CED7D0B5DF804CB8A
:104E00000DF50063D3E928230020DFF8841913F09F
:104E100039F841EC100B51EC100B31F0004141EC32
:104E2000100B4DF804CD0DF5806C8CED7F0B5DF80B
:104E300004CBDDF8C008CDF800060DF5BC600DF020
:104E400002FE9DF8D808002807D041F6F410285833
:104E500041F6F811695888422BD341F6FC10285CC2
:104E6000012822D141F66170285C00280ED141F65C
:104E70000820284490ED001B41F69830284490ED1E
:104E8000000B41F63870284417F046FF41F6617078
:104E9000285C00280DD041F63870284417F050FFE8
:104EA000012041F61041685403E0012041F6104111
:104EB000685441F61040285C00284CD041F2B830CC
:104EC00028440AF0D5FC14F06FF841F618222A4461
:104ED000C2E90001012041F61041685413F07BFF44
:104EE000DFF8CC1816F0F5F913F075FFDFF8C818E5
:104EF00016F0EFF97C4916F025FB13F06CFF040067
:104F000000211AA813F0AEFFDDE91A01CDE9A801CE
:104F1000A8A9200013F0B2FF13F05DFFDFF89C1882
:104F200016F0D7F941F61821294491ED000B17F03E
:104F300084FB6D4916F006FB41F6FC10285C012845
:104F400004D1112041F6F21168544FE0152041F6CA
:104F5000F21168544AE041F6F4102858401C41F61A
:104F6000F411685041F698302844D0E9000100223D
:104F7000002317F041FF11D241F608202844D0E960
:104F8000002341F610202844D0E9000117F0BCFBB3
:104F900041F608222A44C2E9000110E041F6082047
:104FA0002844D0E9000141F610222A44D2E9002326
:104FB00017F0D2FA41F608222A44C2E9000141F66C
:104FC00010202844D0E900230020DFF8601E12F0F2
:104FD00059FF41EC100B17F029FF41F6102028442F
:104FE00080ED000B0F2041F6F211685404F03FBA37
:104FF00041F63020285C00280FD141F61140285C92
:1050000000280AD141F60830284412F019FE41F672
:105010009020285841F694216850002041F668718C
:10502000685441F6707005EB000115F5FC5012F064
:10503000FFFD15F5FC5012F003FE41F6504005EB64
:10504000000140F6680068440AF060FD41F6B07067
:105050002858CDF86C0840F66801694441F2584080
:1050600028440BF085FD13F0B6FE254916F031F902
:105070001D4916F067FA41F6D860284417F01DFA6A
:1050800041F6B070295841F6D860284417F002FF65
:1050900041F6B070295841F6D860284417F01EFF39
:1050A000002141F2584028440AF075FFC0B20028A0
:1050B00028D115F5D450D0E9002341F2B830284466
:1050C0000AF0E2FB30E000BF349B050824650508C8
:1050D000B0B70508BCB70508DCC20508BC8E0508DA
:1050E000E4C20508786E0508C15D05089C6E0508D8
:1050F000FCA9F1D24D62503FC8B70508D4B70508E6
:105100004C650508002141F2584028440AF086FE0B
:105110008DED380B38A817F0DDFD02000B0041F2D1
:10512000B83028440AF0B0FB13F055FEDFF8D01D6C
:1051300016F0CFF813F04FFEDFF8381617F0A0FB8B
:10514000DFF8341617F09CFB41F6A871294491ED65
:10515000000B17F072FA13F03EFEDFF8A81D16F0F0
:10516000B8F841F6B071695816F08EF913F033FEB5
:10517000DFF8941D16F0ADF8DFF8901D16F0E2F997
:1051800041F2584028440AF073FD002041F6F41122
:10519000685041F60820284415F5D15191ED000BD7
:1051A00080ED000B15F5787013F093FE41F6586012
:1051B000284480ED000B15F57A7013F08AFE15F582
:1051C000F35080ED000B15F57C7013F082FE41F674
:1051D0006860284480ED000B15F5806013F079FEBF
:1051E00041F69860284480ED000B15F5816013F0BE
:1051F00070FE15F5F55080ED000B15F5846013F089
:1052000068FE41F6B060284480ED000B002141F2B9
:10521000584028440AF002FE41F67060284480EDB0
:10522000000B002141F2584028440AF0B4FEC0B2FD
:1052300000282BD1DFF8D80CD0E9000117F056FE7A
:1052400006000F0015F5D450D0E9000117F04EFE0E
:1052500032003B0012F016FE06000F00DFF8B40C1F
:10526000D0E9000117F042FE02000B0030003900C7
:1052700012F0F6FE41F670622A44D2E9002317F0DC
:1052800043FA41F670622A44C2E9000141F6E8207F
:10529000284490ED003B15F5D15090ED002B41F6E0
:1052A0009830284490ED001B41F67060284490ED42
:1052B000000B280004F041FB15F58A6013F07EF81E
:1052C000C0B20DF0AEFE41F698716854280008F0A7
:1052D000E4FF40F668026A44012141F25840284444
:1052E0000BF0A4FD13F077FDDFF82C1C15F0F1FF97
:1052F000DFF8181C16F026F913F06DFDDFF81C1C02
:1053000015F0E7FFDFF8041C16F01CF9122041F637
:10531000F211685404F0ABB841F61140285C002843
:1053200027D141F60830284412F095FCC0B200287D
:105330001FD041F69420285800280CD041F60830A0
:10534000284412F07DFC41F694202858401E41F676
:10535000942168500DE0012041F61141685413F08A
:105360003AFDDFF8BC1B15F0B4FFDFF8A01B16F008
:10537000E9F8002641F66870285C002808D015F589
:10538000FC5012F068FCC0B2002824D0012622E0B4
:1053900015F5FC5012F05FFCC0B200281BD00120B4
:1053A00041F66871685441F6787005EB000115F517
:1053B000FC5012F03DFC15F5FC5012F041FC13F0CE
:1053C0000AFDDFF8601B15F084FF13F004FDDFF821
:1053D0003C1B16F0B7F80024002141F25840284445
:1053E0000AF0D9FDC0B2002809D041F25840284443
:1053F0000AF0C0FDC0B2002801D0012000E000206A
:10540000C0B2002800D00124002141F258402844B5
:105410000AF0C1FDC0B2002808D141F2584028442A
:1054200016F024FD012801D1012000E00020C0B2C7
:10543000002800D00124E4B2002C00F0D9810DF541
:10544000026141F2584028440BF056FF41F6983073
:1054500028444DF804CD0DF5006C9CED090B5DF86A
:1054600004CB80ED000B41F68140285C002804D17C
:1054700015F5E450007800283FD0002041F6814126
:105480006854002015F5E451087041F6504005EBD2
:10549000000141F2584028440BF06AFB002141F220
:1054A000584028440AF0BAFC41F67060284480ED68
:1054B000000B41F6E820284490ED003B41F608201F
:1054C000284490ED002B41F69830284490ED001BC5
:1054D00041F67060284490ED000B280004F02DFA8E
:1054E000280008F0DAFE41F6504005EB00020121E9
:1054F00041F2584028440BF099FC4DF804CD0DF5CD
:10550000006C9CED170B5DF804CB41F678602844E5
:1055100016F03EFC8DED160B16A915F5826013F002
:10552000FEFC9DED160B41F6F050284416F0B8F93C
:1055300041F60820284480ED000B41F6082028445D
:1055400090ED000B15F5F65016F0E3FB8DED360BE4
:1055500036A915F5836013F0E2FC41F6386005EBDF
:10556000000115F57E7013F0DAFC41F6082028449E
:1055700090ED000B41F6D860284416F0E3FE41F6AA
:10558000D860284416F04EFF8DED200B20A915F5AC
:10559000856013F0C4FC41F6D860284416F04CFF37
:1055A0008DED1E0B1EA915F5866013F0B8FC41F6B3
:1055B000D860284416F036FF280004F061FA8DED1B
:1055C0001C0B1CA915F5876013F0A9FC41F6D860E7
:1055D000284416F031FF280004F052FA8DED1A0B22
:1055E0001AA915F5886013F09AFC41F608202844A2
:1055F000D0E9000113F00AFE040015F54D7012F019
:10560000EDFE00283FD041F6F4102858C690C7940C
:1056100041F60820284490ED000B8DEDC80B41F6B3
:10562000D860284416F0FEFE8DEDCA0B41F6983086
:10563000284490ED000B8DEDCC0B0DF50063D3E904
:105640000A230020524912F01DFC41EC100B51ECD2
:10565000100B31F0004141EC100B8DEDCE0BDDF85D
:105660004808D09041F6D860284416F0E5FE8DED4C
:10567000D20B41F6D860284417F061FC8DF8500336
:10568000C6A80DF095FA41F6F4102858401C41F6D2
:10569000F411685041F69870285C8DF89805002048
:1056A00000210DF5806CCCE9680141F6D8602844F2
:1056B00016F0C2FE4DF804CD0DF5806C8CED6B0B31
:1056C0005DF804CB15F58C6013F003FC4DF804CDA8
:1056D0000DF5806C8CED6D0B5DF804CB41F69830C8
:1056E000284490ED000B4DF804CD0DF5806C8CED49
:1056F0006F0B5DF804CB41F62870284490ED000B49
:105700004DF804CD0DF5806C8CED710B5DF804CB7C
:105710004DF804CD0DF5006C9CED0B0B5DF804CB42
:105720004DF804CD0DF5806C8CED730B5DF804CB5A
:1057300015F5FD5090ED000B4DF804CD0DF5806C86
:105740008CED750B5DF804CB8DF8D86541F6D8600B
:10575000284417F0F4FB8DF8D90541F61140285C78
:1057600041F66871695C08422AD0012029E000BF37
:10577000D48E0508D1A8050837980508C06E05081D
:1057800084AF0508EC8E05081084050894AF050861
:1057900080842E41ECC20508C87B0508A4AF05082B
:1057A000E46E0508489B0508086F0508048F050886
:1057B0002C6F0508B4AF0508E0B70508ECB705087D
:1057C00000208DF8DA050DF5B3600DF029FDC0B2AB
:1057D00000280FD1200013F0E7FB41EC100B41F241
:1057E000B830284409F04AFF132041F6F2116854FA
:1057F00003F03DBE41F6D860284416F013FE41F692
:105800001820284480ED000B142041F6F211685452
:10581000EEE741F2B83028440AF07EF8C0B2002822
:1058200008D041F2584028440AF022FA122041F6EA
:10583000F211685403F01BBE41F63020285C8DF84D
:10584000E80215F5D15090ED000B8DEDBC0B41F643
:105850001820284490ED000B8DEDBE0B15F5FD5082
:1058600090ED000B8DEDC00B41F6D860284416F08A
:10587000E3FD8DEDC20B41F6F4102858C490BAA98F
:1058800041F6DC30284417F06EFB41F6CC30285846
:10589000401C41F6CC31685013F09DFA04000321FE
:1058A00048A813F0DFFADDE94801CDE9A601A6A971
:1058B000200013F0E3FA13F08EFADFF8881B15F0DE
:1058C00008FDDFF8481615F03DFE13F084FADFF806
:1058D000781B15F0FEFC13F07EFA9DEDBE0B16F062
:1058E000ACFEDFF8281615F02DFE13F074FA01490E
:1058F00002E000BFF4C2050815F0EBFC41F6F4111C
:10590000695815F0C1FDDFF8041615F01BFE41F6CD
:105910003020285C00280DD141F6582028449DED08
:10592000BE0B80ED000B15F5D3509DEDBC0B80ED4B
:10593000000B0DE041F6682028449DEDBE0B80ED84
:10594000000B41F6702028449DEDBC0B80ED000B50
:1059500041F6D820285C00280FD1012141F2B07017
:10596000284409F095FB41F6B870284490ED000BEF
:1059700041F2584028440BF0E2FC41F258402844E0
:1059800017F034F815F5D450D0E9002341F2B830BF
:10599000284409F079FF322041F6F211685403F0EF
:1059A00066BD41F25840284416F060FA01285DD1E6
:1059B00041F6CC20284417F016F9002852D141F6C0
:1059C0003020285C00284DD1002041F65831685421
:1059D00041F60830284412F033F941F69020285857
:1059E00041F69421685013F0F6F9DFF8201515F010
:1059F000A9FDDFF8101D15F06CFC13F0ECF90400A4
:105A000015F5077013F04AFA0100200015F03CFD6F
:105A1000D6A115F05EFCDFF8F41415F093FD41F209
:105A20005840284416F07BFC41F2B830284416F068
:105A300030FF022042F6A001685442F6A000295C23
:105A400041F63030284408F032FA41F6C440295873
:105A500042F6A800284408F01FFB162041F6F21178
:105A6000685403E0182041F6F211685403F0FFBCBB
:105A700041F60830284412F0EEF8C0B200280DD1EB
:105A800041F25840284416F0F1F9012804D141F2BE
:105A9000584028440AF0ECF803F0E9BC41F69420A1
:105AA0002858002825D041F60830284412F0C8F8BC
:105AB00041F694202858401E41F69421685013F076
:105AC0008AF9D9A115F005FCDFF8441C15F03AFD60
:105AD00041F6942028583C21B0FBF1F201FB120062
