:020000040800F2
:10000000F0BC0120D13206085DF701086DF7010848
:100010007DF701088DF701089DF701080000000039
:10002000000000000000000000000000ADF7010823
:10003000BDF7010800000000CDF70108DDF7010859
:1000400069FB010869FB010869FB010869FB0108FC
:1000500069FB010869FB0108EDF7010869FB01086C
:1000600069FB010809F8010869FB010869FB01083F
:1000700069FB010869FB010869FB010869FB0108CC
:1000800069FB010869FB010869FB010869FB0108BC
:1000900069FB010869FB010869FB010827F80108F1
:1000A00069FB0108BFF8010869FB010869FB010849
:1000B00069FB0108FFF8010869FB010869FB0108F9
:1000C00069FB010869FB010869FB010869FB01087C
:1000D00069FB010889FA010899FA0108A9FA0108DF
:1000E0000FF9010869FB010869FB0108B9F901086A
:1000F000EBF9010869FB01081FFA010869FB010817
:1001000069FB0108B9FA010869FB010869FB0108EC
:10011000C9FA0108D9FA010869FB010869FB01085D
:10012000E9FA0108F9FA010809FB010819FB0108BD
:1001300069FB010869FB010869FB010869FB01080B
:1001400069FB010869FB010869FB010839FB01082B
:1001500069FB010829FB010869FB010849FB01084B
:1001600069FB010869FB010869FB010869FB0108DB
:1001700069FB010859FB010869FB010869FB0108DB
:1001800069FB010880B516480078002806D10021D7
:1001900014480AF084FB12480121017012480078CB
:1001A000002806D1002111480AF079FB0E480121F0
:1001B00001700F480078002806D100210D480AF090
:1001C0006EFB0B48012101700B480078002806D116
:1001D00000210A480AF063FB07480121017001BDB4
:1001E0000B900020108F00200C900020188F002012
:1001F0000D900020148F00200E9000200C8F002006
:1002000070B52DED048BC0B00400216000230022E6
:100210000021201D0AF045FB002214F50361201D7A
:100220000AF094FF8208206810F1A00114F5036021
:100230000BF075FE01201D901DA80CF07BF9CDE997
:1002400004014020029000200190012000904FF412
:100250008053206810F1D802206800F2283104F69B
:10026000F8000DF076FD0023002204F6F80104F6F4
:1002700058200DF0C1FD04F6582204F6F80104F6EA
:10028000C86007F015FD206800F278100090206823
:1002900000F26813206800F25812012114F56D6015
:1002A0000EF07CF814F572600EF0A2FA2068D0F817
:1002B000AC312068B0F9AA212068B0F9A81114F572
:1002C00077600EF0C0FB04F6B8700EF031FD04F656
:1002D000D4700EF04FFD14F57E600EF04BFD04F669
:1002E000EC700EF047FD04F6F8700EF04DFD0020A6
:1002F0000290206800F24C200190206800F23C201F
:100300000090206800F22C23206800F21C22206854
:1003100000F2FC2104F5805088300EF01DFE04F53B
:100320008051883104F58050D0300FF041FA2068B8
:1003300000F25433206800F2CC12206800F2D02181
:1003400004F5885070300FF0D5FD64201C901CA877
:1003500012F0D2FDCDE9240124A904F59850B8305B
:1003600012F089FE4FF4FA701B901BA812F0C4FD26
:10037000CDE9220122A904F59850C83012F07BFE85
:100380004FF47A701A901AA812F0B6FDCDE9200148
:1003900020A904F59850D83012F02CFE41F2F0302C
:1003A00000210155DFF8681D38A812F045FF6420D0
:1003B000199019A812F0A0FD00220492CDE90201C3
:1003C0000020009038AB206800F27C22206800F208
:1003D0008C2104F59850F8300FF09CF838A812F0F2
:1003E0003BFFDFF8301D30A812F026FF6420189084
:1003F00018A812F081FD00220492CDE9020100202C
:10040000009030AB206800F29C22206800F2AC2102
:1004100014F5A3500FF07EF830A812F01DFFDFF89E
:10042000F81C28A812F008FF02000123206800F23F
:10043000BC2104F5A050C8300EF0DAFF28A812F055
:100440000BFF14F5A9500021017041F22150002149
:10045000015541F222500021015541F22450002162
:10046000015141F228501421015141F22C50022136
:10047000015541F230500321015141F23450012124
:10048000015104F5A850383000220023C0E90023B0
:1004900014F5AA5000220023C0E9002304F5A85057
:1004A000483000220023C0E9002304F5A850503052
:1004B00000220023C0E9002312259FED1A8B2E0095
:1004C000002D00D576429FED199B07E051EC180BEB
:1004D00053EC182B12F0D4FE41EC180B3000C0077F
:1004E00007D551EC190B53EC182B12F0C9FE41EC57
:1004F000190B7608002EE9D1002D1FD553EC192BCE
:100500000020002112F096FF02D19FED0A9B15E01A
:100510000020DFF8081C53EC192B12F09BFF41EC74
:10052000190B0BE00000000000000040000000007C
:100530000000F03F000000000000F07F04F5A8502C
:10054000583053EC192BC0E9002314F5AB500021AF
:10055000017004F5A85068300022DFF8C03BC0E904
:10056000002304F5A85070300022DFF8B03BC0E94A
:10057000002304F5A850783000220023C0E90023AE
:1005800014F5AC5000220023C0E9002304F5A85064
:10059000883000220023C0E9002304F5A8509030E1
:1005A00000220023C0E9002304F5A850983000225F
:1005B0000023C0E9002314F5AD5000220023C0E958
:1005C00000236420179017A812F096FC04F5A85297
:1005D000A832C2E900016420169016A812F08CFC23
:1005E00004F5A852B032C2E900016520159015A8A3
:1005F00012F082FC04F5A852B832C2E9000114F5E9
:10060000AE500521016004F5A850C83013F045F83C
:1006100004F5A850D83013F040F804F5A850E8309D
:1006200000220023C0E9002304F5A850F030002286
:100630000023C0E9002304F5A850F830002200236D
:10064000C0E9002314F5B0500121017004F5B05049
:10065000001D13F032F841F214600021015541F2FF
:1006600015600021015504F5B05018300022002318
:10067000C0E9002314F5B1500021017041F221605E
:100680000021015504F5B050283000220023C0E9B4
:10069000002341F2306000210155002013904FF4F7
:1006A0007A70149014AA13A904F5B050383012F0DF
:1006B00071FC41F250600021015141F2546000216F
:1006C000015141F258600021015141F25C6000216A
:1006D000015114F5B350002101704FF47A7012905B
:1006E00012A812F009FCCDE91E011EA904F5B050B4
:1006F000683012F0C0FC41F278600021015504F529
:10070000B050983000220023C0E9002314F5B55002
:1007100000220023C0E9002304F5B050A8300022D5
:100720000023C0E9002341F2B0600021015504F527
:10073000B050B83000220023C0E9002314F5B650B1
:1007400000220023C0E9002341F2C86000210155C6
:1007500004F5B050D03000220023C0E9002341F25C
:10076000D8600021015141F2DC600021015114F5F3
:10077000B7500121016041F2E4600521015141F2CD
:10078000E8600021015104F5B050EC3012F0A5FFF3
:1007900004F5B050FC3012F080FF41F20C700221E1
:1007A000015141F210700021015504F5B850183084
:1007B0000022DFF86839C0E9002314F5B95000229F
:1007C000DFF85839C0E9002341F258700021015583
:1007D00041F290700021015541F2C870002101558D
:1007E00014F5C0500021017041F638000021015578
:1007F00004F5A851A83104F5C050783012F0FAFB86
:10080000206800F2C01104F5C05090300FF0DEFAFD
:10081000002104F5C050D83012F06FFF04F5C0502D
:10082000DC3012F0EDFF41F6E400002101552068B4
:1008300010F1E80104F5C050E83010F099FE41F6DF
:1008400068100021015504F5C850703000220023C3
:10085000C0E9002304F5C850783000220023C0E925
:10086000002314F5CC5000220023C0E9002304F536
:10087000C850A83000220023C0E9002304F5C85066
:10088000B03000220023C0E900236420119011A899
:1008900012F032FB04F5C852B832C2E9000114F577
:1008A000CE5000220023C0E9002304F6444013F098
:1008B00093F8050004F6444013F08EF80200290076
:1008C00014F5CF5013F097F814F5D15000220023FF
:1008D000C0E9002304F5D050283000220023C0E9ED
:1008E000002304F5D050303000220023C0E900235B
:1008F00004F5D0503830DFF8A42CDFF8A43CC0E970
:10090000002314F5D2500022DFF81038C0E900238C
:1009100004F5D050483000220023C0E9002304F53C
:10092000D05050300022DFF8F437C0E9002341F600
:1009300058200121015141F65C204FF47A71015198
:1009400004F2AC70109004F65C600F9004F2A47096
:100950000E9004F654600D9004F29C700C9004F21A
:1009600094700B9004F64C600A9004F28C7009901D
:1009700004F28470089004F27C70079004F27470A2
:10098000069004F26C70059004F26470049004F216
:100990005C70039004F25470029004F24C70019069
:1009A000206800F2EC300090206800F2DC33206810
:1009B00000F2CC32206800F2BC3114F5D35010F0B4
:1009C000A9FF04F5E850B0300022DFF85037C0E945
:1009D000002304F5E850B830DFF8C02BDFF8C43B43
:1009E000C0E9002314F5EE500022DFF83037C0E9EB
:1009F000002304F5E850C83000220023C0E900239A
:100A000004F5E850D0300022DFF89C3BC0E9002319
:100A10009FED871B9FED880B04F25C7104F5E85095
:100A2000D83011F094FC04F624000E9004F618005F
:100A30000D9004F60C000C9004F2FC700B9004F284
:100A4000F4700A9004F2EC70099004F2E4700890DB
:100A500004F2DC70079004F2D470069004F2CC70BB
:100A6000059004F2C470049004F2BC70039004F288
:100A7000B470029000200190206800F29C30009039
:100A800014F5EE50D0E9002343EC122B04F5E850A6
:100A9000B830D0E9002343EC112B04F5E850B03016
:100AA000D0E9002343EC102B4623206800F2583293
:100AB00004F5E851D83104F5E850F03012F0B4FFF5
:100AC00004F5E851F03104F5F050503011F0A5FC78
:100AD00004F6BC60109014F56B600F9004F6A460EF
:100AE0000E9004F694600D9004F68C600C9004F661
:100AF00084600B9004F67C600A9004F674600990A0
:100B000004F66C60089004F66460079004F6240014
:100B1000069004F61800059004F60C00049004F208
:100B2000EC70039004F2E470029004F2DC70019027
:100B300004F2D470009004F2CC7304F2C47204F294
:100B4000B47104F50050203012F050F842F27000F9
:100B500000210155200000F031FD200000F043FD90
:100B600012F0A6FF009003A800A9042212F0A6FF2D
:100B700014F53A6012F0DDFF8DF80C0004F6A83091
:100B800012F0D7FF8DF80D0014F53B6012F0D1FF85
:100B90008DF80E0004F6B83012F0CBFF8DF80F0080
:100BA00012F086FF009002A800A9042212F086FF2E
:100BB00014F53C6012F0BDFF8DF8080004F6C83053
:100BC00012F0B7FF8DF8090014F53D6012F0B1FF87
:100BD0008DF80A0004F6D83012F0ABFF8DF80B0048
:100BE00012F066FF009001A800A9042212F066FF2F
:100BF00014F53E6012F09DFF8DF8040004F6E83015
:100C000012F097FF8DF8050014F53F6012F091FF88
:100C10008DF8060004F6F83012F08BFF8DF807000F
:100C200014F5406012F096FF002809D0012008E07A
:100C300000000000008041400000000000002E4045
:100C40000020C0B20090019B029A03992068A8304E
:100C500013F00AF8206810F1A8010BA810F010FD9D
:100C600013F0CBFC0500082126A813F00FFD26A9E0
:100C7000280013F019FD04F6582012F0ADFE14F50B
:100C8000B051087014F5B05114F11C0013F01CFDA4
:100C900014F5266013F025FD04F5A850703053ECD0
:100CA000102BC0E9002304F5A851703114F1B400F1
:100CB00013F041FD04F6682013F013FD04F5A8506D
:100CC000683053EC102BC0E9002304F5A8516831BB
:100CD00014F1BC0013F02FFD14F5396114F1D400A8
:100CE00013F036FD04F6983114F1DC0013F030FDFA
:100CF00014F5276012F070FE0100C9B204F58050AF
:100D0000D0300EF01BFF04F58050D0300EF0A0FF65
:100D10008DF801000DF1010104F2981013F0D4FCDC
:100D200004F6782012F058FE41F23051085141F299
:100D3000305000598DF8000000A904F2A01013F003
:100D4000C3FC14F5286012F047FE0A900AA812F0BE
:100D5000D3F804F5A852B032C2E9000114F52861B5
:100D600004F2FC1013F008FD04F5C850B830D0E9C7
:100D7000002304F58050D0300EF070FF04F6783078
:100D800012F02AFE099009A812F0B6F804F5A8524C
:100D9000B832C2E9000104F6783104F2A03013F051
:100DA000EBFC04F6882012F017FE089008A812F059
:100DB000A3F804F5A852A832C2E9000104F688217C
:100DC00004F2042013F0D8FC14F5296013F089FC18
:100DD00004F5B050283053EC102BC0E9002304F583
:100DE000B051283104F20C2013F0A5FC04F6982031
:100DF00013F0D2FC13F0E6FC04F5B0522832C2E93D
:100E0000000104F5B051283104F20C2013F093FCDA
:100E100014F52A6012F0E0FD14F5AE51086014F5E7
:100E2000AE5104F21C2013F0E5FC200007F090F90D
:100E300004F6144104F2C83013F08AFC04F614409E
:100E400013F04FFC04F5C850703053EC102BC0E980
:100E5000002304F61C4104F2D03013F079FC04F6B0
:100E60001C4013F03EFC04F5C850783053EC102BB6
:100E7000C0E9002304F6244104F2D83013F068FCE2
:100E800004F6244013F02DFC14F5CC5053EC102B39
:100E9000C0E9002304F5C85028300022DFF80C37E1
:100EA000C0E9002304F5C850303000229B4BC0E954
:100EB000002304F5C850383000220023C0E9002385
:100EC00014F5CA5000220023C0E9002304F5C850DD
:100ED000483000220023C0E9002341F650100021D1
:100EE000015141F654100021015104F5C850583009
:100EF00000220023C0E9002314F5CB50DFF89C2624
:100F0000DFF8AC36C0E9002304F62C4104F2E830E7
:100F100013F01EFC04F62C4013F0E3FB04F5C8505C
:100F2000A83053EC102BC0E9002304F6344104F23E
:100F3000F03013F00DFC04F6344013F0D2FB04F54E
:100F4000C850B03053EC102BC0E9002304F5C85052
:100F5000883004F5C851A831D1E90023C0E9002345
:100F600004F5C850903000220023C0E9002304F5A6
:100F7000C850983000220023C0E9002304F58850AF
:100F800070300FF0C9F804F5C850B030D0E9002334
:100F900051EC100B12F074F914F5CD52C2E90001B6
:100FA00004F63C4114F5816013F0D2FB04F63C409A
:100FB00013F097FB14F5CE5053EC102BC0E900232F
:100FC00004F5C850C83000220023C0E9002304F50E
:100FD000C850D03000220023C0E9002304F5885017
:100FE00070300FF099F814F5CE50D0E9002351EC91
:100FF000100B12F045F904F5C852D832C2E90001CD
:1010000004F6444114F5866013F0B6FB04F64C4038
:1010100013F067FB04F5D050283053EC102BC0E9D7
:10102000002304F5D0502830D0E9002343EC102BE6
:10103000200006F0CFFF51EC100B14F5D152C2E99D
:10104000000104F5D051283114F5886013F073FBCA
:1010500014F5D15114F5876013F06DFB04F654407C
:1010600013F03FFB04F5D050303053EC102BC0E9A7
:10107000002304F5D051303114F5896013F05BFB87
:1010800014F52B6013F02DFB04F5B050903053ECA9
:10109000102BC0E9002304F5B051903104F2403028
:1010A00013F049FB14F52E6013F01BFB04F5805080
:1010B000D0300EF024FE04F58050D0300EF029FE22
:1010C00051EC100BCDE90E010EA904F2783013F0AB
:1010D00032FB04F6E82013F004FB04F58050D03016
:1010E0000EF012FE04F58050D0300EF017FE51ECD9
:1010F000100BCDE90C010CA904F2803013F01BFB9E
:1011000004F6F82012F026FD002809D0012008E09E
:10111000F0360608F8360608003706080000F03FEB
:10112000002041F21461085541F21460015D14F190
:10113000600013F06CFB04F6043012F00BFD002885
:1011400001D0012000E0002041F27861085541F211
:101150007860015D04F28C1013F059FB14F53160D6
:1011600012F0F8FC002801D0012000E0002041F23C
:101170001561085541F21560015D04F2542013F029
:1011800046FB04F61C3012F0E5FC002801D00120DB
:1011900000E0002041F2C861085541F2C860015DDD
:1011A00004F2782013F033FB14F5366013F0F4FAF0
:1011B00041F23451085104F5A851343104F2883019
:1011C00013F03BFB04F6683013F0E6FA14F5B75160
:1011D000086014F5B7500068079007A904F2903032
:1011E00013F02BFB14F5376013F0D6FA41F2E461EB
:1011F000085141F2E4600059069006A904F29830C3
:1012000013F01BFB14F5386013F06BFA04F5B850BB
:10121000183053EC102BC0E9002304F5B8511831F5
:1012200004F2A83013F087FA04F6283104F284207F
:1012300013F010FB14F5346104F2103013F00AFBC4
:1012400004F2103012F086FC002801D0012100E0E9
:101250000021C9B204F58850703013F01AFB04F66F
:10126000883013F03EFA14F5B95053EC102BC0E956
:10127000002314F5B95104F2B03013F05CFA04F60F
:10128000583012F056FC0100C9B2200009F0F2FA01
:1012900041F22C51085504F6583104F2B42013F0F1
:1012A000FBFA04F61C6013F01CFA04F5D050383039
:1012B00053EC102BC0E9002304F61C6114F58E607A
:1012C00013F046FA04F6246013F00BFA14F5D2502A
:1012D00053EC102BC0E9002304F6246114F58F6051
:1012E00013F036FA04F62C6013F0FBF904F5D05035
:1012F000483053EC102BC0E9002304F62C6104F2B3
:101300002C7013F025FA04F6346013F0EAF904F5B2
:10131000D050503053EC102BC0E9002304F6346158
:1013200004F2347013F014FA04F63C6013F034FA4B
:1013300041F65821085104F63C6104F23C7013F068
:10134000BCFA04F6446013F0CCF951EC100B13F026
:10135000CBFA41F65C21085104F6446104F2447072
:1013600013F0F6F914F5B45000220023C0E900236D
:1013700004F5B050883000220023C0E9002314F5A2
:101380002B6013F0AEF904F5B050903053EC102BF5
:10139000C0E9002304F6882012F01EFB059005A882
:1013A00011F0AAFD04F5A852A832C2E9000114F513
:1013B0003A6114F5936013F06FFA04F6A83114F54E
:1013C000946013F069FA14F53B6114F5956013F01D
:1013D00063FA04F6B83114F5966013F05DFA14F56B
:1013E0003C6114F5976013F057FA04F6C83114F510
:1013F000986013F051FA14F53D6114F5996013F0FB
:101400004BFA04F6D83114F59A6013F045FA14F546
:101410003E6114F59B6013F03FFA04F6E83114F5D1
:101420009C6013F039FA14F53F6114F59D6013F0D8
:1014300033FA04F6F83114F59E6013F02DFA14F522
:10144000406114F59F6013F005FA04F5C850B830F8
:10145000D0E9002304F59850F8300EF0B4F804F504
:10146000C850B830D0E9002314F5A3500EF0ABF803
:1014700004F5C850B830D0E9002304F5A050C830B6
:101480000DF0F6FF04F60C4104F2C03013F060F9E1
:1014900004F5C850B830D0E9002304F5C050E83056
:1014A00010F09CF814F56D6104F6B87013F048FA6A
:1014B00014F5726104F6F87013F068FA14F57761A8
:1014C00004F6F87013F064FA04F6EC7104F6F870A0
:1014D00013F060FA04F6D47104F6F87013F05AFAB7
:1014E00014F57E6104F6F87013F054FA1420049099
:1014F00004A811F001FD02000B0004F6F87013F0CF
:1015000052FA1420039003A811F0F6FC02000B001D
:1015100004F6F87013F04CFA4FF4FA70029002A837
:1015200011F0EAFC02000B0004F6F87013F045FA23
:101530003220019001A811F0DFFC02000B0004F63C
:10154000F87013F044FA782013F044FA0500231DD4
:1015500004F6EC7204F6B871280015F067F9010082
:1015600004F5C050D83015F070FA002104F5C050D1
:1015700090300EF06AFC13F040F80E4915F07AFA3C
:1015800013F03BF8082115F069FB0B4915F0C3FB7C
:10159000200040B0BDEC048B70BD00009A99999971
:1015A0009999D93F9999A93F000039400000F0BFAF
:1015B0009999B93F3CFA0508DBB6050810B5040057
:1015C000206800F2881114F572600DF0AFF9206800
:1015D00000F2981114F572600DF0C7F914F57260FD
:1015E0000DF0EBF910BD10B50400206800F2B01149
:1015F00014F577600DF088FB14F577600DF086FB2D
:1016000010BD00002DE9F0472DED108BADF5976D65
:101610000600306812F0E8FE16F503600AF076FD69
:1016200006F6F8000CF009FA06F5805088300DF047
:10163000BFFD06F58050D0300EF07AFB06F58850DD
:1016400070300EF039FE06F59850F8300DF0EFFFCF
:1016500016F5A3500DF0EBFF06F5A050C8300DF0C5
:101660002DFF06F5C05090300EF004FC06F5C0507A
:10167000D83015F053FB15F063F916F56D600CF0DA
:101680005BFF06F6F87015F06BFB06F5C050E8300E
:101690000FF0E9FF16F5D35010F039FB06F5F050C6
:1016A000503011F0CDF806F6D47015F08DFC0028FE
:1016B00001D0012000E00020C0B2002805D00021A8
:1016C00006F5C05090300EF0C0FB06F59850B830CB
:1016D00011F0EFFCC0B2002801F03D810021301D67
:1016E00015F078FC300007F0ABF841F258718855DE
:1016F000300007F010FA41F290718855300007F081
:1017000075FB41F2C8718855300007F0D6FC16F51C
:10171000C0510870300007F039FE41F63801885595
:10172000300007F03AF816F5A9500078012800F0CB
:10173000D58006F2B41012F0D4FFB0EE408AF0EE7D
:10174000608A06F58050D0300EF030FA53EC182B3A
:1017500051EC100B11F06EFE01D0012000E00020D2
:10176000C0B200280DD006F58050D0300EF01EFA21
:1017700051EC100BCDE93A013AA906F2B41012F07F
:10178000DAFF06F2BC1013F007F8040006F58050EB
:10179000D0300EF057FA844201D0012000E0002042
:1017A000C0B200280AD006F58050D0300EF04AFAB8
:1017B000119011A906F2BC1013F03FF806F2A81020
:1017C00012F0C8F9040006F58050D0300EF098F8F9
:1017D000C0B2844201D0012000E00020C0B2002845
:1017E0000AD006F58050D0300EF08AF80100C9B258
:1017F00006F2A81013F00BF806F2981012F099F9FF
:10180000040006F58050D0300EF022FAE4B2C0B2E7
:10181000844201D0012000E00020C0B200280BD09B
:1018200006F58050D0300EF013FA8DF8400010A964
:1018300006F2981012F048FF06F25C1012F08AF9D6
:10184000040006F59850F8300DF0ACFE844201D04B
:10185000012000E00020C0B2002809D006F5985011
:10186000F8300DF09FFE010006F25C1012F0CFFF81
:1018700006F2681012F06EF9040016F5A3500DF090
:1018800091FE844201D0012000E00020C0B2002877
:1018900008D016F5A3500DF085FE010006F2681081
:1018A00012F0B5FF06F2381012F054F9040006F5F4
:1018B000A050C8300DF0D1FD844201D0012000E0DD
:1018C0000020C0B2002809D006F5A050C8300DF0A5
:1018D000C4FD010006F2381012F099FF06F5885099
:1018E000703015F093FBC0B2002856D016F5C251E7
:1018F00006F5885070300FF0E8FD06F5C05048300E
:10190000D0E9002300202C4911F0BAFC41EC100B67
:1019100051EC100B31F0004141EC100B51EC100B6D
:10192000CDE9380138A916F58C6012F004FF06F5F0
:10193000C051503116F5926012F07FFF06F5C0518C
:10194000583116F58A6012F0F6FE16F5C350D0E94C
:1019500000230020184911F093FCCDE9360136A987
:1019600016F58B6012F0E7FE16F5A95000780028F6
:1019700013D041F22150805D02280ED016F5B550EB
:1019800016F5C251D1E90023C0E9002306F5C05184
:10199000703106F2F83012F0CEFE06F2E41012F0CA
:1019A000A0FE53EC102B16F5B554D4E9000111F04C
:1019B00041FD03D0012002E080842E410020C0B20E
:1019C00000281DD016F5B55106F2E41012F0B3FE52
:1019D00016F5B550D0E9002343EC102B16F5B450A2
:1019E00015F0B5FD06F5B050983053EC102BC0E95A
:1019F000002306F5B051983106F2483012F09BFEF4
:101A000006F2602012F0A6F8002801D0012000E0C4
:101A10000020C0B2002825D0002106F2602012F07C
:101A2000F6FE16F5B45016F5B551D1E90023C0E91C
:101A3000002306F5B050883016F5B551D1E90023E2
:101A4000C0E9002306F5B050983016F5B551D1E93C
:101A50000023C0E9002306F5B051983106F2483062
:101A600012F069FE16F1900012F063F816F5A95114
:101A70000978C0B2884201D0012000E00020C0B245
:101A800000280AD016F5A95000788DF80F000DF146
:101A90000F0116F1900012F017FE06F2F41012F08A
:101AA00020FE53EC102B06F5B054A834D4E9000105
:101AB00011F0C0FC01D0012000E00020C0B20028DD
:101AC00006D006F5B051A83106F2F41012F033FE3C
:101AD00016F5A950007800282CD141F22150805DE4
:101AE000022827D116F5A26012F034F8012801D19E
:101AF000012000E00020C0B200280CD0002116F523
:101B0000A26012F084FE002106F2045012F07FFE63
:101B1000300005F0C5FE06F2045012F01BF8002854
:101B200001D1012000E00020C0B2002802D0300026
:101B300005F02BFF16F11C0011F0FBFF040006F668
:101B4000582011F049FFE4B2844201D0012000E0A6
:101B50000020C0B2002809D016F11C0011F0E9FFE6
:101B60000F900FA906F6582012F044FE16F1B400AB
:101B700012F0B7FDB0EE408AF0EE608A16F52660EE
:101B800012F0AFFD53EC182B51EC100B11F052FC7E
:101B900001D0012000E00020C0B2002805D016F1DD
:101BA000B40116F5266012F0D3FD16F1BC0012F058
:101BB00098FDB0EE408AF0EE608A06F6682012F0DA
:101BC00090FD53EC182B51EC100B11F033FC01D0AD
:101BD000012000E00020C0B2002805D016F1BC01B1
:101BE00006F6682012F0B4FD16F1D40012F079FD6B
:101BF000B0EE408AF0EE608A16F5396012F071FDA1
:101C000053EC182B51EC100B11F014FC01D00120F7
:101C100000E00020C0B2002805D016F1D40116F56E
:101C2000396012F095FD16F1DC0012F05AFDB0EEAD
:101C3000408AF0EE608A06F6983012F052FD53ECBE
:101C4000182B51EC100B11F0F5FB01D0012000E036
:101C50000020C0B2002805D016F1DC0106F698304D
:101C600012F076FD06F2981011F063FF040016F5ED
:101C7000276011F0B1FEE4B2844201D0012000E0FF
:101C80000020C0B2002809D006F2981011F051FFD0
:101C90000E900EA916F5276012F0ACFD06F2A0100A
:101CA00011F047FF040006F6782011F095FEE4B22B
:101CB000844201D0012000E00020C0B2002809D0F9
:101CC00006F2A01011F035FF0D900DA906F6782050
:101CD00012F090FD06F2FC1011F07EFE040016F5E5
:101CE000286011F079FE844201D0012000E000203C
:101CF000C0B2002805D006F2FC1116F5286012F0DB
:101D00003BFD06F2042011F067FE040006F6882071
:101D100011F062FE844201D0012000E00020C0B238
:101D2000002805D006F2042106F6882012F024FDD2
:101D300006F20C2012F0D5FCB0EE408AF0EE608A7C
:101D400016F5296012F0CDFC53EC182B51EC100B5A
:101D500011F070FB01D0012000E00020C0B200288B
:101D600005D006F20C2116F5296012F0F1FC06F2FE
:101D7000142012F011FD040006F6982012F00CFD5C
:101D8000844201D0012000E00020C0B2002805D02C
:101D900006F2142106F6982012F08FFD06F21C20A0
:101DA00011F01AFE040016F52A6011F015FE8442A7
:101DB00001D0012000E00020C0B2002805D006F2CA
:101DC0001C2116F52A6012F0D7FC06F2242011F02F
:101DD00003FE040006F6A82011F0FEFD844201D0A7
:101DE000012000E00020C0B2002805D006F2242126
:101DF00006F6A82012F0C0FC06F2403012F071FC8A
:101E000053EC102B06F5B0549034D4E9000111F0D6
:101E100011FB01D0012000E00020C0B2002810D04A
:101E200006F2403012F05DFC06F5B050903053ECF5
:101E3000102BC0E9002306F2403116F52B6012F09A
:101E400087FC06F2503011F0C7FD040006F6B820FA
:101E500011F0C2FD844201D0012000E00020C0B298
:101E6000002805D006F2503106F6B82012F084FCA6
:101E700006F2583011F0B0FD040016F52C6011F098
:101E8000ABFD844201D0012000E00020C0B2002858
:101E900005D006F2583116F52C6012F06DFC06F2F2
:101EA000603011F099FD040006F6C82011F094FD91
:101EB000844201D0012000E00020C0B2002805D0FB
:101EC00006F2603106F6C82012F056FC06F27830B1
:101ED00012F007FCB0EE408AF0EE608A16F52E6034
:101EE00012F0FFFB53EC182B51EC100B11F0A2FA7F
:101EF00001D0012000E00020C0B2002805D006F289
:101F0000783116F52E6012F023FC06F2803012F0C4
:101F1000E8FBB0EE408AF0EE608A06F6E82012F0A8
:101F2000E0FB53EC182B51EC100B11F083FA01D0AD
:101F3000012000E00020C0B2002805D006F2803168
:101F400006F6E82012F004FC16F1600011F002FE23
:101F5000040006F6F82011F0FDFD844201D00120B6
:101F600000E00020C0B2002805D016F1600106F69E
:101F7000F82012F06FFC06F28C1011F0EBFD04005B
:101F800006F6043011F0E6FD844201D0012000E0A5
:101F90000020C0B2002805D006F28C1106F60430ED
:101FA00012F058FC06F2542011F0D4FD040016F58E
:101FB000316011F0CFFD844201D0012000E000200B
:101FC000C0B2002805D006F2542116F5316012F097
:101FD00041FC06F2782011F0BDFD040006F61C302D
:101FE00011F0B8FD844201D0012000E00020C0B211
:101FF000002805D006F2782106F61C3012F02AFCE3
:1020000006F2883012F0C8FB040016F5366012F0B4
:10201000C3FB844201D0012000E00020C0B20028B0
:1020200005D006F2883116F5366012F046FC06F24D
:10203000903012F0B1FB040006F6683012F0ACFBF1
:10204000844201D0012000E00020C0B2002805D069
:1020500006F2903106F6683012F02FFC06F2983046
:1020600012F09AFB040016F5376012F095FB8442DB
:1020700001D0012000E00020C0B2002805D006F207
:10208000983116F5376012F018FC06F2A03011F006
:10209000A3FC040006F6783011F09EFC844201D0C7
:1020A000012000E00020C0B2002805D006F2A031D7
:1020B00006F6783012F060FB06F2A83012F011FB41
:1020C000B0EE408AF0EE608A16F5386012F009FB37
:1020D00053EC182B51EC100B11F0ACF901D001208E
:1020E00000E00020C0B2002805D006F2A83116F5A5
:1020F000386012F02DFB06F2842011F02BFD040055
:1021000006F6283011F026FD844201D0012000E0BF
:102110000020C0B2002805D006F2842106F628303F
:1021200012F098FB06F2103011F014FD040016F5C1
:10213000346011F00FFD844201D0012000E0002046
:10214000C0B2002814D006F2103116F5346012F037
:1021500081FB06F2103011F0FDFC002801D00121B6
:1021600000E00021C9B206F58850703012F091FBF2
:1021700006F2EC2011F0EEFC040006F6343011F00B
:10218000E9FC844201D0012000E00020C0B2002818
:1021900005D006F2EC2106F6343012F05BFB06F2B5
:1021A000B03012F09EFAB0EE408AF0EE608A06F689
:1021B000883012F096FA53EC182B51EC100B11F0FA
:1021C00039F901D0012000E00020C0B2002805D07C
:1021D00006F2B03106F6883012F0BAFA06F2B420F0
:1021E00011F0A7FC040006F6583011F0A2FCE4B28E
:1021F000C0B2844201D0012000E00020C0B200281B
:1022000005D006F2B42106F6583012F045FB06F26E
:10221000C83012F066FAB0EE408AF0EE608A06F638
:10222000144012F05EFA53EC182B51EC100B11F025
:1022300001F901D0012000E00020C0B2002805D043
:1022400006F2C83106F6144012F082FA06F2D030D7
:1022500012F047FAB0EE408AF0EE608A06F61C40B3
:1022600012F03FFA53EC182B51EC100B11F0E2F87E
:1022700001D0012000E00020C0B2002805D006F205
:10228000D03106F61C4012F063FA06F2D83012F094
:1022900028FAB0EE408AF0EE608A06F6244012F08A
:1022A00020FA53EC182B51EC100B11F0C3F801D0AD
:1022B000012000E00020C0B2002805D006F2D8318D
:1022C00006F6244012F044FA06F2E83012F009FA59
:1022D000B0EE408AF0EE608A06F62C4012F001FA69
:1022E00053EC182B51EC100B11F0A4F801D0012085
:1022F00000E00020C0B2002805D006F2E83106F662
:102300002C4012F025FA06F2F03012F0EAF9B0EEA5
:10231000408AF0EE608A06F6344012F0E2F953EC9F
:10232000182B51EC100B11F085F801D0012000E0C2
:102330000020C0B2002805D006F2F03106F6344085
:1023400012F006FA16F5816012F0CBF9B0EE408A71
:10235000F0EE608A06F63C4012F0C3F953EC182BFD
:1023600051EC100B11F066F801D0012000E00020C4
:10237000C0B2002805D016F5816106F63C4012F087
:10238000E7F916F5866011F027FB040006F64440D5
:1023900011F022FB844201D0012000E00020C0B2F5
:1023A000002805D016F5866106F6444012F0E4F9DF
:1023B00016F5876012F095F953EC102B16F5D154F1
:1023C000D4E9000111F036F801D0012000E000202E
:1023D000C0B2002827D016F5876012F082F916F5F2
:1023E000D15053EC102BC0E9002316F5D150D0E9A1
:1023F000002343EC102B300005F054FD51EC100B82
:1024000006F5D0522832C2E9000106F5D051283134
:1024100006F64C4012F08FF906F5D051283116F52A
:10242000886012F088F916F5886012F05AF953ECBA
:10243000102B06F5D0542834D4E9000110F0FAFF2F
:1024400001D0012000E00020C0B2002827D016F5FE
:10245000886012F046F906F5D050283053EC102B66
:10246000C0E9002306F5D051283106F64C4012F0A1
:1024700062F906F5D0502830D0E9002343EC102B48
:10248000300005F0A7FD51EC100B16F5D152C2E952
:10249000000116F5D15116F5876012F04CF916F5CA
:1024A000896012F01EF9B0EE408AF0EE608A06F6FE
:1024B000544012F016F953EC182B51EC100B10F09D
:1024C000B9FF01D0012000E00020C0B2002810D0E8
:1024D00016F5896106F6544012F03AF916F589604E
:1024E00012F0FFF806F5D050303053EC102BC0E955
:1024F000002316F58E6012F0F4F8B0EE408AF0EE8C
:10250000608A06F61C6012F0ECF853EC182B51ECC4
:10251000100B10F08FFF01D0012000E00020C0B2AE
:10252000002829D016F58E6106F61C6012F010F90D
:1025300016F58E6012F0D5F806F5D050383053EC11
:10254000102BC0E9002306F5A050C8300CF085FF21
:10255000012801D1012000E00020C0B200280BD0EA
:1025600006F5D0503830D0E9002343EC102B06F5A7
:10257000885070300EF0C4FF16F58F6012F0B1F87D
:10258000B0EE408AF0EE608A06F6246012F0A9F8F8
:1025900053EC182B51EC100B10F04CFF01D0012024
:1025A00000E00020C0B2002827D016F58F6106F6A3
:1025B000246012F0CDF816F58F6012F092F816F53F
:1025C000D25053EC102BC0E9002306F5A050C830C0
:1025D0000CF043FF002801D1012000E00020C0B230
:1025E00000280AD016F5D250D0E9002343EC102B76
:1025F00006F5885070300EF083FF06F2EC2011F0E3
:10260000A9FA040006F6343011F0A4FA844201D08D
:10261000012000E00020C0B2002805D006F2EC2125
:1026200006F6343012F016F906F22C7012F059F852
:10263000B0EE408AF0EE608A06F62C6012F051F897
:1026400053EC182B51EC100B10F0F4FE01D00120CC
:1026500000E00020C0B2002810D006F22C7106F66F
:102660002C6012F075F806F22C7012F03AF806F5AC
:10267000D050483053EC102BC0E9002306F23470E0
:1026800012F02FF8B0EE408AF0EE608A06F6346061
:1026900012F027F853EC182B51EC100B10F0CAFE77
:1026A00001D0012000E00020C0B2002810D006F2C6
:1026B000347106F6346012F04BF806F2347012F002
:1026C00010F806F5D050503053EC102BC0E9002321
:1026D00006F23C7012F060F8040006F63C6012F05E
:1026E0005BF8844201D0012000E00020C0B2002845
:1026F0000CD006F23C7106F63C6012F0DEF806F2F1
:102700003C7012F049F841F65821885106F24470A5
:1027100011F0E7FFB0EE408AF0EE608A06F6446002
:1027200011F0DFFF53EC182B51EC100B10F082FE70
:1027300001D0012000E00020C0B2002810D006F235
:10274000447106F6446012F003F806F2447011F08A
:10275000C8FF51EC100B12F0C7F841F65C2188510C
:1027600042F27000805D012809D043D303281AD0BB
:102770000FD305282AD01FD3062831D03AE00120F4
:102780008DF80E000DF10E0106F2283011F09CFFBD
:1027900038E002208DF80D000DF10D0106F2283011
:1027A00011F092FF2EE003208DF80C0003A906F231
:1027B000283011F089FF25E004208DF80B000DF181
:1027C0000B0106F2283011F07FFF1BE005208DF889
:1027D0000A000DF10A0106F2283011F075FF11E030
:1027E00006208DF809000DF1090106F2283011F0DC
:1027F0006BFF07E000208DF8080002A906F22830E0
:1028000011F062FF16F53A6116F5936014F028FF97
:1028100006F6A83116F5946014F022FF16F53B6118
:1028200016F5956014F01CFF06F6B83116F59660A3
:1028300014F016FF16F53C6116F5976014F010FFC2
:1028400006F6C83116F5986014F00AFF16F53D61DA
:1028500016F5996014F004FF06F6D83116F59A6063
:1028600014F0FEFE16F53E6116F59B6014F0F8FEBE
:1028700006F6E83116F59C6014F0F2FE16F53F619D
:1028800016F59D6014F0ECFE06F6F83116F59E6024
:1028900014F0E6FE16F5406116F59F6014F0FCFE9C
:1028A00006F5C050E8300EF090FEC0B2010006F20E
:1028B0009C2011F0ACFF06F2C03011F012FFB0EE18
:1028C000408AF0EE608A06F60C4011F00AFF53ECE5
:1028D000182B51EC100B10F0ADFD01D0012000E0E1
:1028E0000020C0B2002805D006F2C03106F60C4028
:1028F00011F02EFF06F50050203010F0E7F906F534
:102900008850703014F0E2FE012801D1012000E06F
:102910000020C0B2002805D0002106F2A82011F046
:1029200076FF04E0012106F2A82011F070FF06F204
:102930001C3011F00FF9012801D1012000E0002026
:10294000C0B2002807D0002106F21C3011F05FFF52
:10295000300007F0CBFB06F59850C83010F0A9FB0B
:10296000C0B2002815D041F2F030805D002804D0BC
:102970003068C83014F081FF03E03068C83014F0CC
:1029800083FF41F2F030805D90F0010041F2F031C0
:10299000885506F5B050683010F08BFBC0B20028A7
:1029A00039D016F5B350007800280DD041F25060B0
:1029B0008059401C41F25061885106F5B0515031A8
:1029C00006F22C2011F016FF16F5A9500078022807
:1029D00021D141F258608059401C41F25861885120
:1029E00041F25C608259002141F25C608059401ED6
:1029F00015F0B3F841F25C61885106F5B0515831D9
:102A000006F23C2011F0F6FE06F5B0515C3106F2FC
:102A1000442011F0EFFE16F5A9500078002809D0E7
:102A2000022801F07D82C0F05081032801F01C8053
:102A300004F01EBF41F22150805D002804D002281E
:102A400000F0A78074D33EE111F0D7FDDFF8781ACB
:102A500014F061F9002106F59850F8300CF09BFD58
:102A6000002116F5A3500CF096FD012106F5A050AB
:102A7000C8300CF0EBFC06F5D0503830D0E900231C
:102A800043EC102B06F5885070300EF039FD06F53A
:102A90008050D03015F068F806F58050D0300CF03A
:102AA000E7FE9FED210B06F58050D0300CF0D0FFF3
:102AB00006F58850703015F05BF8002116F17800AB
:102AC00011F0A5FE16F5AE5106F21C2011F092FE93
:102AD00006F59850D83010F0A5FA41F2B060002108
:102AE0008155002106F5C050E8300EF056FD00215A
:102AF00006F2902011F08BFE41F6681000218155FE
:102B0000002106F2BC2011F082FE002106F2D42042
:102B100011F07DFE002106F2E02011F078FE41F276
:102B2000215001218155CEE000000000000000008E
:102B300006F59850D83010F080FAC0B2002827D09F
:102B400011F05BFDDFF8801914F0E5F811F055FD88
:102B5000DFF8781913F08EFFDFF86C1914F0DBF84A
:102B600011F04BFDDFF8681913F084FFDFF85819F6
:102B700014F0D1F811F041FDDFF8501913F07AFF8D
:102B8000DFF8441914F0C7F841F2215002218155B1
:102B900099E016F1780010F0DDFF012801D1012045
:102BA00000E00020C0B2002841D0002116F17800DA
:102BB00011F02DFE002116F1840011F028FE16F10F
:102BC0000C0010F0B6FFC0B2012804D025D30328B2
:102BD0001AD009D321E016F5A9500121017041F264
:102BE0002150002181556EE006F5C050D83014F018
:102BF00095F813F07BFE16F5A9500221017041F201
:102C00002150002181555EE016F5A9500321017085
:102C100041F221500021815555E000208DF8070038
:102C20000DF1070116F10C0011F04EFD4BE006F519
:102C30008850703014F04AFD012801D1012000E0D5
:102C40000020C0B200283ED041F2B060805D002874
:102C500021D016F5C250D0E9002343EC102B3000F0
:102C600006F0FFFC51EC100B06F5B052A832C2E999
:102C7000000106F5B851283106F5885070300EF085
:102C800085F806F5885070300DF0C4F941F2B06057
:102C90000021815517E016F5B55016F5C251D1E95E
:102CA0000023C0E9002316F5BB5106F588507030AB
:102CB0000EF06CF806F5885070300DF0ABF941F26B
:102CC000B0600121815504F0D3BD16F5B1500078F4
:102CD000002814D0022800F08F806FD3042800F061
:102CE0001D83C0F0E182062800F0A483C0F04D836C
:102CF000082800F09B86C0F03B8600F0B3BE11F0C0
:102D00007CFCDFF8C41714F006F811F076FCDFF84D
:102D1000BC1713F0AFFEDFF8B01713F0FCFF11F093
:102D20006CFCDFF8041D13F0A5FEDFF89C1713F010
:102D3000F2FF11F062FCDFF8941713F09BFEDFF84E
:102D4000881713F0E8FF06F5C850B830D0E9002323
:102D500006F59850F8300CF036FC06F5C850B8303F
:102D6000D0E9002316F5A3500CF02DFC06F5C85051
:102D7000B830D0E9002306F5A050C8300CF078FB3D
:102D800006F5C850B830D0E9002306F58050D030A1
:102D90000CF064FF06F5C850B830D0E9002306F502
:102DA000C050E8300EF01AFC41F2B06000218155AD
:102DB00016F5B1500121017000F054BE06F588509F
:102DC000703014F083FC012801D1012000E00020C4
:102DD000C0B200280ED006F5B851983106F58850DB
:102DE00070300DF0D3FF300004F0A1FF16F5B150A4
:102DF0000221017000F036BE16F16C0010F0AAFE40
:102E0000012801D1012000E00020C0B2002816D026
:102E1000002116F16C0011F0FAFC16F5B1500021FA
:102E2000017016F5A9500021017000208DF80600F0
:102E30000DF1060116F10C0011F046FC33E206F22A
:102E40005C1010F087FE040006F59850F8300CF086
:102E5000A9FB844201D0012000E00020C0B200287C
:102E600009D006F25C1010F075FE010006F59850CE
:102E7000F8300CF090FB06F2681010F06BFE0400C6
:102E800016F5A3500CF08EFB844201D0012000E027
:102E90000020C0B2002808D006F2681010F05AFED8
:102EA000010016F5A3500CF076FB06F2381010F076
:102EB00051FE040006F5A050C8300CF0CEFA844252
:102EC00001D0012000E00020C0B200282DD006F281
:102ED000381010F03FFE010006F5A050C8300CF08D
:102EE000B5FA06F2381010F035FE012801D10120A4
:102EF00000E00020C0B200280CD006F5D0503830D9
:102F0000D0E9002343EC102B06F5885070300EF00A
:102F1000F7FA0AE016F5D250D0E9002343EC102B63
:102F200006F5885070300EF0EBFA06F2A81010F09B
:102F300011FE040006F58050D0300CF0E1FCC0B268
:102F4000844201D0012000E00020C0B2002820D03F
:102F500006F2A81010F0FEFD002801D0012000E0CC
:102F60000020C0B200280AD006F58050D0300CF006
:102F70007FFC06F58850703014F0FEFD09E006F580
:102F80008050D0300CF098FC06F58850703014F06A
:102F9000F3FD06F2BC1011F0FFFB040006F58050B3
:102FA000D0300CF04FFE844201D0012000E0002020
:102FB000C0B200283CD006F2BC1011F0EDFB11F0BD
:102FC00001FC41EC100B06F58050D0300CF040FDB8
:102FD00006F58850703014F0CFFD06F58050D030E3
:102FE0000CF0E4FD51EC100BCDE9340134A906F2EC
:102FF000B41011F0A0FB06F2BC1011F0CDFB0400E0
:1030000006F58050D0300CF01DFE844201D0012026
:1030100000E00020C0B200280AD006F58050D03071
:103020000CF010FE0C900CA906F2BC1011F005FC7F
:1030300006F2B41011F055FBB0EE408AF0EE608A53
:1030400006F58050D0300CF0B1FD53EC182B51EC4C
:10305000100B10F0EFF901D0012000E00020C0B209
:10306000002840D006F2B41011F03BFB06F580506A
:10307000D0300CF05DFC06F58850703014F07CFD0B
:1030800006F58050D0300CF0DDFD0B900BA906F258
:10309000BC1011F0D2FB06F2B41011F022FBB0EE1E
:1030A000408AF0EE608A06F58050D0300CF07EFD4C
:1030B00053EC182B51EC100B10F0BCF901D001208F
:1030C00000E00020C0B200280DD006F58050D030BE
:1030D0000CF06CFD51EC100BCDE9320132A906F277
:1030E000B41011F028FB06F2981010F022FD040035
:1030F00006F58050D0300CF0ABFDE4B2C0B2844293
:1031000001D0012000E00020C0B200280FD006F25C
:10311000981010F00EFD0100C9B206F58050D030B5
:103120000CF00CFD06F58850703014F025FD41F2CE
:10313000C870805D00280BD041F2C8700021815515
:1031400006F5B851983106F5885070300DF01EFE26
:1031500006F2842010F0FEFC002801D0012000E0DF
:103160000020C0B2002805D006F58850703014F059
:1031700007FD04E006F58850703014F0F9FC06F203
:10318000E83011F0AEFA53EC102B06F5C854A83411
:10319000D4E9000110F04EF901D0012000E0002038
:1031A000C0B200280DD006F2E83011F09AFA06F508
:1031B000C850A83053EC102BC0E90023300004F0B5
:1031C000B6FD06F2F82010F0C5FC012801D101205F
:1031D00000E00020C0B2002809D006F58850703009
:1031E00014F0D2FC002106F2F82011F010FB06F5D5
:1031F0008850703014F06AFA012801D1012000E0F3
:103200000020C0B2002804D006F5885070300CF0C1
:1032100001FF06F26C2010F09DFC012801D1012075
:1032200000E00020C0B2002809D0002106F26C2086
:1032300011F0EDFA16F5B150032101700FE006F21E
:10324000BC2010F087FC012801D1012000E0002003
:10325000C0B2002803D016F5B1500521017000243A
:1032600006F2902010F076FC002801D0012000E04A
:103270000020C0B2002800D0012406F5C050E8307C
:103280000EF0A3F9E4B2C0B2844201D0012000E004
:103290000020C0B2002806D02100C9B206F5C050F7
:1032A000E8300EF07AF9DDE306F58850703014F05E
:1032B0000DFA012801D1012000E00020C0B2002851
:1032C0002BD006F2842010F045FC002801D001200C
:1032D00000E00020C0B2002805D006F5885070300C
:1032E00014F04EFC04E006F58850703014F048FCF1
:1032F00041F224500121815116F11C0010F019FCFB
:1033000041F22851C0B2885106F5885070300CF057
:1033100081FE16F5B15004210170A3E306F5885033
:10332000703014F0D3F9012801D1012000E0002011
:10333000C0B2002828D041F22450805941F22851CF
:103340008959884212D241F224508059401C41F2DE
:103350002451885141F2245080598DF805000DF117
:10336000050116F1A00011F0AFF908E006F588504C
:10337000703014F0FDFB16F5B1500221017006F516
:10338000885070300CF046FE6CE341F66810012165
:10339000815506F2C83011F0A4F906F5C850703016
:1033A00053EC102BC0E9002306F2D03011F099F94C
:1033B00006F5C850783053EC102BC0E9002306F214
:1033C000D83011F08EF916F5CC5053EC102BC0E923
:1033D000002306F2E83011F084F906F5C850A83051
:1033E00053EC102BC0E9002306F2F03011F079F90C
:1033F00006F5C850B03053EC102BC0E9002316F589
:10340000816011F06EF916F5CE5053EC102BC0E927
:103410000023300004F08BFC11F0EFF8DFF8401AC5
:1034200013F028FB284913F076FC16F5B15006215D
:10343000017017E316F16C0010F08CFB012801D12C
:10344000012000E00020C0B200281ED0002116F1AB
:103450006C0011F0DCF916F5B1500021017011F08B
:10346000CCF8DFF8001A13F005FB174913F053FCF2
:1034700016F5A9500021017000208DF8040001A963
:1034800016F10C0011F020F971E206F2BC2010F0E8
:1034900061FB002801D1012000E00020C0B200281B
:1034A00018D016F5B1500221017041F668100021C4
:1034B000815511F0A2F8DFF8AC1913F0DBFA0249DC
:1034C00013F029FC53E200BFDBB6050800CE050867
:1034D00024CE050806F2B41011F003F9B0EE408ACC
:1034E000F0EE608A06F58050D0300CF05FFB53ECB4
:1034F000182B51EC100B0FF09DFF01D0012000E0C4
:103500000020C0B200280DD006F58050D0300CF05D
:103510004DFB51EC100BCDE9300130A906F2B4108F
:1035200011F009F906F2BC1011F036F9040006F5A5
:103530008050D0300CF086FB844201D0012000E0A6
:103540000020C0B200280AD006F58050D0300CF020
:1035500079FB0A900AA906F2BC1011F06EF941F24B
:10356000C870805D00280ED041F2C87000218155DE
:1035700006F5B851983106F5885070300DF006FC0C
:10358000300004F0D4FB06F2C83011F0AAF853EC76
:10359000102B06F5C8547034D4E900010FF04AFF2F
:1035A00001D0012000E00020C0B200280DD006F2BA
:1035B000C83011F096F806F5C850703053EC102B57
:1035C000C0E90023300004F0B2FB06F2D03011F065
:1035D00088F853EC102B06F5C8547834D4E9000170
:1035E0000FF028FF01D0012000E00020C0B2002829
:1035F0000DD006F2D03011F074F806F5C8507830CE
:1036000053EC102BC0E90023300004F090FB06F2CD
:10361000D83011F066F853EC102B16F5CC54D4E9E1
:1036200000010FF007FF01D0012000E00020C0B230
:1036300000280CD006F2D83011F053F816F5CC5013
:1036400053EC102BC0E90023300004F070FB06F2AD
:10365000E83011F046F853EC102B06F5C854A834A6
:10366000D4E900010FF0E6FE01D0012000E00020C7
:10367000C0B200280DD006F2E83011F032F806F59D
:10368000C850A83053EC102BC0E90023300004F0E0
:103690004EFB06F2F03011F024F853EC102B06F537
:1036A000C854B034D4E900010FF0C4FE01D00120A9
:1036B00000E00020C0B200280DD006F2F03011F07A
:1036C00010F806F5C850B03053EC102BC0E90023B9
:1036D000300004F02CFB16F5816011F002F853EC79
:1036E000102B16F5CE54D4E900010FF0A3FE01D043
:1036F000012000E00020C0B200280CD016F5816047
:1037000010F0EFFF16F5CE5053EC102BC0E900235C
:10371000300004F00CFB16F5866010F05DF9040033
:1037200016F5CF5014F034FA844201D0012000E0A5
:103730000020C0B2002811D016F5866010F04CF9B8
:10374000010016F5CF5014F028FA16F5866010F037
:1037500043F9010016F5CF5014F049FA002406F29F
:10376000902010F0F7F9002801D0012000E000209F
:10377000C0B2002800D0012406F5C050E8300DF09A
:1037800024FFE4B2C0B2844201D0012000E0002056
:10379000C0B2002806D02100C9B206F5C050E830FA
:1037A0000DF0FBFE06F2D42010F0D4F9012801D16F
:1037B000012000E00020C0B2002812D0002106F253
:1037C000D42011F024F810F018FFDFF80C1D13F0CE
:1037D00051F9DFF8081D13F09EFA16F5B1500721D4
:1037E000017006F58850703013F070FF012801D188
:1037F000012000E00020C0B2002800F0B88006F5EB
:10380000885070300CF006FC16F5B550D0E9002356
:1038100043EC102B06F5C850883013F0DBFE51EC5A
:10382000100BCDE9120112A906F2F83010F083FF57
:1038300006F5D0523032D2E90001DDE9122314F04E
:10384000DBF941EC100B06F5C850103013F026FCE4
:10385000B0EE408AF0EE608AB0EE480AF0EE680AF8
:1038600006F58050D0300CF063F8B0EE480AF0EE68
:10387000680A06F5C850C83013F069FE300004F03D
:10388000A9FB51EC100BCDE92E012EA916F5806095
:1038900010F051FF06F5C851583106F2E03010F033
:1038A0004AFFB0EE480AF0EE680A16F5CF5014F061
:1038B00063FA16F5CF5014F0DBFA300004F08AFBFF
:1038C00051EC100BCDE92C012CA916F5826010F0FB
:1038D00032FF16F5CF5014F0D3FA300004F07AFB23
:1038E00051EC100BCDE92A012AA916F5836010F0DE
:1038F00022FF16F5CF5014F0BBFA51EC100BCDE9B6
:10390000280128A916F5846010F015FF16F5CF5090
:1039100014F0B6FA51EC100BCDE9260126A916F5E4
:10392000856010F008FF16F5CF5014F0A9FAB0EE3C
:10393000408AF0EE608A16F5876010F0D2FE51ECF6
:10394000180B53EC102B14F0C5FA01D2012000E043
:103950000020C0B2002805D0012106F2E02010F0BE
:1039600056FF04E0002106F2E02010F050FF79E05D
:1039700006F58050D0300CF0B9F9C0B2002801D063
:10398000012000E00020C0B2002848D09FED240BA9
:1039900006F58050D0300CF05BF8300004F0C7F929
:1039A00006F5C850583000220023C0E9002316F560
:1039B000CA5000220023C0E9002306F5C850383061
:1039C00000220023C0E9002306F5C8504830002239
:1039D0000023C0E9002306F5C850903000220023E0
:1039E000C0E9002306F5C850983000220023C0E942
:1039F000002306F5C850C83000220023C0E9002388
:103A000006F5C850D03000220023C0E9002316F587
:103A1000CF5014F076FA16F5B1500821017021E06C
:103A2000000000000000000048CE050806F58050A8
:103A3000D0300CF05BF9C0B2002801D0012000E0CA
:103A40000020C0B200280DD010F0D7FDDFF8901A8A
:103A500013F010F8DFF8841A13F05DF916F5B15081
:103A60000621017003F004BF41F22160805D00284F
:103A700017D0022800F09580C0F08280042800F062
:103A80002581C0F0E380062800F07A81C0F05981DA
:103A9000082800F0EE81C0F09681092800F0FA8134
:103AA00006E210F0AAFDDFF8341A13F034F910F032
:103AB000A4FDDFF8301A12F0DDFFDFF8201A13F052
:103AC0002AF910F09AFDDFF8201A12F0D3FFDFF880
:103AD0000C1A13F020F910F090FDDFF8081A12F01C
:103AE000C9FFDFF8F81913F016F906F2A01010F06C
:103AF00020F8C0B26421484341F23051885141F26C
:103B00003050805903280ED241F2305003218151A8
:103B100041F2305080598DF803000DF1030106F297
:103B2000A01010F0D1FD16F11C0010F002F816F5EF
:103B3000B051087006F20C2010F0D3FD06F5B0501D
:103B4000283053EC102BC0E9002306F21C200FF0A4
:103B500043FF16F5AE51086016F5AE5000680990A7
:103B600009A808F0E7FCCDE9240124A906F5B05026
:103B700038300FF04FFA41F221600121815597E171
:103B8000300014F0CDF9C0B2002809D0012106F5AB
:103B90009850F8300BF0FFFC41F221600221815572
:103BA00086E1300014F0BCF9C0B200284DD041F2DB
:103BB00030600021815541F224500021815106F5E9
:103BC000A850383006F5B0512831D1E90023C0E9BA
:103BD000002341F230508059400810F0FDFD0200F2
:103BE0000B0006F5A8543834D4E9000114F004F8A9
:103BF00006F5A8523832C2E9000110F0FEFCDFF8E9
:103C00006C1E12F037FF41F23051895913F026F83B
:103C100010F0F3FCDFF8C41813F07DF810F0EDFCA1
:103C2000DFF84C1E12F026FF06F5A8513831D1E915
:103C3000002343EC102B14F08DF9DFF8A01813F0DB
:103C40006AF841F221600321815531E106F5805087
:103C5000D0300CF04BF8C0B2002801D0012000E0B9
:103C60000020C0B2002830D006F5A8503830D0E986
:103C7000002343EC102B06F58050D0300BF0E8FE0B
:103C800006F5B05038300FF0CDF910F0B6FCDFF883
:103C90004C1813F040F8DFF8DC1D12F0EBFE0400C6
:103CA00006F21C200FF098FE0100200014F0B5F978
:103CB00010F0A3FC69A112F0DDFEDFF8201813F06C
:103CC0002AF841F2216004218155F1E006F5B05057
:103CD00038300FF0B2F9C0B200281FD006F5B0504E
:103CE00038300FF0A7F941F2C870805D00280BD082
:103CF00041F2C8700021815506F5B851983106F59A
:103D0000885070300DF042F806F58850703013F08E
:103D100037FF41F221600621815511E006F58850F8
:103D2000703013F0D3FC012801D1012000E0002005
:103D3000C0B2002804D006F5885070300CF06AF943
:103D4000B6E006F58050D0300BF0D0FFC0B20028AE
:103D500001D0012000E00020C0B200280FD006F5FD
:103D6000A8503830D0E9002343EC102B06F58050E2
:103D7000D0300BF06DFE41F221600621815597E0B5
:103D800006F58050D0300BF0B1FFC0B200280CD047
:103D900006F58850703013F099FC012801D00120FD
:103DA00000E0002090F0010000E00020C0B20028F8
:103DB00008D006F5885070300CF02CF941F22160E3
:103DC0000721815574E006F58850703013F07EFCB1
:103DD000012801D1012000E00020C0B2002847D016
:103DE00041F23060805D401C16F5B0510978884280
:103DF0000BDA41F23060805D401C41F23061885541
:103E000041F221600621815532E041F2306000210B
:103E1000815541F224508059401C41F2305189595A
:103E2000884221D241F224508059401C41F2245151
:103E3000885106F5A8503830D0E900230020DFF87B
:103E40003C1C14F047F906F5A8523832C2E90001CB
:103E500041F22160052181550AE000BF2063000086
:103E6000083706081037060841F2216008218155FD
:103E70001EE0300014F054F8C0B2002809D0002130
:103E800006F59850F8300BF086FB41F221600921CD
:103E900081550DE0300014F043F8C0B2002807D07F
:103EA00016F5A9500021017041F2216000218155D1
:103EB00016F16C000FF04EFE012801D1012000E048
:103EC0000020C0B2002829D010F097FBDFF81416AC
:103ED00012F0D0FDDFF8041612F01DFF10F08DFB7C
:103EE000DFF89C1B12F0C6FDDFF8F01512F013FF8F
:103EF000002116F16C0010F08AFC41F221600021D3
:103F0000815516F5A9500021017000208DF802009E
:103F10000DF1020116F10C0010F0D6FB03F0A8BC65
:103F200041F22250805D002876D0012800F0768290
:103F3000022800F09582032800F0D882042800F0BF
:103F40000D83052800F01883062800F078830728E1
:103F500000F0D883082800F00D84092800F033848D
:103F60000A2800F07D840B2800F0A4840C2800F0BF
:103F7000ED840D2800F009850E2800F02A85102810
:103F800000F03287112801F05181122801F06E8172
:103F9000132801F08A81142801F09B81152801F073
:103FA0002082162801F09E84172801F0F584182835
:103FB00001F01885192801F088851A2801F0FE857E
:103FC0001B2801F08F861C2802F029801D2802F092
:103FD000F4801E2802F01B811F2802F02C8120286B
:103FE00002F05C81212802F07881222802F08E8183
:103FF000232802F05082242802F06883252802F04A
:104000008483262802F0C583272803F040832828CC
:1040100003F0D18303F0E4BB10F0EFFADFF8BC1437
:1040200012F079FE10F0E9FADFF8B81412F022FD70
:10403000DFF8A81412F06FFE10F0DFFADFF8881E28
:1040400012F018FDDFF8941412F065FE10F0D5FAA6
:10405000DFF8901412F00EFDDFF8801412F05BFE12
:1040600016F1B40010F03DFB06F5A850703053EC8B
:10407000102BC0E9002316F1BC0010F032FB06F54E
:10408000A850683053EC102BC0E9002316F5AB5054
:104090000021017006F2FC100FF09EFC089008A8A9
:1040A0000EF02AFF06F5A852B032C2E9000106F26E
:1040B000A0300FF091FC079007A80EF01DFF06F549
:1040C000A852B832C2E9000106F5A850B030D0E9D4
:1040D000002306F58050D0300BF0C0FD06F204201E
:1040E0000FF07AFC069006A80EF006FF06F5A8521F
:1040F000A832C2E9000106F5A850A830D0E9002393
:1041000006F59850F8300BF05EFA06F5A850A83086
:10411000D0E9002316F5A3500BF055FA06F5A85088
:10412000A830D0E9002306F5A050C8300BF0A0F964
:1041300006F254200FF00EFD002801D0012000E00F
:10414000002041F21561885541F21560815D16F538
:10415000316010F05CFB06F5A851A83106F5C0509F
:1041600078300EF057FF06F2A0100FF0E2FC41F29B
:104170003051C0B2885106F2883010F00DFB41F288
:104180003451885106F2903010F006FB16F5B75105
:10419000086006F2983010F0FFFA41F2E4618851AD
:1041A00006F2883010F0F8FA41F234518959814210
:1041B00001D0012000E00020C0B200280DD006F59B
:1041C000A851343106F2883010F037FB06F5A851BB
:1041D000343116F5366010F030FB06F278200FF01F
:1041E000B9FC002801D0012000E0002041F2C861A4
:1041F000885506F5B050001D13F0E0FF06F5A850F5
:10420000C83013F0EAFF06F5A850D83013F0E5FFE8
:1042100016F11C000FF08DFC16F5B051087016F564
:10422000B0500078022826D316F5B05116F1A00040
:1042300010F04AFA10F0E1F9AA4912F01BFCA74964
:1042400012F069FD10F0D9F9DFF8841C12F012FCAD
:1042500010F0D3F916F5B051097813F0CDFF9F494E
:1042600012F059FD10F0C9F99E4912F003FC9B4968
:1042700012F051FD08E001208DF801000DF101015F
:1042800016F1A00010F020FA16F160000FF062FCA9
:10429000002801D0012000E0002041F2146188557F
:1042A00006F5B851D03106F5885070300CF06EFD2F
:1042B00010F0A3F9DFF81C1C12F0DCFB874912F0A8
:1042C0002AFD06F21C200FF087FB16F5AE510860A0
:1042D0004FF47A70059005A80EF00EFECDE922018C
:1042E00022A906F5B05038300EF094FE41F250602D
:1042F0000021815141F25860002181510020049039
:1043000004A906F23C2010F075FA41F25C603221FB
:10431000815106F28C100FF01DFC002801D0012005
:1043200000E0002041F27861885506F5B050B830C1
:1043300000220023C0E9002316F5B6500022002316
:10434000C0E9002306F5B050EC3013F0C6FF41F28F
:10435000DC600021815141F210700021815506F28C
:10436000A83010F0BEF906F5B850183053EC102BF9
:10437000C0E9002306F2B03010F0B3F916F5B950D9
:1043800053EC102BC0E90023002106F5C050E830A3
:104390000DF003F906F2C03010F0A3F9B0EE408A38
:1043A000F0EE608ADFF8242ED2E9000113F0A4FFBA
:1043B00053EC182B0EF064FF04000D00DFF8102EF4
:1043C000D2E9000113F098FF02000B002000290041
:1043D0000FF040F813F0BEFF02000B0006F5C050CE
:1043E000E8300DF0FBF8012116F5D35013F0F3FF80
:1043F00006F2B4200FF09DFB0100C9B2300006F0B8
:1044000039FA41F22C51885542F270000121815550
:1044100041F222500121815503F0E2B9300013F03E
:104420007FFDC0B2002819D041F21460805D0028E1
:1044300010D0002106F5A050C8300BF007F816F593
:10444000D250D0E9002343EC102B06F58850703091
:104450000DF056F841F222500221815503F0C0B907
:10446000300013F05DFDC0B2002832D016F5B35015
:104470000121017006F5B05068300EF014FE16F5FB
:10448000AB500078002802D001280FD01DE010F0BA
:10449000B4F8DFF8101D12F0EDFA104912F03BFCF1
:1044A000012116F5A3500BF076F80EE010F0A5F8F8
:1044B000DFF8F41C12F0DEFA084912F02CFC01219E
:1044C00006F59850F8300BF066F841F222500321BF
:1044D000815503F085B900BF482A0608DBB60508F8
:1044E000542A060800CE05086CCE0508300013F0EB
:1044F00017FDC0B200282FD006F5C05078300EF05E
:1045000091FD06F204200FF067FA00EE100AB8EEF3
:10451000400A10EE100A13F067FFDFF8902CDFF866
:10452000903C0EF0ADFE13F089FF08EE100A10F07B
:1045300064F8DFF8801C12F09DFAB0EE480A13F020
:10454000C5FFD4A112F096FADFF86C1C12F0E3FB61
:1045500041F222500421815503F042B906F5C050C2
:1045600078300EF06AFDC0B2002803D041F222502C
:104570000521815503F034B906F58850703013F0E9
:10458000A5F8012801D1012000E00020C0B20028D8
:1045900053D006F5B050001D13F0FCFF002806D1E3
:1045A00016F5AB500078002801D1012000E0002072
:1045B000C0B200283DD016F5B3500021017006F5B9
:1045C000B05038300EF02EFD41F2C45016F5AE5109
:1045D0000968815110F011F8DFF8DC1B12F09BFB29
:1045E000DFF8901412F046FA040006F21C200FF0D7
:1045F000F3F90100200013F010FD0FF0FEFFA5A15C
:1046000012F038FADFF8B01B12F085FB06F588507F
:10461000703013F0ADFA06F58050D03013F0C1FFC2
:1046200042F270000221815541F22250062181554B
:1046300003E041F222500A21815503F0D1B806F57A
:10464000B05038300EF0F9FCC0B2002846D041F22C
:10465000C450805900282CD006F5B05038300EF0E8
:10466000E1FC41F2C4508059401E41F2C4518851CE
:104670000FF0C3FF88A112F0FDF9DFF8E81D12F07A
:104680004AFB41F2C45080593C21B0FBF1F201FBDE
:104690001200002805D10FF0B0FFDFF81C1B12F04C
:1046A0003AFB06F5A851C43106F21C2010F0A2F81E
:1046B00026E00FF0A2FFDFF8001B12F02CFB16F52E
:1046C000AE5106F21C2010F095F842F27000032162
:1046D000815541F222500721815511E006F588509D
:1046E000703012F0F3FF012801D1012000E000201A
:1046F000C0B2002804D006F5885070300BF08AFC58
:1047000003F06EB806F58850703012F0DFFF012814
:1047100001D1012000E00020C0B2002828D016F509
:10472000B3500121017006F5B05068300EF0BBFCAB
:1047300006F284200FF00EFA002801D0012000E0DC
:104740000020C0B2002805D006F58850703013F064
:1047500017FA04E006F58850703013F009FA06F5F0
:104760008050D03013F01DFF41F222500A218155B4
:1047700003F036B806F58850703012F0A7FF012814
:1047800001D1012000E00020C0B2002819D016F5A8
:10479000BB5106F5885070300CF0F8FA0FF02DFF81
:1047A000DFF8DC1D12F066F9DFF80C1A12F0B3FA2C
:1047B00006F5885070300BF02DFC41F22250092193
:1047C000815503F00DB806F58850703012F07EFF69
:1047D000012801D1012000E00020C0B200283DD016
:1047E00016F5B550D0E9002343EC102B300004F04F
:1047F00038FF51EC100B06F5B052A832C2E90001A7
:104800000FF0FBFEDFF8901E12F034F906F5B05100
:10481000A831D1E9002343EC102B13F09BFB0FF0E0
:10482000ECFE95A112F026F9DFF88C1912F073FA5C
:1048300006F5B851D03106F5885070300CF0A6FA64
:104840000FF0DBFEDFF88C1612F014F9DFF86819B0
:1048500012F061FA41F222500B21815502F0C0BFE3
:1048600006F58850703012F031FF012801D1012087
:1048700000E00020C0B200281AD006F5B851D031AF
:1048800006F5885070300CF081FA0FF0B6FEDFF8B4
:10489000441603E0206300002E00000012F0EAF846
:1048A000DFF8141912F037FA41F222500B2181552A
:1048B00002F096BF06F58050D0300BF017FAC0B268
:1048C000002801D0012000E00020C0B200283BD029
:1048D00006F5A850383006F5A8515031D1E900232B
:1048E000C0E9002306F5A8505030D0E9002343EC7E
:1048F000102B06F58050D0300BF0AAF816F5AA5010
:1049000006F5A8515831D1E90023C0E9002341F24E
:1049100024500021815141F228501421815106F583
:10492000B050D03000220023C0E9002306F58050AB
:10493000D0300AF09DFF06F5B050FC3013F04DFC6E
:1049400041F222500C21815502F04ABF06F58050F9
:10495000D0300BF0CBF9C0B2002801D0012000E02C
:104960000020C0B200280ED0012106F5C050E8306A
:104970000CF013FE002116F5D35013F02CFD41F27C
:1049800022500D21815502F02BBF06F58850703062
:1049900012F09CFE01280DD106F5C050E8300CF055
:1049A0005FFEC0B2012801D0012000E0002090F09D
:1049B000010000E00020C0B2002808D006F58850B1
:1049C00070300BF027FB41F222500E21815502F08E
:1049D00007BF06F58850703012F078FE012801D12B
:1049E000012000E00020C0B2002800F0FB810DF59E
:1049F000906106F5885070300CF067FD0DF5806110
:104A0000D1E9200141EC180B002106F5C050E83037
:104A10000CF0C3FD012116F5D35013F0DCFC06F5B4
:104A20008850703013F0C1FD51EC180B31F000418B
:104A300041EC190B53EC102BDFF8600CDFF8601C15
:104A40000EF01EFC02000B0051EC190B13F042FAA1
:104A500018D241F224508059002813D041F22C5032
:104A6000805D03280ED001200DE000BFE82106087C
:104A70001C0C06081837060820B043000000F03F61
:104A800090CE05080020C0B2002800F0A78151ECAC
:104A9000180B31F0004141EC100B06F5B052B83262
:104AA000D2E9000153EC102B13F014FA1FD251EC91
:104AB000180B31F0004141EC100B06F5B050B83046
:104AC00053EC102BC0E9002306F5A8503830D0E98C
:104AD000002343EC102B51EC100B31F0004141EC62
:104AE000100B16F5B65053EC102BC0E9002306F559
:104AF0008050D0300BF0A6F80FF064FECDE9CC0169
:104B000051EC180BCDE9CE010DF58061D1E9220100
:104B1000CDE9D00151EC180BCDE9D201CCA906F5B5
:104B2000B050FC3013F046FD06F5B050FC3013F0E9
:104B300064FD41F20C718959884201D3012000E0E3
:104B40000020C0B2002800F0448141F20C7083596B
:104B5000002206F5B051FC31300002F08DFF53EC1D
:104B6000102B0020DFF81C1E13F0B4FA41EC100BE0
:104B700013F04AFD51EC100B06F5A8524832C2E979
:104B8000000106F5B050FC3013F037FD022801D3C8
:104B9000012000E00020C0B2002850D041F20C708B
:104BA0008059411E06F5B050FC3013F064FD04003E
:104BB00041F20C708059811E06F5B050FC3013F0A4
:104BC0005AFDD0E90023D4E9000113F015F841ECB7
:104BD000100B53EC102B002000210EF02BFC2ED0DC
:104BE00041F20C708059411E06F5B050FC3013F0B4
:104BF00042FD040041F20C708059811E06F5B05050
:104C0000FC3013F038FDD0E90223D4E9020112F0A0
:104C1000F3FF06F5A8543834D4E900230EF01AFC4B
:104C200041EC100B51EC100B31F0004141EC100B3A
:104C300006F5B050D03053EC102BC0E900230FF034
:104C4000DCFC040002217CA80FF025FD7CA92000DB
:104C50000FF02AFD41F224518959491C11F0FEFF41
:104C60009AA111F007FF0FF0C8FC040008217AA8F0
:104C70000FF011FD7AA920000FF016FD06F5A851DE
:104C80003831D1E9002343EC102B13F063F98FA1E5
:104C900011F0F0FE0FF0B1FC0400082178A80FF02D
:104CA000FAFC78A920000FF0FFFC16F5AA51D1E913
:104CB000002343EC102B13F04DF984A111F0DAFE20
:104CC0000FF09BFC04000C2176A80FF0E4FC76A901
:104CD00020000FF0E9FCB0EE480AF0EE680A13F08D
:104CE00039F97AA111F0C6FE0DF58063D3E92223CC
:104CF0000020DFF8AC1D0EF0C3FA41EC100B51ECB4
:104D0000100B31F0004141EC180B0FF076FC040061
:104D1000082174A80FF0BFFC74A920000FF0C4FC98
:104D2000B0EE480AF0EE680A13F014F9DFF8741DCB
:104D300011F0A0FE0FF061FCDDF8A81411F08EFF59
:104D4000DFF8741411F0E7FF0FF057FCDFF8381CA0
:104D500011F090FE0400082172A80FF09CFC72A9CB
:104D600020000FF0A1FC06F5A8514831D1E900233D
:104D700043EC102B13F0EEF80FF03FFCDFF8381483
:104D800011F0C9FFDDE9CC010022002313F078FC0B
:104D900008D841F210700121815542F270000621BD
:104DA000815507E041F210700021815542F27000F8
:104DB0000421815541F22C50805D022804D141F23A
:104DC0002250152181550DE041F222501B218155C1
:104DD00008E041F222501021815503E041F22250B7
:104DE0001021815502F0FCBC0DF5896106F5885053
:104DF00070300CF06AFB0DF58061D1E9120141ECD5
:104E0000190B41F224508059002840F0C88041F22B
:104E10007860805D002800F0C28006F58850703010
:104E200013F0C3FB51EC190B31F0004141EC180BAE
:104E300053EC102BDFF8540BDFF8541B0EF020FA64
:104E400002000B0051EC180B13F044F801D30120C1
:104E500000E00020C0B2002840F0A18014249FEDA3
:104E6000DD8B2500002C00D56D429FEDD4AB07E013
:104E700051EC180B53EC182B0EF002FA41EC180B06
:104E80002800C00707D551EC1A0B53EC182B0EF075
:104E9000F7F941EC1A0B6D08002DE9D1002C1BD558
:104EA00053EC1A2B002000210EF0C4FA02D19FED22
:104EB000C5AB11E00020DFF8B81E53EC1A2B0EF042
:104EC000C9FA41EC1A0B07E0B4CE0508203A2000DD
:104ED000300C060820C3050851EC190B31F00041D5
:104EE00041EC180B51EC1A0B0022DFF8883E0EF053
:104EF000B1FA53EC182B0EF0C3F941EC100B13F080
:104F0000D6FB53EC102B0020DFF86C1E13F0E2F8F8
:104F100041EC100B13F078FB51EC100B0FF0FAFC86
:104F200041F228518959091A491E41F224529151DE
:104F30009FEDA80B13F0C5FB51EC100B0FF0EAFC32
:104F400005002C0051EC190B0022002313F098FBF4
:104F500000D26D4228000FF035FC06F5A852383219
:104F6000C2E9000120000FF02DFC16F5AA52C2E99B
:104F700000010FF042FBDFF8041E11F07BFD0FF083
:104F80003CFB290013F0C0FB0FF037FB93A111F09D
:104F900071FD210013F0B8FB874911F0BCFE41F20E
:104FA0002450805941F228518959884280F01A8151
:104FB00041F224508059401C41F2245188510FF095
:104FC0001CFB0400022170A80FF065FB70A92000F3
:104FD0000FF06AFB41F22451895911F03FFE80A184
:104FE00011F048FD0FF009FB040008216EA80FF036
:104FF00052FB6EA920000FF057FB06F5A85138317F
:10500000D1E9002343EC102B12F0A4FF74A111F09E
:1050100031FD0FF0F2FA040008216CA80FF03BFB01
:105020006CA920000FF040FB16F5AA51D1E900232E
:1050300043EC102B12F08EFF69A111F01BFD0FF055
:10504000DCFA04000C216AA80FF025FB6AA92000F5
:105050000FF02AFBB0EE490AF0EE690A12F07AFF6F
:105060005FA111F007FD0DF58063D3E91423002043
:10507000DFF82C1A0EF004F941EC100B51EC100B78
:1050800031F0004141EC180B0FF0B7FA0400082191
:1050900068A80FF000FB68A920000FF005FBB0EE38
:1050A000480AF0EE680A12F055FFDFF8F81911F01F
:1050B000E1FC0FF0A2FADDF8701411F0CFFD3E49CB
:1050C00011F029FE06F5B052D032D2E900010022DB
:1050D000002313F0D5FA25D251EC190B31F0004121
:1050E00041EC180B06F5B050D030D0E90023002079
:1050F000DFF890180EF0C4F802000B0051EC180B0A
:1051000012F0E8FE0ED241F22C50805D022804D14C
:1051100041F222501521815586E041F222501B2197
:10512000815581E051EC190B0022002313F0A8FAFD
:1051300010D206F5A8503830D0E9002316F5AA544D
:10514000D4E9000112F0C6FF06F5A8523832C2E9D0
:1051500000010FE006F5A8523832D2E9000116F539
:10516000AA54D4E9002312F047FD06F5A8523832BC
:10517000C2E9000116F5AA50D0E900230020DFF8AB
:1051800004180EF07DF841EC100B13F03DFA51ECD1
:10519000100B16F5AA52C2E9000141F2225011216A
:1051A000815541E0D8CE0508FCCE0508FCA9F1D216
:1051B0004D62503F602A0608DBB60508000000007B
:1051C0000000F03F000000000000F07F088E00208B
:1051D000B00000200000000000000040200000009F
:1051E000203A200006F58050D0300AF02BFD0FF059
:1051F000E9FA06F5A8524832C2E9000141F22C5002
:10520000805D022802D0032805D009E041F2225037
:105210001521815508E041F222501421815503E007
:1052200041F222501B21815502F0DABA06F5805076
:10523000D0300AF05BFDC0B2002801D0012000E0B0
:105240000020C0B200280FD006F5A8503830D0E9B1
:10525000002343EC102B06F58050D0300AF0F8FB09
:1052600041F222501221815502F0BABA06F580505F
:10527000D0300AF03BFDC0B2002801D0012000E090
:105280000020C0B200280ED0012106F5C050E83041
:105290000CF083F9002116F5D35013F09CF841F27D
:1052A00022501321815502F09BBA06F5C050E83018
:1052B0000CF0D6F9C0B2012801D1012000E0002095
:1052C000C0B2002803D041F222500D21815502F0D6
:1052D00087BA0FF092F9DFF8D81D11F0CBFBDFF899
:1052E000F81D11F018FD0FF088F9DFF8C81D11F056
:1052F000C1FB06F5A8514831D1E9002343EC102B3E
:1053000012F028FEDFF8D01D11F005FD16F5AB50A8
:1053100000788DF8880106F5A8504830D0E90023C0
:10532000CDE96423DDE96401CDE9660162A906F5F2
:10533000B050EC3013F045FA41F2DC608059401C6B
:1053400041F2DC61885116F5AB500078002810D18D
:1053500006F5A8509830DDE96623C0E9002316F56C
:10536000AD5006F5A8514831D1E90023C0E900232A
:1053700010E006F5A8508830DDE96623C0E9002377
:1053800006F5A850903006F5A8514831D1E9002320
:10539000C0E9002341F21460805D002811D1012191
:1053A00006F5A050C8300AF051F806F5D050383054
:1053B000D0E9002343EC102B06F5885070300CF038
:1053C0009FF806F5A850B030D0E9002306F58050CC
:1053D000D0300AF043FC41F222502421815502F0E2
:1053E000FFB906F5A8523832D2E9000106F5A854F3
:1053F0004834D4E9002312F0FFFB5FF03332DFF8CA
:10540000B83C0DF03DFF41EC100B13F01FFA51ECCE
:10541000100B31F0004141EC100B06F5A850E830BC
:1054200053EC102BC0E9002306F5A8504830D0E912
:10543000002306F5A854E834D4E9000112F04AFE2E
:1054400002000B0014001D0006F58050D03013F050
:1054500005FA51EC100B22002B0012F03BFD03D299
:10546000012002E0852906080020C0B2002813D0E0
:1054700006F58050D03013F0F1F951EC100B06F521
:10548000A8544834D4E9002312F0B6FB06F5A8521C
:10549000E832C2E9000132E006F58050D03013F066
:1054A00031FA53EC102B14001D0006F5A8524832B7
:1054B000D2E9000106F5A857E837D7E9002312F032
:1054C0009BFB22002B0012F005FD01D2012000E021
:1054D0000020C0B2002812D006F58050D03013F062
:1054E00011FA53EC102B06F5A8544834D4E9000106
:1054F00012F082FB06F5A852E832C2E9000106F577
:10550000A8523832D2E9000106F5A8544834D4E94B
:10551000002312F071FBDFF8A42BDFF8A43B0DF0A1
:10552000AFFE41EC100B13F091F951EC100B31F080
:10553000004141EC100B06F5A850F03053EC102B55
:10554000C0E9002306F5A8504830D0E9002306F54D
:10555000A854F034D4E9000112F0BCFD02000B00A5
:1055600014001D0006F58050D03013F077F951EC8F
:10557000100B22002B0012F0ADFC03D2012002E040
:1055800048C305080020C0B2002813D006F580509B
:10559000D03013F063F951EC100B06F5A8544834E1
:1055A000D4E9002312F028FB06F5A852F032C2E934
:1055B000000132E006F58050D03013F0A3F953EC2F
:1055C000102B14001D0006F5A8524832D2E9000144
:1055D00006F5A857F037D7E9002312F00DFB22009B
:1055E0002B0012F077FC01D2012000E00020C0B2B5
:1055F000002812D006F58050D03013F083F953EC18
:10560000102B06F5A8544834D4E9000112F0F4FA3E
:1056100006F5A852F032C2E9000106F5A852383268
:10562000D2E9000106F5A8544834D4E9002312F069
:10563000E3FAD64AD64B0DF023FE41EC100B13F0E3
:1056400005F951EC100B31F0004141EC100B06F55F
:10565000A850F83053EC102BC0E9002306F5A850F1
:105660004830D0E9002306F5A854F834D4E9000105
:1056700012F030FD02000B0014001D0006F58050F2
:10568000D03013F0EBF851EC100B22002B0012F08D
:1056900021FC07D2012006E0F8210608AE47E17A96
:1056A00014AEEF3F0020C0B2002813D006F58050A2
:1056B000D03013F0D3F851EC100B06F5A854483451
:1056C000D4E9002312F098FA06F5A852F832C2E99C
:1056D000000132E006F58050D03013F013F953EC9E
:1056E000102B14001D0006F5A8524832D2E9000123
:1056F00006F5A857F837D7E9002312F07DFA220003
:105700002B0012F0E7FB01D2012000E00020C0B224
:10571000002812D006F58050D03013F0F3F853EC87
:10572000102B06F5A8544834D4E9000112F064FAAD
:1057300006F5A852F832C2E900010EF05EFFDFF86C
:10574000841911F097F9DFF8901911F0E4FA06F5D1
:10575000A850D83012F051FF002802D0022825D0DE
:1057600068E006F5A8504830D0E9002306F5A854B3
:10577000F034D4E9000112F0ADFC06F5A85238323D
:10578000C2E900010EF039FFDFF83C1911F072F99F
:1057900006F5A851F031D1E9002343EC102B12F0AB
:1057A000D9FBDFF8341911F0B6FA67E006F5A85214
:1057B0004832D2E9000106F5A8543834D4E9002370
:1057C00012F088FB11D206F5A8504830D0E900232A
:1057D00006F5A854F834D4E9000112F07BFC06F574
:1057E000A8523832C2E9000110E006F5A85248324A
:1057F000D2E9000106F5A854F834D4E9002312F0E8
:10580000FBF906F5A8523832C2E900010EF0F5FEA8
:10581000DFF8B41811F02EF906F5A851F831D1E9E6
:10582000002343EC102B12F095FBDFF8AC1811F0BD
:1058300072FA23E006F5A8504830D0E9002306F5B7
:10584000A854E834D4E9000112F044FC06F5A8524B
:105850003832C2E900010EF0D0FEDFF86C1811F00A
:1058600009F906F5A851E831D1E9002343EC102BE2
:1058700012F070FBDFF8601811F04DFA06F5A85031
:10588000D83012F0BAFE002801D1012000E000203B
:1058900006F5C051083106F5885070300BF076FAE5
:1058A0000EF0ABFEDFF8241811F0E4F8DFF828184A
:1058B00011F031FA06F5A850B830D0E9002306F50A
:1058C0008050D0300AF0CAF941F2245000218151B1
:1058D00041F230500221815141F22250162181556E
:1058E00001F07EBF06F58050D0300AF0FFF9C0B25B
:1058F000002801D0012000E00020C0B200283ED0E6
:1059000006F5A8503830D0E9002343EC102B06F5FB
:105910008050D0300AF09CF80EF06FFE0400022197
:1059200080A80EF0B8FE80A920000EF0BDFE41F266
:1059300024518959491C11F091F916A111F09AF8D6
:105940000EF05BFE040008217EA80EF0A4FE7EA9E6
:1059500020000EF0A9FE06F5A8513831D1E9002348
:1059600043EC102B12F0F6FA0AA111F083F8DFF8DD
:10597000601711F0D0F941F222501721815501F042
:105980002FBF00BF0000E03F28370608CDCCCCCCAD
:10599000CCCCEC3F203A200006F58050D0300AF005
:1059A000A5F9C0B2002801D0012000E00020C0B25B
:1059B000002815D006F58850703011F087FE0128B8
:1059C00001D1012000E00020C0B2002808D006F577
:1059D000885070300AF01EFB41F222501821815588
:1059E00001F0FEBE06F58850703011F06FFE012800
:1059F00001D1012000E00020C0B2002863D0BEA980
:105A000006F5885070300BF060FDDDE9CA0141EC0D
:105A1000190BDDE9BE0141EC180B06F58050D030C2
:105A20000AF010F90EF0CEFECDE9B40151EC190BDD
:105A3000CDE9B601DDE9C001CDE9B80151EC190BA2
:105A4000CDE9BA01C898BC90B4A906F5A850D830E1
:105A500012F0B0FD0EF0D1FD04000C2160A80EF094
:105A60001AFE60A920000EF01FFEB0EE480AF0EE0C
:105A7000680A12F06FFADFF85C1610F0FBFF0EF008
:105A8000BCFD0400DDE9B823002005490DF0F8FB5A
:105A900041EC100B200012F05DFA024904E000BF57
:105AA00080842E412037060810F0E4FF0EF0A5FD9B
:105AB000C89911F0D3F8DFF8201611F02CF941F253
:105AC00022501921815501F08BBE41F2245080599A
:105AD00041F230518959491E884269D241F224501D
