:020000040800F2
:1000000098AC002025CC0508D7280208E72802086C
:10001000F728020807290208172902080000000033
:100020000000000000000000000000002729020876
:100030003729020800000000472902085729020852
:10004000DD2C0208DD2C0208DD2C0208DD2C020864
:10005000DD2C0208DD2C020867290208DD2C0208CD
:10006000DD2C020883290208DD2C0208DD2C0208A1
:10007000DD2C0208DD2C0208DD2C0208DD2C020834
:10008000DD2C0208DD2C0208DD2C0208DD2C020824
:10009000DD2C0208DD2C0208DD2C02089F29020855
:1000A000DD2C0208332A0208DD2C0208DD2C0208B0
:1000B000DD2C0208732A0208DD2C0208DD2C020860
:1000C000DD2C0208DD2C0208DD2C0208DD2C0208E4
:1000D000DD2C0208FD2B02080D2C02081D2C020845
:1000E000832A0208DD2C0208DD2C02082D2B0208D1
:1000F0005F2B0208DD2C0208932B0208DD2C02087E
:10010000DD2C02082D2C0208DD2C0208DD2C020853
:100110003D2C02084D2C0208DD2C0208DD2C0208C3
:100120005D2C02086D2C02087D2C02088D2C020823
:10013000DD2C0208DD2C0208DD2C0208DD2C020873
:10014000DD2C0208DD2C0208DD2C0208AD2C020893
:10015000DD2C02089D2C0208DD2C0208BD2C0208B3
:10016000DD2C0208DD2C0208DD2C0208DD2C020843
:10017000DD2C0208CD2C0208DD2C0208DD2C020843
:10018000DD2C020880B516480078002806D1002131
:1001900014480EF061FE01201149087012480078E1
:1001A000002806D1002111480EF056FE01200E490C
:1001B00008700F480078002806D100210D480EF085
:1001C0004BFE01200A4908700B480078002806D130
:1001D00000210A480EF040FE01200749087001BDC9
:1001E000A79A0020609A0020A89A0020689A002010
:1001F000A99A0020649A0020AA9A00205C9A002004
:1002000070B52DED048BE6B00400150021600023CD
:1002100000220021201D0EF021FEC4F8E4592068C0
:1002200010F5A47104F6E81010F064F8206810F5D9
:1002300090700090206810F58873206810F5807227
:10024000012114F5236013F0D5FF04F6782014F093
:1002500029FA04F6B82014F03FFB04F6D42014F079
:1002600061FB14F52E6014F05DFB04F6EC2014F035
:1002700059FB04F6F82014F05FFB002104F68830E7
:1002800014F0F6FB04F68C3014F07FFC002204F628
:100290009831201D14F064FD80080200206810F1E0
:1002A000980104F6983015F08EFC0120229022A8C7
:1002B00015F094FFCDE90401402002900020019048
:1002C000012000904FF48053206810F1D002206884
:1002D00010F54C7114F5466017F0D9FA002300228E
:1002E00014F5466114F55C6017F020FB14F55C62B0
:1002F00014F5466141F2BC30204409F063FF002050
:100300000290206810F5EA700190206810F5E27004
:100310000090206810F5DA73206810F5D27220681A
:1003200010F5417114F59E5017F08AFE14F59E5198
:1003300041F2084020440FF0EFFC206810F557739D
:10034000206810F5AA72206810F5367141F2A840B5
:10035000204410F084F86420219021A818F092F82D
:10036000CDE92A012AA941F2F060204418F046F9AB
:100370004FF4FA70209020A818F084F8CDE92801F5
:1003800028A914F5B85018F039F94FF47A701F9075
:100390001FA818F077F8CDE9260126A941F21070C0
:1003A000204418F0EDF8002041F228716054DFF885
:1003B000F81B5FA818F0FAF964201E901EA818F028
:1003C00061F800220492CDE90201002000905FABA9
:1003D000206810F50172206810F5057141F2307047
:1003E00020440FF04DFB5FA818F0F0F9DFF8BC1BBC
:1003F00058A818F0DBF964201D901DA818F042F8E9
:1004000000220492CDE902010020009058AB206840
:1004100010F50972206810F50D7141F298702044B2
:100420000FF02EFB58A818F0D1F9DFF8841B51A863
:1004300018F0BCF901230200206810F5117114F5C1
:10044000C0500FF08BFA51A818F0C0F9DFF8641B08
:100450004AA818F0ABF900230200206810F51571C6
:1004600041F6580020440FF079FA4AA818F0AEF986
:10047000DFF8441B43A818F099F900230200206814
:1004800010F5197141F6B00020440FF067FA43A847
:1004900018F09CF9DFF8241B3CA818F087F96420B9
:1004A0001C901CA817F0EEFF00220492CDE9020177
:1004B000002000903CAB206810F51D72206810F5FC
:1004C000217141F6081020440FF0DAFA3CA818F028
:1004D0007DF9DFF8EC1A35A818F068F964201B9054
:1004E0001BA817F0CFFF00220492CDE902010020E3
:1004F000009035AB206810F52572206810F5297141
:1005000041F6701020440FF0BBFA35A818F05EF9E0
:10051000DFF8B01A2EA818F049F964201A901AA82A
:1005200017F0B0FF00220492CDE9020100200090F4
:100530002EAB206810F52D72206810F5317141F650
:10054000D81020440FF09CFA2EA818F03FF9002094
:1005500014F5D2510870002041F64121605400206A
:1005600041F642216054002041F64421605014209D
:1005700041F648216050022041F64C21605403208E
:1005800041F650216050012041F65421605041F65F
:100590005820204400220023C0E9002314F5D35042
:1005A00000220023C0E9002341F6682020440022F5
:1005B0000023C0E9002341F67020204400220023DC
:1005C000C0E9002312269FED1A8B3500002E00D5BE
:1005D0006D429FED199B07E051EC180B53EC182B63
:1005E00018F008F941EC180BE80707D551EC190B86
:1005F00053EC182B18F0FEF841EC190B6D08002D88
:10060000EAD1002E20D553EC192B0020002118F040
:10061000CFF902D19FED0A9B16E00020DFF8CC1E37
:1006200053EC192B18F0D4F941EC190B0CE000BF76
:100630000000000000000040000000000000F03F4B
:10064000000000000000F07F41F67820204480ED9B
:10065000009B002014F5D451087041F688202044F6
:100660000022DFF8883EC0E9002341F690202044B4
:100670000022DFF8783EC0E9002341F698202044AC
:1006800000220023C0E9002314F5D55000220023E6
:10069000C0E9002341F6A820204400220023C0E93D
:1006A000002341F6B020204400220023C0E90023AB
:1006B00041F6B820204400220023C0E9002314F5AD
:1006C000D65000220023C0E900236420199019A805
:1006D00017F0D8FE41F6C8222244C2E90001642086
:1006E000189018A817F0CEFE41F6D0222244C2E995
:1006F00000016520179017A817F0C4FE41F6D82214
:100700002244C2E90001052014F5D75108600020F9
:1007100041F6E421605041F6E820204418F07BFACD
:1007200041F6F420204418F076FA14F5D85000224F
:100730000023C0E9002341F60830204400220023B2
:10074000C0E9002341F61030204400220023C0E914
:100750000023012041F61831605441F61C3020443A
:1007600018F061FA002041F628316054002041F66B
:100770002931605441F63030204400220023C0E982
:10078000002341F638302044DFF8642DDFF8643D63
:10079000C0E9002314F5DA500022DFF8503DC0E92B
:1007A000002341F64830204441F63831214491ED90
:1007B000000B80ED000B002041F65031605400200A
:1007C00041F65131605441F6583020440022002354
:1007D000C0E90023002014F5DB51087000201590BB
:1007E0004FF47A70169016AA15A941F66830204485
:1007F00017F096FE002014F5DC510860002041F649
:1008000084316050002041F688316050002041F66C
:100810008C31605041F6903020440DF0D4FE002021
:1008200041F6B83160544FF47A70149014A817F060
:1008300029FECDE9240124A914F5DE5017F0DEFECF
:10084000002041F6D031605441F6F03020440022BF
:100850000023C0E9002341F6F830204400220023A1
:10086000C0E9002314F5E05000220023C0E9002372
:1008700041F60840204400220023C0E9002341F64D
:100880001040204400220023C0E90023002041F64C
:100890001841605414F5E15000220023C0E9002300
:1008A000002041F628416050002041F62C41605064
:1008B000012041F630416050052041F6344160503E
:1008C000002041F63841605041F63C40204418F089
:1008D000B2F941F64840204418F09DF9022041F653
:1008E00054416050002041F65841605414F5E350E3
:1008F0000022DFF8F83BC0E9002341F668402044BD
:100900000022DFF8E83BC0E90023002041F67041F7
:100910006054002041F671416054002041F6A84126
:100920006054002014F5E7510870002041F6E141C1
:100930006054002041F618516054002014F5EC5129
:100940000870002041F6E851605441F6C82004EBDD
:10095000000141F63860204417F012FE41F6A8600D
:10096000204418F070F9002014F5F751087041F692
:10097000E860204400220023C0E9002341F6F06033
:10098000204400220023C0E9002341F6F8602044FF
:1009900000220023C0E9002314F5F85000220023B0
:1009A000C0E9002341F60870204400220023C0E97A
:1009B000002341F63070204400220023C0E90023C8
:1009C00041F63870204400220023C0E9002364204F
:1009D000139013A817F056FD14F5FA52C2E900015E
:1009E00041F64870204400220023C0E900230A2079
:1009F00041F65071605014F57E6018F03FF9050023
:100A000014F57E6018F03AF980B20200ADB2290008
:100A100041F67070204418F041F941F6B07020445E
:100A200000220023C0E9002341F6B87020440022D0
:100A30000023C0E9002314F5FE5000220023C0E982
:100A40000023642041F6C8716050002014F5005165
:100A50000870002042F2010160547820129012A820
:100A600015F0BCFB42F208022244C2E900014FF437
:100A70001670119011A815F0B1FB42F21002224439
:100A8000C2E9000142F2100004EB000142F218003A
:100A9000204417F075FD012042F23001605442F20B
:100AA0003800204400220023C0E9002314F501503F
:100AB00000220023C0E90023002042F248016050D8
:100AC00042F250002044DFF8302ADFF8303AC0E923
:100AD000002342F2580020440022DFF8103AC0E917
:100AE000002342F26000204400220023C0E90023DA
:100AF00042F2680020440022DFF8F039C0E9002308
:100B0000012042F2700160504FF47A7042F2740199
:100B1000605014F5FE60109041F2082020440F90C0
:100B200014F5FD600E9014F590500D9014F5FC60D6
:100B30000C9014F5FB600B9041F2F81020440A90E1
:100B400014F5FA60099014F5F960089014F5F8604E
:100B5000079014F5F760069014F5F660059014F50B
:100B6000F560049014F5F460039014F5F3600290BE
:100B700014F5F2600190206810F584600090206800
:100B800010F58263206810F58062206810F57C7192
:100B900042F27800204411F0E1F942F2B8302044EA
:100BA0000022DFF84839C0E9002314F50F50DFF8C0
:100BB0004829DFF8843EC0E9002342F2C8302044CF
:100BC0000022DFF82839C0E9002342F2D030204467
:100BD00000220023C0E9002342F2D8302044002242
:100BE000DFF8583EC0E900239FED651B9FEDEC0B3D
:100BF00014F5F46142F2E030204411F08CFE04F66A
:100C000068000E9004F65C000D9014F505600C90E1
:100C100014F504600B9004F638000A9014F5036094
:100C2000099004F62800089014F50260079004F675
:100C30001800069014F50160059004F60800049071
:100C400014F50060039014F5FF60029000200190FD
:100C5000206810F57470009042F2C830204490ED86
:100C6000002B14F50F5090ED001B42F2B8302044D9
:100C700090ED000B4623206810F5587242F2E030E8
:100C800004EB000142F2F830204418F020F842F260
:100C9000F83004EB000142F25840204411F097FE76
:100CA00041F268202044109041F25C2020440F90D3
:100CB00041F2502020440E9014F592500D9041F2D4
:100CC000382020440C9041F2302020440B9041F217
:100CD000282020440A9014F59150099041F21820E0
:100CE0002044089041F210202044079004F6680048
:100CF000069004F65C00059014F50560049014F568
:100D00000360039004F62800029014F5026001903D
:100D100004F61800009014F5016304F6080214F5B7
:100D2000FF6142F22860204412F0DEF942F278605E
:100D300020440022DFF8B437C0E9002314F51A502C
:100D4000DFF8B427DFF8F03CC0E9002342F2886006
:100D500020440022DFF89437C0E9002342F290607B
:100D6000204400220023C0E9002342F2986020447E
:100D70000022DFF8C83CC0E900239FED931B03E08D
:100D800000000000008041409FED850B14F5F261EA
:100D900042F2A060204411F0BEFD04F6E4000E9083
:100DA00004F6D8000D9004F6CC000C9004F6BC00BC
:100DB0000B9004F6B4000A9004F6AC00099004F617
:100DC000A400089004F69C00079004F69400069096
:100DD00004F68C00059004F68400049004F67C0070
:100DE000039004F67400029000200190206810F532
:100DF0007870009042F28860204490ED002B14F54A
:100E00001A5090ED001B42F27860204490ED000BE8
:100E10004523206810F5667242F2A06004EB0001E1
:100E200042F2B860204417F052FF42F2B86004EB7F
:100E3000000142F21870204411F0C9FD41F2CC20AB
:100E40002044109014F596500F9041F2B4202044A5
:100E50000E9041F2A42020440D9041F29C202044A9
:100E60000C9041F2942020440B9041F28C202044BD
:100E70000A9041F284202044099041F27C202044D1
:100E8000089041F274202044079004F6E400069094
:100E900004F6D800059004F6CC00049004F6AC00EB
:100EA000039004F6A400029004F69C00019004F65E
:100EB0009400009004F68C0304F6840204F6740196
:100EC00042F6E800204412F00FF9002042F63811F3
:100ED000605414F55C62211D14F525500DF0C6FC1C
:100EE000200000F0B3FD200000F0C5FD17F03CFF2E
:100EF000039004F63C7017F03DFF8DF80C0004F6EB
:100F0000447017F037FF8DF80D0004F64C7017F0A1
:100F100031FF8DF80E0004F6547017F02BFF8DF89A
:100F20000F0017F021FF029004F65C7017F022FF0B
:100F30008DF8080004F6647017F01CFF8DF80900A6
:100F400004F66C7017F016FF8DF80A0004F6747042
:100F500017F010FF8DF80B0017F006FF019004F654
:100F60007C7017F007FF8DF8040004F6847017F00A
:100F700001FF8DF8050004F68C7017F0FBFE8DF86C
:100F8000060004F6947017F0F5FE8DF8070004F6DD
:100F90009C7017F0FFFE00281AD0012019E000BF56
:100FA0000000000000002E4064CE05086CCE05084D
:100FB00074CE05087CCE050884CE05088CCE0508C5
:100FC00094CE05089CCE0508000000000080464035
:100FD0000020C0B20090019B029A03992068A030C3
:100FE00017F04AFF206810F1A0010DF1020010F087
:100FF0006DFE18F0CCFB0500082101A818F00EFCCE
:10100000DDE90101CDE92C012CA9280018F012FC22
:1010100014F55C6018F01EFC41F61831605441F67E
:10102000183004EB000114F11C0018F021FC04F648
:10103000C85018F02AFC41F69020204480ED000BA7
:1010400041F6902004EB000114F1B40018F043FCC9
:1010500014F55D6018F019FC41F68820204480EDFD
:10106000000B41F6882004EB000114F1BC0018F0DD
:1010700032FC04F62C7114F1D40018F039FC04F69B
:10108000347114F1DC0018F033FC04F6D85018F079
:10109000E1FB0100C9B241F2084020440EF0F8FF24
:1010A00041F2084020440FF07DF88DF801000DF169
:1010B000010114F5CC7018F0DBFB14F55E6018F03C
:1010C000C9FB41F65021605041F6502020588DF860
:1010D0000000694614F5D07018F0CAFB04F6E85019
:1010E00018F0B8FB0D900DA817F0CCF941F6D022FE
:1010F0002244C2E9000104F6E85114F5FE7018F02C
:1011000008FC14F5FA50D0E9002341F208402044CD
:101110000FF04EF804F6147018F09CFB0C900CA81D
:1011200017F0B0F941F6D8222244C2E9000104F6D2
:10113000147114F5757018F0ECFB14F55F6018F07D
:1011400089FB0B900BA817F09DF941F6C8222244A9
:10115000C2E9000114F55F6114F5017018F0D9FBC4
:1011600004F6F85018F091FB41F65830204480ED19
:10117000000B41F6583004EB000114F5037018F031
:10118000AAFB14F5606018F0D4FB18F0E9FB41F6F7
:1011900058322244C2E9000141F6583004EB000104
:1011A00014F5037018F097FB04F6086018F052FB72
:1011B00014F5D751086014F5D75114F5077018F0DD
:1011C000E0FB200009F028FA41F6784004EB00012A
:1011D00041F2A840204410F053F904F6486017F09B
:1011E0004DFD41F6E261605241F6E26004EB000120
:1011F00014F5677018F0D2FB14F5656017F03EFD2A
:1012000041F6E461605241F6E46004EB000114F53C
:10121000697018F0C3FB04F6A87114F57D7018F01E
:1012200067FB04F6A87018F030FB41F6E860204434
:1012300080ED000B14F57B6114F57F7018F058FBFE
:1012400014F57B6018F021FB41F6F060204480ED3E
:10125000000B04F6B87104F2044018F049FB04F6E0
:10126000B87018F012FB41F6F860204480ED000BD6
:1012700014F57C6104F20C4018F03AFB14F57C6024
:1012800018F003FB14F5F85080ED000B41F2084014
:10129000204418F097FB41F66860204480ED000B75
:1012A00041F20840204418F0DBFB41F67060204416
:1012B00080ED000B41F67860204400220023C0E955
:1012C000002314F5F45000220023C0E9002341F666
:1012D0008860204400220023C0E90023002041F65A
:1012E00090616050002041F69461605041F6986032
:1012F000204400220023C0E9002314F5F5507E4A63
:10130000DFF83C37C0E9002304F6C87104F21C4042
:1013100018F0EEFA04F6C87018F0B7FA41F630701B
:10132000204480ED000B14F57D6104F2244018F098
:10133000DFFA14F57D6018F0A8FA41F63870204401
:1013400080ED000B41F61070204441F630712144CD
:1013500091ED000B80ED000B41F618702044002247
:101360000023C0E9002314F5F95000220023C0E94E
:101370000023012141F2A84020440FF083F941F6F7
:1013800038702044D0E9002351EC100B17F032FAEA
:1013900041F628722244C2E9000104F6D87104F231
:1013A0003C4018F0A5FA04F6D87018F06EFA41F631
:1013B0004870204480ED000B14F57E6017F05EFC51
:1013C00080B241F65071605041F6587020440022BE
:1013D0000023C0E9002314F5FB5000220023C0E9DC
:1013E0000023012141F2A84020440FF04BF941F6BF
:1013F00048702044D0E9002351EC100B17F0FAF9A3
:1014000041F668722244C2E9000114F57E6104F2DB
:10141000644018F077FB04F6F87018F036FA41F6DD
:10142000B870204480ED000B41F6B870204490ED78
:10143000000B200009F036F841F6B070204480ED32
:10144000000B41F6B87004EB000104F2844018F080
:1014500042FA41F6B07004EB000104F27C4018F04F
:101460003AFA14F5805018F010FA14F5FE5080ED99
:10147000000B14F5FE5104F28C4018F02CFA04F61F
:10148000E87017F077FCC0B212F036FA42F2300181
:10149000605404F6E87104F26C4018F044FB04F662
:1014A000186018F0F2F941F6E830204480ED000BA6
:1014B00041F6E83004EB000114F5597018F00BFA0E
:1014C00014F5666018F0E1F914F5DA5080ED000BC0
:1014D00014F5DA5114F56D7018F0FDF914F5676024
:1014E00017F058FC00280BD001200AE00000F03F64
:1014F000CDCCCCCCCC60B5409A9999999999D93FEB
:10150000002041F62831605441F62830215C14F166
:10151000600018F019FB04F67C6017F03BFC002813
:1015200001D0012000E0002041F6D031605441F6A6
:10153000D030215C14F5C67018F006FB04F6886004
:1015400017F028FC002801D0012000E0002041F61F
:101550002931605441F62930215C14F5157018F0DA
:10156000F3FA41F62930215C41F23070204418F042
:1015700001FB41F62930215C41F29870204418F0BB
:10158000F9FA41F62930215C41F60810204418F0A0
:10159000F1FA41F62930215C41F67010204418F030
:1015A000E9FA41F62930215C41F6D810204418F0C0
:1015B000E1FA04F6946017F0EDFB002801D0012059
:1015C00000E0002041F61841605441F61840215CCB
:1015D00014F51E7018F0B8FA04F6FC6018F0A9F9BA
:1015E00041F65421605041F6542004EB000114F5FB
:1015F0006F7018F0C2FA04F6047018F09AF941F608
:101600003041605041F630402058059005A914F54E
:10161000717018F0B2FA04F60C7018F08AF941F6FD
:101620003441605041F634402058049004A914F528
:10163000737018F0A2FA04F61C7018F026F914F56D
:10164000E35080ED000B14F5E35114F5777018F0BA
:1016500042F914F56A6114F5217018F09BFA04F64A
:10166000B86114F5447018F095FA14F5447017F049
:1016700091FB002801D0012100E00021C9B241F214
:10168000A840204418F09FFA04F6247018F0FDF8E2
:1016900041F66840204480ED000B41F6684004EBC1
:1016A000000114F5797018F016F914F56D6017F053
:1016B00061FB0100C9B220000CF070FF41F64C2123
:1016C000605414F56D6114F52D7018F02CFA04F6C1
:1016D000E46114F54D7018F05DFA14F56F6114F5BE
:1016E000507018F057FA41F2C810204418F0CDF8A5
:1016F00042F25000204480ED000B41F2C81004EB90
:10170000000104F2B44018F0F3F841F2D010204484
:1017100018F0BBF842F25800204480ED000B41F273
:10172000D01004EB000104F2BC4018F0E1F841F2E3
:10173000D810204418F0A9F842F26000204480ED4F
:10174000000B41F2D81004EB000114F5EE6018F024
:10175000CFF814F58F5018F098F842F26800204442
:1017600080ED000B14F58F5114F5EF6018F0C0F800
:1017700041F2E810204418F0DCF842F270016050A9
:1017800041F2E81004EB000114F5F06018F01EFAC5
:1017900041F2F010204418F078F851EC100B18F0DA
:1017A00025FA42F27401605041F2F01004EB00019E
:1017B00014F5F16018F09CF841F6D830204400226E
:1017C0000023C0E9002314F5DF5000220023C0E904
:1017D000002304F6186018F058F841F6E830204469
:1017E00080ED000B14F55F6018F034F80A900AA839
:1017F00016F048FE41F6C8222244C2E9000104F670
:101800003C7104F2DC4018F08EF904F6447104F2E5
:10181000E44018F088F904F64C7104F2EC4018F03A
:1018200082F904F6547104F2F44018F07CF904F6DD
:101830005C7104F2FC4018F076F904F6647104F26D
:10184000045018F070F904F66C7104F20C5018F0A2
:101850006AF904F6747104F2145018F064F904F68D
:101860007C7104F21C5018F05EF904F6847104F2E5
:10187000245018F058F904F68C7104F22C5018F02A
:1018800052F904F6947104F2345018F04CF904F64D
:101890009C7104F23C5018F07DF914F5FA50D0E92F
:1018A000002341F2307020440EF041F914F5FA5053
:1018B000D0E9002341F2987020440EF038F914F575
:1018C000FA50D0E9002314F5C0500EF087F814F553
:1018D000FA50D0E9002341F6580020440EF07EF87B
:1018E00014F5FA50D0E9002341F6B00020440EF080
:1018F00075F814F5FA50D0E9002341F60810204499
:101900000EF015F914F5FA50D0E9002341F67010E5
:1019100020440EF00CF914F5FA50D0E9002341F6FA
:10192000D81020440EF003F904F6A87114F57D7068
:1019300017F0DEFF14F5236104F6B82018F073F9F0
:1019400004F6782104F6F82018F094F904F6EC2156
:1019500004F6F82018F090F904F6D42104F6F820E3
:1019600018F08AF914F52E6104F6F82018F084F9BD
:101970001420099009A816F085FD02000B0004F65A
:10198000F82018F082F91420089008A816F07AFDC3
:1019900002000B0004F6F82018F07CF94FF4FA70FE
:1019A000079007A816F06EFD02000B0004F6F82061
:1019B00018F075F93220069006A816F063FD0200B3
:1019C0000B0004F6F82018F074F9782018F074F978
:1019D0000500231D04F6EC2204F6B82128001AF0B5
:1019E0003FF8010004F688301AF04FF9002104F6A0
:1019F000E8100EF0BEFC17F0CAFE12491AF059F9B1
:101A000017F0C5FE08211AF02FFA0F491AF08AFACA
:101A100004F6E41114F50F6017F0B3FF41F2D8207B
:101A200004EB000104F6F80017F073FF200066B025
:101A3000BDEC048B70BD00009999A93F00003940AE
:101A40009999B93F1C9A0508D168050810B504009A
:101A5000206810F5987104F6782012F0AFFE206827
:101A600010F59E7104F6782012F0C0FE04F678207E
:101A700012F0DDFE10BD70472DE9F8432DED088B07
:101A8000ADF5106DBAB00600306817F086FD06F6A9
:101A9000983014F09AF916F5466015F0A8FD16F581
:101AA0009E5016F009FC41F2084030440EF0D6FB7F
:101AB000002405E041F2A84030440EF04BFF641CC6
:101AC0000A2CF7D341F2307030440EF064F841F242
:101AD000987030440EF05FF816F5C0500DF0A4FF7A
:101AE00041F6580030440DF09FFF41F6B0003044FD
:101AF0000DF09AFF41F6081030440EF04CF841F614
:101B0000701030440EF047F841F6D81030440EF013
:101B100042F806F6E8100EF041FC06F688301AF09E
:101B200009FA1AF02DF816F5236012F035FC06F6C6
:101B3000F8201AF021FA42F27800304410F00DFC3F
:101B400042F25840304411F040F942F218703044EB
:101B500011F03BF906F6D4201AF02CFB002804D033
:101B6000002106F6E8100EF004FC41F2F06030446B
:101B700016F062FDC0B2002800F09B870021301DE6
:101B80001AF01EFB300009F017F941F6A841705415
:101B9000300009F038FA010016F5E7500078002807
:101BA00002D116F5E7500170300009F056FB010034
:101BB00041F6E140305C002802D141F6E140315469
:101BC000300009F0CEFC41F618517054300009F095
:101BD000F3FD16F5EC510870300009F018FF41F6DE
:101BE000E8517054300009F099F816F5D250007899
:101BF000012800F0178116F5DA7017F046FEB0EEF6
:101C0000408AF0EE608A41F2084030440EF078FAE3
:101C100053EC182B51EC100B16F0CAFE0BD041F20E
:101C2000084030440EF06CFA8DED460B46A916F5CF
:101C3000DA7017F050FE16F5DE7017F07AFE040029
:101C400041F2084030440EF0A7FA84420AD041F233
:101C5000084030440EF0A0FA159015A916F5DE7074
:101C600017F08BFF16F5D47017F094F8040041F2CA
:101C7000084030440EF0F8F8C0B284420AD041F275
:101C8000084030440EF0F0F80100C9B216F5D470E7
:101C900017F05AFF16F5CC7017F06CF8040041F2FB
:101CA000084030440EF07EFAE4B2C0B284420BD059
:101CB00041F2084030440EF075FA8DF8100004A986
:101CC00016F5CC7017F0D4FD16F5AE7017F062F86B
:101CD000040041F2307030440DF018FF844209D006
:101CE00041F2307030440DF011FF010016F5AE7076
:101CF00017F02AFF16F5B47017F04CF8040041F203
:101D0000987030440DF002FF844209D041F298707F
:101D100030440DF0FBFE010016F5B47017F014FF0F
:101D200016F59C7017F036F8040016F5C0500DF04B
:101D30004AFE844208D016F5C0500DF044FE010062
:101D400016F59C7017F000FF16F1E40017F022F86A
:101D5000040041F6580030440DF035FE844209D0AD
:101D600041F6580030440DF02EFE010016F1E4005B
:101D700017F0EAFE16F1F00017F00CF8040041F637
:101D8000B00030440DF01FFE844209D041F6B0008F
:101D900030440DF018FE010016F1F00017F0D4FEEB
:101DA00016F1FC0016F0F6FF040041F6081030446E
:101DB0000DF0ACFE844209D041F6081030440DF01D
:101DC000A5FE010016F1FC0017F0BEFE16F58470AA
:101DD00016F0E0FF040041F6701030440DF096FE5E
:101DE000844209D041F6701030440DF08FFE01009E
:101DF00016F5847017F0A8FE16F58A7016F0CAFF63
:101E0000040041F6D81030440DF080FE844209D021
:101E100041F6D81030440DF079FE010016F58A70B5
:101E200017F092FE41F2A84030441AF0E4F9C0B233
:101E3000002800F0C98041F6F05006EB000141F2A5
:101E4000A84030440FF0E0FE41F6186006EB0001B8
:101E500006F6DC1017F095FD41F6F8503044D0E955
:101E600000230020DFF8281716F0C4FC41EC100B0B
:101E700051EC100B31F0004141EC100B8DED2C0BAF
:101E80002CA906F2A44017F026FD16F5F05106F233
:101E9000D44017F072FE41F6086006EB000106F22E
:101EA000944017F018FD41F610603044D0E900234B
:101EB0000020DFF8DC1616F09DFCCDE92A012AA9E6
:101EC00006F29C4017F007FD16F5D2500078002866
:101ED0000ED041F64120305C022809D041F6F8309E
:101EE000304441F6F051314491ED000B80ED000B90
:101EF00041F6F850304490ED000B51EC100B31F0EE
:101F0000004141EC100B16F525500CF065FD41F633
:101F1000A860305C002857D0002041F6A8617054BA
:101F200041F6B06006EB000106F2344017F0D3FC36
:101F300041F6B86006EB000106F2144017F0CBFC46
:101F400016F5F65106F2444017F0C5FC41F6C8609C
:101F500006EB000106F24C4017F0BDFC16F5F650FA
:101F600090ED000B300008F00BFA8DED280B28A93E
:101F700006F2544017F0AFFC41F6C860304490EDD3
:101F8000000B300008F0FCF98DED260B26A906F2B7
:101F90005C4017F0A0FC41F6D06006EB000106F2B1
:101FA0002C4017F098FC41F6D8603044D0E900236B
:101FB0000020DFF8DC1516F01DFCCDE9240124A972
:101FC00016F5F67017F087FC16F5F27017F05DFC49
:101FD00053EC102B41F6F8303044D0E9000116F0F4
:101FE000E7FC1ED041F6F83006EB000116F5F27062
:101FF00017F071FC41F6F830304490ED000B41F6DB
:10200000D83030441AF071FB41F6F030304480EDA6
:10201000000B41F6F03006EB000116F55B7017F08F
:102020005AFC16F5187016F0B5FE002829D00021CC
:1020300016F5187017F088FD41F6D830304441F697
:10204000F831314491ED000B80ED000B16F5DF50B7
:1020500041F6F831314491ED000B80ED000B41F673
:10206000F030304441F6F831314491ED000B80ED11
:10207000000B41F6F03006EB000116F55B7017F02F
:102080002AFC16F1900016F075FE16F5D25109786B
:10209000C0B288420AD016F5D25000788DF80F00F1
:1020A0000DF10F0116F1900017F0E2FB16F5D2507A
:1020B0000078002820D141F64120305C02281BD155
:1020C00006F2545016F066FE01280CD1002106F2EB
:1020D000545017F039FD002116F5A96017F034FDB2
:1020E000300007F093FE16F5A96016F053FE0028A5
:1020F00002D1300007F0F0FE16F11C0016F03AFE97
:10210000040016F55C6017F0A5FBE4B2844209D028
:1021100016F11C0016F02EFE149014A916F55C6042
:1021200017F02FFC16F1B40017F0AFFBB0EE408AA9
:10213000F0EE608A06F6C85017F0A7FB53EC182B98
:1021400051EC100B16F034FC05D016F1B40106F674
:10215000C85017F0CDFB16F1BC0017F096FBB0EE9F
:10216000408AF0EE608A16F55D6017F08EFB53EC46
:10217000182B51EC100B16F01BFC05D016F1BC010E
:1021800016F55D6017F0B4FB16F1D40017F07DFB77
:10219000B0EE408AF0EE608A06F62C7017F075FB00
:1021A00053EC182B51EC100B16F002FC05D016F175
:1021B000D40106F62C7017F09BFB16F1DC0017F02B
:1021C00064FBB0EE408AF0EE608A06F6347017F0D9
:1021D0005CFB53EC182B51EC100B16F0E9FB05D00F
:1021E00016F1DC0106F6347017F082FB16F5CC70A0
:1021F00016F0C0FD040006F6D85017F02BFBE4B231
:10220000844209D016F5CC7016F0B4FD139013A9D2
:1022100006F6D85017F0B5FB16F5D07016F0AAFDEB
:10222000040016F55E6017F015FBE4B2844209D095
:1022300016F5D07016F09EFD129012A916F55E608C
:1022400017F09FFB16F5FE7017F004FB040006F66E
:10225000E85017F0FFFA844205D016F5FE7106F635
:10226000E85017F056FB16F5017017F0F3FA04006A
:1022700016F55F6017F0EEFA844205D016F501718D
:1022800016F55F6017F045FB16F5037017F0FDFAC1
:10229000B0EE408AF0EE608A06F6F85017F0F5FAD4
:1022A00053EC182B51EC100B16F082FB05D016F5F1
:1022B000037106F6F85017F01BFB16F5057017F0C2
:1022C00038FB040016F5606017F033FB844205D03C
:1022D00016F5057116F5606017F078FC16F50770B5
:1022E00017F0B8FA040006F6086017F0B3FA844253
:1022F00005D016F5077106F6086017F00AFB16F50B
:10230000597017F0C2FA53EC102B41F6E830304404
:10231000D0E9000116F04CFB0ED016F5597017F0FD
:10232000B4FA41F6E830304480ED000B16F55971EF
:1023300006F6186017F0DCFA16F55D7017F08AFAE9
:10234000040016F5626017F085FA844205D016F590
:102350005D7116F5626017F0DCFA16F55F7017F024
:1023600079FA040006F6286017F074FA844205D062
:1023700016F55F7106F6286017F0CBFA16F5617056
:1023800017F068FA040016F5636017F063FA8442E8
:1023900005D016F5617116F5636017F0BAFA16F5F7
:1023A000677016F06BFC040006F6486016F066FCD9
:1023B000A4B280B2844205D016F5677106F6486073
:1023C00017F0A0FB16F5697016F058FC040016F51E
:1023D000656016F053FCA4B280B2844205D016F5B5
:1023E000697116F5656017F08DFB16F56D7017F0C5
:1023F0004CFAB0EE408AF0EE608A16F5666017F08F
:1024000044FA53EC182B51EC100B16F0D1FA05D00E
:1024100016F56D7116F5666017F06AFA16F1600030
:1024200016F0B8FC040016F5676016F0B3FC8442A1
:1024300005D016F1600116F5676017F0ABFB16F5D5
:10244000C67016F0A7FC040006F67C6016F0A2FC2D
:10245000844205D016F5C67106F67C6017F09AFB2B
:1024600016F51E7016F096FC040006F6946016F041
:1024700091FC844205D016F51E7106F6946017F0A3
:1024800089FB16F56F7017F054FA040006F6FC602D
:1024900017F04FFA844205D016F56F7106F6FC600E
:1024A00017F094FB16F5717017F043FA040006F666
:1024B000047017F03EFA844205D016F5717106F6E5
:1024C000047017F083FB16F5737017F032FA0400EE
:1024D00006F60C7017F02DFA844205D016F57371CC
:1024E00006F60C7017F072FB16F5757017F0B2F95E
:1024F000040006F6147017F0ADF9844205D016F505
:10250000757106F6147017F004FA16F5777017F067
:10251000BCF9B0EE408AF0EE608A06F61C7017F047
:10252000B4F953EC182B51EC100B16F041FA05D00E
:1025300016F5777106F61C7017F0DAF916F52170AA
:1025400016F028FC040016F56A6016F023FC84429D
:1025500005D016F5217116F56A6017F01BFB16F50C
:10256000447016F017FC040006F6B86016F012FC72
:10257000844216D016F5447106F6B86017F00AFBCF
:1025800016F5447016F006FC002803D0012102E085
:1025900080842E410021C9B241F2A840304417F096
:1025A00012FB16F53B7016F0F5FB040006F6AC6066
:1025B00016F0F0FB844205D016F53B7106F6AC60D0
:1025C00017F0E8FA16F5797017F05FF9B0EE408A67
:1025D000F0EE608A06F6247017F057F953EC182BCA
:1025E00051EC100B16F0E4F905D016F5797106F6EA
:1025F000247017F07DF916F52D7016F0BBFB040062
:1026000016F56D6016F0B6FBE4B2C0B2844205D098
:1026100016F52D7116F56D6017F085FA16F54D70EB
:1026200016F0B8FB040006F6E46016F0B3FB844233
:1026300005D016F54D7106F6E46017F0ABFA16F505
:10264000507016F0A7FB040016F56F6016F0A2FBA1
:10265000844205D016F5507116F56F6017F09AFA9E
:1026600006F26C4016F086FB040006F6E87016F0E1
:1026700081FBE4B2C0B2844205D006F26C4106F69A
:10268000E87017F050FA06F2B44017F0FEF8B0EE1A
:10269000408AF0EE608A41F2C810304417F0F5F835
:1026A00053EC182B51EC100B16F082F91FD006F2E8
:1026B000B44141F2C810304417F01AF906F2B440A0
:1026C00017F0E3F842F25000304480ED000B16F5AD
:1026D000C0500DF078F9012809D142F25000304481
:1026E00090ED000B41F2A84030440FF0B0FA06F232
:1026F000BC4017F0CAF8B0EE408AF0EE608A41F2B2
:10270000D010304417F0C1F853EC182B51EC100BDB
:1027100016F04EF91FD006F2BC4141F2D010304401
:1027200017F0E6F806F2BC4017F0AFF842F2580096
:10273000304480ED000B16F5C0500DF044F9002830
:1027400009D142F25800304490ED000B41F2A8400C
:1027500030440FF07CFA16F53B7016F01BFB0400BA
:1027600006F6AC6016F016FB844205D016F53B71F8
:1027700006F6AC6017F00EFA16F5EE6017F085F865
:10278000B0EE408AF0EE608A41F2D810304417F083
:102790007CF853EC182B51EC100B16F009F90FD004
:1027A00016F5EE6141F2D810304417F0A1F816F595
:1027B000EE6017F06AF842F26000304480ED000BE2
:1027C00016F5EF6017F061F8B0EE408AF0EE608A1F
:1027D00016F58F5017F059F853EC182B51EC100BDD
:1027E00016F0E6F80ED016F5EF6116F58F5017F0DB
:1027F0007FF816F5EF6017F048F842F268003044B1
:1028000080ED000B16F5F06017F093F8040041F22C
:10281000E810304417F08DF884420DD016F5F061C1
:1028200041F2E810304417F0D1F916F5F06017F0D6
:1028300080F842F27001705016F5F16017F025F83B
:10284000B0EE408AF0EE608A41F2F010304417F0AA
:102850001CF853EC182B51EC100B16F0A9F811D002
:1028600016F5F16141F2F010304417F041F816F519
:10287000F16017F00AF851EC100B17F0B7F942F2BB
:102880007401705016F5157016F084FA040006F6FF
:10289000886016F07FFA844211D016F5157106F69D
:1028A000886017F077F916F5157016F073FA00289E
:1028B00001D0012000E0002041F62931705442F699
:1028C0003810305C012809D043D303281AD00FD325
:1028D00005282AD01FD3062831D03AE001208DF8F0
:1028E0000E000DF10E0116F5537016F0C1FF38E021
:1028F00002208DF80D000DF10D0116F5537016F044
:10290000B7FF2EE003208DF80C0003A916F55370D5
:1029100016F0AEFF25E004208DF80B000DF10B0141
:1029200016F5537016F0A4FF1BE005208DF80A0081
:102930000DF10A0116F5537016F09AFF11E006200A
:102940008DF809000DF1090116F5537016F090FF8E
:1029500007E000208DF8080002A916F5537016F064
:1029600087FF06F63C7106F2DC4019F041FF06F6DF
:10297000447106F2E44019F03BFF06F64C7106F292
:10298000EC4019F035FF06F6547106F2F44019F0E8
:102990002FFF06F65C7106F2FC4019F029FF06F6DF
:1029A000647106F2045019F023FF06F66C7106F20A
:1029B0000C5019F01DFF06F6747106F2145019F050
:1029C00017FF06F67C7106F21C5019F011FF06F68F
:1029D000847106F2245019F00BFF06F68C7106F292
:1029E0002C5019F005FF06F6947106F2345019F0D8
:1029F000FFFE06F69C7106F23C5019F00FFF42F202
:102A00002860304410F0E0FB42F6E800304410F05B
:102A1000DBFB41F2A840304419F014FF012805D037
:102A2000012116F52A7017F08FF804E0002116F541
:102A30002A7017F089F816F5477016F0ABF90128DF
:102A400007D1002116F5477017F07EF830000BF023
:102A500067F816F50F6016F0FDFED6F8E419884207
:102A600005D006F6E41116F50F6016F08AFF06F69B
:102A7000F80016F0EFFE040041F2D820304416F0C2
:102A8000E9FE844206D006F6F80141F2D82030442F
:102A900016F03FFF16F525500BF0C5FF41F69030BC
:102AA00030440BF076FE079007A916F5097016F072
:102AB00068FF16F5B85015F0BFFDC0B2002818D059
:102AC00041F22870305C002804D03068C03019F022
:102AD0007EFF03E03068C03019F082FF41F22870B9
:102AE000305C002801D1012000E0002041F2287173
:102AF000705416F5DE5015F09FFDC0B2002842D08C
:102B000041F6B830305C00280CD016F5DC50006877
:102B1000401C16F5DC51086016F5DC5116F50B70FB
:102B200016F02FFF16F5D250007802282BD141F66F
:102B300088303058401C41F68831705041F68C3056
:102B40003258002141F68C303058401E1AF0C4F83B
:102B500041F68C31705041F6903030440BF07FFDDF
:102B600041F6883006EB000116F50F7016F009FFEC
:102B700041F6903030440BF00AFE069006A916F597
:102B8000117016F0FEFE16F5D2500078002809D01C
:102B9000022801F07182C0F04D81032801F01A80F3
:102BA00007F025B941F64120305C002805D0022805
:102BB00000F0E180C0F0AE80F9E016F0E8FDDFF84B
:102BC000FC1A19F0AFF9002141F2307030440CF0DA
:102BD00096FF002141F2987030440CF090FF0121E3
:102BE00016F5C0500CF0E8FE002141F658003044C4
:102BF0000CF0E2FE002141F6B00030440CF0DCFEA7
:102C0000002141F6081030440CF079FF002141F614
:102C1000701030440CF073FF002141F6D81030449E
:102C20000CF06DFF42F25000304490ED000B41F289
:102C3000A84030440FF00BF841F2084030441AF03D
:102C400052F841F2084030440DF0C6F89FED2F0BCA
:102C500041F2084030440DF0A5F941F2A84030445B
:102C60001AF045F841F6784006EB000141F2A84021
:102C700030440EF005FC002141F23070304416F073
:102C800079FF002141F29870304416F073FF002163
:102C900041F60810304416F06DFF002141F6701027
:102CA000304416F067FF002141F6D810304416F08A
:102CB00061FF002116F1780016F046FF16F5D75196
:102CC00016F5077016F05DFE41F21070304415F0F5
:102CD0006FFC002116F5247016F036FF002016F563
:102CE000F7510870002116F52F7016F02DFF002106
:102CF00016F5357016F028FF002116F5387016F01D
:102D000023FF012041F64121705450E000000000F3
:102D10000000000041F21070304415F054FCC0B2C5
:102D2000002827D016F033FDDFF8901919F0FAF8D3
:102D300016F02DFDDFF8681E18F0BBFFDFF87C19D8
:102D400019F0F0F816F023FDDFF84C1E18F0B1FF73
:102D5000DFF8681919F0E6F816F019FDDFF8401EE3
:102D600018F0A7FFDFF8541919F0DCF8022041F63B
:102D7000412170541BE016F1780016F00BF8012881
:102D800017D041F2A840304419F05CFD01280ED163
:102D900041F6F830304441F6F051314491ED000BEA
:102DA00080ED000B41F2A84030440DF0E9FB07F044
:102DB0001EB8002116F1780016F0C6FE002116F1AB
:102DC000840016F0C1FE16F10C0015F0D3FFC0B25E
:102DD000012804D024D3032819D009D320E00120EE
:102DE00016F5D2510870002041F641217054DEE7FB
:102DF00006F6883019F09EF818F098FE022016F5B5
:102E0000D2510870002041F641217054CFE70320D1
:102E100016F5D2510870002041F641217054C6E7E2
:102E200000208DF807000DF1070116F10C0016F0D7
:102E30001FFDBCE741F65030305C002815D0022859
:102E400000F0E180C0F09380042800F07E83C0F0A1
:102E50004E83062800F03484C0F0A883082800F0D0
:102E6000A186C0F0058600F0B3BE16F090FCDFF836
:102E70004C1819F057F816F08AFCDFF8241D18F0EA
:102E800018FFDFF8381819F04DF816F080FCDFF85D
:102E90000C1D18F00EFFDFF8241819F043F816F097
:102EA00076FCDFF8FC1C18F004FFDFF8101819F0AE
:102EB00039F816F5FA50D0E9002341F23070304469
:102EC0000CF035FE16F5FA50D0E9002341F2987067
:102ED00030440CF02CFE16F5FA50D0E9002316F51C
:102EE000C0500CF07BFD16F5FA50D0E9002341F6F6
:102EF000580030440CF072FD16F5FA50D0E900236A
:102F000041F6B00030440CF069FD16F5FA50D0E9F6
:102F1000002341F6081030440CF009FE16F5FA5073
:102F2000D0E9002341F6701030440CF000FE16F595
:102F3000FA50D0E9002341F6D81030440CF0F7FDE8
:102F400016F5FA50D0E9002341F2084030440DF064
:102F50002FF916F56D7016F098FC16F5DA5080ED25
:102F6000000B012041F65031705400F031BE41F2A7
:102F7000A840304419F066FC012842D141F6E840EF
:102F800006EB000141F2A84030440EF079FA01212D
:102F900041F2A84030440DF0C9FBB0EE408AF0EE9B
:102FA000608A41F2084030440DF0F6F8040041F622
:102FB00038303044D0E9002316F5DA50D0E900016A
:102FC00015F018FC41EC130BB0EE439AF0EE639A47
:102FD000200016F0C5FC41EC120BB0EE493AF0EEC1
:102FE000693A41F6F830304490ED001BB0EE480AE3
:102FF000F0EE680A300007F020F9022041F6503167
:10300000705400F0E5BD16F16C0015F0C3FE012808
:1030100050D016F5AE7015F0BDFE040041F23070D0
:1030200030440CF073FD844209D016F5AE7015F0F3
:10303000B1FE010041F2307030440CF060FD16F535
:10304000B47015F0A7FE040041F2987030440CF003
:103050005DFD844209D016F5B47015F09BFE0100A9
:1030600041F2987030440CF04AFD16F59C7015F052
:1030700091FE040016F5C0500CF0A5FC84423AD035
:1030800016F59C7015F086FE010016F5C0500CF088
:1030900093FC16F59C7015F07DFE012821D042F2BC
:1030A0005800304490ED000B41F2A84030440EF03F
:1030B000CEFD20E0002116F16C0016F045FD002049
:1030C00041F650317054002016F5D251087000209E
:1030D0008DF806000DF1060116F10C0016F0C8FB84
:1030E000FAE142F25000304490ED000B41F2A8406A
:1030F00030440EF0ACFD16F1E40015F04BFE040078
:1031000041F6580030440CF05EFC844209D016F1C0
:10311000E40015F03FFE010041F6580030440CF089
:103120004BFC16F1F00015F035FE040041F6B0003E
:1031300030440CF048FC844209D016F1F00015F040
:1031400029FE010041F6B00030440CF035FC16F1C8
:10315000FC0015F01FFE040041F6081030440CF08E
:10316000D5FC844209D016F1FC0015F013FE0100D5
:1031700041F6081030440CF0C2FC16F5847015F0CE
:1031800009FE040041F6701030440CF0BFFC84428C
:1031900009D016F5847015F0FDFD010041F67010A0
:1031A00030440CF0ACFC16F58A7015F0F3FD040009
:1031B00041F6D81030440CF0A9FC844209D016F531
:1031C0008A7015F0E7FD010041F6D81030440CF08C
:1031D00096FC41F23070304419F08DFD41F62931F2
:1031E000715CC0B2814207D041F62930315C41F2B6
:1031F0003070304416F0BEFC41F29870304419F043
:103200007AFD41F62931715CC0B2814207D041F6A6
:103210002930315C41F29870304416F0ABFC41F635
:103220000810304419F067FD41F62931715CC0B2D5
:10323000814207D041F62930315C41F60810304414
:1032400016F098FC41F67010304419F054FD41F628
:103250002931715CC0B2814207D041F62930315C1E
:1032600041F67010304416F085FC41F6D810304419
:1032700019F041FD41F62931715CC0B2814207D09D
:1032800041F62930315C41F6D810304416F072FC1A
:1032900016F5D47015F07EFD040041F2084030446C
:1032A0000CF0E2FDC0B2844210D016F5D47015F0D7
:1032B00071FD002840F0D48041F2084030440CF009
:1032C000AFFD41F2A840304419F018FD16F5DE704C
:1032D00016F02FFB040041F2084030440CF05CFF74
:1032E000844234D016F5DE7016F023FB16F038FB5E
:1032F00041EC100B41F2084030440CF053FE41F217
:10330000A840304419F0FAFC41F2084030440CF077
:10331000F7FE8DED440B44A916F5DA7016F0DBFAD2
:1033200016F5DE7016F005FB040041F2084030444B
:103330000CF032FF84420AD041F2084030440CF0D5
:103340002BFF119011A916F5DE7016F016FC16F57C
:10335000DA7016F09AFAB0EE408AF0EE608A41F226
:10336000084030440CF0CCFE53EC182B51EC100B01
:1033700015F01EFB38D016F5DA7016F086FA41F219
:10338000084030440CF084FD41F2A840304419F06C
:10339000B5FC41F2084030440CF0FEFE109010A93C
:1033A00016F5DE7016F0E9FB16F5DA7016F06DFA18
:1033B000B0EE408AF0EE608A41F2084030440CF0F2
:1033C0009FFE53EC182B51EC100B15F0F1FA0BD0BB
:1033D00041F2084030440CF093FE8DED420B42A9BF
:1033E00016F5DA7016F077FA16F5CC7015F0C2FC07
:1033F000040041F2084030440CF0D4FEE4B2C0B204
:1034000084420FD016F5CC7015F0B4FC0100C9B29F
:1034100041F2084030440CF03BFE41F2A8403044F9
:1034200019F06CFC41F61850305C00280CD00020DC
:1034300041F61851705441F6E84006EB000141F2A4
:10344000A84030440EF01CF816F5217015F0A2FCCF
:10345000002810D141F2A840304419F048FC0FE098
:1034600041F2084030440CF0B7FC41F2A84030442F
:1034700019F044FC2AE741F2A840304419F042FC1C
:1034800016F53E7015F086FC012809D141F2A840DE
:10349000304419F03BFC002116F53E7016F054FB49
:1034A00041F2A840304419F0CDF9012804D141F28D
:1034B000A84030440DF064F816F51B7015F06AFC56
:1034C00001280AD016F52F7015F064FC012803D1ED
:1034D000052041F6503170547AE3002116F51B7037
:1034E00016F032FB032041F650317054F4E741F2FC
:1034F000A840304419F0A6F9012825D116F521700D
:1035000015F048FC002805D141F2A840304419F0DC
:10351000F9FB04E041F2A840304419F0F3FB01202C
:1035200041F64421705016F11C0015F023FCC0B286
:1035300041F64821705041F2A84030440DF020F887
:10354000042041F65031705442E341F2A840304427
:1035500019F078F9012828D141F64420305841F675
:1035600048217158884212D241F644203058401CFC
:1035700041F64421705041F6442030588DF8050042
:103580000DF1050116F1A00016F072F908E041F204
:10359000A840304419F0ABFB022041F65031705482
:1035A00041F2A84030440CF0EBFF11E3012016F586
:1035B000F751087016F57F7016F067F941F6F06064
:1035C000304480ED000B06F2044016F05EF941F63F
:1035D000F860304480ED000B06F20C4016F055F90F
:1035E00016F5F85080ED000B06F21C4016F04DF970
:1035F00041F63070304480ED000B06F2244016F0A6
:1036000044F941F63870304480ED000B06F23C403E
:1036100016F03BF941F64870304480ED000B012173
:1036200041F2A84030440DF081F841F60870304472
:1036300080ED000B16F56D7016F027F916F5DA50CF
:1036400080ED000B41F2084030440CF0A5FD040071
:1036500041F638303044D0E9002316F5DA50D0E98D
:10366000000115F0C7F841EC130BB0EE438AF0EE01
:10367000638A200016F074F941EC120BB0EE483A60
:10368000F0EE683A41F6F830304490ED001B41F618
:103690000870304490ED000B300006F0CEFD16F0BF
:1036A00076F8DFF8C81C18F004FB044918F03AFC5F
:1036B000062041F6503170548AE200BFD1680508F7
:1036C00016F16C0015F066FB012800F0988116F5E4
:1036D0002F7015F05FFB002800F0B18116F5DA704D
:1036E00016F0D3F8B0EE408AF0EE608A41F208405E
:1036F00030440CF005FD53EC182B51EC100B15F079
:1037000057F90BD041F2084030440CF0F9FC8DED34
:10371000400B40A916F5DA7016F0DDF816F5DE70EC
:1037200016F007F9040041F2084030440CF034FD73
:1037300084420AD041F2084030440CF02DFD0F9035
:103740000FA916F5DE7016F018FA41F61850305C25
:1037500000284CD0002041F61851705441F6E84042
:1037600006EB000141F2A84030440DF089FE012132
:1037700041F2A84030440CF0D9FF41F608703044C3
:1037800080ED000B16F56D7016F07FF816F5DA5027
:1037900080ED000B41F2084030440CF0FDFC0400C9
:1037A00041F638303044D0E9002316F5DA50D0E93C
:1037B000000115F01FF841EC130BB0EE438AF0EE58
:1037C000638A200016F0CCF841EC120BB0EE483AB8
:1037D000F0EE683A41F6F830304490ED001B41F6C7
:1037E0000870304490ED000B300006F026FD41F6E5
:1037F000E140305C002843D0002041F6E1417054A4
:10380000002141F2A84030440CF090FF41F60870CE
:10381000304480ED000B16F56D7016F036F816F595
:10382000DA5080ED000B41F2084030440CF0B4FC5B
:10383000040041F638303044D0E9002316F5DA5060
:10384000D0E9000114F0D6FF41EC130BB0EE438A2F
:10385000F0EE638A200016F083F841EC120BB0EE14
:10386000483AF0EE683A41F6F830304490ED001BEB
:1038700041F60870304490ED000B300006F0DDFC9E
:1038800016F5357015F086FA012812D1002116F5CB
:10389000357016F059F915F07AFFDFF8EC1D18F0C5
:1038A00008FADFF8E81D18F03DFB072041F650311B
:1038B000705441F2A840304418F0C4FF012840F091
:1038C000D68041F2A84030440CF05AFE41F6F83060
:1038D000304490ED000B41F61070304418F044FF76
:1038E0008DED180B18A906F22C4015F0F4FF9DED94
:1038F000180B41F65060304418F0BEFCB0EE408A20
:10390000F0EE608AB0EE480AF0EE680A41F2084034
:1039100030440CF0BDFAB0EE480AF0EE680A41F609
:103920005870304418F0E1FE300006F0BBFD8DED1C
:10393000220B22A906F2344015F0CDFF41F6986023
:1039400006EB000106F2144015F0C5FFB0EE480A80
:10395000F0EE680A41F67070304419F0DBF941F678
:103960007070304419F046FA300006F09BFD8DED82
:10397000200B20A906F2444015F0ADFF41F670700F
:10398000304419F03FFA300006F08CFD8DED1E0B2F
:103990001EA906F24C4015F09EFF41F670703044AF
:1039A00019F028FA8DED1C0B1CA906F2544015F0F5
:1039B00092FF41F67070304419F024FA8DED1A0B25
:1039C0001AA906F25C4015F086FF41F6707030448B
:1039D00019F018FAB0EE408AF0EE608A06F27C40E8
:1039E00015F053FF51EC180B53EC102B19F034FA6F
:1039F00038D3002116F5387016F0A6F837E000210C
:103A000016F16C0016F0A0F8002041F65031705409
:103A100015F0BDFEDFF8781C18F04BF9DFF86C1CD0
:103A200018F080FA002016F5D251087000208DF8A9
:103A3000040001A916F10C0015F01AFF17E002208E
:103A400041F650317054002016F5F751087015F00A
:103A50009EFEDFF83C1C18F02CF9DFF8301C18F043
:103A600061FA04E0012116F5387016F06DF8AFE048
:103A700041F2084030440CF0E3FBC0B2002800F0F3
:103A800085809FED430B41F2084030440CF08AFAE8
:103A9000012141F2A84030440CF048FE41F6087084
:103AA000304480ED000B16F56D7015F0EEFE16F546
:103AB000DA5080ED000B41F2084030440CF06CFB12
:103AC000040041F638303044D0E9002316F5DA50CE
:103AD000D0E9000114F08EFE41EC130BB0EE438AE6
:103AE000F0EE638A200015F03BFF41EC120BB0EEC4
:103AF000483AF0EE683A41F6F830304490ED001B59
:103B000041F60870304490ED000B300006F095FB54
:103B100041F69860304400220023C0E9002316F5E6
:103B2000F45000220023C0E9002341F678603044BD
:103B300000220023C0E9002341F6886030440022BF
:103B40000023C0E9002341F618703044002200230E
:103B5000C0E9002316F5F95000220023C0E9002334
:103B600041F65870304400220023C0E9002316F5C6
:103B7000FB5000220023C0E9002341F6707030445E
:103B800019F081F9082041F65031705420E000BF4F
:103B900000000000000000002479050848790508AD
:103BA0000079050841F2084030440CF049FBC0B2EE
:103BB00000280DD015F0EBFDDFF8D81A18F079F8D1
:103BC000DFF8C81A18F0AEF9062041F650317054EB
:103BD00006F00DB941F65130305C002817D00228AC
:103BE00000F0A580C0F08080042800F02B81C0F098
:103BF000F180062800F07381C0F05A81082800F097
:103C0000D881C0F08B81092800F0F68102E215F01E
:103C1000BEFDDFF8781A18F085F915F0B8FDDFF869
:103C2000781A18F046F8DFF8641A18F07BF915F0E6
:103C3000AEFDDFF8681A18F03CF8DFF8501A18F0FB
:103C400071F915F0A4FDDFF8501A18F032F8DFF81A
:103C50003C1A18F067F916F5D07015F08BF8C0B261
:103C60006421484341F65021705041F650203058AD
:103C700003280ED2032041F65021705041F6502007
:103C800030588DF803000DF1030116F5D07015F0D2
:103C9000EFFD16F11C0015F06DF841F61831705467
:103CA00016F5037015F0F1FD41F65830304480ED03
:103CB000000B16F5077015F0CDFD16F5D75108600D
:103CC00016F5D75000680E900EA812F087FACDE9CD
:103CD0003E013EA941F66830304414F061FC0120F9
:103CE00041F65131705495E1300019F0DBF8C0B263
:103CF00000281BD0012141F2307030440BF0FFFE50
:103D0000012141F6081030440BF0F9FE002141F684
:103D1000D81030440BF0F3FE002141F6B0003044DF
:103D20000BF04AFE022041F65131705472E130002E
:103D300019F0B8F8C0B200284BD0002016F5DB51BE
:103D40000870002041F64421705041F6582030445C
:103D500041F65831314491ED000B80ED000B41F6F6
:103D600050203058400819F0CFF802000B0041F6FF
:103D700058203044D0E9000119F0D6F841F6582215
:103D80003244C2E9000115F002FDDFF8141917F002
:103D900090FF41F65021715818F066F815F0F7FCC5
:103DA000DFF8E81818F0BEF815F0F1FCDFF8F418A9
:103DB00017F07FFF41F65821314491ED000B19F0C7
:103DC00024F9DFF8C81818F0ADF8032041F6513196
:103DD00070541FE141F2084030440CF031FAC0B297
:103DE00000282ED041F65820304490ED000B41F2CF
:103DF000084030440CF0D6F841F66830304414F0F6
:103E0000D7FB15F0C4FCDFF8841818F08BF8DFF846
:103E1000981817F04EFF040016F5077015F01AFDFC
:103E20000100200018F020F815F0B1FC5DA117F09A
:103E300040FFDFF8581818F075F8042041F65131AA
:103E40007054E7E041F66830304414F0BCFBC0B277
:103E500000280CD141F2A840304418F0F3FC0128AE
:103E600004D141F2A84030440CF08AFBD2E041F684
:103E70006830304414F0A4FB41F61850305C002840
:103E80000CD0002041F61851705441F6E84006EB82
:103E9000000141F2A84030440DF0F2FA41F2A8408E
:103EA000304418F02FFF062041F651317054DDE701
:103EB00041F2084030440CF0C3F9C0B200280DD0E4
:103EC00041F65820304490ED000B41F20840304458
:103ED0000CF068F8062041F6513170549AE041F236
:103EE000084030440CF0ACF9C0B2002808D041F2D0
:103EF000A840304418F0A6FC012801D1012000E0C0
:103F00000020C0B2002808D041F2A84030440CF094
:103F100037FB072041F6513170547BE041F2A84055
:103F2000304418F08FFC012842D116F5DB500078A0
:103F3000401C41F61831715C88420BDA16F5DB50F3
:103F40000078401C16F5DB510870062041F651310F
:103F500070542DE0002016F5DB51087041F6442026
:103F60003058401C41F65021715888421CD241F60D
:103F700044203058401C41F64421705041F65820EE
:103F80003044D0E900230020DFF8201719F0A4F80E
:103F900041F658223244C2E90001052041F6513170
:103FA000705405E020630000082041F65131705440
:103FB00030E0300018F076FFC0B200281BD000219E
:103FC00041F2307030440BF09AFD002141F60810A8
:103FD00030440BF094FD002141F6D81030440BF032
:103FE0008EFD002141F6B00030440BF0E5FC0920C5
:103FF00041F6513170540DE0300018F053FFC0B25B
:10400000002807D0002016F5D2510870002041F694
:104010005131705416F16C0014F0BCFE012829D106
:1040200015F0B5FBDFF8701617F043FEDFF85C16ED
:1040300017F078FF15F0ABFBDFF8281E17F039FEFC
:10404000DFF8481617F06EFF002116F16C0015F02E
:104050007BFD002041F651317054002016F5D251FD
:10406000087000208DF802000DF1020116F10C001D
:1040700015F0FEFB05F0BBBE41F64220305C002887
:1040800000F0A780012800F06383022800F08C83F1
:10409000032800F0D283042800F01684052800F0DD
:1040A0005184062800F0A884072800F0B985082864
:1040B00000F0C985092800F0F8860A2800F0088772
:1040C0000B2800F097870C2800F0B0870D2801F02E
:1040D00035800E2801F083800F2801F0928010288F
:1040E00001F09C80112801F05480122801F06980B1
:1040F000132801F0F181142801F0D183152801F073
:104100006286162801F07286172801F02087182889
:1041100001F08187192802F0BF801A2802F0E78099
:104120001B2802F01C811C2802F070811D2802F05F
:1041300081811E2802F09081202802F00884212825
:1041400002F08886222802F09D86232802F0AE869F
:10415000242802F0B186252802F05087262803F093
:104160000382272803F06482282803F07B82292811
:1041700003F042832A2803F0DF832B2803F098847E
:104180002C2803F04B862D2803F015872E2803F0EA
:1041900033872F2803F03D87302803F05F873128CD
:1041A00003F07087322803F07887332804F04F80BB
:1041B000342804F08781352804F0B581362804F0CE
:1041C0000682372805F03685382805F0B18505F0D8
:1041D000C3BD15F0DCFADFF8B41417F0A3FE15F038
:1041E000D6FADFF8B41417F064FDDFF8A01417F066
:1041F00099FE15F0CCFADFF8741C17F05AFDDFF8C1
:104200008C1417F08FFE15F0C2FADFF88C1417F03B
:1042100050FDDFF8781417F085FE15F0B8FADFF8D6
:10422000501C19F015F816F1B40015F02EFB41F6EC
:104230009020304480ED000B16F1BC0015F025FBFA
:1042400041F68820304480ED000B002016F5D45153
:10425000087016F5FE7015F0FDFA0D900DA814F01B
:1042600011F941F6D0223244C2E9000116F5757009
:1042700015F0F0FA0C900CA814F004F941F6D822CD
:104280003244C2E9000141F6D0203044D0E9002395
:1042900041F2084030440BF08BFF41F208403044BB
:1042A00018F0DFFF16F5017015F0D4FA0B900BA88B
:1042B00014F0E8F841F6C8223244C2E9000141F6A0
:1042C000C8203044D0E9002341F2307030440BF074
:1042D0002EFC41F6C8203044D0E9002341F298700A
:1042E00030440BF024FC41F6C8203044D0E90023D0
:1042F00016F5C0500BF072FB41F6C8203044D0E9EF
:10430000002341F6580030440BF068FB41F6C8200A
:104310003044D0E9002341F6B00030440BF05EFB9E
:1043200041F6C8203044D0E9002341F6081030445B
:104330000BF0FDFB41F6C8203044D0E9002341F6E4
:10434000701030440BF0F3FB41F6C8203044D0E944
:10435000002341F6D81030440BF0E9FB16F5157038
:1043600014F018FD002803D0012002E0A4CE0508B7
:10437000002041F62931705441F62930315C06F6AF
:10438000886015F0E1FB41F62930305C00281DD033
:10439000012141F23070304415F0ECFB012141F273
:1043A0009870304415F0E6FB012141F608103044C6
:1043B00015F0E0FB012141F67010304415F0DAFBF6
:1043C000012141F6D810304415F0D4FB41F6C82045
:1043D00006EB000141F63860304414F0E1F816F5C0
:1043E000D07014F0C7FCC0B241F65021705016F5E1
:1043F0006F7015F09EFA41F65421705016F57170E9
:1044000015F097FA41F63041705016F5737015F0BB
:1044100090FA41F63441705016F56F7015F089FA34
:1044200041F65421715881420FD041F6542006EBD9
:10443000000116F56F7015F0A0FB41F6542006EB55
:10444000000106F6FC6015F098FB16F51E7014F0DE
:10445000A1FC002801D0012000E0002041F6184115
:10446000705442F23800304400220023C0E9002397
:1044700041F61C30304418F0F8FE41F6E820304494
:1044800018F00EFF41F6F420304418F009FF16F141
:104490001C0014F06FFC41F61831705441F61830CE
:1044A000305C022828DB41F6183006EB000116F1DB
:1044B000A00015F0DDF915F06AF9774917F0F9FB5E
:1044C000724917F02FFD15F062F9DFF86C1E17F036
:1044D000F0FB15F05CF941F61831715C18F0FBFE49
:1044E0006A4917F01FFD15F052F96B4917F0E1FB0F
:1044F000664917F017FD08E001208DF801000DF165
:10450000010116F1A00015F0B3F916F1600014F0E6
:1045100041FC002801D0012000E0002041F62831B4
:10452000705441F62830315C16F1600015F00CFB38
:1045300041F2A840304418F041FF16F5E95141F22C
:10454000A84030440CF09CFF15F021F9DFF8EC1D79
:1045500017F0AFFB4D4917F0E5FC16F5077015F0A5
:1045600079F916F5D75108604FF47A700A900AA8C5
:1045700013F088FFCDE93C013CA941F66830304496
:1045800014F00EF8002016F5DC510860002041F60A
:10459000883170500020059005A916F50F7015F0B0
:1045A000F0F941F6903030440AF022F816F5D75071
:1045B000016841F6903030440AF048F816F5C670AC
:1045C00014F0E8FB002801D0012000E0002041F6B3
:1045D000D031705441F60840304400220023C0E935
:1045E000002341F61040304400220023C0E900239C
:1045F00041F63C40304418F0E5FE002041F62C41E5
:104600007050002041F65841705416F5777015F03F
:104610003CF916F5E35080ED000B16F5797015F0B6
:1046200034F941F66840304480ED000B41F66820D3
:10463000304400220023C0E90023012142F2780027
:10464000304418F0DAFE16F52D7014F093FB0100DB
:10465000C9B2300009F0A2FF41F64C21705415F0A8
:1046600096F8DFF81C1E17F024FB41F64C21715C14
:1046700018F031FE41F64C20305C002818D002289A
:104680002CD020D335E000BF54C30508D1680508FD
:10469000ACCE050860C30508007905086C790508EB
:1046A0002CBB0508C8A60508B4CE05080000F03FDD
:1046B00015F06DF8DFF8CC1D17F0FBFADFF8C81D18
:1046C00017F030FC1FE015F062F8DFF8C01D17F09E
:1046D000F0FADFF8B41D17F025FC14E015F057F8D8
:1046E000DFF8AC1D17F0E5FADFF89C1D17F01AFC97
:1046F00009E015F04CF8DFF89C1D17F0DAFADFF846
:10470000881D17F00FFC41F6D070304418F07BFE86
:10471000012042F63811705442F63810315C41F6EF
:10472000903030440AF037F8142141F6903030448C
:104730000AF098F8002041F670417054002041F6CC
:1047400071417054012041F64221705405F004BBC0
:10475000300018F0A7FBC0B2002823D041F6283063
:10476000305C00280ED0002116F5C0500BF024F963
:1047700042F25800304490ED000B41F2A840304422
:104780000DF065FA002141F6D81030440BF0B7F96E
:10479000002141F6B00030440BF00EF9022041F642
:1047A0004221705405F0D8BA300018F07BFBC0B23B
:1047B000002840D0012041F6B831705416F5DE5083
:1047C00013F034FF16F5D4500078002802D00128E9
:1047D00017D02CE014F0DBFFDFF8BC1C17F069FAEF
:1047E000DFF8A41C17F09EFB012141F298703044C1
:1047F0000BF085F9012141F6701030440BF07FF980
:1048000015E014F0C4FFDFF8941C17F052FADFF83B
:10481000781C17F087FB012141F2307030440BF017
:104820006EF9012141F6081030440BF068F90320BD
:1048300041F64221705405F08FBA300018F032FB77
:10484000C0B200283ED041F63860304413F0B0FECC
:1048500016F5017014F0FEFF00EE100AB8EE400AE3
:1048600010EE100A18F0EAFDDFF8342CDFF8343CC3
:1048700013F0C0FF18F006FE08EE100A14F087FFD0
:104880000400022148A814F0C9FFDDE94801CDE980
:10489000BC01BCA9200014F0CDFF14F078FFDFF8B4
:1048A000081C17F006FAB0EE480A18F01FFED5A152
:1048B00017F0FFF9DFF8D01B17F034FB042041F6A6
:1048C0004221705405F048BA41F63860304413F084
:1048D0007AFEC0B2002833D014F059FFDFF8CC1BA9
:1048E00017F0E7F9DFF8A01B17F01CFB41F64C208E
:1048F000305C012804D1052041F6422170541FE0AC
:1049000041F61C30304418F056FE002814D116F53C
:10491000D450007800280FD116F5255018F05BFE12
:10492000002804D1172041F64221705408E00B20E2
:1049300041F64221705403E01A2041F6422170549E
:1049400005F00ABA41F2084030440BF079FCC0B2DD
:1049500000284FD016F5D4500078002802D0012846
:1049600012D02AE041F68820304490ED001B41F639
:104970009020304490ED000B0EF0C4FE41F6702004
:10498000304480ED000B18E041F63C40304418F014
:1049900024FE401E010041F63C40304418F02DFE3C
:1049A00090ED040B18F036FE51EC100B91F0004125
:1049B00041F670223244C2E9000141F6D820304469
:1049C000D0E9002341F2084030440BF0F1FB41F6FE
:1049D0007020304490ED000B41F2084030440BF061
:1049E000E1FA41F2A840304418F0E8FC062041F614
:1049F0004221705405F0B0B941F2084030440BF048
:104A00001FFCC0B2002808D041F2A840304417F083
:104A100019FF012801D1012000E00020C0B20028C8
:104A200000F0FC8041F6B04006EB00010DF5C760D8
:104A30000BF0F4FC01208DF859060DF5C76141F229
:104A4000A84030440CF01CFD16F57D7014F01DFFDD
:104A500041F6E860304480ED000B16F5677014F005
:104A60000DF941F6E261705216F5697014F006F91D
:104A700041F6E461705216F5507014F08BF900287D
:104A800001D0012000E0002016F50051087000213F
:104A900041F2A84030440BF0F5FDB0EE408AF0EE54
:104AA000608A41F6E8603044D0E9002351EC180BED
:104AB00013F0A0FE18F0E2FDCDF83C060DF5C7613D
:104AC00041F2A84030440CF0DBFC00220DF5C76138
:104AD00041F2A84030440CF00BFDDDF83C0642F2F8
:104AE0004801705042F24800305818F00DFA53EC6B
:104AF000182B13F06DFF16F50152C2E9000141F6C3
:104B0000E8603044D0E9000116F50152D2E90023F3
:104B100018F00AFACDE9160114F039FEDFF8D41DB9
:104B200017F0C7F814F033FEDFF85C1917F0FAF944
:104B30000DF5C762012141F2A84030440CF0FEFDA2
:104B400014F025FEDFF8681917F0B3F814F01FFE13
:104B5000C74918F07DFBDFF8A01D18F079FB41F67E
:104B6000E861314491ED000B18F04FFA14F00FFE9C
:104B7000BDA117F09EF8DFF8101917F0D3F9DDE9A1
:104B800016010022002318F067F913D814F0FFFD76
:104B9000DFF8201917F08DF8DFF8EC1817F0C2F9DC
:104BA00041F2A84030440BF0EBFC082041F64221D2
:104BB000705433E016A818F075FDCDE93A013AA912
:104BC00041F63860304413F0EBFC41F63860304475
:104BD00013F0EEFC14F0DBFDDFF8DC1817F069F8D9
:104BE00014F0D5FDA24918F033FBDFF80C1D18F0C6
:104BF0002FFB9DED160B18F008FA14F0C8FD9AA1D2
:104C000002E000BF2063000017F053F8DFF87818C7
:104C100017F088F9072041F64221705405F09CB83E
:104C200041F63860304413F0CEFCC0B2002808D002
:104C300041F2A84030440BF0A3FC082041F6422189
:104C4000705405F089B841F2A840304417F0FAFDDD
:104C5000012840F028810DF51A6141F2A840304446
:104C60000CF0D2FF41F6F83030444DF804CD0DF58C
:104C7000006C9CED690B5DF804CB80ED000B42F2FB
:104C8000380030444DF804CD0DF5006C9CED6B0BF5
:104C90005DF804CB80ED000B14F079FD744918F039
:104CA000D7FADFF8541C18F0D3FA0400002148A802
:104CB00014F0B4FDDDE94801CDE9BA01BAA920003C
:104CC00014F0B8FD14F063FDDFF8F01716F0F1FFF3
:104CD00014F05DFD41F67021314491ED000B18F0A8
:104CE00094F9DFF8A41717F01DF914F050FD040033
:104CF000072148A814F092FDDDE94801CDE9B8018B
:104D0000B8A9200014F096FD14F041FDDFF8B017AB
:104D100016F0CFFF14F03BFD41F6F831314491ED30
:104D2000000B18F072F914F032FDE4A116F0C1FF87
:104D3000DFF8541717F0F6F814F029FDDFF88417A0
:104D400016F0B7FF14F023FD040042F2380030449F
:104D5000D0E900230020DFF8701713F04BFD41EC81
:104D6000100B200018F051F914F011FDDFF85C175A
:104D700016F09FFFDFF8101717F0D4F814F007FDB6
:104D8000DFF84C1716F095FF14F001FDDDF8C81997
:104D900017F06AF814F0FBFCDFF8EC1617F0C2F815
:104DA00016F500500078002869D041F6F870305CA4
:104DB00000285FD041F67020304490ED001B41F692
:104DC000F830304490ED000B41F6D070304418F0CC
:104DD0008BFC41F6F8303044D0E90001002200237A
:104DE00018F096FC16D241F638303044D0E9000174
:104DF0000022DFF8E03613F0EBFD41F6702232447A
:104E0000D2E9002318F068F941F670223244C2E971
:104E1000000117E041F638303044D0E900010022AB
:104E2000DFF8B03613F0D4FD02000B0041F670201D
:104E30003044D0E9000118F077F841F6702232448E
:104E4000C2E9000141F67020304490ED000B41F2C0
:104E5000084030440BF0A6F8092041F64221705476
:104E600021E000BF9079050820F10000B479050821
:104E700079B40508132041F64221705413E041F63D
:104E800038303044D0E9002316F5DA50D0E900017B
:104E900013F0B0FC41F648323244C2E9000113205D
:104EA00041F64221705404F057BF41F208403044AB
:104EB0000BF0C6F9C0B2002808D041F2A840304437
:104EC0000BF05EFB0A2041F64221705404F044BF0F
:104ED00041F2A840304417F0B5FC012840F088802A
:104EE00040F65811694441F2A84030440CF08CFE61
:104EF00041F6F83030444DF804CD0DF5006C9CEDD2
:104F0000570B5DF804CB80ED000B14F040FCDFF88C
:104F1000701E18F09DF9DFF8E01918F099F90400F7
:104F2000002148A814F07AFCDDE94801CDE9B6017A
:104F3000B6A9200014F07EFC14F029FCDFF8441E12
:104F400016F0B7FE14F023FC41F67021314491EDC8
:104F5000000B18F05AF8DFF8301516F0E3FF14F0E4
:104F600016FC0400072148A814F058FCDDE94801AC
:104F7000CDE9B401B4A9200014F05CFC14F007FCE6
:104F8000DFF8041E16F095FE14F001FC41F6F8312E
:104F9000314491ED000B18F038F814F0F8FB47A1FC
:104FA00016F087FEDFF8E01416F0BCFF41F6702023
:104FB000304490ED001B41F6F830304490ED000B8A
:104FC00041F6D070304418F08FFB41F6D070304479
:104FD00018F0B8FB41F64830304441F6F0713144E6
:104FE00091ED000B80ED000B132041F6422170542F
:104FF00004F0B2BE41F2A840304417F023FC01286F
:1050000012D114F0C4FBDFF8841D16F052FEDFF855
:10501000781416F087FF41F2A84030440BF0B0FA44
:105020000C2041F64221705404F096BE41F2A84093
:10503000304417F007FC012840F07E800DF5116127
:1050400041F2A84030440CF0DFFD4DF804CD0DF5E1
:10505000006C9CED458B5DF804CB14F098FB0400CC
:10506000072148A814F0DAFBDDE94801CDE9B201D7
:10507000B2A9200014F0DEFB14F089FBDFF8081D54
:1050800016F017FE14F083FBB0EE480AF0EE680A43
:1050900017F0BBFF14F07BFB08A116F00AFEDFF847
:1050A000E81316F03FFF41F64C20305C012812D186
:1050B00014F06DFBDFF8D81C02E000BF20C2000036
:1050C00016F0F7FDDFF8C01316F02CFF0D2041F6A7
:1050D0004221705430E09DF85009002813D014F09C
:1050E00056FBDFF8B01C16F0E4FD14F050FBDFF8BF
:1050F000A81C16F0DEFDE44916F014FF0D2041F661
:105100004221705418E014F042FBDFF8901C16F0B6
:10511000D0FD14F03CFBDFF8881C16F0CAFD14F03B
:1051200036FBDFF8801C16F0C4FDD74916F0FAFEF6
:10513000172041F64221705404F00EBE41F208409F
:10514000304418F08EF841F65820304441F6702172
:10515000314491ED000B80ED000B16F5D35041F674
:105160007821314491ED000B80ED000B002041F6D9
:1051700044217050132041F64821705041F20840FC
:1051800030440AF029FE112041F64221705404F007
:10519000E3BD41F2084030440BF052F8C0B20028A1
:1051A0000DD041F65820304490ED000B41F20840FC
:1051B00030440AF0F7FE122041F64221705404F008
:1051C000CBBD41F2084030440BF03AF8C0B20028A1
:1051D00003D00E2041F64221705404F0BDBD41F2CF
:1051E000A840304417F02EFB012808D141F2A84016
:1051F00030440BF0C5F90F2041F64221705404F001
:10520000ABBD41F2A840304417F01CFB012803D18C
:10521000102041F64221705404F09EBD40F6C801B2
:10522000694441F2A84030440CF0EEFC41F6F830FD
:1052300030444DF804CD0DF5006C9CED330B5DF85A
:1052400004CB80ED000B41F644203058401CCDF8D3
:10525000100641F658203044D0E9000114F0C6FC95
:10526000CDF8140616F5D350D0E9000118F006FA6F
:10527000CDF8180641F6F830304490ED000B4DF8AB
:1052800004CD0DF5806C8CED890B5DF804CB0DF52C
:105290000063D3E9342300208B4913F0ABFA41ECCF
:1052A000100B51EC100B31F0004141EC100B4DF89C
:1052B00004CD0DF5806C8CED8B0B5DF804CBDDF827
:1052C000F008CDF830060DF5C2600EF044F89DF8F8
:1052D0000809002807D041F64420305841F64821FB
:1052E0007158884230D341F64C20305C012827D1D8
:1052F00041F6F970305C00280ED141F65820304458
:1053000090ED001B41F6F830304490ED000B41F673
:10531000D070304418F0E8F941F6F970305C00289C
:1053200012D041F6D070304418F00CFA012041F64A
:105330007041705408E000BFDCA6050860700508E5
:10534000012041F67041705441F67040305C0028F5
:105350004CD041F2084030440AF01EFF14F000FB2C
:1053600041F668223244C2E90001012041F6704151
:10537000705414F00CFADFF8281A16F09AFC14F0A6
:1053800006FADFF8141D16F094FC3F4916F0CAFD2A
:1053900014F0FDF90400002148A814F03FFADDE9FB
:1053A0004801CDE9B001B0A9200014F043FA14F08F
:1053B000EEF9DFF8E81C16F07CFC41F66821314478
:1053C00091ED000B17F021FE2F4916F0ABFD41F6D1
:1053D0004C20305C012804D1132041F64221705446
:1053E0004BE0172041F64221705446E041F644203C
:1053F0003058401C41F64421705041F6F83030449A
:10540000D0E900010022002318F082F910D241F601
:1054100058203044D0E9002316F5D350D0E90001DC
:1054200017F05AFE41F658223244C2E900010FE05B
:1054300041F658203044D0E9000116F5D352D2E9A4
:10544000002317F071FD41F658223244C2E90001F1
:1054500016F5D350D0E900230020DFF8441C13F0E8
:10546000C9F941EC100B18F0C9F916F5D35080EDCD
:10547000000B112041F64221705404F06DBC00BFB6
:105480006CC3050878C30508D1680508BCCE0508BB
:10549000349A0508C4CE0508D8790508FC790508B2
:1054A000FCA9F1D24D62503F84C3050890C30508A2
:1054B0004C9A0508207A05083CBB0508649A050843
:1054C000508F05084CBB050880842E41CCCE0508C2
:1054D000D4CE05080000144016F5D45000780028FA
:1054E0000FD141F67140305C00280AD141F6683096
:1054F000304413F05DF816F5D750006841F6E4210A
:105500007050002042F20101705441F6E260305ABE
:10551000099009A810F062FECDE9380138A942F2DD
:105520001800304413F03CF842F21800304413F0F5
:105530003FF814F02CF9DFF8701B16F0BAFB14F0EA
:1055400026F941F6E261715A18F08CF9E8A116F0DB
:10555000B0FBDFF8581B16F0E5FC41F6E260305A6C
:1055600041F6E461715A88420ED314F010F9DFF865
:10557000441B16F09EFBDFF8341B16F0D3FC002012
:1055800041F6E46170521DE014F001F9DFF8281BC8
:1055900016F08FFB14F0FBF841F6E461715A18F035
:1055A00061F9D3A116F085FBDFF8001B16F0BAFCF9
:1055B00041F6E460315A41F6E260305A091A41F688
:1055C000E460315241F6B04006EB000140F698002D
:1055D00068440AF023FF42F248003058CDF89C0896
:1055E00040F69801694441F2A84030440BF048FF6E
:1055F00014F0CDF8BF4916F05CFBDFF8B01A16F0D6
:1056000091FC41F67070304417F03DFC42F24800C6
:10561000315841F67070304418F083F942F2480076
:10562000315841F67070304418F09FF9002141F272
:10563000A84030440BF037F9C0B200280AD141F637
:10564000D0203044D0E9002341F2084030440AF031
:10565000AFFD11E0002141F2A84030440BF066F8A4
:105660008DED360B36A818F01DF802000B0041F244
:10567000084030440AF09CFD14F089F8DFF8601E01
:1056800016F017FB14F083F8DFF8F41617F0E0FDBE
:10569000994917F0DDFD16F5015191ED000B17F05A
:1056A000B4FC14F074F8DFF83C1E16F002FB42F272
:1056B0004801715816F0D8FB14F069F8DFF8281E7D
:1056C00016F0F7FADFF8E41916F02CFC41F2A840C6
:1056D00030440AF055FF002041F64421705041F655
:1056E0005820304441F67021314491ED000B80ED9B
:1056F000000B16F57F7014F0C8F841F6F0603044E6
:1057000080ED000B06F2044014F0BFF841F6F8609B
:10571000304480ED000B06F20C4014F0B6F816F59C
:10572000F85080ED000B06F21C4014F0AEF841F684
:105730003070304480ED000B06F2244014F0A5F8E0
:1057400041F63870304480ED000B06F23C4014F016
:105750009CF841F64870304480ED000B002141F286
:10576000A84030440AF0E2FF41F60870304480ED72
:10577000000B002141F2A84030440BF094F8C0B275
:1057800000282CD1DFF8640DD0E9000118F0F2F800
:1057900004000D0041F6D0203044D0E9000118F09B
:1057A000E9F822002B0013F025F804000D00DFF8C3
:1057B000400DD0E9000118F0DDF802000B002000D8
:1057C000290013F005F941F608723244D2E90023AA
:1057D00017F082FC41F608723244C2E9000141F63A
:1057E0004830304490ED003B41F67020304490ED5D
:1057F000002B41F6F830304490ED001B41F6087064
:10580000304490ED000B300004F017FD13F0BFFFA3
:10581000DFF8E01C16F04DFA13F0B9FF41F64831FD
:10582000314491ED000B17F0F0FB13F0B0FFDFF8FF
:10583000C81C16F03EFADFF8741816F073FB06F277
:105840006C4013F097FAC0B20EF073F842F23001D8
:105850007054300009F09FF940F698026A44012123
:1058600041F2A84030440BF069FF13F090FFDFF8DD
:105870008C1C16F01EFADFF8341816F053FB13F0E8
:1058800086FFDFF87C1C16F014FADFF8201816F0FB
:1058900049FB142041F64221705404F05DBA41F6F0
:1058A0007140305C00282FD141F66830304412F04E
:1058B0008AFEC0B2002827D041F6E42030580028E4
:1058C0000CD041F66830304412F072FE41F6E4200C
:1058D0003058401E41F6E421705015E0012041F699
:1058E0007141705413F053FFDFF8181C06E000BF3D
:1058F00020F1000088700508DFA3050816F0D9F92B
:10590000DFF8A81716F00EFB002742F20100305C0A
:10591000002809D042F21800304412F054FEC0B200
:1059200000282DD001272BE042F21800304412F05D
:105930004AFEC0B2002823D0012042F20101705477
:1059400041F6E460305A089008A810F047FCCDE911
:10595000340134A942F21800304412F021FE42F220
:105960001800304412F024FE13F011FFDFF8981BEA
:1059700016F09FF913F00BFFDFF8301716F0D2FA8C
:105980000024002141F2A84030440AF08CFFC0B24C
:10599000002809D041F2A84030440AF073FFC0B299
:1059A000002801D0012000E00020C0B2002800D073
:1059B0000124002141F2A84030440AF074FFC0B233
:1059C000002808D141F2A840304416F03BFF0128DE
:1059D00001D1012000E00020C0B2002800D0012445
:1059E000E4B2002C00F0C98118F058F804000D0052
:1059F0000DF5056141F2A84030440CF005F941F67F
:105A0000F83030444DF804CD0DF5006C9CED150BCD
:105A10005DF804CB80ED000B41F6E140305C0028DE
:105A200004D116F5E750007800283FD0002041F659
:105A3000E1417054002016F5E751087041F6B0407E
:105A400006EB000141F2A84030440BF019FD0021A3
:105A500041F2A84030440AF069FE41F60870304433
:105A600080ED000B41F64830304490ED003B41F6AC
:105A70005820304490ED002B41F6F830304490ED42
:105A8000001B41F60870304490ED000B300004F02C
:105A9000D4FB300009F07FF841F6B04006EB00027D
:105AA000012141F2A84030440BF048FE4DF804CDEE
:105AB0000DF5006C9CED230B5DF804CB41F61070E6
:105AC000304416F051FEB0EE408AF0EE608AB0EE3F
:105AD000480AF0EE680A41F65060304416F0CCFBFC
