:020000040800F2
:1000000058CB0020E5480608B9670208C96702080E
:10001000D9670208E9670208F967020800000000D2
:100020000000000000000000000000000968020855
:1000300019680208000000002968020839680208EF
:10004000B56B0208B56B0208B56B0208B56B020808
:10005000B56B0208B56B020849680208B56B020867
:10006000B56B020865680208B56B0208B56B02083B
:10007000B56B0208B56B0208B56B0208B56B0208D8
:10008000B56B0208B56B0208B56B0208B56B0208C8
:10009000B56B0208B56B0208B56B020881680208EF
:1000A000B56B020815690208B56B0208B56B02084A
:1000B000B56B020855690208B56B0208B56B0208FA
:1000C000B56B0208B56B0208B56B0208B56B020888
:1000D000B56B0208D56A0208E56A0208F56A0208EB
:1000E00065690208B56B0208B56B02080F6A020861
:1000F000416A0208B56B0208756A0208B56B02080E
:10010000B56B0208056B0208B56B0208B56B0208F7
:10011000156B0208256B0208B56B0208B56B020867
:10012000356B0208456B0208556B0208656B0208C7
:10013000B56B0208B56B0208B56B0208B56B020817
:10014000B56B0208B56B0208B56B0208856B020837
:10015000B56B0208756B0208B56B0208956B020857
:10016000B56B0208B56B0208B56B0208B56B0208E7
:10017000B56B0208A56B0208B56B0208B56B0208E7
:10018000B56B020880B516480078002806D100211A
:10019000144811F035FC012011490870124800780C
:1001A000002806D10021114811F02AFC01200E4937
:1001B00008700F480078002806D100210D4811F082
:1001C0001FFC01200A4908700B480078002806D15E
:1001D00000210A4811F014FC01200749087001BDF4
:1001E000CF9A0020889A0020D09A0020909A002070
:1001F000D19A00208C9A0020D29A0020849A002064
:100200002DE9F8432DED048BEAB0040089469046B1
:10021000C4F80090002300220021201D11F0F2FB01
:10022000C4F8E489206810F5A47104F6E81012F00F
:10023000C9FE206810F590700090206810F5887352
:10024000206810F58072012114F5236017F007F87B
:1002500004F6782017F05AFA04F6B82017F078FB65
:1002600004F6D42017F09AFB14F52E6017F096FBD5
:1002700004F6EC2017F092FB04F6F82017F098FB38
:10028000002104F6883017F02FFC04F68C3017F0AC
:10029000A4FC002204F69831201D17F08FFD800881
:1002A0000200206810F1980104F6983018F097FDCC
:1002B0000120269026A819F0D3F8CDE904014020AA
:1002C000029000200190012000904FF4805320689C
:1002D00010F1D002206810F54C7114F546601AF048
:1002E00022FD0023002214F5466114F55C601AF02B
:1002F00073FD14F55C6214F5466141F2BC30204494
:100300000BF090F800200290206810F5EA70019040
:10031000206810F5E2700090206810F5DA7320680C
:1003200010F5D272206810F5417114F59E501BF043
:10033000CDF814F59E5141F20840204412F026FBFE
:10034000206810F55773206810F5AA72206810F520
:10035000367141F2A840204412F0F5FE6420259049
:1003600025A81BF019FBCDE92E012EA941F2F06062
:1003700020441BF0E0FB4FF4FA70249024A81BF0FB
:100380000BFBCDE92C012CA914F5B8501BF0D3FBC5
:100390004FF47A70239023A81BF0FEFACDE92A01CE
:1003A0002AA941F2107020441BF07AFB002041F290
:1003B00028716054DFF8001C63A81BF09BFC6420CC
:1003C000229022A81BF0E8FA00220492CDE9020153
:1003D0000020009063AB206810F50172206810F5D2
:1003E000057141F23070204412F065F963A81BF0EA
:1003F00091FCDFF8C81B5CA81BF07CFC64202190FA
:1004000021A81BF0C9FA00220492CDE902010020C4
:1004100000905CAB206810F50972206810F50D7132
:1004200041F29870204412F046F95CA81BF072FC6F
:10043000DFF88C1B55A81BF05DFC0123020020682F
:1004400010F5117114F5C05012F09AF855A81BF070
:1004500061FCDFF8701B4EA81BF04CFC002302006F
:10046000206810F5157141F65800204412F088F804
:100470004EA81BF04FFCDFF8501B47A81BF03AFCBE
:1004800000230200206810F5197141F6B0002044E5
:1004900012F076F847A81BF03DFCDFF8301B40A8AF
:1004A0001BF028FC6420209020A81BF075FA002285
:1004B0000492CDE902010020009040AB206810F5C5
:1004C0001D72206810F5217141F60810204412F0C9
:1004D000F2F840A81BF01EFCDFF8F41A39A81BF054
:1004E00009FC64201F901FA81BF056FA00220492FA
:1004F000CDE902010020009039AB206810F525728B
:10050000206810F5297141F67010204412F0D3F8DC
:1005100039A81BF0FFFBDFF8BC1A32A81BF0EAFB7E
:1005200064201E901EA81BF037FA00220492CDE929
:1005300002010020009032AB206810F52D72206877
:1005400010F5317141F6D810204412F0B4F832A8F9
:100550001BF0E0FB002014F5D2510870002041F69A
:1005600041216054002041F642216054002041F6B0
:1005700044216050142041F648216050022041F689
:100580004C216054032041F650216050012041F677
:100590005421605041F65820204400220023C0E935
:1005A000002314F5D35000220023C0E9002341F6B4
:1005B0006820204400220023C0E9002341F6702077
:1005C000204400220023C0E9002312279FED198B4D
:1005D0003E00002F00D576429FED189BF00707D50F
:1005E00053EC192B51EC180B1BF0B2FB41EC190B1F
:1005F0007608002E08D053EC182B51EC180B1BF08A
:10060000A7FB41EC180BE9E7002F1FD553EC192B82
:10061000002000211BF07EFC02D19FED0A9B15E01B
:100620000020DFF8C81E53EC192B1BF083FC41ECB3
:10063000190B0BE00000000000000040000000006B
:100640000000F03F000000000000F07F41F678203D
:10065000204480ED009B14F5D45000220023C0E913
:100660000023002041F68821605441F69020204468
:100670000022DFF8783EC0E9002341F698202044AC
:100680000022DFF8683EC0E9002314F5D5500022AF
:100690000023C0E9002341F6A820204400220023C3
:1006A000C0E9002341F6B020204400220023C0E925
:1006B000002341F6B820204400220023C0E9002393
:1006C00014F5D65000220023C0E9002341F6C820CB
:1006D000204400220023C0E9002364201D901DA8AF
:1006E0001BF05AF941F6D0222244C2E900016420ED
:1006F0001C901CA81BF050F941F6D8222244C2E9F4
:10070000000165201B901BA81BF046F914F5D75279
:10071000C2E90001052041F6E8216050002041F6C1
:10072000EC21605041F6F02020441BF026FD41F6FC
:10073000FC2020441BF021FD41F60830204400221B
:100740000023C0E9002341F610302044002200239A
:10075000C0E9002341F61830204400220023C0E9FC
:100760000023012014F5D951087041F624302044AB
:100770001BF00BFD002041F630316054002041F6A3
:100780003131605441F63830204400220023C0E962
:10079000002314F5DA50DFF8582DDFF8583DC0E992
:1007A000002341F6483020440022DFF8403DC0E9F4
:1007B000002341F65030204414F5DA5191ED000B3E
:1007C00080ED000B002041F658316054002041F6C6
:1007D0005931605414F5DB5000220023C0E9002396
:1007E000002041F668316054002019904FF47A706F
:1007F0001A901AAA19A941F6703020441BF01AF970
:10080000002041F688316050002041F68C31605064
:10081000002041F690316050002041F69431605044
:1008200041F69830204410F09BFC002014F5DE5176
:1008300008704FF47A70189018A81BF0ADF8CDE945
:10084000280128A941F6C83020441BF074F9002083
:1008500041F6D831605441F6F8302044002200239C
:10086000C0E9002314F5E05000220023C0E9002372
:1008700041F60840204400220023C0E9002341F64D
:100880001040204400220023C0E9002341F6184014
:10089000204400220023C0E90023002014F5E15188
:1008A000087041F62840204400220023C0E90023BC
:1008B000002041F630416050002041F63441605044
:1008C000012041F638416050052041F63C4160501E
:1008D000002014F5E251086041F6444020441BF02A
:1008E0005CFC41F6504020441BF047FC022041F6DE
:1008F0005C416050002014F5E351087041F66840F7
:1009000020440022DFF8E43BC0E9002341F67040B8
:1009100020440022DFF8D43BC0E90023002041F648
:1009200078416054002041F679416054002041F63E
:10093000B0416054002041F6E8416054002041F687
:10094000E9416054002014F5E9510870002041F697
:1009500088516054002041F6F051605441F6D02097
:1009600004EB000114F5F2501BF09AF841F6B06068
:1009700020441BF01AFC002041F6E861605441F667
:10098000F060204400220023C0E9002341F6F86013
:10099000204400220023C0E9002314F5F85000226F
:1009A0000023C0E9002341F6087020440022002300
:1009B000C0E9002341F61070204400220023C0E962
:1009C000002341F63870204400220023C0E90023B0
:1009D00014F5FA5000220023C0E900236420179088
:1009E00017A81AF0D9FF41F648722244C2E9000163
:1009F00041F65070204400220023C0E900230A2061
:100A000041F65871605014F57E601BF0E9FB06005A
:100A100014F57E601BF0E4FB80B20200B6B2310038
:100A200041F6787020441BF0ECFB41F6B87020448E
:100A300000220023C0E9002314F5FE500022002309
:100A4000C0E9002341F6C870204400220023C0E919
:100A50000023642041F6D0716050002042F228014A
:100A60006054002042F2290160547820169016A8A4
:100A700018F0F6FC42F230022244C2E900014FF4C1
:100A80001670159015A818F0EBFC42F238022244BB
:100A9000C2E9000142F2380004EB000114F50150F4
:100AA0001AF0FEFF012042F25801605442F2600049
:100AB000204400220023C0E9002342F268002044C1
:100AC00000220023C0E90023002042F270016050A0
:100AD00042F278002044DFF8202ADFF8203AC0E90B
:100AE000002314F502500022DFF8003AC0E9002389
:100AF00042F28800204400220023C0E9002342F291
:100B0000900020440022DFF8E439C0E900230120EE
:100B100042F2980160504FF47A7042F29C016050AA
:100B200014F5FE60109041F2082020440F9014F557
:100B3000FD600E9014F590500D9014F5FC600C9033
:100B400014F5FB600B9041F2F81020440A9014F564
:100B5000FA60099014F5F960089014F5F8600790B0
:100B600014F5F760069014F5F660059014F5F5603D
:100B7000049014F5F460039014F5F360029014F5FA
:100B8000F2600190206810F584600090206810F5F4
:100B90008263206810F58062206810F57C7142F253
:100BA000A000204414F008F942F2E0302044002272
:100BB000DFF83839C0E9002342F2E8302044DFF89A
:100BC0003829DFF8883EC0E9002342F2F0302044A3
:100BD0000022DFF81839C0E9002342F2F83020443F
:100BE00000220023C0E9002314F510500022DFF892
:100BF000603EC0E900239FED661B9FEDED0B14F5F1
:100C0000F46142F20840204414F0F8FD04F6680054
:100C10000E9004F65C000D9014F505600C9014F530
:100C200004600B9004F638000A9014F503600990F4
:100C300004F62800089014F50260079004F61800E6
:100C4000069014F50160059004F60800049014F570
:100C50000060039014F5FF6002900020019020686E
:100C600010F57470009042F2F030204490ED002BAB
:100C700042F2E830204490ED001B42F2E030204484
:100C800090ED000B4623206810F5587242F20840A0
:100C900004EB000142F2204020441BF0CCFA42F267
:100CA000204004EB000114F5125014F005FE41F24F
:100CB00068202044109041F25C2020440F9041F2C3
:100CC000502020440E9014F592500D9041F238209F
:100CD00020440C9041F2302020440B9041F2282017
:100CE00020440A9014F59150099041F218202044B4
:100CF000089041F210202044079004F66800069006
:100D000004F65C00059014F50560049014F503608A
:100D1000039004F62800029014F50260019004F696
:100D20001800009014F5016304F6080214F5FF6141
:100D300042F25060204415F0A1F942F2A060204434
:100D40000022DFF8A837C0E9002342F2A86020445F
:100D5000DFF8A427DFF8F43CC0E9002342F2B060DA
:100D600020440022DFF88437C0E9002342F2B86053
:100D7000204400220023C0E9002314F51B50002268
:100D8000DFF8CC3CC0E900239FED931B04E000BFDB
:100D900000000000008041409FED850B14F5F261DA
:100DA00042F2C860204414F029FD04F6E4000E90DD
:100DB00004F6D8000D9004F6CC000C9004F6BC00AC
:100DC0000B9004F6B4000A9004F6AC00099004F607
:100DD000A400089004F69C00079004F69400069086
:100DE00004F68C00059004F68400049004F67C0060
:100DF000039004F67400029000200190206810F522
:100E00007870009042F2B060204490ED002B42F2E6
:100E1000A860204490ED001B42F2A060204490EDB9
:100E2000000B4523206810F5667242F2C86004EB9F
:100E3000000142F2E06020441BF0FDF942F2E06064
:100E400004EB000114F51D5014F036FD41F2CC20E6
:100E50002044109014F596500F9041F2B420204495
:100E60000E9041F2A42020440D9041F29C20204499
:100E70000C9041F2942020440B9041F28C202044AD
:100E80000A9041F284202044099041F27C202044C1
:100E9000089041F274202044079004F6E400069084
:100EA00004F6D800059004F6CC00049004F6AC00DB
:100EB000039004F6A400029004F69C00019004F64E
:100EC0009400009004F68C0304F6840204F6740186
:100ED00042F61010204415F0D1F8002042F66011BF
:100EE000605414F55C62211D42F66810204410F035
:100EF000A1FA200000F0B4FD200000F0C6FD1BF0B8
:100F0000EFF9149004F63C701BF0F0F98DF85000E6
:100F100004F644701BF0EAF98DF8510004F64C70A9
:100F20001BF0E4F98DF8520004F654701BF0DEF962
:100F30008DF853001BF0D4F9139004F65C701BF08D
:100F4000D5F98DF84C0004F664701BF0CFF98DF8DC
:100F50004D0004F66C701BF0C9F98DF84E0004F6D4
:100F600074701BF0C3F98DF84F001BF0B9F91290A3
:100F700004F67C701BF0BAF98DF8480004F6847012
:100F80001BF0B4F98DF8490004F68C701BF0AEF933
:100F90008DF84A0004F694701BF0A8F98DF84B0008
:100FA00004F69C701BF0B3F9002819D0012518E055
:100FB0000000000000002E40D44A0608DC4A060863
:100FC000E44A0608EC4A0608F44A0608FC4A060801
:100FD000044B06080C4B0608000000000080464049
:100FE00000252800C0B20090129B139A1499206823
:100FF000A0301BF010FA206810F1A00111A813F026
:101000008FFD1BF0B1FE0600082168461BF0E6FECE
:10101000DDE90001CDE9300130A930001BF0EAFE26
:1010200014F55C601BF0F6FE14F5D951087014F548
:10103000D95114F11C001BF0FCFE04F6C8501BF043
:1010400005FF41F69820204480ED000B41F69820E2
:1010500004EB000114F1B4001BF022FF14F55D60F5
:101060001BF0F4FE41F69020204480ED000B41F689
:10107000902004EB000114F1BC001BF011FF04F6FA
:101080002C7114F1D4001BF018FF04F6347114F124
:10109000DC001BF012FF04F6D8501BF0BBFE010071
:1010A000C9B241F20840204411F046FE41F2084026
:1010B000204411F0D1FE8DF801000DF1010114F56D
:1010C000CC701BF0B6FE14F55E601BF0A3FE41F67B
:1010D0005021605041F6502020588DF8000069469C
:1010E00014F5D0701BF0A5FE04F6E8501BF092FE3C
:1010F0000A900AA81AF050FC41F6D8222244C2E90C
:10110000000104F6E85114F5FE701BF0E9FE41F60B
:1011100048702044D0E9002341F20840204411F0F7
:10112000A3FE04F614701BF075FE099009A81AF0CE
:1011300033FC14F5D752C2E9000104F6147114F51A
:1011400075701BF0CDFE14F55F601BF063FE089018
:1011500008A81AF021FC41F6D0222244C2E900017D
:1011600014F55F6114F501701BF0BAFE04F6F85037
:101170001BF06CFE14F5DB5080ED000B14F5DB5119
:1011800014F503701BF08CFE14F560601BF0BAFEC2
:101190001BF0D6FE14F5DB52C2E9000114F5DB5159
:1011A00014F503701BF07CFE04F608601BF032FEA1
:1011B00041F6E821605041F6E82004EB000114F507
:1011C00007701BF0CEFE20000AF066FB14F5E45118
:1011D00041F2A840204413F053F804F648601AF096
:1011E000FFFF41F6EA61605241F6EA6004EB00015C
:1011F00014F567701BF0C2FE14F565601AF0F0FF7D
:1012000041F6EC61605241F6EC6004EB000114F52C
:1012100069701BF0B3FE04F6A87114F57D701BF025
:101220004CFE04F6A8701BF011FE41F6F06020445D
:1012300080ED000B14F57B6114F57F701BF03DFE13
:1012400014F57B601BF002FE41F6F860204480ED4F
:10125000000B04F6B87104F204401BF02EFE04F6F5
:10126000B8701BF0F3FD14F5F85080ED000B14F589
:101270007C6104F20C401BF020FE14F57C601BF036
:10128000E5FD41F60870204480ED000B41F2084076
:1012900020441BF08DFE41F67060204480ED000B71
:1012A00041F2084020441BF0D3FE41F67860204410
:1012B00080ED000B14F5F45000220023C0E9002358
:1012C00041F68860204400220023C0E9002341F653
:1012D0009060204400220023C0E90023002041F652
:1012E00098616050002041F69C61605014F5F55003
:1012F00000220023C0E9002341F6A86020447E4A72
:10130000DFF85037C0E9002304F6C87104F21C402E
:101310001BF0D3FD04F6C8701BF098FD41F6387041
:10132000204480ED000B14F57D6104F224401BF095
:10133000C4FD14F57D601BF089FD14F5FA5080EDB5
:10134000000B41F61870204441F63871214491EDAC
:10135000000B80ED000B14F5F95000220023C0E9CA
:10136000002341F62870204400220023C0E9002316
:10137000012141F2A840204411F0FEFF14F5FA507B
:10138000D0E9002351EC100B1AF0E2FC41F6307268
:101390002244C2E9000104F6D87104F23C401BF07B
:1013A0008CFD04F6D8701BF051FD41F650702044BE
:1013B00080ED000B14F57E601AF012FF80B241F64A
:1013C0005871605014F5FB5000220023C0E900233F
:1013D00041F66870204400220023C0E90023012167
:1013E00041F2A840204411F0C7FF41F6507020445C
:1013F000D0E9002351EC100B1AF0AAFC41F67072F0
:101400002244C2E9000114F57E6104F264401BF03D
:1014100073FE04F6F8701BF019FD14F5FE5080ED14
:10142000000B14F5FE5090ED000B20000AF07AF945
:1014300041F6B870204480ED000B14F5FE5104F223
:1014400084401BF02DFD41F6B87004EB000104F25E
:101450007C401BF025FD14F580501BF0F7FC41F695
:10146000C870204480ED000B41F6C87004EB000109
:1014700004F28C401BF014FD04F6E8701AF036FFFD
:10148000C0B215F036FA42F25801605404F6E87121
:1014900004F26C401BF043FE04F618601BF0D6FC0F
:1014A00041F6F030204480ED000B41F6F03004EBC3
:1014B000000114F559701BF0F3FC14F566601BF085
:1014C000C5FC41F64830204480ED000B41F6483021
:1014D00004EB000114F56D701BF0E2FC14F567607D
:1014E0001AF015FF00280BD001200AE00000F03FA1
:1014F000CDCCCCCCCC60B5409A9999999999D93FEB
:10150000002041F63031605441F63030215C14F156
:1015100060001BF017FE04F67C601AF0F8FE00284D
:1015200001D0012000E0002041F6D831605441F69E
:10153000D830215C14F5C6701BF004FE04F68860F8
:101540001AF0E5FE002801D0012000E0002041F65D
:101550003131605441F63130215C14F515701BF0C7
:10156000F1FD41F63130215C41F2307020441BF036
:10157000FFFD41F63130215C41F2987020441BF0B0
:10158000F7FD41F63130215C41F6081020441BF094
:10159000EFFD41F63130215C41F6701020441BF024
:1015A000E7FD41F63130215C41F6D81020441BF0B4
:1015B000DFFD04F694601AF0AAFE002801D0012095
:1015C00000E0002014F5E151087014F5E1500178B5
:1015D00014F51E701BF0B6FD04F6FC601BF092FCC7
:1015E00041F65421605041F6542004EB000114F5FB
:1015F0006F701BF0C0FD04F604701BF083FC41F615
:101600003841605041F638402058029002A914F544
:1016100071701BF0B0FD04F60C701BF073FC41F60A
:101620003C41605041F63C402058019001A914F51E
:1016300073701BF0A0FD04F61C701BF007FC41F654
:101640006840204480ED000B41F6684004EB000147
:1016500014F577701BF024FC14F56A6114F5217001
:101660001BF096FD04F6B86114F544701BF090FD74
:1016700014F544701AF04BFE002801D0012100E05F
:101680000021C9B241F2A84020441BF0A0FD04F69D
:1016900024701BF0DBFB41F67040204480ED000B12
:1016A00041F6704004EB000114F579701BF0F8FB73
:1016B00014F56D601AF01AFE0100C9B220000FF097
:1016C00035FD41F64C21605414F56D6114F52D7013
:1016D0001BF025FD04F6E46114F54D701BF058FD78
:1016E00014F56F6114F550701BF052FD41F2C810F3
:1016F00020441BF0ABFB42F27800204480ED000B4D
:1017000041F2C81004EB000104F2B4401BF0D5FB19
:1017100041F2D01020441BF099FB14F5025080EDEB
:10172000000B41F2D01004EB000104F2BC401BF0AE
:10173000C4FB41F2D81020441BF088FB42F2880021
:10174000204480ED000B41F2D81004EB000114F5A9
:10175000EE601BF0B2FB14F58F501BF077FB42F2EA
:101760009000204480ED000B14F58F5114F5EF60CC
:101770001BF0A3FB41F2E81020441BF0C3FB42F234
:101780009801605041F2E81004EB000114F5F0609C
:101790001BF020FD41F2F01020441BF057FB51ECF0
:1017A000100B1BF029FD42F29C01605041F2F01039
:1017B00004EB000114F5F1601BF07FFB14F5DF5022
:1017C00000220023C0E9002341F6E8302044002233
:1017D0000023C0E9002304F618601BF037FB41F634
:1017E000F030204480ED000B14F55F601BF012FB1D
:1017F000079007A81AF0D0F841F6D0222244C2E997
:10180000000104F63C7104F2DC401BF088FC04F695
:10181000447104F2E4401BF082FC04F64C7104F2C3
:10182000EC401BF07CFC04F6547104F2F4401BF015
:1018300076FC04F65C7104F2FC401BF070FC04F6CC
:10184000647104F204501BF06AFC04F66C7104F23B
:101850000C501BF064FC04F6747104F214501BF07D
:101860005EFC04F67C7104F21C501BF058FC04F67C
:10187000847104F224501BF052FC04F68C7104F2C3
:101880002C501BF04CFC04F6947104F234501BF005
:1018900046FC04F69C7104F23C501BF079FC41F6C6
:1018A00048702044D0E9002341F23070204410F009
:1018B0005FFF41F648702044D0E9002341F2987060
:1018C000204410F055FF41F648702044D0E9002331
:1018D00014F5C05010F096FE41F648702044D0E94F
:1018E000002341F65800204410F08CFE41F6487069
:1018F0002044D0E9002341F6B000204410F082FEDD
:1019000041F648702044D0E9002341F608102044F5
:1019100010F02EFF41F648702044D0E9002341F634
:101920007010204410F024FF41F648702044D0E9A4
:10193000002341F6D810204410F01AFF04F6A871D5
:1019400014F57D701BF0B9FA14F5236104F6B82084
:101950001BF06FFC04F6782104F6F8201BF096FCCF
:1019600004F6EC2104F6F8201BF092FC04F6D421D6
:1019700004F6F8201BF08CFC14F52E6104F6F82018
:101980001BF086FC1420069006A81AF005F8020049
:101990000B0004F6F8201BF085FC1420059005A828
:1019A00019F0FAFF02000B0004F6F8201BF085FC8A
:1019B0004FF4FA70049004A819F0EEFF02000B0037
:1019C00004F6F8201BF084FC3220039003A819F0E1
:1019D000E3FF02000B0004F6F8201BF085FC7820E2
:1019E0001BF090FC0600231D04F6EC2204F6B8213F
:1019F00030001DF01AFC010004F688301DF041FD96
:101A0000002104F6E81011F01CFB1BF0ADF912499F
:101A10001DF04DFD1BF0A8F908211DF043FE0F49F4
:101A20001DF0AAFE04F6E41114F50F601BF099FAFC
:101A300041F2D82004EB000104F6F8001BF050FA44
:101A400020006AB0BDEC048BBDE8F2839999A93FF0
:101A5000000039409999B93FDC16060835E50508BC
:101A600010B50400206810F5987104F6782015F080
:101A7000E2FE206810F59E7104F6782015F0F3FE62
:101A800004F6782015F010FF10BD70472DE9F84FCF
:101A90002DED0C8BADF5306DAAB0060030681BF053
:101AA00055F806F6983017F0BCFA16F5466018F0AF
:101AB000B5FF16F59E5019F070FE41F20840304413
:101AC00011F024FA00240A2C06D241F2A840304436
:101AD00011F0D0FD641CF6E741F23070304410F094
:101AE0007CFE41F29870304410F077FE16F5C0503D
:101AF00010F0AFFD41F65800304410F0AAFD41F659
:101B0000B000304410F0A5FD41F60810304410F04C
:101B100064FE41F67010304410F05FFE41F6D810BC
:101B2000304410F05AFE06F6E81011F09FFA06F65F
:101B300088301DF027FE1DF01DFC16F5236015F002
:101B400067FC06F6F8201DF03FFE42F2A00030448C
:101B500013F02CFB16F5125014F0C1F816F51D50B9
:101B600014F0BDF806F6D4201DF083FF002801D044
:101B7000012000E00020C0B2002804D0002106F6B9
:101B8000E81011F05EFA41F2F060304419F0F4FF11
:101B9000C0B2002801D0012000E00020C0B200281F
:101BA00001F01F810021301D1DF069FF30000AF097
:101BB00042FA41F6B041705430000AF0B4FB05001F
:101BC00041F6E840305C002802D141F6E840355447
:101BD00030000AF01DFD040041F6E940305C0028A9
:101BE00002D141F6E940345430000AF0D7FE16F530
:101BF000E951087030000BF047F841F688517054F5
:101C000030000BF0B9F941F6F051705430000AF091
:101C1000C4F916F5D2500078012800F05F8116F55E
:101C2000DA701BF013F9B0EE408AF0EE608A41F2F0
:101C30000840304411F0B4F853EC182B51EC100B61
:101C40001AF068F901D0012000E00020C0B200289D
:101C50000BD041F20840304411F0A2F88DED460B54
:101C600046A916F5DA701BF01BF916F5DE701BF0AD
:101C700049F9050041F20840304411F0E5F8854289
:101C800001D0012000E00020C0B200280AD041F2BB
:101C90000840304411F0D8F8159015A916F5DE70FB
:101CA0001BF069FA16F5D4701AF031FB050041F209
:101CB0000840304410F013FFC0B2854201D001202B
:101CC00000E00020C0B200280AD041F208403044B1
:101CD00010F005FF0100C9B216F5D4701BF032FAFE
:101CE00016F5CC701AF002FB050041F208403044B2
:101CF00011F0B2F8EDB2C0B2854201D0012000E08F
:101D00000020C0B200280BD041F20840304411F04E
:101D1000A3F88DF8100004A916F5CC701BF089F813
:101D200016F5AE701AF0F3FA050041F23070304447
:101D300010F00BFD854201D0012000E00020C0B270
:101D4000002809D041F23070304410F0FEFC010050
:101D500016F5AE701BF0F6F916F5B4701AF0D7FA56
:101D6000050041F29870304410F0EFFC854201D03C
:101D7000012000E00020C0B2002809D041F2987094
:101D8000304410F0E2FC010016F5B4701BF0DAF9F3
:101D900016F59C701AF0BBFA050016F5C05010F04D
:101DA00026FC854201D0012000E00020C0B20028BE
:101DB00008D016F5C05010F01AFC010016F59C7002
:101DC0001BF0C0F916F1E4001AF0A1FA050041F683
:101DD0005800304410F00BFC854201D0012000E097
:101DE0000020C0B2002809D041F65800304410F05D
:101DF000FEFB010016F1E4001BF0A4F916F1F0005F
:101E00001AF085FA050041F6B000304410F0EFFBFF
:101E1000854201D0012000E00020C0B2002809D096
:101E200041F6B000304410F0E2FB010016F1F00082
:101E30001BF088F916F1FC001AF069FA050041F66A
:101E40000810304410F081FC854201D0012000E0F0
:101E50000020C0B2002809D041F60810304410F02C
:101E600074FC010016F1FC001BF06CF916F584708F
:101E70001AF04DFA050041F67010304410F065FC80
:101E8000854201D0012000E00020C0B2002809D026
:101E900041F67010304410F058FC010016F58470C3
:101EA0001BF050F916F58A701AF031FA050041F668
:101EB000D810304410F049FC854201D0012000E0E8
:101EC0000020C0B2002809D041F6D810304410F0EC
:101ED0003CFC010016F58A701BF034F941F2A84071
:101EE00030441DF0E7FDC0B2002801D0012000E021
:101EF0000020C0B2002800F0C48041F6F85006EB84
:101F0000000141F2A840304412F0A0FD16F5F15155
:101F100006F6DC101BF025F816F5F050D0E900238A
:101F200000205F4919F014FF41EC180B51EC180B1D
:101F300031F0004141EC100B8DED2C0B2CA906F279
:101F4000A4401AF0ADFF41F6086006EB000106F26E
:101F5000D4401BF010F941F6106006EB000106F2C8
:101F600094401AF09DFF41F618603044D0E90023F8
:101F700000204B4919F0ECFECDE92A012AA906F20E
:101F80009C401AF08DFF16F5D250007800280DD035
:101F900041F64120305C022808D016F5E05041F6A9
:101FA000F851314491ED000B80ED000B16F5F05027
:101FB00090ED008B51EC180B31F0004141EC100B0F
:101FC00042F6681030440FF0B9FA41F6B060305C68
:101FD000002856D0002041F6B061705441F6B86038
:101FE00006EB000106F234401AF05AFF16F5F651DE
:101FF00006F214401AF054FF41F6C86006EB0001E7
:1020000006F244401AF04CFF41F6D06006EB0001A6
:1020100006F24C401AF044FF41F6C860304490ED9F
:10202000000B300009F0E8FA8DED280B28A906F224
:1020300054401AF035FF41F6D060304490ED000B6B
:10204000300009F0D9FA8DED260B26A906F25C4086
:102050001AF026FF41F6D86006EB000106F22C408C
:102060001AF01EFF16F5F750D0E9002300200C49A6
:1020700019F06EFECDE9240124A916F5F6701AF0C8
:102080000FFF16F5F2701AF0E1FE53EC102B16F567
:10209000E050D0E9000119F03DFF03D0012002E03B
:1020A00080842E410020C0B200281AD016F5E051DD
:1020B00016F5F2701AF0F4FE16F5E05090ED000BF4
:1020C00016F5DF501DF09DFF41F6F830304480EDED
:1020D000000B41F6F83006EB000116F55B701AF0C4
:1020E000DFFE16F518701AF012F9002801D0012051
:1020F00000E00020C0B2002826D0002116F518709C
:102100001BF020F816F5DF5016F5E05191ED000BAD
:1021100080ED000B41F6E830304416F5E05191EDCA
:10212000000B80ED000B41F6F830304416F5E0511D
:1021300091ED000B80ED000B41F6F83006EB00014D
:1021400016F55B701AF0ACFE16F190001AF0CEF89E
:1021500016F5D2510978C0B2884201D0012000E0C2
:102160000020C0B200280AD016F5D25000788DF8B1
:102170000F000DF10F0116F190001AF05AFE16F53E
:10218000D250007800282CD141F64120305C022842
:1021900027D106F254501AF0BAF8012801D10120D3
:1021A00000E00020C0B200280CD0002106F25450FC
:1021B0001AF0C8FF002116F5A9601AF0C3FF30001D
:1021C00008F050FF16F5A9601AF0A1F8002801D117
:1021D000012000E00020C0B2002802D0300008F04A
:1021E000AAFF16F11C001AF081F8050016F55C60D4
:1021F0001AF010FEEDB2854201D0012000E000206F
:10220000C0B2002809D016F11C001AF06FF8149023
:1022100014A916F55C601AF0A4FE16F1B4001AF0C9
:1022200015FEB0EE408AF0EE608A06F6C8501AF04D
:102230000DFE53EC182B51EC100B19F06BFE01D076
:10224000012000E00020C0B2002805D016F1B40142
:1022500006F6C8501AF031FE16F1BC001AF0F6FD71
:10226000B0EE408AF0EE608A16F55D601AF0EEFD81
:1022700053EC182B51EC100B19F04CFE01D001203F
:1022800000E00020C0B2002805D016F1BC0116F510
:102290005D601AF012FE16F1D4001AF0D7FDB0EE10
:1022A000408AF0EE608A06F62C701AF0CFFD53ECEF
:1022B000182B51EC100B19F02DFE01D0012000E07D
:1022C0000020C0B2002805D016F1D40106F62C700B
:1022D0001AF0F3FD16F1DC001AF0B8FDB0EE408AFA
:1022E000F0EE608A06F634701AF0B0FD53EC182B4D
:1022F00051EC100B19F00EFE01D0012000E000207F
:10230000C0B2002805D016F1DC0106F634701AF0D0
:10231000D4FD16F5CC7019F0E9FF050006F6D8508B
:102320001AF078FDEDB2854201D0012000E00020D6
:10233000C0B2002809D016F5CC7019F0D7FF139061
:1023400013A906F6D8501AF00CFE16F5D07019F045
:10235000CDFF050016F55E601AF05CFDEDB285421A
:1023600001D0012000E00020C0B2002809D016F5FD
:10237000D07019F0BBFF129012A916F55E601AF02A
:10238000F0FD16F5FE701AF045FD050006F6E85062
:102390001AF040FD854201D0012000E00020C0B2CB
:1023A000002805D016F5FE7106F6E8501AF098FDE3
:1023B00016F501701AF02EFD050016F55F601AF093
:1023C00029FD854201D0012000E00020C0B2002894
:1023D00005D016F5017116F55F601AF081FD16F54E
:1023E00003701AF033FDB0EE408AF0EE608A06F614
:1023F000F8501AF02BFD53EC182B51EC100B19F080
:1024000089FD01D0012000E00020C0B2002805D0E5
:1024100016F5037106F6F8501AF04FFD16F5057023
:102420001AF070FD050016F560601AF06BFD85422C
:1024300001D0012000E00020C0B2002805D016F530
:10244000057116F560601AF0C5FE16F507701AF0F2
:10245000E1FC050006F608601AF0DCFC854201D0BC
:10246000012000E00020C0B2002805D016F5077159
:1024700006F608601AF034FD16F559701AF0E6FCFD
:1024800053EC102B41F6F0303044D0E9000119F044
:1024900041FD01D0012000E00020C0B200280ED094
:1024A00016F559701AF0D2FC41F6F030304480ED48
:1024B000000B16F5597106F618601AF0FEFC16F5B9
:1024C0005D701AF0A7FC050016F562601AF0A2FC18
:1024D000854201D0012000E00020C0B2002805D0D4
:1024E00016F55D7116F562601AF0FAFC16F55F706C
:1024F0001AF090FC050006F628601AF08BFC854265
:1025000001D0012000E00020C0B2002805D016F55F
:102510005F7106F628601AF0E3FC16F561701AF098
:1025200079FC050016F563601AF074FC854201D051
:10253000012000E00020C0B2002805D016F561712E
:1025400016F563601AF0CCFC16F5677019F048FEBA
:10255000050006F6486019F043FEADB280B2854230
:1025600001D0012000E00020C0B2002805D016F5FF
:10257000677106F648601AF0BFFD16F5697019F02C
:102580002FFE050016F5656019F02AFEADB280B287
:10259000854201D0012000E00020C0B2002805D013
:1025A00016F5697116F565601AF0A6FD16F56D70E1
:1025B0001AF04CFCB0EE408AF0EE608A16F56660C8
:1025C0001AF044FC53EC182B51EC100B19F0A2FC40
:1025D00001D0012000E00020C0B2002805D016F58F
:1025E0006D7116F566601AF068FC16F1600019F05E
:1025F0008EFE050016F5676019F089FE854201D050
:10260000012000E00020C0B2002805D016F16001D2
:1026100016F567601AF0BCFD16F5C67019F077FE66
:10262000050006F67C6019F072FE854201D001209B
:1026300000E00020C0B2002805D016F5C67106F6ED
:102640007C601AF0A5FD16F51E7019F060FE0500FD
:1026500006F6946019F05BFE854201D0012000E08F
:102660000020C0B2002805D016F51E7106F6946051
:102670001AF08EFD16F56F701AF044FC050006F690
:10268000FC601AF03FFC854201D0012000E00020F0
:10269000C0B2002805D016F56F7106F6FC601AF07E
:1026A00099FD16F571701AF02DFC050006F6047000
:1026B0001AF028FC854201D0012000E00020C0B2C1
:1026C000002805D016F5717106F604701AF082FD27
:1026D00016F573701AF016FC050006F60C701AF069
:1026E00011FC854201D0012000E00020C0B200288A
:1026F00005D016F5737106F60C701AF06BFD16F521
:1027000075701AF087FB050006F614701AF082FB4C
:10271000854201D0012000E00020C0B2002805D091
:1027200016F5757106F614701AF0DAFB16F5777067
:102730001AF08CFBB0EE408AF0EE608A06F61C7050
:102740001AF084FB53EC182B51EC100B19F0E2FB40
:1027500001D0012000E00020C0B2002805D016F50D
:10276000777106F61C701AF0A8FB16F5217019F0A7
:10277000CEFD050016F56A6019F0C9FD854201D04D
:10278000012000E00020C0B2002805D016F521711C
:1027900016F56A601AF0FCFC16F5447019F0B7FDE6
:1027A000050006F6B86019F0B2FD854201D001209F
:1027B00000E00020C0B2002814D016F5447106F6DF
:1027C000B8601AF0E5FC16F5447019F0A0FD002879
:1027D00001D0012100E00021C9B241F2A8403044FB
:1027E0001AF0F5FC16F53B7019F091FD050006F6A0
:1027F000AC6019F08CFD854201D0012000E0002082
:10280000C0B2002805D016F53B7106F6AC601AF090
:10281000BFFC16F579701AF019FBB0EE408AF0EEA5
:10282000608A06F624701AF011FB53EC182B51EC59
:10283000100B19F06FFB01D0012000E00020C0B2A6
:10284000002805D016F5797106F624701AF035FBCC
:1028500016F52D7019F04AFD050016F56D6019F09A
:1028600045FDEDB2C0B2854201D0012000E000205C
:10287000C0B2002805D016F52D7116F56D601AF05E
:102880004EFC16F54D7019F042FD050006F6E460A9
:1028900019F03DFD854201D0012000E00020C0B2CA
:1028A000002805D016F54D7106F6E4601AF070FCAC
:1028B00016F5507019F02BFD050016F56F6019F034
:1028C00026FD854201D0012000E00020C0B2002892
:1028D00005D016F5507116F56F601AF059FC06F226
:1028E0006C4019F003FD050006F6E87019F0FEFCD7
:1028F000EDB2C0B2854201D0012000E00020C0B29C
:10290000002805D006F26C4106F6E8701AF007FCC4
:1029100006F2B4401AF09AFAB0EE408AF0EE608AFD
:1029200041F2C81030441AF091FA53EC182B51ECD4
:10293000100B19F0EFFA01D0012000E00020C0B226
:10294000002825D006F2B44141F2C81030441AF0F4
:10295000B4FA06F2B4401AF079FA42F27800304440
:1029600080ED000B16F5C0500FF041FE012801D19B
:10297000012000E00020C0B2002809D042F2780017
:10298000304490ED000B41F2A840304412F081F841
:1029900006F2BC401AF05AFAB0EE408AF0EE608AB5
:1029A00041F2D01030441AF051FA53EC182B51EC8C
:1029B000100B19F0AFFA01D0012000E00020C0B2E6
:1029C000002823D006F2BC4141F2D01030441AF066
:1029D00074FA06F2BC401AF039FA16F5025080ED8E
:1029E000000B16F5C0500FF002FE002801D10120A7
:1029F00000E00020C0B2002808D016F5025090ED8B
:102A0000000B41F2A840304412F043F816F53B7039
:102A100019F07DFC050006F6AC6019F078FC8542E3
:102A200001D0012000E00020C0B2002805D016F53A
:102A30003B7106F6AC601AF0ABFB16F5EE601AF0CF
:102A400005FAB0EE408AF0EE608A41F2D8103044C8
:102A50001AF0FCF953EC182B51EC100B19F05AFA40
:102A600001D0012000E00020C0B200280FD016F5F0
:102A7000EE6141F2D81030441AF01FFA16F5EE60FC
:102A80001AF0E4F942F28800304480ED000B16F5AC
:102A9000EF601AF0DBF9B0EE408AF0EE608A16F5CE
:102AA0008F501AF0D3F953EC182B51EC100B19F08E
:102AB00031FA01D0012000E00020C0B200280ED081
:102AC00016F5EF6116F58F501AF0F7F916F5EF606D
:102AD0001AF0BCF942F29000304480ED000B16F57C
:102AE000F0601AF00FFA050041F2E81030441AF0D5
:102AF00009FA854201D0012000E00020C0B2002880
:102B00000DD016F5F06141F2E81030441AF062FB86
:102B100016F5F0601AF0F6F942F29801705016F5C9
:102B2000F1601AF093F9B0EE408AF0EE608A41F25B
:102B3000F01030441AF08AF953EC182B51EC100BBA
:102B400019F0E8F901D0012000E00020C0B200280F
:102B500011D016F5F16141F2F01030441AF0ADF9E0
:102B600016F5F1601AF072F951EC100B1AF044FBF3
:102B700042F29C01705016F5157019F0C8FB050063
:102B800006F6886019F0C3FB854201D0012000E001
:102B90000020C0B2002811D016F5157106F6886025
:102BA0001AF0F6FA16F5157019F0B1FB002801D0ED
:102BB000012000E0002041F63131705442F66010EF
:102BC000305C012809D043D303281AD00FD305283D
:102BD0002AD01FD3062831D03AE001208DF80E000C
:102BE0000DF10E0116F553701AF023F938E00220AA
:102BF0008DF80D000DF10D0116F553701AF019F94D
:102C00002EE003208DF80C0003A916F553701AF07E
:102C100010F925E004208DF80B000DF10B0116F5DD
:102C200053701AF006F91BE005208DF80A000DF12B
:102C30000A0116F553701AF0FCF811E006208DF821
:102C400009000DF1090116F553701AF0F2F807E0CA
:102C500000208DF8080002A916F553701AF0E9F863
:102C600006F63C7106F2DC401DF04EFA06F64471A1
:102C700006F2E4401DF048FA06F64C7106F2EC400C
:102C80001DF042FA06F6547106F2F4401DF03CFACB
:102C900006F65C7106F2FC401DF036FA06F6647129
:102CA00006F204501DF030FA06F66C7106F20C5074
:102CB0001DF02AFA06F6747106F214501DF024FA7B
:102CC00006F67C7106F21C501DF01EFA06F68471A1
:102CD00006F224501DF018FA06F68C7106F22C50FC
:102CE0001DF012FA06F6947106F234501DF00CFA3B
:102CF00006F69C7106F23C501DF022FA42F250603A
:102D0000304413F019FA42F61010304413F014FA5C
:102D100041F2A84030441DF02DFA012801D10120D4
:102D200000E00020C0B2002805D0002116F52A706E
:102D30001AF008FA04E0012116F52A701AF002FAD6
:102D400016F5477019F0E3FA012801D1012000E0DF
:102D50000020C0B2002807D0002116F547701AF0F5
:102D6000F1F930000DF0F4FB16F50F601AF052F88F
:102D7000D6F8E419884201D0012000E00020C0B25A
:102D8000002805D006F6E41116F50F601AF0E9F8F0
:102D900006F6F8001AF03EF8050041F2D82030445B
:102DA0001AF038F8854201D0012000E00020C0B2BE
:102DB000002806D006F6F80141F2D82030441AF077
:102DC0008FF842F6681030440EF0EBFB41F6983075
:102DD00030440EF0BAFA079007A916F509701AF0F8
:102DE000C0F816F5B85018F0C7FEC0B2002801D0E0
:102DF000012000E00020C0B2002818D041F2287065
:102E0000305C002804D03068C0301DF095FA03E033
:102E10003068C0301DF099FA41F22870305C00280B
:102E200001D1012000E0002041F22871705441F6E8
:102E3000C830304418F0A0FEC0B2002801D00120F4
:102E400000E00020C0B2002844D016F5DE50007823
:102E500000280ED041F688303058401C41F68831A9
:102E6000705041F6883006EB000116F50B701AF031
:102E700078F816F5D250007802282BD141F6903020
:102E80003058401C41F69031705041F69430325821
:102E9000002141F694303058401E1DF068FC41F688
:102EA0009431705041F6983030440EF0B4F941F648
:102EB000903006EB000116F50F701AF052F841F64B
:102EC000983030440EF03FFA069006A916F51170BE
:102ED0001AF047F816F5D2500078002809D00228D9
:102EE00001F0B483C0F05F81032801F0218108F074
:102EF000A7B841F64120305C002805D0022800F038
:102F0000E880C0F0AF804CE119F02EFFDFF8F41C30
:102F10001CF032FC002141F2307030440FF00CFC08
:102F2000002141F2987030440FF006FC012116F5A3
:102F3000C0500FF053FB002141F6580030440FF011
:102F40004DFB002141F6B00030440FF047FB00215B
:102F500041F6081030440FF0EFFB002141F67010ED
:102F600030440FF0E9FB002141F6D81030440FF057
:102F7000E3FB42F27800304490ED000B41F2A840B0
:102F8000304411F086FD41F2084030441DF0F6FB5C
:102F900041F2084030440FF05BFD9FED300B41F2F1
:102FA000084030440FF054FE41F2A84030441DF078
:102FB000E9FB16F5E45141F2A840304411F060F904
:102FC000002141F2307030441AF0D2F8002141F271
:102FD000987030441AF0CCF8002141F608103044C3
:102FE0001AF0C6F8002141F6701030441AF0C0F80B
:102FF000002141F6D81030441AF0BAF8002116F139
:1030000078001AF09FF841F6E82006EB000116F56B
:10301000077019F0A6FF41F21070304418F05CFD03
:10302000002116F524701AF08DF8002041F6E861B1
:103030007054002116F52F701AF084F8002116F54F
:1030400035701AF07FF8002116F538701AF07AF80A
:10305000012041F641217054A3E000BF00000000B0
:103060000000000041F21070304418F042FDC0B280
:10307000002801D0012000E00020C0B2002827D0A5
:1030800019F072FEDFF87C1B1CF076FB19F06CFE69
:10309000DFF8741B1CF00BFADFF8681B1CF06CFBEC
:1030A00019F062FEDFF8641B1CF001FADFF8541B14
:1030B0001CF062FB19F058FEDFF84C1B1CF0F7F90E
:1030C000DFF8401B1CF058FB022041F641217054F0
:1030D00067E016F1780019F01AF9012801D10120F2
:1030E00000E00020C0B2002840D0002116F1780096
:1030F0001AF028F8002116F184001AF023F816F1CE
:103100000C0019F0F3F8C0B2012804D024D303282E
:1031100019D009D320E0012016F5D2510870002003
:1031200041F6412170543CE006F688301CF02AFB41
:103130001CF0EAF8022016F5D2510870002041F682
:10314000412170542DE0032016F5D2510870002063
:1031500041F64121705424E000208DF807000DF164
:10316000070116F10C0019F064FE1AE041F2A840C4
:1031700030441CF0FFFF012801D1012000E00020B5
:10318000C0B200280DD016F5E05041F6F851314498
:1031900091ED000B80ED000B41F2A840304410F09F
:1031A0006DF807F04DBF41F65830305C002815D05F
:1031B000022800F0F080C0F09D80042800F03984DF
:1031C000C0F0FD83062800F0F184C0F0698408286F
:1031D00000F09087C0F0F68600F0A8BF19F0C4FD9B
:1031E000DFF8201A1CF0C8FA19F0BEFDDFF8181A33
:1031F0001CF05DF9DFF80C1A1CF0BEFA19F0B4FDF2
:10320000DFF80C1A1CF053F9DFF8F8191CF0B4FAC7
:1032100019F0AAFDDFF8F0191CF049F9DFF8E419FC
:103220001CF0AAFA41F648703044D0E9002341F27C
:10323000307030440FF09CFA41F648703044D0E9C9
:10324000002341F2987030440FF092FA41F6487032
:103250003044D0E9002316F5C0500FF0D3F941F601
:1032600048703044D0E9002341F6580030440FF054
:10327000C9F941F648703044D0E9002341F6B00066
:1032800030440FF0BFF941F648703044D0E90023D4
:1032900041F6081030440FF06BFA41F648703044A4
:1032A000D0E9002341F6701030440FF061FA41F686
:1032B00048703044D0E9002341F6D81030440FF074
:1032C00057FA41F648703044D0E9002341F20840F3
:1032D00030440FF0C9FD16F56D7019F0B7FD41F6D9
:1032E0004830304480ED000B012041F658317054D5
:1032F00000F01CBF41F2A84030441CF03BFF012805
:1033000001D1012000E00020C0B2002841D041F6E8
:10331000F04006EB000141F2A840304410F0B0FF4D
:10332000012141F2A840304410F07CF8B0EE408A10
:10333000F0EE608A41F2084030440FF085FD040051
:1033400016F5DA50D0E9002341F648303044D0E990
:10335000000118F0FDFC41EC130BB0EE439AF0EEC7
:10336000639A200019F0ECFD41EC120BB0EE493AE3
:10337000F0EE693A16F5E05090ED001BB0EE480A09
:10338000F0EE680A300008F092F8022041F6583159
:10339000705400F0CBBE16F16C0018F0B8FF012895
:1033A00001D1012000E00020C0B2002816D0002189
:1033B00016F16C0019F0C6FE002041F65831705429
:1033C000002016F5D251087000208DF806000DF18E
:1033D000060116F10C0019F02CFDEFE216F5AE70A7
:1033E00018F095FF040041F2307030440FF0ADF951
:1033F000844201D0012000E00020C0B2002809D0A2
:1034000016F5AE7018F083FF010041F230703044C1
:103410000FF092F916F5B47018F079FF040041F23C
:10342000987030440FF091F9844201D0012000E0FF
:103430000020C0B2002809D016F5B47018F067FF5C
:10344000010041F2987030440FF076F916F59C7047
:1034500018F05DFF040016F5C0500FF0C8F8844264
:1034600001D0012000E00020C0B2002828D016F5CD
:103470009C7018F04CFF010016F5C0500FF0AEF82C
:1034800016F59C7018F043FF012801D1012000E0DF
:103490000020C0B200280AD042F27800304490EDFB
:1034A000000B41F2A840304411F0F3FA08E016F5A1
:1034B000025090ED000B41F2A840304411F0E9FABF
:1034C00016F1E40018F023FF040041F658003044E0
:1034D0000FF08DF8844201D0012000E00020C0B23E
:1034E000002809D016F1E40018F011FF010041F6A0
:1034F000580030440FF072F816F1F00018F007FF92
:10350000040041F6B00030440FF071F8844201D05D
:10351000012000E00020C0B2002809D016F1F00020
:1035200018F0F5FE010041F6B00030440FF056F8F7
:1035300016F1FC0018F0EBFE040041F608103044D0
:103540000FF003F9844201D0012000E00020C0B256
:10355000002809D016F1FC0018F0D9FE010041F650
:10356000081030440FF0E8F816F5847018F0CFFE1C
:10357000040041F6701030440FF0E7F8844201D0A7
:10358000012000E00020C0B2002809D016F58470A8
:1035900018F0BDFE010041F6701030440FF0CCF879
:1035A00016F58A7018F0B3FE040041F6D8103044C6
:1035B0000FF0CBF8844201D0012000E00020C0B21F
:1035C000002809D016F58A7018F0A1FE010041F616
:1035D000D81030440FF0B0F841F2307030441DF094
:1035E000D5F841F63131715CC0B2814201D0012081
:1035F00000E00020C0B2002807D041F63130315C35
:1036000041F23070304419F0B3FD41F2987030440B
:103610001DF0BCF841F63131715CC0B2814201D07D
:10362000012000E00020C0B2002807D041F6313070
:10363000315C41F29870304419F09AFD41F608105F
:1036400030441DF0A3F841F63131715CC0B28142C3
:1036500001D0012000E00020C0B2002807D041F6D0
:103660003130315C41F60810304419F081FD41F6EB
:10367000701030441DF08AF841F63131715CC0B2EF
:10368000814201D0012000E00020C0B2002807D014
:1036900041F63130315C41F67010304419F068FD6C
:1036A00041F6D81030441DF071F841F63131715CAB
:1036B000C0B2814201D0012000E00020C0B2002849
:1036C00007D041F63130315C41F6D810304419F062
:1036D0004FFD16F5D47018F01AFE040041F20840B0
:1036E00030440FF0FCF9C0B2844201D0012000E068
:1036F0000020C0B2002820D016F5D47018F007FEC4
:10370000002801D0012000E00020C0B200280AD02B
:1037100041F2084030440FF09BF941F2A840304498
:103720001DF037F809E041F2084030440FF0B4F9D9
:1037300041F2A84030441DF02CF816F5DE7019F067
:10374000E1FB040041F2084030440FF07DFB84426D
:1037500001D0012000E00020C0B200283AD016F5C8
:10376000DE7019F0CFFB19F0EBFB41EC100B41F2CE
:10377000084030440FF06CFA41F2A84030441DF08C
:1037800008F841F2084030440FF00AFB8DED440B7D
:1037900044A916F5DA7019F083FB16F5DE7019F0FE
:1037A000B1FB040041F2084030440FF04DFB84426D
:1037B00001D0012000E00020C0B200280AD041F270
:1037C000084030440FF040FB119011A916F5DE704F
:1037D00019F0D1FC16F5DA7019F038FBB0EE408A1A
:1037E000F0EE608A41F2084030440FF0D9FA53EC11
:1037F000182B51EC100B18F08DFB01D0012000E0CC
:103800000020C0B200283ED016F5DA7019F01EFB79
:1038100041F2084030440FF07BF941F2A8403044B7
:103820001CF0B7FF41F2084030440FF00DFB109040
:1038300010A916F5DE7019F09EFC16F5DA7019F075
:1038400005FBB0EE408AF0EE608A41F20840304459
:103850000FF0A6FA53EC182B51EC100B18F05AFB92
:1038600001D0012000E00020C0B200280BD041F2BE
:10387000084030440FF094FA8DED420B42A916F542
:10388000DA7019F00DFB16F5CC7018F02FFD04005E
:1038900041F2084030440FF0DFFAE4B2C0B2844293
:1038A00001D0012000E00020C0B200280FD016F5A2
:1038B000CC7018F01BFD0100C9B241F20840304441
:1038C0000FF03AFA41F2A84030441CF062FF16F5BE
:1038D000E950007800280CD0002016F5E951087056
:1038E00041F6F04006EB000141F2A840304410F0F0
:1038F000C7FC16F5217018F00AFD002801D0012040
:1039000000E00020C0B2002805D041F2A8403044B9
:103910001CF043FF04E041F2A84030441CF032FFA9
:1039200016F53E7018F0F3FC012801D1012000E0EB
:103930000020C0B2002809D041F2A84030441CF059
:1039400030FF002116F53E7019F0FCFB41F2A84053
:1039500030441CF00FFC012801D1012000E00020C0
:10396000C0B2002804D041F2A84030440FF086FCD9
:1039700016F51B7018F0CBFC012801D1012000E0E6
:103980000020C0B2002809D0002116F51B7019F0E4
:10399000D9FB032041F6583170540FE016F52F7013
:1039A00018F0B5FC012801D1012000E00020C0B2D0
:1039B000002803D0052041F658317054B6E341F297
:1039C000A84030441CF0D6FB012801D1012000E0C2
:1039D0000020C0B200282BD016F5217018F097FCFB
:1039E000002801D0012000E00020C0B2002805D04E
:1039F00041F2A84030441CF0D0FE04E041F2A8405F
:103A000030441CF0CAFE012041F64421705016F1EA
:103A10001C0018F06BFCC0B241F64821705041F216
:103A2000A84030440FF02AFC042041F6583170546D
:103A30007CE341F2A84030441CF09CFB012801D1FA
:103A4000012000E00020C0B2002828D041F6442028
:103A5000305841F648217158884212D241F644202C
:103A60003058401C41F64421705041F644203058F3
:103A70008DF805000DF1050116F1A00019F0D9F936
:103A800008E041F2A84030441CF07CFE022041F6E0
:103A90005831705441F2A84030440FF0EFFB45E339
:103AA000012041F6E861705416F57F7019F0CEF9E7
:103AB00041F6F860304480ED000B06F2044019F046
:103AC000C5F916F5F85080ED000B06F20C4019F020
:103AD000BDF941F60870304480ED000B06F21C4041
:103AE00019F0B4F941F63870304480ED000B06F25D
:103AF000244019F0ABF916F5FA5080ED000B06F2F0
:103B00003C4019F0A3F941F65070304480ED000BB1
:103B1000012141F2A84030440FF084FC41F61070BE
:103B2000304480ED000B16F56D7019F08FF941F6F9
:103B30004830304480ED000B41F2084030440FF033
:103B400083F9040016F5DA50D0E9002341F6483035
:103B50003044D0E9000118F0FBF841EC130BB0EE53
:103B6000438AF0EE638A200019F0EAF941EC120B67
:103B7000B0EE483AF0EE683A16F5E05090ED001BD2
:103B800041F61070304490ED000B300007F08FFCD0
:103B900019F0EAF8DFF8B81D1BF089FC19491BF091
:103BA000EBFD062041F658317054BFE216F16C006F
:103BB00018F0ADFB012801D1012000E00020C0B2C7
:103BC000002827D0002116F16C0019F0BBFA002064
:103BD00041F65831705419F0C7F8DFF8781D1BF022
:103BE00066FC08491BF0C8FD002016F5D25108708C
:103BF00000208DF8040001A916F10C0019F019F944
:103C0000DFE100BF35E50508D4F50508F8F505083E
:103C10001CF6050816F52F7018F079FB002801D165
:103C2000012000E00020C0B2002812D0022041F69E
:103C300058317054002041F6E861705419F094F83E
:103C4000DFF8101D1BF033FCDFF80C1D1BF094FD9A
:103C5000B7E116F5DA7019F0F9F8B0EE408AF0EE37
:103C6000608A41F2084030440FF09AF853EC182B68
:103C700051EC100B18F04EF901D0012000E00020AB
:103C8000C0B200280BD041F2084030440FF088F851
:103C90008DED400B40A916F5DA7019F001F916F513
:103CA000DE7019F02FF9040041F2084030440FF0A3
:103CB000CBF8844201D0012000E00020C0B20028EF
:103CC0000AD041F2084030440FF0BEF80F900FA91F
:103CD00016F5DE7019F04FFA16F5E9500078002855
:103CE0004CD0002016F5E951087041F6F04006EB83
:103CF000000141F2A840304410F0C2FA012141F223
:103D0000A84030440FF08EFB41F61070304480ED37
:103D1000000B16F56D7019F099F841F648303044F3
:103D200080ED000B41F2084030440FF08DF80400A4
:103D300016F5DA50D0E9002341F648303044D0E996
:103D4000000118F005F841EC130BB0EE438AF0EED9
:103D5000638A200019F0F4F841EC120BB0EE483AF7
:103D6000F0EE683A16F5E05090ED001B41F6107049
:103D7000304490ED000B300007F099FB41F6E9402C
:103D8000305C002843D0002041F6E9417054002106
:103D900041F2A84030440FF045FB41F6107030442A
:103DA00080ED000B16F56D7019F050F841F64830B3
:103DB000304480ED000B41F2084030440FF044F8ED
:103DC000040016F5DA50D0E9002341F648303044BB
:103DD000D0E9000117F0BCFF41EC130BB0EE438AB1
:103DE000F0EE638A200019F0ABF841EC120BB0EE54
:103DF000483AF0EE683A16F5E05090ED001B41F6B7
:103E00001070304490ED000B300007F050FB16F5B9
:103E1000357018F07CFA012801D1012000E0002063
:103E2000C0B2002812D0002116F5357019F08AF9B9
:103E300018F09AFFDFF8241B1BF039FBDFF8181B82
:103E40001BF09AFC072041F65831705441F2A8400B
:103E500030441CF08FF9012801D1012000E000203E
:103E6000C0B2002800F0AD8041F2A84030440FF00D
:103E700005FA16F5E05090ED000B41F6187030444D
:103E80001CF0FEF88DED180B18A906F22C4019F065
:103E900007F89DED180B41F6586030441BF058FEB2
:103EA000B0EE408AF0EE608AB0EE480AF0EE680AA2
:103EB00041F2084030440EF02BFEB0EE480AF0EE1E
:103EC000680A16F5FB501CF09CF8B0EE409AF0EE34
:103ED000609AB0EE490AF0EE690A300007F022FC61
:103EE0008DED220B22A906F2344018F0D9FF16F509
:103EF000F55106F2144018F0D3FFB0EE480AF0EE88
:103F0000680A41F6787030441CF054FC41F6787031
:103F100030441CF0CBFC300007F004FC8DED200B8E
:103F200020A906F2444018F0BBFF41F678703044F7
:103F30001CF0C6FC300007F0F5FB8DED1E0B1EA932
:103F400006F24C4018F0ACFF41F6787030441CF09B
:103F5000ADFC8DED1C0B1CA906F2544018F0A0FF1F
:103F600041F6787030441CF0ABFC8DED1A0B1AA9A9
:103F700006F25C4018F094FF41F6787030441CF073
:103F80009FFCB0EE40AAF0EE60AA06F27C4018F06A
:103F90005DFF51EC1A0B53EC102B1CF0C1FC01D24D
:103FA000012000E00020C0B2002805D0012116F554
:103FB000387019F0C7F804E0002116F5387019F0D0
:103FC000C1F8B3E041F2084030440EF08DFFC0B2BA
:103FD000002801D0012000E00020C0B2002800F03D
:103FE00084809FED420B41F2084030440EF030FED9
:103FF000012141F2A84030440FF014FA41F610704C
:10400000304480ED000B16F56D7018F01FFF41F67F
:104010004830304480ED000B41F2084030440EF04F
:1040200013FF040016F5DA50D0E9002341F64830BA
:104030003044D0E9000117F08BFE41EC130BB0EED9
:10404000438AF0EE638A200018F07AFF41EC120BED
:10405000B0EE483AF0EE683A16F5E05090ED001BED
:1040600041F61070304490ED000B300007F01FFA5D
:1040700016F5F55000220023C0E9002341F68860C0
:10408000304400220023C0E9002316F5F45000223A
:104090000023C0E9002341F6906030440022002351
:1040A000C0E9002316F5F95000220023C0E90023DF
:1040B00041F62870304400220023C0E9002316F5A1
:1040C000FB5000220023C0E9002341F66870304411
:1040D00000220023C0E9002341F6787030441CF030
:1040E00036FC082041F6583170541FE000000000F3
:1040F0000000000041F2084030440EF0F5FEC0B26E
:10410000002801D0012000E00020C0B200280DD01E
:1041100018F02AFEDFF8781B1BF0C9F9DFF8381811
:104120001BF02AFB062041F65831705406F088BF78
:1041300041F65930305C002817D0022800F0AA80E0
:10414000C0F07F80042800F03B81C0F0FB8006288F
:1041500000F09581C0F07681082800F00282C0F05E
:10416000B181092800F0268238E218F0FDFDDFF861
:10417000E8171BF001FB18F0F7FDDFF8181B1BF028
:1041800096F9DFF8D4171BF0F7FA18F0EDFDDFF819
:10419000081B1BF08CF9DFF8C0171BF0EDFA18F0C4
:1041A000E3FDDFF8F01A1BF082F9DFF8AC171BF023
:1041B000E3FA16F5D07018F099F8C0B264214843BC
:1041C00041F65021705041F65020305803280ED24D
:1041D000032041F65021705041F6502030588DF8A0
:1041E00003000DF1030116F5D07018F022FE16F150
:1041F0001C0018F07BF816F5D951087016F50370FD
:1042000018F024FE16F5DB5080ED000B16F5077054
:1042100018F000FE41F6E821705041F6E8203058D1
:104220000E900EA815F01CF9CDE93E013EA941F60D
:104230007030304417F045FC012041F6593170547C
:10424000CCE130001CF092FBC0B2002801D001206C
:1042500000E00020C0B200281BD0012141F23070E4
:1042600030440EF069FA012141F6081030440EF096
:1042700063FA002141F6D81030440EF05DFA0021B7
:1042800041F6B00030440EF0A9F9022041F6593150
:104290007054A3E130001CF069FBC0B2002801D0CB
:1042A000012000E00020C0B200284AD0002041F6E2
:1042B00068317054002041F64421705041F6582076
:1042C000304416F5DB5191ED000B80ED000B41F60B
:1042D0005020305840081CF091FB02000B0041F6C2
:1042E00058203044D0E900011CF098FB41F65822D8
:1042F0003244C2E9000118F037FDDFF8A0191BF0C5
:10430000D6F841F6502171581BF0CCF918F02CFD6D
:10431000DFF844161BF030FA18F026FDDFF880199C
:104320001BF0C5F841F65821314491ED000B1CF00B
:10433000E6FBDFF824161BF01FFA032041F6593183
:1043400070544BE141F2084030440EF0CDFDC0B254
:10435000002801D0012000E00020C0B200282ED0AB
:1043600041F65820304490ED000B41F208403044B3
:104370000EF06EFC41F67030304417F0ADFB18F0D3
:10438000F3FCDFF8D4151BF0F7F9DFF818191BF070
:104390008EF8040016F5077018F03CFD01002000AF
:1043A0001BF080F918F0E0FCA7A11BF080F8DFF803
:1043B000A8151BF0E1F9042041F6593170540DE1C4
:1043C00041F67030304417F094FBC0B2002801D0A1
:1043D000012000E00020C0B2002820D041F670305B
:1043E000304417F083FB16F5E950007800280CD014
:1043F000002016F5E951087041F6F04006EB000187
:1044000041F2A84030440FF03BFF41F2A840304455
:104410001CF0C3F9062041F65931705411E041F205
:10442000A84030441BF0A6FE012801D1012000E085
:104430000020C0B2002804D041F2A84030440EF061
:104440001DFFCBE041F2084030440EF04DFDC0B2FC
:10445000002801D0012000E00020C0B200280DD0CB
:1044600041F65820304490ED000B41F208403044B2
:104470000EF0EEFB062041F659317054AEE041F2E9
:10448000084030440EF030FDC0B200280CD041F29C
:10449000A84030441BF06EFE012801D0012000E04E
:1044A000002090F0010000E00020C0B2002808D0F9
:1044B00041F2A84030440EF0E1FE072041F65931A8
:1044C00070548BE041F2A84030441BF053FE0128A9
:1044D00001D1012000E00020C0B2002840D041F608
:1044E0006830305C401C16F5D951097888420BDAE7
:1044F00041F66830305C401C41F66831705406204B
:1045000041F6593170542BE0002041F66831705467
:1045100041F644203058401C41F6502171588842E1
:104520001AD241F644203058401C41F644217050C4
:1045300041F658203044D0E900230020DFF8401D28
:104540001CF050FB41F658223244C2E9000105201C
:1045500041F65931705403E0082041F65931705446
:104560003CE030001CF002FAC0B2002801D001206B
:1045700000E00020C0B200281BD0002141F23070C2
:1045800030440EF0D9F8002141F6081030440EF006
:10459000D3F8002141F6D81030440EF0CDF80021B8
:1045A00041F6B00030440EF019F8092041F65931B7
:1045B000705413E030001CF0D9F9C0B2002801D0CB
:1045C000012000E00020C0B2002807D0002016F52E
:1045D000D2510870002041F65931705416F16C0028
:1045E00017F095FE012801D1012000E00020C0B2A3
:1045F000002827D018F0B8FBDFF898161AF057FFFC
:10460000D5491BF0B9F818F0AFFBDFF8781C1AF0A9
:104610004EFFD1491BF0B0F8002116F16C0018F0E4
:1046200091FD002041F659317054002016F5D25109
:10463000087000208DF802000DF1020116F10C0047
:1046400018F0F7FB06F0FCBC2063000041F64220A6
:10465000305C002800F0B380012800F0808302283D
:1046600000F0AE83032800F0FB83042800F04484AC
:10467000052800F09084062800F0ED84072800F05B
:104680000386082800F01886092800F046870A28C3
:1046900000F05C870B2800F0EE870C2801F00D80FD
:1046A0000D2801F09E800E2801F0F8800F2801F0FF
:1046B0000D81102801F01D81112801F0BD80122804
:1046C00001F0D880132801F06782142801F04A8491
:1046D000152801F06F87162801F08587172801F04B
:1046E000E587182802F07780192802F08D801A28B3
:1046F00002F024811B2802F0D6811C2802F03E82A1
:104700001D2802F087831E2802F0BC831F2802F0B8
:104710000084202802F05B84212802F07284222881
:1047200002F08784242802F0F886252803F0798196
:10473000262803F09481272803F0AB81282803F072
:10474000AE81292803F055822A2803F048852B28BA
:1047500003F0C6852C2803F0E9852D2803F0A186F7
:104760002E2803F03F872F2803F0FA87302804F023
:10477000B481312804F07C82322804F09F823328EF
:1047800004F0AF82342804F0DD82352804F0F4828E
:10479000362804F0FC82372804F0D583382804F04A
:1047A0000D85392804F041853A2804F096853B2888
:1047B00006F067833C2806F0DE8306F0F0BB18F0B5
:1047C000D3FA65491AF0D8FF18F0CEFADFF8C4140E
:1047D0001AF06DFE60491AF0CFFF18F0C5FADFF845
:1047E000F01C1AF064FE5C491AF0C6FF18F0BCFA1F
:1047F000DFF8A0141AF05BFE57491AF0BDFF18F05D
:10480000B3FADFF8D01C1CF0A9FA16F1B40018F0C6
:104810001DFB41F69820304480ED000B16F1BC00E2
:1048200018F014FB41F69020304480ED000B00207E
:1048300041F68821705416F5FE7018F0EBFA0D90D1
:104840000DA817F0A9F841F6D8223244C2E90001B8
:1048500016F5757018F0DEFA0C900CA817F09CF89D
:1048600016F5D752C2E9000141F6D8203044D0E90C
:10487000002341F2084030440EF0F6FA41F20840BD
:1048800030441CF075FA16F5017018F0C3FA0B905D
:104890000BA817F081F841F6D0223244C2E900019A
:1048A00041F6D0203044D0E9002341F2307030444A
:1048B0000DF05EFF41F6D0203044D0E9002341F2F4
:1048C000987030440DF054FF41F6D0203044D0E9C8
:1048D000002316F5C0500DF095FE41F6D02030446F
:1048E000D0E9002341F6580030440DF08BFE41F62C
:1048F000D0203044D0E9002341F6B00030440DF020
:1049000081FE41F6D0203044D0E9002341F6081062
:1049100030440DF02DFF41F6D0203044D0E9002383
:1049200041F6701030440DF023FF41F6D0203044A2
:10493000D0E9002341F6D81030440DF019FF16F5E8
:10494000157017F0E4FC00280AD0012009E000BF30
:10495000144B06081C4B060835E50508C03F060841
:10496000002041F63131705441F63130315C06F6A9
:10497000886018F0E7FB41F63130305C00281DD02C
:10498000012141F23070304418F0F2FB012141F274
:104990009870304418F0ECFB012141F608103044C7
:1049A00018F0E6FB012141F67010304418F0E0FBEE
:1049B000012141F6D810304418F0DAFB41F6D0203E
:1049C00006EB000116F5F25017F07BF816F5D070E3
:1049D00017F08CFCC0B241F65021705016F56F7084
:1049E00018F090FA41F65421705016F5717018F0D5
:1049F00089FA41F63841705016F5737018F082FA52
:104A000041F63C41705016F56F7018F07BFA41F694
:104A100054217158814201D0012000E00020C0B231
:104A200000280FD041F6542006EB000116F56F70F8
:104A300018F0A1FB41F6542006EB000106F6FC60DD
:104A400018F099FB16F51E7017F061FC002801D0D4
:104A5000012000E0002016F5E151087042F26000EC
:104A6000304400220023C0E9002341F624303044C2
:104A70001CF082F941F6F02030441CF098F941F620
:104A8000FC2030441CF093F916F11C0017F02EFCAA
:104A900016F5D951087016F5D9500078022829DB8F
:104AA00016F5D95116F1A00018F0C3F918F05CF909
:104AB00078491AF0FCFCDFF8201A1AF05DFE18F0B5
:104AC00053F9DFF8181A1AF0F2FC18F04DF916F540
:104AD000D95109781CF086F9DFF8FC191AF04CFE60
:104AE00018F042F96B491AF0E2FCDFF8EC191AF001
:104AF00043FE08E001208DF801000DF1010116F1DF
:104B0000A00018F096F916F1600017F000FC0028DC
:104B100001D0012000E0002041F63031705441F610
:104B20003030315C16F1600018F00CFB41F2A84007
:104B300030441CF0DBF941F6285006EB000141F24D
:104B4000A84030440FF09CFB18F00EF9DFF89019E4
:104B50001AF0ADFCDFF880191AF00EFE16F507709A
:104B600018F058F941F6E82170504FF47A700A9025
:104B70000AA816F011FFCDE93C013CA941F67030BE
:104B8000304416F09EFF002041F68831705000201E
:104B900041F6903170500020059005A916F50F7070
:104BA00018F0DFF941F6983030440CF0EEFA41F697
:104BB000E820315841F6983030440CF023FB16F5CC
:104BC000C67017F0A4FB002801D0012000E00020EF
:104BD00041F6D831705441F6104030440022002391
:104BE000C0E9002341F61840304400220023C0E908
:104BF000002341F6444030441CF07CF9002041F68B
:104C000034417050002016F5E351087016F57770A6
:104C100018F01CF941F66840304480ED000B16F5A1
:104C2000797018F013F941F67040304480ED000BB4
:104C300041F66820304400220023C0E9002301210E
:104C400042F2A00030441CF070F916F52D7017F0F8
:104C50004DFB0100C9B230000CF068FA41F64C215E
:104C6000705418F081F8DFF8AC1D1AF020FC41F602
:104C70004C21715C1CF0B6F841F64C20305C0028E9
:104C800012D001281BD0022824D004282DD037E0D0
:104C9000CC3F0608D4F5050840F60508FC370608A1
:104CA000C8230608244B060818F05EF8DFF86C1DD0
:104CB0001AF0FDFBDFF820181AF05EFD2AE018F06C
:104CC00053F8DFF85C1D1AF0F2FBDFF80C181AF04D
:104CD00053FD1FE018F048F8DFF8481D1AF0E7FB15
:104CE000DFF8F4171AF048FD14E018F03DF8DFF88B
:104CF000381D1AF0DCFBDFF8E0171AF03DFD09E083
:104D000018F032F8DFF8241D1AF0D1FBDFF8C817CD
:104D10001AF032FD41F6D87030441CF00CF9012035
:104D200042F66011705442F66010315C41F69830E2
:104D300030440CF00CFB142141F6983030440CF058
:104D400075FB002041F678417054002041F679410E
:104D50007054012041F64221705406F020B9300011
:104D60001BF004FEC0B2002801D0012000E00020AA
:104D7000C0B2002822D041F63030305C00280DD07F
:104D8000002116F5C0500DF029FC16F5025090EDEB
:104D9000000B41F2A84030440FF07BFE002141F6A9
:104DA000D81030440DF0C8FC002141F6B00030446A
:104DB0000DF014FC022041F64221705406F0EFB8C9
:104DC00030001BF0D3FDC0B2002801D0012000E06C
:104DD0000020C0B2002841D0012016F5DE51087035
:104DE00041F6C830304416F0BFFE41F68820305CF2
:104DF000002802D0012817D02CE017F0B5FFDFF80B
:104E00007C1D1AF054FBDFF8D0161AF0B5FC012116
:104E100041F2987030440DF08FFC012141F6701082
:104E200030440DF089FC15E017F09EFFDFF8501DAF
:104E30001AF03DFBDFF8A0161AF09EFC012141F2AA
:104E4000307030440DF078FC012141F608103044F8
:104E50000DF072FC032041F64221705406F09FB819
:104E600030001BF083FDC0B2002801D0012000E01B
:104E70000020C0B200283DD016F5F25016F02CFEEE
:104E800016F5017017F0C6FF00EE100AB8EE400AE2
:104E900010EE100A1CF06AF8DFF8E82CDFF8E83CA6
:104EA00016F056FF1CF086F808EE100A17F05CFFAB
:104EB0000400022148A817F091FFDDE94801CDE97F
:104EC000CA01CAA9200017F095FF17F04DFFDFF8BF
:104ED000BC1C1AF0ECFAB0EE480A1CF09FF8D8A1FE
:104EE0001AF0E5FADFF8F0151AF046FC042041F656
:104EF0004221705406F053B816F5F25016F0F9FD41
:104F0000C0B2002801D0012000E00020C0B200287B
:104F10003FD017F029FFDFF8781C1AF0C8FADFF845
:104F2000B8151AF029FC41F64C20305C012804D059
:104F300041F64C20305C042804D1052041F6422182
:104F4000705426E041F6243030441CF0D8F8002894
:104F50001BD141F68820305C002816D142F668103B
:104F600030441CF0DCF8002801D0012000E00020D3
:104F7000C0B2002804D00B2041F64221705408E052
:104F80001B2041F64221705403E01E2041F64221CD
:104F9000705406F004B841F2084030440DF0A4FF0C
:104FA000C0B2002801D0012000E00020C0B20028DB
:104FB0004FD041F68820305C002802D0012812D062
:104FC0002BE041F69020304490ED001B41F69820F4
:104FD000304490ED000B11F08DFB41F67020304411
:104FE00080ED000B19E041F6444030441CF099F884
:104FF0000400641E210041F6444030441CF0A1F836
:1050000090ED060B1CF0ACF851EC100B91F0004148
:1050100041F670223244C2E9000116F5D750D0E9BA
:10502000002341F2084030440DF01EFF41F670208D
:10503000304490ED000B41F2084030440DF008FE82
:1050400041F2A84030441BF051FF062041F64221B6
:10505000705405F0A4BF41F2084030440DF044FF05
:10506000C0B200280CD041F2A84030441BF082F8B6
:10507000012801D0012000E0002090F0010000E0B4
:105080000020C0B2002800F0F88041F6B84006EBDE
:1050900000010DF5ED600EF035F801208DF889075F
:1050A0000DF5ED6141F2A84030440FF0E9F816F536
:1050B0007D7017F0CBFE41F6F060304480ED000BC0
:1050C00016F5677017F08CF841F6EA61705216F524
:1050D000697017F085F841F6EC61705216F5507062
:1050E00017F015F9002801D0012000E0002042F25D
:1050F00028017054002141F2A84030440EF03CF9E0
:10510000B0EE408AF0EE608A41F6F0603044D0E9BB
:10511000002351EC180B16F01BFE1CF055F8040090
:10512000CDF86C470DF5ED6141F2A84030440FF029
:10513000A7F800220DF5ED6141F2A84030440FF0D0
:10514000D9F8DDF86C0742F27001705042F270003D
:1051500030581BF053FC53EC182B16F0EBFE42F2C8
:1051600068023244C2E9000141F6F0603044D0E9FF
:10517000000142F268023244D2E900231BF04EFCE7
:10518000CDE9160117F0F0FDDFF8B41D1AF08FF924
:1051900017F0EAFDD0491AF0EFFA0DF5ED620121A2
:1051A00041F2A84030440FF0D5F917F0DDFDDFF8EB
:1051B000E4191AF07CF917F0D7FDC6491BF0CEFDB3
:1051C000DFF8241E1BF0CAFD41F6F061314491ED79
:1051D000000B1BF094FC17F0C7FDBCA11AF067F997
:1051E000BD491AF0C9FADDE91601002200231BF0BF
:1051F00097FB12D817F0B8FDDFF8F01D1AF057F939
:10520000B5491AF0B9FA41F2A84030440EF036F828
:10521000082041F6422170542FE016A81BF0E8FF49
:10522000CDE93A013AA916F5F25016F04AFC16F506
:10523000F25016F051FC17F097FDDFF8B41D01E0B5
:10524000206300001AF033F917F08EFDA1491BF01E
:1052500085FDDFF8941D1BF081FD9DED160B1BF005
:105260004EFC17F081FD99A11AF021F99A491AF024
:1052700083FA072041F64221705405F090BE00BF2A
:105280000000F03F64F6050816F5F25016F031FC08
:10529000C0B2002801D0012000E00020C0B20028E8
:1052A00008D041F2A84030440DF0E8FF082041F654
:1052B0004221705405F073BE41F2A84030441AF008
:1052C00059FF012801D1012000E00020C0B20028D0
:1052D00000F021810DF5366141F2A84030440FF015
:1052E000B5FB16F5E0504DF804CD0DF5006C9CEDC6
:1052F000D90B5DF804CB80ED000B42F26000304426
:105300004DF804CD0DF5006C9CEDDB0B5DF804CB86
:1053100080ED000B17F028FD6E491BF01FFDDFF834
:10532000C81C1BF01BFD0400002148A817F056FD07
:10533000DDE94801CDE9C801C8A9200017F05AFDF0
:1053400017F012FDDFF8AC1C1AF0B1F817F00CFDE5
:1053500041F67021314491ED000B1BF0D0FB5E490A
:105360001AF00AFA17F000FD0400072148A817F008
:1053700035FDDDE94801CDE9C601C6A9200017F0D9
:1053800039FD17F0F1FCDFF8701C1AF090F817F0F7
:10539000EBFC16F5E05191ED000B1BF0B0FB17F0A4
:1053A000E3FCDEA11AF083F84B491AF0E5F917F097
:1053B000DBFCDFF8481C1AF07AF817F0D5FC040083
:1053C00042F260003044D0E900230020DFF8301CB6
:1053D00016F0BEFC41EC100B20001BF090FB17F008
:1053E000C3FCDFF8201C1AF062F83B491AF0C4F93C
:1053F00017F0BAFCDFF8101C1AF059F817F0B4FCDB
:10540000DDF8881B1AF04EF917F0AEFC32491AF09D
:10541000B3F942F22800305C002868D016F500503D
:10542000007800285ED041F67020304490ED001BDB
:1054300016F5E05090ED000B41F6D87030441BF0AB
:10544000F9FE16F5E050D0E90001002200231BF020
:1054500005FF15D216F5DA50D0E900010022DFF879
:10546000AC3B16F067FD41F670223244D2E90023CE
:105470001BF0B8FB41F670223244C2E9000116E08D
:1054800016F5DA50D0E900010022DFF8803B16F073
:1054900051FD02000B0041F670203044D0E90001BC
:1054A0001BF0BCFA41F670223244C2E9000141F619
:1054B0007020304490ED000B41F2084030440DF074
:1054C000C7FB092041F64221705424E020F100007E
:1054D00088F605084B31060835E50508DC23060883
:1054E0000CED0508132041F64221705413E016F527
:1054F000DA50D0E9002341F648303044D0E90001C9
:1055000016F026FC41F650323244C2E90001132065
:1055100041F64221705405F042BD41F2084030444A
:105520000DF0E2FCC0B2002801D0012000E0002014
:10553000C0B2002808D041F2A84030440DF09EFED1
:105540000A2041F64221705405F029BD41F2A840DD
:1055500030441AF00FFE012801D1012000E00020A4
:10556000C0B2002800F0858040F61831694441F24D
:10557000A84030440FF06AFA16F5E0504DF804CD1B
:105580000DF5006C9CEDC70B5DF804CB80ED000BB6
:1055900017F0EAFBDFF8781A1BF0E0FBDFF8481A97
:1055A0001BF0DCFB0400002148A817F017FCDDE924
:1055B0004801CDE9C401C4A9200017F01BFC17F075
:1055C000D3FBDFF8501A19F072FF17F0CDFB41F64C
:1055D0007021314491ED000B1BF091FADFF8381A7D
:1055E0001AF0CAF817F0C0FB0400072148A817F00A
:1055F000F5FBDDE94801CDE9C201C2A9200017F0A1
:10560000F9FB17F0B1FBDFF8141A19F050FF17F08F
:10561000ABFB16F5E05191ED000B1BF070FA17F0A3
:10562000A3FB3EA119F043FFDFF8EC191AF0A4F830
:1056300041F67020304490ED001B16F5E05090EDDF
:10564000000B41F6D87030441BF0F4FD41F6D870E1
:1056500030441BF01DFE41F65030304441F6F871E5
:10566000314491ED000B80ED000B132041F64221F7
:10567000705405F094BC41F2A84030441AF07AFD11
:10568000012801D1012000E00020C0B2002812D082
:1056900017F06AFBDFF8881919F009FFDFF87819AD
:1056A0001AF06AF841F2A84030440DF0E7FD0C20F2
:1056B00041F64221705405F072BC41F2A8403044DA
:1056C0001AF058FD012801D1012000E00020C0B2ED
:1056D000002800F084800DF52D6141F2A84030448F
:1056E0000FF0B4F94DF804CD0DF5006C9CEDB58BC1
:1056F0005DF804CB17F038FB0400072148A817F029
:105700006DFBDDE94801CDE9C001C0A9200017F01B
:1057100071FB17F029FBDFF8041901E020C200003B
:1057200019F0C5FE17F020FBB0EE480AF0EE680A4B
:105730001BF0E5F917F018FBB7A119F0B8FEDFF878
:10574000D8181AF019F841F64C20305C012804D022
:1057500041F64C20305C04280ED117F005FBDFF831
:10576000341E19F0A4FEDFF8B0181AF005F80D2069
:1057700041F64221705432E09DF8100B002814D0FD
:1057800017F0F2FADFF8101E19F091FE17F0ECFA9C
:10579000DFF8081E19F08BFEDFF87C1819F0ECFF1B
:1057A0000D2041F64221705419E017F0DDFADFF8C0
:1057B000F01D19F07CFE17F0D7FADFF8E81D19F09C
:1057C00076FE17F0D1FADFF8E01D19F070FEDFF871
:1057D000481819F0D1FF1B2041F64221705405F002
:1057E000DEBB41F2084030441BF0C2FA41F65820BB
:1057F000304441F67021314491ED000B80ED000BF7
:1058000016F5D35041F67821314491ED000B80ED2F
:10581000000B002041F644217050132041F648212E
:10582000705041F2084030440DF012F9112041F659
:105830004221705405F0B3BB41F2084030440DF0F2
:1058400053FBC0B2002801D0012000E00020C0B20C
:1058500000280DD041F65820304490ED000B41F265
:10586000084030440DF0F4F9122041F64221705402
:1058700005F095BB41F2084030440DF035FBC0B255
:10588000002801D0012000E00020C0B2002803D091
:105890000E2041F64221705405F081BB41F2A84030
:1058A00030441AF067FC012801D1012000E00020FB
:1058B000C0B2002808D041F2A84030440DF0DEFC10
:1058C0000F2041F64221705405F069BB41F2A84017
:1058D00030441AF04FFC012801D1012000E00020E3
:1058E000C0B2002803D0102041F64221705405F0C8
:1058F00056BB40F68821694441F2A84030440FF07D
:10590000A5F816F5E0504DF804CD0DF5006C9CEDB2
:10591000A30B5DF804CB80ED000B41F6442030581A
:10592000401CCDF8900641F658203044D0E90001E3
:1059300017F062FCCDF8940616F5D350D0E90001BB
:105940001BF042FCCDF8980616F5E05090ED000BE8
:105950004DF804CD0DF5806C8CEDA90B5DF804CBF2
:105960000DF50063D3E9A4230020DFF8941616F0A8
:10597000EFF941EC180B51EC180B31F0004141EC00
:10598000100B4DF804CD0DF5806C8CEDAB0B5DF874
:1059900004CBDDF8B00ACDF8B0060DF5D26010F0FA
:1059A000CEFC9DF8C80A002807D041F644203058A4
:1059B00041F64821715888423ED341F64C20305C74
:1059C000012804D041F64C20305C042830D142F24A
:1059D0000100305C00280DD141F65820304490ED94
:1059E000001B16F5E05090ED000B41F6D8703044E6
:1059F0001BF020FC42F20100305C00281CD041F674
:105A0000D87030441BF044FC012041F678417054BA
:105A100012E000BFD83F060820C20000E43F06089D
:105A20002C4B0608F4160608F0230608344B06082B
:105A3000012041F67841705441F67840305C0028EE
:105A400053D041F2084030440DF0FEF917F078FAD7
:105A500041F668223244C2E90001012041F6784152
:105A6000705417F081F9DFF83C1B19F020FD17F096
:105A70007BF9DFF8381B19F01AFDDFF89C1519F0D7
:105A80007BFE17F071F90400002148A817F0A6F971
:105A9000DDE94801CDE9BE01BEA9200017F0AAF951
:105AA00017F062F9DFF8081B19F001FD41F66821D3
:105AB000314491ED000B1BF022F8DFF85C1519F072
:105AC0005BFE41F64C20305C012804D041F64C20AE
:105AD000305C042804D1132041F6422170544AE07E
