:020000040800F2
:10000000A0C5002095940508CB9F000861A20008B8
:100010007FA200089DA20008BBA20008000000000B
:10002000000000000000000000000000D9A200084D
:10003000E9A2000800000000F9A2000809A30008D6
:10004000E1A60008E1A60008E1A60008E1A6000874
:10005000E1A60008E1A6000819A30008E1A600082F
:10006000E1A6000833A300084DA30008E1A600089C
:10007000E1A60008E1A60008E1A60008E1A6000844
:1000800067A30008E1A60008E1A60008E1A60008B1
:10009000E1A60008E1A60008E1A6000877A3000891
:1000A000E1A60008EFA30008E1A60008E1A6000809
:1000B00023A4000833A40008E1A60008E1A6000874
:1000C000E1A60008E1A60008E1A60008E1A60008F4
:1000D000E1A6000801A6000811A6000821A6000854
:1000E00053A40008E1A60008E1A60008DBA400086C
:1000F00001A50008E1A600082DA50008E1A600085A
:10010000E1A6000831A6000843A40008E1A6000803
:1001100041A6000851A60008E1A60008E1A60008D3
:1001200061A6000871A6000881A6000891A6000833
:10013000E1A60008E1A60008E1A60008E1A6000883
:10014000E1A60008E1A60008E1A60008B1A60008A3
:10015000E1A60008A1A60008E1A60008C1A60008C3
:10016000E1A60008E1A60008E1A60008E1A6000853
:10017000E1A60008D1A60008E1A60008E1A6000853
:10018000E1A6000810B50400200000F080F810BDC2
:1001900010B50400200000F0B1F85021200004F058
:1001A000ACFF10BD10B50400200000F0A7F810BD92
:1001B00010B50400200000F000F96021200004F0D8
:1001C0009CFF10BD10B50400200003F0E7FE68217D
:1001D000200004F092FF10BD10B50400200000F0D4
:1001E000ADFBC821200004F088FF10BD10B504004D
:1001F000200001F027FD4FF4F471200004F07DFF92
:1002000010BD10B50400200004F056FD5021200060
:1002100004F073FF10BD10B50400200004F03EFE92
:100220006021200004F069FF10BD10B5DFF8EC4537
:100230002078002806D10021DFF8E40504F05FFFF4
:1002400001202070DFF8EC462078002806D100213C
:10025000DFF8E40604F053FF01202070DFF80447C4
:100260002078002806D10021DFF8FC0604F047FFC3
:1002700001202070DFF8F8462078002806D1002100
:10028000DFF8F00604F03BFF0120207010BD10B530
:100290000400DFF8E4062060DFF8E0066060A0609C
:1002A0000021E16020615F20A07500200021C4E9E9
:1002B000060100202062002084F82400022084F837
:1002C00025000020A062012084F82C00002020637B
:1002D00000206063012084F838000020E0630020E3
:1002E0002064012084F844000020A064A07D2075D3
:1002F0000020607505F0C3F8200010BD10B50400A3
:10030000DFF87406206005F0BEF8200010BD4163E0
:10031000704738B504000D0014F1400128002A6828
:100320005269904731BDC1637047817570478162E2
:100330007047416070474068704738B504000D0051
:10034000E560E06804F071FE206131BD10B5040085
:10035000022084F82500012084F82C00E0680028A1
:100360000CD0A168E06804F0FDFDE06804F02AFE0E
:1003700000222169200023681B69984710BD0121D4
:1003800080F825107047010091F84400002281F8A0
:100390004420C0B2704710B504002000FFF7F2FE01
:1003A000DFF8DC05206014F14C0005F085F8002032
:1003B000A0650020E065200010BD10B50400DFF846
:1003C000C005206014F14C0005F07EF82000FFF716
:1003D000E9FE200010BD38B505000C00002C04D04B
:1003E000DFF89815200005F08DF8002032BD0000E0
:1003F00070B504000D002E6814F14C0005F08EF865
:10040000401E864201D3002032E0761C14F14C00DD
:1004100005F084F8864212D2310014F14C0005F048
:100420008CF80079002801D0012000E00020C0B243
:10043000002802D02E6001201AE0761CE6E714F1B5
:100440004C0005F06BF8401E864210D1310014F1CB
:100450004C0005F072F80079002801D1012000E07D
:100460000020C0B2002802D12E60012000E0002050
:1004700070BD70B505000E003468002C01D100205D
:1004800029E0641E002C12D0210015F14C0005F06B
:1004900054F80079002801D0012000E00020C0B20B
:1004A000002802D03460012015E0641EEAE7002C29
:1004B00010D1210015F14C0005F03FF8007900281B
:1004C00001D1012000E00020C0B2002802D1346038
:1004D000012000E0002070BD2DE9F84F05000E005E
:1004E0000027686B002805D0686B696B0968C968CC
:1004F0008847070095F82C00002800F08E80E86BF4
:1005000005F025F88FA300220021E86B05F02CF8F8
:100510006B6800220321E86B05F026F815F14C000A
:1005200004F0FCFF002878D0E96D15F14C0005F0CF
:1005300004F80079002801D1012000E00020C0B2B9
:1005400000286AD15FF00108D5F8589019F1010927
:100550005FF0010AE86B05F01BF88346BBF1010B65
:10056000E86D0090009915F14C0004F0E6FF00687A
:10057000FFF7E1FE03004A460121E86B04F0F4FFB7
:10058000B9F1020F1FD3B9F10104002C1BD0694649
:100590002800FFF76EFF002801D0012000E00020B6
:1005A000C0B200280DD0009915F14C0004F0C5FF31
:1005B0000068FFF7C0FE030022000121E86B04F091
:1005C000D3FF641EE1E7E86D0090D9451FD219F111
:1005D0000104A3451BD369462800FFF709FF002843
:1005E00001D0012000E00020C0B200280DD0009909
:1005F00015F14C0004F0A1FF0068FFF79CFE03001A
:1006000022000121E86B04F0AFFF641CE1E782A344
:100610004A460021E86B04F0A7FF3800C0B20C285E
:1006200066D00D2804D00E2828D010287DD087E071
:10063000A86D00280BD1E86D00281ED015F15C01D3
:100640002800FFF716FF012085F82C0015E0E86D63
:1006500000280FD015F15C012800FFF70AFF0028E1
:1006600001D0012000E00020C0B2002802D0A86D17
:10067000401EA865012085F82C0061E0E86B04F0BD
:1006800087FFA96D801E814201D3012000E0002078
:10069000C0B2002810D015F14C0004F03FFFE96D06
:1006A000401E814223D215F15C012800FFF7A0FE15
:1006B000012085F82C001AE015F14C0004F02EFF03
:1006C000E96D401E814212D215F15C012800FFF74E
:1006D0008FFE002801D0012000E00020C0B20028D9
:1006E00002D0A86D401CA865012085F82C0027E0E9
:1006F00015F14C0004F012FF002815D0E96D15F13A
:100700004C0004F01AFF29000068FFF710FEE96DA5
:1007100015F14C0004F011FF00683060012085F8ED
:100720002C00012085F838000AE0A86A002807D0CC
:10073000012085F82C00A86A3060012085F8380077
:10074000BDE8F18F5E7E0000C06D704713B50400F8
:1007500014F14C0004F01EFF00280BD114F14C00E2
:1007600004F0DCFE401E0090694601A804F024FF5E
:100770000068E06513BD7CB504000D00160000950F
:100780008DF80460606B002803D0616B0098FFF760
:10079000BEFDE068002803D0E1680098FFF7CDFDBA
:1007A000E06B002805D0E16B0098009A126892680F
:1007B0009047A17D0098FFF7B8FD21000098FFF752
:1007C000B6FD694614F14C0004F0FDFE0020E06522
:1007D0000020A065002114F14C0004F0AEFE007969
:1007E000002804D114F15C012000FFF701FE012074
:1007F00084F82C0014F14C0004F090FE401E76BDED
:1008000038B505000C00002C03D058A1200004F0DE
:1008100079FE002032BD00003E0000001E95002041
:10082000DC9400202DE9F84F04000D001600200094
:10083000FFF7A8FC53482060504FE764276501226A
:10084000390014F1540004F045FF6766022084F873
:1008500068000120E066002020670020606700201B
:10086000A0670020E067C4F88050002084F884006E
:100870000020C4F88800012084F88C0000200021AA
:10088000C4E92401D4F8800090ED000B84ED260B20
:100890000020C4F8A000002084F8A400002000215B
:1008A000C4E92A0100200021C4E92C01002084F8B9
:1008B000B800002114F1BC0004F025FF0020C4F8AA
:1008C000C0000020C4F8C4000020A0620020206204
:1008D000A07D20750020607584F824600020E06011
:1008E00004F0CDFD2848D0E900234FF4FA785FF0FA
:1008F0000009A8FB020108FB031109FB0211824653
:100900008B462248D0E900894FF47A700021A0FB81
:10091000082300FB093301FB08335046594604F015
:1009200027FF02000B0014F1180004F083FD2000E3
:10093000BDE8F28F1F950020D894002010B5040068
:100940001048206004F09FFD14F1BC0005F04AF847
:1009500014F1540005F086F82000FFF723FC200076
:1009600010BD000020950020D09400200000000061
:100970001D950020D4940020B04D05080B95002053
:10098000D44D0508404405082094002000000020B4
:1009900038B504000D00C4F88850D4F8A00005F064
:1009A0006CF831BD10B52DED028B0400B0EE408A1D
:1009B00084ED1E8A200000F0A4F9BDEC028B10BD6E
:1009C00010B52DED028B0400B0EE408A84ED1F8A35
:1009D000200000F096F9BDEC028B10BD2DE9F84324
:1009E000050016001F00DDF82080DDF824900A9C29
:1009F00085F86840C5F87080C5F87490EE642F657E
:100A0000280000F002F8BDE8F18310B50400D4F826
:100A1000A00005F032F8206F401C05F030F8C4F853
:100A2000A000D4F8800090ED000B84ED260B216F20
:100A3000491C14F1540005F024F814F1540005F099
:100A40004EF894F86830626F216F94ED260B05F034
:100A500081F814F1540005F042F80100D4F8A00028
:100A600004F050FD012084F8440010BDF8B50400E6
:100A700014F1540005F033F80500266F20273A00E2
:100A80003100280005F0E6FA216F14F1540005F05A
:100A900025FB00210170F1BD2DE9FC4F89B0060056
:100AA0000D001400002D00F01B8100279DF8280088
:100AB000012861D0F06C05F035FB8046002C0FD08A
:100AC00044450DD22700B946D6F84CA0AB464A465D
:100AD0005146584605F052FB0020E855380000E129
:100AE0000020404504D2F16C095C2954401CF8E711
:100AF000002C24D0F06E10EB080084421FD2B4EB1F
:100B0000080920208DF801000DF10102494603A8D3
:100B100005F06FFB002105F07EFBCA46070005EBE0
:100B2000080B52463900584605F028FBA346002022
:100B300005F80B0003A805F07DFB5846D1E0202006
:100B40008DF800006A46F16E06A805F052FB002100
:100B500005F061FB824606A805F073FB814605EBB4
:100B600008074A465146380005F008FB4746F06E34
:100B7000C71906A805F05EFBD6E92601D6F8802045
:100B8000D2E9002305F07AFB2BD0012086F844003F
:100B90009DF8500000281BD1D6F8800090ED000B86
:100BA00086ED260B16F1540004F099FF96F8683094
:100BB000726F316F96ED260B04F0CCFF16F15400E6
:100BC00004F08DFF0100D6F8A00004F09BFC10E0BB
:100BD00016F1540004F083FFD6F8A01004F092FC44
:100BE00007E016F1540004F07AFFD6F8A01004F0E4
:100BF00089FC16F1540004F072FF05F093FA804668
:100C0000002C18D018EB0700844214D2B4EB07096B
:100C100016F1540004F063FF8246CDF8049005EB12
:100C2000070B019A5146584605F0A8FA19EB070040
:100C30000021295455E05FF00009C1450BD2494617
:100C400016F1540005F04AFA007817EB09016854D0
:100C500019F10109F1E79DF8280002283BD0202076
:100C600018EB0701685418F10108306D05F05AFAC5
:100C70008146002C1DD018EB070019EB00008442C0
:100C800017D2B4EB070ABAEB080ACDF808A0306D0A
:100C9000019018EB070005EB000B029A01995846EA
:100CA00005F06CFA18EB07001AEB0000002129543C
:100CB00017E00020484507D2391818EB0101326DC2
:100CC000125C6A54401CF5E718EB070019EB0000B2
:100CD0000021295405E018EB07000021295400E009
:100CE00000200BB0BDE8F08F03000020704780F8B3
:100CF000A41090F8A420002A02D1002280F8B82085
:100D0000704710B50400D4F8C400002829D0E06F63
:100D100005F0C4FA41EC100BD4F8C400D4F8C410A8
:100D20000968C9698847A06F05F0B8FA41EC100B53
:100D3000D4F8C400D4F8C4100968096A884794ED4F
:100D40002A0BD4F8C400D4F8C4100968496988474C
:100D500094ED2C0BD4F8C400D4F8C4100968896948
:100D6000884710BD10B50400D4E92623D4F88000CC
:100D7000D0E9000105F082FA04D0002084F8440094
:100D8000012005E094F84400002184F84410C0B22A
:100D900010BD00002DE9F84F04000D0094F8380054
:100DA000002805D0002084F838002000FFF7CEFA94
:100DB0000026606B002805D0606B616B0968C9680C
:100DC0008847060094F82500012800F026810228B3
:100DD00040F05D8594F82400002800F08180200018
:100DE000FFF744FEE06B04F0B2FB012084F82C0016
:100DF000DFF8A00AD0E900234FF4FA785FF0000989
:100E0000A8FB020108FB031109FB021182468B4675
:100E1000DFF8840AD0E900894FF47A700021A0FB42
:100E2000082300FB093301FB08335046594604F000
:100E30009FFC02000B0014F1180004F0FBFA0020E4
:100E400084F8840000202062636800220021E06BA7
:100E500004F08AFB14F1540004F041FE94F8683069
:100E6000626F216FD4F8807097ED000B04F072FE72
:100E700001275FF00008E06C05F054F9814619F194
:100E8000010914F1540004F02AFE05F04BF98246E2
:100E90001AEB090A1AF1010A5FF0010BE36C5A46DA
:100EA0004146E06B04F060FB14F1540004F017FEBF
:100EB00003005A464946E06B04F056FB236D5A4640
:100EC0005146E06B04F050FB20202075D4F88000E0
:100ED00090ED000B84ED260B2000FFF750FA9AE00E
:100EE0003000C0B20C2802D0102818D01DE094F8B1
:100EF0002400002812D0012084F82C00A06A286069
:100F0000012084F83800E068002807D1E06B04F085
:100F10003FFB401E0100E06B05F0E4F97BE0A06AB6
:100F20002860012084F8380075E094F82C0000282F
:100F300003D194F82400002845D1E06B04F007FBAE
:100F4000636800220021E06B04F00EFB14F15400F2
:100F500004F0C5FD94F86830626F216FD4F880709A
:100F600097ED000B04F0F6FD01275FF00008E06C40
:100F700005F0D8F8814619F1010914F1540004F084
:100F8000AEFD05F0CFF882461AEB090A1AF1010A04
:100F90005FF0010BE36C5A464146E06B04F0E4FA63
:100FA00014F1540004F09BFD03005A464946E06BDF
:100FB00004F0DAFA236D5A465146E06B04F0D4FA95
:100FC000002084F82C00E068002813D0E06804F0CA
:100FD00033F80027E06B04F0DBFA8046B8F1010833
:100FE000E06804F020F8030042463900E06B04F0AA
:100FF000BBFA10E00027E06B04F0CAFA8046B8F1B3
:1010000001084146E06B05F06DF9636E4246390018
:10101000E06B04F0A9FA00F03ABC94F8A4000028B0
:1010200004D0012800F05B8200F031BC3000C0B277
:101030000F2829D1206A002821D0206A401E206272
:10104000B8A30222216AE06B04F08EFA216A14F13F
:10105000540005F043F800782E2801D1012000E06B
:101060000020C0B2002802D0002084F88400216A49
:1010700014F1540005F032F82021017004E0A06A58
:101080002860012084F838003000C0B2102804D154
:10109000A06A2860012084F838003000C0B20C2813
:1010A00050D1216A14F1540005F018F800210170A4
:1010B000206A002841D014F1540004F010FD05F01E
:1010C0002EF9D4F8800080ED000BA06F05F0E6F853
:1010D000D4F88020D2E9002305F042F906D2A06FAF
:1010E00005F0DCF8D4F88020C2E90001E06F05F0DB
:1010F000D5F802000B00D4F88000D0E9000105F01B
:101100002FF906D2E06F05F0C9F8D4F88020C2E9C3
:101110000001D4F88800002804D0D4F88000D4F866
:1011200088108847206C002804D0206C216C096846
:1011300089688847012084F84400A06A286001205B
:1011400084F83800E068002813D0E06803F074FFEA
:101150000027E06B04F01CFA8046B8F10108E06853
:1011600003F061FF030042463900E06B04F0FCF934
:1011700010E00027E06B04F00BFA8046B8F101089C
:101180004146E06B05F0AEF8636E42463900E06B15
:1011900004F0EAF9206A216F884280F0F080300084
:1011A000C0B2012800F0AD80C0F0E980032820D053
:1011B0000ED305283FD02DD307285ED04CD3092865
:1011C0007DD06BD30B2800F0C380C0F08980D6E0BF
:1011D000216A14F1540004F081FF3121017052A3FF
:1011E0000222216AE06B04F0BFF9206A401C2062F1
:1011F000C5E0216A14F1540004F070FF322101703F
:101200004AA30222216AE06B04F0AEF9206A401C76
:101210002062B4E0216A14F1540004F05FFF33212E
:10122000017043A30222216AE06B04F09DF9206A59
:10123000401C2062A3E0216A14F1540004F04EFF28
:10124000342101703BA30222216AE06B04F08CF987
:10125000206A401C206292E0216A14F1540004F0DC
:101260003DFF3521017034A30222216AE06B04F0B6
:101270007BF9206A401C206281E0216A14F154004D
:1012800004F02CFF362101702CA30222216AE06BAE
:1012900004F06AF9206A401C206270E0216A14F1AF
:1012A000540004F01BFF3721017025A30222216A9C
:1012B000E06B04F059F9206A401C20625FE0216A6B
:1012C00014F1540004F00AFF382101701DA302221A
:1012D000216AE06B04F048F9206A401C20624EE06D
:1012E000216A14F1540004F0F9FE3921017016A3AB
:1012F0000222216AE06B04F037F9206A401C206268
:101300003DE0216A14F1540004F0E8FE3021017040
:101310000EA30222216AE06B04F026F9206A401C29
:1013200020622CE02020000031000000320000008C
:1013300033000000340000003500000036000000DB
:1013400037000000380000003900000030000000C5
:1013500094F88400002812D1216A14F1540004F09A
:10136000BDFE2E21017048A30222216AE06B04F029
:10137000FBF8206A401C2062012084F884003000C1
:10138000C0B2002827D0DFF80C05D0E90001824662
:101390008B46DFF80405D0E9008902200021A0FB7C
:1013A000082300FB093301FB08335046594604F07B
:1013B000DFF902000B0014F1900004F03BF800206C
:1013C00084F88C00A07D207514F114030222216A98
:1013D000E06B04F0C9F894F88C00002843D0D4E9FD
:1013E000060104F032F8C0B2002801D0012000E06C
:1013F0000020C0B2002871D0DFF89804D0E90023A3
:101400004FF4FA785FF00009A8FB020108FB031112
:1014100009FB021182468B46DFF87C04D0E9008983
:101420004FF47A700021A0FB082300FB093301FB75
:1014300008335046594604F09BF902000B0014F1A2
:10144000180003F0F7FF207DA17D884201D1202004
:1014500000E0A07D207514F114030222216AE06BE4
:1014600004F082F83AE0D4E9240103F0EEFFC0B2C0
:10147000002801D0012000E00020C0B200282DD0BB
:10148000DFF8100402E000BF2E000000D0E90023C6
:101490004FF4FA785FF00009A8FB020108FB031182
:1014A00009FB021182468B46DFF8EC03D0E9008984
:1014B0004FF47A700021A0FB082300FB093301FBE5
:1014C00008335046594604F053F902000B0014F15A
:1014D000180003F0AFFF012084F88C00D7E1300042
:1014E000C0B20C2855D00D2800F0A0800E2800F0C6
:1014F0000881102840F07381A06A2860D4F8C400E5
:10150000002806D0D4F8C400D4F8C41009680969CA
:101510008847012084F8380094F8B800002806D0E5
:10152000D4F8800094ED260B80ED000B05E0D4F894
:10153000800090ED000B84ED260B14F1540004F0B4
:10154000CEFA94F86830626F216FD4F8807097ED0E
:10155000000B04F0FFFA14F1540004F0C0FA01008B
:10156000D4F8A00003F0CEFFD4F88800002804D0FF
:10157000D4F88000D4F888108847206C002804D064
:10158000206C216C096889688847012084F8440030
:1015900025E1A06A2860D4F8C400002806D0D4F859
:1015A000C400D4F8C410096809698847012084F888
:1015B000380094F8B800002806D0D4F8800090EDE8
:1015C000000B84ED260B05E0D4F8800094ED260B8B
:1015D00080ED000B14F1540004F081FA94F86830A7
:1015E000626F216FD4F8807097ED000B04F0B2FAAF
:1015F00014F1540004F073FA0100D4F8A00003F0D1
:1016000081FFD4F88800002804D0D4F88000D4F8F2
:1016100088108847206C002804D0206C216C096851
:1016200089688847012084F84400D8E094F8B8001D
:1016300000283FD0D4F8C400002809D0D4F8801086
:10164000D4F8C400D4F8C4201268926890471CE013
:10165000D4F88000D0E90023D4E92A0104F0A2FEE6
:10166000D4F88020C2E90001A06F04F017FED4F87E
:101670008020D2E9002304F073FE06D2A06F04F0AC
:101680000DFED4F88020C2E90001D4F888000028BB
:1016900004D0D4F88000D4F888108847206C002843
:1016A00004D0206C216C096889688847012084F87F
:1016B000440022E0D4F8C400002809D014F19801B5
:1016C000D4F8C400D4F8C42012689268904714E09B
:1016D000D4E92623D4E92A0104F064FEC4E92601F2
:1016E000A06F04F0DBFDD4E9262304F039FE04D218
:1016F000A06F04F0D3FDC4E92601012084F82C007A
:101700006DE094F8B800002841D0D4F8C400002857
:1017100009D0D4F88010D4F8C400D4F8C4201268DA
:10172000D26890471EE0D4F88000D0E90001D4E9E7
:101730002A2304F0FDFED4F88020C2E90001E06F06
:1017400004F0ACFD02000B00D4F88000D0E90001E9
:1017500004F006FE06D2E06F04F0A0FDD4F880206D
:10176000C2E90001D4F88800002804D0D4F8800031
:10177000D4F888108847206C002804D0206C216C95
:10178000096889688847012084F8440024E0D4F877
:10179000C400002809D014F19801D4F8C400D4F88A
:1017A000C4201268D268904716E0D4E92601D4E933
:1017B0002A2304F0BDFEC4E92601E06F04F06EFDAB
:1017C00002000B00D4E9260104F0CAFD04D2E06F48
:1017D00004F064FDC4E92601012084F82C0094F88B
:1017E0002C00002853D0002084F82C0094F8B80076
:1017F00000280ED014F1540004F071F994F8683008
:10180000626F216FD4F8807097ED000B04F0A2F99D
:101810000BE014F1540004F062F994F86830626F40
:10182000216F94ED260B04F095F9E06C04F07AFC3E
:10183000070014F1540004F052F904F073FC8046E0
:101840005FF0010919EB0700009019EB070A18EB8C
:101850000A0A19EB0A0A5FF0010B0121E06B04F0A0
:1018600041FDE36C01220021E06B03F07DFE14F1E9
:10187000540004F034F903005A460099E06B03F079
:1018800073FE236D5A465146E06B03F06DFEBDE8D2
:10189000F18F000020940020000000202DE9784FF7
:1018A0009BB004000D0016002000FEF76BFCDFF873
:1018B000300A20602E2084F84C002E2084F84D0041
:1018C000452084F84E0014F1500004F0A2FEA565F6
:1018D00000200021C4E918010020A066002000219A
:1018E000C4E91C010020A0670020E067002000215F
:1018F000C4E9200100200021C4E922010520C4F828
:1019000090000020C4F89400002084F89C0000207F
:1019100084F8A8000020C4F8AC0014F1B00004F072
:1019200082FE14F1CC0004F07EFE14F1E80004F015
:101930007AFE0120C4F80401DFF8A809DFF8A8192D
:10194000CDE9100110A804F079FECDE90E010EA931
:1019500014F5847003F0D2FC012084F818010020F3
:1019600084F81901002084F81A0114F58E7004F02F
:101970005AFE14F59C7004F083FE0020C4F8400168
:101980000020C4F84401002084F84801202084F895
:101990004901002084F84A010020C4F850010020C9
:1019A000C4F854010020C4F858010020C4F85C01B8
:1019B0000020C4F860010020C4F864010020C4F8CD
:1019C00068010020C4F86C01002084F87001002038
:1019D000C4F874010020C4F87801002007904FF487
:1019E0007A70089008AA07A914F5C07003F04DFC9E
:1019F00014F5C87004F04EFE14F5CE7004F052FEDB
:101A0000012084F8B401002084F8B501002084F896
:101A1000B601002084F8B701012084F8B801002045
:101A20000021C4E9700114F5E47004F092FE14F58D
:101A3000EC7004F08EFE0020A06200202062A07DE9
:101A400020750020607584F824600020E06003F0B9
:101A500016FDDFF89808D0E900234FF4FA785FF01C
:101A60000009A8FB020108FB031109FB02118246D1
:101A70008B46DFF87C08D0E900894FF47A700021AA
:101A8000A0FB082300FB093301FB083350465946ED
:101A900003F06EFE02000B0014F1180003F0CAFC04
:101AA000210014A801F066FA14A914F1E80004F06A
:101AB0004FFF14A804F057FF012084F844000CA83D
:101AC00004F058FF04F066FF04F08CFF84F84C002B
:101AD0000CA804F08FFF0AA804F04CFF04F05AFF92
:101AE00004F080FF84F84D000AA804F083FFDFF8BB
:101AF00004080088ADF81A000DF11A0214F1500123
:101B000012A804F07EFFDFF8F0070088ADF8180097
:101B100006AA14F1500112A804F073FFDFF8DC07E5
:101B20000088ADF816000DF1160214F1500112A84C
:101B300004F067FFDFF8C8070088ADF8140005AAB5
:101B400014F1500112A804F05CFFDFF8B807008818
:101B5000ADF812000DF1120214F1500112A804F0B8
:101B600050FFDFF8A4070088ADF8100004AA14F1B4
:101B7000500112A804F045FFDFF890070088ADF887
:101B80000E000DF10E0214F1500112A804F039FFFD
:101B9000DFF87C070088ADF80C0003AA14F15001AF
:101BA00012A804F02EFFDFF86C070088ADF80A00D9
:101BB0000DF10A0214F1500112A804F022FFDFF81F
:101BC00058070088ADF8080002AA14F1500112A8C5
:101BD00004F017FF0B208DF8010014F14D010DF1F9
:101BE000010004F029FF0990BDF82400ADF80400BD
:101BF00001AA14F1500112A804F003FF0D208DF882
:101C0000000014F14E01684604F016FF0990BDF87B
:101C10002400ADF802000DF1020214F1500112A8E7
:101C200004F0EFFEDFF8F4060088ADF806000DF1D1
:101C3000060214F1500112A804F0E3FE20001CB0CB
:101C4000BDE8708F10B50400DFF89406206003F043
:101C50001AFC14F5EC7004F002FF14F5E47004F0C3
:101C6000FEFE14F5CE7004F001FF14F5C87004F008
:101C7000E1FA14F59C7004F002FF14F58E7004F084
:101C800072FE14F1E80004F06EFE14F1CC0004F0D2
:101C90006AFE14F1B00004F066FE14F1500004F086
:101CA000F5FE2000FEF77EFA200010BD2DE9F0477A
:101CB0002DED048B90B004008A4694F8380000287B
:101CC00005D0002084F838002000FEF73FFB0025F7
:101CD000D4F84001002807D0D4F84001D4F84011CE
:101CE0000968C9688847050094F82500012800F0B4
:101CF000B180022840F0EB8294F8240000284DD0F7
:101D0000012084F82C00DFF8E405D0E900234FF42B
:101D1000FA760027A6FB020106FB031107FB02115E
:101D2000DFF8CC25D2E900894FF47A760027A6FBAC
:101D3000082306FB093307FB083303F019FD0200F3
:101D40000B0014F1180003F075FBD4F8AC10491C1B
:101D500014F5CE7004F0A1FE14F5CE7004F0C3FEAD
:101D6000002084F8B501002084F8B601002084F832
:101D7000B70100202062A06FE067200000F0ABFBFD
:101D8000200000F034FC20202075A06D90ED000BA9
:101D900084ED180B2000FEF7F2FA5AE02800C0B2DA
:101DA0000C2802D010281DD027E094F82400002829
:101DB00017D0012084F82C00A06ACAF80000012086
:101DC00084F83800E068002807D1E06B03F0E0FBFE
:101DD000401E0100E06B04F085FA14F5E47004F095
:101DE000C1FC36E0A06ACAF80000012084F838007F
:101DF00014F5E47004F0B6FC2BE094F82C000028F5
:101E000003D194F82400002805D1200000F063FBE2
:101E1000002084F82C00E068002812D0E06803F06D
:101E20000BF90026E06B03F0B3FB07007F1EE068B0
:101E300003F0F9F803003A003100E06B03F094FB83
:101E400007E0E06B03F0A4FB401E0100E06B04F030
:101E500049FA3CE22800C0B20F2854D1206A002879
:101E600047D0206A401E206259A30222216AE06BFB
:101E700003F07AFB216A14F5CE7004F03BFE007883
:101E800094F84D10884201D1012000E00020C0B23A
:101E9000002803D0002084F8B50124E0216A14F55D
:101EA000CE7004F027FE007894F84E10884201D1DD
:101EB000012000E00020C0B2002803D0002084F8F8
:101EC000B60110E0216A14F5CE7004F013FE00781C
:101ED0002D2801D1012000E00020C0B2002802D04E
:101EE000002084F8B701216A14F5CE7004F00AFED0
:101EF00005E0A06ACAF80000012084F8380014F553
:101F0000E47004F02FFC2800C0B2102809D1A06AA8
:101F1000CAF80000012084F8380014F5E47004F0D9
:101F200021FC2800C0B20C2840F09680206A0028CE
:101F300000F08E8000200021CDE9060114F5CE715D
:101F400008A804F0F0FD06A904F0FEFD060008A8AC
:101F500004F009FDF6B2002E01D0012000E00020BF
:101F6000C0B200286FD0E76F9FED1A8B3E00002FA4
:101F700000D576429FED199BF00707D553EC192B3E
:101F800051EC180B04F0ECFD41EC190B7608002E17
:101F900008D053EC182B51EC180B04F0E1FD41EC88
:101FA000180BE9E7002F1DD553EC192B0020002159
:101FB00004F064F902D19FEDC89B13E00020DFF824
:101FC000E81B53EC192B04F09FFE41EC190B09E0C0
:101FD000202000000000000000002440000000005D
:101FE0000000F03FDDE9062351EC190B04F0B8FDC9
:101FF000A26DC2E9000194ED222B94ED201BA06D8F
:1020000090ED000B04F0A3FFA06D80ED000BA06E1F
:10201000002802D0A06DA16E8847206C002804D053
:10202000206C216C096889688847012084F8440085
:10203000A06ACAF80000012084F8380014F5E470A2
:1020400004F090FB08E014F5EC7004F08BFB03E067
:1020500014F5EC7004F086FBE068002811D0E0680D
:1020600002F0EAFF0026E06B03F092FA07007F1E01
:10207000E06802F0D8FF03003A003100E06B03F0A3
:1020800073FA2900C9B2200000F04AF914F59C70D7
:1020900004F089FF002840F083802800C0B2122895
:1020A0003DD114F17C0114F59C7004F088FF01907F
:1020B00014F59C7004F0B2FF059005A901A804F086
:1020C000BDFF002801D0012000E00020C0B20028A0
:1020D00066D014F59C7004F0BFFF049004A901A819
:1020E00004F0ACFF002801D0012000E00020C0B2C5
:1020F00000280FD001A804F0BFFF01A804F0C3FF1F
:102100000068E067200000F072FA14F5E47004F053
:1021100029FB45E014F5EC7004F024FB40E02800B6
:10212000C0B213283CD114F17C0114F59C7004F06A
:1021300046FF009014F59C7004F070FF039003A913
:10214000684604F07BFF002801D0012000E0002059
:10215000C0B2002824D0684604F09DFF14F59C709E
:1021600004F05CFF029002A9684604F067FF0028B3
:1021700001D0012000E00020C0B200280CD0684649
:1021800004F081FF0068E067200000F030FA14F5E9
:10219000E47004F0E7FA03E014F5EC7004F0E2FAFE
:1021A0002800C0B2002821D05048D0E90001504A90
:1021B000D2E9008902260027A6FB082306FB093383
:1021C00007FB083303F0D4FA02000B0014F5E070AB
:1021D00003F030F9002084F8B801A07D207514F1D7
:1021E00014030222216AE06B03F0BEF994F8B801EF
:1021F00000283CD0D4E9060103F027F9C0B200283A
:1022000001D0012000E00020C0B200285FD0374894
:10221000D0E900234FF4FA760027A6FB020106FB63
:10222000031107FB0211324AD2E900894FF47A7692
:102230000027A6FB082306FB093307FB083303F03E
:1022400097FA02000B0014F1180003F0F3F8207D58
:10225000A17D884201D1202000E0A07D207514F1ED
:1022600014030222216AE06B03F07EF92FE0D4E927
:10227000700103F0EAF8C0B2002801D0012000E0AC
:102280000020C0B2002822D01848D0E900234FF423
:10229000FA760027A6FB020106FB031107FB0211D9
:1022A000134AD2E900894FF47A760027A6FB082367
:1022B00006FB093307FB083303F05AFA02000B0050
:1022C00014F1180003F0B6F8012084F8B80110B03A
:1022D000BDEC048BBDE8F087000000000000F07F3B
:1022E000684405089A9999999999C93F20940020C2
:1022F0000000002056BF0008B2BF0008CAC3000893
:10230000EAC50008C6C6000886E7000856ED0008C2
:102310009AEF00085EF30008F2F30008D6F6000812
:1023200032B58CB004000CA914F1500004F0BAFED0
:10233000009014F1500004F0E4FE059005A96846F1
:1023400004F0EFFE002801D0012000E00020C0B220
:10235000002800F0BE80206AD4F8AC10884204D374
:1023600014F5EC7004F0FEF9B3E09DF830000B2892
:102370000CD194F8B501002803D194F8B6010028D7
:1023800004D014F5EC7004F0EDF9A2E09DF83000F3
:102390000D2832D194F8B601002804D014F5EC7061
:1023A00004F0E0F995E014F5CE7004F0C8FE0028C2
:1023B00004D014F5EC7004F0D5F98AE014F5CE7071
:1023C00004F0CAFE0390012103A804F0DBFE049090
:1023D00004A804F0E2FE057814F5CE7004F0E3FEE4
:1023E00001280AD1280094F84D10C0B2884204D1C7
:1023F00014F5EC7004F0B6F96BE09DF830000E288F
:102400002BD194F8B701002803D194F8B601002825
:1024100004D114F5EC7004F0A5F95AE014F5CE706F
:1024200004F08DFE002818D114F5CE7004F094FE4F
:102430000290012102A804F0A5FE019001A804F079
:10244000ACFE0578280094F84E10C0B2884204D043
:1024500014F5EC7004F086F93BE0684604F0AAFE3F
:10246000417814F5CE7004F0ADFE06A804F01AF918
:10247000684604F09FFE417806A804F0A3FE06A873
:1024800004F0AAFE03000222216AE06B03F06CF85C
:10249000206A401C20629DF830000B2803D10120E7
:1024A00084F8B5010EE09DF830000D2803D101201D
:1024B00084F8B60106E09DF830000E2802D1012014
:1024C00084F8B70114F5E47004F04CF906A804F0A0
:1024D000CDFA0DB030BDF0B5B5B00400E06B03F03F
:1024E00036F8636800220021E06B03F03DF801A894
:1024F00004F099F8202214F1B0012FA804F072FE24
:102500002FA901A804F087FE2FA804F0AFFA94EDDC
:102510001C0B210008A801F0BFF808A804F043FE36
:10252000D4F8AC10814223D308A804F03CFE060086
:10253000D4F8AC00861B2022310028A804F075FED8
:10254000020001A922A804F080FE08AA22A91CA862
:1025500004F097FE1CA901A804F05DFE1CA804F07D
:1025600085FA22A804F082FA28A804F0FCF917E002
:10257000002608A804F017FE009014F1AC0168468C
:1025800003F01AF807683B00002208A916A804F017
:1025900087FE16A901A804F095FE16A804F066FAB5
:1025A000202101A804F00EFE21000FA800F06CF815
:1025B0000FA901A804F086FE0FA804F0D4F901A920
:1025C000200001F08BFC0125002114F5C87003F0F8
:1025D00022FE030001220021E06B02F0C5FF08A8E3
:1025E00004F0C1F901A804F0BEF935B0F0BD78B52A
:1025F00091B0040014F1B00004F0D5FD0500D4F84A
:10260000AC004519AD1C210003A800F080F8E06B78
:1026100004F060FE060003A804F0C5FDB04201D23C
:10262000012000E00020C0B2002813D0E06B04F0CD
:1026300051FE060003A804F0B6FD2022361A310030
:102640000AA804F0F2FD010003A804F03BFE0AA86A
:1026500004F089F9684604F01DF8020003A920007F
:1026600001F046FC0021684603F0D5FD030002227C
:102670002900E06B02F078FF684603F0DBFD03A859
:1026800004F071F912B070BD38B588B004000D00C7
:10269000200003F0C8FF15F1780115F59C7004F0D7
:1026A0001BFE009015F59C7004F045FE019001A9F9
:1026B000684604F0C3FC002801D0012000E000209F
:1026C000C0B2002810D0684604F0DDFC15F58E720B
:1026D000011D02A804F0B9FD02A9200004F09BFD31
:1026E00002A804F0C3F910E015F58E7004F027FD80
:1026F000002805D115F58E71200004F029F904E0B9
:1027000015F1CC01200004F023F909B030BD38B533
:1027100088B004000D00200003F085FF15F17C0156
:1027200015F59C7004F0D8FD009015F59C7004F030
:1027300002FE019001A9684604F080FC002801D047
:10274000012000E00020C0B2002810D0684604F04C
:102750009AFC15F58E72011D02A804F076FD02A9FF
:10276000200004F058FD02A804F080F910E015F5EF
:102770008E7004F0E4FC002805D115F58E71200060
:1027800004F0E6F804E015F1CC01200004F0E0F8D4
:1027900009B030BD8166704710B50400D4E9182334
:1027A000A06DD0E9000103F069FD04D0002084F899
:1027B0004400012005E094F84400002184F844100E
:1027C000C0B210BDC0F8401170472DE9F0410400BF
:1027D0000D0016001F00DDF81880290014F1B0006C
:1027E00004F0B6F8C4F8AC60390014F1CC0004F081
:1027F000AFF8C4F89080012084F84400BDE8F0816F
:1028000010B52DED028B0400B0EE408AF0EE608A28
:1028100084ED208B94ED222B94ED201B94ED180B6E
:1028200004F095FB84ED180B200001F001F8012065
:1028300084F84400BDEC028B10BD10B52DED028B69
:102840000400B0EE408AF0EE608A84ED228B94EDB5
:10285000222B94ED201B94ED180B04F078FB84EDF3
:10286000180B200000F0E4FF012084F84400BDECC8
:10287000028B10BD10B50400200000F015F8C0B2A6
:10288000002801D0012000E00020C0B2002804D0C0
:1028900014F5E47003F066FF03E014F5EC7003F048
:1028A00061FF10BD000000002DE9F0412DED048B0B
:1028B0000400D4E91801D4E9222303F051FD80F08B
:1028C000A18000255FF0010894F89C00002852D0F8
:1028D000D4E918230020002103F0D0FC37D1D4F82C
:1028E00060719FEDB69B3E00002F00D576429FEDB4
:1028F000AF8BF00707D553EC182B51EC190B04F0F4
:102900002FF941EC180B7608002E08D053EC192B48
:1029100051EC190B04F024F941EC190BE9E7002FF5
:1029200012D553EC182B0020002103F0A7FC02D194
:102930009FEDA08B08E000209B4953EC182B04F07E
:10294000E3F941EC180BFFE784ED188B10E09FEDE5
:102950009B8B51EC180B0022002304F0FFFC07D2E4
:10296000D4E9182351EC180B04F0FAF8C4E9180163
:10297000012005000AE0200001F0A2F8D4E91823A4
:1029800051EC100B03F00EFDC4E9180194ED180B87
:1029900084ED1C0B94ED222B94ED201B94ED180B71
:1029A00004F0D5FA84ED180BD4E91823D4E92201F8
:1029B00003F064FC07D0D4F8900094ED180B04F0F9
:1029C000E4FC84ED180BA06D94ED180B80ED000B6A
:1029D0002800C0B2002802D0200000F0FFFFA06E47
:1029E000002802D0A06DA16E8847206C002804D07A
:1029F000206C216C096889688847012084F84400AC
:102A0000012000E00020BDEC048BBDE8F08110B592
:102A10000400200000F014F8C0B2002801D001200A
:102A200000E00020C0B2002804D014F5E47003F0E8
:102A300099FE03E014F5EC7003F094FE10BD000065
:102A40002DE9F0412DED048B0400D4E92001D4E9F7
:102A5000182303F085FC80F0A28000255FF00108B8
:102A600094F89C00002813D09FED548B51EC180B68
:102A70000022002304F072FC15D2D4E9180153ECB3
:102A8000182B04F041F9C4E91801012005000AE0FF
:102A9000200001F015F8D4E9180153EC102B03F0D5
:102AA00047FDC4E9180194ED180B84ED1C0B94ED5F
:102AB000222B94ED201B94ED180B04F048FA84EDC2
:102AC000180BD4F860719FED3D9B3E00002F00D5A0
:102AD00076429FED368BF00707D553EC182B51EC5F
:102AE000190B04F03DF841EC180B7608002E08D0C5
:102AF00053EC192B51EC190B04F032F841EC190B83
:102B0000E9E7002F12D553EC182B0020002103F029
:102B1000B5FB02D19FED278B08E00020224953EC42
:102B2000182B04F0F1F841EC180BFFE7D4E9180179
:102B300053EC182B03F014FC03D294ED200B84ED1E
:102B4000180BD4E91823D4E9200103F097FB07D030
:102B5000D4F8900094ED180B04F017FC84ED180BDA
:102B6000A06D94ED180B80ED000B2800C0B200287A
:102B700002D0200000F032FFA06E002802D0A06D2D
:102B8000A16E8847206C002804D0206C216C096855
:102B900089688847012084F84400012000E0002073
:102BA000BDEC048BBDE8F0810000F03F00000000A8
:102BB0000000F03F000000000000F07F0000000077
:102BC0000000244010B50400200000F012F8002896
:102BD00001D0012000E00020C0B2002804D014F58C
:102BE000E47003F0BFFD03E014F5EC7003F0BAFDF0
:102BF00010BD10B504000021200000F02DF810BD1C
:102C000010B50400200000F012F8002801D00120C7
:102C100000E00020C0B2002804D014F5E47003F0F6
:102C2000A1FD03E014F5EC7003F09CFD10BD10B5A0
:102C300004000121200000F00FF810BD80F84811B9
:102C400090F84821002A03D1202280F8492102E08F
:102C50005F2280F8492170477CB504000D002800F0
:102C6000C0B2002826D1D4F89400A66F861BD4F8F1
:102C70006411A06F091A0091694614F5B27004F04E
:102C8000A6FB016894F89C00002807D0002084F877
:102C90009C00012084F8440001202AE08E4227DABB
:102CA000D4F89400401CC4F89400012084F8440037
:102CB00001201EE0D4F89400A16F411AD4F85C0101
:102CC000884209DAD4F89400401EC4F89400012028
:102CD00084F8440001200CE094F89C00002807D1FF
:102CE000012084F89C00012084F84400012000E0C9
:102CF000002076BD30B587B00400200000F028F831
:102D00002100684600F036F9694614F1E80003F046
:102D10001FFE684603F027FE14F1E80004F043FAB2
:102D200005006D1E002294F84C1014F1E80004F028
:102D300055FB0021002804D010F1010F01D0421EE4
:102D400000E02A00C4F85401C4F8582107B030BD8F
:102D5000F8B52DED068B86B0050095ED180B85EDC9
:102D60001C0B0020A86795ED188B95F8B40100287E
:102D700042D1D5F894609FED799B3400002E00D5A8
:102D800064429FED78ABE00707D551EC1A0B53EC8A
:102D9000192B03F0E5FE41EC1A0B6408002C08D057
:102DA00051EC190B53EC192B03F0DAFE41EC190B23
:102DB000E9E7002E13D553EC1A2B0020002103F075
:102DC0005DFA02D19FED69AB09E00020DFF8C4187D
:102DD00053EC1A2B03F098FF41EC1A0BFFE78DED33
:102DE00004AB04A915F1600004F002FB90ED000BA8
:102DF000B0EE408AF0EE608A15F59C7004F0D3F8CE
:102E000000286AD115F59C7004F026F9029002A8FA
:102E100004F0FCFA0068A86715F59C7004F0FEFA4F
:102E2000009015F59C7004F004FB019001A9684620
:102E300004F00AFB002801D0012000E00020C0B20D
:102E400000284AD0684604F00DFB066837009FED65
:102E500043AB3C00002F00D564429FED429BE0074E
:102E600007D551EC190B53EC1A2B03F079FE41EC0A
:102E7000190B6408002C08D051EC1A0B53EC1A2BD8
:102E800003F06EFE41EC1A0BE9E7002F13D551EC6D
:102E9000190B0022002303F0F1F902D19FED339BBF
:102EA00009E00020DFF8EC1753EC192B03F02CFF9E
:102EB00041EC190BFFE751EC180B53EC192B03F005
:102EC00023FF0022DFF8CC3704F048FA01D8AE67C0
:102ED00003E0684604F0CEFAA3E7AE6F9FED1F9BB8
:102EE0003400002E00D564429FED1EABE00707D5ED
:102EF00051EC1A0B53EC192B03F032FE41EC1A0B78
:102F00006408002C08D051EC190B53EC192B03F07A
:102F100027FE41EC190BE9E7002E13D553EC1A2BD1
:102F20000020002103F0AAF902D19FED10AB09E0C7
:102F30000020DFF8601753EC1A2B03F0E5FE41EC9C
:102F40001A0BFFE7D5E9180153EC1A2B03F0DCFE4E
:102F5000C5E91C0106B0BDEC068BF1BD0000000008
:102F600000002440000000000000F03F00000000CE
:102F70000000F07F2DE9F84F2DED048BA4B0040084
:102F80000D0095F8B401002802D0280000F05DF98A
:102F9000280000F078F981462900200000F0BFF9F0
:102FA0002100280000F0B2FA07900798A96F884224
:102FB00054D00798A867AF6F9FED868B3E00002F17
:102FC00000D576429FED859BF00707D553EC192B72
:102FD00051EC180B03F0C4FD41EC190B7608002EE0
:102FE00008D053EC182B51EC180B03F0B9FD41EC51
:102FF000180BE9E7002F13D553EC192B0020002103
:1030000003F03CF902D19FED779B09E00020DFF847
:10301000841653EC192B03F077FE41EC190BFFE7F4
:10302000D5E9180153EC192B03F06EFEC5E91C011C
:1030300095F8B401002802D0280000F006F9280015
:1030400000F021F9814629001CA800F068F91CA9AC
:10305000200003F07DFC1CA803F085FC002085F80F
:10306000B4010022DFF8F81A200004F00AFA0390F5
:10307000200004F098F88046B8F10108002295F885
:103080004C10200004F0AAF982461AF1010F43D037
:1030900015F14C0115A804F002FADFF8A82A010086
:1030A0000FA804F00CFA5FF0FF320FA9200004F023
:1030B00015FA06000FA803F0D9FC15A803F053FC7D
:1030C00016F1010F28D00196564502D00198401CF8
:1030D0000190280000F0D7F80700002F0DD521003F
:1030E000280000F0E2F883461BF10100069001A9D8
:1030F00006A804F005FA00680190200004F053F8D7
:103100000199814208D20199200003F0FBFC2000C4
:1031100004F049F8401E80460020009000200290F4
:103120001AF1010F07D00398BAEB00000090B8EB3A
:103130000A00029004E00398B8EB0000401C0090E5
:1031400001200590694605A804F041F90068009047
:103150000020049002A904A804F039F90068029044
:10316000280000F043F8C5F85C01B9F1000F17D54D
:1031700002995FF0FF304143894526DA484604F062
:10318000C6F9029E861B3022310008A804F04DF8D3
:103190000100200004F096F808A803F0E4FB14E016
:1031A000B9F1010F11DB0098401E48450DDA009E71
:1031B000B9EB0606761C0027B74206D2A1A20399F6
:1031C000200004F0A8F97F1CF6E724B0BDEC048BC6
:1031D000BDE8F18F00000000000024400000000066
:1031E0000000F03F000000000000F07F1CB504006C
:1031F00000200090D4E918230020002103F03EF8BD
:1032000005D1D4F86011A06F091A00911BE0D4F821
:103210009000002808D0200000F03BF8D4F890106F
:10322000401A401C009003E0200000F032F80090AB
:10323000D4F86011A06F091A019101A9684604F041
:10324000C6F800680090009816BD10B5040094F808
:10325000A800002809D1D4F86421D4F86011A06F27
:1032600004F067F9C4F8940009E0D4F86421D4F8B4
:103270006011D4F8980004F05CF9C4F894000020C0
:1032800084F89C0010BD0100D1F89400896F401AA9
:10329000704710B50400D4F8900094ED180B04F0BA
:1032A0004FF90100A06F081A10BD70B504000D00A1
:1032B000280003F044FF002802D05FF0FF300EE04A
:1032C0002000FFF7E0FF06002900200000F008F8CA
:1032D0000100B14201DB881B01E05FF0FF3070BDEF
:1032E000F8B505000E00300003F029FF002802D0D9
:1032F0005FF0FF3012E0002295F84C10300004F02F
:103300006DF804000027002C04D014F1010F01D047
:10331000601E03E0300003F046FF401EF2BD2DE9C1
:10332000F84FB8B004000D00280000F08DF806003A
:1033300037005FF0FF3808FB06F82800FFF7A9FF09
:103340008146B9F1000F0BD5B8F10100814507DBCB
:10335000D5F89000B9EB0000401C04F0D8F8070045
:10336000200003F060F918A804F08EF915F59C70A0
:1033700003F019FE002809D0DFF8541B18A804F048
:1033800093F9DFF8501B04F08FF904E0DFF8481BD5
:1033900018A804F089F9390002A804F093F9DDE9CE
:1033A0000201CDE90001694618A804F097F995EDEE
:1033B0001C0B04F0A3F9DFF8A01B04F00FFA18A807
:1033C00004F012FA010012A804F014FA01000BA88C
:1033D00003F0A9FB010004A804F01EFA04A92000D0
:1033E00003F0B6FA04A803F0BEFA0BA803F0BBFA88
:1033F00012A803F03BFB18A804F014FA002104F013
:10340000B2FABE4216DA002295F84C10200003F002
:10341000E5FF82461AF1010F0CD016EB0A0B1BF1E7
:10342000010B200003F0BFFE834503D25946200064
:1034300003F068FB18A804F043FA39B0BDE8F08F38
:10344000000000003000000070B52DED028B84B04C
:1034500004002000FFF717FF05009FEDC08BD4F894
:103460009000B0EE480AF0EE680A04F069F80190A6
:103470000198002801D101200190012D07DB681C73
:10348000039001A903A803F0A2FF0068019001982E
:10349000012810DA04F010FD0600B2A1DFF8C00A1E
:1034A00004F019FD009040F6E613174A01213000A0
:1034B0003668B668B047D4F89000009014F59C7058
:1034C00003F071FD002805D000990198091A491CE4
:1034D000009103E000990198091A009100980028D2
:1034E00001D500200090002D09D5280004F00FF828
:1034F000029002A9684603F06AFF006800900098F5
:1035000004B0BDEC028B70BD043505082DE9F84F01
:1035100088B004000D002000FFF7B5FE0600A06F84
:1035200002900022DFF83816280003F0AAFF0700F7
:10353000280003F038FE8046B8F10108002294F814
:103540004C10280003F04AFF81460020019019F139
:10355000010F03D0B9EB0700019002E0B8EB0700C0
:103560000190002E07D4701C039001A903A803F05A
:103570002EFF0068019019F1010F00F0868014F110
:10358000780114F59C7003F01AFD0100684604F000
:10359000C1FC14F59C7003F041FF079007A9684631
:1035A00003F052FF002801D0012000E00020C0B24B
:1035B000002803D00021684604F0B5FCD4F878A0B8
:1035C000D4F878B014F59C7003F033FF069006A988
:1035D000684603F039FF002801D0012000E00020F8
:1035E000C0B2002834D014F59C7003F017FF05908A
:1035F00005A9684603F028FF002801D0012000E05B
:103600000020C0B200280AD0684604F094FC684646
:1036100003F028FF00688246684603F02BFF6846E7
:1036200003F028FF14F59C7003F003FF049004A935
:10363000684603F009FF002801D0012000E00020C7
:10364000C0B2002804D0684603F00CFF006883462F
:10365000A06FBAEB00000199884202DACDF808A009
:1036600013E00198012810D1002E0ED53900280052
:1036700004F068FC0078302801D1012000E000202F
:10368000C0B2002801D0CDF808B0029809B0BDE85A
:10369000F08F00000000F03F70B52DED028BB8B048
:1036A00004000D00B0EE408AF0EE608A200002F0C7
:1036B000BAFFD5F89060012E01DA0120060018A8A3
:1036C00003F0E2FFD5F8901002A803F0FBFFDDE95C
:1036D0000201CDE90001694618A803F0FFFF15F5C6
:1036E0009C7003F060FC002804D0DFF8E81718A8ED
:1036F00003F0DAFFB0EE480AF0EE680A18A803F00B
:10370000FDFFDFF8541804F069F818A804F06CF80D
:10371000010012A804F06EF801000BA803F003FAF0
:10372000010004A804F078F804A9200003F010F9BF
:1037300004A803F018F90BA803F015F912A803F078
:1037400095F918A804F06EF8002104F00CF918A8F7
:1037500004F0B6F838B0BDEC028B70BD000000007C
:10376000000000000000000038B504000025D4F877
:103770004001002807D0D4F84001D4F8401109686E
:10378000C968884705002800C0B20D2828D00E2837
:1037900032D011281CD0122802D013280CD036E0C9
:1037A00094F84801002803D12000FFF730F902E027
:1037B0002000FFF707FA2AE094F84801002803D117
:1037C0002000FFF757F802E02000FFF719FA1EE08B
:1037D000200000F01DF814F5E47002F0C3FF16E0BD
:1037E00094F84801002803D12000FFF7EBF902E02C
:1037F0002000FFF73FF80AE094F84801002803D1C1
:103800002000FFF7FDF902E02000FFF700F931BDCD
:1038100010B5040094F84801002804D101212000CB
:10382000FFF70CFA03E000212000FFF707FA10BDB4
:1038300010B50400D4E92201D4E9202303F08EFD61
:1038400018D8200000F017F894F89C00002807D042
:103850002000FFF7CBFCA16F0818C4F8940009E022
:10386000D4F86421D4F86011D4F8940003F061FE18
:10387000C4F8940010BD10B586B00400D4E922014C
:10388000D4E9202303F06AFD00F2A6800020019015
:1038900000200090D4E922230020DFF8A41202F0D7
:1038A000EDFC0AD1D4E920230020DFF8941202F0C5
:1038B000E5FC02D10020019044E0D4E9222300205D
:1038C0009F4902F0DBFC0AD1D4E9200100229C4B85
:1038D00002F046FD03D25FF0FF30019032E0D4E900
:1038E00022230020002102F0C9FC09D1D4E92023C1
:1038F0000020002102F0C2FC02D10020019021E052
:10390000D4E922230020002102F0B8FC0AD1D4E936
:1039100020010022002302F023FD03D25FF0FF30DC
:1039200001900FE0D4E9220131F0004141EC100B8D
:1039300002F0FDFC04F00EFB8DED040B04A804F076
:103940003DFB0190D4E920230020002102F096FCE9
:1039500003D17FF00E00009023E0D4E92023002063
:10396000774902F08BFC02D1002000900FE0D4E9EF
:10397000200131F0004141EC100B02F0D8FC04F0C2
:10398000E9FA8DED020B02A804F018FB0090D4F8C0
:103990009000002805D00099D4F89000091A491C1D
:1039A000009194F87001002810D014F5B4716846A5
:1039B00003F00DFD0068C4F8600114F5B67101A8AC
:1039C00004F006FB0068C4F8640105E00098C4F840
:1039D00060010198C4F8640106B010BD1FB5040071
:1039E000D4E918230020002102F048FC04D1D4F8C7
:1039F0006001C4F894002DE000200090D4E9182361
:103A000000204F4902F03AFC02D1002000900FE064
:103A1000D4E9180131F0004141EC100B02F087FCB1
:103A200004F098FA8DED020B02A804F0C7FA00909A
:103A3000D4F89000002805D00099D4F89000091A15
:103A4000491C0091694614F5B07003F0C0FC006891
:103A5000C4F894001FBD0000F8B504000D00160066
:103A60003700280003F09FFB874213D2390028005B
:103A700004F068FA0178200000F00FF8002801D067
:103A8000012000E00020C0B2002801D0380003E08F
:103A90007F1CE6E75FF0FF30F2BD38B504000D0093
:103AA0002800C0B204F09BFA002802D1EDB2C02D6C
:103AB00001DB012000E00020C0B232BD00000000A8
:103AC00070B52DED048B0500D5F894609FED1E9B1D
:103AD0003400002E00D564429FED1D8BE00707D512
:103AE00051EC180B53EC192B03F03AF841EC180B7E
:103AF0006408002C08D051EC190B53EC192B03F07F
:103B00002FF841EC190BE9E7002E12D553EC182BD6
:103B10000020002102F0B2FB02D19FED0F8B08E0E4
:103B20000020074953EC182B03F0EEF841EC180B7A
:103B3000FFE7B0EE480AF0EE680ABDEC048B70BDFA
:103B40000000F03F308F0508000000000000244016
:103B5000000000000000F03F000000000000F07FC7
:103B6000248F05082DE9F64FB7B005000C001E00A4
:103B70002800FFF7F9FD002C00F0A68138980028F6
:103B800000F0A2810020207003A802F04CFD15F582
:103B9000847001F0D4FBC0B2002801D0012000E005
:103BA0000020C0B2002808D095F81801002801D1E3
:103BB000012000E0002085F818013000C0B2012883
:103BC00015D02022D5F8041130A803F02EFB0200F6
:103BD00015F1B0012AA804F00EFA2AA903A803F0EF
:103BE0001AFB2AA802F042FF30A802F0BCFED5E979
:103BF0001823A86DD0E9000102F040FB2BD095ED11
:103C0000222B95ED201BA86D90ED000B03F09FF982
:103C100085ED180BA86DD0E90023D5E9180102F055
:103C20002DFB12D0A86D95ED180B80ED000BA86E42
:103C3000002802D0A86DA96E8847286C002804D0FF
:103C4000286C296C096889688847012085F8B401C7
:103C5000012085F844009DF80801002840F0E48028
:103C60002800FFF747F8D5F89410A86F091A0191BA
:103C70000198002801D4002701E05FF0FF37D5F854
:103C80005811019ABA185FF0FF3000FB02110029A9
:103C900013D504F011F98046B0A1DFF8280604F02E
:103CA0001AF9009040F60D33DFF81C26012140463A
:103CB000D8F800C0DCF808C0E047D5F85811DDF8A6
:103CC000049017EB09095FF0FF3000FB091903A806
:103CD00003F069FA804615F1E80003F064FAD5F8BC
:103CE000AC1081422AD315F1E80003F05CFA824659
:103CF000D5F8AC00B0EB0A0A2022514623A803F005
:103D000094FA020003A91DA803F09FFA15F1E80236
:103D10001DA917A803F0B5FA17A903A803F07BFAA9
:103D200017A802F0A3FE1DA802F0A0FE1AEB0909D5
:103D3000CDF8009023A802F016FE2BE05FF0000AF9
:103D4000D5F8AC00814505D3D5F8AC00B9EB00003F
:103D5000401C824615F1E80003F025FAB0EB0A009A
:103D6000029015F1AC0102A801F026FCD0F800B0D9
:103D70005B46524615F1E80111A803F091FA11A92A
:103D800003A803F09FFA11A802F070FEB9EB0A092C
:103D9000CDF8009095F89C00002804D1009810EB15
:103DA0000800C5F850013000C0B2022827D02021F9
:103DB00003A803F007FA03A803F0F5F981462900E8
:103DC0000AA8FEF761FC0AA903A803F07BFA0AA877
:103DD00002F0C9FD95F89C00002810D003A803F05C
:103DE000E2F9814507D24A4603A92800FFF734FECD
:103DF000C5F8500103E05FF0FF30C5F8500103A99A
:103E0000280000F06BF815F5C87002F01AFAD5F822
:103E10005011814208D2D5F8501115F5C87004F040
:103E2000FAF8007885F84A0115F5C87004F0FCF836
:103E3000002826D195F81901002819D015F5C87069
:103E400002F0FFF9D5F8501181421AD2D5F850117D
:103E500015F5C87004F0DFF8010095F81801002886
:103E600002D095F8490101E095F84A01087008E090
:103E7000D5F8501115F5C87004F0CDF895F84A1131
:103E8000017015F5C87002F0DCF9009038A9684699
:103E900001F092FB0768002F13D0002115F5C870C0
:103EA00002F0B9F98046B946A2464A464146504614
:103EB00002F064F90020E05503A802F054FD380038
:103EC00003E003A802F04FFD002039B0BDE8F08FF9
:103ED000397F0508AD8A05088F71050838B50400DB
:103EE0000D0014F5C8722900200000F001F831BD62
:103EF0002DE9F84386B004000D001600290068463D
:103F000004F0A4F8684603F04EF9401C01003000AC
:103F100004F0A2F8684603F012F9002813D100213A
:103F2000300002F078F90700684603F03CF980465B
:103F3000684603F051F9814618F1010842464946A6
:103F4000380002F01BF9684602F090FD07B0BDE8AA
:103F5000F0830300002070479D8A050800000000E0
:103F60004062050810B504002000FCF70BF9DFF8EB
:103F70006003206014F14C0004F0A9F80020A06553
:103F80000020E065002084F86000002060660020CA
:103F900084F825000020E060200010BD10B504006A
:103FA000DFF82C032060A06D002802D0A06D01F086
:103FB00064FD0020A06514F14C0004F090F820008E
:103FC000FCF7F0F8200010BD2DE9F04104000D00D1
:103FD00029002000FCF7A7F9E06B002813D0E06B64
:103FE00003F078F9401C01F04AFDA065E06B03F096
:103FF00071F90600761C0027D4F858803A00310089
:10400000404602F027F8BDE8F0812DE9FF410500A8
:104010000E00170098460A9CE86B03F05BF9401EFF
:10402000B84201D2012000E00020C0B2002801D037
:10403000002036E0E86B01F0ABFA401E404501D2AB
:10404000012000E00020C0B2002801D0002028E0BC
:10405000686B002803D0696B3000FCF758F9E868FA
:10406000002803D0E9683000FCF767F9E86B002806
:1040700004D0E96B3000326892689047A97D300027
:10408000FCF753F900960197CDF808808DF80C40A5
:1040900000208DF80D00694615F14C0004F026F85B
:1040A000012004B0BDE8F08138B505000C00002CFB
:1040B00004D0DFF81812200001F024FA002032BDED
:1040C0000300002070472DE9FE4F04000D0094F816
:1040D0003800002805D0002084F838002000FCF7C4
:1040E00035F900208DF80400606B002806D0606B65
:1040F000616B0968C96888478DF8040094F8250049
:10410000002800F0D880022802D0C0F0CE80D2E093
:104110009DF804000C2802D010280CD017E0E06DA8
:10412000002807D0002084F82C00E06D28600120D2
:1041300084F83800B8E0A06A002807D0002084F88E
:104140002C00A06A2860012084F83800ACE0E06B05
:1041500001F0FDF9E06B01F01BFA0600761E002766
:104160005FF001085FF0000914F14C0004F045F81D
:1041700081457BD2494614F14C0004F04DF8407B58
:10418000002801D0012000E00020C0B200286AD140
:1041900001208046494614F14C0004F03DF8806847
:1041A000B04203D394F86000002801D0012000E061
:1041B0000020C0B2002856D0606E814525D338005B
:1041C000C0B2002821D1494614F14C0004F024F873
:1041D0000068016849698847C0B2002801D0012001
:1041E00000E00020C0B200280FD00120070000200E
:1041F000804619F10100606614F14C0003F0FDFFE8
:10420000616E814201D300206066494614F14C0082
:1042100004F002F8D0F800A0E06B03F05BF88346EE
:10422000494614F14C0003F0F7FF4146C9B2009132
:10423000037B5A46A16D5046DAF800C0DCF80CC08A
:10424000E047494614F14C0003F0E6FF8246494638
:1042500014F14C0003F0E0FFA36D8268DAF804105B
:10426000E06B01F081F919F101097DE73800C0B276
:10427000002801D10020606694F86000002813D166
:10428000E06800280CD0E06800F0D6FEE06800F09E
:10429000CAFE030032000021E06B01F065F903E083
:1042A0003100E06B02F01EF805E0E06D28600120AF
:1042B00084F83800FFE7BDE8F78F012180F860102F
:1042C00070470000E00A0508043505080B9500203A
:1042D000F84D05082DE9F84F04000F0015001E00E9
:1042E0002000FBF74FFFDFF8480C2060E56400205A
:1042F000206567650020A0650020A0620020206284
:10430000202020750020607584F824600020E06083
:10431000DFF8200CD0E900894FF4FA720023A2FBE9
:10432000080102FB091103FB081182468B46DFF8E6
:10433000080CD0E900894FF47A700021A0FB082313
:1043400000FB093301FB08335046594601F010FACF
:1043500002000B0014F1180001F06CF82000BDE819
:10436000F28F00002DE9F04104000F250F262027D1
:10437000D4F84C803A003100404601F06BFE00203A
:10438000E16CC873BDE8F081816570472DE9FF4796
:1043900006000C001500002C18D0716D684603F063
:1043A00045FF684601F0BEFE0700002D02D0BD4269
:1043B00000D22F00B846E946A2464246494650463A
:1043C00001F0DCFE0020E055380000E0002004B0E1
:1043D000BDE8F0872DE9F84789B005000C0016000C
:1043E000002C37D000208DF80400286D002813D150
:1043F0002800FBF7A0FF010001A803F046FF17A16A
:1044000003F043FF01A801F08DFE0700696D01A8CC
:10441000384403F00BFF09E0002000900023002245
:1044200001A9286D2F6D3F68FF68B84701A801F00A
:1044300079FE0700BE4200D23700B8460DF10409EC
:10444000A24642464946504601F098FE0020E055FB
:10445000380000E000200AB0BDE8F087200000002E
:104460002DE9F84F04000D0094F83800002805D01D
:10447000002084F838002000FBF768FF0026606BFE
:10448000002805D0606B616B0968C9688847060021
:1044900094F82500012800F09F80022840F0078250
:1044A0003000C0B20C2802D010283BD040E094F875
:1044B0002400002835D02000FFF754FF012084F8A5
:1044C0002C00DFF8700AD0E900234FF4FA785FF08F
:1044D0000009A8FB020108FB031109FB0211824637
:1044E0008B46DFF8540AD0E900894FF47A70002136
:1044F000A0FB082300FB093301FB08335046594653
:1045000001F036F902000B0014F1180000F092FFE0
:10451000002020620221E06B01F0E4FE2000FBF7A6
:104520002EFF58E0A06A2860012084F8380052E08D
:1045300094F82C00002803D194F82400002816D108
:10454000E06B01F004F8636800220021E06B01F0E9
:104550000BF8606D0168E06C03F068FEE36C01220B
:104560000021E06B01F000F8002084F82C00E068E6
:10457000002828D0E06800F0B4FD002801D0012018
:1045800000E00020C0B200280BD0E06800F03BFD46
:10459000E06800F04AFD00220100200023681B694A
:1045A0009847E06800F048FDE06B00F0F1FF07007D
:1045B000E06800F038FD03007F1E3A000021E06B48
:1045C00000F0D2FF07E0E06B00F0E2FF411EC9B24D
:1045D000E06B01F087FE6AE1D4E9060100F035FFE7
:1045E000C0B2002801D0012000E00020C0B20028A5
:1045F00035D0207DA17D884201D1202000E0A07D22
:104600002075DFF83009D0E900234FF4FA785FF025
:104610000009A8FB020108FB031109FB02118246F5
:104620008B46DFF81409D0E900894FF47A70002135
:10463000A0FB082300FB093301FB08335046594611
:1046400001F096F802000B0014F1180000F0F2FEE1
:1046500014F114030222216AE06B00F085FF3000A0
:10466000C0B20F2813D1206A00280DD02020E16CA1
:10467000226A88549DA30222216AE06B00F074FF35
:10468000206A401E206202E02000FBF75FFE30003F
:10469000C0B20C2822D10020E16C226A8854206A22
:1046A000002818D0E16C606D03F0FEFD002804D1F5
:1046B000DFF898080068616D0860A06D002802D0DE
:1046C000606DA16D8847206C002804D0206C216C9F
:1046D0000968896888472000FBF738FEE0680028F1
:1046E00028D0E06800F0FDFC002801D0012000E0A7
:1046F0000020C0B200280BD0E06800F084FCE06825
:1047000000F093FC00220100200023681B699847F9
:10471000E06800F091FCE06B00F03AFF0700E06811
:1047200000F081FC03007F1E3A000021E06B00F0E6
:104730001BFF07E0E06B00F02BFF401E0100E06B69
:1047400001F0D0FD206A0F2880F0B1803000C0B2A7
:10475000012800F09180C0F0AA8003281CD00DD35E
:10476000052835D026D307284ED03FD3092867D057
:1047700058D30B2800F08E8070D398E03120E16C84
:10478000226A8854A0A30222216AE06B00F0ECFEAA
:10479000206A401C20628AE03220E16C226A885440
:1047A0009AA30222216AE06B00F0DEFE206A401C20
:1047B00020627CE03320E16C226A885494A30222B8
:1047C000216AE06B00F0D0FE206A401C20626EE09F
:1047D0003420E16C226A88548EA30222216AE06BA5
:1047E00000F0C2FE206A401C206260E03520E16CCF
:1047F000226A885488A30222216AE06B00F0B4FE8A
:10480000206A401C206252E03620E16C226A885403
:1048100082A30222216AE06B00F0A6FE206A401CFF
:10482000206244E03720E16C226A88547CA3022293
:10483000216AE06B00F098FE206A401C206236E09E
:104840003820E16C226A885476A30222216AE06B48
:1048500000F08AFE206A401C206228E03920E16CCA
:10486000226A885470A30222216AE06B00F07CFE69
:10487000206A401C20621AE03020E16C226A8854D1
:104880006AA30222216AE06B00F06EFE206A401CDF
:1048900020620CE02E20E16C226A885464A302227C
:1048A000216AE06B00F060FE206A401C2062BDE8D7
:1048B000F18F70B504000D0016002000FBF762FCBC
:1048C000DFF88C062060DFF88C06E0642065656503
:1048D000287884F858000020E0650020A06284F861
:1048E00024600020E060200070BD00002000000077
:1048F000C1657047C164026570472DE9FE4F06002F
:104900000C0015001F00002C7BD00FF22819C846A0
:10491000002D57D05FF0010A3800C0B201280BD03B
:10492000706801F0FFFB8146404601F0FBFB10EB95
:10493000090919EB0A09CA46706D0078012806D1E9
:10494000F06C01F0EFFB814619EB0A0905E0306DD0
:1049500001F0E8FB814619EB0A09484601F08FF89F
:10496000824600208AF800003800C0B2012807D033
:104970007168504603F089FC4146504603F085FCBF
:10498000706D0078012804D1F16C504603F07DFC75
:1049900003E0316D504603F078FC4D4500D2A94646
:1049A000CDF80490CDF800A0A346019A009958468E
:1049B00001F0E4FB002004F80900504601F05DF826
:1049C00048461FE0002020703800C0B2022807D0FF
:1049D0007168200003F059FC4946200003F055FCA3
:1049E000706D0078012804D1F16C200003F04DFCBB
:1049F00003E0316D200003F048FC200001F092FB41
:104A000000E00020BDE8FE8F310000003200000011
:104A100033000000340000003500000036000000C4
:104A200037000000380000003900000030000000AE
:104A30002E000000203A2000030000207047F8B547
:104A400004000D0094F83800002805D0002084F8F8
:104A500038002000FBF77AFC0026606B002805D0A8
:104A6000606B616B0968C9688847060094F8250087
:104A7000012800F08480022840F0108194F824007E
:104A8000002819D0E06B00F062FD6368002200216D
:104A9000E06B00F069FDB9A301220021E06B00F09A
:104AA00063FD606D007884F85800002084F82C00C5
:104AB0002000FBF764FC61E03000C0B20C2802D09B
:104AC000102813D018E094F8240000280DD00120FD
:104AD00084F82C000221E06B01F004FC2000FBF7BD
:104AE0004EFC606D007884F8580047E0A06A2860AA
:104AF000012084F8380041E094F82C00002803D10C
:104B000094F8240000281CD1E06B00F020FD6368BD
:104B100000220021E06B00F027FD606D0078012885
:104B200006D1E36C01220021E06B00F01DFD05E0E1
:104B3000236D01220021E06B00F016FD002084F8B7
:104B40002C00E068002811D0E06800F075FAE06BF6
:104B500000F01EFD0700E06800F065FA03007F1E0C
:104B60003A000021E06B00F0FFFC07E0E06B00F092
:104B70000FFD401E0100E06B01F0B4FB8EE001214F
:104B8000E06B01F0AFFB0221E06B01F0ABFB7BA31C
:104B900001220021E06B00F0E7FC606D0078012845
:104BA00006D1E36C01220321E06B00F0DDFC05E09F
:104BB000236D01220321E06B00F0D6FC94F858002D
:104BC000012806D1E36C02220321E06B00F0CCFC4B
:104BD00005E0236D02220321E06B00F0C5FC3000EC
:104BE000C0B2102804D1A06A2860012084F83800DF
:104BF0003000C0B20C2816D194F85800616D0870CE
:104C0000E06D002802D0606DE16D8847206C0028BF
:104C100004D0206C216C096889688847A06A2860E4
:104C2000012084F838003000C0B20D280AD194F871
:104C30005800012803D1002084F8580002E0012028
:104C400084F858003000C0B20E280AD194F85800F9
:104C5000012803D1002084F8580002E0012084F8E4
:104C60005800E068002811D0E06800F0E5F9E06B3A
:104C700000F08EFC0700E06800F0D5F903007F1E0D
:104C80003A000021E06B00F06FFC07E0E06B00F001
:104C90007FFC401E0100E06B01F024FBF1BD10B56C
:104CA00004002000FBF76EFADFF8AC022060002061
:104CB000E064200010BD000010B504002000FBF7E8
:104CC00071FA200010BD012280F84420C1647047B1
:104CD0002DE9F84305000C00002C13D0E86C0028E7
:104CE00010D0E86B02F0F6FA06003700D5F84C80D9
:104CF000A1463A004146484601F040FA0020A0553E
:104D0000300000E00020BDE8F2830300002070477F
:104D1000826A0A6070472DE9F8432DED028B04008A
:104D20000D001600B0EE408A2000FBF72BFADFF8EA
:104D30002C0220600020E0642565666584ED168AFB
:104D40000020E065606D401C00F099FEE064676D36
:104D50005FF02008D4F84C9042463900484601F0F4
:104D600079F90020E16C626D8854200000F008F8A9
:104D70002000BDEC028BBDE8F28300005E7E0000E7
:104D80002DE9F84FAAB004000120099005200890F1
:104D90000220079094ED160AB5EE400AF1EE10FAE3
:104DA00079DD606D062876D394ED170AD4ED160AE6
:104DB00080EE200ADFED630A20EE200A8DED010A65
:104DC00001A803F04EFB01900027656DAD1F00EEBA
:104DD000105AB8EE400AD4ED170A94ED161AC0EE38
:104DE000810A20EE200A8DED000A684603F039FBA7
:104DF00006000496206D0390E06C00EB0708039A10
:104E00000499404601F026F9F719A81B02905FF0BB
:104E10002008E06C00EB070942460299484601F081
:104E200019F9EF19BF1B5FF001095FF0200AE06C70
:104E300000EB070B52464946584601F00BF97F1C20
:104E400002230622E06C00EB07010AA802F012FD23
:104E5000032102A802F03BFCDDE90201CDE90501D6
:104E600005A90AA802F03AFCDFF8F41002F01CFCD5
:104E7000019903F000FB202103F067FB252103F0DB
:104E800064FB002103F061FB7F1D0020E16CC8552D
:104E90000AA802F015FD2BB0BDE8F08F10B5040094
:104EA000E06C00F0EAFD2000FBF77CF9200010BD6B
:104EB00010B52DED028B0400B0EE408A94ED161A69
:104EC000DFED210AB0EE480A03F02EFC84ED170A4C
:104ED0002000FFF755FFBDEC028B10BD2DE9F84314
:104EE00005000E001400002C0FD0686D84420CD217
:104EF0002700D5F84C80B1463A004146484601F0BB
:104F00003DF900203055200004E0E96C300000F04D
:104F1000F9FA686DBDE8F28370B505000E00140063
:104F2000002C03D00B49300000F0ECFA002070BDDB
:104F3000904405082094002000000020826A0A6046
:104F4000704700000000C84200000000909B050868
:104F5000B84405080B9500201C4E0508404E050876
:104F6000237E05082DE9F04105000C00002C27D018
:104F70000020686300266869864211D2200001F093
:104F8000D1F8864205D2286829698919A25D425460
:104F900004E028682969891920224254761CEAE72E
:104FA000A86800280CD0AE682027D5F804803A0005
:104FB0003100404601F04EF800206968AA68885424
:104FC000BDE8F081F8B50400002060630021A0690D
:104FD000814208D2226823695B186069C3182020C7
:104FE000D054491CF3E7A06800280BD0A568202600
:104FF000676832002900380001F02CF80020616851
:10500000A2688854F1BD10B4002281698A4208D296
:1050100003680469A41841690C1920211955521C10
:10502000F3E710BC70474068704701680269406947
:10503000821801EB0200704738B504000025D4E95E
:10504000080100F002FAC0B2002801D0012000E0FF
:105050000020C0B2002841D0A068002839D0E06804
:10506000002836D0D4E90A2314F1200000F0E2F938
:10507000E068616B884204D200206063012084F8FC
:1050800030000120A168884207D26168095C62682B
:10509000024402F8011C401CF4E7606BE16888429E
:1050A0000DD22068616B405C002808D06068A16860
:1050B00008442168626B895C00F8011C05E06068A7
:1050C000A1680844202100F8011C606B401C60634B
:1050D00002E0002061680870012000E00020C0B2FA
:1050E00032BD010091F83000002804D0002081F882
:1050F0003000012000E00020704703F024BB016075
:10510000704730B4002513E050F8042BD30744BF98
:10511000A9F101039A18091F042942F8045BFAD285
:1051200013468C0744BF15809B1CC90748BF1D70E0
:1051300050F8041B0029E7D130BC704710B5DFF8E8
:1051400050432078002806D10021DFF84803FFF7FC
:10515000D6FF01202070DFF840432078002806D1D8
:105160000021DFF83803FFF7CAFF01202070DFF8C5
:1051700030432078002806D10021DFF82803FFF70C
:10518000BEFF0120207010BD2DE9704F04000D00FE
:10519000160000200021C4E9000100200021C4E91C
:1051A00002010020207400F038F92A68D317DFF8D4
:1051B000F802D0E90089A8FB020108FB031109FBF2
:1051C000021182468B46D6F800805FEAE879DFF864
:1051D000DC02D0E90001A0FB082300FB093301FB3E
:1051E00008335046594600F0C3FAC4E902012000D2
:1051F000BDE8708F38B504000D0000200021C4E91F
:105200000001D5E90001C4E902010020207400F08A
:1052100004F9200032BD38B504000D00D5E90001C5
:10522000C4E90201200000F001F831BD10B504000E
:1052300001202074D4E90223200000F0FBF810BD07
:1052400000210174704738B504000025207C002837
:1052500010D0D4E9000100F0F8F8C0B2002801D065
:10526000012000E00020C0B2002803D000202074FC
:10527000012005002800C0B232BD007C002801D109
:10528000012000E00020C0B270472DE9704F0400FB
:105290000D00160000200021C4E9000100200021BB
:1052A000C4E9020100F0B9F82A68D317DFF8F80161
:1052B000D0E90089A8FB020108FB031109FB0211D8
:1052C00082468B46D6F800805FEAE879DFF8DC0199
:1052D000D0E90001A0FB082300FB093301FB0833E0
:1052E0005046594600F044FAC4E90201D4E90223C9
:1052F000200000F09FF82000BDE8708F38B5040052
:105300000D0000200021C4E90001D5E90001C4E935
:10531000020100F082F8D4E90223200000F08AF8AC
:10532000200032BDD1E90023C0E90223704710B547
:105330000400D4E90223200000F07CF810BD38B549
:1053400004000025D4E9000100F07FF8C0B2002875
:1053500001D0012000E00020C0B2002806D0D4E92E
:105360000223200000F066F8012005002800C0B2EA
:1053700032BD10B5040000200021C4E9000100F096
:105380004CF8200000F00DF8200010BD38B50400E6
:105390000D00D5E90001C4E9000100F03EF820004D
:1053A00032BD10B5040003F02EFAC4E9000110BDAF
:1053B0002DE9F041804603F026FA06000F00DFF8E1
:1053C000EC00D0E9000103F07FFA04000D00D8E9F9
:1053D0000001301A77EB010103F076FA22002B006E
:1053E00001F0BEFB04000D00DFF8BC00D0E90001B5
:1053F00003F06AFA02000B002000290001F084FC8F
:1054000041EC100BBDE8F08110B5040003F0FBF98E
:10541000D4E90023801A994110BD10B5DFF89040FF
:105420002078002805D1DFF88C0003F076FA0120FF
:10543000207010BD70B5060014001D0003F0E3F9E4
:1054400000196941C6E9000170BD70B504000D0086
:10545000002603F0D8F9001BA9410122002399423C
:1054600004DB01DC904201D3012000E00020C0B247
:10547000002801D0012006003000C0B270BD80B508
:1054800003F08BF901BD80B503F0E9F901BD00001F
:105490001D950020D49400201E950020DC9400204F
:1054A0001F950020D89400202094002000000020A8
:1054B0001B9500201C9500201CB5040069462000A7
:1054C00003F031FA200016BD10B50400200003F0EF
:1054D00030FA200010BD010091ED1A0A486ED0ED9F
:1054E000000AB4EE600AF1EE10FA04D0002081F850
:1054F0004400012005E091F84400002281F8442096
:10550000C0B270475FEA000C11F8012B00F8012BC4
:1055100012B111F8012BF9E76046704738B5040065
:10552000200003F043FA0500200003F046FA0100D2
:1055300028680968401AC01032BD38B504000D0053
:10554000200003F040FA006800EBC50032BD38B51A
:10555000040000252069854205D22900200000F0C2
:10556000C1FE6D1CF6E731BDF8B504000D00160054
:105570001F00206800280AD03B0032002900206864
:10558000D4F800C0DCF800C0DCF810C0E047F1BD82
:105590000069704738B50400200003F00EFA0500DA
:1055A000200003F003FA29680068814201D101203C
:1055B00000E00020C0B232BD0A6803689A4201D2FE
:1055C0000800FFE770472DE9F04104000D002800B6
:1055D00003F0FFF90100200003F001FA002801D0D8
:1055E000012000E00020C0B2002842D0280003F0D3
:1055F000F0F90700200003F0E6F9006803F007FA6D
:105600000600BE1BF610200003F007FA070020007A
:1056100003F00AFA39680068814203D101212000B1
:1056200003F009FA200003F0F8F90700200003F066
:10563000F4F93A680168200003F01EFA200003F034
:10564000C2F90700200003F0E8F9006803F0DFF971
:105650008046200003F011FA396801EBC60241468A
:1056600003F011FA200003F0D8F901680831016055
:105670002EE0200003F0D1F90600200003F0D4F959
:1056800031680068814203D10121200003F0D3F981
:10569000200003F0C2F90600200003F0BEF93268D2
:1056A0000168200003F0E8F9200003F0B6F9006873
:1056B00003F0ADF90600200003F0DFF92A00310005
:1056C00003F0EEF9200003F0A8F901680831016049
:1056D000BDE8F08170B504000D00160000202070B8
:1056E00066606068112801D3606800E01020A06047
:1056F000A06800F0C4F9E06062682900E06803F087
:10570000DFF9200070BD70B506000D00002D01D13D
:10571000012400E000242100C9B2002901D00021A9
:1057200007E0082003F0F8F92A00012103F006FA47
:105730000021E4B2002C01D00020FFE730603000EF
:1057400070BDF8B504000D0016001F003800C0B28F
:10575000002806D03200290020002368DB69984722
:1057600005E032002900200023681B6A9847F1BD3C
:1057700013F0004C03D55B42524263F100039CEAF4
:10578000210C00F0178010B5644603D34942404213
:1057900061F1000100F00EF8640004D34942404278
:1057A00061F10001244203D55B42524263F10003E0
:1057B00010BD0000BBBBE1B1B2F5803F80F07E8040
:1057C000022A1ED98C46B1FBF2F102FB11C31B0465
:1057D00043EA1043B3FBF2FC02FB1C3380B240EA05
:1057E0000343B3FBF2F002FB103240EA0C4000230B
:1057F0007047022A05D98446B0FBF2F002FB10C2C2
:1058000070474AB105D100F0010249085FEA300053
:10581000704700220023704703F096B90B00020086
:10582000002100207047904271EB030CF6D3B3F5D2
:10583000803F2FD2F0B5B3FA83F7B1FA81F4A7F124
:105840000F0E3D1B5340CEF1200602FA0EF2F3413B
:105850005340B5F10F0746D80F3C2C444140C4F1EA
:105860002006A040F1414140B1FBF3F603FB1611C5
:10587000A2FB0645001BA94102D2761E80185941A1
:1058800080EA010221FA0EF362FA0EF200215A4078
:105890003046F0BD30B4B1FBF3FC03FB1C11A2FB9E
:1058A0000C45001BA94103D2ACF1010C80185941F1
:1058B00030BC02460B46604600217047B2F1807F43
:1058C00065D3F0B5B2FA82F7B1FA81F4C7F10F06E9
:1058D0003D1B22FA06F307F1110EF24120355A4022
:1058E000B5F10F07B8D94140C4F12006A040F141FD
:1058F0004140B1FBF3FC03FB1C11A2FB0C45001B58
:10590000A94103D2BCF1010C801859410F2F12D3C9
:105910000F3FC90341EA5041B1FBF3F603FB1611F7
:10592000A2FB0645D4EBC030A94102D2761E8018F6
:10593000594146EACC3C07B34140C7F12006B84084
:10594000F1414140B1FBF3F603FB1611A2FB064502
:10595000001BA94102D2761E8018594180EA01023B
:1059600021FA0EF3C7F1200462FA0EF20CFA07F0E6
:105970005A402CFA04F13043F0BD80EA010221FACA
:105980000EF3002162FA0EF260465A40F0BD8C46DA
:10599000B1FBF2F102FB11C31B0243EA1063B3FB3C
:1059A000F2FC02FB1C331B024CEA002043EA1063AA
:1059B000B3FBF2FC02FB1C331B024CEA002043EA5F
:1059C0001063B3FBF2FC02FB1C331B024CEA002009
:1059D00043EA1063B3FBF2FC02FB1C324CEA0020EA
:1059E0000023704738B504002068002832D02068B2
:1059F0000068401E216808602068006800280FD5F4
:105A000002F05AFA05001449144802F064FA0090B2
:105A100040F24563124A012128002D68AD68A8476D
:105A200020680068002815D120684068002806D04A
:105A30002068406821684968096849688847206883
:105A4000001D0021016008212068FFF756FB20009F
:105A500000210160200032BDB2120308CC6A0508A3
:105A6000A816050810B50400E06800F006F814F167
:105A70000C0000210160200010BD02F064BE03F0A4
:105A80004BB8FEB504000D000095A068009988424F
:105A900015D2A06840000190694601A801F030FDD0
:105AA00006683100200003F053F800986768C71BB0
:105AB0003900E0686268104403F086F80CE0606822
:105AC0000099884208D200986668861B3100E06819
:105AD0006268104403F078F800986060F7BD10B574
