:020000040800F2
:1000000060C5002055A8050843780108D97A010881
:10001000F77A0108157B0108337B01080000000016
:10002000000000000000000000000000517B0108FB
:10003000617B010800000000717B0108817B0108E1
:10004000597F0108597F0108597F0108597F01082C
:10005000597F0108597F0108917B0108597F0108E8
:10006000597F0108AB7B0108C57B0108597F010856
:10007000597F0108597F0108597F0108597F0108FC
:10008000DF7B0108597F0108597F0108597F01086A
:10009000597F0108597F0108597F0108EF7B01084A
:1000A000597F0108677C0108597F0108597F0108C1
:1000B0009B7C0108AB7C0108597F0108597F01082E
:1000C000597F0108597F0108597F0108597F0108AC
:1000D000597F0108797E0108897E0108997E01080F
:1000E000CB7C0108597F0108597F0108537D010825
:1000F000797D0108597F0108A57D0108597F010814
:10010000597F0108A97E0108BB7C0108597F0108BD
:10011000B97E0108C97E0108597F0108597F01088D
:10012000D97E0108E97E0108F97E0108097F0108EE
:10013000597F0108597F0108597F0108597F01083B
:10014000597F0108597F0108597F0108297F01085B
:10015000597F0108197F0108597F0108397F01087B
:10016000597F0108597F0108597F0108597F01080B
:10017000597F0108497F0108597F0108597F01080B
:10018000597F010810B5144C2078002805D10021B2
:10019000124805F0EFF901202070114C207800285A
:1001A00005D100210F4805F0E5F9012020700E4C23
:1001B0002078002805D100210C4805F0DBF901204A
:1001C00020700B4C2078002805D10021094805F04B
:1001D000D1F90120207010BDDD94002094940020FE
:1001E000DE9400209C940020DF940020989400204E
:1001F000E0940020909400202DE9FF4FCDB0040042
:100200004E982060002300220021201D05F0B4F943
:100210005A98C4F8980A04F69C204FA9082205F0C1
:100220004FFF206810F5A47104F6A82006F03EFAEE
:10023000206810F590700090206810F58873206891
:1002400010F58072012114F52F6009F0A1FA04F66F
:10025000383009F0EFFC04F6783009F00DFE04F6B2
:10026000943009F02FFE14F53A6009F02BFE04F6E5
:10027000AC3009F027FE04F6B83009F02DFE00215D
:1002800004F6484009F0C0FE04F64C4009F035FF82
:10029000002204F65841201D0AF014F802009208CA
:1002A000206810F1980104F658400BF0BFF80120C7
:1002B00084F8200D0120219021A80BF003FCCDE94A
:1002C00004014020029000200190012000904FF492
:1002D0008053206810F1D002206810F5467104F6B2
:1002E00028500DF06EF80023002204F6285114F572
:1002F00069600DF0C1F814F5696204F6285141F205
:10030000FC40204403F02AF9206810F5F3700590B2
:10031000206800F2E5100490206810F5F270039058
:10032000206810F5EA700290206810F5E2700190E4
:10033000206810F5DA700090206810F5D2732068FC
:1003400010F5CA72206810F53B7114F5A85006F03C
:100350004DFA002041F228616054002041F22A61E8
:10036000605241F23060204400220023C0E90023A3
:100370004FF4FA6041F238616050002041F23C6174
:100380006054DFF88C0D90ED002BDFF8880D90EDB8
:10039000001BDFF8840D90ED000B206810F5127241
:1003A000206810F5467114F5B25008F02DFE642057
:1003B000209020A80DF0CAFBCDE9280128A941F220
:1003C000F86020440DF0C4FC4FF4FA701F901FA891
:1003D0000DF0BCFBCDE9260126A941F208702044AE
:1003E0000DF0B6FC4FF47A751E951EA80DF0AEFB0D
:1003F000CDE9240124A941F2187020440DF024FC19
:10040000002041F230716054DFF8101D46A80DF055
:100410007DFD64201D901DA80DF098FB0022049224
:10042000CDE902010020009046AB206810F516725D
:10043000206810F51A7141F23870204405F092FFDF
:1004400046A80DF073FDDFF8D81C3FA80DF05EFD47
:1004500064201C901CA80DF079FB00220492CDE9C9
:100460000201002000903FAB206810F51E7220684A
:1004700010F5227114F5BD5005F074FF3FA80DF082
:1004800055FDDFF8A01C38A80DF040FD0123020047
:10049000206810F5267141F60800204405F09AFE08
:1004A00038A80DF043FDDFF8801C31A80DF02EFDBB
:1004B00064201B901BA80DF049FB00220492CDE99B
:1004C00002010020009031AB206810F52A722068EC
:1004D00010F52E7114F5C35005F044FF31A80DF04E
:1004E00025FDDFF8481C2AA80DF010FD64201A90A5
:1004F0001AA80DF02BFB00220492CDE90201002086
:1005000000902AAB206810F53272206810F5367121
:1005100041F6C800204405F025FF2AA80DF006FD8D
:10052000002041F630116054002041F63111605432
:10053000002041F632116054002041F63411605021
:10054000142041F638116050022041F63C116054ED
:10055000002041F63D1160544FF4CA5804EB0800E6
:100560000022DFF8CC3BC0E9002341F648102044CC
:100570000022DFF8BC3BC0E9002341F650102044C4
:1005800000220023C0E9002341F658102044002235
:100590000023C0E9002314F5CB5000220023C0E95A
:1005A000002341F66810204400220023C0E9002304
:1005B00041F67010204400220023C0E9002341F6D8
:1005C0007810204400220023C0E900236420199001
:1005D00019A80DF0BBFA14F5CC52C2E900010520B0
:1005E00041F688116050002041F68C11605041F6B0
:1005F000901020440DF0A1FC41F6B81020440DF0FD
:10060000A8FC012041F6C411605441F6C8102044F2
:100610000DF0A7FC002041F6D411605441F6D51925
:10062000002004F8090041F6D810204400220023DD
:10063000C0E90023002014F5CF510870002041F6D6
:10064000E111605400201790189518AA17A941F6D7
:10065000E81020440DF0C2FA002014F5D0510860D3
:10066000002041F604216050002041F6082160502E
:10067000002041F60C21605041F61020204404F087
:1006800019FE002041F638216054169516A80DF089
:100690005DFACDE9220122A914F5D2500DF058FBE4
:1006A000002041F65021605414F5CC5141F65820F9
:1006B00020440DF0C9FA6420159015A80DF046FAF3
:1006C00041F670222244C2E9000141F6782204EB8F
:1006D00002000026DFF85C7AC0E9006714F5D45008
:1006E0000026DFF8547AC0E9006741F6882304EB5E
:1006F00003050020DFF8381AC5E9000141F6902013
:1007000004EB00050020DFF8301AC5E9000141F6CE
:10071000982004EB000500200021C5E900014FF4FA
:10072000D55504EB05060020DFF8101AC6E90001D4
:1007300004EB020090ED000B41F6A820204480ED70
:10074000000B04EB020090ED000B41F6B0202044BA
:1007500080ED000B04EB030090ED000B41F6B82098
:10076000204480ED000B04EB050090ED000B14F528
:10077000D65080ED000B012041F6C821605404F6EC
:100780001400109041F2F02020440F9004F60C0069
:100790000E9041F2E82020440D9004F604000C90E5
:1007A00004F2FC700B9014F597500A9004F2F47068
:1007B000099004F2EC70089004F2E470079004F2DF
:1007C000DC70069004F2D470059004F2CC700490B2
:1007D00004F2C470039004F2BC70029004F2B4708E
:1007E0000190206810F581600090206810F57E73FC
:1007F000206810F57A72206810F5767141F6D020E5
:10080000204407F039F941F6106504EB0500002299
:10081000DFF81C39C0E9002341F6186604EB060234
:10082000DFF81C09DFF81C19C2E900014FF4F15789
:1008300004EB0702DFF81009DFF81019C2E9000124
:1008400041F6286004EB000200200021C2E900010B
:1008500041F6306004EB00020020DFF8F418C2E932
:10086000000141F6386A9FEDEE1B9FEDEF0B04F29D
:10087000C47104EB0A0007F00FFE41F6506B04F65A
:100880008C000E9014F508600D9004F674000C9026
:1008900004F664000B9004F65C000A9004F6540021
:1008A000099004F64C00089004F64400079004F602
:1008B0003C00069004F63400059004F62C000490E9
:1008C00004F62400039004F61C000290002001901E
:1008D000206810F56E70009004EB070090ED002B7F
:1008E00004EB060090ED001B04EB050090ED000BFF
:1008F0004623206810F5527204EB0A0104EB0B004A
:100900000DF037FB04EB0B0141F6B060204407F01B
:1009100027FE41F250302044109041F244302044F0
:100920000F9041F2383020440E9041F2283020449C
:100930000D9014F599500C9041F2183020440B9012
:1009400041F2103020440A9041F2083020440990CE
:1009500014F59850089041F2F8202044079004F6CE
:100960008C00069014F50860059004F6740004905D
:1009700004F65400039004F64C00029004F6440080
:10098000019004F63C00009004F6340304F62C02B7
:1009900004F61C0114F5025008F0C2F942F2D00529
:1009A00004EB05000022DFF88837C0E9002342F29B
:1009B000D80604EB0602DFF88807DFF88817C2E9DB
:1009C000000142F2E00704EB0702DFF87C07DFF8E2
:1009D0007C17C2E9000142F2E80004EB00020020AB
:1009E0000021C2E9000142F2F00004EB0002002005
:1009F000DFF85C17C2E9000142F2F80A9FED8C1B98
:100A00009FED890B04F2BC7104EB0A0007F044FD72
:100A100042F2101B04F608100E9004F6FC000D9034
:100A200014F50F600C9014F50E600B9004F6D800CE
:100A30000A9014F50D60099004F6C800089014F5AA
:100A40000C60079004F6B800069014F50B60059052
:100A500004F6A800049014F50A60039004F69800C8
:100A6000029000200190206810F57270009004EB55
:100A7000070090ED002B04EB060090ED001B04EB4B
:100A8000050090ED000B4523206810F5607204EB23
:100A90000A0104EB0B000DF06CFA04EB0B0142F2BF
:100AA0007010204407F05CFD41F2B43020441090F7
:100AB00041F2A83020440F9041F29C3020440E9027
:100AC00041F28C3020440D9041F2843020440C904F
:100AD00041F27C3020440B9041F2743020440A9063
:100AE00041F26C302044099041F264302044089077
:100AF00041F25C302044079004F60810069004F69A
:100B0000FC00059014F50F60049014F50D6003903F
:100B100004F6C800029014F50C60019004F6B800C9
:100B2000009014F50B6304F6A80204F6980114F57E
:100B30000D5008F0F5F8002042F29031605420008A
:100B400000F008FB200000F01AFB0DF067FA14908B
:100B500041F2240020440DF067FA8DF8500041F274
:100B60002C0020440DF060FA8DF8510041F2340061
:100B700020440DF059FA8DF8520041F23C00204417
:100B80000DF052FA8DF853000DF048FA139041F22F
:100B9000440020440DF048FA8DF84C0041F24C001E
:100BA00020440DF041FA8DF84D0041F254002044EC
:100BB0000DF03AFA8DF84E0041F25C0020440DF041
:100BC00033FA8DF84F000DF029FA129041F26400CB
:100BD00020440DF029FA8DF8480041F26C002044C1
:100BE0000DF022FA8DF8490041F2740020440DF016
:100BF0001BFA8DF84A0041F27C0504EB05000DF06C
:100C000013FA8DF84B0041F2840604EB06000DF058
:100C10001CFA002810D001208DF844000FE000BF1E
:100C200000000000008041400000000000002E4055
:100C3000000000000080464000208DF844009DF830
:100C400044000090129B139A14992068A0300DF074
:100C500084FA0DF01CFF0700082109A80DF034FFED
:100C6000DDE90901CDE9070107A938000DF038FFDA
:100C700014F569600DF044FF41F6C411605421443D
:100C800014F11C000DF04BFF04F698600DF054FFBA
:100C900041F6481004EB000181ED000B04EB00016C
:100CA00014F1B4000DF072FF14F56A600DF044FF0A
:100CB00004EB080080ED000B14F5CA5114F1BC00E0
:100CC0000DF064FF41F2140004EB000114F1D400B4
:100CD0000DF069FF41F21C0004EB000114F1DC008F
:100CE0000DF061FF14F56C600DF00AFF069006A888
:100CF0000CF02CFF4FF4CC5704EB0702C2E90001C3
:100D000014F56C6114F501700DF060FF04F6D86005
:100D10000DF0F6FE41F688116050214414F507707D
:100D20000DF066FF14F574600DF08FF9002801D006
:100D3000012000E0002041F6D4116054615C14F100
:100D400060000DF062FF04F658700DF07EF9002887
:100D500001D0012000E0002004F8090014F8091077
:100D600014F515700DF051FF41F2387A14F809109E
:100D700004EB0A000DF05FFF14F8091014F5BD50E4
:100D80000DF059FF14F8091014F5C3500DF053FF7E
:100D900041F6C80814F8091004EB08000DF04BFFE9
:100DA00041F2B44904EB090104F628200DF0FBFEE2
:100DB00004EB09000DF0C0FE41F6A82904EB090080
:100DC00080ED000B41F2BC4B04EB0B0114F52360EA
:100DD0000DF0E9FE04EB0B000DF0AEFE41F6B02085
:100DE000204480ED000B41F2C44B04EB0B0104F6F0
:100DF00038200DF0D8FE04EB0B000DF09DFE41F6FF
:100E0000B820204480ED000B41F2CC4B04EB0B01E9
:100E100004F648200DF0C7FE04EB0B000DF08CFE2D
:100E200014F5D65080ED000B04EB090090ED000B9B
:100E300014F5B25008F01DFA04F6D8700DF005F95B
:100E4000002801D0012000E0002041F6C8216054B4
:100E500004F6D87114F556700DF0F0FE14F56C60C0
:100E60000DF04EFE059005A80CF070FE04EB070295
:100E7000C2E9000141F2240004EB000114F5A06076
:100E80000DF0FBFE41F22C0004EB000114F5A16013
:100E90000DF0F3FE41F2340004EB000114F5A26002
:100EA0000DF0EBFE41F23C0004EB000114F5A360F1
:100EB0000DF0E3FE41F2440004EB000114F5A460E0
:100EC0000DF0DBFE41F24C0004EB000114F5A560CF
:100ED0000DF0D3FE41F2540004EB000114F5A660BE
:100EE0000DF0CBFE41F25C0004EB000114F5A760AD
:100EF0000DF0C3FE41F2640004EB000114F5A8609C
:100F00000DF0BBFE41F26C0004EB000114F5A9608A
:100F10000DF0B3FE41F2740004EB000114F5AA6079
:100F20000DF0ABFE04EB050114F5AB600DF0A5FE72
:100F300004EB060114F5AC600DF080FE41F670255F
:100F400004EB0500D0E9002304EB0A0005F066FA83
:100F500004EB0500D0E9002314F5BD5005F05EFA5E
:100F600004EB0500D0E9002341F60800204405F019
:100F700073F904EB0500D0E9002314F5C35005F024
:100F80004DFA04EB0500D0E9002304EB080005F05E
:100F900045FA14F52F6104F678300DF081FE04F661
:100FA000383104F6B8300DF0A8FE04F6AC3104F682
:100FB000B8300DF0A4FE04F6943104F6B8300DF00C
:100FC0009EFE14F53A6104F6B8300DF098FE142038
:100FD000049004A80CF0BAFD02000B0004F6B8302F
:100FE0000DF097FE1420039003A80CF0AFFD020053
:100FF0000B0004F6B8300DF097FE4FF4FA70029033
:1010000002A80CF0A3FD02000B0004F6B8300DF0AE
:1010100096FE3220019001A80CF098FD02000B0012
:1010200004F6B8300DF097FE78200DF097FE05001D
:10103000231D04F6AC3204F6783128000FF06BFE65
:10104000010004F648400FF093FF002104F6A820A9
:1010500005F06BFBB4F89E0A0090694604F6141084
:101060000DF0C6FD14F59E5104F61C100DF0AEFDFA
:1010700014F5B2500FF092FF41F2D44020440CF02E
:10108000D3FF41F22865605541F2E44020440FF05F
:1010900089FF41F22A66A05341F2EC4020440DF052
:1010A0004BFD41F2306704EB070080ED000B41F28D
:1010B000F44020440DF024FD41F23861605004EB0F
:1010C000050104F678200DF02AFD04EB060104F674
:1010D00088200FF078FF04EB070114F527600DF06E
:1010E00055FD04EB070090ED000B14F5A85005F03A
:1010F000EBFC615D14F5A85005F0B9FCA15B14F59B
:10110000A85005F0C5FC200051B0BDE8F08F0000EC
:1011100090AB050888AB050880AB0508A0AA0508B8
:10112000A8AA0508B0AA0508B8AA0508C0AA050813
:101130000000F03F00002840000069400088C340E4
:101140009A9999999999A93FA4703D0AD7A3D03F3C
:101150000000394010B50400206810F5987104F6BD
:10116000383008F0FCFD206810F59E7104F6383028
:1011700008F00DFE04F6383008F02AFE10BD704766
:101180002DE9F84F2DED048BFEB0040014F5A850A6
:1011900005F0D4FC20680DF078FB04F658400AF006
:1011A00071FA04F628500BF087FF14F5B25008F0DE
:1011B00027F994F8200D002834D00CF02FFF04906C
:1011C0000CF02CFF16900CF029FF159000208DF8E4
:1011D0000D000DF10D00009015AB16AA04A92068B2
:1011E000A0300CF09BFF9DF8100000280BD19DF85B
:1011F0001100002807D19DF81200002803D19DF8A6
:10120000130000280ED0002084F8200D206810F173
:10121000A0010DF10E0006F0FDFA002104F6A82051
:1012200005F083FA41F2387504EB050005F04CF93E
:1012300014F5BD5005F048F941F6080604EB060028
:1012400005F05EF814F5C35005F03EF941F6C80804
:1012500004EB080005F038F904F6A82005F07AFA46
:1012600004F648400FF0BCFE0FF0FAFD14F52F60B5
:1012700008F068FB04F6B8300FF0D4FE41F6D02039
:10128000204406F0E7FD41F6B060204407F077FB0C
:1012900042F27010204407F072FB04F6943010F014
:1012A00016F8002801D0012000E00020C0B200287C
:1012B00004D0002104F6A82005F037FA41F2F860C6
:1012C00020440CF066FDC0B2002801D0012000E0EF
:1012D0000020C0B2002800F02C840021201D0FF057
:1012E000FCFF41F6301914F80900012800F0828053
:1012F00014F5AE700CF0A9FE070004EB050005F034
:101300007AF8874201D0012000E00020C0B2002816
:1013100008D004EB050005F06EF8010014F5AE707E
:101320000DF073FC14F5B4700CF08FFE070014F58B
:10133000BD5005F060F8874201D0012000E0002098
:10134000C0B2002808D014F5BD5005F054F80100D3
:1013500014F5B4700DF059FC14F59C700CF075FE8A
:10136000070004EB060004F06CFF874201D0012067
:1013700000E00020C0B2002808D004EB060004F012
:1013800060FF010014F59C700DF03FFC14F1FC00AF
:101390000CF05BFE070014F5C35005F02CF88742F3
:1013A00001D0012000E00020C0B2002808D014F5D0
:1013B000C35005F020F8010014F1FC000DF025FCED
:1013C00014F584700CF041FE070004EB080005F0F2
:1013D00012F8874201D0012000E00020C0B20028AE
:1013E00008D004EB080005F006F8010014F584703D
:1013F0000DF00BFC14F5A85005F025FBC0B2002839
:1014000001D0012000E00020C0B2002844D014F533
:10141000A85005F020FB8DED320B32A914F52560A4
:101420000DF0B4FB14F5A85005F018FB8DED300B52
:1014300030A904F658200DF0A9FB14F5A85005F0CA
:1014400010FB8DED2E0B2EA914F526600DF09EFBE2
:1014500014F5A85005F008FB8DED2C0B2CA904F613
:1014600068200DF093FB14F5A85005F0FAFAB0EEE1
:10147000408AF0EE608A14F5A85005F0F5FA51ECB8
:10148000180B53EC102B0FF043FFCDE92A012AA9CA
:1014900014F1C4000DF07AFB14F5A8500FF0A9FF69
:1014A000ADF8140005A904F608200FF08CFD04F631
:1014B00078200CF0B9FD41F22867E15DC0B28842A6
:1014C00001D0012000E00020C0B2002817D004F6AF
:1014D00078200CF0A9FD0100C9B214F5A85005F060
:1014E000C6FAE05504EB070104F678200DF017FB6F
:1014F00004EB070141F2D44020440DF010FB14F836
:101500000900022800F0958004F688200FF04AFDBB
:1015100041F22A67E15B80B2884201D0012000E0FD
:101520000020C0B2002817D004F688200FF03AFD42
:10153000010089B214F5A85005F0AAFAE05304EBB3
:10154000070104F688200FF03EFD04EB070141F28D
:10155000E44020440FF037FD14F527600DF0ECFA5D
:1015600041F2306753EC102B04EB0700D0E9000187
:101570000FF042FF01D0012000E00020C0B200289F
:1015800018D014F527600DF0D7FA14F5A85005F01F
:101590009BFA04EB070080ED000B04EB070114F548
:1015A00027600DF0F3FA04EB070141F2EC40204410
:1015B0000DF0ECFA14F529600DF0A2FA41F238674B
:1015C000E159884201D0012000E00020C0B200288B
:1015D00016D014F529600DF093FA010014F5A85007
:1015E00005F068FAE05104EB070114F529600DF0ED
:1015F000FFFA04EB070141F2F44020440DF0F8FA41
:1016000014F528600CF010FDC0B2002801D00120B4
:1016100000E00020C0B200280BD000208DF80C00A4
:1016200003A914F528600DF07AFA14F5A85005F016
:101630007BFA14F190000CF0F7FC14F80910C0B21A
:10164000884201D0012000E00020C0B2002809D06B
:1016500014F809008DF80B000DF10B0114F1900046
:101660000DF05DFA14F5B25007F076FEB0EE408A48
:10167000F0EE608A14F524600DF05EFA53EC182B3E
:1016800051EC100B0FF0B8FE01D0012000E000205B
:10169000C0B200280AD014F5B25007F05DFE8DEDFF
:1016A000280B28A914F524600DF070FA14F809002D
:1016B00000282CD141F63110205C022827D114F5E6
:1016C000AF600CF0C2FC012801D1012000E0002035
:1016D000C0B200280CD0002114F5AF600DF095FACF
:1016E000002104F26C500DF090FA200001F062FE2F
:1016F00004F26C500CF0A9FC002801D1012000E09C
:101700000020C0B2002802D0200001F0BCFE14F17D
:101710001C000CF089FC070014F569600DF0F0F96D
:10172000FFB2874201D0012000E00020C0B20028B3
:1017300009D014F11C000CF077FC149014A914F5D6
:1017400069600DF055FA14F1B4000DF0F5F9B0EE42
:10175000408AF0EE608A04F698600DF0EDF953ECE3
:10176000182B51EC100B0FF047FE01D0012000E0C8
:101770000020C0B2002805D014F1B40104F698602E
:101780000DF011FA14F1BC000DF0D6F9B0EE408A5C
:10179000F0EE608A14F56A600DF0CEF953EC182B68
:1017A00051EC100B0FF028FE01D0012000E00020CA
:1017B000C0B2002805D014F1BC0114F56A600DF028
:1017C000F2F914F1D4000DF0B7F9B0EE408AF0EE62
:1017D000608A41F2140704EB07000DF0ADF953ECF9
:1017E000182B51EC100B0FF007FE01D0012000E088
:1017F0000020C0B2002805D014F1D40104EB07008A
:101800000DF0D1F914F1DC000DF096F9B0EE408A3C
:10181000F0EE608A41F21C0704EB07000DF08CF932
:1018200053EC182B51EC100B0FF0E6FD01D001200A
:1018300000E00020C0B2002805D014F1DC0104EB68
:1018400007000DF0B0F914F501700DF059F907001B
:1018500014F56C600DF054F9874201D0012000E0CE
:101860000020C0B2002805D014F5017114F56C6099
:101870000DF0ACF914F507700DF042F9070004F60D
:10188000D8600DF03DF9874201D0012000E0002032
:10189000C0B2002805D014F5077104F6D8600DF029
:1018A00095F914F160000CF0D0FB070014F574609A
:1018B0000CF0CBFB874201D0012000E00020C0B239
:1018C000002805D014F1600114F574600DF0B6F92C
:1018D00014F515700CF0B9FB070004F658700CF005
:1018E000B4FB874201D0012000E00020C0B20028F4
:1018F00011D014F5157104F658700DF09FF914F518
:1019000015700CF0A2FB002801D0012000E000209F
:1019100041F6D511605442F29030205C012809D084
:1019200043D303281AD00FD305282AD01FD3062863
:1019300031D03AE001208DF80A000DF10A0114F5CA
:101940005C700DF0ECF838E002208DF809000DF124
:10195000090114F55C700DF0E2F82EE003208DF81B
:10196000080002A914F55C700DF0D9F825E00420F8
:101970008DF807000DF1070114F55C700DF0CFF83C
:101980001BE005208DF806000DF1060114F55C70D2
:101990000DF0C5F811E006208DF805000DF10501E8
:1019A00014F55C700DF0BBF807E000208DF8040022
:1019B00001A914F55C700DF0B2F841F2240004EBBB
:1019C000000114F5A0600FF027FD41F22C0004EB9C
:1019D000000114F5A1600FF01FFD41F2340004EB8B
:1019E000000114F5A2600FF017FD41F23C0004EB7A
:1019F000000114F5A3600FF00FFD41F2440004EB69
:101A0000000114F5A4600FF007FD41F24C0004EB57
:101A1000000114F5A5600FF0FFFC41F2540004EB47
:101A2000000114F5A6600FF0F7FC41F25C0004EB36
:101A3000000114F5A7600FF0EFFC41F2640004EB25
:101A4000000114F5A8600FF0E7FC41F26C0004EB14
:101A5000000114F5A9600FF0DFFC41F2740004EB03
:101A6000000114F5AA600FF0D7FC41F27C0004EBF2
:101A7000000114F5AB600FF0CFFC41F2840004EBE1
:101A8000000114F5AC600FF0E3FC14F5025007F010
:101A9000A5F914F50D5007F0A1F914F547700CF0F5
:101AA000D4FA012801D1012000E00020C0B20028B2
:101AB00007D0002114F547700DF0A7F8200002F0C0
:101AC000A9FB04F614100DF01BF8B4F89E1A884216
:101AD00001D0012000E00020C0B2002807D0B4F8F7
:101AE0009E0A099009A904F614100DF081F804F675
:101AF0001C100DF005F8070014F59E500DF000F8CD
:101B0000874201D0012000E00020C0B2002805D0AB
:101B100004F61C1114F59E500DF058F841F61020F3
:101B2000204403F0AAFC089008A914F509700DF0F0
:101B30005FF841F2087020440CF02BF9C0B2002885
:101B400001D0012000E00020C0B2002814D041F2F2
:101B50003077E05D002804D02068C0300FF06AFDC7
:101B600003E02068C0300FF06EFDE05D002801D179
:101B7000012000E00020E05514F5D2500CF009F9E6
:101B8000C0B2002801D0012000E00020C0B200282F
:101B90003AD041F63820205C00280AD04FF4D050CB
:101BA0002158491C215014F5D05114F50B700DF03B
:101BB0001FF841F63010205C022825D141F6082993
:101BC00054F80900401C44F8090041F60C27E2597A
:101BD0000021E059401E0FF030FFE05141F6102780
:101BE00004EB070003F0AFFB04EB090114F50F70E1
:101BF0000CF0FEFF04EB070003F03DFC079007A983
:101C000014F511700CF0F4FF41F63010205C002840
:101C100006D0022800F07083C0F0EB8001F0BBBB5F
:101C200041F63117E05D002804D0022800F0A280C0
:101C30006DD3DCE00CF02BFFDFF8EC1D0FF004FFA0
:101C4000002104EB050004F0CDFB002114F5BD508C
:101C500004F0C8FB012104EB060004F0E9FA0021BE
:101C600014F5C35004F0BEFB002104EB080004F09F
:101C7000B9FB002104EB05000CF0DDFF002114F599
:101C8000BD500CF0D8FF002114F5C3500CF0D3FF69
:101C9000002104EB08000CF0CEFF002114F17800C5
:101CA0000CF0B3FF41F6881004EB000114F5077047
:101CB0000CF09EFF41F2187020440BF0E1FF41F25E
:101CC000286004EB000104F678200CF028FF41F2B4
:101CD0002A6004EB000104F688200FF074F941F249
:101CE000306004EB000114F527600CF04FFF41F267
:101CF000386004EB000114F529600CF079FF002135
:101D000014F5A85004F093FE0120E0556FE041F275
:101D1000187020440BF0C1FFC0B2002801D0012090
:101D200000E00020C0B2002823D00CF0B0FEDFF8A5
:101D3000F85C29000FF088FE0CF0A9FEDFF8DC6CDF
:101D400031000FF087FE29000FF07EFE0CF09FFEA1
:101D5000DFF8C41C0FF07EFE29000FF075FE0CF0BA
:101D600096FE31000FF076FE29000FF06DFE022086
:101D7000E0553CE014F178000CF067F9012801D13E
:101D8000012000E00020C0B2002830D0002114F172
:101D900078000CF03AFF002114F184000CF035FFBC
:101DA00014F10C000CF040F9C0B2012802D0022856
:101DB00007D013E0012041F6301160540020E055B7
:101DC00015E004F648400FF00BF90FF013F802206D
:101DD00041F6301160540020E05508E000208DF8F5
:101DE00003000DF1030114F10C000CF098FE01F05A
:101DF000D2BA4FF4CF57E05D002802D001284FD06F
:101E000078E20CF044FEDFF8209C49460FF01CFEFF
:101E10000CF03DFEDFF804AC51460FF01BFE4946C6
:101E20000FF012FE0CF033FEDFF8E01D0FF012FE93
:101E300049460FF009FE0CF02AFE51460FF00AFE4B
:101E400049460FF001FE41F6702904EB0900D0E984
:101E5000002304EB050004F0E1FA04EB0900D0E9EB
:101E6000002314F5BD5004F0D9FA04EB0900D0E9C1
:101E7000002304EB060004F0EFF904EB0900D0E9BD
:101E8000002314F5C35004F0C9FA04EB0900D0E9AB
:101E9000002304EB080004F0C1FA0120E05529E218
:101EA00014F16C000CF0D1F8012801D1012000E000
:101EB0000020C0B2002814D0002114F16C000CF0F6
:101EC000A4FE0020E055002041F6301160540020AF
:101ED0008DF802000DF1020114F10C000CF01FFE50
:101EE00008E214F5AE700CF0B0F8070004EB050042
:101EF00004F081FA874201D0012000E00020C0B246
:101F0000002808D014F5AE700CF09FF8010004EB27
:101F1000050004F067FA14F5B4700CF096F80700A9
:101F200014F5BD5004F067FA874201D0012000E0AB
:101F30000020C0B2002808D014F5B4700CF085F869
:101F4000010014F5BD5004F04DFA14F59C700CF02E
:101F50007CF8070004EB060004F073F9874201D017
:101F6000012000E00020C0B2002808D014F59C70C9
:101F70000CF06BF8010004EB060004F059F914F1C1
:101F8000FC000CF062F8060014F5C35004F033FABC
:101F9000864201D0012000E00020C0B2002808D015
:101FA00014F1FC000CF051F8010014F5C35004F0DA
:101FB00019FA14F584700CF048F8060004EB0800D8
:101FC00004F019FA864201D0012000E00020C0B2DE
:101FD000002808D014F584700CF037F8010004EBE9
:101FE000080004F0FFF904EB05000FF02EFE41F6A7
:101FF000D516A15DC0B2814201D0012000E00020D1
:10200000C0B2002804D0A15D04EB05000CF013FE63
:1020100014F5BD500FF019FEA15DC0B2814201D090
:10202000012000E00020C0B2002804D0A15D14F51A
:10203000BD500CF000FE14F5C3500FF006FEA15D7C
:10204000C0B2814201D0012000E00020C0B20028CF
:1020500004D0A15D14F5C3500CF0EDFD04EB0800B5
:102060000FF0F3FDA15DC0B2814201D0012000E07C
:102070000020C0B2002804D0A15D04EB08000CF0E1
:10208000DAFD04F628200CF057FD41F6A82553ECA4
:10209000102B04EB0500D0E900010FF0ADF901D0E1
:1020A000012000E00020C0B200283AD004F6282029
:1020B0000CF042FD14F5D45090ED002B41F6782041
:1020C000204490ED001B0FF0C3FD8DED120B04F6C4
:1020D00028200CF031FD53EC102BDDE912010FF03C
:1020E0008BF901D0012000E00020C0B2002804D00C
:1020F00012A904F628200CF049FD04EB05009DED23
:10210000120B80ED000B12A941F2B44020440CF0F8
:102110003DFD04EB050090ED000B14F5B25007F007
:10212000A8F814F523600CF007FD41F6B02553EC38
:10213000102B04EB0500D0E900010FF05DF901D090
:10214000012000E00020C0B2002832D014F5236046
:102150000CF0F2FC14F5D45090ED002B41F67820F1
:10216000204490ED001B0FF073FD8DED100B14F566
:1021700023600CF0E1FC53EC102BDDE910010FF0B3
:102180003BF901D0012000E00020C0B2002804D0BB
:1021900010A914F523600CF0F9FC04EB05009DED8B
:1021A000100B80ED000B10A941F2BC4020440CF054
:1021B000EDFC04F638200CF0BFFC41F6B82553ECDA
:1021C000102B04EB0500D0E900010FF015F901D048
:1021D000012000E00020C0B200283BD004F63820E7
:1021E0000CF0AAFC41F69020204490ED002B41F623
:1021F0008820204490ED001B0FF02AFD8DED0E0B82
:1022000004F638200CF098FC53EC102BDDE90E019D
:102210000FF0F2F801D0012000E00020C0B2002849
:1022200004D00EA904F638200CF0B0FC04EB050035
:102230009DED0E0B80ED000B0EA941F2C440204431
:102240000CF0A4FC04EB050090ED000B14F5B2506B
:1022500007F0A0F804F648200CF06EFC4FF4D655B9
:1022600053EC102B04EB0500D0E900010FF0C4F88B
:1022700001D0012000E00020C0B200283AD004F6CE
:1022800048200CF059FC14F5D55090ED002B41F688
:102290009820204490ED001B0FF0DAFC8DED0C0B24
:1022A00004F648200CF048FC53EC102BDDE90C013F
:1022B0000FF0A2F801D0012000E00020C0B20028F9
:1022C00004D00CA904F648200CF060FC04EB0500D7
:1022D0009DED0C0B80ED000B0CA941F2CC4020448D
:1022E0000CF054FC04EB050090ED000B14F5B2501B
:1022F00007F036F801F04FB841F63217E05D0028DC
:1023000033D0022800F03E83C0F01C83042800F084
:10231000DC83C0F08B83062800F00084C0F0EA83E1
:10232000082800F07784C0F019840A2800F0C484DB
:10233000C0F084840C2800F0FB84C0F0D6840E2802
:1023400000F0AC85C0F01485102800F0D585C0F0F1
:10235000BF85122800F00586C0F0F485142800F02F
:10236000BF87C0F0528700F0CABF0CF090FBDFF8C7
:10237000B8B659460FF068FB0CF089FBDFF89CA655
:1023800051460FF067FB59460FF05EFB0CF07FFBE8
:10239000DFF8901D0FF05EFB59460FF055FB0CF077
:1023A00076FB51460FF056FB59460FF04DFB0CF0F3
:1023B0006EFBDFF87C1D0FF077FC14F1B4000CF01D
:1023C000BBFB41F64810204480ED000B14F1BC002B
:1023D0000CF0B2FB14F5CA5080ED000B002041F662
:1023E0003D11605414F501700CF08AFB0B900BA8A2
:1023F0000BF0ACFB4FF4CC5904EB0902C2E900012D
:1024000004EB0900D0E9002304EB050004F006F812
:1024100004EB0900D0E9002314F5BD5003F0FEFFE2
:1024200004EB0900D0E9002304EB060003F014FFDD
:1024300004EB0900D0E9002314F5C35003F0EEFFCC
:1024400004EB0900D0E9002304EB080003F0E6FFE9
:1024500014F515700BF0F9FD002801D0012000E003
:10246000002041F6D516A055A15D04F658700CF079
:10247000CCFBA05D002813D0012104EB05000CF07B
:10248000DAFB012114F5BD500CF0D5FB012114F548
:10249000C3500CF0D0FB012104EB08000CF0CBFB87
:1024A00014F5CC5141F6582020440BF0DEFB0020FF
:1024B00041F23C61605441F6C81020440FF0FEFB2D
:1024C00041F6901020440FF014FC41F6B81020445F
:1024D0000FF022FC14F11C000BF0A6FD41F6C41510
:1024E0006055605D022824DB04EB050114F1A000B7
:1024F0000CF015FB0CF0CBFA51460FF0ABFA594635
:102500000FF0A2FA0CF0C3FADFF8C81D0FF0A2FA20
:102510000CF0BDFA615D0FF01AFC59460FF094FA09
:102520000CF0B5FA51460FF095FA59460FF08CFAB7
:1025300008E001208DF801000DF1010114F1A00067
:102540000CF0EDFA14F160000BF07FFD002801D0D3
:10255000012000E0002041F6D4116054615C14F1C8
:1025600060000CF052FB14F5A8500FF074FC41F21F
:102570002860215C14F5A85004F079FA41F22A6031
:10258000215A14F5A85004F083FA14F507700CF0E2
:10259000B7FA41F6881560514FF47A700A900AA88C
:1025A0000BF0D4FACDE9260126A941F6E810204423
:1025B0000BF05BFB002014F5D0510860002041F6C1
:1025C000082160500020069006A914F50F700CF049
:1025D0000FFB41F61020204402F081FE615941F6C4
:1025E0001020204402F0A6FE04F628200CF0A4FAE5
:1025F00041F6A82504EB050080ED000B41F6782993
:102600004FF4D45804EB080090ED002B04EB0900C4
:1026100090ED001B04EB050090ED000B0FF018FB94
:1026200004EB050080ED000B41F2B44604EB06001C
:102630000CF082FA04EB0500D0E9002351EC100BFA
:102640000EF0DAFE01D0012000E00020C0B2002828
:1026500005D004EB050104EB06000CF097FA14F525
:1026600023600CF069FA41F6B02604EB060080ED19
:10267000000B04EB080090ED002B04EB090090ED3B
:10268000001B04EB060090ED000B0FF0E1FA04EBE9
:10269000060080ED000B41F2BC4804EB08000CF092
:1026A0004BFA04EB0600D0E9002351EC100B0EF0BE
:1026B000A3FE01D0012000E00020C0B2002805D018
:1026C00004EB060104EB08000CF060FA04EB0500D3
:1026D000D0E9000104EB0602D2E900230FF0D0FBA1
:1026E00007D204EB060004EB050191ED000B80ED31
:1026F000000B04F638200CF01FFA41F6B82904EB61
:10270000090080ED000B41F69020204490ED002B55
:1027100041F68820204490ED001B04EB090090ED69
:10272000000B0FF095FA04EB090080ED000B41F26D
:10273000C44804EB08000CF0FFF904EB0900D0E9F1
:10274000002351EC100B0EF057FE01D0012000E0E9
:102750000020C0B2002805D004EB090104EB0800FA
:102760000CF014FA04F648200CF0E6F94FF4D658B1
:1027700004EB080080ED000B14F5D55090ED002B14
:1027800041F69820204490ED001B04EB080090EDEA
:10279000000B0FF05DFA04EB080080ED000B41F236
:1027A000CC4A04EB0A000CF0C7F904EB0800D0E9AE
:1027B000002351EC100B0EF01FFE01D0012000E0B1
:1027C0000020C0B2002805D014F5D65104EB0A0051
:1027D0000CF0DCF914F556700BF037FC002801D032
:1027E000012000E0002041F6C82A04F80A0004F69F
:1027F000D8700BF02AFC14F80A10814201D0012095
:1028000000E00020C0B2002805D014F80A1004F639
:10281000D8700CF0FAF904EB080090ED000B14F5F9
:10282000B25006F09DFD04EB090090ED000B14F58D
:10283000B25006F0AFFD9FED7A8B14F80A00002825
:102840000CD004EB060090ED000B14F5B25006F02E
:1028500010FD04EB060090ED009B0BE004EB05007F
:1028600090ED000B14F5B25006F003FD04EB0500EB
:1028700090ED009B0CF00BF9DFF82C1B0FF0EAF841
:102880000CF005F9DFF8241B0FF00EFADFF8A018A2
:102890000FF00AFA0600042134A80CF015F9DDE95E
:1028A0003401CDE9240124A930000CF019F90CF011
:1028B000EEF804EB050191ED000B0FF0F8FA0CF0C7
:1028C000E6F8DFF8EC1A0FF0C5F80CF0E0F8B0EE1F
:1028D000490AF0EE690A0FF0EAFA0CF0D8F8CCA138
:1028E0000FF0B8F859460FF0AFF80CF0D0F805002B
:1028F000082134A80CF0E8F8DDE93401CDE9220123
:1029000022A928000CF0ECF8012141F6D020204447
:102910000FF03DFB42F290300121215441F6102589
:10292000215C04EB050002F0AAFD0A2104EB05007E
:1029300002F01EFE002041F6502160540120E055B7
:1029400000F0DDBC14F5A8500FF027FB01280CD1D6
:1029500014F5B25006F04AFDC0B2002801D10120A2
:1029600000E0002090F0010000E00020C0B200284C
:1029700006D0012114F5BD5003F034FD0220E055CE
:1029800000F0BDBC20000FF00BFBC0B2002801D04E
:10299000012000E00020C0B200283AD0002041F61B
:1029A0003821605441F6E81020440BF069F941F6F3
:1029B0008810205841F68C1160500CF068F81A4DC0
:1029C00029000FF041F8DFF8881B0FF043F80CF0F6
:1029D0005EF8060014F507700CF092F80100300064
:1029E0000FF021FBB2A10FF035F829000FF02CF801
:1029F00042F2903002212154215C41F61020204403
:102A000002F03DFD002114F5A85004F010F8032059
:102A1000E05500F074BC00BFC85A0508A45A050868
:102A200000000000000000000149050841F6E8151B
:102A300004EB05000BF031F9C0B2002801D00120F1
:102A400000E00020C0B200283DD041F68C16A0590D
:102A500000281ED004EB05000BF012F9A059401E0F
:102A6000A0510CF014F893A10EF0F4FFDFF8E81A6F
:102A70000EF0EAFFA0593C21B0FBF1F201FB12007D
:102A8000002820D10CF003F8DFF8C81A0EF0DCFFA4
:102A900019E014F5A8500FF0DEF9012041F650219D
:102AA00060540BF0F4FFDFF8AC1A0EF0CDFF42F2E9
:102AB000903003212154215C41F61020204402F083
:102AC000DEFC0420E05500F01ABC14F5A8500FF00D
:102AD00014FB002801D0012000E00020C0B2002833
:102AE00006D0002114F5BD5003F07CFC0520E05514
:102AF00000F005BC20000FF053FAC0B2002801D04E
:102B0000012000E00020C0B2002806D0002104EB24
:102B1000060003F08DFB0620E055F0E320000FF0E7
:102B20003FFAC0B200280BD014F5A8500FF0E5FA18
:102B3000002801D1012000E0002090F0010000E019
:102B40000020C0B2002808D041F23860215814F5A6
:102B5000A85003F06CFF0720E055D0E314F5A8500F
:102B60000FF0CBFA002801D0012000E00020C0B215
:102B7000002849D014F5A85003F06DFF41F69016D7
:102B800004EB060080ED000B14F5A85003F066FF7F
:102B900041F6981804EB080080ED000B0BF077FF6E
:102BA000DFF8341A0EF056FFDFF8A85929000EF0AE
:102BB0004BFF0BF06CFFDFF8241A0EF04BFF04EB19
:102BC000060191ED000B0FF072F90BF060FF10A6FB
:102BD00031000EF03FFF29000EF036FF0BF057FFDB
:102BE000DFF8FC190EF036FF04EB080191ED000B45
:102BF0000FF05DF90BF04BFF31000EF02BFF2900B9
:102C00000EF022FF0820E05579E300BFEC5A0508DA
:102C100020C2000020000FF0C3F9C0B2002801D08C
:102C2000012000E00020C0B2002806D0012104EB02
:102C3000060003F0FDFA0920E05560E320000FF0E4
:102C4000AFF9C0B2002801D0012000E00020C0B2DE
:102C500000282CD041F63D10205C002802D001282D
:102C600010D01EE0012114F5BD5003F0BBFB0BF0AA
:102C70000EFFDFF870190EF0EDFEDFF8D8180EF039
:102C8000E3FE0EE0012104EB050003F0ABFB0BF0CB
:102C9000FEFEDFF854190EF0DDFEDFF8B8180EF076
:102CA000D3FE002041F23C6160540A20E05526E347
:102CB000206300002E00000020000FF071F9C0B268
:102CC000002801D0012000E00020C0B200280BD075
:102CD00041F6D410205C002804D0002104EB06004B
:102CE00003F0A6FA0B20E05509E320000FF058F995
:102CF000C0B2002801D0012000E00020C0B20028AE
:102D000015D041F23C65615D20000FF0FFF9010034
:102D100004EB080003F066FB615D20000FF0FCF996
:102D2000010014F5C35003F05DFB0C20E055E6E212
:102D300020000FF035F9C0B200280BD014F5A850D0
:102D40000FF0DBF9002801D1012000E0002090F015
:102D5000010000E00020C0B2002808D041F2386035
:102D6000215814F5A85003F062FE0D20E055C6E28C
:102D700014F5A8500FF0C1F9002801D0012000E09F
:102D80000020C0B2002800F0888014F5A85003F09D
:102D900062FE8DED1A0B14F5A85003F05FFE8DED69
:102DA000180B1AA914F5CD500FF0BBF918A941F66C
:102DB000AC1020440FF0B5F941F23C65665D0BF0B4
:102DC00066FEDFF828180EF045FE31000EF0BFFF5A
:102DD0000BF05DFEDFF818180EF03CFEDFF874878C
:102DE00041460EF031FE0BF052FECCA10EF032FE49
:102DF0000BF04DFE8146615D20000FF08DF9010062
:102E000048460EF0A4FF0BF042FE8146615D2000B3
:102E10000FF07CF9010048460EF099FF0BF037FEE9
:102E20000FF2FC2949460EF015FE9DED1A0B0FF02E
:102E30003EF80FF2F42A51460EF00CFE41460EF019
:102E400003FE0BF024FEB9A10EF004FE0BF01FFEF2
:102E50008346615D20000FF05FF9010058460EF0D7
:102E600076FF0BF014FE8346615D20000FF04EF9F3
:102E7000010058460EF06BFF0BF009FE49460EF0BC
:102E8000E9FD9DED180B0FF012F851460EF0E2FD32
:102E900041460EF0D9FD0E20E05530E220000FF043
:102EA0007FF8C0B2002801D0012000E00020C0B2AD
:102EB00000280CD041F23C60215C032905DA215C3A
:102EC000491C21540B20E05501E00F20E05516E28B
:102ED00020000FF065F8C0B2002801D0012000E00A
:102EE0000020C0B2002806D0012104EB060003F048
:102EF0009FF91020E05502E220000FF051F8C0B217
:102F0000002801D0012000E00020C0B2002818D025
:102F100041F63D16A05D002802D001280AD010E03D
:102F2000002114F5BD5003F05DFA0120A0550920E1
:102F3000E05506E0002104EB050003F053FA1120F0
:102F4000E055DCE120000FF02BF8C0B2002801D0E2
:102F5000012000E00020C0B2002801D01220E0557E
:102F6000CDE10BF094FDDFF88C160EF073FDDFF869
:102F7000E45529000EF068FD022104F6A82003F0B4
:102F8000D4FB41F604284FF4D056A05944F8080069
:102F900004EB080114F50D700BF02AFE0020A0517F
:102FA00014F5D05114F50B700BF022FE0BF06FFDF1
:102FB00029000EF049FD54F80800549004F2D47032
:102FC0000BF0BAFD8DED4E0B04F2BC700BF0B4FDAE
:102FD0008DED500B04F2C4700BF0AEFD8DED520B75
:102FE000BDA136A80AF092FFBCA13DA80AF08EFF51
:102FF00004260BF04CFD8046082134A80BF064FD3C
:10300000DDE93401CDE9200120A940460BF068FD3F
:103010000BF03DFDDFF8E0150EF01CFD41F69011C0
:10302000214491ED000B0EF042FF0BF030FD0FF24A
:10303000703841460EF00EFD41F69811214491ED95
:10304000000B0EF034FF29000EF0FEFC5FF00009CB
:103050004846C0B2022870DA5FF0000A5046C0B29B
:10306000042867DA0BF013FDCEA10EF0F3FC0BF091
:103070000EFD83465146C9B220000FF04DF8010005
:1030800058460EF064FE0BF002FD83465146C9B26D
:1030900020000FF03BF8010058460EF058FE0BF0F0
:1030A000F6FC36AA4B46DBB21C214B4302EB030174
:1030B0000FF0BEF80BF0EBFC41460EF0CBFC834664
:1030C0004946C9B23000C0B2414351FA8AF114F501
:1030D000CD500FF0B8F890ED000B58460EF0E7FE1B
:1030E0000BF0D5FC41460EF0B5FC83464946C9B20B
:1030F0003000C0B2414351FA8AF141F6AC1020448D
:103100000FF0A1F890ED000B58460EF0D0FE29000C
:103110000EF09AFC1AF1010AA0E700BF56315F00D9
:10312000203D2000105B050820C2000056325F00E1
:10313000E191050819F101098AE70BF0A8FC2900C3
:103140000EF082FC41F6501804EB08020020DFF874
:10315000AC14C2E900010BF09AFCDFF8A4140EF0E5
:1031600079FC29000EF070FC0BF091FC81460E21D9
:1031700034A80BF0AEFCDDE93401CDE91C011CA93B
:1031800048460BF0ADFC81460E2134A80BF09CFCA8
:10319000DDE93401CDE91E011EA948460BF0A0FC73
:1031A0000BF075FC04EB080191ED000B0EF07FFEB7
:1031B00029000EF049FC04EB080090ED000B8DEDAA
:1031C000440B00200021CDE95C0100200021CDE965
:1031D0005E0100200021CDE9600100200021CDE941
:1031E0006201002064900020659044A941F6C81057
:1031F00020440FF032F81320E05502231C22DFF8A0
:10320000041436A80FF0B3F879E0002114F1A000FF
:103210000FF0C5F841F6C81904EB09000FF0DFF80C
:1032200041F6C415615D88420DD3012114F184007B
:103230000BF0EBFC04F648400DF0D2FE0DF0E3FD80
:103240001420E05545E00BF022FCDFF8BC633100B0
:103250000EF000FCDFF8FC8241460EF0F5FB0BF0AF
:1032600016FCDFF8A8130EF0F5FB0BF010FC8246FD
:1032700004EB09000FF0B3F8401C010050460EF0BB
:10328000D2FE0BF004FCDFF888130EF0E3FB615D67
:103290000EF05DFD41460EF0D7FB0BF0F8FB310060
:1032A0000EF0D8FB41460EF0CFFB002041F63D1159
:1032B000605441F6C820205C002808D041F6B020B8
:1032C000204490ED000B14F5B25005F0D2FF04201D
:1032D000E05514E07C8505082D0000002B0000005F
:1032E000002041F638216054032104F6A82003F0A1
:1032F0001CFA0020E055002041F63011605414F112
:103300006C000AF0A2FE012801D1012000E000209B
:10331000C0B200283FD00BF0BAFBDFF8EC120EF081
:1033200099FB8C4D29000EF08FFB0BF0B0FBDFF802
:10333000E4120EF08FFB29000EF086FB002114F141
:103340006C000BF062FC42F2903000212154215CB1
:1033500041F61020204402F092F814F5A8500EF027
:103360007AFD41F63010215C022908D104F648406C
:103370000DF036FE0DF035FD1420E0550BE0002178
:10338000E1550021215400208DF80000694614F118
:103390000C000BF0C4FB7EB0BDEC048BBDE8F18FDC
:1033A00020000000565F0000908505085B8305083B
:1033B000A485050838B584B004000AF02FFE0390F8
:1033C00014F5A0600AF030FE8DF80C0014F5A16031
:1033D0000AF02AFE8DF80D0014F5A2600AF024FE12
:1033E0008DF80E0014F5A3600AF01EFE8DF80F0094
:1033F0000AF014FE029014F5A4600AF015FE8DF890
:10340000080014F5A5600AF00FFE8DF8090014F508
:10341000A6600AF009FE8DF80A0014F5A7600AF00C
:1034200003FE8DF80B000AF0F9FD019014F5A86079
:103430000AF0FAFD8DF8040014F5A9600AF0F4FD15
:103440008DF8050014F5AA600AF0EEFD8DF806006F
:1034500014F5AB600AF0E8FD8DF8070014F5AC60D8
:103460000AF0F3FD002801D0012500E00025280026
:10347000C0B20090019B029A03992068A0300AF024
:103480006CFE05B030BD18B585B004000AF0C6FD6D
:1034900004900AF0C3FD03900AF0C0FD02900020E2
:1034A0008DF8040001A8009002AB03AA04A92068CB
:1034B000A0300AF033FE04A914F5A0600BF02FFB36
:1034C0000DF1110114F5A1600BF029FB0DF11201B2
:1034D00014F5A2600BF023FB0DF1130114F5A360AA
:1034E0000BF01DFB03A914F5A4600BF018FB0DF104
:1034F0000D0114F5A5600BF012FB0DF10E0114F592
:10350000A6600BF00CFB0DF10F0114F5A7600BF09A
:1035100006FB02A914F5A8600BF001FB0DF10901EF
:1035200014F5A9600BF0FBFA0DF10A0114F5AA607D
:103530000BF0F5FA0DF10B0114F5AB600BF0EFFA9F
:103540009DF8041014F5AC600BF05FFB06B010BDE5
:10355000287A050801490508A79E050870B50500E9
:103560000E00140030003168C9688847C0B20028D6
:1035700001D1012000E00020C0B2002804D03000BA
:103580003168896A8847EDE7300009F055FFC0B21D
:10359000002801D0012000E00020C0B2002819D08E
:1035A000002C0DD020000EF039FF0BF070FADFF880
:1035B000BC1B0EF04FFADFF8B01B0EF045FA09E025
:1035C0000BF065FADFF8A81B0EF044FADFF8981B41
:1035D0000EF03AFA280070BD345B0508C8AA050849
:1035E000D0AA0508585B05087C5B0508CC9805083F
:1035F000B8850508A05B0508D8AA05080000F03FBB
:10360000CC9F05082DDF0008A45A0508DC980508A2
:10361000E0AA0508C45B050870472DE9F843ADF53D
:10362000027D04000BF033FADFF8481B0EF012FAAB
:103630000BF02DFADFF8305B29000EF005FA0BF0E5
:1036400026FA0600122180A80BF043FADDE980017A
:10365000CDE97E017EA930000BF042FADFF8186B4D
:1036600031000EF021FBDFF8141B0EF0F3F90BF024
:103670000EFA0700072180A80BF02BFADDE9800184
:10368000CDE97C017CA938000BF02AFA31000EF05C
:103690000BFB41F6D411615C0FF010FC0BF0F7F955
:1036A0000700202180A80BF014FADDE98001CDE9A4
:1036B0007A017AA938000BF013FA31000EF0F4FA0F
:1036C000DFF8BC1A0EF0C6F90BF0E1F9070007218C
:1036D00080A80BF0FEF9DDE98001CDE9780178A939
:1036E00038000BF0FDF931000EF0DEFA0BF0CFF9E7
:1036F0000700202180A80BF0ECF9DDE98001CDE97D
:10370000760176A938000BF0EBF931000EF0CCFA17
:10371000DFF8701A0EF09EF90BF0B9F907000721D7
:1037200080A80BF0D6F9DDE98001CDE9740174A918
:1037300038000BF0D5F931000EF0B6FA0BF0A7F90E
:1037400029000EF081F90BF0A2F90700002180A8F2
:103750000BF0BAF9DDE98001CDE9720172A93800F8
:103760000BF0BEF90BF093F90700122180A80BF0C3
:10377000B0F9DDE98001CDE9700170A938000BF0E6
:10378000AFF931000EF090FADFF8FC190EF062F993
:103790000BF07DF90700072180A80BF09AF9DDE90D
:1037A0008001CDE96E016EA938000BF099F9310066
:1037B0000EF07AFA0BF06BF90700202180A80BF0CD
:1037C00088F9DDE98001CDE96C016CA938000BF0C6
:1037D00087F931000EF068FADFF8B0190EF03AF907
:1037E0000BF055F90700072180A80BF072F9DDE90D
:1037F0008001CDE96A016AA938000BF071F9310046
:103800000EF052FA0BF043F90700202180A80BF0CC
:1038100060F9DDE98001CDE9680168A938000BF0A5
:103820005FF931000EF040FADFF864190EF012F97A
:103830000BF02DF90700072180A80BF04AF9DDE90C
:103840008001CDE9660166A938000BF049F9310025
:103850000EF02AFA0BF01BF929000EF0F5F80BF028
:1038600016F90700122180A80BF033F9DDE9800179
:10387000CDE9640164A938000BF032F931000EF093
:1038800013FADFF810190EF0E5F80BF000F9070055
:10389000072180A80BF01DF9DDE98001CDE9620167
:1038A00062A938000BF01CF931000EF0FDF90BF0A5
:1038B000EEF80700DFF8E008D0E900010FF06AFB3E
:1038C0008046894614F5CC50D0E900010FF062FB28
:1038D00042464B460FF094FB80468946DFF8BC0811
:1038E000D0E900010FF056FB02000B0040464946AC
:1038F0000FF062FC0022DFF8A8380FF081FB41ECEA
:10390000100B38000EF0D3FA0BF0C1F8070020219D
:1039100080A80BF0DEF8DDE98001CDE9600160A947
:1039200038000BF0DDF831000EF0BEF9DFF8741846
:103930000EF090F80BF0ABF80700072180A80BF011
:10394000C8F8DDE98001CDE95E015EA938000BF021
:10395000C7F831000EF0A8F90BF099F80700202104
:1039600080A80BF0B6F8DDE98001CDE95C015CA927
:1039700038000BF0B5F831000EF096F9DFF8281892
:103980000EF068F80BF083F80700072180A80BF011
:10399000A0F8DDE98001CDE95A015AA938000BF001
:1039A0009FF831000EF080F90BF071F829000EF04D
:1039B0004BF80BF06CF80700122180A80BF089F887
:1039C000DDE98001CDE9580158A938000BF088F8ED
:1039D00031000EF069F9DFF8D4170EF03BF80BF068
:1039E00056F80700072180A80BF073F8DDE9800185
:1039F000CDE9560156A938000BF072F831000EF0EF
:103A000053F941F6881161580EF00DFB0BF03FF8A9
:103A10000700202180A80BF05CF8DDE98001CDE9EA
:103A2000540154A938000BF05BF831000EF03CF95A
:103A3000DFF87C170EF00EF80BF029F807000721CD
:103A400080A80BF046F8DDE98001CDE9520152A9CA
:103A500038000BF045F831000EF026F90BF017F89E
:103A60000700202180A80BF034F8DDE98001CDE9C2
:103A7000500150A938000BF033F831000EF014F962
:103A8000DFF830170DF0E6FF0BF001F80700072113
:103A900080A80BF01EF8DDE98001CDE94E014EA9AA
:103AA00038000BF01DF831000EF0FEF80AF0EFFFC1
:103AB00029000DF0C9FF0AF0EAFF0700122180A8D3
:103AC0000BF007F8DDE98001CDE94C014CA9380085
:103AD0000BF006F831000EF0E7F8DFF8DC160DF019
:103AE000B9FF0AF0D4FF0700072180A80AF0F1FF10
:103AF000DDE98001CDE94A014AA938000AF0F0FF6A
:103B000031000EF0D1F80AF0C2FF0700202180A892
:103B10000AF0DFFFDDE98001CDE9480148A938005E
:103B20000AF0DEFF31000EF0BFF8DFF890160DF05E
:103B300091FF0AF0ACFF0700072180A80AF0C9FF37
:103B4000DDE98001CDE9460146A938000AF0C8FF49
:103B500031000EF0A9F80AF09AFF0700202180A892
:103B60000AF0B7FFDDE98001CDE9440144A938003E
:103B70000AF0B6FF31000EF097F8DFF844160DF0AA
:103B800069FF0AF084FF0700072180A80AF0A1FF5F
:103B9000DDE98001CDE9420142A938000AF0A0FF29
:103BA00031000EF081F80AF072FF29000DF04CFF91
:103BB0000AF06DFF0700122180A80AF08AFFDDE9F4
:103BC0008001CDE9400140A938000AF089FF3100A9
:103BD0000EF06AF8DFF8EC150DF03CFF0AF057FF25
:103BE0000700072180A80AF074FFDDE98001CDE914
:103BF0003E013EA938000AF073FF31000EF054F880
:103C000041F63C11615C0EF0A2F80AF040FF07009B
:103C1000202180A80AF05DFFDDE98001CDE93C01AB
:103C20003CA938000AF05CFF31000EF03DF8DFF8E7
:103C300098150DF00FFF0AF02AFF0700072180A852
:103C40000AF047FFDDE98001CDE93A013AA93800E1
:103C50000AF046FF31000EF027F80AF018FF0700BF
:103C6000202180A80AF035FFDDE98001CDE9380187
:103C700038A938000AF034FF31000EF015F8DFF8EB
:103C80004C150DF0E7FE0AF002FF0700072180A89F
:103C90000AF01FFFDDE98001CDE9360136A93800C1
:103CA0000AF01EFF31000DF0FFFF0AF0F0FE2900C0
:103CB0000DF0CAFE0AF0EBFE0700122180A80AF000
:103CC00008FFDDE98001CDE9340134A938000AF0AC
:103CD00007FF31000DF0E8FFDFF8F4140DF0BAFE35
:103CE0000AF0D5FE0700072180A80AF0F2FEDDE900
:103CF0008001CDE9320132A938000AF0F1FE31002D
:103D00000DF0D2FF070014F50D700AF0F9FE010066
:103D100038000EF088F90AF0BAFE0700202180A8CA
:103D20000AF0D7FEDDE98001CDE9300130A9380085
:103D30000AF0D6FE31000DF0B7FFDFF898140DF051
:103D400089FE0AF0A4FE0700072180A80AF0C1FE40
:103D5000DDE98001CDE92E012EA938000AF0C0FE70
:103D600031000DF0A1FF0AF092FE0700202180A88B
:103D70000AF0AFFEDDE98001CDE92C012CA9380065
:103D80000AF0AEFE31000DF08FFFDFF84C140DF09D
:103D900061FE0AF07CFE0700072180A80AF099FE68
:103DA000DDE98001CDE92A012AA938000AF098FE50
:103DB00031000DF079FF0AF06AFE29000DF044FE93
:103DC0000AF065FE0700012180A80AF07DFEDDE90A
:103DD0008001CDE9280128A938000AF081FE0AF007
:103DE00056FE0700122180A80AF073FEDDE980016B
:103DF000CDE9260126A938000AF072FE31000DF047
:103E000053FFDFF8D8130DF025FE0AF040FE07003F
:103E1000202180A80AF05DFEDDE98001CDE92401C2
:103E200024A938000AF05CFE31000DF03DFFEC499A
:103E30000DF010FE0AF02BFE0700072180A80AF003
:103E400048FEDDE98001CDE9220122A938000AF00F
:103E500047FE31000DF028FF0AF019FE070020216F
:103E600080A80AF036FEDDE98001CDE9200120A915
:103E700038000AF035FE31000DF016FFD9490DF07B
:103E8000E9FD0AF004FE0700072180A80AF021FEE0
:103E9000DDE98001CDE91E011EA938000AF020FEEF
:103EA00031000DF001FF0AF0F2FD29000DF0CCFD0C
:103EB0000AF0EDFD0700122180A80AF00AFEDDE9F4
:103EC0008001CDE91C011CA938000AF009FE31006F
:103ED0000DF0EAFEC4490DF0BDFD0AF0D8FD070063
:103EE000202180A80AF0F5FDDDE98001CDE91A0165
:103EF0001AA938000AF0F4FD31000DF0D5FEBB49D7
:103F00000DF0A8FD0AF0C3FD0700202180A80AF0EB
:103F1000E0FDDDE98001CDE9180118A938000AF0BB
:103F2000DFFD31000DF0C0FEB1490DF093FD0AF048
:103F3000AEFD29000DF088FD0AF0A9FD0700122151
:103F400080A80AF0C6FDDDE98001CDE9160116A9B9
:103F500038000AF0C5FD31000DF0A6FEA5490DF0B0
:103F600079FD0AF094FD0700072180A80AF0B1FD51
:103F7000DDE98001CDE9140114A938000AF0B0FD93
:103F800031000DF091FE070014F54A700AF05DF85B
:103F9000010038000DF0DBFE0AF079FD0700022178
:103FA00080A80AF091FDDDE98001CDE9120112A996
:103FB00038000AF095FD0AF06AFD0700202180A86C
:103FC0000AF087FDDDE98001CDE9100110A9380074
:103FD0000AF086FD31000DF067FE87490DF03AFDCD
:103FE0000AF055FD0700072180A80AF072FDDDE9FF
:103FF0008001CDE90E010EA938000AF071FD3100F3
:104000000DF052FE0AF043FD070004F6F8100AF026
:1040100093FD38000DF04BFF0AF039FD0700202119
:1040200080A80AF056FDDDE98001CDE90C010CA95C
:1040300038000AF055FD31000DF036FE6F490DF0E5
:1040400009FD0AF024FD0700072180A80AF041FDC0
:10405000DDE98001CDE90A010AA938000AF040FD36
:1040600031000DF021FE0AF012FD070014F51F606B
:104070000AF062FD38000DF01AFF0AF008FD290071
:104080000DF0E2FC0AF003FD0700122180A80AF0FF
:1040900020FDDDE98001CDE9080108A938000AF01A
:1040A0001FFD31000DF000FE55490DF0D3FC0AF064
:1040B000EEFC07001C2180A80AF00BFDDDE9800161
:1040C000CDE9060106A938000AF00AFD31000DF01D
:1040D000EBFD4C490DF0BEFC0AF0D9FC4A490DF04D
:1040E000E3FD0AF0D4FC49490DF0DEFD070008218C
:1040F00080A80AF0E9FCDDE98001CDE9040104A90A
:1041000038000AF0EDFC0AF0C2FC07001C2180A870
:104110000AF0DFFCDDE98001CDE9020102A93800E7
:104120000AF0DEFC31000DF0BFFD39490DF092FCC4
:104130000AF0ADFC0700082180A80AF0CAFCDDE9FE
:104140008001CDE90001694638000AF0C9FC310060
:104150000DF0AAFD0AF09BFC29000DF075FC0DF591
:10416000037DBDE8F083000001490508B050050853
:10417000F06F0508A4420508E98C0508D89F0508DA
:10418000EC980508CC850508FC980508E08505082D
:10419000F48505080C99050800000020E093002034
:1041A00000408F4008860508407A05081C990508DC
:1041B000587A05080C7005081C8605087C670508F8
:1041C000E85B0508E49F050830860508707A050855
:1041D0002C99050844860508887A0508588605083C
:1041E0006C860508A07A0508B87A0508D07A050813
:1041F00028700508E87A05089C6705080C5C050826
:10420000007B0508187B05085B830508E19105081C
:10421000808605082DE9F84FEEB004000AF037FC5F
:10422000DFF818160DF040FDDFF8145629000DF0E8
:104230000BFC0AF02CFCDFF80C160DF00BFC0AF05E
:1042400026FCDFF804B659460DF004FC29000DF0F9
:10425000FBFB0AF01CFCDFF8F4150DF0FBFB04F689
:1042600024100FF0CCF8C0B2002801D0012000E0EB
:104270000020C0B2002805D00AF009FCDFF8D015F4
:104280000DF0E8FB14F513600FF0B9F8C0B2002888
:1042900001D0012000E00020C0B2002805D00AF0C3
:1042A000F6FBDFF8B0150DF0D5FB04F63C100FF06F
:1042B000A6F8C0B2002801D0012000E00020C0B262
:1042C000002805D00AF0E3FBDFF88C150DF0C2FBE7
:1042D00004F648100FF093F8C0B2002801D0012076
:1042E00000E00020C0B2002805D00AF0D0FBDFF8C3
:1042F0006C150DF0AFFB04F654100FF080F8C0B24F
:10430000002801D0012000E00020C0B2002805D024
:104310000AF0BDFBDFF848150DF09CFB14F51660A4
:104320000FF06DF8C0B2002801D0012000E000209D
:10433000C0B2002805D00AF0AAFBDFF828150DF05E
:1043400089FB04F66C100FF05AF8C0B2002801D0B7
:10435000012000E00020C0B2002805D00AF097FB41
:10436000DFF804150DF076FB04F678100FF047F82F
:10437000C0B2002801D0012000E00020C0B2002817
:1043800005D00AF084FBDFF8E4140DF063FB04F6BB
:1043900084100FF034F8C0B2002801D0012000E0F2
:1043A0000020C0B2002805D00AF071FBDFF8C0146D
:1043B0000DF050FB04F69C100FF021F8C0B200285D
:1043C00001D0012000E00020C0B2002805D00AF092
:1043D0005EFBDFF89C1E0DF03DFB04F6A8100FF00D
:1043E0000EF8C0B2002801D0012000E00020C0B2C9
:1043F000002805D00AF04BFBDFF8781E0DF02AFBF1
:1044000004F6B4100EF0FBFFC0B2002801D001206A
:1044100000E00020C0B2002805D00AF038FBDFF829
:10442000581E0DF017FB14F51C600EF0E8FFC0B22B
:10443000002801D0012000E00020C0B200280BD0ED
:104440000AF025FBDFF8341E0DF004FB0AF01FFB19
:10445000DFF82C1E0DF0FEFA04F6CC100EF0CFFFA4
:10446000C0B2002801D0012000E00020C0B2002826
:104470000BD00AF00CFBDFF80C1E0DF0EBFA0AF083
:1044800006FBDFF8041E0DF0E5FA04F6D8100EF076
:10449000B6FFC0B2002801D0012000E00020C0B269
:1044A00000280BD00AF0F3FADFF8E01D0DF0D2FA85
:1044B0000AF0EDFADFF8D81D0DF0CCFA04F6E4109E
:1044C0000EF09DFFC0B2002801D0012000E00020C6
:1044D000C0B200280AD00AF0DAFADFF8B81D0DF0F1
:1044E000B9FA0AF0D4FAD1A10DF0B4FA41F63C1AA7
:1044F00014F80A0005284CD10AF0C9FADFF8981D13
:104500000DF0A8FA0AF0C3FADFF8901D0DF0A2FA38
:104510000AF0BDFADFF8881D0DF09CFA0AF0B7FA30
:10452000DFF8801D0DF096FA0AF0B1FADFF8781D79
:104530000DF090FA0AF0ABFADFF8701D0DF08AFA70
:104540000AF0A5FADFF8681D0DF084FA0AF09FFA68
:10455000DFF8C81D0DF07EFA0AF099FADFF8C01DE9
:104560000DF078FA0AF093FADFF8B81D0DF072FA40
:104570000AF08DFADFF8B01D0DF06CFA0AF087FA38
:10458000DFF8AC1D0DF066FA0AF081FAA8A10DF073
:1045900061FA0AF07CFA29000DF056FA002641F67D
:1045A000C81704EB07000DF01AFF864280F0008563
:1045B0000AF06DFA80460A216CA80AF085FADDE956
:1045C0006C01CDE96A016AA940460AF089FA0AF04D
:1045D0005EFA804603216CA80AF07BFADDE96C01E3
:1045E000CDE9680168A940460AF07AFA711C0DF01D
:1045F0001AFD0AF04CFA0FF23C2841460DF02AFA57
:104600000AF045FA81460C216CA80AF05DFADDE952
:104610006C01CDE9660166A948460AF061FA04F624
:1046200024100EF0ECFEC0B2002801D0012000E002
:104630000020C0B200281CD00AF029FA41460DF033
:1046400009FA81460D216CA80AF043FADDE96C01F4
:10465000CDE9640164A948460AF042FA8146310076
:1046600004EB07000EF0E3FE90ED000B48460DF062
:104670001EFC0AF00CFA814601216CA80AF024FA0B
:10468000DDE96C01CDE9620162A948460AF028FA29
:1046900004F654100EF0B3FEC0B2002801D0012081
:1046A00000E00020C0B200281CD00AF0F0F941461A
:1046B0000DF0D0F9814603216CA80AF00AFADDE971
:1046C0006C01CDE9600160A948460AF009FA81460B
:1046D000310004EB07000EF0AAFE90ED0A0B4846ED
:1046E0000DF0E5FB14F516600EF089FEC0B200284F
:1046F00001D0012000E00020C0B200281CD00AF048
:10470000C6F94DA10DF0A6F9814603216CA80AF067
:10471000E0F9DDE96C01CDE95E015EA948460AF0E9
:10472000DFF98146310004EB07000EF080FE90EDCA
:104730000C0B48460DF0BBFB04F66C100EF05FFE50
:10474000C0B2002801D0012000E00020C0B2002843
:104750001CD00AF09CF938A10DF07CF981460321A8
:104760006CA80AF0B6F9DDE96C01CDE95C015CA941
:1047700048460AF0B5F98146310004EB07000EF017
:1047800056FE90ED0E0B48460DF091FB0AF07FF9B6
:10479000814600216CA80AF097F9DDE96C01CDE9AA
:1047A0005A015AA948460AF09BF904F684100EF003
:1047B00026FEC0B2002801D0012000E00020C0B2D7
:1047C00000281BD00AF063F91BA10DF043F98146C4
:1047D00005216CA80AF07DF9DDE96C01CDE95801ED
:1047E00058A948460AF07CF98146310004EB0700DD
:1047F0000EF01DFE016C48460DF015FC0AF047F95D
:10480000814602216CA80AF05FF9DDE96C01CDE96F
:10481000560156A948460AF063F904F69C100EF0BA
:10482000EEFDC0B2002825D0012024E0442B00007A
:104830004552520020000000202020005B83050824
:1048400001490508E04905083C990508E8AA05085A
:104850004C9905085C9905086C9905087C99050830
:10486000F0AA0508F8AA050800AB050808AB05087A
:1048700010AB05080020C0B200281CD00AF007F9D0
:1048800041460DF0E7F8814607216CA80AF021F9AE
:10489000DDE96C01CDE9540154A948460AF020F93C
:1048A0008146310004EB07000EF0C1FD90ED120BC4
:1048B00048460DF0FCFA04F6A8100EF0A0FDC0B2B8
:1048C000002801D0012000E00020C0B200281CD048
:1048D0000AF0DDF841460DF0BDF8814607216CA8CD
:1048E0000AF0F7F8DDE96C01CDE9520152A948461A
:1048F0000AF0F6F88146310004EB07000EF097FD50
:1049000090ED140B48460DF0D2FA04F6B4100EF0F8
:1049100076FDC0B2002801D0012000E00020C0B226
:1049200000281CD00AF0B3F841460DF093F88146F8
:1049300007216CA80AF0CDF8DDE96C01CDE9500142
:1049400050A948460AF0CCF88146310004EB070034
:104950000EF06DFD90ED160B48460DF0A8FA14F51B
:104960001C600EF04CFDC0B2002801D0012000E018
:104970000020C0B2002839D00AF089F841460DF075
:1049800069F8814607216CA80AF0A3F8DDE96C01FB
:10499000CDE94E014EA948460AF0A2F88146310001
:1049A00004EB07000EF043FD90ED180B48460DF0A8
:1049B0007EFA0AF06CF841460DF04CF8814607216A
:1049C0006CA80AF086F8DDE96C01CDE94C014CA930
:1049D00048460AF085F88146310004EB07000EF0E6
:1049E00026FD90ED1A0B48460DF061FA0AF04FF8DB
:1049F000814604216CA80AF067F8DDE96C01CDE975
:104A00004A014AA948460AF06BF804F6CC100EF0A9
:104A1000F6FCC0B2002801D0012000E00020C0B2A6
:104A2000002839D00AF033F841460DF013F88146DA
:104A300007216CA80AF04DF8DDE96C01CDE94801C9
:104A400048A948460AF04CF88146310004EB0700BB
:104A50000EF0EDFC90ED1C0B48460DF028FA0AF024
:104A600016F841460CF0F6FF814607216CA80AF0C3
:104A700030F8DDE96C01CDE9460146A948460AF067
:104A80002FF88146310004EB07000EF0D0FC90EDCA
:104A90001E0B48460DF00BFA04F6D8100EF0AFFCD2
:104AA000C0B2002801D0012000E00020C0B20028E0
:104AB00039D009F0ECFF41460CF0CCFF81460521CE
:104AC0006CA80AF006F8DDE96C01CDE9440144A9BF
:104AD00048460AF005F88146310004EB07000EF065
:104AE000A6FCD0F8801048460DF09DFA09F0CFFFE3
:104AF00041460CF0AFFF814605216CA809F0E9FFA3
:104B0000DDE96C01CDE9420142A9484609F0E8FF20
:104B10008146310004EB07000EF089FCD0F88410C8
:104B200048460DF080FA04F6E4100EF068FCC0B2BE
:104B3000002801D0012000E00020C0B2002839D0B8
:104B400009F0A5FF41460CF085FF814605216CA8C0
:104B500009F0BFFFDDE96C01CDE9400140A94846FD
:104B600009F0BEFF8146310004EB07000EF05FFC48
:104B700090ED040B48460DF09AF909F088FF414684
:104B80000CF068FF814605216CA809F0A2FFDDE961
:104B90006C01CDE93E013EA9484609F0A1FF8146DE
:104BA000310004EB07000EF042FC90ED020B48468A
:104BB0000DF07DF914F80A00052840F0F18109F0A4
:104BC00066FF814607216CA809F07EFFDDE96C01D4
:104BD000CDE93C013CA9484609F082FF09F057FFA6
:104BE00041460CF037FF814609216CA809F071FF9E
:104BF000DDE96C01CDE93A013AA9484609F070FFB8
:104C00008146310004EB07000EF011FC90ED220B01
:104C100048460DF04CF909F03AFF814602216CA894
:104C200009F052FFDDE96C01CDE9380138A94846A9
:104C300009F056FF09F02BFF41460CF00BFF8146AF
:104C400005216CA809F045FFDDE96C01CDE93601CD
:104C500036A9484609F044FF8146310004EB0700BD
:104C60000EF0E5FB90ED240B48460DF020F909F01D
:104C70000EFF41460CF0EEFE814603216CA809F0C0
:104C800028FFDDE96C01CDE9340134A9484609F07B
:104C900027FF8146310004EB07000EF0C8FBD0F877
:104CA000981048460DF0BFF909F0F1FE8146072142
:104CB0006CA809F009FFDDE96C01CDE9320132A9E8
:104CC000484609F00DFF09F0E2FE41460CF0C2FE35
:104CD000814609216CA809F0FCFEDDE96C01CDE9F3
:104CE000300130A9484609F0FBFE8146310004EB53
:104CF00007000EF09CFB90ED280B48460DF0D7F80E
:104D000009F0C5FE814602216CA809F0DDFEDDE94F
:104D10006C01CDE92E012EA9484609F0E1FE09F00B
:104D2000B6FE41460CF096FE814605216CA809F0BE
:104D3000D0FEDDE96C01CDE92C012CA9484609F033
:104D4000CFFE8146310004EB07000EF070FB90EDC2
:104D50002A0B48460DF0ABF809F099FE41460CF0DD
:104D600079FE814603216CA809F0B3FEDDE96C01F0
:104D7000CDE92A012AA9484609F0B2FE8146310050
:104D800004EB07000EF053FBD0F8B01048460DF0CE
:104D90004AF909F07CFE814607216CA809F094FECF
:104DA000DDE96C01CDE9280128A9484609F098FE03
:104DB00009F06DFE41460CF04DFE814609216CA8BC
:104DC00009F087FEDDE96C01CDE9260126A94846F8
:104DD00009F086FE8146310004EB07000EF027FB48
:104DE00090ED2E0B48460DF062F809F050FE81461A
:104DF00002216CA809F068FEDDE96C01CDE924010F
:104E000024A9484609F06CFE09F041FE41460CF029
:104E100021FE814605216CA809F05BFEDDE96C01ED
:104E2000CDE9220122A9484609F05AFE8146310007
:104E300004EB07000EF0FBFA90ED300B48460DF046
:104E400036F809F024FE41460CF004FE81460321A9
:104E50006CA809F03EFEDDE96C01CDE9200120A936
:104E6000484609F03DFE8146310004EB07000EF094
:104E7000DEFAD0F8C81048460DF0D5F809F007FE64
:104E8000814607216CA809F01FFEDDE96C01CDE920
:104E90001E011EA9484609F023FE09F0F8FD41460F
:104EA0000CF0D8FD814609216CA809F012FEDDE95D
:104EB0006C01CDE91C011CA9484609F011FE814690
:104EC000310004EB07000EF0B2FA90ED340B4846C7
:104ED0000CF0EDFF09F0DBFD814602216CA809F022
:104EE000F3FDDDE96C01CDE91A011AA9484609F084
:104EF000F7FD09F0CCFD41460CF0ACFD81460521E3
:104F00006CA809F0E6FDDDE96C01CDE9180118A9EE
:104F1000484609F0E5FD8146310004EB07000EF03C
:104F200086FA90ED360B48460CF0C1FF09F0AFFD54
:104F300041460CF08FFD814603216CA809F0C9FDA4
:104F4000DDE96C01CDE9160116A9484609F0C8FD56
:104F50008146310004EB07000EF069FAD0F8E0104A
:104F600048460DF060F809F092FD41460CF072FDE4
:104F7000804603216CA809F0ACFDDDE96C01CDE9A8
:104F8000140114A9404609F0ABFD8046310004EB42
:104F900007000EF04CFAD0F8E41040460DF043F84C
:104FA00009F075FD29000CF04FFD761CFFF7F7BAEC
:104FB00014F519600EF023FAC0B2002801D00120C8
:104FC00000E00020C0B2002800F04B8109F05FFD36
:104FD00029000CF039FD09F05AFDDFF850150CF0EE
:104FE00039FD09F054FD59460CF034FD29000CF050
:104FF0002BFD09F04CFDDFF838150CF02BFD09F006
:1050000046FDDFF830150CF025FD09F040FDDFF816
:1050100028150CF01FFD09F03AFDDFF820150CF003
:1050200019FD09F034FDDFF818150CF013FD14F824
:105030000A00012811D009F02AFDDFF808150CF04C
:1050400009FD09F024FDDFF800150CF003FD09F05F
:105050001EFDDFF8F8140CF0FDFC09F018FD290026
:105060000CF0F2FC09F013FDDFF8E4140CF01CFE68
:10507000002604EB07000DF0B2F9864280F0D380E1
:1050800009F005FD804603216CA809F022FDDDE949
:105090006C01CDE9120112A9404609F021FD711CF5
:1050A0000CF0C1FF09F0F3FC0FF2802841460CF030
:1050B000D1FC09F0ECFC814605216CA809F004FD47
:1050C000DDE96C01CDE9100110A9484609F008FDA1
:1050D00009F0DDFC81460D216CA809F0FAFCDDE940
:1050E0006C01CDE90E010EA9484609F0F9FC814694
:1050F000310004EB07000EF09AF990ED040B4846DE
:105100000CF0D5FE09F0C3FC41460CF0A3FC09F0FD
:10511000BEFC814600216CA809F0D6FCDDE96C01DB
:10512000CDE90C010CA9484609F0DAFC09F0AFFC06
:1051300081460D216CA809F0CCFCDDE96C01CDE9BC
:105140000A010AA9484609F0CBFC8146310004EB6C
:1051500007000EF06CF990ED080B48460CF0A7FE26
:1051600009F095FC41460CF075FC09F090FC814675
:1051700005216CA809F0A8FCDDE96C01CDE9080166
:1051800008A9484609F0ACFC09F081FC81460D21D4
:105190006CA809F09EFCDDE96C01CDE9060106A9C9
:1051A000484609F09DFC8146310004EB07000EF0F3
:1051B0003EF990ED020B48460CF079FE09F067FCD1
:1051C000814600216CA809F07FFCDDE96C01CDE986
:1051D000040104A9484609F083FC09F058FC414643
:1051E0000CF038FC09F053FC80460D216CA809F046
:1051F00070FCDDE96C01CDE9020102A9404609F02D
:105200006FFC8046310004EB07000EF010F990EDC2
:10521000060B40460CF04BFE09F039FC29000CF05F
:1052200013FC761C25E709F032FC060008216CA867
:1052300009F04AFCDDE96C01CDE900016946300066
:1052400009F04EFC09F023FCC2490CF003FC09F004
:105250001EFCC1490CF0FEFB09F019FC29000CF002
:10526000F3FB2000FEF7D9F96FB0BDE8F08F00BF67
:1052700018AB0508F09F0508FC9F050808A0050865
:1052800014A0050820A005082CA0050838A00508D2
:1052900044A0050820AB050850A0050828AB050868
:1052A00030AB05085CA0050838AB050840AB050825
:1052B00068A0050800210160002141600021816093
:1052C00001210173002101610021416100218161FF
:1052D0000021C1610021016200214162704710B5C7
:1052E0000400012020730020206000206060002066
:1052F000A06000202061002060610020A0610020EB
:10530000E061142020620020606209F0C0FB934934
:105310000CF0A0FB92490CF097FB10BD48AB0508C0
:1053200050AB050874A0050858AB05082000000024
:1053300060AB0508C16111F59672026100224261FD
:1053400000228261704710B50400207B002809D03C
:10535000022810D007D304283ED024D306286FD0CB
:1053600052D387E086E0226900212069401E0CF0BC
:1053700064FB20617EE06069401C6061226900215D
:105380002069401E0CF059FB2061616914204143E3
:10539000E069B1FBF0F0A06114220021A0690CF0DB
:1053A0004CFBA06166E06069401C60612269E121FC
:1053B0002069401E0CF041FB2061616A14204143CA
:1053C000206AB1FBF0F01430A06128221421A069FA
:1053D0000CF033FBA0614DE06069401C6061226904
:1053E000616896312069401E0CF027FB2061616ADC
:1053F0001420414349082831A1613C222821A06999
:105400000CF01BFBA06135E06069401C6061226903
:105410006168A06841184B312069401E0CF00DFBFB
:105420002061616A14204143206AB1FBF0F03C30F6
:10543000A06150223C21A0690CF0FFFAA06119E0A4
:105440006069401C60612269616860684118A068F9
:1054500041182069401E0CF0F0FA2061616A1420A6
:10546000414349085031A16164225021A0690CF0E8
:10547000E4FAA06110BD006970478069704738B5D3
:1054800004000D002573207B002809D0022809D0D4
:1054900007D304281AD006D3062843D02BD341E0E3
:1054A00040E03FE03EE06069206009F0F0FA2D49FD
:1054B0000CF0D0FA09F0EBFA21680CF0B4FD1AA157
:1054C0000CF0C8FA26490CF0BFFA2BE0616920689D
:1054D000091A616009F0DBFA23490CF0BBFA09F004
:1054E000D6FA61680CF09FFD0FA10CF0B3FA1C49CD
:1054F0000CF0AAFA16E061692068091A6068091AB6
:10550000A16009F0C4FA19490CF0A4FA09F0BFFA35
:10551000A1680CF088FD04A10CF09CFA10490CF075
:1055200093FAFFE731BD000020F100000C4A0508A6
:1055300068AB05088C9905089C990508AC99050885
:10554000BC990508CC990508DC990508EC99050873
:10555000E98C0508384A0508FC99050880A005086B
:1055600001490508BC670508305C0508447005085A
:105570000162704701607047F8B505000E00170022
:105580001C0028000DF05FFF15F108000DF060FF12
:1055900015F110000DF05CFF15F118000DF058FF2B
:1055A00000230022002115F120000DF056FF0023FA
:1055B0000022002115F12C000DF04FFF00230022E6
:1055C000002115F138000DF048FF002300220021D2
:1055D00015F144000DF041FF00230022002115F1D8
:1055E00050000DF03AFF00230022002115F15C006D
:1055F0000DF033FF00230022002115F168000DF0AB
:105600002CFF00230022002115F174000DF025FF6E
:1056100000230022002115F180000DF01EFF15F17E
:105620008C000DF015FF15F194000DF011FF15F130
:105630009C000DF00DFF00230022002115F1A400B5
:105640000DF00BFF15F1B0000DF00BFF15F1B800D8
:105650000DF007FF15F1C0000DF003FF15F1C800B4
:105660000DF0FFFE15F1D0000DF0FBFE15F1D80096
:105670000DF0F7FE00230022002115F1E0000DF0EF
:10568000ECFE00230022002115F1EC000DF0E5FEF8
:1056900000230022002115F1F8000DF0DEFE0023AA
:1056A0000022002115F582700DF0D7FE00230022A4
:1056B000002115F588700DF0D0FE00230022002196
:1056C00015F58E700DF0C9FE00230022002115F59E
:1056D00094700DF0C2FE00230022002115F59A708F
:1056E0000DF0BBFE00230022002115F5A0700DF087
:1056F000B4FE00230022002115F5A6700DF0ADFECA
:1057000000230022002115F5AC700DF0A6FE002349
:105710000022002115F5B2700DF09FFE002300223B
:10572000002115F5B8700DF098FE0023002200212D
:1057300015F5BE700DF091FE00230022002115F535
:10574000C4700DF08AFE15F5CA700DF081FE15F5D6
:10575000CE700DF07DFE00230022002115F5D270E1
:105760000DF07BFE15F5D8700DF07BFE15F5DC70A5
:105770000DF07CFE15F5E0700DF06AFE15F5E47095
:105780000DF066FE15F5E8700DF062FE15F5EC7093
:105790000DF05EFE15F5F0700DF063FE15F5F4707A
:1057A0000DF05FFE15F5F8700DF05BFE15F5FC7061
:1057B0000DF049FE15F500700DF045FE15F502706F
:1057C0000DF04FFE15F504700DF050FE15F5067046
:1057D0000DF039FE15F508700DF035FE15F50A705F
:1057E0000DF031FE15F50C700DF02DFE15F50E7057
:1057F0000DF029FE15F510700DF025FE15F512704F
:105800000DF021FE00230022002115F514700DF08B
:1058100024FE00230022002115F517700DF01DFE57
:1058200000230022002115F51A700DF016FE00234A
:105830000022002115F51D700DF00FFE002300223F
:10584000002115F520700DF008FE00230022002134
:1058500015F523700DF001FE00230022002115F53F
:1058600026700DF0FAFD00230022002115F52970A5
:105870000DF0F3FD15F52C700DF0EAFD002300226C
:10588000002115F52E700DF0E8FD00230022002107
:1058900015F531700DF0E1FD00230022002115F512
:1058A00034700DF0DAFD00230022002115F5377069
:1058B0000DF0D3FD00230022002115F53A700DF004
:1058C000CCFD00230022002115F53D700DF0C5FD33
:1058D00000230022002115F540700DF0BEFD0023CD
:1058E0000022002115F543700DF0B7FD00230022C2
:1058F000002115F546700DF0B0FD002300220021B7
:1059000015F549700DF0A9FD00230022002115F5C1
:105910004C700DF0A2FD00230022002115F54F7000
:105920000DF09BFD00230022002115F552700DF0B3
:1059300094FD00230022002115F555700DF08DFD1A
:1059400000230022002115F558700DF086FD15F595
:105950005B700DF07DFD15F55D700DF079FD15F5B1
:105960005F700DF088FD15F561700DF07AFD15F58D
:1059700063700DF076FD15F565700DF064FD15F59D
:1059800067700DF060FD15F569700DF05CFD15F5A3
:105990006B700DF066FD15F56D700DF062FD15F57F
:1059A0006F700DF068FD15F571700DF064FD15F563
:1059B00073700DF048FD15F575700DF052FD15F57D
:1059C00077700DF053FD15F579700DF04FFD15F55D
:1059D0007B700DF04BFD15F57D700DF034FD15F568
:1059E0007F700DF03EFD05F204400DF03AFD05F22A
:1059F0000C400DF036FD05F214400DF032FD05F2BD
:105A00001C400DF02EFD05F224400DF02AFD05F29C
:105A10002C400DF026FD05F234400DF022FD05F27C
:105A20003C400DF01EFD05F244400DF01AFD05F25C
:105A30004C400DF016FD05F254400DF012FD05F23C
:105A40005C400DF00EFD05F264400DF00AFD05F21C
:105A50006C400DF006FD05F274400DF002FD05F2FC
:105A60007C400DF0FEFC05F284400DF004FD05F2D3
:105A70008C400DF0EDFC05F294400DF0E9FC05F2D0
:105A80009C400DF0EEFC05F2A4400DF0EAFC05F29E
:105A9000AC400DF0E6FC05F2B4400DF0E2FC05F27E
:105AA000BC400DF0DEFC05F2C4400DF0DAFC05F25E
:105AB000CC400DF0D6FC05F2D4400DF0D2FC05F23E
:105AC000DC400DF0CEFC05F2E4400DF0CAFC05F21E
:105AD000EC400DF0C6FC05F2F4400DF0C7FC05F2F9
