:020000040800F2
:1000000088CC00207D170708236E0208B97002080B
:10001000D7700208F5700208137102080000000092
:100020000000000000000000000000003171020824
:10003000417102080000000051710208617102085C
:100040001D7502081D7502081D7502081D75020840
:100050001D7502081D750208717102081D750208E0
:100060001D7502088B7102081D7502081D750208B6
:100070001D7502081D7502081D7502081D75020810
:10008000A57102081D7502081D7502081D7502087C
:100090001D7502081D7502081D750208B57102085C
:1000A0001D7502082D7202081D7502081D750208D3
:1000B00061720208717202081D7502081D7502083E
:1000C0001D7502081D7502081D7502081D750208C0
:1000D0001D7502083D7402084D7402085D74020823
:1000E000917202081D7502081D7502081973020835
:1000F0003F7302081D7502086B7302081D75020824
:100100001D7502086D740208817202081D750208CF
:100110007D7402088D7402081D7502081D750208A1
:100120009D740208AD740208BD740208CD74020803
:100130001D7502081D7502081D7502081D7502084F
:100140001D7502081D7502081D750208ED74020870
:100150001D750208DD7402081D750208FD74020891
:100160001D7502081D7502081D7502081D7502081F
:100170001D7502080D7502081D7502081D7502081F
:100180001D75020810B5144C2078002805D10021F7
:10019000124811F0E7FE01202070114C2078002851
:1001A00005D100210F4811F0DDFE012020700E4C1A
:1001B0002078002805D100210C4811F0D3FE012041
:1001C00020700B4C2078002805D10021094811F03F
:1001D000C9FE0120207010BD029C0020B89B0020A9
:1001E000039C0020C09B0020049C0020BC9B00209E
:1001F000059C0020B49B00202DE9FE4F2DED048BC3
:10020000E8B004006C982060002300220021201D2B
:1002100011F0AAFE7898C4F8080A04F60C206DA91B
:10022000082212F0FBFB206810F5A47104F61820D8
:1002300013F0A4F9206810F590700090206810F574
:100240008873206810F58072012114F5266017F07C
:10025000D9FA04F6A82017F027FD04F6E82017F0D5
:1002600045FE04F6043017F067FE14F5316017F010
:1002700063FE04F61C3017F05FFE04F6283017F01A
:1002800065FE002104F6B83017F0F8FE04F6BC3025
:1002900017F06DFF002204F6C831201D18F04CF84D
:1002A00002009208206810F1980104F6C83019F095
:1002B00069F8012084F8900C0120269026A819F0F6
:1002C000ADFBCDE904014020029000200190012007
:1002D00000904FF48053206810F1D002206810F590
:1002E0004C7104F698401BF018F80023002204F625
:1002F000984114F560601BF06BF814F5606204F629
:10030000984141F2184020440BF0A6FA00200290D8
:10031000206810F5EA700190206810F5E2700090F6
:10032000206810F5DA73206810F5D272206810F595
:10033000417114F5A1501BF0E3FB14F5A15141F2FA
:100340006840204412F0FAFD206810F557732068C9
:1003500010F5AA72206810F5367141F20850204459
:1003600013F0CDF96420259025A81BF02FFECDE9D0
:100370002E012EA914F5BB501BF02AFF4FF4FA7082
:10038000249024A81BF022FECDE92C012CA941F2D7
:10039000707020441BF01CFF4FF47A76239623A83C
:1003A0001BF014FECDE92A012AA914F5BC501BF05C
:1003B0008BFE002041F298716054DFF8241C61A884
:1003C0001BF0E4FF6420229022A81BF0FFFD002216
:1003D0000492CDE902010020009061AB206810F585
:1003E0000172206810F5057114F5BD5012F03BFC48
:1003F00061A81BF0DBFFDFF8EC1B5AA81BF0C6FF5F
:100400006420219021A81BF0E1FD00220492CDE997
:100410000201002000905AAB206810F50972206894
:1004200010F50D7141F60800204412F01CFC5AA88A
:100430001BF0BCFFDFF8B01B53A81BF0A7FF012384
:100440000200206810F5117141F67000204412F08E
:100450006FFB53A81BF0AAFFDFF8901B4CA81BF002
:1004600095FF00230200206810F5157141F6C800C1
:10047000204412F05DFB4CA81BF098FFDFF8701BC6
:1004800045A81BF083FF00230200206810F51971B6
:1004900014F5C95012F04CFB45A81BF087FFDFF89C
:1004A000541B3EA81BF072FF6420209020A81BF074
:1004B0008DFD00220492CDE90201002000903EABA8
:1004C000206810F51D72206810F5217141F6781032
:1004D000204412F0C8FB3EA81BF068FFDFF8181B91
:1004E00037A81BF053FF64201F901FA81BF06EFD60
:1004F00000220492CDE902010020009037AB206871
:1005000010F52572206810F5297114F5CF5012F0FE
:10051000AAFB37A81BF04AFFDFF8E01A30A81BF04F
:1005200035FF64201E901EA81BF050FD002204928F
:10053000CDE902010020009030AB206810F52D724B
:10054000206810F5317141F64820204412F08BFBF1
:1005500030A81BF02BFF002041F6B0216054002092
:1005600041F6B1216054002041F6B22160540020D0
:1005700041F6B4216050142041F6B82160500220A9
:1005800041F6BC216054032014F5D65108600120C7
:1005900041F6C421605041F6C820204400220023C7
:1005A000C0E9002341F6D020204400220023C0E906
:1005B000002341F6D820204400220023C0E9002374
:1005C00014F5D75000220023C0E9002312279FED25
:1005D0001A8B3D00002F00D56D429FED199BE80757
:1005E00007D551EC190B53EC182B1BF0F7FE41EC1F
:1005F000190B6D08002D08D051EC180B53EC182B7B
:100600001BF0ECFE41EC180BE9E7002F20D553EC72
:10061000192B002000211BF0C3FF02D19FED0A9B84
:1006200016E00020DFF8EC1E53EC192B1BF0C8FF7E
:1006300041EC190B0CE000BF00000000000000407E
:10064000000000000000F03F000000000000F07F0C
:1006500041F6E82004EB000181ED009B204490ED81
:10066000000B41F6F020204480ED000B41F6F8200D
:10067000204400220023C0E90023002014F5D851B3
:10068000087041F6083020440022DFF8883EC0E9B7
:10069000002341F6103020440022DFF8783EC0E904
:1006A000002341F61830204400220023C0E9002333
:1006B00014F5D95000220023C0E9002341F6283068
:1006C000204400220023C0E9002341F630302044BA
:1006D00000220023C0E9002341F6383020440022E4
:1006E0000023C0E9002314F5DA5000220023C0E9FA
:1006F000002364201D901DA81BF068FC41F64832C1
:100700002244C2E9000164201C901CA81BF05EFC7E
:1007100041F650322244C2E9000165201B901BA81B
:100720001BF054FC41F658322244C2E90001052076
:1007300014F5DB510860002041F66431605041F649
:10074000683020441CF05FF841F6743020441CF0FF
:100750005AF814F5DC5000220023C0E9002341F6CA
:100760008830204400220023C0E9002341F6903065
:10077000204400220023C0E90023012041F69831E3
:10078000605441F69C3020441CF045F8002041F6AE
:10079000A831605441F6A93A002004F80A0041F655
:1007A000B030204400220023C0E9002341F6B830D5
:1007B00004EB0001DFF8602DDFF8603DC1E90023A4
:1007C00014F5DE510022DFF84C3DC1E9002320443E
:1007D00090ED000B41F6C830204480ED000B002066
:1007E00041F6D0316054002041F6D131605441F6D9
:1007F000D830204400220023C0E90023002014F553
:10080000DF510870002019901A961AAA19A941F60A
:10081000E83020441BF022FC002014F5E051086071
:10082000002041F604416050002041F6084160502C
:10083000002041F60C41605041F61040204410F079
:1008400039FF002041F638416054189618A81BF073
:10085000BDFBCDE9280128A914F5E2501BF0B8FC36
:10086000002041F65041605441F67040204400227F
:100870000023C0E9002341F67840204400220023F1
:10088000C0E9002314F5E45000220023C0E900234E
:1008900041F68840204400220023C0E9002341F6AD
:1008A0009040204400220023C0E90023002041F6AC
:1008B0009841605414F5E55000220023C0E900235C
:1008C000002041F6A8416050002041F6AC41605044
:1008D000012041F6B0416050052041F6B44160501E
:1008E000002041F6B841605041F6BC4020441BF066
:1008F0009AFF41F6C84020441BF085FF022041F6D4
:10090000D4416050002041F6D841605414F5E750BE
:100910000022DFF8003CC0E9002341F6E840204413
:100920000022DFF8F03BC0E90023002041F6F0414F
:100930006054002041F6F1416054002041F62851F6
:100940006054002014F5EB510870002041F661510D
:100950006054002041F698516054002014F5F05185
:100960000870002041F66861605441F6483004EB9D
:10097000000141F6C86020441BF0A6FB41F6387028
:1009800020441BF058FF002041F67071605441F67E
:100990007870204400220023C0E9002314F5FC50A5
:1009A00000220023C0E9002341F688702044002281
:1009B0000023C0E9002341F6907020440022002368
:1009C000C0E9002341F69870204400220023C0E9CA
:1009D000002314F5FE5000220023C0E9002341F655
:1009E000C870204400220023C0E90023642017902F
:1009F00017A81BF0EBFA41F6D07504EB0502C2E92B
:100A0000000141F6D870204400220023C0E90023F1
:100A10000A2014F5FF51086041F22C0020441BF01D
:100A200025FF070041F22C0020441BF01FFF80B27D
:100A30000200BFB2390014F500501BF028FF14F576
:100A4000015000220023C0E9002342F24800204464
:100A500000220023C0E9002342F25000204400227B
:100A60000023C0E90023642042F2580160500020B6
:100A700042F2B0016054002042F2B101605478208B
:100A8000169016A818F0CAFF42F2B8022244C2E932
:100A900000014FF41670159015A818F0BFFF14F55B
:100AA0000352C2E9000114F5035142F2C800204488
:100AB0001BF00AFB012042F2E001605442F2E80020
:100AC000204400220023C0E9002342F2F000204429
:100AD00000220023C0E90023002042F2F801605008
:100AE00014F50450DFF8382ADFF8383AC0E900235B
:100AF00042F2081020440022DFF8183AC0E900232F
:100B000042F21010204400220023C0E9002342F2E8
:100B1000181020440022DFF8FC39C0E9002301202E
:100B200042F22011605042F22410265042F2281066
:100B300020440022DFF8DC39C0E9002304F2FC7015
:100B4000109041F2542020440F9004F2F4700E9063
:100B500041F24C2020440D9004F2EC700C9004F211
:100B6000E4700B9041F2442020440A9004F2DC70BF
:100B7000099004F2D470089004F2CC70079004F24B
:100B8000C470069004F2BC70059004F2B470049036
:100B900004F2AC70039004F2A470029004F29C7012
:100BA0000190206810F584600090206810F5826341
:100BB000206810F58062206810F57C7142F23010D8
:100BC000204414F0C9FB42F2704604EB06000022F8
:100BD000DFF84039C0E9002342F2784704EB07020E
:100BE000DFF83C09DFF8801EC2E900014FF412581B
:100BF00004EB08020020DFF81C19C2E9000142F2F0
:100C0000884004EB000200200021C2E9000142F20A
:100C1000904004EB00020020DFF8501EC2E9000102
:100C200042F298499FED671B9FEDEB0B04F2AC710C
:100C300004EB090015F0B6F842F2B04B04F674006C
:100C40000E9004F668000D9004F65C000C9004F61B
:100C50004C000B9004F644000A9004F63C00099006
:100C600004F63400089004F62C00079004F62400E3
:100C7000069004F61C00059004F61400049004F697
:100C80000C00039004F604000290002001902068FC
:100C900010F57470009004EB080090ED002B04EB4D
:100CA000070090ED001B04EB060090ED000B4623BF
:100CB000206810F5587204EB090104EB0B001BF0DF
:100CC00000FE04EB0B0142F21050204415F0C8F86E
:100CD00041F2B4202044109041F2A82020440F900B
:100CE00041F29C2020440E9041F28C2020440D9033
:100CF00041F2842020440C9041F27C2020440B904F
:100D000041F2742020440A9041F26C202044099062
:100D100041F264202044089041F25C202044079076
:100D200004F67400069004F66800059004F65C0072
:100D3000049004F63C00039004F63400029004F69C
:100D40002C00019004F62400009004F61C0304F625
:100D5000140204F6040142F2E060204415F05CFC49
:100D600042F2307604EB06000022DFF8A837C0E933
:100D7000002342F2387704EB0702DFF8A407DFF81C
:100D8000E81CC2E900014FF41D5804EB08020020E2
:100D9000DFF88017C2E9000142F2487004EB00025C
:100DA00000200021C2E9000142F2507004EB000271
:100DB0000020DFF8B81CC2E9000142F258799FED2B
:100DC000901B03E000000000008041409FED820B7B
:100DD00004F29C7104EB090014F0E4FF42F2707B12
:100DE00014F50F600E9004F6E4000D9004F6D800A0
:100DF0000C9004F6C8000B9014F50C600A9004F6F1
:100E0000B800099014F50B60089004F6A80007904C
:100E100014F50A60069004F69800059014F5096030
:100E2000049004F68800039014F5086002900020F6
:100E30000190206810F57870009004EB080090EDA8
:100E4000002B04EB070090ED001B04EB060090ED77
:100E5000000B4523206810F5667204EB090104EBD2
:100E60000B001BF02EFD04EB0B0142F2D07020446E
:100E700014F0F6FF41F218302044109041F20C308B
:100E800020440F9014F598500E9041F2F020204429
:100E90000D9041F2E82020440C9014F597500B90EF
:100EA00041F2D82020440A9041F2D02020440990F9
:100EB00041F2C8202044089014F59650079014F58C
:100EC0000F60069004F6E400059004F6D800049044
:100ED00004F6B800039014F50B60029004F6A80025
:100EE000019014F50A60009004F6980314F5096265
:100EF00014F5086142F6A010204415F08DFB002087
:100F000042F6F011605414F56062211D42F6F810AB
:100F1000204410F03FFD200000F0B0FD200000F064
:100F2000C2FD1BF021FD149004F688701BF022FD19
:100F30008DF8500014F579601BF01CFD8DF8510000
:100F400004F698701BF016FD8DF8520014F57A60C7
:100F50001BF010FD8DF853001BF006FD139004F6F6
:100F6000A8701BF007FD8DF84C0014F57B601BF09A
:100F700001FD8DF84D0004F6B8701BF0FBFC8DF8F8
:100F80004E0014F57C601BF0F5FC8DF84F001BF053
:100F9000EBFC129004F6C8701BF0ECFC8DF84800D6
:100FA00014F57D601BF0E6FC8DF8490004F6D8705E
:100FB0001BF0E0FC8DF84A0014F57E601BF0DAFCB3
:100FC0008DF84B0004F6E8701BF0E5FC00281BD000
:100FD00001208DF844001AE00000000000002E40BF
:100FE000F0190708F8190708001A0708081A07086F
:100FF000101A0708181A0708201A0708281A0708DD
:10100000000000000080464000208DF844009DF85C
:1010100044000090129B139A14992068A0301BF092
:1010200036FD1CF0C4F90600082101A81CF0DCF90B
:10103000DDE90101CDE90C010CA930001CF0E0F95B
:1010400014F560601CF0ECF941F6983160542144CD
:1010500014F11C001CF0F3F904F608601CF0FCF914
:1010600041F6103004EB000181ED000B04EB0001B0
:1010700014F1B4001CF01AFA14F561601CF0ECF9DC
:1010800041F6083004EB000181ED000B04EB000198
:1010900014F1BC001CF00AFA04F6787114F1D400C3
:1010A0001CF011FA14F5786114F1DC001CF00BFA55
:1010B00004F618601CF0B4F941F268460100C9B2A8
:1010C00004EB060012F012F904EB060012F09EF990
:1010D0008DF801000DF1010114F5CC701CF0AFF991
:1010E00014F562601CF09CF94FF4D65160506058C2
:1010F0008DF80000694614F5D0701CF0A0F904F6D4
:1011000028601CF08DF90B900BA81AF05FFF41F6D8
:1011100050322244C2E9000104F6286114F5FE7041
:101120001CF0E4F904EB0500D0E9002304EB060011
:1011300012F074F914F576601CF072F90A900AA89E
:101140001AF044FF41F658322244C2E9000114F576
:10115000766114F578701CF0C9F914F563601CF021
:101160005FF9099009A81AF031FF41F6483222448C
:10117000C2E9000114F5636114F501701CF0B6F9C1
:1011800004F638601CF068F941F6D83704EB070024
:1011900080ED000B04EB070114F503701CF086F9D9
:1011A00014F564601CF0B4F91CF0CEF904EB0702EE
:1011B000C2E9000104EB070114F503701CF076F995
:1011C00004F648601CF02CF914F5DB51086014F5A6
:1011D000DB5114F507701CF0C8F920000AF07CFD03
:1011E00041F6F84004EB000141F20850204413F0AE
:1011F00021FB04F688601BF039FB41F672716052E6
:10120000214414F56A701CF0BDF914F569601BF0F7
:101210002DFB41F674716052214414F56C701CF082
:10122000B1F904F6F47114F580601CF04CF904F681
:10123000F4701CF011F941F67870204480ED000B39
:1012400004F6FC7114F581601CF03DF904F6FC70A5
:101250001CF002F914F5FC5080ED000B41F204077C
:1012600004EB070114F582601CF02DF904EB070074
:101270001CF0F2F841F68870204480ED000B41F23A
:101280000C0704EB070114F583601CF01CF904EB58
:1012900007001CF0E1F841F69070204480ED000B4F
:1012A00004EB06001CF086F941F6F860204480ED5E
:1012B000000B04EB06001CF0CDF914F5F85080ED9E
:1012C000000B41F60870204400220023C0E90023EF
:1012D00041F61070204400220023C0E9002341F6AB
:1012E0001870204400220023C0E90023002014F5D8
:1012F000F9510860002041F62471605041F62870D1
:10130000204400220023C0E9002341F6307020442D
:10131000834ADFF85C37C0E9002341F2140604EB8E
:10132000060114F585601CF0CEF804EB06001CF0F5
:1013300093F84FF4FE5804EB080080ED000B41F2E7
:101340001C0604EB060114F586601CF0BCF804EBE7
:1013500006001CF081F841F6C87704EB070080ED29
:10136000000B04EB080090ED000B14F5FD5080ED30
:10137000000B41F6A870204400220023C0E900239E
:1013800041F6B070204400220023C0E9002341F25E
:101390000856012104EB060012F0C8FA04EB07001E
:1013A000D0E9002351EC100B1BF018F841F6B8728D
:1013B0002244C2E9000141F2240704EB070114F5BD
:1013C00089601CF080F804EB07001CF045F841F63A
:1013D000D87804EB080080ED000B41F22C0704EBF9
:1013E00007001BF043FA80B214F5FF51086041F684
:1013F000E87004EB000200200021C2E9000141F680
:10140000F07004EB000200200021C2E9000101217C
:1014100004EB060012F08AFA04EB0800D0E900237E
:1014200051EC100B1AF0DAFF41F6F8722244C2E9CF
:10143000000104EB070114F58E601CF05FF941F226
:10144000440020441CF008F842F2480704EB07006F
:1014500080ED000B04EB070090ED000B20000AF07C
:101460007FFB14F5015080ED000B04EB070114F530
:1014700092601CF01BF814F5015114F591601CF0FA
:1014800015F841F24C0020441BF0E6FF42F25000F8
:1014900004EB000181ED000B04EB000114F59360F7
:1014A0001CF004F841F2340704EB07001BF062FA69
:1014B000C0B215F0EEFC42F2E001605404EB07010B
:1014C00014F58F601CF02DF904F658601BF0C4FF72
:1014D00041F6684904EB090080ED000B04EB0901BB
:1014E00014F55C701BF0E2FF14F56A601BF0B4FFAA
:1014F00014F5DE5080ED000B14F5DE5114F570701C
:101500001BF0D4FF14F56B601BF045FA00280BD0DC
:1015100001200AE00000F03FCDCCCCCCCC60B5403F
:101520009A9999999999D93F002041F6A831605428
:10153000615C14F160001CF007F904F6BC601BF05C
:101540002AFA002801D0012000E0002041F6504195
:101550006054615C14F5C6701CF0F6F804F6C860BF
:101560001BF019FA002801D0012000E0002004F847
:101570000A0014F80A1014F515701CF0E5F814F8B8
:101580000A1014F5BD501CF0F5F841F6080B14F8DC
:101590000A1004EB0B001CF0EDF841F6781814F873
:1015A0000A1004EB08001CF0E5F814F80A1014F512
:1015B000CF501CF0DFF841F6482714F80A1004EB6E
:1015C00007001CF0D7F804F6D4601BF0E4F90028FB
:1015D00001D0012000E0002041F698416054615C98
:1015E00014F51E701CF0B0F804F648701BF090FF64
:1015F00041F6C4216050214414F572701CF0BDF80E
:1016000014F575601BF084FF41F6B04160506058DE
:10161000039003A914F574701CF0AFF804F6587029
:101620001BF076FF41F6B44160506058029002A969
:1016300014F576701CF0A1F804F668701BF00CFF2E
:1016400014F5E75080ED000B14F5E75114F57A70AE
:101650001BF02CFF14F56E6114F521701CF09AF844
:1016600004F6F86114F544701CF094F814F5447015
:101670001BF091F9002801D0012100E00021C9B23E
:1016800004EB06001CF0A5F814F577601BF0E4FEEF
:1016900041F6E84004EB000181ED000B04EB000192
:1016A00014F57C701BF002FF14F571601BF062F9F9
:1016B0000100C9B220000FF0E3FF41F6BC216054E5
:1016C00014F5716114F52D701CF02BF804F62471DB
:1016D00014F54D701CF05EF814F5736114F550703C
:1016E0001CF058F841F2142604EB06001BF0B4FE7F
:1016F00014F5045080ED000B04EB060114F598601E
:101700001BF0E1FE41F21C2604EB06001BF0A4FED8
:1017100042F20810204480ED000B04EB060114F5A2
:1017200099601BF0D0FE41F2242604EB06001BF06A
:1017300093FE42F21010204480ED000B04EB0601F2
:1017400004F27C701BF0BFFE41F22C2604EB060075
:101750001BF082FE42F21810204480ED000B04EBD7
:10176000060104F284701BF0AEFE41F2342604EB55
:1017700006001BF0CDFE42F22011605004EB060182
:1017800004F28C701CF028F841F23C2604EB0600B1
:101790001BF062FE51EC100B1CF030F842F22411E9
:1017A000605004EB060104F294701BF08CFE41F2D1
:1017B000084004EB000114F1CC001BF084FE04F699
:1017C0003C7114F553701BF0E5FF41F2104604EB39
:1017D000060114F51F601BF076FE04EB06001BF0FB
:1017E0003BFE42F22810204480ED000B41F65840A9
:1017F00004EB000200200021C2E9000114F5E352CD
:1018000000200021C2E9000104F658601BF024FE0C
:1018100004EB090080ED000B14F563601BF000FE83
:10182000089008A81AF0D2FB41F648322244C2E9D7
:10183000000104F6887114F59D601BF072FF14F529
:10184000796114F59E601BF06CFF04F6987114F535
:101850009F601BF066FF14F57A6114F5A0601BF021
:1018600060FF04F6A87114F5A1601BF05AFF14F58F
:101870007B6114F5A2601BF054FF04F6B87114F5F7
:10188000A3601BF04EFF14F57C6114F5A4601BF0FF
:1018900048FF04F6C87114F5A5601BF042FF14F56B
:1018A0007D6114F5A6601BF03CFF04F6D87114F5B9
:1018B000A7601BF036FF14F57E6114F5A8601BF0DD
:1018C00030FF04F6E87114F5A9601BF063FF04EB28
:1018D0000500D0E9002314F5BD5011F021FA04EB06
:1018E0000500D0E9002304EB0B0011F019FA04EB1A
:1018F0000500D0E9002341F67000204411F05AF9A8
:1019000004EB0500D0E9002341F6C800204411F0A3
:1019100051F904EB0500D0E9002314F5C95011F08A
:1019200049F904EB0500D0E9002304EB080011F0AD
:10193000F7F904EB0500D0E9002314F5CF5011F0BE
:10194000EFF904EB0500D0E9002304EB070011F0E8
:10195000E7F904F6F47114F580601BF0B4FD14F59A
:10196000266104F6E8201BF066FF04F6A82104F6C1
:1019700028301BF08DFF04F61C3104F628301BF0D4
:1019800089FF04F6043104F628301BF083FF14F5B8
:10199000316104F628301BF07DFF1420079007A862
:1019A0001AF014FB02000B0004F628301BF07CFF39
:1019B0001420069006A81AF009FB02000B0004F69A
:1019C00028301BF07CFF4FF4FA70059005A81AF040
:1019D000FDFA02000B0004F628301BF07BFF3220DA
:1019E000049004A81AF0F2FA02000B0004F6283062
:1019F0001BF07CFF78201BF087FF0500231D04F6F9
:101A00001C3204F6E82128001DF05BFF010004F6FB
:101A1000B8301EF083F8002104F6182011F0EDFD17
:101A20001BF0C5FC13491EF08FF81BF0C0FC082109
:101A30001EF085F910491EF0ECF9B4F80E0A019079
:101A400001A904F6FC001BF090FD41F2243004EBE8
:101A5000000104F604101BF049FD200068B0BDEC45
:101A6000048BBDE8FE8F00009999A93F0000394022
:101A70009999B93F00E1060809A9060810B50400C4
:101A8000206810F5987104F6A82016F0A2F92068D5
:101A900010F59E7104F6A82016F0B3F904F6A820FC
:101AA00016F0D0F910BD70472DE9F84F2DED0C8BD5
:101AB000ADF54C6D040020681BF076FB04F6C830D1
:101AC00017F08CFD04F6984019F0A2FA14F5A15015
:101AD0001AF07DF941F2684504EB050011F0F0FCC5
:101AE00094F8900C002834D01AF03EFF05901AF0BC
:101AF0003BFF19901AF038FF189000208DF8110064
:101B00000DF11100009018AB19AA05A92068A030AA
:101B10001AF09EFF9DF8140000280BD19DF81500C7
:101B2000002807D19DF81600002803D19DF8170062
:101B300000280ED0002084F8900C206810F1A0013D
:101B40000DF1120013F0BEFA002104F6182011F076
:101B500054FD00260A2E06D241F20850204412F00D
:101B600063F8761CF6E714F5BD5011F00EF941F656
:101B70000800204411F009F941F67000204411F0EA
:101B800040F841F6C800204411F03BF814F5C95064
:101B900011F037F841F6781604EB060011F0F5F86D
:101BA00014F5CF5011F0F1F841F6482804EB080085
:101BB00011F0EBF804F6182011F034FD04F6B830FB
:101BC0001EF036F91DF022FF14F5266015F0F4FE24
:101BD00004F628301EF04EF942F23010204413F083
:101BE000B5FD42F21050204414F047FB42F2D07091
:101BF000204414F042FB04F604301EF090FA002852
:101C000001D0012000E00020C0B2002804D0002153
:101C100004F6182011F0F1FC14F5BB501AF0F9FA93
:101C2000C0B2002801D0012000E00020C0B200288E
:101C300001F08D810021201D1EF077FA20000AF0AE
:101C400024FC41F62851605420000AF089FD070069
:101C50004FF4EB51605C002800D1675420000AF07B
:101C6000EAFE8DF8000041F66151605C002802D167
:101C70009DF80000605420000BF0AFF841F6985139
:101C8000605420000BF014FA14F5F0510870200095
:101C90000BF079FB41F66861605420000AF0A7FB65
:101CA00041F6B02914F80900012800F04F8114F51D
:101CB000DA701BF0D1FBB0EE408AF0EE608A04EBE4
:101CC000050011F047FB53EC182B51EC100B1AF0E8
:101CD00067FC01D0012000E00020C0B200280AD03B
:101CE00004EB050011F036FB8DEDEE0BEEA914F5BB
:101CF000DA701BF0DBFB14F5DE701BF009FC07004B
:101D000004EB050011F07AFB874201D0012000E0CE
:101D10000020C0B2002809D004EB050011F06EFBD2
:101D2000179017A914F5DE701BF027FD14F5D47079
:101D30001AF031FE070004EB050011F0AAF9C0B259
:101D4000874201D0012000E00020C0B2002809D065
:101D500004EB050011F09DF90100C9B214F5D4702F
:101D60001BF0F2FC14F5CC701AF004FE070004EB33
:101D7000050011F04BFBFFB2C0B2874201D0012039
:101D800000E00020C0B200280AD004EB050011F0EA
:101D90003DFB8DF8100004A914F5CC701BF04FFB2F
:101DA00014F5AE701AF0F7FD070014F5BD5010F0F1
:101DB000A4FF874201D0012000E00020C0B200282B
:101DC00008D014F5BD5010F098FF010014F5AE7066
:101DD0001BF0BAFC14F5B4701AF0DDFD070041F6F3
:101DE0000800204410F089FF874201D0012000E064
:101DF0000020C0B2002809D041F60800204410F0AD
:101E00007CFF010014F5B4701BF09EFC14F59C706F
:101E10001AF0C1FD070041F67000204410F0BFFE2B
:101E2000874201D0012000E00020C0B2002809D084
:101E300041F67000204410F0B2FE010014F59C70D1
:101E40001BF082FC14F1E4001AF0A5FD070041F636
:101E5000C800204410F0A3FE874201D0012000E01A
:101E60000020C0B2002809D041F6C800204410F07C
:101E700096FE010014F1E4001BF066FC14F1F00082
:101E80001AF089FD070014F5C95010F088FE87424A
:101E900001D0012000E00020C0B2002808D014F5D5
:101EA000C95010F07CFE010014F1F0001BF04CFC56
:101EB00014F1FC001AF06FFD070004EB060010F0AF
:101EC0001CFF874201D0012000E00020C0B20028A2
:101ED00008D004EB060010F010FF010014F1FC0024
:101EE0001BF032FC14F584701AF055FD070014F550
:101EF000CF5010F002FF874201D0012000E0002007
:101F0000C0B2002808D014F5CF5010F0F6FE010042
:101F100014F584701BF018FC14F58A701AF03BFD60
:101F2000070004EB080010F0E8FE874201D0012012
:101F300000E00020C0B2002808D004EB080010F038
:101F4000DCFE010014F58A701BF0FEFB41F2085B19
:101F500004EB0B001EF004F9C0B2002801D00120F0
:101F600000E00020C0B2002800F0E18041F6706A75
:101F700004EB0A0104EB0B0013F030F841F6986013
:101F800004EB000104F6E8101BF0EFFA9FED708BF4
:101F900041F6786704EB0700D0E9002351EC180BF9
:101FA0001AF01CFA41EC190B51EC190B31F00041FD
:101FB00041EC100B8DED320B32A914F596601BF03D
:101FC00075FA41F6B06004EB000104F6F8101BF05E
:101FD0006DFA41F6B8602044D0E9002351EC180BAB
:101FE0001AF0FCF941EC190B51EC190B31F00041DE
:101FF00041EC100B8DED300B30A914F520601BF077
:1020000055FA14F5F45114F59C601BF0B6FB41F63B
:10201000886004EB000114F594601BF047FA41F668
:1020200090602044D0E9002351EC180B1AF0D6F947
:10203000CDE92E012EA914F595601BF037FA14F89E
:10204000090000280DD041F6B120205C022808D0FC
:1020500004EB0A0090ED000B41F67840204480ED3F
:10206000000B04EB070090ED009B51EC190B31F0D5
:10207000004141EC100B42F6F81020440FF00EFD29
:1020800041F63871605C002851D00020605414F58E
:10209000FA5114F588601BF009FA41F6487004EB18
:1020A000000114F584601BF001FA41F6507A04EB4C
:1020B0000A0114F58A601BF0F9F941F6587704EB30
:1020C000070114F58B601BF0F1F904EB0A0090EDA9
:1020D000000B200009F0AEFC8DED2C0B2CA914F5A3
:1020E0008C601BF0E3F904EB070090ED000B20007F
:1020F00009F0A0FC8DED2A0B2AA914F58D601BF0C8
:10210000D5F914F5FB5114F587601BF0CFF941F6B2
:1021100068702044D0E9002351EC180B1AF05EF9E6
:10212000CDE9280128A914F5F6701BF0BFF914F5C4
:10213000F2701BF091F941F6784753EC102B04EB49
:102140000700D0E900011AF02BFA05D0012004E0C5
:102150000000000080842E410020C0B200281AD068
:1021600004EB070114F5F2701BF0A0F904EB070073
:1021700090ED000B41F6584020441EF08FFA41F6D6
:10218000704004EB000181ED000B04EB000114F53D
:102190005E701BF08BF914F518701AF0FCFB002828
:1021A00001D0012000E00020C0B2002825D000218D
:1021B00014F518701BF0C8FA04EB070090ED000B43
:1021C00041F65840204480ED000B04EB070090EDF1
:1021D000000B14F5E35080ED000B41F6704004EB6A
:1021E000000104EB070292ED000B81ED000B04EB04
:1021F000000114F55E701BF059F914F190001AF00B
:10220000B9FB14F80910C0B2884201D0012000E0E7
:102210000020C0B2002809D014F809008DF80F0082
:102220000DF10F0114F190001BF009F914F80900E9
:1022300000282CD141F6B120205C022827D114F5CA
:10224000AC601AF0A8FB012801D1012000E00020B9
:10225000C0B200280CD0002114F5AC601BF074FA59
:10226000002104F254501BF06FFA200009F014F919
:1022700004F254501AF08FFB002801D1012000E035
:102280000020C0B2002802D0200009F06EF914F13D
:102290001C001AF06FFB070014F560601BF0C0F81B
:1022A000FFB2874201D0012000E00020C0B2002828
:1022B00009D014F11C001AF05DFB169016A914F554
:1022C00060601BF052F914F1B4001BF0C5F8B0EED9
:1022D000408AF0EE608A04F608601BF0BDF853EC0B
:1022E000182B51EC100B1AF05BF901D0012000E023
:1022F0000020C0B2002805D014F1B40104F6086033
:102300001BF0E1F814F1BC001BF0A6F8B0EE408A17
:10231000F0EE608A14F561601BF09EF853EC182B08
:1023200051EC100B1AF03CF901D0012000E0002024
:10233000C0B2002805D014F1BC0114F561601BF097
:10234000C2F814F1D4001BF087F8B0EE408AF0EE2A
:10235000608A04F678701BF07FF853EC182B51EC70
:10236000100B1AF01DF901D0012000E00020C0B2CE
:10237000002805D014F1D40104F678701BF0A3F8FE
:1023800014F1DC001BF068F8B0EE408AF0EE608AD1
:1023900014F578601BF060F853EC182B51EC100B1F
:1023A0001AF0FEF801D0012000E00020C0B20028A1
:1023B00005D014F1DC0114F578601BF084F814F5F5
:1023C000CC701AF0D7FA070004F618601BF028F852
:1023D000FFB2874201D0012000E00020C0B20028F7
:1023E00009D014F5CC701AF0C5FA159015A904F6A9
:1023F00018601BF0BAF814F5D0701AF0BBFA070099
:1024000014F562601BF00CF8FFB2874201D0012086
:1024100000E00020C0B2002809D014F5D0701AF0F6
:10242000A9FA149014A914F562601BF09EF814F533
:10243000FE701AF0F5FF070004F628601AF0F0FFAE
:10244000874201D0012000E00020C0B2002805D062
:1024500014F5FE7104F628601BF048F814F50170BD
:102460001AF0DEFF070014F563601AF0D9FF874207
:1024700001D0012000E00020C0B2002805D014F5F2
:10248000017114F563601BF031F814F503701AF054
:10249000E3FFB0EE408AF0EE608A04F638601AF08E
:1024A000DBFF53EC182B51EC100B1AF079F801D02C
:1024B000012000E00020C0B2002805D014F503710F
:1024C00004F638601AF0FFFF14F505701BF020F8D1
:1024D000070014F564601BF01BF8874201D001204F
:1024E00000E00020C0B2002805D014F5057114F5F5
:1024F00064601BF071F914F507701AF091FF070082
:1025000004F648601AF08CFF874201D0012000E0F9
:102510000020C0B2002805D014F5077104F6486009
:102520001AF0E4FF14F55C701AF096FF41F6684764
:1025300053EC102B04EB0700D0E900011AF030F83F
:1025400001D0012000E00020C0B200280DD014F519
:102550005C701AF081FF04EB070080ED000B14F5AE
:102560005C7104F658601AF0AEFF14F560701AF052
:1025700057FF070014F566601AF052FF874201D03A
:10258000012000E00020C0B2002805D014F56071E1
:1025900014F566601AF0AAFF14F562701AF040FF95
:1025A000070004F668601AF03BFF874201D0012063
:1025B00000E00020C0B2002805D014F5627104F6D6
:1025C00068601AF093FF14F564701AF029FF070091
:1025D00014F567601AF024FF874201D0012000E063
:1025E0000020C0B2002805D014F5647114F56760AE
:1025F0001AF07CFF14F56A701AF038F9070004F637
:1026000088601AF033F9BFB280B2874201D001204E
:1026100000E00020C0B2002805D014F56A7104F66D
:1026200088601BF06BF814F56C701AF01FF9070046
:1026300014F569601AF01AF9BFB280B2874201D06E
:10264000012000E00020C0B2002805D014F56C7114
:1026500014F569601BF052F814F570701AF0FCFE66
:10266000B0EE408AF0EE608A14F56A601AF0F4FE6B
:1026700053EC182B51EC100B19F092FF01D00120F4
:1026800000E00020C0B2002805D014F5707114F5E8
:102690006A601AF018FF14F160001AF07CF9070064
:1026A00014F56B601AF077F9874201D0012000E041
:1026B0000020C0B2002805D014F1600114F56B6051
:1026C0001BF068F814F5C6701AF065F9070004F6F7
:1026D000BC601AF060F9874201D0012000E00020C0
:1026E000C0B2002805D014F5C67104F6BC601BF01A
:1026F00051F814F51E701AF04EF9070004F6D46074
:102700001AF049F9874201D0012000E00020C0B250
:10271000002805D014F51E7104F6D4601BF03AF8B9
:1027200014F572701AF0F4FE070004F648701AF0FF
:10273000EFFE874201D0012000E00020C0B2002857
:1027400005D014F5727104F648701BF045F814F5C5
:1027500074701AF0DDFE070014F575601AF0D8FEEB
:10276000874201D0012000E00020C0B2002805D03F
:1027700014F5747114F575601BF02EF814F576706D
:102780001AF0C6FE070004F658701AF0C1FE874220
:1027900001D0012000E00020C0B2002805D014F5CF
:1027A000767104F658701BF017F814F578701AF06B
:1027B00037FE070014F576601AF032FE874201D02A
:1027C000012000E00020C0B2002805D014F5787187
:1027D00014F576601AF08AFE14F57A701AF03CFE51
:1027E000B0EE408AF0EE608A04F668701AF034FEAB
:1027F00053EC182B51EC100B19F0D2FE01D0012034
:1028000000E00020C0B2002805D014F57A7104F66B
:1028100068701AF058FE14F521701AF0BCF8070021
:1028200014F56E601AF0B7F8874201D0012000E07D
:102830000020C0B2002805D014F5217114F56E6097
:102840001AF0A8FF14F544701AF0A5F8070004F672
:10285000F8601AF0A0F8874201D0012000E00020C3
:10286000C0B2002813D014F5447104F6F8601AF0D1
:1028700091FF14F544701AF08EF8002801D0012160
:1028800000E00021C9B204EB0B001AF0A2FF14F51E
:102890003B701AF080F8070004F6EC601AF07BF841
:1028A000874201D0012000E00020C0B2002805D0FE
:1028B00014F53B7104F6EC601AF06CFF14F57C70B3
:1028C0001AF0CAFDB0EE408AF0EE608A14F5776027
:1028D0001AF0C2FD53EC182B51EC100B19F060FEEE
:1028E00001D0012000E00020C0B2002805D014F57E
:1028F0007C7114F577601AF0E6FD14F52D701AF06E
:1029000039F8070014F571601AF034F8FFB2C0B25C
:10291000874201D0012000E00020C0B2002805D08D
:1029200014F52D7114F571601AF0FBFE14F54D705D
:102930001AF031F8070004F624701AF02CF88742D8
:1029400001D0012000E00020C0B2002805D014F51D
:102950004D7104F624701AF01DFF14F550701AF032
:102960001AF8070014F573601AF015F8874201D0C1
:10297000012000E00020C0B2002805D014F55071FD
:1029800014F573601AF006FF14F58F6019F0F2FF6A
:10299000814641F2340704EB070019F0EBFF5FFAC0
:1029A00089F9C0B2814501D0012000E00020C0B209
:1029B000002805D014F58F6104EB07001AF0B1FE72
:1029C00014F598601AF048FDB0EE408AF0EE608A87
:1029D00041F2142704EB07001AF03EFD53EC182BCC
:1029E00051EC100B19F0DCFD01D0012000E00020BB
:1029F000C0B2002824D014F5986104EB07001AF047
:102A000062FD14F598601AF027FD4FF4045704EBAB
:102A1000070080ED000B41F67000204410F0BFF875
:102A2000012801D1012000E00020C0B2002807D019
:102A300004EB070090ED000B04EB0B0012F0F9FA29
:102A400014F599601AF008FDB0EE408AF0EE608A45
:102A500041F21C2704EB07001AF0FEFC53EC182B84
:102A600051EC100B19F09CFD01D0012000E000207A
:102A7000C0B2002824D014F5996104EB07001AF0C5
:102A800022FD14F599601AF0E7FC42F2081704EBF6
:102A9000070080ED000B41F67000204410F07FF835
:102AA000002801D1012000E00020C0B2002807D09A
:102AB00004EB070090ED000B04EB0B0012F0B9FAE9
:102AC00014F53B7019F067FF070004F6EC6019F08D
:102AD00062FF874201D0012000E00020C0B2002840
:102AE00005D014F53B7104F6EC601AF053FE04F2C5
:102AF0007C701AF0B1FCB0EE408AF0EE608A41F2D0
:102B0000242704EB07001AF0A7FC53EC182B51EC18
:102B1000100B19F045FD01D0012000E00020C0B2EB
:102B200000280ED004F27C7104EB07001AF0CBFCF5
:102B300004F27C701AF090FC42F21010204480EDF8
:102B4000000B04F284701AF087FCB0EE408AF0EEBD
:102B5000608A41F22C2704EB07001AF07DFC53EC4D
:102B6000182B51EC100B19F01BFD01D0012000E0D7
:102B70000020C0B200280ED004F2847104EB0700DC
:102B80001AF0A1FC04F284701AF066FC42F21810EC
:102B9000204480ED000B04F28C701AF0B9FC8146E1
:102BA00041F2342704EB07001AF0B2FC814501D052
:102BB000012000E00020C0B200280CD004F28C718B
:102BC00004EB07001AF008FE04F28C701AF0A0FC67
:102BD00042F22011605004F294701AF03DFCB0EE05
:102BE000408AF0EE608A41F23C2704EB07001AF0BD
:102BF00033FC53EC182B51EC100B19F0D1FC01D025
:102C0000012000E00020C0B2002810D004F294712E
:102C100004EB07001AF057FC04F294701AF01CFC45
:102C200051EC100B1AF0EAFD42F22411605014F539
:102C30001F601AF011FCB0EE408AF0EE608A41F29B
:102C4000104704EB07001AF007FC53EC182B51EC6B
:102C5000100B19F0A5FC01D0012000E00020C0B24B
:102C6000002805D014F51F6104EB07001AF02BFCB7
:102C700014F5157019F08FFE070004F6C86019F0FE
:102C80008AFE874201D0012000E00020C0B2002867
:102C900011D014F5157104F6C8601AF07BFD14F517
:102CA000157019F078FE002801D0012000E0002006
:102CB00041F6A931605414F1CC001AF0CDFBB0EE0E
:102CC000408AF0EE608A41F2084704EB07001AF0F0
:102CD000C3FB53EC182B51EC100B19F061FC01D025
:102CE000012000E00020C0B2002805D014F1CC0182
:102CF00004EB07001AF0E7FB14F5537019F04BFED4
:102D0000070004F63C7019F046FE874201D001200E
:102D100000E00020C0B2002805D014F5537104F67D
:102D20003C701AF037FD42F6F010205C012809D003
:102D300043D303281AD00FD305282AD01FD306283F
:102D400031D03AE001208DF80E000DF10E0114F59E
:102D500056701AF074FB38E002208DF80D000DF16A
:102D60000D0114F556701AF06AFB2EE003208DF861
:102D70000C0003A914F556701AF061FB25E004203D
:102D80008DF80B000DF10B0114F556701AF057FB7E
:102D90001BE005208DF80A000DF10A0114F55670AC
:102DA0001AF04DFB11E006208DF809000DF1090124
:102DB00014F556701AF043FB07E000208DF8080068
:102DC00002A914F556701AF03AFB04F6887114F54E
:102DD0009D601DF0E9FC14F5796114F59E601DF00D
:102DE000E3FC04F6987114F59F601DF0DDFC14F50A
:102DF0007A6114F5A0601DF0D7FC04F6A87114F5F3
:102E0000A1601DF0D1FC14F57B6114F5A2601DF0EA
:102E1000CBFC04F6B87114F5A3601DF0C5FC14F5E5
:102E20007C6114F5A4601DF0BFFC04F6C87114F5B4
:102E3000A5601DF0B9FC14F57D6114F5A6601DF0C8
:102E4000B3FC04F6D87114F5A7601DF0ADFC14F5C1
:102E50007E6114F5A8601DF0A7FC04F6E87114F576
:102E6000A9601DF0BDFC42F2E060204413F032FC8A
:102E700042F6A010204413F02DFC04EB0B001DF0D3
:102E8000C9FC012801D1012000E00020C0B20028C7
:102E900005D0002114F52A701AF056FC04E0012137
:102EA00014F52A701AF050FC14F5477019F073FDF0
:102EB000012801D1012000E00020C0B2002807D085
:102EC000002114F547701AF03FFC20000DF0FCFDC6
:102ED00004F6FC001AF0A4FAB4F80E1A884201D0E5
:102EE000012000E00020C0B2002807D0B4F80E0A8C
:102EF000099009A904F6FC001AF037FB04F6041047
:102F00001AF08EFA070041F2243904EB09001AF096
:102F100087FA874201D0012000E00020C0B20028DB
:102F200005D004F6041104EB09001AF0DFFA42F6AA
:102F3000F81020440EF0E5FD41F6104020440EF05C
:102F4000AEFC089008A914F509701AF00EFB41F2C6
:102F50007070204419F05DF9C0B2002801D0012042
:102F600000E00020C0B2002814D041F29877E05D64
:102F7000002804D02068C0301DF02CFD03E020683C
:102F8000C0301DF030FDE05D002801D1012000E0DF
:102F90000020E05514F5E25019F03BF9C0B20028CA
:102FA00001D0012000E00020C0B200283AD041F654
:102FB0003840205C00280AD04FF4E0502158491CCA
:102FC000215014F5E05114F50B701AF0CEFA41F6C9
:102FD000B020205C022825D141F6084954F80900A8
:102FE000401C44F8090041F60C47E2590021E05921
:102FF000401E1DF0F2FEE05141F6104704EB0700C1
:103000000EF0B3FB04EB090114F50F701AF0ADFAE2
:1030100004EB07000EF041FC079007A914F51170AE
:103020001AF0A3FA41F6B020205C002809D002284B
:1030300001F0FC82C0F04081032801F09E8008F07E
:1030400019BA41F6B127E05D002805D0022800F04A
:10305000CE80C0F09A802DE11AF0A9F9DFF84C1C5F
:103060001CF0D7FE002114F5BD500FF03DFE41F6D7
:103070000809002104EB09000FF036FE012141F69A
:10308000700020440FF082FD002141F6C80020446A
:103090000FF07CFD002114F5C9500FF077FD0021E1
:1030A00004EB06000FF020FE002114F5CF500FF0C6
:1030B0001BFE002104EB08000FF016FE41F2085A37
:1030C00014F5045090ED000B04EB0A0011F0B1FF71
:1030D00004EB05001DF088FE04EB05000FF090FFE7
:1030E0009FEDC00B04EB050010F08CF804EB0A0018
:1030F0001DF07EFE41F6F84004EB000104EB0A00EF
:1031000011F098FB002114F5BD501AF033FB00219B
:1031100004EB09001AF02EFB002104EB06001AF064
:1031200029FB002114F5CF501AF024FB002104EBF9
:1031300008001AF01FFB002114F178001AF004FBBC
:1031400014F5DB5114F507701AF00FFA14F5BC50A2
:1031500018F0D6FF002114F524701AF0F5FA0020BB
:1031600041F670716054002114F52F701AF0ECFADA
:10317000002114F535701AF0E7FA002114F53870C3
:103180001AF0E2FA0120E05594E014F5BC5018F072
:10319000C4FFC0B2002801D0012000E00020C0B26E
:1031A000002823D01AF003F9DFF8005B29001CF097
:1031B00030FE1AF0FCF8DFF8F86A31001CF0C4FCAD
:1031C00029001CF026FE1AF0F2F8DFF8E81A1CF0CD
:1031D000BBFC29001CF01DFE1AF0E9F831001CF0C0
:1031E000B3FC29001CF015FE0220E05562E014F14A
:1031F000780019F0D0FB012801D1012000E0002067
:10320000C0B200283AD0002114F178001AF09CFADC
:10321000002114F184001AF097FA14F10C0019F04F
:10322000A9FBC0B2012804D01ED3032815D007D3B0
:103230001AE0012041F6B02160540020E05539E049
:1032400004F6B8301CF0F4FD1CF0AAFB022041F695
:10325000B02160540020E0552CE0032041F6B0215D
:1032600060540020E05525E000208DF807000DF1A6
:10327000070114F10C001AF0E2F81BE041F20855C6
:1032800004EB05001DF0C6FA012801D1012000E081
:103290000020C0B200280DD041F67840204441F60D
:1032A0007061214491ED000B80ED000B04EB0500F3
:1032B00010F0BEFA08F0DEB841F6D037E05D002825
:1032C00015D0022800F0E080C0F09080042800F0C3
:1032D000F483C0F0BC83062800F0A284C0F01B84F5
:1032E000082800F02F87C0F0998600F044BF1AF03C
:1032F0005EF8DFF8B89949461CF08BFD1AF057F8D4
:10330000DFF8ACA951461CF01FFC49461CF081FDBA
:103310001AF04DF8DFF8A0191CF016FC49461CF015
:1033200078FD1AF044F851461CF00EFC49461CF09A
:1033300070FD41F6D07904EB0900D0E9002314F5C3
:10334000BD500FF0EDFC04EB0900D0E9002341F67D
:10335000080020440FF0E4FC04EB0900D0E900234E
:1033600041F6700020440FF025FC04EB0900D0E981
:10337000002341F6C80020440FF01CFC04EB0900B8
:10338000D0E9002314F5C9500FF014FC04EB090038
:10339000D0E9002304EB06000FF0C2FC04EB0900A7
:1033A000D0E9002314F5CF500FF0BAFC04EB09006C
:1033B000D0E9002304EB08000FF0B2FC04EB090095
:1033C000D0E9002304EB050010F028F814F5707024
:1033D0001AF042F814F5DE5080ED000B0120E055A4
:1033E00000F0C9BE000000000000000041F20856D5
:1033F00004EB06001DF00EFA012801D1012000E0C7
:103400000020C0B200283DD041F6685004EB000116
:1034100004EB060011F00EFA012104EB060010F097
:10342000DBFAB0EE408AF0EE608A04EB05000FF0A4
:10343000E5FF050041F6B8302044D0E9002314F53B
:10344000DE50D0E9000118F0C9FF41EC130BB0EEDB
:10345000439AF0EE639A28001AF076F841EC120BCA
:10346000B0EE493AF0EE693A41F67840204490EDEA
:10347000001BB0EE480AF0EE680A200008F031FAAE
:103480000220E05500F077BE14F16C0019F083FAC9
:10349000012801D1012000E00020C0B2002814D092
:1034A000002114F16C001AF04FF90020E0550020C3
:1034B00041F6B021605400208DF806000DF10601A0
:1034C00014F10C0019F0BBFFC0E214F5AE7019F056
:1034D00062FA814614F5BD500FF00FFC814501D012
:1034E000012000E00020C0B2002808D014F5AE7022
:1034F00019F051FA010014F5BD500FF0F5FB14F569
:10350000B47019F048FA824641F6080904EB090044
:103510000FF0F3FB824501D0012000E00020C0B293
:10352000002808D014F5B47019F035FA010004EB46
:1035300009000FF0D9FB14F59C7019F02CFA8346A2
:1035400041F6700A04EB0A000FF029FB834501D015
:10355000012000E00020C0B2002828D014F59C70A3
:1035600019F019FA010004EB0A000FF00FFB14F533
:103570009C7019F010FA012801D1012000E0002010
:10358000C0B2002809D014F5045090ED000B41F2B0
:103590000850204411F04DFD09E042F2081020448B
:1035A00090ED000B41F20850204411F042FD14F15F
:1035B000E40019F0F0F9834641F6C80A04EB0A006A
:1035C0000FF0EDFA834501D0012000E00020C0B2E9
:1035D000002808D014F1E40019F0DDF9010004EB33
:1035E0000A000FF0D3FA14F1F00019F0D4F9824672
:1035F00014F5C9500FF0D3FA824501D0012000E044
:103600000020C0B2002808D014F1F00019F0C3F96E
:10361000010014F5C9500FF0B9FA14F1FC0019F0CB
:10362000BAF9824604EB06000FF067FB824501D031
:10363000012000E00020C0B2002808D014F1FC00F6
:1036400019F0A9F9010004EB06000FF04DFB14F589
:10365000847019F0A0F9824614F5CF500FF04DFB9D
:10366000824501D0012000E00020C0B2002808D02F
:1036700014F5847019F08FF9010014F5CF500FF094
:1036800033FB14F58A7019F086F9824604EB0800C2
:103690000FF033FB824501D0012000E00020C0B2D2
:1036A000002808D014F58A7019F075F9010004EBB0
:1036B00008000FF019FB14F5BD501DF09DFB41F6FD
:1036C000A93A14F80A10C0B2814201D0012000E0EA
:1036D0000020C0B2002805D014F80A1014F5BD501F
:1036E0001AF048F804EB09001DF086FB14F80A10E4
:1036F000C0B2814201D0012000E00020C0B2002809
:1037000005D014F80A1004EB09001AF033F804EBA2
:1037100006001DF071FB14F80A10C0B2814201D0FE
:10372000012000E00020C0B2002805D014F80A10E3
:1037300004EB06001AF01EF814F5CF501DF05CFBE8
:1037400014F80A10C0B2814201D0012000E000202C
:10375000C0B2002805D014F80A1014F5CF501AF0A2
:1037600009F804EB08001DF047FB14F80A10C0B27A
:10377000814201D0012000E00020C0B2002805D025
:1037800014F80A1004EB080019F0F4FF14F5D470D3
:1037900019F001F9060004EB05000FF07AFCC0B245
:1037A000864201D0012000E00020C0B200281ED0D7
:1037B00014F5D47019F0EFF8002801D0012000E0D2
:1037C0000020C0B2002809D004EB05000FF018FC5F
:1037D00041F2085020441DF012FB08E004EB050004
:1037E0000FF032FC41F2085020441DF008FB14F5A4
:1037F000DE7019F08DFE060004EB05000FF0FEFDF3
:10380000864201D0012000E00020C0B2002836D05E
:1038100014F5DE7019F07CFE19F096FE41EC100BE9
:1038200004EB05000FF0EEFC41F2085020441DF0BF
:10383000E6FA04EB05000FF08DFD8DEDEC0BECA925
:1038400014F5DA7019F032FE14F5DE7019F060FE2E
:10385000060004EB05000FF0D1FD864201D00120E7
:1038600000E00020C0B2002809D004EB05000FF0F2
:10387000C5FD139013A914F5DE7019F07EFF14F541
:10388000DA7019F0E9FDB0EE408AF0EE608A04EBE0
:1038900005000FF05FFD53EC182B51EC100B18F0E6
:1038A0007FFE01D0012000E00020C0B200283AD005
:1038B00014F5DA7019F0D0FD04EB05000FF002FCEE
:1038C00041F2085020441DF09AFA04EB05000FF075
:1038D00095FD129012A914F5DE7019F04EFF14F543
:1038E000DA7019F0B9FDB0EE408AF0EE608A04EBB0
:1038F00005000FF02FFD53EC182B51EC100B18F0B6
:103900004FFE01D0012000E00020C0B200280AD004
:1039100004EB05000FF01EFD8DEDEA0BEAA914F58E
:10392000DA7019F0C3FD14F5CC7019F023F8060015
:1039300004EB05000FF06AFDF6B2C0B2864201D07A
:10394000012000E00020C0B200280ED014F5CC7099
:1039500019F010F80100C9B204EB05000FF0C6FC25
:1039600041F2085020441DF04AFA41F69851605C3B
:1039700000280AD00020605441F6685004EB000192
:1039800041F20850204410F055FF14F5217019F051
:1039900002F8002801D0012000E00020C0B2002879
:1039A00005D041F2085020441DF02DFA04E041F208
:1039B000085020441DF01CFA14F53E7018F0EBFF7F
:1039C000012801D1012000E00020C0B2002809D068
:1039D00041F2085020441DF01AFA002114F53E70FF
:1039E00019F0B2FE41F2085504EB05001CF012FF7D
:1039F000012801D1012000E00020C0B2002803D03E
:103A000004EB05000FF014FF14F51B7018F0C3FF52
:103A1000012801D1012000E00020C0B2002807D019
:103A2000002114F51B7019F08FFE0320E0550DE006
:103A300014F52F7018F0AFFF012801D1012000E02C
:103A40000020C0B2002801D00520E05593E341F2E8
:103A5000085504EB05001CF0DDFE012801D1012012
:103A600000E00020C0B2002826D014F5217018F024
:103A700092FF002801D0012000E00020C0B2002801
:103A800004D004EB05001DF0BEF903E004EB0500D3
:103A90001DF0B9F9012041F6B421605014F11C0069
:103AA00018F068FFC0B241F6B821605004EB050081
:103AB0000FF0BEFE0420E0555DE341F2085504EB33
:103AC00005001CF0A7FE012801D1012000E0002024
:103AD000C0B200281ED041F6B420215841F6B822C9
:103AE000A25891420CD22158491C215020588DF8DF
:103AF00005000DF1050114F1A00019F0A0FC05E08E
:103B000004EB05001DF074F90220E05504EB0500FC
:103B10000FF08EFE2FE3012041F67071605414F512
:103B2000816019F099FC14F5FC5080ED000B14F540
:103B3000826019F091FC41F68870204480ED000B02
:103B400014F5836019F088FC41F69070204480EDF4
:103B5000000B14F5856019F07FFC14F5FE5080ED24
:103B6000000B14F5866019F077FC41F6C87020440C
:103B700080ED000B14F5896019F06EFC41F6D870E9
:103B8000204480ED000B012141F2085020440FF049
:103B900023FF41F6987604EB060080ED000B14F548
:103BA000707019F059FC4FF4DE5804EB080080EDFA
:103BB000000B04EB05000FF021FC050041F6B830C6
:103BC0002044D0E9002304EB0800D0E9000118F0FC
:103BD00005FC41EC130BB0EE438AF0EE638A28003B
:103BE00019F0B2FC41EC120BB0EE483AF0EE683A34
:103BF00041F67840204490ED001B04EB060090ED68
:103C0000000B200007F06DFE19F0D1FBDFF8141A4D
:103C10001BF09AFF25491CF0FCF80620E055AAE2AB
:103C200014F16C0018F0B7FE012801D1012000E06A
:103C30000020C0B200281CD0002114F16C0019F043
:103C400083FD0020E05519F0B2FBDFF8DC191BF012
:103C50007BFF16491CF0DDF8002041F6B0216054CE
:103C600000208DF8040001A914F10C0019F0E7FB05
:103C7000D3E114F52F7018F08EFE002801D1012039
:103C800000E00020C0B2002818D00220E05500203B
:103C900041F67071605419F08AFBDFF88C191BF043
:103CA00053FF02491CF0B5F8B7E100BF09A90608A7
:103CB000D4BB0608F8BB06081CBC060814F5DA706D
:103CC00019F0CAFBB0EE408AF0EE608A04EB050002
:103CD0000FF040FB53EC182B51EC100B18F060FC6C
:103CE00001D0012000E00020C0B200280AD004EB7F
:103CF00005000FF02FFB8DEDE80BE8A914F5DA7045
:103D000019F0D4FB14F5DE7019F002FC060004EB88
:103D100005000FF073FB864201D0012000E0002077
:103D2000C0B2002809D004EB05000FF067FB11902A
:103D300011A914F5DE7019F020FD41F69851605C70
:103D400000284DD00020605441F2085641F66850DA
:103D500004EB000104EB060010F06CFD012104EB04
:103D600006000FF039FE41F6987604EB060080ED70
:103D7000000B14F5707019F06FFB4FF4DE5904EB73
:103D8000090080ED000B04EB05000FF037FB8046C7
:103D900041F6B8302044D0E9000102000B0004EBEA
:103DA0000900D0E9000118F019FB41EC130BB0EE4B
:103DB000438AF0EE638A404619F0C6FB41EC120BD1
:103DC000B0EE483AF0EE683A41F67840204490ED83
:103DD000001B04EB060090ED000B200007F081FDB6
:103DE00041F66151605C002844D0002060540021FD
:103DF00041F2085020440FF0EFFD41F6987604EBB5
:103E0000060080ED000B14F5707019F025FB4FF4DF
:103E1000DE5904EB090080ED000B04EB05000FF008
:103E2000EDFA804641F6B8302044D0E900010200A6
:103E30000B0004EB0900D0E9000118F0CFFA41ECC7
:103E4000130BB0EE438AF0EE638A404619F07CFB18
:103E500041EC120BB0EE483AF0EE683A41F6784089
:103E6000204490ED001B04EB060090ED000B2000B9
:103E700007F037FD14F5357018F08DFD012801D1DC
:103E8000012000E00020C0B2002810D0002114F56D
:103E9000357019F059FC19F08AFADFF8881C1BF00C
:103EA00053FEDFF8841C1BF0B4FF0720E05541F2FD
:103EB000085604EB06001CF0ADFC012801D10120DE
:103EC00000E00020C0B2002800F0A78004EB06004C
:103ED0000FF0AEFC41F67840204490ED000B14F555
:103EE000FD501CF01AFC8DED1C0B1CA914F587600D
:103EF00019F0DCFA9DED1C0B14F5F7501CF074F969
:103F0000B0EE408AF0EE608AB0EE480AF0EE680A41
:103F100004EB05000FF0D6F8B0EE480AF0EE680AA0
:103F200041F6E87020441CF0B9FBB0EE409AF0EE88
:103F3000609AB0EE490AF0EE690A200007F010FE20
:103F40008DED260B26A914F5886019F0AFFA41F61D
:103F5000287004EB000114F5846019F0A7FAB0EEA4
:103F6000480AF0EE680A14F500501CF057FF14F5EB
:103F700000501CF0CFFF200007F0F2FD8DED240B68
:103F800024A914F58A6019F091FA14F500501CF078
:103F9000CBFF200007F0E4FD8DED220B22A914F5E4
:103FA0008B6019F083FA14F500501CF0B3FF8DED0F
:103FB000200B20A914F58C6019F078FA14F5005044
:103FC0001CF0B2FF8DED1E0B1EA914F58D6019F0CB
:103FD0006DFA14F500501CF0A7FFB0EE40AAF0EE09
:103FE00060AA14F5916019F037FA51EC1A0B53ECF2
:103FF000102B1CF0C9FF01D2012000E00020C0B24C
:10400000002805D0012114F5387019F09DFB04E05B
:10401000002114F5387019F097FBACE004EB0500B3
:104020000FF03CFAC0B2002801D0012000E00020CF
:10403000C0B2002800F085809FEDC90B04EB05009D
:104040000FF0E0F8012141F2085020440FF0C4FCC9
:1040500041F6987604EB060080ED000B14F57070C5
:1040600019F0FAF94FF4DE5804EB080080ED000B6C
:1040700004EB05000FF0C2F9050041F6B83020440A
:10408000D0E9002304EB0800D0E9000118F0A6F9FC
:1040900041EC130BB0EE438AF0EE638A280019F06E
:1040A00053FA41EC120BB0EE483AF0EE683A41F6A2
:1040B0007840204490ED001B04EB060090ED000BCF
:1040C000200007F00EFC41F6287020440022002357
:1040D000C0E9002341F61070204400220023C0E90B
:1040E000002341F60870204400220023C0E9002389
:1040F00041F61870204400220023C0E9002341F655
:10410000A870204400220023C0E9002341F6B070CB
:10411000204400220023C0E9002341F6E870204437
:1041200000220023C0E9002341F6F0702044002261
:104130000023C0E9002314F500501CF03CFF0820C8
:10414000E05518E004EB05000FF0A8F9C0B2002814
:1041500001D0012000E00020C0B200280BD019F0EF
:1041600026F9DFF8781D1BF0EFFCDFF8BC191BF017
:1041700050FE0620E05507F07DB941F6D137E05DED
:10418000002816D0022800F0988073D3042800F08D
:104190002581C0F0E980062800F07781C0F05C81BD
:1041A000082800F0D181C0F09081092800F0EF814B
:1041B000FFE119F0FCF8DFF8705929001BF029FE27
:1041C00019F0F5F8DFF8086D31001BF0BDFC29008F
:1041D0001BF01FFE19F0EBF8DFF8E41C1BF0B4FC39
:1041E00029001BF016FE19F0E2F831001BF0ACFCC0
:1041F00029001BF00EFE14F5D07018F0BBFB4FF435
:10420000D652C0B264214843A050A05803280AD215
:104210000320A050A0588DF803000DF1030114F500
:10422000D07019F00CF914F11C0018F0A3FB41F642
:104230009831605414F5037019F00EF941F6D83036
:10424000204480ED000B14F5077019F0E9F84FF4E5
:10425000DB5160506058109010A815F0DFFBCDE9DD
:10426000E601E6A941F6E830204417F03EFF0120C0
:10427000E0559EE120001CF0ADFEC0B2002801D048
:10428000012000E00020C0B2002815D0012114F563
:10429000BD500EF029FD012104EB06000EF024FDB7
:1042A000002104EB08000EF01FFD002114F5C95099
:1042B0000EF06CFC0220E0557BE120001CF08AFE31
:1042C000C0B2002801D0012000E00020C0B20028C8
:1042D00045D0002014F5DF510870002041F6B421CC
:1042E000605041F6C82504EB050041F6D831214461
:1042F00091ED000B80ED000B4FF4D656A05940080D
:104300001CF0AEFE02000B0004EB0500D0E900013A
:104310001CF0B6FE04EB0502C2E9000119F047F8F3
:10432000DFF8A01B1BF010FCA1591BF008FD19F0D1
:104330003EF8DFF8F46731001BF06BFD19F037F839
:10434000DFF8841B1BF000FC04EB050191ED000B72
:104350001CF007FF31001BF05CFD0320E05528E155
:10436000000000000000000004EB05000FF096F8CC
:10437000C0B2002801D0012000E00020C0B2002817
:104380002BD041F6C820204490ED000B04EB050033
:104390000EF038FF41F6E830204417F0B1FE19F076
:1043A00006F8DFF8845729001BF033FDDFF81C1BEB
:1043B0001BF0CAFB060014F5077019F031F8010074
:1043C00030001BF0BCFC18F0F2FF95A11BF0BCFB09
:1043D00029001BF01EFD0420E055EAE041F6E83517
:1043E00004EB050017F099FEC0B2002801D00120AF
:1043F00000E00020C0B200281BD004EB050017F03D
:1044000089FE41F69851605C00280AD00020605473
:1044100041F6685004EB000141F20850204410F0CE
:1044200009FA41F2085020441CF0EDFC0620E0554A
:1044300011E041F2085504EB05001CF0EBF90128EE
:1044400001D1012000E00020C0B2002803D004EB1D
:1044500005000FF0EDF9ACE004EB05000FF01EF8DD
:10446000C0B2002801D0012000E00020C0B2002826
:104470000AD041F6C820204490ED000B04EB050063
:104480000EF0C0FE0620E05593E004EB05000FF0AF
:1044900005F8C0B200280CD041F2085020441CF0AE
:1044A000B9F9012801D0012000E0002090F00100BE
:1044B00000E00020C0B2002806D041F2085020449D
:1044C0000FF0B6F90720E05573E041F208502044A0
:1044D0001CF0A0F9012801D1012000E00020C0B2A9
:1044E000002830D04FF4DF50215C491C41F698324F
:1044F000A25C914205DA215C491C21540620E0555A
:1045000021E00021215441F6B4202158491C14F522
:10451000D6521268914214D22158491C215041F6BA
:10452000C82504EB0500D0E900230020DFF8941D26
:104530001CF08AFE04EB0502C2E900010520E055EB
:1045400001E00820E05534E020001CF043FDC0B23B
:10455000002801D0012000E00020C0B2002815D0C2
:10456000002114F5BD500EF0BFFB002104EB060046
:104570000EF0BAFB002104EB08000EF0B5FB0021A1
:1045800014F5C9500EF002FB0920E05511E020009F
:104590001CF020FDC0B2002801D0012000E0002066
:1045A000C0B2002805D0002041F6B02160540020A0
:1045B000E05514F16C0018F0EEF9012801D101204A
:1045C00000E00020C0B2002827D018F0F0FEDFF88D
:1045D00000191BF0B9FADFF8505529001BF019FC3F
:1045E00018F0E5FEDFF8E01C1BF0AEFA29001BF026
:1045F00010FC002114F16C0019F0A6F80020E05521
:10460000002041F6B021605400208DF802000DF129
:10461000020114F10C0018F012FF06F02BBF00BFCE
:1046200020630000301A0708381A070841F6B22044
:10463000205C002800F09680022800F00E84C0F074
:10464000DB83042800F0B384C0F06484062800F003
:104650005785C0F0FA84082800F08186C0F066868D
:104660000A2800F0DC87C0F0C2870C2801F0908097
:10467000C1F069800E2801F08781C1F02D811028DA
:1046800001F0AD81C1F09881122801F06A81C1F07A
:104690004C81142801F0DE84C1F0D782162802F084
:1046A0000780C1F0ED87182802F00381C2F06C800A
:1046B0001A2802F09781C2F014811C2802F02A8384
:1046C000C2F0B7821E2802F0A484C2F06D842028B4
:1046D00002F08285C2F0E184222802F0AE85C2F0A9
:1046E0009485242803F0AD82C3F01380262803F0BC
:1046F000DD82C3F0C282282803F0F083C3F0DC829D
:104700002A2803F01F87C3F0A5862C2803F0F98719
:10471000C3F03D872E2804F0A881C4F0888030289B
:1047200004F02C84C4F06F83322804F06484C4F055
:104730004E84342804F0A784C4F08C84362804F016
:104740008D85C4F0AB84382804F06787C4F03287C5
:104750003A2806F0B785C4F0B1873B2806F02986D1
:1047600006F03BBE18F023FEDFF8BC7339001BF0E7
:1047700050FB18F01CFEDFF858171BF0E5F9390064
:104780001BF047FB18F013FEDFF8201E1BF0DCF9CE
:1047900039001BF03EFB18F00AFEDFF834171BF05F
:1047A000D3F939001BF035FB18F001FEDFF8001ECD
:1047B0001CF007FE14F1B40018F04EFE41F6103064
:1047C000204480ED000B14F1BC0018F045FE41F6CA
:1047D0000830204480ED000B002014F5D8510870FB
:1047E00014F5FE7018F01CFE0F900FA817F0EEFBEA
:1047F00041F6503904EB0902C2E9000114F5787062
:1048000018F00EFE0E900EA817F0E0FB41F658329D
:104810002244C2E9000104EB0900D0E9002304EBC3
:1048200005000EF0FBFD04EB05001CF0D4FD14F5B3
:10483000017018F0F5FD0D900DA817F0C7FB41F6BB
:10484000483904EB0902C2E9000104EB0900D0E990
:10485000002314F5BD500EF063FA41F6080A04EB8C
:104860000900D0E9002304EB0A000EF059FA04EB2A
:104870000900D0E9002341F6700020440EF09AF9B7
:1048800004EB0900D0E9002341F6C80020440EF0F3
:1048900091F904EB0900D0E9002314F5C9500EF09A
:1048A00089F904EB0900D0E9002304EB06000EF0BF
:1048B00037FA04EB0900D0E9002314F5CF500EF0CD
:1048C0002FFA04EB0900D0E9002304EB08000EF0F6
:1048D00027FA14F5157018F05EF8002801D00120B1
:1048E00000E0002041F6A93B04F80B0014F80B107F
:1048F00004F6C86018F028FF14F80B00002818D040
:10490000012114F5BD5018F035FF012104EB0A0018
:1049100018F030FF012104EB060018F02BFF0121F5
:1049200014F5CF5018F026FF012104EB080018F011
:1049300021FF04EB090141F6C860204417F0D5FBC4
:1049400014F5D07018F016F8C0B214F5D6510860FE
:1049500014F5727018F0DCFD41F6C426A05114F570
:10496000747018F0D5FD41F6B041605014F57670C2
:1049700018F0CEFD41F6B441605014F5727018F095
:10498000C7FDA159814201D0012000E00020C0B242
:1049900000280BD004EB060114F5727018F0EDFE40
:1049A00004EB060104F6487018F0E7FE14F51E70DB
:1049B00017F0F1FF002801D0012000E0002041F6AF
:1049C0009841605442F2E800204400220023C0E9EC
:1049D000002341F69C3020441CF001FD41F6683074
:1049E00020441CF017FD41F6743020441CF012FDE9
:1049F00014F11C0017F0BEFF41F69836A055A05DDB
:104A0000022826DB04EB060114F1A00018F017FDC4
:104A100018F0CDFCDFF8B88441461BF095F839005A
:104A20001BF0F7F918F0C3FCDFF81C1E1BF08CF824
:104A300018F0BDFCA15D1CF008FD39001BF0E9F980
:104A400018F0B5FC41461BF07FF839001BF0E1F986
:104A500008E001208DF801000DF1010114F1A00022
:104A600018F0EDFC14F1600017F095FF002801D05C
:104A7000012000E0002041F6A8316054615C14F18F
:104A8000600018F061FE41F2085604EB06001CF0CD
:104A900060FD14F5ED5104EB06000FF0CBFE18F0AD
:104AA00086FCDFF8101E1BF04FF839001BF0B1F93F
:104AB00014F5077018F0B4FC4FF4DB5844F8080004
:104AC0004FF47A700C900CA817F080FACDE9E4014D
:104AD000E4A941F6E830204417F007FB002014F564
:104AE000E0510860002041F6084160500020069027
:104AF00006A914F50F7018F038FD41F6104604EBC6
:104B000006000CF0ECFD54F8081004EB06000CF065
:104B100023FE14F5C67017F03EFF002806D00120D2
:104B200005E000BFC80D070809A90608002041F6E6
:104B30005041605441F68840204400220023C0E9DF
:104B4000002341F69040204400220023C0E90023C6
:104B500041F6BC4020441CF000FD002041F6AC4171
:104B60006050002041F6D841605414F57A7018F076
:104B700073FC14F5E75080ED000B14F57C7018F011
:104B80006BFC41F6E840204480ED000B41F6D82054
:104B9000204400220023C0E9002341F6083841F6F2
:104BA000103A04EB080090ED001B04EB0A0090EDB6
:104BB000000B12F06FF84FF4D75904EB090080EDA9
:104BC000000B04EB050018F045FD04EB090090ED27
:104BD000008B51EC180B31F0004141EC110B41F608
:104BE000F02551EC100B53EC112B1CF049FA41EC61
:104BF000120B9FEDB81B04EB050090ED000B1CF0B1
:104C0000C7FC04EB050080ED000B14F51F6018F0E5
:104C100023FC42F2281504EB050080ED000B18F090
:104C2000C6FBDFF8941C1AF08FFF18F0C0FBDFF80A
:104C30008C1C1CF0C6FBDFF878191CF0C2FB814607
:104C40000821F0A818F0D0FBDDE9F001CDE9E20180
:104C5000E2A9484618F0D4FB18F0A9FB04EB0501C3
:104C600091ED000B1CF07DFA39001BF0D2F8012108
:104C700042F2301020441CF0B7FC14F5537017F0CA
:104C80008AFE002801D0012000E00020C0B20028E8
:104C900036D018F08CFBDFF8281C1AF055FF3900CD
:104CA0001BF0B7F814F1CC0018F0D6FB51EC100B48
:104CB00004EB0A02D2E900231CF066F912D314F1C6
:104CC000CC0018F0C9FB51EC100B04EB0802D2E940
:104CD00000231CF059F901D3012000E0002090F0DE
:104CE000010000E00120C0B2002804D0012041F6FC
:104CF000BC21605419E0022041F6BC21605414E04C
:104D000018F055FBDFF8BC1B1AF01EFF39001BF032
:104D100080F814F52D7017F02DFE0100C9B22000A7
:104D20000CF0AEFC41F6BC21605418F040FBDFF8FB
:104D3000981B1AF009FF41F6BC25615D1CF085FB4C
:104D4000605D002806D001280ED0022816D0042865
:104D50001ED027E018F02BFBDFF8741B1AF0F4FECE
:104D600039001BF056F826E018F021FBDFF8641B31
:104D70001AF0EAFE39001BF04CF81CE018F017FBA3
:104D8000DFF8241E1AF0E0FE39001BF042F812E0B2
:104D900018F00DFBDFF8141E1AF0D6FE39001BF0D8
:104DA00038F808E018F003FBDFF8041E1AF0CCFE18
:104DB00039001BF02EF842F2600020441CF01AFC6F
:104DC00042F6F01001212154215C04EB06000CF0A6
:104DD00068FD142104EB06000CF0D8FD002041F61C
:104DE000F0416054002041F6F1416054012041F649
:104DF000B221605406F0F1BA20001CF0EBF8C0B20A
:104E0000002801D0012000E00020C0B2002822D0FC
:104E100041F6A830205C00280FD0002141F6700038
:104E200020440DF0B3FE42F20810204490ED000B38
:104E300041F20850204410F0FCF8002104EB080077
:104E40000DF052FF002114F5C9500DF09FFE022015
:104E500041F6B221605406F0C0BA20001CF0BAF846
:104E6000C0B2002801D0012000E00020C0B200281C
:104E70004ED0012041F63841605414F5E25017F04D
:104E8000C0F914F5D8500078002802D0012827D0A6
:104E90003AE018F08CFADFF81C1D1AF055FEDFF826
:104EA000181D1AF0B6FF012141F6080020440DF04C
:104EB0001BFF012114F5CF500DF016FF24E000BFB9
:104EC00040BC06080C050708A8EE0608401A0708AB
:104ED000D4BB06080000000000000000D40D070845
:104EE00018F065FADFF8301E1AF02EFEDFF8C81C45
:104EF0001AF08FFF012114F5BD500DF0F5FE0121D0
:104F000004EB06000DF0F0FE032041F6B2216054E0
:104F100006F063BA20001CF05DF8C0B2002801D092
:104F2000012000E00020C0B200283ED041F6C86059
:104F3000204417F0E5F814F5017018F071FA00EE4E
:104F4000100AB8EE400A10EE100A1CF071FBDFF8F0
:104F5000CC2DDFF8CC3D17F041FA1CF08DFB08EEAC
:104F6000100A18F024FA05000221F0A818F03CFA03
:104F7000DDE9F001CDE9E001E0A9280018F040FAF0
:104F800018F015FADFF8301E1AF0DEFDB0EE480A10
:104F90001CF0A6FBCAA11AF0D7FDDFF81C1C1AF002
:104FA00038FF042041F6B221605406F016BA41F6EB
:104FB000C860204417F0B1F8C0B2002801D0012029
:104FC00000E00020C0B200283DD018F0F0F9DFF872
:104FD000EC1D1AF0B9FDDFF8E01B1AF01AFF41F6DC
:104FE000BC20215C012902D0205C042804D10520CA
:104FF00041F6B221605426E041F69C3020441CF07A
:10500000E0FB00281BD114F5D8500078002816D1F9
:1050100042F6F81020441CF0E4FB002801D00120E7
:1050200000E00020C0B2002804D00B2041F6B221DD
:10503000605408E01B2041F6B221605403E01E20BA
:1050400041F6B221605406F0C8B904EB05000EF039
:1050500025FAC0B2002801D0012000E00020C0B233
:1050600000284BD014F5D8500078002802D0012831
:1050700011D029E041F60830204490ED001B41F6A4
:105080001030204490ED000B11F004FE14F5D750C1
:1050900080ED000B18E041F6BC4704EB07001CF064
:1050A000A2FB0600761E310004EB07001CF0ABFBF0
:1050B00090ED060B1CF0B6FB51EC100B91F000418B
:1050C00014F5D752C2E9000141F658302044D0E926
:1050D000002304EB05000EF0A1F914F5D75090ED74
:1050E000000B04EB05000EF08DF841F2085020444F
:1050F0001CF02FFA062041F6B221605406F06DB97B
:1051000004EB05000EF0CAF9C0B200280CD041F241
:10511000085020441BF07EFB012801D0012000E054
:10512000002090F0010000E00020C0B2002800F054
:10513000FB8041F6305004EB00010DF5FC600EF0F1
:10514000BDFA01208DF8010841F208550DF5FC610A
:1051500004EB05000FF06EFB14F5806018F07CF98D
:1051600041F6787704EB070080ED000B14F56A70C8
:1051700017F07CFB41F67271605214F56C7017F0F9
:1051800075FB41F67471605214F5507017F003FC12
:10519000002801D0012000E0002042F2B00160545C
:1051A000002104EB05000EF0C1FBB0EE408AF0EEEA
:1051B000608A04EB0700D0E9002351EC180B17F0CC
:1051C0000DF91CF063FB8246CDF8E4A70DF5FC61F8
:1051D00004EB05000FF02EFB00220DF5FC6104EB43
:1051E00005000FF061FB42F2F800DDF8E4172150F2
:1051F00042F2F00620581BF033FF53EC182B17F047
:10520000DFF904EB0602C2E9000104EB0700D0E974
:10521000000104EB0602D2E900231BF031FFCDE9C7
:105220001A0118F0C4F8DFF8E81D1AF08DFC18F028
:10523000BEF8DFF8846931001AF0EBFD0DF5FC6271
:10524000012104EB05000FF05FFC18F0B0F8DFF867
:10525000C41D1AF079FC18F0AAF8DFF854934946F7
:105260001CF0AFF8DFF8548641461CF0AAF804EBB6
:10527000070191ED000B1BF074FF18F098F8CDA713
:1052800039001AF061FC31001AF0C3FDDDE91A01A2
:10529000002200231BF078FE18D818F088F8DFF8F9
:1052A000781D1AF051FC31001AF0B3FD04EB050033
:1052B0000EF0BEFA082041F6B221605434E000BF7F
:1052C000206300000000F03F64BC06081AA81CF030
:1052D000F1FACDE9DE0141F6C865DEA904EB05006F
:1052E00016F003FF04EB050016F00AFF18F05FF854
:1052F000DFF8281D1AF028FC18F059F849461CF070
:1053000060F841461CF05DF89DED1A0B1BF029FF7B
:1053100018F04DF839001AF017FC31001AF079FD39
:10532000072041F6B221605406F057B841F6C86034
:10533000204416F0F2FEC0B2002801D0012000E0A7
:105340000020C0B2002808D041F2085020440EF0DE
:105350006FFA082041F6B221605406F03EB841F2DF
:10536000085604EB06001BF055FA012801D1012074
:1053700000E00020C0B2002800F0378140F668410C
:10538000694404EB06000FF029FE41F6784804EB6F
:1053900008004DF804CD0DF5406C9CED1B0B5DF83D
:1053A00004CB80ED000B42F2E80904EB09004DF854
:1053B00004CD0DF5406C9CED1D0B5DF804CB80ED2C
:1053C000000B17F0F4FF7A491BF0FBFFDFF8EC1439
:1053D0001BF0F7FF06000021F0A818F005F8DDE942
:1053E000F001CDE9DC01DCA9300018F009F817F074
:1053F000DEFFDFF82C1C1AF0A7FB17F0D8FF4FF4E4
:10540000D75604EB060191ED000B1BF0AAFEDFF866
:10541000A87739001AF0FDFC17F0C9FF8246072172
:10542000F0A817F0E1FFDDE9F001CDE9DA01DAA932
:10543000504617F0E5FF17F0BAFFDFF8E81B1AF047
:1054400083FB17F0B4FF04EB080191ED000B1BF098
:1054500088FE17F0ACFFCDA11AF076FB39001AF0E8
:10546000D8FC17F0A4FFDFF8C01B1AF06DFB17F093
:105470009EFF824604EB0900D0E900230020DFF8FC
:10548000AC1B16F0ABFF41EC100B50461BF069FE55
:1054900017F08DFFDFF8981B1AF056FB39001AF051
:1054A000B8FC17F084FFDFF88C1B1AF04DFB17F0E7
:1054B0007EFFDDF8901C1AF042FC17F078FF3900EF
:1054C0001AF0A7FC5FF000099DF8B80C002810D076
:1054D0000120814617F06BFFDFF85C1B1AF034FBEC
:1054E00017F065FFDFF8541B1AF02EFB39001AF095
:1054F00090FC42F2B000205C002862D04846C0B266
:1055000000285ED142F28800205C002854D004EBD1
:10551000060090ED001B04EB080090ED000B42F23A
:10552000600020441CF0E8F904EB0800D0E9000119
:10553000002200231CF0F4F914D241F6B8302044C4
:10554000D0E900010022DFF8F83A17F039F804EB4F
:105550000602D2E900231BF077FE04EB0602C2E943
:10556000000115E041F6B8302044D0E900010022E6
:10557000DFF8CC3A17F024F802000B0004EB060029
:10558000D0E900011BF07CFD04EB0602C2E900013A
:1055900004EB060090ED000B04EB05000DF032FE6D
:1055A000092041F6B22160541FE000BF88BC060804
:1055B000A3FD060820F10000132041F6B22160543B
:1055C00013E041F6B8302044D0E9002314F5DE5052
:1055D000D0E9000116F002FF41F6C8322244C2E9C8
:1055E0000001132041F6B221605405F0F6BE04EB31
:1055F00005000DF053FFC0B2002801D0012000E0EB
:105600000020C0B2002808D041F2085020440EF01B
:105610000FF90A2041F6B221605405F0DEBE41F2D6
:10562000085504EB05001BF0F5F8012801D1012015
:1056300000E00020C0B2002800F083800DF5416139
:1056400004EB05000FF0CAFC41F6784504EB0500B9
:105650004DF804CD0DF5406C9CED050B5DF804CBC9
:1056600080ED000B17F0A3FEDFF8D8191BF0A9FEA0
:1056700092491BF0A6FE06000021F0A817F0B4FE28
:10568000DDE9F001CDE9D801D8A9300017F0B8FE66
:1056900017F08DFEDFF8B0191AF056FA17F087FEF2
:1056A0004FF4D75604EB060191ED000B1BF059FDAA
:1056B000DFF8047539001AF0ACFB17F078FE80466D
:1056C0000721F0A817F090FEDDE9F001CDE9D60141
:1056D000D6A9404617F094FE17F069FEDFF86C1962
:1056E0001AF032FA17F063FE04EB050191ED000B9E
:1056F0001BF037FD17F05BFE24A11AF025FA3900E4
:105700001AF087FB42F2600704EB060090ED001BE5
:1057100004EB050090ED000B04EB07001CF0ECF827
:1057200004EB07001CF016F941F6C830204414F5CC
:10573000025191ED000B80ED000B132041F6B221D8
:10574000605405F04ABE41F2085504EB05001BF019
:1057500061F8012801D1012000E00020C0B200283A
:1057600011D017F024FEDFF8E8181AF0EDF9DFF891
:1057700048141AF04EFB04EB05000EF059F80C200B
:1057800041F6B221605405F028BE00BF20C20000DF
:1057900041F2085504EB05001BF03CF8012801D14B
:1057A000012000E00020C0B2002800F0808040F618
:1057B000B831694404EB05000FF010FC4DF804CD3E
:1057C0000DF5006C9CEDEF8B5DF804CB17F0EFFD51
:1057D00005000721F0A817F007FEDDE9F001CDE98B
:1057E000D401D4A9280017F00BFE17F0E0FDDFF874
:1057F0005C181AF0A9F917F0DAFDB0EE480AF0EEDD
:10580000680A1BF0AEFC17F0D2FD30A11AF09CF92B
:10581000DFF8A45329001AF0FCFA41F6BC20215C01
:10582000012902D0205C042810D117F0C0FDDFF858
:10583000381E1AF089F929001AF0EBFA0D2041F60A
:10584000B221605433E000BFBCEE06089DF8080C9E
:10585000002813D017F0ABFDDFF8101E1AF074F912
:1058600017F0A5FDDFF8081E1AF06EF929001AF0EE
:10587000D0FA0D2041F6B221605418E017F097FDE0
:10588000DFF8F01D1AF060F917F091FDDFF8E81D60
:105890001AF05AF917F08BFDDFF8E01D1AF054F9F1
:1058A00029001AF0B6FA1B2041F6B221605405F027
:1058B00094BD00BF68B10608ACBC06084DEC0608F4
:1058C000E0D40608FCD40608E00D070820C200005A
:1058D000EC0D0708481A070804EB05001BF07BFDD8
:1058E00041F6C820204414F5D75191ED000B80ED0E
:1058F000000B41F6D020204441F6F021214491EDE7
:10590000000B80ED000B002041F6B4216050132005
:1059100041F6B821605004EB05000DF071FB112039
:1059200041F6B221605405F058BD04EB05000DF0BE
:10593000B5FDC0B2002801D0012000E00020C0B2B7
:1059400000280CD041F6C820204490ED000B04EB59
:1059500005000DF057FC122041F6B221605405F00D
:105960003CBD04EB05000DF099FDC0B2002801D04C
:10597000012000E00020C0B2002803D00E2041F634
:10598000B221605405F029BD41F2085504EB050031
:105990001AF040FF012801D1012000E00020C0B230
:1059A000002807D004EB05000DF042FF0F2041F660
:1059B000B221605405F011BD41F2085020441AF0A4
:1059C00029FF012801D1012000E00020C0B20028F9
:1059D00003D0102041F6B221605405F0FEBC0DF555
:1059E000366141F2085020440FF0F8FA41F6784A47
:1059F00004EB0A004DF804CD0DF5006C9CEDD90BBD
:105A00005DF804CB80ED000B41F6B42854F8080093
:105A1000401CCDF8B80741F6C82604EB0600D0E9D3
:105A2000000117F0EBFECDF8BC0741F6D02704EBE0
:105A30000700D0E900011BF029FFCDF8C00704EBF7
:105A40000A0090ED000B4DF804CD0DF5806C8CED47
:105A5000F30B5DF804CB0DF50063D3E9DA230020E6
:105A6000DFF8C81516F0BAFC41EC180B51EC180B16
:105A700031F0004141EC100B4DF804CD0DF5806C78
:105A80008CEDF50B5DF804CBDDF8880BCDF8D8076D
:105A90000DF5F76010F021FF9DF8B00B002806D03F
:105AA00054F8080041F6B821615888422CD341F6D9
:105AB000BC20215C012902D0205C042820D142F2C4
:105AC000890914F8090000280CD104EB060090EDB8
:105AD000001B04EB0A0090ED000B42F26000204432
