:020000040800F2
:10000000A0CB002049EE060875720208857202082E
:1000100095720208A5720208B5720208000000007D
:10002000000000000000000000000000C57202088F
:10003000D572020800000000E5720208F57202089D
:1000400071760208717602087176020871760208EC
:10005000717602087176020805730208717602084B
:10006000717602082173020871760208717602081F
:1000700071760208717602087176020871760208BC
:1000800071760208717602087176020871760208AC
:100090007176020871760208717602083D730208D3
:1000A00071760208D173020871760208717602082F
:1000B00071760208117402087176020871760208DE
:1000C000717602087176020871760208717602086C
:1000D0007176020891750208A1750208B1750208CF
:1000E000217402087176020871760208CB74020846
:1000F000FD740208717602083175020871760208F3
:1001000071760208C17502087176020871760208DC
:10011000D1750208E175020871760208717602084D
:10012000F1750208017602081176020821760208AC
:1001300071760208717602087176020871760208FB
:10014000717602087176020871760208417602081B
:10015000717602083176020871760208517602083B
:1001600071760208717602087176020871760208CB
:1001700071760208617602087176020871760208CB
:100180007176020880B516480078002806D1002153
:10019000144812F0BFF80120114908701248007885
:1001A000002806D10021114812F0B4F801200E49B0
:1001B00008700F480078002806D100210D4812F081
:1001C000A9F801200A4908700B480078002806D1D8
:1001D00000210A4812F09EF801200749087001BD6D
:1001E000179B0020D09A0020189B0020D89A00204E
:1001F000199B0020D49A00201A9B0020CC9A002042
:100200002DE9F8432DED048BEAB0040089469046B1
:10021000C4F80090002300220021201D12F07CF879
:10022000C4F8F889206810F5A47114F5206013F063
:1002300021FB206810F590700090206810F58873FD
:10024000206810F58072012104F6482017F05FFC49
:1002500014F5296017F0D8FE14F52D6017F0F6FF9D
:1002600004F6EC2018F018F804F6F82018F014F84A
:1002700004F6043018F010F814F5316018F016F890
:10028000002114F53A6018F0ADF804F6A43018F027
:1002900022F9002214F53B61201D18F00DFA8008A8
:1002A0000200206810F1980114F53B6019F023FA60
:1002B0000120269026A819F05FFDCDE90401402019
:1002C000029000200190012000904FF4805320689C
:1002D00010F1D002206810F54C7104F678401BF044
:1002E000AEF90023002204F6784104F6D8501BF042
:1002F000FFF904F6D85204F6784141F2F030204478
:100300000BF080FB00200290206810F5EA7001904D
:10031000206810F5E2700090206810F5DA7320680C
:1003200010F5D272206810F5417141F2F830204486
:100330001BF07EFD41F2F83004EB000114F5A250F1
:1003400012F07CFF206810F55773206810F5AA7230
:10035000206810F5367114F5A75013F04CFB64209B
:10036000259025A81BF0CAFFCDE92E012EA941F248
:10037000287020441CF0CAF84FF4FA70249024A886
:100380001BF0BCFFCDE92C012CA941F238702044B0
:100390001CF0BCF84FF47A70239023A81BF0AEFF3A
:1003A000CDE92A012AA941F2487020441CF02AF81C
:1003B000002014F5BB510870DFF82C1C63A81CF05A
:1003C00085F96420229022A81BF098FF0022049255
:1003D000CDE902010020009063AB206810F50172A6
:1003E000206810F5057141F26870204412F0BBFDE1
:1003F00063A81CF07BF9DFF8F41B5CA81CF066F91D
:100400006420219021A81BF079FF00220492CDE9FD
:100410000201002000905CAB206810F50972206892
:1004200010F50D7141F2D070204412F09CFD5CA8D3
:100430001CF05CF9DFF8B81B55A81CF047F9012344
:100440000200206810F5117141F63800204412F0C6
:10045000EFFC55A81CF04AF9DFF8981B4EA81CF0D9
:1004600035F900230200206810F5157141F690005F
:10047000204412F0DDFC4EA81CF038F9DFF8781BA0
:1004800047A81CF023F900230200206810F5197119
:1004900041F6E800204412F0CBFC47A81CF026F9F6
:1004A000DFF8581B40A81CF011F96420209020A808
:1004B0001BF024FF00220492CDE9020100200090ED
:1004C00040AB206810F51D72206810F5217114F5FD
:1004D000CA5012F048FD40A81CF008F9DFF8201BB4
:1004E00039A81CF0F3F864201F901FA81BF006FF2A
:1004F00000220492CDE902010020009039AB20686F
:1005000010F52572206810F5297141F6A8102044D5
:1005100012F029FD39A81CF0E9F8DFF8E81A32A832
:100520001CF0D4F864201E901EA81BF0E7FE0022E9
:100530000492CDE902010020009032AB206810F552
:100540002D72206810F5317141F61020204412F010
:100550000AFD32A81CF0CAF8002041F67821605448
:10056000002041F679216054002041F67A21605440
:10057000002041F67C216050142014F5D45108600D
:10058000022041F684216054032041F68821605006
:10059000012041F68C21605041F690202044002239
:1005A0000023C0E9002341F69820204400220023C4
:1005B000C0E9002314F5D55000220023C0E9002330
:1005C00041F6A820204400220023C0E9002312277E
:1005D0009FED198B3E00002F00D576429FED189BB2
:1005E000F00707D553EC192B51EC180B1CF09CF8B5
:1005F00041EC190B7608002E08D053EC182B51EC67
:10060000180B1CF091F841EC180BE9E7002F1FD5EF
:1006100053EC192B002000211CF068F902D19FED4A
:100620000A9B15E00020DFF8F41E53EC192B1CF098
:100630006DF941EC190B0BE00000000000000040D8
:10064000000000000000F03F000000000000F07F0C
:1006500041F6B020204480ED009B41F6B8202044B4
:1006600041F6B021214491ED000B80ED000B14F513
:10067000D65000220023C0E90023002041F6C82103
:10068000605441F6D02020440022DFF8903EC0E9BB
:10069000002341F6D82020440022DFF8803EC0E944
:1006A000002314F5D75000220023C0E9002341F6AF
:1006B000E820204400220023C0E9002341F6F02076
:1006C000204400220023C0E9002341F6F820204402
:1006D00000220023C0E9002314F5D8500022002393
:1006E000C0E9002341F60830204400220023C0E97D
:1006F000002364201D901DA81BF000FE41F610325F
:100700002244C2E9000164201C901CA81BF0F6FDE5
:1007100041F618322244C2E9000165201B901BA853
:100720001BF0ECFD14F5D952C2E90001052041F699
:1007300028316050002041F62C31605041F63030B5
:1007400020441CF006FA41F63C3020441CF001FA2B
:1007500041F64830204400220023C0E9002341F63E
:100760005030204400220023C0E9002341F65830D5
:10077000204400220023C0E90023012014F5DB51AE
:10078000087041F6643020441CF0EBF9002041F67B
:1007900070316054002041F67131605441F6783078
:1007A000204400220023C0E9002314F5DC50DFF8C8
:1007B000702DDFF8703DC0E9002341F688302044F9
:1007C0000022DFF8583DC0E9002341F69030204474
:1007D00014F5DC5191ED000B80ED000B002041F68B
:1007E00098316054002041F69931605414F5DD5081
:1007F00000220023C0E90023002041F6A831605404
:10080000002019904FF47A701A901AAA19A941F68B
:10081000B03020441BF0C0FD002041F6C8316050CC
:10082000002041F6CC316050002041F6D0316050BC
:10083000002041F6D431605041F6D830204411F008
:1008400019F9002014F5E05108704FF47A701890EF
:1008500018A81BF053FDCDE9280128A941F608404E
:1008600020441BF053FE002041F61841605441F62D
:100870003840204400220023C0E9002314F5E25050
:1008800000220023C0E9002341F648402044002212
:100890000023C0E9002341F65040204400220023F9
:1008A000C0E9002341F65840204400220023C0E95B
:1008B0000023002014F5E351087041F668402044FD
:1008C00000220023C0E90023002041F6704160505F
:1008D000002041F674416050012041F6784160509B
:1008E000052041F67C416050002014F5E451086079
:1008F00041F6844020441CF03CF941F690402044ED
:100900001CF027F9022041F69C416050002014F5AC
:10091000E551087041F6A84020440022DFF8FC3B76
:10092000C0E9002341F6B04020440022DFF8EC3B50
:10093000C0E90023002041F6B8416054002041F690
:10094000B9416054002041F6F0416054002041F666
:1009500028516054002041F629516054002014F5BC
:10096000EB510870002041F6C8516054002041F658
:100970003061605441F6103004EB000114F5F4507E
:100980001BF040FD41F6F06020441CF0FAF8002016
:1009900041F62871605441F6307020440022002353
:1009A000C0E9002341F63870204400220023C0E94A
:1009B000002314F5FA5000220023C0E9002341F679
:1009C0004870204400220023C0E9002341F6507003
:1009D000204400220023C0E9002341F6787020441F
:1009E00000220023C0E9002314F5FC50002200235C
:1009F000C0E900236420179017A81BF07FFC41F684
:100A000088722244C2E9000141F69070204400221D
:100A10000023C0E900230A2041F69871605041F29A
:100A2000040020441CF0C8F8060041F204002044F1
:100A30001CF0C2F880B20200B6B2310041F6B870C4
:100A400020441CF0CAF841F6F8702044002200232C
:100A5000C0E9002314F5005000220023C0E9002360
:100A600042F20800204400220023C0E90023642051
:100A700042F210016050002042F2680160540020F0
:100A800042F2690160547820169016A819F074F9A2
:100A900042F270022244C2E900014FF41670159030
:100AA00015A819F069F942F278022244C2E900015E
:100AB00042F2780004EB000114F502501BF0A2FC96
:100AC000012042F29801605442F2A000204400222A
:100AD0000023C0E9002342F2A800204400220023A2
:100AE000C0E90023002042F2B001605042F2B80099
:100AF0002044DFF8342ADFF8343AC0E9002314F543
:100B000003500022DFF8143AC0E9002342F2C80083
:100B1000204400220023C0E9002342F2D0002044F8
:100B20000022DFF8F839C0E90023012042F2D801A1
:100B300060504FF47A7042F2DC01605042F2E00003
:100B400020440022DFF8D439C0E9002304F2FC700D
:100B5000109041F22C2020440F9004F2F4700E907B
:100B600041F2242020440D9004F2EC700C9004F229
:100B7000E4700B9041F21C2020440A9004F2DC70D7
:100B8000099004F2D470089004F2CC70079004F23B
:100B9000C470069004F2BC70059004F2B470049026
:100BA00004F2AC70039004F2A470029004F29C7002
:100BB0000190206810F584600090206810F5826331
:100BC000206810F58062206810F57C7142F2E80020
:100BD000204414F049FD42F2284020440022DFF86E
:100BE0003C39C0E9002342F230402044DFF8382984
:100BF000DFF8C83EC0E9002342F23840204400221A
:100C0000DFF81839C0E9002314F511500022002341
:100C1000C0E9002342F2484020440022DFF8A03E11
:100C2000C0E900239FED661B9FEDED0B04F2AC7154
:100C300042F25040204415F039FA04F674000E9048
:100C400004F668000D9004F65C000C9004F64C006D
:100C50000B9004F644000A9004F63C00099004F658
:100C60003400089004F62C00079004F62400069047
:100C700004F61C00059004F61400049004F60C0021
:100C8000039004F60400029000200190206810F503
:100C90007470009042F23840204490ED002B42F2F4
:100CA0003040204490ED001B42F22840204490ED5B
:100CB000000B4623206810F5587242F2504004EBB6
:100CC000000142F2684020441BF0A1FF42F268405C
:100CD00004EB000142F2C840204415F045FA41F20D
:100CE0008C202044109014F594500F9041F2742001
:100CF00020440E9041F2642020440D9041F25C208B
:100D000020440C9041F2542020440B9041F24C209E
:100D100020440A9041F244202044099041F23C20B2
:100D20002044089041F234202044079004F67400D7
:100D3000069004F66800059004F65C00049004F642
:100D40003C00039004F63400029004F62C0001905D
:100D500004F62400009004F61C0304F6140204F6C2
:100D6000040142F29860204415F0E0FD42F2E86090
:100D700020440022DFF8A437C0E9002342F2F060EB
:100D80002044DFF8A427DFF8343DC0E9002342F215
:100D9000F86020440022DFF88437C0E9002314F50E
:100DA0001C5000220023C0E9002342F208702044B6
:100DB0000022DFF80C3DC0E900239FED931B03E008
:100DC00000000000008041409FED850B04F29C7103
:100DD00042F21070204415F069F914F50F600E907E
:100DE00004F6E4000D9004F6D8000C9004F6C80058
:100DF0000B9014F50C600A9004F6B800099014F5F5
:100E00000B60089004F6A800079014F50A6006909D
:100E100004F69800059014F50960049004F6880023
:100E2000039014F50860029000200190206810F5EE
:100E30007870009042F2F860204490ED002B42F26E
:100E4000F060204490ED001B42F2E860204490EDF9
:100E5000000B4523206810F5667242F2107004EB17
:100E6000000142F2287020441BF0D1FE42F22870AB
:100E700004EB000142F28870204415F075F941F24C
:100E8000F0202044109041F2E42020440F9041F2E1
:100E9000D82020440E9041F2C82020440D9014F533
:100EA00096500C9041F2B82020440B9041F2B020B3
:100EB00020440A9041F2A8202044099014F595504E
:100EC000089041F298202044079014F50F60069096
:100ED00004F6E400059004F6D800049004F6B80087
:100EE000039014F50B60029004F6A800019014F52D
:100EF0000A60009004F6980314F5096214F508617D
:100F000042F65810204415F011FD002042F6A811B9
:100F1000605404F6D852211D42F6B010204410F05F
:100F200013FF200000F0D4FD200000F0E6FD1BF0D0
:100F3000C3FE149014F576601BF0C4FE8DF85000CB
:100F400004F668701BF0BEFE8DF8510014F5776052
:100F50001BF0B8FE8DF8520004F678701BF0B2FE5C
:100F60008DF853001BF0A8FE139014F578601BF069
:100F7000A9FE8DF84C0004F688701BF0A3FE8DF8D6
:100F80004D0014F579601BF09DFE8DF84E0004F6BF
:100F900098701BF097FE8DF84F001BF08DFE12909D
:100FA00014F57A601BF08EFE8DF8480004F6A870E8
:100FB0001BF088FE8DF8490014F57B601BF082FE63
:100FC0008DF84A0004F6B8701BF07CFE8DF84B00DB
:100FD00014F57C601BF087FE002819D0012518E06D
:100FE0000000000000002E40D8F00608E0F00608DF
:100FF000E8F00608F0F00608F8F0060800F1060828
:1010000008F1060810F106080000000000804640C4
:1010100000252800C0B20090129B139A14992068F2
:10102000A0301BF0E4FE206810F1A00111A814F01C
:10103000CFF91CF085FB0600082168461CF0BAFBBE
:10104000DDE90001CDE9300130A930001CF0BEFB24
:1010500004F6D8501CF0CAFB14F5DB51087014F5E7
:10106000DB5114F11C001CF0D0FB14F55E601CF089
:10107000D9FB41F6D820204480ED000B41F6D82062
:1010800004EB000114F1B4001CF0F6FB04F6E85088
:101090001CF0C8FB41F6D020204480ED000B41F647
:1010A000D02004EB000114F1BC001CF0E5FB14F5AA
:1010B000756114F1D4001CF0ECFB04F6587114F1C6
:1010C000DC001CF0E6FB14F55F601CF08FFB0100F8
:1010D000C9B214F5A25012F087FA14F5A25012F01A
:1010E00013FB8DF801000DF1010114F5CC701CF01B
:1010F0008CFB04F6F8501CF079FB41F68821605017
:1011000041F6882020588DF80000694614F5D0700B
:101110001CF07BFB14F560601CF068FB0A900AA8C9
:101120001BF0ECF841F618322244C2E9000114F534
:10113000606114F5FE701CF0BFFB41F6887020441E
:10114000D0E9002314F5A25012F0E6FA04F6387044
:101150001CF04CFB099009A81BF0D0F814F5D952EB
:10116000C2E9000104F6387114F578701CF0A4FB94
:1011700004F608601CF03AFB089008A81BF0BEF8C3
:1011800041F610322244C2E9000104F6086114F568
:1011900001701CF091FB14F561601CF043FB14F529
:1011A000DD5080ED000B14F5DD5114F503701CF0DB
:1011B00063FB04F618601CF091FB1CF0ADFB14F50A
:1011C000DD52C2E9000114F5DD5114F503701CF085
:1011D00053FB14F562601CF009FB41F628316050A6
:1011E00041F6283004EB000114F507701CF0A5FB54
:1011F00020000AF041FE14F5E65114F5A75013F053
:1012000097FC14F566601BF0D7FC41F62A7160521A
:1012100041F62A7004EB000114F56A701CF09AFB89
:1012200004F668601BF0C8FC41F62C71605241F670
:101230002C7004EB000114F56C701CF08BFB04F6B1
:10124000CC7114F580601CF024FB04F6CC701CF00B
:10125000E9FA41F63070204480ED000B04F6D471B9
:1012600014F581601CF015FB04F6D4701CF0DAFA5A
:1012700041F63870204480ED000B04F6DC7114F563
:1012800082601CF006FB04F6DC701CF0CBFA14F54F
:10129000FA5080ED000B04F6E47114F583601CF045
:1012A000F8FA04F6E4701CF0BDFA41F648702044E8
:1012B00080ED000B14F5A2501CF066FB41F6B06007
:1012C000204480ED000B14F5A2501CF0ADFB41F65C
:1012D000B860204480ED000B14F5F6500022002386
:1012E000C0E9002341F6C860204400220023C0E981
:1012F000002341F6D060204400220023C0E90023EF
:10130000002041F6D8616050002041F6DC61605059
:1013100014F5F75000220023C0E9002341F6E860ED
:101320002044814ADFF89C37C0E9002304F6EC71C1
:1013300014F585601CF0ADFA04F6EC701CF072FA3E
:1013400041F67870204480ED000B04F6F47114F53A
:1013500086601CF09EFA04F6F4701CF063FA14F533
:10136000FC5080ED000B41F65870204441F6787136
:10137000214491ED000B80ED000B14F5FB50002291
:101380000023C0E9002341F66870204400220023B6
:10139000C0E90023012114F5A75012F045FC14F513
:1013A000FC50D0E9002351EC100B1BF0BDF941F6C5
:1013B00070722244C2E9000104F6FC7114F58960E0
:1013C0001CF067FA04F6FC701CF02CFA41F69070E1
:1013D000204480ED000B41F2040020441BF0ECFBA4
:1013E00080B241F69871605014F5FD500022002340
:1013F000C0E9002341F6A870204400220023C0E980
:101400000023012114F5A75012F00EFC41F6907054
:101410002044D0E9002351EC100B1BF085F941F674
:10142000B0722244C2E9000141F2040004EB000161
:1014300014F58E601CF04CFB41F21C0020441CF0A3
:10144000F1F914F5005080ED000B14F5005090ED0B
:10145000000B20000AF056FC41F6F870204480EDA5
:10146000000B14F5005114F592601CF005FA41F6DA
:10147000F87004EB000114F591601CF0FDF941F2E5
:10148000240020441CF0CEF942F20800204480EDF4
:10149000000B42F2080004EB000114F593601CF00D
:1014A000EBF941F20C0020441BF00CFCC0B215F02B
:1014B00078FE42F29801605441F20C0004EB000106
:1014C00014F58F601CF017FB14F563601CF0AAF98B
:1014D00041F63040204480ED000B41F6304004EBF3
:1014E000000114F55C701CF0C7F904F678601CF07C
:1014F00099F941F68830204480ED000B41F68830A0
:1015000004EB000114F570701CF0B6F904F6886065
:101510001BF0E9FB00280BD001200AE00000F03F9F
:10152000CDCCCCCCCC60B5409A9999999999D93FBA
:10153000002041F67031605441F67030215C14F1A6
:1015400060001CF0EBFA04F694601BF0CCFB002862
:1015500001D0012000E0002041F61841605441F61E
:101560001840215C14F5C6701CF0D8FA14F56A60B6
:101570001BF0B9FB002801D0012000E0002041F65B
:101580007131605441F67130215C14F515701CF016
:10159000C5FA41F67130215C41F2687020441CF0BC
:1015A000D3FA41F67130215C41F2D07020441CF036
:1015B000CBFA41F67130215C14F5CA501CF0C4FA24
:1015C00041F67130215C41F6A81020441CF0BCFAB1
:1015D00041F67130215C41F6102020441CF0B4FA31
:1015E00004F6AC601BF07FFB002801D0012000E076
:1015F000002014F5E351087014F5E350017814F558
:101600001E701CF08BFA14F572601CF067F941F63D
:101610008C21605041F68C2004EB000114F57270AF
:101620001CF095FA04F628701CF058F941F6784140
:10163000605041F678402058029002A914F5747069
:101640001CF085FA14F573601CF048F941F67C41F2
:10165000605041F67C402058019001A914F5767045
:101660001CF075FA14F574601CF0DCF841F6A84023
:10167000204480ED000B41F6A84004EB000114F576
:101680007A701CF0F9F804F6B86114F521701CF0BA
:101690006BFA14F56D6114F544701CF065FA14F5DD
:1016A00044701BF020FB002801D0012100E0002144
:1016B000C9B214F5A7501CF076FA04F648701CF075
:1016C000B1F841F6B040204480ED000B41F6B04047
:1016D00004EB000114F57C701CF0CEF804F6E86011
:1016E0001BF0F0FA0100C9B2200010F0A9F941F690
:1016F0008421605404F6E86114F52D701CF0FBF9A8
:1017000004F6FC6114F54D701CF02EFA04F6087115
:1017100014F550701CF028FA41F2EC1020441CF033
:1017200081F842F2B800204480ED000B41F2EC1049
:1017300004EB000114F598601CF0ABF841F2F410D2
:1017400020441CF06FF814F5035080ED000B41F2BB
:10175000F41004EB000114F599601CF09AF841F2C2
:10176000FC1020441CF05EF842F2C800204480EDDA
:10177000000B41F2FC1004EB000104F27C701CF041
:1017800088F841F2042020441CF04CF842F2D000CA
:10179000204480ED000B41F2042004EB000104F230
:1017A00084701CF076F841F20C2020441CF096F86E
:1017B00042F2D801605041F20C2004EB000104F227
:1017C0008C701CF0F3F941F2142020441CF02AF82C
:1017D00051EC100B1CF0FCF942F2DC01605041F2BC
:1017E000142004EB000104F294701CF052F814F57C
:1017F0009F5114F1CC001CF04CF804F6147114F550
:1018000053701CF0B1F941F2E83004EB000114F51B
:101810001F601CF03EF841F2E83020441CF002F852
:1018200042F2E000204480ED000B14F5E15000226C
:101830000023C0E9002341F6284020440022002371
:10184000C0E9002314F563601BF0ECFF41F6304063
:10185000204480ED000B04F608601BF0C7FF0790E2
:1018600007A81AF04BFD41F610322244C2E90001EC
:1018700014F5766114F59D601CF03DF904F668716D
:1018800014F59E601CF037F914F5776114F59F602C
:101890001CF031F904F6787114F5A0601CF02BF9F6
:1018A00014F5786114F5A1601CF025F904F688712F
:1018B00014F5A2601CF01FF914F5796114F5A3600A
:1018C0001CF019F904F6987114F5A4601CF013F9D2
:1018D00014F57A6114F5A5601CF00DF904F6A871F1
:1018E00014F5A6601CF007F914F57B6114F5A760E8
:1018F0001CF001F904F6B87114F5A8601CF0FBF8AF
:1019000014F57C6114F5A9601CF02EF941F688707D
:101910002044D0E9002341F26870204411F080FB9C
:1019200041F688702044D0E9002341F2D070204471
:1019300011F076FB41F688702044D0E9002341F68F
:101940003800204411F0B6FA41F688702044D0E9FE
:10195000002341F69000204411F0ACFA41F6887063
:101960002044D0E9002341F6E800204411F0A2FA17
:1019700041F688702044D0E9002314F5CA5011F0D4
:101980004FFB41F688702044D0E9002341F6A810AF
:10199000204411F045FB41F688702044D0E9002333
:1019A00041F61020204411F03BFB04F6CC7114F5F5
:1019B00080601BF06EFF04F6482114F52D601CF0CA
:1019C00024F914F5296114F531601CF04BF904F683
:1019D000043114F531601CF047F904F6EC2114F5DC
:1019E00031601CF041F904F6F82114F531601CF067
:1019F0003BF91420069006A81AF080FC02000B00A8
:101A000014F531601CF03AF91420059005A81AF07D
:101A100075FC02000B0014F531601CF03AF94FF42C
:101A2000FA70049004A81AF069FC02000B0014F587
:101A300031601CF039F93220039003A81AF05EFCE3
:101A400002000B0014F531601CF03AF978201CF00C
:101A500045F90600231D04F6043214F52D6130000B
:101A60001EF0FFF8010014F53A601EF026FA00217E
:101A700014F5206011F03DFF1BF062FE12491EF0CC
:101A800032FA1BF05DFE08211EF028FB0F491EF004
:101A90008FFB04F6F81104F6FC001BF04EFF41F238
:101AA000FC2004EB000104F604101BF005FF2000ED
:101AB0006AB0BDEC048BBDE8F28300009999A93FA0
:101AC000000039409999B93F34B906088584060861
:101AD00010B50400206810F5987114F5296016F00F
:101AE00028FB206810F59E7114F5296016F039FB6B
:101AF00014F5296016F056FB10BD70472DE9F84F1C
:101B00002DED0C8BADF5406D060030681BF00AFD25
:101B100016F53B6017F011FF06F6784019F00AFC45
:101B200041F2F83030441AF0EAFA16F5A25011F0FA
:101B300045FE00240A2C05D216F5A75012F0F2F942
:101B4000641CF7E741F26870304411F09EFA41F2EC
:101B5000D070304411F099FA41F63800304411F059
:101B6000D0F941F69000304411F0CBF941F6E8008D
:101B7000304411F0C6F916F5CA5011F086FA41F654
:101B8000A810304411F081FA41F61020304411F0D1
:101B90007CFA16F5206011F0C1FE16F53A601EF0D1
:101BA0000DFB1EF003F906F6482016F089F816F52D
:101BB00031601EF025FB42F2E800304413F04EFF86
:101BC00042F2C840304414F0E2FC42F288703044E3
:101BD00014F0DDFC06F6EC201EF067FC002801D0B6
:101BE000012000E00020C0B2002804D0002116F53A
:101BF000206011F07EFE41F2287030441AF0A7FCFC
:101C0000C0B2002801D0012000E00020C0B20028AE
:101C100001F06E810021301D1EF04DFC30000AF0F5
:101C200023FD41F6F041705430000AF098FE0500A3
:101C300041F62850305C002802D141F62850355436
:101C400030000BF003F8040041F62950305C002806
:101C500002D141F62950345430000BF0C2F916F588
:101C6000EB51087030000BF035FB41F6C851705451
:101C700030000BF0AAFC41F63061705430000AF0DD
:101C8000A6FC41F67820305C012800F0578116F55B
:101C9000DA701BF0C7FDB0EE408AF0EE608A16F5F0
:101CA000A25011F0D5FC53EC182B51EC100B1AF08C
:101CB0001DFE01D0012000E00020C0B200280AD0A3
:101CC00016F5A25011F0C4FC8DED460B46A916F591
:101CD000DA701BF0D1FD16F5DE701BF0FFFD05007C
:101CE00016F5A25011F008FD854201D0012000E058
:101CF0000020C0B2002809D016F5A25011F0FCFC5B
:101D0000159015A916F5DE701BF021FF16F5D4709D
:101D10001AF0E9FF050016F5A25011F038FBC0B229
:101D2000854201D0012000E00020C0B2002809D087
:101D300016F5A25011F02BFB0100C9B216F5D470B4
:101D40001BF0ECFE16F5CC701AF0BCFF050016F582
:101D5000A25011F0D9FCEDB2C0B2854201D00120F1
:101D600000E00020C0B200280AD016F5A25011F001
:101D7000CBFC8DF8100004A916F5CC701BF045FDC6
:101D800016F5AE701AF0AFFF050041F268703044EE
:101D900011F033F9854201D0012000E00020C0B2EB
:101DA000002809D041F26870304411F026F9010092
:101DB00016F5AE701BF0B2FE16F5B4701AF093FF74
:101DC000050041F2D070304411F017F9854201D07E
:101DD000012000E00020C0B2002809D041F2D070FC
:101DE000304411F00AF9010016F5B4701BF096FEAC
:101DF00016F59C701AF077FF050041F63800304464
:101E000011F04DF8854201D0012000E00020C0B261
:101E1000002809D041F63800304411F040F80100A4
:101E200016F59C701BF07AFE16F1E4001AF05BFFC9
:101E3000050041F69000304411F031F8854201D0A0
:101E4000012000E00020C0B2002809D041F6900037
:101E5000304411F024F8010016F1E4001BF05EFE9E
:101E600016F1F0001AF03FFF050041F6E80030449B
:101E700011F015F8854201D0012000E00020C0B229
:101E8000002809D041F6E800304411F008F80100BC
:101E900016F1F0001BF042FE16F1FC001AF023FFD1
:101EA000050016F5CA5011F0A8F8854201D00120AE
:101EB00000E00020C0B2002808D016F5CA5011F08A
:101EC0009CF8010016F1FC001BF028FE16F584704A
:101ED0001AF009FF050041F6A810304411F08DF802
:101EE000854201D0012000E00020C0B2002809D0C6
:101EF00041F6A810304411F080F8010016F5847006
:101F00001BF00CFE16F58A701AF0EDFE050041F686
:101F10001020304411F071F8854201D0012000E01A
:101F20000020C0B2002809D041F61020304411F042
:101F300064F8010016F58A701BF0F0FD16F5A75045
:101F40001EF0D4FAC0B2002801D0012000E0002029
:101F5000C0B2002800F0C38041F6386006EB0001F3
:101F600016F5A75013F0CAF916F5F35106F6E81066
:101F70001BF0E3FC16F5F250D0E9002300205F4986
:101F80001AF0D2FB41EC180B51EC180B31F0004168
:101F900041EC100B8DED2C0B2CA916F596601BF067
:101FA0006BFC41F6486006EB000116F59C601BF0E7
:101FB000CEFD41F6506006EB000116F594601BF073
:101FC0005BFC41F658603044D0E9002300204B49C7
:101FD0001AF0AAFBCDE92A012AA916F595601BF093
:101FE0004BFC41F67820305C00280DD041F679207A
:101FF000305C022808D016F5E25041F638613144D1
:1020000091ED000B80ED000B16F5F25090ED008B7A
:1020100051EC180B31F0004141EC100B42F6B010BE
:1020200030440FF015FF41F6F060305C002856D0C8
:10203000002041F6F061705441F6F86006EB0001B3
:1020400016F588601BF018FC16F5F85116F584603B
:102050001BF012FC41F6087006EB000116F58A60D1
:102060001BF00AFC41F6107006EB000116F58B60C0
:102070001BF002FC41F60870304490ED000B30007C
:1020800009F0AAFD8DED280B28A916F58C601BF030
:10209000F3FB41F61070304490ED000B300009F076
:1020A0009BFD8DED260B26A916F58D601BF0E4FB3C
:1020B00041F6187006EB000116F587601BF0DCFB9B
:1020C00016F5F950D0E9002300200C491AF02CFB3A
:1020D000CDE9240124A916F5F6701BF0CDFB16F509
:1020E000F2701BF09FFB53EC102B16F5E250D0E979
:1020F00000011AF0FBFB03D0012002E080842E4196
:102100000020C0B200281AD016F5E25116F5F27080
:102110001BF0B2FB16F5E25090ED000B16F5E15006
:102120001EF08BFC41F63840304480ED000B41F648
:10213000384006EB000116F55E701BF09DFB16F5AE
:1021400018701AF0D0FD002801D0012000E0002016
:10215000C0B2002826D0002116F518701BF0DEFC56
:1021600016F5E15016F5E25191ED000B80ED000BF4
:1021700041F62840304416F5E25191ED000B80ED18
:10218000000B41F63840304416F5E25191ED000B5A
:1021900080ED000B41F6384006EB000116F55E704D
:1021A0001BF06AFB16F190001AF08CFD41F67821C5
:1021B000715CC0B2884201D0012000E00020C0B2B2
:1021C00000280AD041F67820305C8DF80F000DF120
:1021D0000F0116F190001BF018FB41F67820305CDF
:1021E00000282CD141F67920305C022827D116F541
:1021F000AC601AF078FD012801D1012000E0002038
:10220000C0B200280CD0002116F5AC601BF086FC93
:10221000002106F254501BF081FC300009F012FA44
:1022200006F254501AF05FFD002801D1012000E0B1
:102230000020C0B2002802D0300009F06CFA16F17C
:102240001C001AF03FFD050006F6D8501BF0CEFA30
:10225000EDB2854201D0012000E00020C0B200288C
:1022600009D016F11C001AF02DFD149014A906F6E1
:10227000D8501BF062FB16F1B4001BF0D3FAB0EE9D
:10228000408AF0EE608A16F55E601BF0CBFA53ECE4
:10229000182B51EC100B1AF029FB01D0012000E0A3
:1022A0000020C0B2002805D016F1B40116F55E601A
:1022B0001BF0EFFA16F1BC001BF0B4FAB0EE408A46
:1022C000F0EE608A06F6E8501BF0ACFA53EC182BDF
:1022D00051EC100B1AF00AFB01D0012000E00020A5
:1022E000C0B2002805D016F1BC0106F6E8501BF07C
:1022F000D0FA16F1D4001BF095FAB0EE408AF0EE59
:10230000608A16F575601BF08DFA53EC182B51ECB2
:10231000100B1AF0EBFA01D0012000E00020C0B24F
:10232000002805D016F1D40116F575601BF0B1FA3E
:1023300016F1DC001BF076FAB0EE408AF0EE608A0F
:1023400006F658701BF06EFA53EC182B51EC100B7C
:102350001AF0CCFA01D0012000E00020C0B2002821
:1023600005D016F1DC0106F658701BF092FA16F54E
:10237000CC701AF0A7FC050016F55F601BF036FA6A
:10238000EDB2854201D0012000E00020C0B200285B
:1023900009D016F5CC701AF095FC139013A916F518
:1023A0005F601BF0CAFA16F5D0701AF08BFC0500BE
:1023B00006F6F8501BF01AFAEDB2854201D0012062
:1023C00000E00020C0B2002809D016F5D0701AF045
:1023D00079FC129012A906F6F8501BF0AEFA16F529
:1023E000FE701BF003FA050016F560601BF0FEF9A5
:1023F000854201D0012000E00020C0B2002805D0B5
:1024000016F5FE7116F560601BF056FA16F50170B0
:102410001BF0ECF9050006F608601BF0E7F98542B1
:1024200001D0012000E00020C0B2002805D016F540
:10243000017106F608601BF03FFA16F503701BF0F9
:10244000F1F9B0EE408AF0EE608A16F561601BF09B
:10245000E9F953EC182B51EC100B1AF047FA01D0A4
:10246000012000E00020C0B2002805D016F503715D
:1024700016F561601BF00DFA16F505701BF02EFACB
:10248000050006F618601BF029FA854201D00120EC
:1024900000E00020C0B2002805D016F5057106F650
:1024A00018601BF083FB16F507701BF09FF9050001
:1024B00016F562601BF09AF9854201D0012000E018
:1024C0000020C0B2002805D016F5077116F562602D
:1024D0001BF0F2F916F55C701BF0A4F953EC102B0D
:1024E00041F630403044D0E900011AF0FFF901D044
:1024F000012000E00020C0B200280ED016F55C706C
:102500001BF090F941F63040304480ED000B16F599
:102510005C7116F563601BF0BCF916F560701BF07A
:1025200065F9050006F638601BF060F9854201D0B8
:10253000012000E00020C0B2002805D016F560712F
:1025400006F638601BF0B8F916F562701BF04EF90C
:10255000050016F564601BF049F9854201D00120A1
:1025600000E00020C0B2002805D016F5627116F513
:1025700064601BF0A1F916F564701BF037F90500D3
:1025800006F648601BF032F9854201D0012000E0D8
:102590000020C0B2002805D016F5647106F6486028
:1025A0001BF08AF916F56A701AF006FB050016F59D
:1025B00066601AF001FBADB280B2854201D0012005
:1025C00000E00020C0B2002805D016F56A7116F5AB
:1025D00066601BF07DFA16F56C701AF0EDFA0500D6
:1025E00006F668601AF0E8FAADB280B2854201D012
:1025F000012000E00020C0B2002805D016F56C7163
:1026000006F668601BF064FA16F570701BF00AF9A4
:10261000B0EE408AF0EE608A06F678601BF002F9B0
:1026200053EC182B51EC100B1AF060F901D001207B
:1026300000E00020C0B2002805D016F5707106F643
:1026400078601BF026F916F160001AF04CFB0500CB
:1026500006F688601AF047FB854201D0012000E0B1
:102660000020C0B2002805D016F1600106F688608F
:102670001BF07AFA16F5C6701AF035FB050006F65F
:1026800094601AF030FB854201D0012000E0002068
:10269000C0B2002805D016F5C67106F694601BF08E
:1026A00063FA16F51E701AF01EFB050006F6AC6004
:1026B0001AF019FB854201D0012000E00020C0B2D1
:1026C000002805D016F51E7106F6AC601BF04CFA1A
:1026D00016F572701BF002F9050016F572601BF01A
:1026E000FDF8854201D0012000E00020C0B20028A2
:1026F00005D016F5727116F572601BF057FA16F5D3
:1027000074701BF0EBF8050006F628701BF0E6F875
:10271000854201D0012000E00020C0B2002805D091
:1027200016F5747106F628701BF040FA16F57670EF
:102730001BF0D4F8050016F573601BF0CFF8854246
:1027400001D0012000E00020C0B2002805D016F51D
:10275000767116F573601BF029FA16F578701BF088
:1027600045F8050006F638701BF040F8854201D0A8
:10277000012000E00020C0B2002805D016F57871D5
:1027800006F638701BF098F816F57A701BF04AF8C8
:10279000B0EE408AF0EE608A16F574601BF042F8E5
:1027A00053EC182B51EC100B1AF0A0F801D00120BB
:1027B00000E00020C0B2002805D016F57A7116F5A9
:1027C00074601BF066F816F521701AF08CFA05009B
:1027D00006F6B8601AF087FA854201D0012000E0C1
:1027E0000020C0B2002805D016F5217106F6B860A9
:1027F0001BF0BAF916F544701AF075FA050016F5D3
:102800006D601AF070FA854201D0012000E00020CE
:10281000C0B2002813D016F5447116F56D601BF098
:10282000A3F916F544701AF05EFA002801D00121D0
:1028300000E00021C9B216F5A7501BF0B4F916F557
:102840003B701AF050FA050006F6C4601AF04BFA15
:10285000854201D0012000E00020C0B2002805D050
:1028600016F53B7106F6C4601BF07EF916F57C7018
:102870001AF0D8FFB0EE408AF0EE608A06F6487093
:102880001AF0D0FF53EC182B51EC100B1AF02EF865
:1028900001D0012000E00020C0B2002805D016F5CC
:1028A0007C7106F648701AF0F4FF16F52D701AF0D8
:1028B00009FA050006F6E8601AF004FAEDB2C0B2B3
:1028C000854201D0012000E00020C0B2002805D0E0
:1028D00016F52D7106F6E8601BF00DF916F54D7032
:1028E0001AF001FA050006F6FC601AF0FCF98542C0
:1028F00001D0012000E00020C0B2002805D016F56C
:102900004D7106F6FC601BF02FF916F550701AF0A9
:10291000EAF9050006F608701AF0E5F9854201D0DB
:10292000012000E00020C0B2002805D016F550714B
:1029300006F608701BF018F916F58F601AF0C2F948
:10294000050041F20C0030441AF0BCF9EDB2C0B2FF
:10295000854201D0012000E00020C0B2002806D04E
:1029600016F58F6141F20C0030441BF0C4F816F5E7
:1029700098601AF057FFB0EE408AF0EE608A41F29C
:10298000EC1030441AF04EFF53EC182B51EC100BA6
:1029900019F0ACFF01D0012000E00020C0B20028F7
:1029A00025D016F5986141F2EC1030441AF071FF11
:1029B00016F598601AF036FF42F2B800304480ED08
:1029C000000B41F63800304410F069FA012801D1BB
:1029D000012000E00020C0B2002808D042F2B80078
:1029E000304490ED000B16F5A75012F0AAFC16F536
:1029F00099601AF017FFB0EE408AF0EE608A41F25B
:102A0000F41030441AF00EFF53EC182B51EC100B5D
:102A100019F06CFF01D0012000E00020C0B20028B6
:102A200023D016F5996141F2F41030441AF031FFC9
:102A300016F599601AF0F6FE16F5035080ED000BBE
:102A400041F63800304410F02AFA002801D1012064
:102A500000E00020C0B2002807D016F5035090ED2A
:102A6000000B16F5A75012F06CFC16F53B701AF02F
:102A70003AF9050006F6C4601AF035F9854201D02E
:102A8000012000E00020C0B2002805D016F53B71FF
:102A900006F6C4601BF068F806F27C701AF0C2FEFD
:102AA000B0EE408AF0EE608A41F2FC1030441AF039
:102AB000B9FE53EC182B51EC100B19F017FF01D095
:102AC000012000E00020C0B200280FD006F27C7187
:102AD00041F2FC1030441AF0DCFE06F27C701AF071
:102AE000A1FE42F2C800304480ED000B06F2847073
:102AF0001AF098FEB0EE408AF0EE608A41F20420AF
:102B000030441AF08FFE53EC182B51EC100B19F0D7
:102B1000EDFE01D0012000E00020C0B200280FD05F
:102B200006F2847141F2042030441AF0B2FE06F23B
:102B300084701AF077FE42F2D000304480ED000B32
:102B400006F28C701AF0CAFE050041F20C203044E7
:102B50001AF0C4FE854201D0012000E00020C0B27E
:102B600000280DD006F28C7141F20C2030441BF08D
:102B70001DF806F28C701AF0B1FE42F2D8017050C6
:102B800006F294701AF04EFEB0EE408AF0EE608AC3
:102B900041F2142030441AF045FE53EC182B51EC4E
:102BA000100B19F0A3FE01D0012000E00020C0B2FC
:102BB000002811D006F2947141F2142030441AF02A
:102BC00068FE06F294701AF02DFE51EC100B1AF00C
:102BD000FFFF42F2DC01705016F51F601AF022FE72
:102BE000B0EE408AF0EE608A41F2E83030441AF0EC
:102BF00019FE53EC182B51EC100B19F077FE01D095
:102C0000012000E00020C0B2002806D016F51F61A8
:102C100041F2E83030441AF03CFE16F515701AF017
:102C200062F8050016F56A601AF05DF8854201D079
:102C3000012000E00020C0B2002811D016F5157167
:102C400016F56A601AF090FF16F515701AF04BF839
:102C5000002801D0012000E0002041F671317054BD
:102C600016F1CC001AF0DEFDB0EE408AF0EE608A7C
:102C700016F59F501AF0D6FD53EC182B51EC100BA3
:102C800019F034FE01D0012000E00020C0B200287D
:102C900005D016F1CC0116F59F501AF0FAFD16F585
:102CA00053701AF020F8050006F614701AF01BF89D
:102CB000854201D0012000E00020C0B2002805D0EC
:102CC00016F5537106F614701AF04EFF42F6A8106E
:102CD000305C012809D043D303281AD00FD305282C
:102CE0002AD01FD3062831D03AE001208DF80E00FB
:102CF0000DF10E0116F556701AF087FD38E002202E
:102D00008DF80D000DF10D0116F556701AF07DFDD0
:102D10002EE003208DF80C0003A916F556701AF06A
:102D200074FD25E004208DF80B000DF10B0116F564
:102D300056701AF06AFD1BE005208DF80A000DF1AF
:102D40000A0116F556701AF060FD11E006208DF8A4
:102D500009000DF1090116F556701AF056FD07E04D
:102D600000208DF8080002A916F556701AF04DFDE6
:102D700016F5766116F59D601DF0E2FE06F66871A7
:102D800016F59E601DF0DCFE16F5776116F59F6066
:102D90001DF0D6FE06F6787116F5A0601DF0D0FE87
:102DA00016F5786116F5A1601DF0CAFE06F6887169
:102DB00016F5A2601DF0C4FE16F5796116F5A36044
:102DC0001DF0BEFE06F6987116F5A4601DF0B8FE63
:102DD00016F57A6116F5A5601DF0B2FE06F6A8712B
:102DE00016F5A6601DF0ACFE16F57B6116F5A76022
:102DF0001DF0A6FE06F6B87116F5A8601DF0A0FE3F
:102E000016F57C6116F5A9601DF0B6FE42F29860D9
:102E1000304413F0E9FD42F65810304413F0E4FD5D
:102E200016F5A7501DF0C2FE012801D1012000E0D7
:102E30000020C0B2002805D0002116F52A701AF033
:102E40006DFE04E0012116F52A701AF067FE16F5F2
:102E5000477019F048FF012801D1012000E000204F
:102E6000C0B2002807D0002116F547701AF056FEB0
:102E700030000DF0F7FF06F6FC001AF0B7FCD6F8AC
:102E8000F819884201D0012000E00020C0B20028DB
:102E900005D006F6F81106F6FC001AF04EFD06F60F
:102EA00004101AF0A3FC050041F2FC2030441AF093
:102EB0009DFC854201D0012000E00020C0B2002826
:102EC00006D006F6041141F2FC2030441AF0F4FC5E
:102ED00042F6B01030440EF0EEFF41F6D8303044E8
:102EE0000EF0BDFE079007A916F509701AF025FD32
:102EF00041F23870304419F02AFBC0B2002801D0EA
:102F0000012000E00020C0B2002818D016F5BB5008
:102F10000078002804D03068C0301DF029FF03E09D
:102F20003068C0301DF02DFF16F5BB50007800282A
:102F300001D1012000E0002016F5BB51087041F6D8
:102F40000840304419F003FBC0B2002801D0012032
:102F500000E00020C0B2002844D016F5E050007810
:102F600000280ED041F6C8303058401C41F6C83118
:102F7000705041F6C83006EB000116F50B701AF0E0
:102F8000DCFC41F67820305C02282BD141F6D030B1
:102F90003058401C41F6D031705041F6D430325890
:102FA000002141F6D4303058401E1EF0FCF841F6A6
:102FB000D431705041F6D83030440EF0B6FD41F6B1
:102FC000D03006EB000116F50F701AF0B6FC41F692
:102FD000D83030440EF041FE069006A916F5117067
:102FE0001AF0ABFC41F67820305C002809D00228AA
:102FF00001F06183C0F05581032801F0DA8008F008
:1030000013BB41F67920305C002805D0022800F07F
:10301000E080C0F0A78042E11AF092FBDFF8C41C08
:103020001DF0C6F8002141F2687030440FF0DCFF5B
:10303000002141F2D07030440FF0D6FF012141F65B
:10304000380030440FF022FF002141F69000304458
:103050000FF01CFF002141F6E80030440FF016FF8E
:10306000002116F5CA500FF0BFFF002141F6A8104D
:1030700030440FF0B9FF002141F6102030440FF02A
:10308000B3FF42F2B800304490ED000B16F5A750A4
:1030900012F057F916F5A2501EF08CF816F5A25052
:1030A00010F02EF99FED2D0B16F5A25010F028FA16
:1030B00016F5A7501EF082F816F5E65116F5A75042
:1030C00011F036FD002141F2687030441AF03CFDE9
:1030D000002141F2D07030441AF036FD002116F57F
:1030E000CA501AF031FD002141F6A81030441AF000
:1030F0002BFD002141F6102030441AF025FD00215F
:1031000016F178001AF00AFD41F6283006EB0001AE
:1031100016F507701AF011FC41F24870304419F0AE
:103120008DF9002116F524701AF0F8FC002041F604
:1031300028717054002116F52F701AF0EFFC002151
:1031400016F535701AF0EAFC002116F538701AF001
:10315000E5FC012041F679217054A0E00000000058
:103160000000000041F24870304419F074F9C0B218
:10317000002801D0012000E00020C0B2002827D0A4
:103180001AF0DEFADFF85C1B1DF012F81AF0D8FA1C
:10319000DFF8541B1CF0A7FEDFF8481B1DF008F8F1
:1031A0001AF0CEFADFF8441B1CF09DFEDFF8341B4A
:1031B0001CF0FEFF1AF0C4FADFF82C1B1CF093FE83
:1031C000DFF8201B1CF0F4FF022041F67921705437
:1031D00065E016F1780019F086FD012801D1012083
:1031E00000E00020C0B2002840D0002116F1780095
:1031F0001AF094FC002116F184001AF08FFC16F1ED
:103200000C0019F05FFDC0B2012804D024D30328BC
:1032100019D009D320E0012041F678217054002014
:1032200041F6792170543AE016F53A601CF0C6FF79
:103230001CF086FD022041F678217054002041F6F2
:10324000792170542BE0032041F67821705400203E
:1032500041F67921705422E000208DF807000DF12D
:10326000070116F10C001AF0D0FA18E016F5A75075
:103270001DF09CFC012801D1012000E00020C0B21B
:1032800000280CD016F5E25041F63861314491ED3A
:10329000000B80ED000B16F5A75010F047FC08F06E
:1032A000C3B941F69830305C002815D0022800F0F0
:1032B000EB80C0F09C80042800F01284C0F0DA8318
:1032C000062800F0C584C0F03F84082800F0548729
:1032D000C0F0BD8600F06BBF1AF032FADFF8041AB6
:1032E0001CF066FF1AF02CFADFF8FC191CF0FBFD4D
:1032F000DFF8F0191CF05CFF1AF022FADFF8F01981
:103300001CF0F1FDDFF8DC191CF052FF1AF018FA7E
:10331000DFF8D4191CF0E7FDDFF8C8191CF048FFEE
:1033200041F688703044D0E9002341F2687030449F
:103330000FF076FE41F688703044D0E9002341F268
:10334000D07030440FF06CFE41F688703044D0E904
:10335000002341F6380030440FF0ACFD41F6887090
:103360003044D0E9002341F6900030440FF0A2FD34
:1033700041F688703044D0E9002341F6E80030443B
:103380000FF098FD41F688703044D0E9002316F51F
:10339000CA500FF045FE41F688703044D0E9002352
:1033A00041F6A81030440FF03BFE41F688703044DF
:1033B000D0E9002341F6102030440FF031FE41F6F1
:1033C00088703044D0E9002316F5A25010F0A4F91B
:1033D00016F570701AF026FA41F68830304480ED08
:1033E000000B012041F69831705400F0E0BE16F554
:1033F000A7501DF0DBFB012801D1012000E00020D7
:10340000C0B200283ED041F6305006EB000116F560
:10341000A75011F08DFB012116F5A75010F05AFCB2
:10342000B0EE408AF0EE608A16F5A25010F064F912
:10343000040016F5DC50D0E9002341F68830304412
:10344000D0E9000119F070F941EC130BB0EE439A8A
:10345000F0EE639A20001AF05FFA41EC120BB0EE26
:10346000493AF0EE693A16F5E25090ED001BB0EEE5
:10347000480AF0EE680A300008F009FB022041F625
:103480009831705400F093BE16F16C0019F02BFCCB
:10349000012801D1012000E00020C0B2002816D090
:1034A000002116F16C001AF039FB002041F698312A
:1034B0007054002041F67821705400208DF80600E9
:1034C0000DF1060116F10C001AF09FF9D1E216F584
:1034D000AE7019F008FC040041F2687030440FF03F
:1034E0008CFD844201D0012000E00020C0B2002801
:1034F00009D016F5AE7019F0F6FB010041F26870C4
:1035000030440FF071FD16F5B47019F0ECFB0400B7
:1035100041F2D07030440FF070FD844201D00120A0
:1035200000E00020C0B2002809D016F5B47019F0F0
:10353000DAFB010041F2D07030440FF055FD16F572
:103540009C7019F0D0FB040041F6380030440FF0B5
:10355000A6FC844201D0012000E00020C0B2002877
:1035600027D016F59C7019F0BEFB010041F638001B
:1035700030440FF08BFC16F59C7019F0B4FB012859
:1035800001D1012000E00020C0B2002809D042F2A1
:10359000B800304490ED000B16F5A75011F0D1FEA5
:1035A00007E016F5035090ED000B16F5A75011F04B
:1035B000C8FE16F1E40019F096FB040041F69000F5
:1035C00030440FF06CFC844201D0012000E0002068
:1035D000C0B2002809D016F1E40019F084FB010004
:1035E00041F6900030440FF051FC16F1F00019F054
:1035F0007AFB040041F6E80030440FF050FC8442AE
:1036000001D0012000E00020C0B2002809D016F14E
:10361000F00019F068FB010041F6E80030440FF0BB
:1036200035FC16F1FC0019F05EFB040016F5CA50DB
:103630000FF0E3FC844201D0012000E00020C0B282
:10364000002808D016F1FC0019F04DFB010016F51A
:10365000CA500FF0C9FC16F5847019F044FB040041
:1036600041F6A81030440FF0C8FC844201D001207C
:1036700000E00020C0B2002809D016F5847019F0CF
:1036800032FB010041F6A81030440FF0ADFC16F5F6
:103690008A7019F028FB040041F6102030440FF026
:1036A000ACFC844201D0012000E00020C0B2002820
:1036B00009D016F58A7019F016FB010041F61020AA
:1036C00030440FF091FC41F2687030441DF07AFDF7
:1036D00041F67131715CC0B2814201D0012000E03D
:1036E0000020C0B2002807D041F67130315C41F2B1
:1036F000687030441AF028FA41F2D07030441DF05E
:1037000061FD41F67131715CC0B2814201D001208E
:1037100000E00020C0B2002807D041F67130315CD3
:1037200041F2D07030441AF00FFA16F5CA501DF06D
:1037300049FD41F67131715CC0B2814201D0012076
:1037400000E00020C0B2002806D041F67130315CA4
:1037500016F5CA501AF0F8F941F6A81030441DF0D9
:1037600031FD41F67131715CC0B2814201D001205E
:1037700000E00020C0B2002807D041F67130315C73
:1037800041F6A81030441AF0DFF941F61020304419
:103790001DF018FD41F67131715CC0B2814201D05B
:1037A000012000E00020C0B2002807D041F67130AF
:1037B000315C41F6102030441AF0C6F916F5D47089
:1037C00019F091FA040016F5A2500FF0E0FDC0B216
:1037D000844201D0012000E00020C0B200281CD0AB
:1037E00016F5D47019F07FFA002801D0012000E00E
:1037F0000020C0B2002808D016F5A2500FF080FDBE
:1038000016F5A7501DF0E1FC07E016F5A2500FF0E9
:103810009BFD16F5A7501DF0D8FC16F5DE701AF0CA
:103820005DF8040016F5A2500FF066FF844201D047
:10383000012000E00020C0B2002835D016F5DE706F
:103840001AF04CF81AF068F841EC100B16F5A2507B
:103850000FF056FE16F5A7501DF0B7FC16F5A25056
:103860000FF0F6FE8DED440B44A916F5DA701AF050
:1038700003F816F5DE701AF031F8040016F5A250C0
:103880000FF03AFF844201D0012000E00020C0B2D6
:10389000002809D016F5A2500FF02EFF119011A9A3
:1038A00016F5DE701AF053F916F5DA7019F0BAFF52
:1038B000B0EE408AF0EE608A16F5A2500FF0C8FE16
:1038C00053EC182B51EC100B19F010F801D001201B
:1038D00000E00020C0B2002839D016F5DA7019F0E7
:1038E000A1FF16F5A2500FF06BFD16F5A7501DF0C5
:1038F0006CFC16F5A2500FF0FFFE109010A916F503
:10390000DE701AF024F916F5DA7019F08BFFB0EEBC
:10391000408AF0EE608A16F5A2500FF099FE53EC43
:10392000182B51EC100B18F0E1FF01D0012000E042
:103930000020C0B200280AD016F5A2500FF088FE71
:103940008DED420B42A916F5DA7019F095FF16F5C8
:10395000CC7019F0B7F9040016F5A2500FF0D4FEA0
:10396000E4B2C0B2844201D0012000E00020C0B225
:1039700000280DD016F5CC7019F0A4F90100C9B2D9
:1039800016F5A2500FF030FE16F5A7501DF01DFCE5
:1039900016F5EB50007800280BD0002016F5EB51FF
:1039A000087041F6305006EB000116F5A75011F0F3
:1039B000BFF816F5217019F096F9002801D0012002
:1039C00000E00020C0B2002804D016F5A7501DF07A
:1039D00000FC03E016F5A7501DF0F0FB16F53E7055
:1039E00019F081F9012801D1012000E00020C0B2C6
:1039F000002808D016F5A7501DF0EFFB002116F5A2
:103A00003E701AF08BF816F5A7501DF0CFF801287C
:103A100001D1012000E00020C0B2002803D016F53B
:103A2000A75010F083F816F51B7019F05CF9012807
:103A300001D1012000E00020C0B2002809D00021FF
:103A400016F51B701AF06AF8032041F6983170548D
:103A50000FE016F52F7019F046F9012801D1012069
:103A600000E00020C0B2002803D0052041F69831C4
:103A700070549CE316F5A7501DF098F8012801D169
:103A8000012000E00020C0B2002828D016F52170E7
:103A900019F029F9002801D0012000E00020C0B26F
:103AA000002804D016F5A7501DF093FB03E016F58F
:103AB000A7501DF08EFB012041F67C21705016F1BD
:103AC0001C0019F0FFF8C0B216F5D451086016F5C5
:103AD000A75010F02BF8042041F69831705466E39B
:103AE00016F5A7501DF062F8012801D1012000E071
:103AF0000020C0B2002826D041F67C20305816F5B0
:103B0000D4510968884212D241F67C203058401CBA
:103B100041F67C21705041F67C2030588DF805002C
:103B20000DF1050116F1A00019F06FFE07E016F582
:103B3000A7501DF043FB022041F69831705416F552
:103B4000A7500FF0F3FF32E3012041F628717054C3
:103B500016F5816019F066FE41F63870304480ED4C
:103B6000000B16F5826019F05DFE16F5FA5080ED37
:103B7000000B16F5836019F055FE41F6487030448D
:103B800080ED000B16F5856019F04CFE41F678705B
:103B9000304480ED000B16F5866019F043FE16F5F3
:103BA000FC5080ED000B16F5896019F03BFE41F6E4
:103BB0009070304480ED000B012116F5A75010F0F5
:103BC00089F841F65070304480ED000B16F57070A6
:103BD00019F028FE41F68830304480ED000B16F5D0
:103BE000A2500FF089FD040016F5DC50D0E9002347
:103BF00041F688303044D0E9000118F095FD41ECE1
:103C0000130BB0EE438AF0EE638A200019F084FEB5
:103C100041EC120BB0EE483AF0EE683A16F5E2507D
:103C200090ED001B41F65070304490ED000B3000D9
:103C300007F02DFF19F084FDDFF8781D1CF053F913
:103C400028491CF0B5FA062041F698317054AEE2CE
:103C500016F16C0019F047F8012801D1012000E0AD
:103C60000020C0B200281ED0002116F16C0019F00F
:103C700055FF002041F69831705419F061FDDFF8CE
:103C8000381D1CF030F917491CF092FA002041F65B
:103C90007821705400208DF8040001A916F10C0061
:103CA00019F0B3FDD2E116F52F7019F01CF80028B9
:103CB00001D1012000E00020C0B200281AD002206B
:103CC00041F698317054002041F62871705419F073
:103CD00037FDDFF8E41C1CF006F902491CF068FA15
:103CE000B4E100BF858406082C96060850960608A5
:103CF0007496060816F5DA7019F094FDB0EE408A55
:103D0000F0EE608A16F5A2500FF0A2FC53EC182BCF
:103D100051EC100B18F0EAFD01D0012000E000206A
:103D2000C0B200280AD016F5A2500FF091FC8DED1C
:103D3000400B40A916F5DA7019F09EFD16F5DE70FD
:103D400019F0CCFD040016F5A2500FF0D5FC84420A
:103D500001D0012000E00020C0B2002809D016F5F3
:103D6000A2500FF0C9FC0F900FA916F5DE7019F0E4
:103D7000EEFE16F5EB500078002849D0002016F52D
:103D8000EB51087041F6305006EB000116F5A750D4
:103D900010F0CEFE012116F5A7500FF09BFF41F663
:103DA0005070304480ED000B16F5707019F03AFD3C
:103DB00041F68830304480ED000B16F5A2500FF02C
:103DC0009BFC040016F5DC50D0E9002341F6883056
:103DD0003044D0E9000118F0A7FC41EC130BB0EE21
:103DE000438AF0EE638A200019F096FD41EC120B35
:103DF000B0EE483AF0EE683A16F5E25090ED001B4E
:103E000041F65070304490ED000B300007F03FFE5B
:103E100041F62950305C002841D0002041F629515C
:103E20007054002116F5A7500FF054FF41F6507062
:103E3000304480ED000B16F5707019F0F3FC41F67C
:103E40008830304480ED000B16F5A2500FF054FC82
:103E5000040016F5DC50D0E9002341F688303044E8
:103E6000D0E9000118F060FC41EC130BB0EE438A7E
:103E7000F0EE638A200019F04FFD41EC120BB0EE1A
:103E8000483AF0EE683A16F5E25090ED001B41F624
:103E90005070304490ED000B300007F0F8FD16F53F
:103EA000357018F020FF012801D1012000E000202A
:103EB000C0B2002812D0002116F5357019F02EFE80
:103EC00019F03EFCDFF8801C1CF00DF8DFF87C1CBC
:103ED0001CF06EF9072041F69831705416F5A75082
:103EE0001CF064FE012801D1012000E00020C0B2D6
:103EF000002800F0AB8016F5A7500FF017FE16F55E
:103F0000E25090ED000B41F6587030441CF0D4FDA7
:103F10008DED180B18A916F5876019F0ADFC9DED15
:103F2000180B41F6986030441CF02EFBB0EE408A2E
:103F3000F0EE608AB0EE480AF0EE680A16F5A2507C
:103F40000FF03EFAB0EE480AF0EE680A16F5FD50A2
:103F50001CF073FDB0EE409AF0EE609AB0EE490AA4
:103F6000F0EE690A300007F0CDFE8DED220B22A99C
:103F700016F5886019F080FC16F5F75116F5846087
:103F800019F07AFCB0EE480AF0EE680A41F6B87013
:103F900030441DF02BF941F6B87030441DF0A2F901
:103FA000300007F0AFFE8DED200B20A916F58A60DA
:103FB00019F062FC41F6B87030441DF09DF93000F4
:103FC00007F0A0FE8DED1E0B1EA916F58B6019F0F3
:103FD00053FC41F6B87030441DF084F98DED1C0B94
:103FE0001CA916F58C6019F047FC41F6B8703044F6
:103FF0001DF082F98DED1A0B1AA916F58D6019F0D6
:104000003BFC41F6B87030441DF076F9B0EE40AAA2
:10401000F0EE60AA16F5916019F004FC51EC1A0B51
:1040200053EC102B1DF098F901D2012000E0002084
:10403000C0B2002805D0012116F5387019F06EFDC8
:1040400004E0002116F5387019F068FDAFE016F5B0
:10405000A2500FF0A1FBC0B2002801D0012000E067
:104060000020C0B2002800F081809FED410B16F5C2
:10407000A2500FF045FA012116F5A7500FF02AFEC5
:1040800041F65070304480ED000B16F5707019F059
:10409000C9FB41F68830304480ED000B16F5A25084
:1040A0000FF02AFB040016F5DC50D0E9002341F69E
:1040B00088303044D0E9000118F036FB41EC130B96
:1040C000B0EE438AF0EE638A200019F025FC41EC43
:1040D000120BB0EE483AF0EE683A16F5E25090ED69
:1040E000001B41F65070304490ED000B300007F09B
:1040F000CEFC16F5F75000220023C0E9002341F65C
:10410000C860304400220023C0E9002316F5F650B1
:1041100000220023C0E9002341F6D0603044002291
:104120000023C0E9002316F5FB5000220023C0E95C
:10413000002341F66870304400220023C0E90023C8
:1041400016F5FD5000220023C0E9002341F6A870B7
:10415000304400220023C0E9002341F6B870304407
:104160001DF011F9082041F6983170541FE000BF8E
:10417000000000000000000016F5A2500FF00CFB3C
:10418000C0B2002801D0012000E00020C0B2002809
:104190000DD019F0D5FADFF8C01C1BF0A4FEDFF833
:1041A000AC191CF005F8062041F69831705407F060
:1041B0003BBA41F69930305C002817D0022800F055
:1041C000A980C0F07F80042800F03881C0F0FA8018
:1041D000062800F08C81C0F06F81082800F0F7817C
:1041E000C0F0A581092800F01A822CE219F0A8FA83
:1041F000DFF858191BF0DCFF19F0A2FADFF8741C85
:104200001BF071FEDFF844191BF0D2FF19F098FA89
:10421000DFF8481C1BF067FEDFF830191BF0C8FF01
:1042200019F08EFADFF84C1C1BF05DFEDFF81C194C
:104230001BF0BEFF16F5D07018F044FDC0B264212B
:10424000484341F68821705041F6882030580328B1
:104250000ED2032041F68821705041F68820305854
:104260008DF803000DF1030116F5D07019F0CDFAA9
:1042700016F11C0018F026FD16F5DB51087016F536
:10428000037019F0CFFA16F5DD5080ED000B16F52E
:10429000077019F0ABFA41F62831705041F628301A
:1042A00030580E900EA815F067FDCDE93E013EA9ED
:1042B00041F6B030304418F0B6F8012041F699319B
:1042C0007054C0E130001DF06DF8C0B2002801D07C
:1042D000012000E00020C0B200281AD0012141F2E4
:1042E000687030440EF080FE012116F5CA500EF0C1
:1042F0007BFE002141F6102030440EF075FE0021B7
:1043000041F6E80030440EF0C1FD022041F699313B
:10431000705498E130001DF045F8C0B2002801D07B
:10432000012000E00020C0B200284AD0002041F661
:10433000A8317054002041F67C21705041F6902045
:10434000304416F5DD5191ED000B80ED000B41F688
:104350008820305840081DF069F802000B0041F633
:1043600090203044D0E900011DF070F841F6902211
:104370003244C2E9000119F0E3F9DFF8E41A1BF056
:10438000B2FD41F6882171581BF0A8FE19F0D8F94A
:10439000DFF8B8171BF00CFF19F0D2F9DFF8C41AD8
:1043A0001BF0A1FD41F69021314491ED000B1DF071
:1043B000BEF8DFF898171BF0FBFE032041F6993199
:1043C000705440E116F5A2500FF0E6F9C0B2002893
:1043D00001D0012000E00020C0B200282DD041F61D
:1043E0009020304490ED000B16F5A2500FF088F8A5
:1043F00041F6B030304418F021F819F0A1F9DFF897
:104400004C171BF0D5FEDFF8601A1BF06CFD0400A2
:1044100016F5077019F0EAF9010020001BF05EFEA6
:1044200019F08EF966A11BF05EFDDFF820171BF076
:10443000BFFE042041F69931705404E141F6B030DA
:10444000304418F008F8C0B2002801D0012000E084
:104450000020C0B200281ED041F6B030304417F022
:10446000F7FF16F5EB50007800280BD0002016F56A
:10447000EB51087041F6305006EB000116F5A750DD
:1044800010F056FB16F5A7501CF0A3FE062041F6CF
:10449000993170540FE016F5A7501CF087FB0128E6
:1044A00001D1012000E00020C0B2002803D016F5A1
:1044B000A7500FF03BFBC6E016F5A2500FF06CF9C9
:1044C000C0B2002801D0012000E00020C0B20028C6
:1044D0000CD041F69020304490ED000B16F5A25020
:1044E0000FF00EF8062041F699317054ABE016F546
:1044F000A2500FF051F9C0B200280BD016F5A7500A
:104500001CF054FB012801D0012000E0002090F0B5
:10451000010000E00020C0B2002807D016F5A75027
:104520000FF004FB072041F6993170548BE016F52B
:10453000A7501CF03BFB012801D1012000E0002026
:10454000C0B2002842D041F6A830305C401C16F5BD
:10455000DB51097888420BDA41F6A830305C401C08
:1045600041F6A8317054062041F6993170542DE07F
:10457000002041F6A831705441F67C203058401C90
:1045800041F68821715888421CD241F67C2030586F
:10459000401C41F67C21705041F690203044D0E917
:1045A00000230020DFF8C4181DF034F841F69022F3
:1045B0003244C2E90001052041F69931705405E00A
:1045C00020630000082041F6993170543BE0300030
:1045D0001CF0E8FEC0B2002801D0012000E000205D
:1045E000C0B200281AD0002141F2687030440EF0A9
:1045F000FBFC002116F5CA500EF0F6FC002141F636
:10460000102030440EF0F0FC002141F6E800304468
:104610000EF03CFC092041F69931705413E0300053
:104620001CF0C0FEC0B2002801D0012000E0002034
:10463000C0B2002807D0002041F678217054002035
:1046400041F69931705416F16C0018F04CFB0128BA
:1046500001D1012000E00020C0B2002829D019F0CB
:104660006FF8DFF810181BF03EFCDFF8E0141BF0C9
:104670009FFD19F065F8DFF8F8171BF034FCDFF840
:10468000CC141BF095FD002116F16C0019F046FAD0
:10469000002041F699317054002041F67821705481
:1046A00000208DF802000DF1020116F10C0019F046
:1046B000ACF806F0B9BF41F67A20305C002800F073
:1046C000B380012800F03784022800F065840328B5
:1046D00000F0B184042800F0FA84052800F0468533
:1046E000062800F09F85072800F0AC86082800F017
:1046F000C086092800F0E5870A2800F0F9870B2812
:1047000001F094800C2801F0B1800D2801F03E8169
:104710000E2801F094810F2801F0A781102801F0E4
:10472000B681112801F05C81122801F075811328EF
:1047300001F00483142801F0E884152802F0248095
:10474000162802F03880172802F09380182802F00B
:104750002581192802F039811A2802F0D1811B28FD
:1047600002F0F3821C2802F05A831D2802F0A18473
:104770001E2802F0D2841F2802F01585202802F09E
:10478000B585212802F0CB85222802F0DE85242879
:1047900003F04D80252803F0DD82262803F0F68201
:1047A000272803F00C83282803F00F83292803F01F
:1047B00024842A2803F0F4862B2803F06F872C2802
:1047C00003F08F872D2804F045802E2804F0DC802C
:1047D0002F2804F0FD81302804F0BD83312804F037
:1047E0008784322804F0AB84332804F0BC84342856
:1047F00004F0E684352804F0FC84362804F00385B0
:10480000372804F0DA85382804F08487392804F042
:10481000B8873A2805F00E803B2806F026863C280B
:1048200006F09D8606F0AFBE18F08AFFC7491BF060
:10483000BFFC18F085FFDFF83C161BF054FBC349A2
:104840001BF0B6FC18F07CFFDFF8341E1BF04BFBAE
:10485000BE491BF0ADFC18F073FFDFF818161BF013
:1048600042FBBA491BF0A4FC18F06AFFDFF8141EE3
:104870001CF08CFF16F1B40018F0D4FF41F6D820DC
:10488000304480ED000B16F1BC0018F0CBFF41F670
:10489000D020304480ED000B002041F6C821705438
:1048A00016F5FE7018F0A2FF0D900DA817F026FD6A
:1048B00041F618323244C2E9000116F5787018F05A
:1048C00095FF0C900CA817F019FD16F5D952C2E906
:1048D000000141F618303044D0E9002316F5A2500B
:1048E0000EF01AFF16F5A2501CF05AFF16F50170D3
:1048F00018F07CFF0B900BA817F000FD41F610326A
:104900003244C2E9000141F610303044D0E90023BE
:1049100041F2687030440EF083FB41F610303044B1
:10492000D0E9002341F2D07030440EF079FB41F61B
:1049300010303044D0E9002341F6380030440EF006
:10494000B9FA41F610303044D0E9002341F6900026
:1049500030440EF0AFFA41F610303044D0E9002375
:1049600041F6E80030440EF0A5FA41F6103030442C
:10497000D0E9002316F5CA500EF052FB41F6103074
:104980003044D0E9002341F6A81030440EF048FB33
:1049900041F610303044D0E9002341F61020304475
:1049A0000EF03EFB16F5157018F09DF9002805D0A5
:1049B000012004E018F1060820F10608002041F665
:1049C0007131705441F67130315C16F56A6019F03E
:1049D000A5F841F67130305C00281CD0012141F26D
:1049E0006870304419F0B0F8012141F2D0703044C1
:1049F00019F0AAF8012116F5CA5019F0A5F80121FD
:104A000041F6A810304419F09FF8012141F610201A
:104A1000304419F099F841F6103006EB000116F514
:104A2000F45017F000FD16F5D07018F04BF9C0B235
:104A300041F68821705016F5727018F04FFF41F65C
:104A40008C21705016F5747018F048FF41F67841CB
:104A5000705016F5767018F041FF41F67C417050A9
:104A600016F5727018F03AFF41F68C2171588142A8
:104A700001D0012000E00020C0B200280FD041F694
:104A80008C2006EB000116F5727019F060F841F603
:104A90008C2006EB000116F5726019F058F816F537
:104AA0001E7018F020F9002801D0012000E000203D
:104AB00016F5E351087042F2A000304400220023B2
:104AC000C0E9002341F6643030441CF06DFE41F62D
:104AD000303030441CF083FE41F63C3030441CF052
:104AE0007EFE16F11C0018F0EDF816F5DB5108708B
:104AF00016F5DB50007802282ADB16F5DB5116F19B
:104B0000A00018F082FE18F01BFEDA491BF0EBF94A
:104B10000E491BF04DFB18F013FEDFF8F81C1BF0DC
:104B2000E2F918F00DFE16F5DB5109781CF072FE63
:104B300006491BF03DFB18F003FECE491BF0D3F9EC
:104B400002491BF035FB0CE0D0E40608858406081A
:104B500001208DF801000DF1010116F1A00018F0FF
:104B600054FE16F1600018F0BEF8002801D00120B4
:104B700000E0002041F67031705441F67030315C35
:104B800016F1600018F0CAFF16F5A7501CF0C6FE1B
:104B900041F6685006EB000116F5A7500FF0C8FF6C
:104BA00018F0CEFDDFF8701C1BF09DF9DFF86C1CCF
:104BB0001BF0FEFA16F5077018F018FE41F62831C2
:104BC00070504FF47A700A900AA817F097FBCDE95D
:104BD0003C013CA941F6B030304417F024FC0020E1
:104BE00041F6C8317050002041F6D031705000209D
:104BF000059005A916F50F7018F09FFE41F6D83004
:104C000030440CF04CFF41F62830315841F6D83092
:104C100030440CF081FF16F5C67018F064F80028D7
:104C200001D0012000E0002041F61841705441F607
:104C30005040304400220023C0E9002341F6584090
:104C4000304400220023C0E9002341F68440304470
:104C50001CF068FE002041F674417050002016F5EB
:104C6000E551087016F57A7018F0DCFD41F6A840A1
:104C7000304480ED000B16F57C7018F0D3FD41F642
:104C8000B040304480ED000B16F5D55000220023D3
:104C9000C0E9002341F6D020304490ED001B41F6DE
:104CA000D820304490ED000B12F07CF941F6A8209A
:104CB000304480ED000B16F5A25018F0B5FE41F619
:104CC000A820304490ED008B51EC180B31F00041DE
:104CD00041EC110B51EC100B53EC112B1CF0B6FBFB
:104CE00041EC120B9FED641B41F6B820304490ED6F
:104CF000000B1CF032FE41F6B820304480ED000B72
:104D000016F51F6018F08EFD42F2E000304480ED91
:104D1000000B18F015FDDFF8081B1BF0E4F818F085
:104D20000FFDDFF8001B1CF031FDDFF858191CF0F7
:104D30002DFD0400082148A818F03CFDDDE94801DC
:104D4000CDE9E801E8A9200018F040FD18F0F8FCD2
:104D500042F2E001314491ED000B1CF0E8FBDFF87A
:104D6000BC1A1BF025FA012142F2E80030441CF085
:104D700020FE16F5537017F0B6FF002801D0012071
:104D800000E00020C0B2002839D018F0D9FCDFF8CC
:104D9000981A1BF0A8F8DFF8841A1BF009FA16F12C
:104DA000CC0018F03FFD51EC100B41F6D8223244F4
:104DB000D2E900231CF0D0FA13D316F1CC0018F07E
:104DC00031FD51EC100B41F6D0223244D2E90023E0
:104DD0001CF0C2FA01D3012000E0002090F0010095
:104DE00000E00120C0B2002804D0012041F6842157
:104DF00070541AE0022041F68421705415E018F036
:104E00009FFCDFF8A81D1BF06EF8DFF8101A1BF0EE
:104E1000CFF916F52D7017F055FF0100C9B230001B
:104E20000CF00EFE41F68421705418F089FCDFF876
:104E3000801D1BF058F841F68421715C1CF0EAFCDF
:104E400041F68420305C00281AD0012823D00228A3
:104E50002CD0042835D03FE0DCE4060898960608FC
:104E60009CDC060864C6060828F106080000F03F2E
:104E7000BC9606082C960608000000000000000002
:104E800018F05EFCDFF8301D1BF02DF8DFF88C19F0
:104E90001BF08EF92AE018F053FCDFF8201D1BF000
:104EA00022F8DFF878191BF083F91FE018F048FCAE
:104EB000DFF80C1D1BF017F8DFF860191BF078F90C
:104EC00014E018F03DFCDFF8FC1C1BF00CF8DFF8D8
:104ED0004C191BF06DF909E018F032FCDFF8E81C02
:104EE0001BF001F8DFF834191BF062F942F21800E8
:104EF00030441CF064FD012042F6A811705442F6C3
:104F0000A810315C41F6D83030440CF0AAFE1421D0
:104F100041F6D83030440CF013FF002041F6B84180
:104F20007054002041F6B9417054012041F67A21B5
:104F3000705406F028BB30001CF034FAC0B20028D0
:104F400001D0012000E00020C0B2002822D041F6AC
:104F50007030305C00280DD0002141F6380030441C
:104F60000DF094FF16F5035090ED000B16F5A750C9
:104F700010F0E7F9002141F6102030440EF034F82B
:104F8000002141F6E80030440DF080FF022041F698
:104F90007A21705406F0F7BA30001CF003FAC0B260
:104FA000002801D0012000E00020C0B2002840D03D
:104FB000012016F5E051087041F60840304417F022
:104FC000BEFA41F6C820305C002802D0012817D074
:104FD0002BE018F0B5FBDFF8401D1AF084FFDFF876
:104FE0003C181BF0E5F8012141F2D07030440DF07F
:104FF000FBFF012141F6A81030440DF0F5FF14E04D
:1050000018F09EFBDFF8141D1AF06DFFDFF80C1886
:105010001BF0CEF8012141F2687030440DF0E4FF3E
:10502000012116F5CA500DF0DFFF032041F67A2169
:10503000705406F0A8BA30001CF0B4F9C0B20028D1
:1050400001D0012000E00020C0B200283DD016F5BC
:10505000F45017F0F3F916F5017018F0C7FB00EEE5
:10506000100AB8EE400A10EE100A1CF0C3FCDFF87C
:10507000B02CDFF8B03C17F057FB1CF0DFFC08EE5B
:10508000100A18F05DFB0400022148A818F092FBFA
:10509000DDE94801CDE9DE01DEA9200018F096FB2C
:1050A00018F04EFBDFF8801C1AF01DFFB0EE480A26
:1050B0001CF0F8FCD3A11AF016FFDFF860171BF004
:1050C00077F8042041F67A21705406F05CBA16F5A0
:1050D000F45017F0C0F9C0B2002801D0012000E060
:1050E0000020C0B200283FD018F02AFBDFF83C1C9B
:1050F0001AF0F9FEDFF824171BF05AF841F6842065
:10510000305C012804D041F68420305C042804D1AE
:10511000052041F67A21705426E041F6643030448F
:105120001CF031FD00281BD141F6C820305C00285E
:1051300016D142F6B01030441CF035FD002801D0E5
:10514000012000E00020C0B2002804D00B2041F66E
:105150007A21705408E01B2041F67A21705403E054
:105160001E2041F67A21705406F00DBA16F5A250B1
:105170000EF012FBC0B2002801D0012000E0002098
:10518000C0B200284CD041F6C820305C002802D0C4
:10519000012812D02BE041F6D020304490ED001BC6
:1051A00041F6D820304490ED000B11F0FBFE41F6A3
:1051B000A820304480ED000B19E041F684403044D3
:1051C0001CF0F3FC0400641E210041F684403044CE
:1051D0001CF0FBFC90ED060B1CF006FD51EC100BD7
:1051E00091F0004141F6A8223244C2E9000116F5CF
:1051F000D950D0E9002316F5A2500EF08DFA41F6F1
:10520000A820304490ED000B16F5A2500EF078F96E
:1052100016F5A7501CF082FB062041F67A21705447
:1052200006F0B1B916F5A2500EF0B6FAC0B20028D9
:105230000BD016F5A7501BF0B9FC012801D00120B6
:1052400000E0002090F0010000E00020C0B2002843
:1052500000F0F68041F6F84006EB00010DF5F8602D
:105260000EF0A8FB01208DF8E1070DF5F86116F5A9
:10527000A7500FF05DFC16F5806018F0D3FA41F6E8
:105280003070304480ED000B16F56A7017F094FC16
:1052900041F62A71705216F56C7017F08DFC41F6CC
:1052A0002C71705216F5507017F01DFD002801D0BA
:1052B000012000E0002042F268017054002116F540
:1052C000A7500EF0B1FCB0EE408AF0EE608A41F6D5
:1052D00030703044D0E9002351EC180B17F024FA59
:1052E0001CF0B6FC0400CDF8C4470DF5F86116F5C6
:1052F000A7500FF01DFC00220DF5F86116F5A75020
:105300000FF050FCDDF8C40742F2B001705042F2D9
:10531000B00030581CF08AF853EC182B17F0F6FA4E
:1053200042F2A8023244C2E9000141F63070304432
:10533000D0E9000142F2A8023244D2E900231CF075
:1053400085F8CDE9160118F0FBF9DFF8201E1AF0F8
:10535000CAFD18F0F5F9DFF8C4141AF029FF0DF5AD
:10536000F862012116F5A7500FF04CFD18F0E8F98E
:10537000DFF8BC191AF0B7FD18F0E2F9C1491CF0CA
:1053800005FADFF8A0141CF001FA41F6307131443F
:1053900091ED000B1CF0CBF818F0D2F9BAA11AF07D
:1053A000A2FDDFF878141AF003FFDDE916010022F0
:1053B00000231BF0D1FF12D818F0C2F9DFF87419DE
:1053C0001AF091FDDFF854141AF0F2FE16F5A7500A
:1053D0000EF0ACFB082041F67A21705430E016A89C
:1053E0001CF04AFCCDE93A013AA916F5F45017F041
:1053F0001AF816F5F45017F021F818F0A1F9DFF8B3
:10540000381901E0206300001AF06DFD18F098F9DA
:105410009C491CF0BBF9DFF80C141CF0B7F99DEDAA
:10542000160B1CF084F818F08BF997A11AF05BFDAD
:10543000DFF8E8131AF0BCFE072041F67A21705419
:1054400006F0A1B816F5F45017F005F8C0B2002820
:1054500001D0012000E00020C0B2002807D016F5DE
:10546000A7500EF063FB082041F67A21705406F035
:105470008AB816F5A7501BF099FB012801D101202D
:1054800000E00020C0B2002800F0198140F6B831D9
:10549000694416F5A7500FF031FF16F5E2504DF8AC
:1054A00004CD0DF5006C9CEDEF0B5DF804CB80EDA9
:1054B000000B42F2A00030444DF804CD0DF5006C15
:1054C0009CEDF10B5DF804CB80ED000B18F038F982
:1054D0006C491CF05BF9D3491CF058F90400002119
:1054E00048A818F067F9DDE94801CDE9DC01DCA93D
:1054F000200018F06BF918F023F9DFF8481D1AF0B6
:10550000F2FC18F01DF941F6A821314491ED000B91
:105510001CF00DF8C1491AF04BFE18F011F9040007
:10552000072148A818F046F9DDE94801CDE9DA017C
:10553000DAA9200018F04AF918F002F9DFF8081D7E
:105540001AF0D1FC18F0FCF816F5E25191ED000BC1
:105550001BF0EDFF18F0F4F8ADA11AF0C4FCAF4950
:105560001AF026FE18F0ECF8DFF8E01C1AF0BBFC8D
:1055700018F0E6F8040042F2A0003044D0E900231D
:105580000020DFF8CC1C17F0CFF841EC100B200006
:105590001BF0CDFF18F0D4F8DFF8B81C1AF0A3FC0C
:1055A0009E491AF005FE18F0CBF8DFF8AC1C1AF093
:1055B0009AFC18F0C5F8DDF8E01B1AF08FFD18F022
:1055C000BFF896491AF0F4FD42F26800305C0028FA
:1055D00061D016F501500078002857D041F6A82078
:1055E000304490ED001B16F5E25090ED000B42F2B6
:1055F000180030441CF062FB16F5E250D0E90001BF
:10560000002200231CF06EFB15D216F5DC50D0E909
:1056100000010022DFF8443C17F078F941F6A82297
:105620003244D2E900231BF0F5FF41F6A8223244B0
:10563000C2E9000116E016F5DC50D0E900010022B5
:10564000DFF8183C17F062F902000B0041F6A820C1
:105650003044D0E900011BF0F9FE41F6A8223244A3
:10566000C2E9000141F6A820304490ED000B16F588
:10567000A2500DF045FF092041F67A2170541EE03A
:10568000E09606085BD4060820F10000132041F6DE
:105690007A21705413E016F5DC50D0E9002341F66E
:1056A00088303044D0E9000117F03EF841F69032DE
:1056B0003244C2E90001132041F67A21705405F00A
:1056C00062BF16F5A2500EF067F8C0B2002801D0F4
:1056D000012000E00020C0B2002807D016F5A75036
:1056E0000EF024FA0A2041F67A21705405F04BBFDF
:1056F00016F5A7501BF05AFA012801D1012000E04D
:105700000020C0B2002800F080800DF5376116F54A
:10571000A7500FF0F3FD16F5E2504DF804CD0DF54E
:10572000006C9CEDDD0B5DF804CB80ED000B18F0F8
:1057300007F8DFF82C1B1CF029F83A491CF026F872
:105740000400002148A818F035F8DDE94801CDE94A
:10575000D801D8A9200018F039F817F0F1FFDFF8C8
:10576000041B1AF0C0FB17F0EBFF41F6A8213144EF
:1057700091ED000B1BF0DBFE28491AF019FD17F024
:10578000DFFF0400072148A818F014F8DDE94801FC
:10579000CDE9D601D6A9200018F018F817F0D0FFEF
:1057A000DFF8C41A1AF09FFB17F0CAFF16F5E25192
:1057B00091ED000B1BF0BBFE17F0C2FF14A11AF015
:1057C00092FB16491AF0F4FC41F6A820304490ED03
:1057D000001B16F5E25090ED000B42F21800304429
:1057E0001CF06CFA42F2180030441CF095FA41F6B5
:1057F0009030304442F23801314491ED000B80ED9D
:10580000000B132041F67A21705405F0BCBE00BF96
:1058100020C2000078C606085C8C0608858406084D
:105820000497060869C30608A8AD060816F5A75030
:105830001BF0BCF9012801D1012000E00020C0B21A
:10584000002811D017F07CFFDFF8201A1AF04BFB6C
:10585000DFF81C1A1AF0ACFC16F5A7500EF066F92A
:105860000C2041F67A21705405F08DBE16F5A75034
:105870001BF09CF9012801D1012000E00020C0B2FA
:10588000002800F0818040F62831694416F5A750C1
:105890000FF034FD4DF804CD0DF5006C9CEDCB8B75
:1058A0005DF804CB17F04CFF0400072148A817F05F
:1058B00081FFDDE94801CDE9D401D4A9200017F02A
:1058C00085FF17F03DFFDFF8A0191AF00CFB17F069
:1058D00037FFB0EE480AF0EE680A1BF028FE17F01A
:1058E0002FFFB4A11AF0FFFADFF884191AF060FC58
:1058F00041F68420305C012804D041F68420305CDD
:1059000004280ED117F01CFFDFF85C1E1AF0EBFA2A
:10591000DFF85C191AF04CFC0D2041F67A21705426
:1059200032E09DF8680B002814D017F009FFDFF86B
:105930003C1E1AF0D8FA17F003FFDFF8341E1AF0F5
:10594000D2FADFF82C191AF033FC0D2041F67A2137
:10595000705419E017F0F4FEDFF8181E1AF0C3FABD
:1059600017F0EEFEDFF8101E1AF0BDFA17F0E8FE91
:10597000DFF8081E1AF0B7FADFF8F4181AF018FC6E
:105980001B2041F67A21705405F0FDBD16F5A2509A
:105990001BF006FF41F69020304441F6A821314427
:1059A00091ED000B80ED000B41F69820304441F65C
:1059B000B821314491ED000B80ED000B002041F641
:1059C0007C217050132016F5D451086016F5A250B2
:1059D0000DF096FC112041F67A21705405F0D3BDEC
:1059E00016F5A2500DF0D8FEC0B2002801D001205B
:1059F00000E00020C0B200280CD041F690203044D6
:105A000090ED000B16F5A2500DF07AFD122041F634
:105A10007A21705405F0B7BD16F5A2500DF0BCFE0A
:105A2000C0B2002801D0012000E00020C0B2002850
:105A300003D00E2041F67A21705405F0A4BD16F56E
:105A4000A7501BF0B3F8012801D1012000E000208D
:105A5000C0B2002807D016F5A7500EF067F80F2047
:105A600041F67A21705405F08EBD16F5A7501BF053
:105A70009DF8012801D1012000E00020C0B20028DB
:105A800003D0102041F67A21705405F07CBD0DF54D
:105A90002E6116F5A7500FF031FC16F5E2504DF8C7
:105AA00004CD0DF5006C9CEDB90B5DF804CB80EDD9
:105AB000000B41F67C203058401CCDF8E80641F63A
:105AC00090203044D0E9000118F082F8CDF8EC06BF
:105AD00041F698203044D0E900011CF0B9F8CDF827
