:020000040800F2
:1000000050EA002059A8050823080208330802080E
:1000100043080208530802086308020800000000B1
:10002000000000000000000000000000730802084B
:10003000830802080000000093080208A3080208D1
:10004000290C0208290C0208290C0208290C0208B4
:10005000290C0208290C0208B3080208290C02081E
:10006000290C0208CF080208290C0208290C0208F2
:10007000290C0208290C0208290C0208290C020884
:10008000290C0208290C0208290C0208290C020874
:10009000290C0208290C0208290C0208EB080208A6
:1000A000290C02087F090208290C0208290C020801
:1000B000290C0208BF090208290C0208290C0208B1
:1000C000290C0208290C0208290C0208290C020834
:1000D000290C0208490B0208590B0208690B020897
:1000E000CF090208290C0208290C0208790A020823
:1000F000AB0A0208290C0208DF0A0208290C0208D0
:10010000290C0208790B0208290C0208290C0208A4
:10011000890B0208990B0208290C0208290C020815
:10012000A90B0208B90B0208C90B0208D90B020877
:10013000290C0208290C0208290C0208290C0208C3
:10014000290C0208290C0208290C0208F90B0208E4
:10015000290C0208E90B0208290C0208090C020804
:10016000290C0208290C0208290C0208290C020893
:10017000290C0208190C0208290C0208290C020893
:10018000290C020880B516480078002806D1002105
:1001900014480CF087FE01201149087012480078BD
:1001A000002806D1002111480CF07CFE01200E49E8
:1001B00008700F480078002806D100210D480CF087
:1001C00071FE01200A4908700B480078002806D10A
:1001D00000210A480CF066FE01200749087001BDA5
:1001E000DF99002098990020E0990020A099002034
:1001F000E19900209C990020E29900209499002028
:1002000070B52DED048BE6B00400150021600023CD
:1002100000220021201D0CF047FEC4F8BC592068C4
:1002200010F5A47114F51C600EF080F8206810F52C
:1002300090700090206810F58873206810F5807227
:10024000012104F6082011F0E1FF14F5256012F0F9
:1002500035FA14F5296012F04BFB04F6AC2012F0CD
:100260006DFB04F6B82012F069FB04F6C42012F00E
:1002700065FB14F52D6012F06BFB002114F5366060
:1002800012F002FC04F6643012F08BFC002214F52C
:100290003761201D12F070FD80080200206810F107
:1002A000980114F5376013F080FC0120219021A8FB
:1002B00013F086FFCDE90401402002900020019058
:1002C000012000904FF48053206810F1D002206884
:1002D00010F54C7104F6384015F0CBFA00230022DB
:1002E00004F6384104F6985015F012FB04F69852C3
:1002F00004F6384141F26C30204408F031FF002010
:100300000290206810F5EA700190206810F5E27004
:100310000090206810F5DA73206810F5D27220681A
:1003200010F5417141F27030204415F065FE41F244
:10033000703004EB000141F2B83020440DF0FCFCB9
:10034000206810F55773206810F5AA72206810F520
:10035000367141F2584020440EF09DF86420209000
:1003600020A816F06BF8CDE92A012AA941F298607D
:10037000204416F01FF94FF4FA701F901FA816F0D2
:100380005DF8CDE9280128A941F2A860204416F0C3
:1003900011F94FF47A701E901EA816F04FF8CDE9AF
:1003A000260126A941F2B860204416F0C5F80020C5
:1003B00041F2D0616054DFF88C1B5FA816F0D2F9CF
:1003C00064201D901DA816F039F800220492CDE992
:1003D0000201002000905FAB206810F501722068D8
:1003E00010F5057141F2D86020440DF059FB5FA86B
:1003F00016F0C8F9DFF8501B58A816F0B3F96420BE
:100400001C901CA816F01AF800220492CDE90201F3
:100410000020009058AB206810F50972206810F594
:100420000D7114F5BA500DF03BFB58A816F0AAF95F
:10043000DFF8181B51A816F095F901230200206877
:1004400010F5117141F2A87020440DF097FA51A8EF
:1004500016F098F9DFF8F81A4AA816F083F9002385
:100460000200206810F5157114F5C0500DF086FAE1
:100470004AA816F087F9DFF8DC1A43A816F072F9DB
:1004800000230200206810F5197141F6580020443D
:100490000DF074FA43A816F075F9DFF8BC1A3CA801
:1004A00016F060F964201B901BA815F0C7FF00220E
:1004B0000492CDE90201002000903CAB206810F5C9
:1004C0001D72206810F5217141F6B00020440DF036
:1004D000E7FA3CA816F056F9DFF8801A35A816F0AE
:1004E00041F964201A901AA815F0A8FF002204927E
:1004F000CDE902010020009035AB206810F525728F
:10050000206810F5297141F6181020440DF0C8FA42
:1005100035A816F037F9DFF8481A2EA816F022F998
:100520006420199019A815F089FF00220492CDE9E2
:100530000201002000902EAB206810F52D7220687B
:1005400010F5317114F5CC500DF0AAFA2EA816F062
:1005500019F9002041F6E8116054002041F6E91134
:100560006054002041F6EA116054002041F6EC117D
:100570006050142041F6F0116050022041F6F41151
:100580006054032041F6F8116050012041F6FC113F
:10059000605014F5D05000220023C0E9002341F63A
:1005A0000820204400220023C0E9002341F6102047
:1005B000204400220023C0E9002341F618202044F3
:1005C00000220023C0E9002312269FED1A8B35007C
:1005D000002E00D56D429FED199B07E051EC180BE2
:1005E00053EC182B16F0E2F841EC180BE80707D58E
:1005F00051EC190B53EC182B16F0D8F841EC190BF1
:100600006D08002DEAD1002E20D553EC192B0020C7
:10061000002116F0A9F902D19FED0A9B16E00020F7
:10062000DFF8601E53EC192B16F0AEF941EC190BF4
:100630000CE000BF000000000000004000000000CF
:100640000000F03F000000000000F07F14F5D150E2
:1006500080ED009B002041F62821605441F63020B7
:1006600020440022DFF81C3EC0E9002341F6382078
:1006700020440022DFF80C3EC0E9002314F5D250DC
:1006800000220023C0E9002341F648202044002234
:100690000023C0E9002341F650202044002200231B
:1006A000C0E9002341F65820204400220023C0E97D
:1006B000002314F5D35000220023C0E9002341F6A3
:1006C0006820204400220023C0E900236420189001
:1006D00018A815F0B3FE41F670222244C2E90001C9
:1006E0006420179017A815F0A9FE41F6782222443D
:1006F000C2E900016520169016A815F09FFE14F5BA
:10070000D452C2E90001052041F688216050002042
:1007100041F68C21605041F69020204416F057FAA3
:1007200041F69C20204416F052FA41F6A8202044BD
:1007300000220023C0E9002341F6B020204400221B
:100740000023C0E9002341F6B82020440022002302
:10075000C0E90023012014F5D651087041F6C420E9
:10076000204416F03CFA002041F6D02160540020CD
:1007700041F6D121605441F6D820204400220023C4
:10078000C0E9002314F5D750DFF8FC2CDFF8FC3C5F
:10079000C0E90023002041F6E8216054002041F622
:1007A000E921605441F6F020204400220023C0E9F2
:1007B0000023002041F6F8216054002014904FF4EB
:1007C0007A70159015AA14A914F5D85015F084FE66
:1007D000002041F618316050002041F61C31605075
:1007E000002014F5D9510860002041F624316050F2
:1007F00041F6283020440BF008FF002041F650312C
:1008000060544FF47A70139013A815F017FECDE9D9
:10081000240124A941F65830204415F0CBFE0020D5
:1008200041F66831605441F68830204400220023AC
:10083000C0E9002341F69030204400220023C0E9A3
:10084000002341F69830204400220023C0E9002311
:1008500014F5DD5000220023C0E9002341F6A83042
:10086000204400220023C0E90023002041F6B031DB
:10087000605441F6B830204400220023C0E9002330
:10088000002014F5DE510860002041F6C4316050AC
:10089000012041F6C8316050052041F6CC3160504E
:1008A000002041F6D031605041F6D430204416F09B
:1008B0009EF914F5DF5016F08AF9022041F6EC316A
:1008C0006050002041F6F031605441F6F830204489
:1008D0000022DFF8B03BC0E9002314F5E05000220D
:1008E000DFF8A03BC0E90023002041F60841605436
:1008F000002041F609416054002014F5E2510870CF
:10090000002041F678416054002041F6794160545E
:10091000002041F6B0416054002041F61851605467
:10092000002014F5EC51087041F6702004EB000132
:1009300041F6C850204415F0FFFD002041F6386113
:10094000605414F5F25000220023C0E9002341F660
:100950004860204400220023C0E9002341F6506093
:10096000204400220023C0E9002341F658602044BF
:1009700000220023C0E9002314F5F35000220023D5
:10098000C0E9002341F68860204400220023C0E92A
:10099000002341F69060204400220023C0E9002398
:1009A0006420129012A815F049FD41F69862224485
:1009B000C2E9000114F5F55000220023C0E900232C
:1009C0000A2041F6A861605004F69C7016F017F9F1
:1009D000050004F69C7016F012F980B20200ADB268
:1009E000290041F6C860204416F019F941F6087054
:1009F000204400220023C0E9002341F61070204467
:100A000000220023C0E9002341F618702044002290
:100A10000023C0E90023642014F5F95108604FF465
:100A20009670119011A813F0CBFB41F65872224436
:100A3000C2E9000141F6587004EB000114F5FB50C7
:100A400015F07AFD012041F67871605414F5FC50E0
:100A500000220023C0E9002341F688702044DFF81B
:100A6000302ADFF8303AC0E9002341F69070204484
:100A70000022DFF8103AC0E9002341F698702044C4
:100A800000220023C0E9002314F5FD500022DFF806
:100A9000F439C0E90023012041F6A87160504FF4F9
:100AA0007A7041F6AC71605004F2D470109041F24B
:100AB000C41020440F9004F2CC700E9041F2BC1090
:100AC00020440D9004F2C4700C9004F2BC700B90A2
:100AD00041F2B41020440A9004F2B470099004F278
:100AE000AC70089004F2A470079004F29C70069019
:100AF00004F29470059004F28C70049004F28470F7
:100B0000039004F27C70029004F2747001902068EB
:100B100010F584600090206810F58263206810F55D
:100B20008062206810F57C7141F6B07020440FF0AF
:100B300021FA42F2F02020440022DFF84839C0E9CF
:100B4000002342F2F8202044DFF84429DFF8803EF9
:100B5000C0E9002314F50C500022DFF82839C0E961
:100B6000002342F20830204400220023C0E9002381
:100B700042F2103020440022DFF8583EC0E9002342
:100B80009FED661B9FEDED0B04F2847142F218306D
:100B900020440FF0CCFE04F64C000E9014F50460D7
:100BA0000D9004F634000C9004F624000B9004F62B
:100BB0001C000A9004F61400099004F60C0008903A
:100BC00004F60400079004F2FC70069004F2F4703E
:100BD000059004F2EC70049004F2E470039004F2C7
:100BE000DC70029000200190206810F57470009075
:100BF00014F50C5090ED002B42F2F820204490EDBB
:100C0000001B42F2F020204490ED000B46232068A8
:100C100010F5587242F2183004EB000142F2303005
:100C2000204416F015F842F2303004EB000142F295
:100C3000903020440FF0D7FE41F224202044109041
:100C400041F2182020440F9041F20C2020440E90D5
:100C500041F2FC1020440D9041F2F41020440C901D
:100C600041F2EC1020440B9041F2E41020440A9031
:100C700041F2DC102044099041F2D4102044089045
:100C800041F2CC102044079004F64C00069014F575
:100C90000460059004F63400049004F614000390F8
:100CA00004F60C00029004F60400019004F2FC70BB
:100CB000009004F2F47304F2EC7204F2DC7142F27C
:100CC0006050204410F01CFA42F2B0502044002240
:100CD000DFF8B037C0E9002342F2B8502044DFF813
:100CE000B027DFF8EC3CC0E9002314F517500022D0
:100CF000DFF89037C0E9002342F2C85020440022B8
:100D00000023C0E9002342F2D05020440022DFF843
:100D1000C43CC0E900239FED931B03E000000000EA
:100D2000008041409FED850B04F2747142F2D8506F
:100D300020440FF0FCFD04F6C8000E9004F6BC0041
:100D40000D9014F50B600C9014F50A600B9004F6EE
:100D500098000A9014F50960099004F6880008903C
:100D600014F50860079004F67800069014F5076003
:100D7000059004F66800049014F50660039004F6EC
:100D80005800029000200190206810F578700090C3
:100D900014F5175090ED002B42F2B850204490ED1E
:100DA000001B42F2B050204490ED000B4523206818
:100DB00010F5667242F2D85004EB000142F2F05096
:100DC000204415F045FF42F2F05004EB000142F2DE
:100DD000506020440FF007FE41F28820204410901C
:100DE00041F27C2020440F9041F2702020440E906C
:100DF00014F593500D9041F2582020440C9041F28C
:100E0000502020440B9041F2482020440A9014F5D1
:100E10009250099041F238202044089041F230204D
:100E20002044079004F6C800069004F6BC00059024
:100E300014F50B60049014F50960039004F6880023
:100E4000029014F50860019004F67800009014F503
:100E5000076304F6680204F6580142F620002044B5
:100E600010F04EF9002042F67001605404F69852DA
:100E7000211D42F6780020440BF02AFD200000F0EE
:100E8000B1FD200000F0C3FD15F026FF039004F62D
:100E9000F86015F027FF8DF80C0014F5706015F060
:100EA00021FF8DF80D0004F6087015F01BFF8DF87A
:100EB0000E0014F5716015F015FF8DF80F0015F098
:100EC0000BFF029004F6187015F00CFF8DF8080067
:100ED00014F5726015F006FF8DF8090004F628700D
:100EE00015F000FF8DF80A0014F5736015F0FAFE96
:100EF0008DF80B0015F0F0FE019004F6387015F037
:100F0000F1FE8DF8040014F5746015F0EBFE8DF819
:100F1000050004F6487015F0E5FE8DF8060014F59E
:100F2000756015F0DFFE8DF8070004F6587015F0B7
:100F3000E9FE00281AD0012019E000BF00000000DF
:100F400000002E4098AA0508A0AA0508A8AA05082E
:100F5000B0AA0508B8AA0508C0AA0508C8AA0508C5
:100F6000D0AA050800000000008046400020C0B262
:100F70000090019B029A03992068A03015F034FF7D
:100F8000206810F1A0010DF102000EF0ABFE16F08A
:100F9000B6FB0500082101A816F0F8FBDDE9010108
:100FA000CDE92C012CA9280016F0FCFB04F6985082
:100FB00016F008FC14F5D651087014F5D65114F14A
:100FC0001C0016F00DFC14F55A6016F016FC41F6E4
:100FD0003820204480ED000B41F6382004EB00015E
:100FE00014F1B40016F02FFC04F6A85016F005FC1E
:100FF00041F63020204480ED000B41F6302004EB18
:10100000000114F1BC0016F01EFC04F6E86114F1B6
:10101000D40016F025FC14F56F6114F1DC0016F015
:101020001FFC14F55B6016F0CDFB0100C9B241F264
:10103000B83020440DF03CF841F2B83020440DF0B7
:10104000C1F88DF801000DF1010114F5CC7016F016
:10105000C7FB04F6B85016F0B5FB41F6F811605026
:1010600041F6F81020588DF80000694614F5D0704C
:1010700016F0B6FB14F55C6016F0A4FB0D900DA8FD
:1010800015F0DCF941F678222244C2E9000114F59A
:101090005C6114F5FE7016F0F4FB41F69860204494
:1010A000D0E9002341F2B83020440DF091F814F556
:1010B0006D6016F087FB0C900CA815F0BFF914F5C5
:1010C000D452C2E9000114F56D6114F56E7016F08A
:1010D000D8FB04F6C85016F075FB0B900BA815F062
:1010E000ADF941F670222244C2E9000104F6C8516C
:1010F00014F5017016F0C5FB14F55D6016F07DFB6C
:1011000041F6F020204480ED000B41F6F02004EB86
:10111000000114F5037016F096FB04F6D85016F093
:10112000C0FB16F0D5FB41F6F0222244C2E90001D3
:1011300041F6F02004EB000114F5037016F083FB78
:1011400014F55E6016F03EFB41F68821605041F6D2
:10115000882004EB000114F5077016F0CAFB20008C
:1011600008F028FA41F6104004EB000141F2584023
:1011700020440EF097F904F6647114F5767016F0B9
:101180006FFB04F6647016F038FB14F5F25080ED36
:10119000000B04F66C7114F5787016F061FB04F620
:1011A0006C7016F02AFB41F64860204480ED000B7D
:1011B00004F6747114F57A7016F052FB04F674702C
:1011C00016F01BFB41F65060204480ED000B04F646
:1011D0007C7114F57C7016F043FB04F67C7016F0FD
:1011E0000CFB41F65860204480ED000B41F2B83012
:1011F000204416F08BFB41F6F850204480ED000BA4
:1012000041F2B830204416F0CFFB14F5F05080EDD9
:10121000000B41F60860204400220023C0E90023AF
:1012200041F61060204400220023C0E9002341F66B
:101230001860204400220023C0E90023002014F598
:10124000F1510860002041F62461605041F62860A9
:10125000204400220023C0E9002341F630602044EE
:101260008B4ADFF87437C0E9002304F6847114F563
:10127000806016F0F5FA04F6847016F0BEFA41F6B6
:101280008860204480ED000B04F68C7114F58160B9
:1012900016F0E6FA04F68C7016F0AFFA41F690609C
:1012A000204480ED000B41F66860204441F68861DF
:1012B000214491ED000B80ED000B41F6706020445D
:1012C00000220023C0E9002341F678602044002278
:1012D0000023C0E90023012141F2584020440DF0D1
:1012E000EDF941F690602044D0E9002351EC100B59
:1012F00015F05CFA14F5F452C2E9000104F6947199
:1013000014F5846016F0ACFA04F6947016F075FAD1
:1013100014F5F55080ED000B04F69C7015F06FFC91
:1013200080B241F6A861605041F6B06020440022CE
:101330000023C0E9002341F6B860204400220023C6
:10134000C0E90023012141F2584020440DF0B6F9D4
:1013500014F5F550D0E9002351EC100B15F026FAE6
:1013600014F5F652C2E9000104F69C7114F5896087
:1013700016F06CFB04F6B47016F03FFA41F61070EC
:10138000204480ED000B41F61070204490ED000BDE
:10139000200008F055F841F60870204480ED000B5D
:1013A00041F6107004EB000114F58D6016F04BFA55
:1013B00041F6087004EB000114F58C6016F043FA56
:1013C00004F6BC7016F019FA41F61870204480ED4E
:1013D000000B41F6187004EB000114F58E6016F056
:1013E00032FA04F6A47015F07DFCC0B210F090FA49
:1013F00041F67871605404F6A47114F58A6016F011
:1014000036FB14F55F6016F0F8F914F5DC5080ED4A
:10141000000B14F5DC5114F5567016F014FA14F59F
:10142000626016F0EAF941F2B83020440CF021FF76
:1014300041F2B83020440CF022FF8DED220B22A99E
:1014400014F5647016F0FFF904F6286016F0D5F96B
:1014500041F2B83020440CF00FFF41F2B830204484
:101460000CF010FF8DED0E0B0EA914F5667016F042
:10147000EAF904F6386015F045FC00280CD001208C
:101480000BE000BF0000F03FCDCCCCCCCC60B54031
:101490009A9999999999D93F002041F6D0216054A1
:1014A00041F6D020215C14F1600016F0F1FA04F648
:1014B000446015F027FC002801D0012000E0002046
:1014C00041F66831605441F66830215C14F5C6700D
:1014D00016F0DEFA14F5656015F014FC002801D052
:1014E000012000E0002041F6D121605441F6D120D6
:1014F000215C14F5157016F0CBFA41F6D120215C71
:1015000041F2D860204416F0D9FA41F6D120215C8E
:1015100014F5BA5016F0D2FA41F6D120215C41F60A
:10152000B000204416F0CAFA41F6D120215C41F601
:101530001810204416F0C2FA41F6D120215C14F5AF
:10154000CC5016F0BBFA04F65C6015F0DBFB00280B
:1015500001D0012000E0002041F6B031605441F696
:10156000B030215C14F51E7016F092FA04F6B860E3
:1015700016F097F941F6FC11605041F6FC1004EBAF
:10158000000114F5687016F09CFA14F56C6016F002
:1015900088F941F6C831605041F6C83020580590AE
:1015A00005A914F56A7016F08CFA04F6C86016F0F6
:1015B00078F941F6CC31605041F6CC302058049097
:1015C00004A914F56C7016F07CFA04F6D86016F0D5
:1015D00014F941F6F830204480ED000B41F6F83064
:1015E00004EB000114F5707016F02DF904F6686133
:1015F00014F5217016F072FA14F5686114F5447050
:1016000016F06CFA14F5447015F07CFB002801D03C
:10161000012100E00021C9B241F25840204416F0F7
:1016200076FA14F56E6016F0E8F814F5E05080EDE7
:10163000000B14F5E05114F5727016F004F904F67D
:10164000986015F04FFB0100C9B220000AF0C8FFF6
:1016500041F6F411605404F6986114F52D7016F0FB
:1016600006FA04F6AC6114F54D7016F037FA41F243
:101670008410204416F0C1F841F68870204480EDB3
:10168000000B41F2841004EB000114F5936016F096
:10169000E7F841F28C10204416F0AFF841F6907054
:1016A000204480ED000B41F28C1004EB000114F596
:1016B000946016F0D5F841F29410204416F09DF88D
:1016C00041F69870204480ED000B41F2941004EB39
:1016D000000104F2547016F0C3F841F29C1020444B
:1016E00016F08BF814F5FD5080ED000B41F29C10C4
:1016F00004EB000104F25C7016F0B2F841F2A410A1
:10170000204416F0CEF841F6A871605041F2A410C2
:1017100004EB000104F2647016F0FCF941F2AC1025
:10172000204416F06AF851EC100B16F003FA41F65B
:10173000AC71605041F2AC1004EB000104F26C702B
:1017400016F08EF841F67030204400220023C0E9E4
:10175000002341F67830204400220023C0E9002312
:1017600014F55F6016F049F814F5DC5080ED000BBD
:1017700004F6C85016F026F80A900AA814F05EFE87
:1017800041F670222244C2E9000104F6F86114F522
:10179000986016F06CF914F5706114F5996016F004
:1017A00066F904F6087114F59A6016F060F914F5FC
:1017B000716114F59B6016F05AF904F6187114F56E
:1017C0009C6016F054F914F5726114F59D6016F0E2
:1017D0004EF904F6287114F59E6016F048F914F5D8
:1017E000736114F59F6016F042F904F6387114F530
:1017F000A06016F03CF914F5746114F5A16016F0C0
:1018000036F904F6487114F5A26016F030F914F5B3
:10181000756114F5A36016F02AF904F6587114F5F1
:10182000A46016F05BF941F698602044D0E90023EB
:1018300041F2D86020440CF08AF941F698602044C7
:10184000D0E9002314F5BA500CF081F941F6986004
:101850002044D0E9002341F2A87020440CF0CEF8D7
:1018600041F698602044D0E9002314F5C0500CF0F4
:10187000C5F841F698602044D0E9002341F65800AD
:1018800020440CF0BBF841F698602044D0E90023D6
:1018900041F6B00020440CF05AF941F6986020441B
:1018A000D0E9002341F6181020440CF050F941F61D
:1018B00098602044D0E9002314F5CC500CF047F98F
:1018C00004F6647114F5767015F0CAFF04F6082169
:1018D00014F5296016F04BF914F5256114F52D6007
:1018E00016F06CF904F6C42114F52D6016F068F9B1
:1018F00004F6AC2114F52D6016F062F904F6B82157
:1019000014F52D6016F05CF91420099009A814F064
:1019100095FD02000B0014F52D6016F05AF9142005
:10192000089008A814F08AFD02000B0014F52D6041
:1019300016F054F94FF4FA70079007A814F07EFDE2
:1019400002000B0014F52D6016F04DF932200690C0
:1019500006A814F073FD02000B0014F52D6016F0BC
:101960004CF9782016F04CF90500231D04F6C4222A
:1019700014F52961280018F017F8010014F53660F5
:1019800018F027F9002114F51C600CF00EFD15F07D
:10199000B6FE124918F031F915F0B1FE082118F021
:1019A00007FA0F4918F062FA04F6BC1104F6D400E5
:1019B00015F09FFF41F2942004EB000104F6DC00D7
:1019C00015F05FFF200066B0BDEC048B70BD000019
:1019D0009999A93F000039409999B93F18780508AD
:1019E0009D47050810B50400206810F5987114F59E
:1019F000256010F0EFFE206810F59E7114F525604B
:101A000010F000FF14F5256010F01DFF10BD7047A9
:101A1000F8B52DED068BADF5006D92B00500286888
:101A200015F073FD15F5376012F0C1F905F6384071
:101A300013F0CFFD41F27030284414F019FC41F24C
:101A4000B83028440CF026FC41F2584028440CF0F1
:101A50009DFF41F2D86028440CF0ADF815F5BA505E
:101A60000CF0A9F841F2A87028440BF0EDFF15F531
:101A7000C0500BF0E9FF41F6580028440BF0E4FF9A
:101A800041F6B00028440CF096F841F618102844AE
:101A90000CF091F815F5CC500CF08DF815F51C6094
:101AA0000CF098FC15F5366018F0ECF918F00CF80D
:101AB00005F6082010F07CFC15F52D6018F004FAEE
:101AC00041F6B07028440EF054FC42F290302844A5
:101AD0000FF087F942F2506028440FF082F905F6C2
:101AE000AC2018F00FFB002804D0002115F51C6075
:101AF0000CF05BFC41F29860284414F079FDC0B210
:101B0000002800F033870021281D18F001FB280071
:101B100008F034F915F5E2510870280008F053FA7E
:101B2000010041F67840285C002802D141F6784057
:101B30002954280008F075FB010041F67940285C23
:101B4000002802D141F679402954280008F0EDFC24
:101B500041F6B0416854280008F015FE41F61851CE
:101B60006854280008F039FF15F5EC51087028007A
:101B700008F0B7F841F6E810285C012800F013815E
:101B800015F5DA7015F039FEB0EE408AF0EE608A95
:101B900041F2B83028440CF0C3FA53EC182B51EC46
:101BA000100B14F0E1FE0BD041F2B83028440CF0D9
:101BB000B7FA8DED440B44A915F5DA7015F043FE24
:101BC00015F5DE7015F06DFE040041F2B8302844C2
:101BD0000CF0F2FA84420AD041F2B83028440CF0FA
:101BE000EBFA139013A915F5DE7015F06AFF15F5E1
:101BF000D47015F087F8040041F2B83028440CF096
:101C000043F9C0B284420AD041F2B83028440CF003
:101C10003BF90100C9B215F5D47015F039FF15F57F
:101C2000CC7015F05FF8040041F2B83028440CF095
:101C3000C9FAE4B2C0B284420BD041F2B8302844B1
:101C40000CF0C0FA8DF8100004A915F5CC7015F051
:101C5000C7FD15F5AE7015F055F8040041F2D860D7
:101C600028440BF063FF844209D041F2D860284435
:101C70000BF05CFF010015F5AE7015F009FF15F5CE
:101C8000B47015F03FF8040015F5BA500BF04EFF94
:101C9000844208D015F5BA500BF048FF010015F545
:101CA000B47015F0F5FE15F59C7015F02BF80400D6
:101CB00041F2A87028440BF096FE844209D041F20C
:101CC000A87028440BF08FFE010015F59C7015F0EC
:101CD000DFFE15F1E40015F015F8040015F5C0500D
:101CE0000BF081FE844208D015F5C0500BF07BFE4E
:101CF000010015F1E40015F0CBFE15F1F00015F030
:101D000001F8040041F6580028440BF06CFE8442B0
:101D100009D041F6580028440BF065FE010015F18A
:101D2000F00015F0B5FE15F1FC0014F0EBFF040017
:101D300041F6B00028440BF0F9FE844209D041F688
:101D4000B00028440BF0F2FE010015F1FC0015F084
:101D50009FFE15F5847014F0D5FF040041F61810AD
:101D600028440BF0E3FE844209D041F618102844C1
:101D70000BF0DCFE010015F5847015F089FE15F5F9
:101D80008A7014F0BFFF040015F5CC500BF0CEFEA6
:101D9000844208D015F5CC500BF0C8FE010015F5B3
:101DA0008A7015F075FE41F25840284418F0CBF9BE
:101DB000C0B200286CD041F6885005EB000141F21A
:101DC000584028440DF030FF41F6B05005EB0001BB
:101DD00005F6B41015F08DFD41F690502844D0E979
:101DE00000230020DFF8E81D14F0E0FC41EC100BAC
:101DF00051EC100B31F0004141EC100B8DED2C0B30
:101E00002CA915F5916015F01EFD41F6985005EBD3
:101E1000000115F5976015F054FE15F5ED5115F517
:101E20008F6015F010FD41F6A8502844D0E900233A
:101E30000020DFF89C1D14F0B9FCCDE92A012AA985
:101E400015F5906015F0FFFC41F6E810285C0028BD
:101E50000ED041F6E910285C022809D041F69030F6
:101E6000284441F68851294491ED000B80ED000B88
:101E700041F69050284490ED000B51EC100B31F0DE
:101E8000004141EC100B42F6780028440AF0CCFDEA
:101E900015F5F27015F0B1FC53EC102B41F69030B3
:101EA0002844D0E9000114F05FFD1ED041F69030C7
:101EB00005EB000115F5F27015F0C5FC41F6903008
:101EC000284490ED000B41F67030284418F0B5FB23
:101ED00041F68830284480ED000B41F6883005EB50
:101EE000000115F5587015F0AEFC15F5187014F0DA
:101EF00009FF00282AD0002115F5187015F0C8FD3B
:101F000041F67030284441F69031294491ED000BA0
:101F100080ED000B41F67830284441F69031294499
:101F200091ED000B80ED000B41F68830284441F61E
:101F30009031294491ED000B80ED000B41F6883083
:101F400005EB000115F5587015F07DFC15F19000BA
:101F500014F0C8FE41F6E811695CC0B288420AD0AC
:101F600041F6E810285C8DF80F000DF10F0115F116
:101F7000900015F035FC15F5FA7015F03EFC53ECA9
:101F8000102B41F698302844D0E9000114F0ECFC05
:101F900007D041F6983005EB000115F5FA7015F001
:101FA00052FC41F6E810285C002820D141F6E910E7
:101FB000285C02281BD115F5A76014F0A3FE0128A8
:101FC0000CD1002115F5A76015F062FD002105F286
:101FD0002C5015F05DFD280006F0E6FE05F22C50B1
:101FE00014F090FE002802D1280006F043FF15F1FE
:101FF0001C0014F077FE040005F6985015F0E2FB83
:10200000E4B2844209D015F11C0014F06BFE12906A
:1020100012A905F6985015F06CFC15F1B40015F0F6
:10202000ECFBB0EE408AF0EE608A15F55A6015F0D0
:10203000E4FB53EC182B51EC100B14F095FC05D07D
:1020400015F1B40115F55A6015F00AFC15F1BC0044
:1020500015F0D3FBB0EE408AF0EE608A05F6A8508A
:1020600015F0CBFB53EC182B51EC100B14F07CFC4F
:1020700005D015F1BC0105F6A85015F0F1FB15F1DE
:10208000D40015F0BAFBB0EE408AF0EE608A05F697
:10209000E86015F0B2FB53EC182B51EC100B14F068
:1020A00063FC05D015F1D40105F6E86015F0D8FB06
:1020B00015F1DC0015F0A1FBB0EE408AF0EE608A6D
:1020C00015F56F6015F099FB53EC182B51EC100BC4
:1020D00014F04AFC05D015F1DC0115F56F6015F020
:1020E000BFFB15F5CC7014F0FDFD040015F55B6029
:1020F00015F068FBE4B2844209D015F5CC7014F0F9
:10210000F1FD119011A915F55B6015F0F2FB15F5C5
:10211000D07014F0E7FD040005F6B85015F052FB3E
:10212000E4B2844209D015F5D07014F0DBFD1090B4
:1021300010A905F6B85015F0DCFB15F5FE7015F08A
:1021400041FB040015F55C6015F03CFB844205D0B2
:1021500015F5FE7115F55C6015F093FB15F5017032
:1021600015F030FB040005F6C85015F02BFB844237
:1021700005D015F5017105F6C85015F082FB15F56F
:10218000037015F03AFBB0EE408AF0EE608A15F568
:102190005D6015F032FB53EC182B51EC100B14F072
:1021A000E3FB05D015F5037115F55D6015F058FBDF
:1021B00015F5057015F075FB040005F6D85015F0FF
:1021C00070FB844205D015F5057105F6D85015F061
:1021D000A1FC15F5077015F0F5FA040015F55E6021
:1021E00015F0F0FA844205D015F5077115F55E601B
:1021F00015F047FB15F5567015F0FFFA53EC102B50
:1022000015F5DC50D0E9000114F0AEFB0DD015F54A
:10221000567015F0F2FA15F5DC5080ED000B15F54F
:10222000567115F55F6015F01BFB15F55A7015F02A
:10223000C9FA040005F6F85015F0C4FA844205D036
:1022400015F55A7105F6F85015F01BFB15F55C7085
:1022500015F0B8FA040015F5606015F0B3FA844281
:1022600005D015F55C7115F5606015F00AFB15F5E4
:102270005E7015F0A7FA040005F6086015F0A2FAE2
:10228000844205D015F55E7105F6086015F0F9FA7F
:1022900015F5647015F0B1FAB0EE408AF0EE608A80
:1022A00015F5626015F0A9FA53EC182B51EC100BE0
:1022B00014F05AFB05D015F5647115F5626015F040
:1022C000CFFA15F5667015F098FAB0EE408AF0EE88
:1022D000608A05F6286015F090FA53EC182B51EC43
:1022E000100B14F041FB05D015F5667105F628605A
:1022F00015F0B6FA15F1600014F004FD040005F6BF
:10230000386014F0FFFC844205D015F1600105F639
:10231000386015F0E3FB15F5C67014F0F3FC04000B
:1023200005F6446014F0EEFC844205D015F5C67144
:1023300005F6446015F0D2FB15F51E7014F0E2FCB2
:10234000040005F65C6014F0DDFC844205D015F550
:102350001E7105F65C6015F0C1FB15F5687015F08F
:10236000A0FA040005F6B86015F09BFA844205D087
:1023700015F5687105F6B86015F0CCFB15F56A70B7
:1023800015F08FFA040015F56C6015F08AFA844296
:1023900005D015F56A7115F56C6015F0BBFB15F5E8
:1023A0006C7015F07EFA040005F6C86015F079FA35
:1023B000844205D015F56C7105F6C86015F0AAFBCE
:1023C00015F56E7015F0FEF9040015F56D6015F049
:1023D000F9F9844205D015F56E7115F56D6015F0AB
:1023E00050FA15F5707015F008FAB0EE408AF0EE6C
:1023F000608A05F6D86015F000FA53EC182B51EC02
:10240000100B14F0B1FA05D015F5707105F6D8600F
:1024100015F026FA15F5217014F074FC040005F689
:10242000686014F06FFC844205D015F5217105F643
:10243000686015F053FB15F5447014F063FC04005C
:1024400015F5686014F05EFC844214D015F54471F3
:1024500015F5686015F042FB15F5447014F052FC58
:10246000002801D0012100E00021C9B241F258400A
:10247000284415F04CFB15F53B7014F043FC0400A8
:1024800005F6746014F03EFC844205D015F53B71EE
:1024900005F6746015F022FB15F5727015F0ADF9B4
:1024A000B0EE408AF0EE608A15F56E6015F0A5F981
:1024B00053EC182B51EC100B14F056FA05D015F50F
:1024C000727115F56E6015F0CBF915F52D7014F0DD
:1024D00009FC040005F6986014F004FCE4B2C0B2F4
:1024E000844205D015F52D7105F6986015F0BFFAF8
:1024F00015F54D7014F006FC040005F6AC6014F000
:1025000001FC844205D015F54D7105F6AC6015F05F
:10251000E5FA15F58A6014F0E5FB040005F6A470F1
:1025200014F0E0FBE4B2C0B2844205D015F58A6134
:1025300005F6A47015F09BFA15F5936015F05DF99A
:10254000B0EE408AF0EE608A41F28410284415F023
:1025500054F953EC182B51EC100B14F005FA20D061
:1025600015F5936141F28410284415F079F915F5B9
:10257000936015F042F941F68870284480ED000B15
:1025800041F2A87028440BF02EFA012809D141F637
:102590008870284490ED000B41F2584028440DF01B
:1025A00062FB15F5946015F028F9B0EE408AF0EE64
:1025B000608A41F28C10284415F01FF953EC182B57
:1025C00051EC100B14F0D0F920D015F5946141F2C4
:1025D0008C10284415F044F915F5946015F00DF9A8
:1025E00041F69070284480ED000B41F2A870284419
:1025F0000BF0F9F9002809D141F69070284490EDCC
:10260000000B41F2584028440DF02DFB15F53B70AE
:1026100014F078FB040005F6746014F073FB844238
:1026200005D015F53B7105F6746015F057FA05F203
:10263000547015F0E2F8B0EE408AF0EE608A41F294
:102640009410284415F0D9F853EC182B51EC100BCA
:1026500014F08AF90FD005F2547141F29410284415
:1026600015F0FEF805F2547015F0C7F841F69870B1
:10267000284480ED000B05F25C7015F0BEF8B0EE5A
:10268000408AF0EE608A41F29C10284415F0B5F8BB
:1026900053EC182B51EC100B14F066F90ED005F228
:1026A0005C7141F29C10284415F0DAF805F25C7078
:1026B00015F0A3F815F5FD5080ED000B05F26470E0
:1026C00015F0EFF8040041F2A410284415F0E9F8E1
:1026D00084420DD005F2647141F2A410284415F033
:1026E00019FA05F2647015F0DCF841F6A87168502B
:1026F00005F26C7015F081F8B0EE408AF0EE608A59
:1027000041F2AC10284415F078F853EC182B51EC3A
:10271000100B14F029F911D005F26C7141F2AC10D4
:10272000284415F09DF805F26C7015F066F851EC30
:10273000100B15F0FFF941F6AC71685015F51570E6
:1027400014F0E0FA040015F5656014F0DBFA844239
:1027500011D015F5157115F5656015F0BFF915F572
:10276000157014F0CFFA002801D0012000E00020FD
:1027700041F6D121685442F67000285C012809D046
:1027800043D303281AD00FD305282AD01FD30628F5
:1027900031D03AE001208DF80E000DF10E0115F553
:1027A000507015F01DF838E002208DF80D000DF185
:1027B0000D0115F5507015F013F82EE003208DF87B
:1027C0000C0003A915F5507015F00AF825E0042057
:1027D0008DF80B000DF10B0115F5507015F000F898
:1027E0001BE005208DF80A000DF10A0115F5507067
:1027F00014F0F6FF11E006208DF809000DF1090133
:1028000015F5507014F0ECFF07E000208DF808007B
:1028100002A915F5507014F0E3FF05F6F86115F5FF
:10282000986017F08DFF15F5706115F5996017F038
:1028300087FF05F6087115F59A6017F081FF15F509
:10284000716115F59B6017F07BFF05F6187115F5A2
:102850009C6017F075FF15F5726115F59D6017F016
:102860006FFF05F6287115F59E6017F069FF15F5E5
:10287000736115F59F6017F063FF05F6387115F564
:10288000A06017F05DFF15F5746115F5A16017F0F4
:1028900057FF05F6487115F5A26017F051FF15F5C1
:1028A000756115F5A36017F04BFF05F6587115F526
:1028B000A46017F05BFF42F2605028440EF090FCD9
:1028C00042F6200028440EF08BFC41F25840284488
:1028D00017F060FF012805D0012115F52A7015F0C9
:1028E000D7F804E0002115F52A7015F0D1F815F598
:1028F000477014F007FA012807D1002115F5477039
:1029000015F0C6F8280009F009F905F6D40014F00E
:1029100059FFD5F8BC19884205D005F6BC1105F65B
:10292000D40014F0E6FF05F6DC0014F04BFF0400C1
:1029300041F29420284414F045FF844206D005F665
:10294000DC0141F29420284414F09BFF42F6780009
:1029500028440AF090F841F62830284409F049FF4D
:10296000079007A915F5097014F0C3FF41F2A8609C
:10297000284413F03DFEC0B2002818D041F2D060C8
:10298000285C002804D02868C03017F0CCFF03E092
:102990002868C03017F0D0FF41F2D060285C0028D2
:1029A00001D1012000E0002041F2D061685441F6DD
:1029B0005830284413F01CFEC0B2002842D041F623
:1029C0005030285C00280ED041F618302858401CA2
:1029D00041F61831685041F6183005EB000115F545
:1029E0000B7014F086FF41F6E810285C022829D10C
:1029F00015F5D9500068401C15F5D951086041F60D
:102A000024302A58002141F624302858401E18F05E
:102A10000FF941F62431685041F62830284409F076
:102A20004EFE15F5D95115F50F7014F062FF41F601
:102A30002830284409F0DBFE069006A915F5117030
:102A400014F057FF41F6E810285C002809D002284E
:102A500001F0F781C0F04E81032800F0AF8706F047
:102A60008EB941F6E910285C002805D0022800F054
:102A7000E280C0F0AF80FAE014F041FEDFF8C81D3C
:102A800017F0F4F9002141F2D86028440BF047F820
:102A9000002115F5BA500BF042F8012141F2A8705F
:102AA00028440AF099FF002115F5C0500AF094FF60
:102AB000002141F6580028440AF08EFF002141F61B
:102AC000B00028440BF02BF8002141F618102844E0
:102AD0000BF025F8002115F5CC500BF020F841F64D
:102AE0008870284490ED000B41F2584028440DF0C6
:102AF000BAF841F2B830284418F0A1F841F2B830E1
:102B000028440BF079F99FED300B41F2B83028449E
:102B10000BF058FA41F25840284418F094F841F666
:102B2000104005EB000141F2584028440CF0BAFC7B
:102B3000002141F2D860284414F0C0FF002115F5AF
:102B4000BA5014F0BBFF002141F6B000284414F045
:102B5000B5FF002141F61810284414F0AFFF002102
:102B600015F5CC5014F0AAFF002115F1780014F0EF
:102B70008FFF41F6882005EB000115F5077014F072
:102B8000B8FE41F2B860284413F0EEFC002115F5C0
:102B9000247014F07DFF002041F638616854002154
:102BA00015F52F7014F074FF002115F5357014F031
:102BB0006FFF002115F5387014F06AFF012041F60F
:102BC000E911685453E000BF00000000000000005D
:102BD00080842E4141F2B860284413F0D0FCC0B28A
:102BE000002827D014F08BFDDFF85C1C17F03EF9AD
:102BF00014F085FDDFF8901D16F0FFFFDFF8481C8C
:102C000017F034F914F07BFDDFF8741D16F0F5FFB2
:102C1000DFF8341C17F02AF914F071FDDFF8681D95
:102C200016F0EBFFDFF8201C17F020F9022041F628
:102C3000E91168541BE015F1780014F063F80128DD
:102C400017D041F25840284417F0A4FD01280ED1B6
:102C500041F69030284441F68851294491ED000B0B
:102C600080ED000B41F2584028440BF0A5FC06F023
:102C700086B8002115F1780014F00AFF002115F143
:102C8000840014F005FF15F10C0014F02BF8C0B20D
:102C9000012804D024D3032819D009D320E001202F
:102CA00041F6E8116854002041F6E9116854DEE766
:102CB00015F5366017F0E6F816F0DCFE022041F656
:102CC000E8116854002041F6E9116854CFE7032069
:102CD00041F6E8116854002041F6E9116854C6E74E
:102CE00000208DF807000DF1070115F10C0014F01C
:102CF00077FDBCE741F6E820285C002815D00228C3
:102D000000F0D380C0F09280042800F06683C0F009
:102D10003683062800F00484C0F09083082800F071
:102D20003586C0F0AC8500F047BE14F0E8FCDFF853
:102D3000181B17F09BF814F0E2FCDFF84C1C16F09F
:102D40005CFFDFF8041B17F091F814F0D8FCDFF8F3
:102D5000341C16F052FFDFF8F01A17F087F814F061
:102D6000CEFCDFF8241C16F048FFDFF8DC1A17F061
:102D70007DF841F698602844D0E9002341F2D860FC
:102D800028440AF0E4FE41F698602844D0E9002384
:102D900015F5BA500AF0DBFE41F698602844D0E9F8
:102DA000002341F2A87028440AF028FE41F69860FA
:102DB0002844D0E9002315F5C0500AF01FFE41F663
:102DC00098602844D0E9002341F6580028440AF0CE
:102DD00015FE41F698602844D0E9002341F6B00082
:102DE00028440AF0B4FE41F698602844D0E9002354
:102DF00041F6181028440AF0AAFE41F698602844CB
:102E0000D0E9002315F5CC500AF0A1FE41F69860F8
:102E10002844D0E9002341F2B83028440BF0D8F917
:102E2000012041F6E821685400F0C6BD41F2584047
:102E3000284417F0AFFC012835D115F5E45141F2D3
:102E4000584028440CF02EFB012141F25840284400
:102E50000BF088FCB0EE408AF0EE608A41F2B830A8
:102E600028440BF0A9F915F5D75191ED003BB0EED0
:102E7000439AF0EE639A14F02BFD41EC120BB0EE86
:102E8000493AF0EE693A41F69030284490ED001B43
:102E9000B0EE480AF0EE680A280006F09AF902201F
:102EA00041F6E821685400F087BD15F16C0013F07D
:102EB00029FF012850D015F5AE7013F023FF040050
:102EC00041F2D86028440AF031FE844209D015F559
:102ED000AE7013F017FF010041F2D86028440AF0E9
:102EE0001EFE15F5B47013F00DFF040015F5BA5071
:102EF0000AF01CFE844208D015F5B47013F002FFEE
:102F0000010015F5BA500AF00AFE15F59C7013F091
:102F1000F9FE040041F2A87028440AF064FD8442DE
:102F20003BD015F59C7013F0EDFE010041F2A87046
:102F300028440AF051FD15F59C7013F0E3FE0128BA
:102F400021D041F69070284490ED000B41F258409A
:102F500028440CF088FE20E0002115F16C0014F0EC
:102F600097FD002041F6E8216854002041F6E81161
:102F7000685400208DF806000DF1060115F10C00D3
:102F800014F02EFCF0E141F68870284490ED000B1F
:102F900041F2584028440CF066FE15F1E40013F0AD
:102FA000B1FE040015F5C0500AF01DFD844208D0A2
:102FB00015F1E40013F0A6FE010015F5C0500AF06B
:102FC0000BFD15F1F00013F09DFE040041F65800D2
:102FD00028440AF008FD844209D015F1F00013F0EE
:102FE00091FE010041F6580028440AF0F5FC15F165
:102FF000FC0013F087FE040041F6B00028440AF0FC
:1030000095FD844209D015F1FC0013F07BFE010010
:1030100041F6B00028440AF082FD15F5847013F0E3
:1030200071FE040041F6181028440AF07FFD844226
:1030300009D015F5847013F065FE010041F61810F3
:1030400028440AF06CFD15F58A7013F05BFE04004D
:1030500015F5CC500AF06AFD844208D015F58A7047
:1030600013F050FE010015F5CC500AF058FD41F266
:10307000D860284417F0EBFD41F6D121695CC0B25D
:10308000814207D041F6D120295C41F2D860284422
:1030900014F014FD15F5BA5017F0D9FD41F6D12101
:1030A000695CC0B2814206D041F6D120295C15F599
:1030B000BA5014F003FD41F6B000284417F0C7FDE4
:1030C00041F6D121695CC0B2814207D041F6D120DE
:1030D000295C41F6B000284414F0F0FC41F61810C9
:1030E000284417F0B4FD41F6D121695CC0B2814299
:1030F00007D041F6D120295C41F61810284414F07D
:10310000DDFC15F5CC5017F0A2FD41F6D121695C2C
:10311000C0B2814206D041F6D120295C15F5CC50D1
:1031200014F0CCFC15F5D47013F0ECFD040041F262
:10313000B83028440AF0A8FEC0B2844210D015F579
:10314000D47013F0DFFD002840F0D28041F2B83097
:1031500028440AF075FE41F25840284417F07AFDE1
:1031600015F5DE7014F09DFB040041F2B8302844E0
:103170000BF022F8844234D015F5DE7014F091FB88
:1031800014F0A6FB41EC100B41F2B83028440AF0D1
:1031900019FF41F25840284417F05CFD41F2B83065
:1031A00028440AF0BDFF8DED420B42A915F5DA70F7
:1031B00014F049FB15F5DE7014F073FB040041F2C6
:1031C000B83028440AF0F8FF84420AD041F2B830FF
:1031D00028440AF0F1FF0F900FA915F5DE7014F0E6
:1031E00070FC15F5DA7014F008FBB0EE408AF0EED2
:1031F000608A41F2B83028440AF092FF53EC182B51
:1032000051EC100B13F0B0FB38D015F5DA7014F058
:10321000F4FA41F2B83028440AF04AFE41F258402C
:10322000284417F017FD41F2B83028440AF0C4FFD3
:103230000E900EA915F5DE7014F043FC15F5DA704A
:1032400014F0DBFAB0EE408AF0EE608A41F2B8305A
:1032500028440AF065FF53EC182B51EC100B13F0C7
:1032600083FB0BD041F2B83028440AF059FF8DEDB2
:10327000400B40A915F5DA7014F0E5FA15F5CC709D
:1032800013F030FD040041F2B83028440AF09AFFF0
:10329000E4B2C0B284420FD015F5CC7013F022FD19
:1032A0000100C9B241F2B83028440AF001FF41F2EE
:1032B0005840284417F0CEFC41F6B040285C002866
:1032C0000AD0002041F6B041685415F5E45141F2AE
:1032D000584028440CF0E6F815F5217013F012FD63
:1032E000002810D141F25840284417F0ACFC0FE000
:1032F00041F2B83028440AF07FFD41F2584028449A
:1033000017F0A8FC2CE741F25840284417F0A6FC1F
:1033100015F53E7013F0F6FC012809D141F2584032
:10332000284417F09FFC002115F53E7014F0B0FB07
:1033300041F25840284417F02DFA012804D141F2F7
:10334000584028440BF038F915F51B7013F0DAFCDF
:1033500001280AD015F52F7013F0D4FC012803D1F1
:10336000052041F6E821685426E3002115F51B707D
:1033700014F08EFB032041F6E8216854F4E741F293
:103380005840284417F006FA012825D115F5217078
:1033900013F0B8FC002805D141F25840284417F03A
:1033A0005DFC04E041F25840284417F057FC01202E
:1033B00041F6EC11685015F11C0013F093FCC0B2FB
:1033C00041F6F011685041F2584028440BF0F4F8EF
:1033D000042041F6E8216854EEE241F258402844C6
:1033E00017F0D8F9012828D141F6EC10285841F6F9
:1033F000F0116958884212D241F6EC102858401C4E
:1034000041F6EC11685041F6EC1028588DF8050093
:103410000DF1050115F1A00014F0E2F908E041F208
:103420005840284417F00FFC022041F6E821685468
:1034300041F2584028440BF0BFF8BDE2012041F6AC
:103440003861685415F5787014F0D7F941F6486082
:10345000284480ED000B15F57A7014F0CEF941F692
:103460005060284480ED000B15F57C7014F0C5F910
:1034700041F65860284480ED000B15F5806014F08B
:10348000BCF941F68860284480ED000B15F5816099
:1034900014F0B3F941F69060284480ED000B15F567
:1034A000846014F0AAF915F5F55080ED000B0121A8
:1034B00041F2584028440BF055F915F5F35080EDD2
:1034C000000B41F2B83028440AF076FE15F5D751CA
:1034D00091ED003BB0EE438AF0EE638A14F0F8F908
:1034E00041EC120BB0EE483AF0EE683A41F69030FB
:1034F000284490ED001B15F5F35090ED000B2800CB
:1035000005F067FE14F0FBF8DFF8141C16F075FBED
:10351000CD4916F0ABFC062041F6E82168544BE299
:1035200015F16C0013F0EEFB012800F06E8115F52B
:103530002F7013F0E7FB002800F0888115F5DA7092
:1035400014F05BF9B0EE408AF0EE608A41F2B830D8
:1035500028440AF0E5FD53EC182B51EC100B13F046
:1035600003FA0BD041F2B83028440AF0D9FD8DEDB2
:103570003E0B3EA915F5DA7014F065F915F5DE700D
:1035800014F08FF9040041F2B83028440AF014FE18
:1035900084420AD041F2B83028440AF00DFE0D9062
:1035A0000DA915F5DE7014F08CFA41F6B040285CD8
:1035B000002835D0002041F6B041685415F5E4519B
:1035C00041F2584028440BF06DFF012141F2584070
:1035D00028440BF0C7F815F5F35080ED000B41F2CD
:1035E000B83028440AF0E8FD15F5D75191ED003BBD
:1035F000B0EE438AF0EE638A14F06AF941EC120BE4
:10360000B0EE483AF0EE683A41F69030284490ED3A
:10361000001B15F5F35090ED000B280005F0D9FDC7
:1036200041F67940285C00282ED0002041F67941EF
:103630006854002141F2584028440BF093F815F5E6
:10364000F35080ED000B41F2B83028440AF0B4FD8D
:1036500015F5D75191ED003BB0EE438AF0EE638A49
:1036600014F036F941EC120BB0EE483AF0EE683A3D
:1036700041F69030284490ED001B15F5F35090ED85
:10368000000B280005F0A5FD15F5357013F03AFB89
:10369000012811D1002115F5357014F0F9F914F055
:1036A0002EF8DFF88C1D16F0A8FA674916F0DEFB3D
:1036B000072041F6E821685441F25840284417F0A9
:1036C00069F8012840F0DA8041F2584028440AF0B5
:1036D00073FF41F69030284490ED000B41F668608E
:1036E000284416F0E9FF8DED160B16A915F582603A
:1036F00014F0A9F8DDE9160191F0004141EC100B3E
:1037000015F5EF5016F060FDB0EE408AF0EE608ADD
:10371000B0EE480AF0EE680A41F2B83028440AF0E8
:10372000C7FBB0EE480AF0EE680A41F6B0602844E4
:1037300016F083FF280005F083FE8DED280B28A9E5
:1037400015F5836014F07FF841F6286005EB000161
:1037500015F57E7014F077F8B0EE480AF0EE680ABE
:1037600041F6C860284417F081FA41F6C860284441
:1037700017F0ECFA280005F063FE8DED260B26A964
:1037800015F5856014F05FF841F6C860284417F01D
:10379000E7FA280005F054FE8DED240B24A915F559
:1037A000866014F050F841F6C860284417F0CEFA4D
:1037B0008DED220B22A915F5876014F044F841F62F
:1037C000C860284417F0CCFA8DED200B20A915F520
:1037D000886014F038F841F6C860284417F0C0FA41
:1037E000B0EE408AF0EE608A15F58C6014F005F8B2
:1037F00051EC180B53EC102B17F0DCFA39D30021E5
:1038000015F5387014F044F938E0002115F16C001A
:1038100014F03EF9002041F6E821685413F06FFFE0
:10382000DFF8A81C16F0E9F9074916F01FFB002085
:1038300041F6E811685400208DF8040001A915F143
:103840000C0013F0CDFF19E09D470508022041F65A
:10385000E8216854002041F63861685413F04FFFA6
:10386000DFF8681C16F0C9F9DFF8641C16F0FEFAE0
:1038700004E0012115F5387014F00AF99CE041F2DA
:10388000B83028440AF0ECFCC0B2002872D09FED9A
:103890003A0B41F2B83028440AF094FB012141F27E
:1038A000584028440AF05EFF15F5F35080ED000BF8
:1038B00041F2B83028440AF07FFC15F5D75191ED5C
:1038C000003BB0EE438AF0EE638A14F001F841EC5D
:1038D000120BB0EE483AF0EE683A41F690302844C8
:1038E00090ED001B15F5F35090ED000B280005F04E
:1038F00070FC41F62860284400220023C0E9002320
:1039000041F61060284400220023C0E9002341F65C
:103910000860284400220023C0E9002341F6186013
:10392000284400220023C0E9002341F670602844A7
:1039300000220023C0E9002341F6786028440022D9
:103940000023C0E9002341F6B06028440022002390
:10395000C0E9002341F6B860284400220023C0E9F2
:10396000002341F6C860284417F03BFA082041F6CE
:10397000E821685420E000BF0000000000000000C3
:1039800074570508985705085057050841F2B83094
:1039900028440AF065FCC0B200280DD013F0AFFE39
:1039A000DFF8301B16F029F9DFF8241B16F05EFA59
:1039B000062041F6E821685405F0E1B941F6E92016
:1039C000285C002817D0022800F0A380C0F07F8078
:1039D000042800F02381C0F0EB80062800F0668107
:1039E000C0F04E81082800F0CA81C0F07E8109280D
:1039F00000F0E781F3E113F082FEDFF8D41A16F04D
:103A000035FA13F07CFEDFF8D01A16F0F6F8DFF87E
:103A1000C01A16F02BFA13F072FEDFF8C01A16F077
:103A2000ECF8DFF8AC1A16F021FA13F068FEDFF8B4
:103A3000A81A16F0E2F8DFF8981A16F017FA15F53A
:103A4000D07013F04FF9C0B26421484341F6F81129
:103A5000685041F6F810285803280ED2032041F68A
:103A6000F811685041F6F81028588DF803000DF150
:103A7000030115F5D07013F0B3FE15F11C0013F01F
:103A800031F915F5D651087015F5037013F0B5FE30
:103A900041F6F020284480ED000B15F5077013F077
:103AA00091FE41F68821685041F6882028580C90F4
:103AB0000CA810F085FBCDE93C013CA915F5D850C8
:103AC00012F04AFD012041F6E921685487E12800FF
:103AD00017F096F9C0B200281AD0012141F2D8603F
:103AE00028440AF01CF8012141F6B00028440AF0ED
:103AF00016F8002115F5CC500AF011F8002141F616
:103B00005800284409F068FF022041F6E921685472
:103B100065E1280017F074F9C0B2002847D00020F2
:103B200041F6F8216854002041F6EC11685015F573
:103B3000D05041F6F021294491ED000B80ED000BAF
:103B400041F6F8102858400817F08AF902000B00D7
:103B500015F5D050D0E9000117F092F915F5D052C3
:103B6000C2E9000113F0CBFDDFF8741916F045F837
:103B700041F6F811695816F01BF913F0C0FDDFF893
:103B8000501916F073F913F0BAFDDFF8581916F052
:103B900034F815F5D05191ED000B17F0E2F9DFF88C
:103BA000301916F063F9032041F6E921685416E153
:103BB00041F2B83028440AF053FBC0B200282CD0A0
:103BC00015F5D05090ED000B41F2B83028440AF0C2
:103BD000F9F915F5D85012F0C7FC13F090FDDFF895
:103BE000F01816F043F9DFF8001916F006F8040093
:103BF00015F5077013F0E6FD0100200016F0D8F867
:103C000013F07DFD5AA115F0F8FFDFF8C41816F087
:103C10002DF9042041F6E9216854E0E015F5D8506B
:103C200012F0ADFCC0B200280CD141F2584028443B
:103C300016F0B0FD012804D141F2584028440AF0A2
:103C4000BBFCCCE015F5D85012F096FC41F6B04024
:103C5000285C00280AD0002041F6B041685415F5D0
:103C6000E45141F2584028440BF01CFC41F258400A
:103C7000284416F0F3FF062041F6E9216854E0E7F6
:103C800041F2B83028440AF0EBFAC0B200280CD058
:103C900015F5D05090ED000B41F2B83028440AF0F1
:103CA00091F9062041F6E921685498E041F2B830D4
:103CB00028440AF0D5FAC0B2002808D041F2584092
:103CC000284416F067FD012801D1012000E0002002
:103CD000C0B2002808D041F2584028440AF06CFCD9
:103CE000072041F6E921685479E041F25840284420
:103CF00016F050FD012841D141F6F820285C401C07
:103D000015F5D651097888420BDA41F6F820285C7F
:103D1000401C41F6F8216854062041F6E921685418
:103D20002CE0002041F6F821685441F6EC102858A8
:103D3000401C41F6F811695888421BD241F6EC103C
:103D40002858401C41F6EC11685015F5D050D0E9C8
:103D500000230020DFF8941717F06AF915F5D05208
:103D6000C2E90001052041F6E921685406E000BFE0
:103D700020630000082041F6E92168542FE0280064
:103D800017F03EF8C0B200281AD0002141F2D860E6
:103D9000284409F0C4FE002141F6B000284409F08F
:103DA000BEFE002115F5CC5009F0B9FE002141F608
:103DB0005800284409F010FE092041F6E921685412
:103DC0000DE0280017F01CF8C0B2002807D0002032
:103DD00041F6E8116854002041F6E921685415F1D4
:103DE0006C0012F08FFF012829D113F088FCDFF856
:103DF000E81615F002FFDFF8D81616F037F813F0C2
:103E00007EFCDFF8EC1615F0F8FEDFF8C41616F0AD
:103E10002DF8002115F16C0013F03AFE002041F658
:103E2000E9216854002041F6E811685400208DF81B
:103E300002000DF1020115F10C0013F0D1FC04F0A9
:103E40009EBF41F6EA10285C002800F09E80012801
:103E500000F05283022800F07B83032800F0C18326
:103E6000042800F00584052800F04184062800F0AD
:103E70009284072800F00D85082800F0AF850928F6
:103E800000F0C8850A2800F055860B2800F0A186AE
:103E90000C2800F0B0860D2800F0BA860E2800F03D
:103EA00073860F2800F08786102800F0E38711281A
:103EB00001F00681122801F06883132801F078834D
:103EC000142801F02984152801F08C84162801F0AB
:103ED000BE85172801F0E785182801F024861928E7
:103EE00001F076861A2801F087861B2801F0968655
:103EF0001D2802F0F9801E2802F07C831F2802F0A2
:103F00009083202802F0A183212802F0A483222894
:103F100002F04484232802F0F186242802F050871E
:103F2000252802F06787262803F02C80272803F035
:103F3000C380282803F07D81292803F02D832A28B7
:103F400003F0F4832B2803F014842C2803F01F843F
:103F50002D2803F040842E2803F051842F2803F0ED
:103F60005984302803F02B85312803F062863228EB
:103F700003F08F86332803F0E086342804F0298686
:103F8000352804F09F8604F0B1BE13F0B8FBDFF8CB
:103F9000401515F06BFF13F0B2FBDFF83C1515F080
:103FA0002CFEDFF82C1515F061FF13F0A8FBDFF8ED
:103FB000441515F022FEDFF8181515F057FF13F021
:103FC0009EFBDFF8141515F018FEDFF8041515F048
:103FD0004DFF13F094FBDFF8941E17F0E5F815F190
:103FE000B40013F00AFC41F63820284480ED000BA1
:103FF00015F1BC0013F001FC41F63020284480ED9F
:10400000000B002041F62821685415F5FE7013F0CE
:10401000D9FB0B900BA812F011FA41F678222A4432
:10402000C2E9000115F56E7013F0CCFB0A900AA8E6
:1040300012F004FA15F5D452C2E9000141F67820D5
:104040002844D0E9002341F2B83028440AF0C0F8EF
:1040500041F2B830284417F0B0F815F5017013F0AC
:10406000B1FB099009A812F0E9F941F670222A443F
:10407000C2E9000141F670202844D0E9002341F252
:10408000D860284409F063FD41F670202844D0E947
:10409000002315F5BA5009F05AFD41F67020284466
:1040A000D0E9002341F2A870284409F0A7FC41F6AA
:1040B00070202844D0E9002315F5C05009F09EFC7B
:1040C00041F670202844D0E9002341F658002844E6
:1040D00009F094FC41F670202844D0E9002341F611
:1040E000B000284409F033FD41F670202844D0E99F
:1040F000002341F61810284409F029FD41F67020EC
:104100002844D0E9002315F5CC5009F020FD15F521
:10411000157012F0F7FD002804D0012003E000BF65
:10412000D8AA0508002041F6D121685441F6D120D3
:10413000295C15F5656013F0ABFC41F6D120285CD5
:1041400000281BD0012141F2D860284413F0B6FCAE
:10415000012115F5BA5013F0B1FC012141F6B00070
:10416000284413F0ABFC012141F61810284413F049
:10417000A5FC012115F5CC5013F0A0FC41F67020F0
:1041800005EB000141F6C850284412F0E5F915F599
:10419000D07012F0A7FDC0B241F6F811685015F5C5
:1041A000687013F07EFB41F6FC11685015F56A70DB
:1041B00013F077FB41F6C831685015F56C7013F0B9
:1041C00070FB41F6CC31685015F5687013F069FB4F
:1041D00041F6FC11695881420FD041F6FC1005EB05
:1041E000000115F5687013F06CFC41F6FC1005EB4E
:1041F000000105F6B86013F064FC15F51E7012F0AE
:1042000081FD002801D0012000E0002041F6B031FE
:10421000685415F5FC5000220023C0E9002341F644
:10422000C420284416F0CDFF41F69020284416F013
:10423000E3FF41F69C20284416F0DEFF15F11C0038
:1042400012F050FD15F5D651087015F5D6500078CE
:10425000022826DB15F5D65115F1A00013F0C0FA9F
:1042600013F04DFA9C4915F0C8FC994915F0FEFD74
:1042700013F045FADFF8F81B15F0BFFC13F03FFA16
:1042800015F5D651097816F0D2FF914915F0EEFDDB
:1042900013F035FA904915F0B0FC8D4915F0E6FDA4
:1042A00008E001208DF801000DF1010115F1A000D9
:1042B00013F096FA15F1600012F024FD002801D0E9
:1042C000012000E0002041F6D021685441F6D020C2
:1042D000295C15F1600013F0DBFB41F258402844E3
:1042E00017F018F841F6B84005EB000141F25840CC
:1042F00028440BF0D7F813F002FADFF8501E15F03F
:104300007CFC734915F0B2FD15F5077013F05AFAED
:1043100041F6882168504FF47A70089008A812F08E
:104320008DF8CDE93A013AA915F5D85012F014F9F3
:10433000002041F618316850002015F5D951086069
:104340000020059005A915F50F7013F0D2FA41F67B
:104350002830284408F06EF941F68820295841F6A3
:104360002830284408F0A2F915F5C67012F0CAFCEE
:10437000002801D0012000E0002041F66831685497
:1043800015F5DD5000220023C0E9002341F6A830D6
:10439000284400220023C0E9002341F6D4302844F9
:1043A00016F0BCFF002041F6C4316850002041F6F1
:1043B000F031685415F5707013F01FFA41F6F830BB
:1043C000284480ED000B15F5727013F016FA15F500
:1043D000E05080ED000B41F610202844002200231D
:1043E000C0E90023012141F6B070284416F0B1FF66
:1043F00015F52D7012F076FC0100C9B2280008F006
:10440000EFF841F6F411685413F079F9DFF8401D24
:1044100015F0F3FB41F6F411695C16F008FF41F664
:10442000F410285C002805D0022817D00CD31FE018
:10443000C49F050813F063F9DFF8181D15F0DDFBC4
:10444000234915F013FD1CE013F059F9DFF8081D9E
:1044500015F0D3FB1E4915F009FD12E013F04FF9DA
:10446000DFF8F81C15F0C9FB194915F0FFFC08E04E
:1044700013F045F9DFF8E81C15F0BFFB144915F0FF
:10448000F5FC41F62870284416F069FF012042F639
:104490007001685442F67000295C41F628302844C7
:1044A00008F0A9F9142141F62830284408F00CFA44
:1044B000002041F608416854002041F60941685443
:1044C000012041F6EA11685404F010BCE0AA050886
:1044D0009D470508D09F050850570508BC5705089B
:1044E0001098050834840508E8AA05080000F03F84
:1044F000E057050804580508280016F081FCC0B2F2
:10450000002823D041F6D020285C00280FD00021BD
:1045100041F2A870284409F05FFA41F690702844EF
:1045200090ED000B41F2584028440BF09CFB002119
:1045300015F5CC5009F0F3FA002141F65800284453
:1045400009F04AFA022041F6EA11685404F0CEBBA1
:10455000280016F055FCC0B2002840D0012041F6DA
:104560005031685441F65830284412F03BF841F677
:104570002820285C002802D0012816D02BE013F058
:10458000BEF8DFF8E01B15F038FBDFF8DC1B15F098
:104590006DFC012115F5BA5009F0C1FA012141F66F
:1045A0001810284409F0BBFA15E013F0A8F8DFF85A
:1045B000BC1B15F022FBDFF8B01B15F057FC0121E6
:1045C00041F2D860284409F0AAFA012141F6B0006E
:1045D000284409F0A4FA032041F6EA11685404F0D3
:1045E00085BB280016F00CFCC0B200283ED041F676
:1045F000C850284411F0B8FF15F5017013F0E2F827
:1046000000EE100AB8EE400A10EE100A16F0C2FED4
:10461000DFF85C2BDFF85C3B12F0C8F816F0DEFE2A
:1046200008EE100A13F06BF80400022118A813F02A
:10463000ADF8DDE91801CDE9A201A2A9200013F02F
:10464000B1F813F05CF8DFF8301B15F0D6FAB0EED5
:10465000480A16F0F7FEDAA115F0CFFADFF8081BCA
:1046600015F004FC042041F6EA11685404F03EBB46
:1046700041F6C850284411F082FFC0B2002834D05F
:1046800013F03DF8DFF8F41A15F0B7FADFF8D81A8E
:1046900015F0ECFB41F6F410285C012804D105204C
:1046A00041F6EA11685420E041F6C420284416F08F
:1046B0002EFF002815D141F62820285C002810D1B3
:1046C00042F67800284416F032FF002804D1142066
:1046D00041F6EA11685408E0082041F6EA116854EE
:1046E00003E0172041F6EA11685404F0FFBA41F2E2
:1046F000B830284409F0B4FDC0B2002849D041F6D2
:104700002820285C002802D0012812D02AE041F697
:104710003020284490ED001B41F63820284490EDCD
:10472000000B0CF0FBFF41F61820284480ED000B35
:1047300018E041F6D430284416F0FBFE401E01007C
:1047400041F6D430284416F004FF90ED040B16F027
:104750000DFF51EC100B91F0004141F618222A4454
:10476000C2E9000115F5D450D0E9002341F2B83078
:10477000284409F02DFD41F61820284490ED000B47
:1047800041F2B830284409F01DFC062041F6EA1138
:10479000685404F0ABBA41F2B830284409F060FD27
:1047A000C0B2002808D041F25840284415F0F2FF6A
:1047B000012801D1012000E00020C0B2002866D00D
:1047C00041F6484005EB00010DF5BA6009F042FEE4
:1047D00001208DF8F1050DF5BA6141F258402844E9
:1047E0000AF060FE9FEDCB8B002141F25840284437
:1047F00009F064FF53EC182B51EC100B11F0D6FFAD
:1048000016F0E8FECDF8D4050DF5BA6141F2584036
:1048100028440AF047FE12F072FFDFF8E01C15F0A2
:10482000ECF912F06CFFDFF8401915F01FFB0DF5E5
:10483000BA62012141F2584028440AF08FFF12F079
:104840005EFFDFF8BC1C15F0D8F912F058FFDFF856
:104850001C1616F0A9FCDFF8AC1C16F0A5FCB0EE97
:10486000480AF0EE680A16F07CFBA8A115F0C5F91D
:1048700012F045FFDFF8F01815F0F8FA41F2584051
:10488000284409F099FE072041F6EA11685404F023
:104890002DBA41F25840284415F07CFF012840F021
:1048A0009B8040F60801694441F2584028440BF0CF
:1048B000BBF941F6903028444DF804CD0DF5006C5D
:1048C0009CED030B5DF804CB80ED000B15F5FC505F
:1048D0004DF804CD0DF5006C9CED050B5DF804CB97
:1048E00080ED000B12F00BFFDFF8801516F05CFC7A
:1048F000DFF8101C16F058FC0400002118A812F074
:1049000045FFDDE91801CDE9A001A0A9200012F0C2
:1049100049FF12F0F4FEDFF8F01B15F06EF912F00B
:10492000EEFE41F61821294491ED000B16F019FB1B
:10493000DFF8341815F09AFA12F0E1FE04000721AE
:1049400018A812F023FFDDE91801CDE99E019EA908
:10495000200012F027FF12F0D2FEDFF8B01B15F096
:104960004CF912F0CCFE41F69031294491ED000B48
:1049700016F0F7FA12F0C3FE65A115F03EF9DFF864
:10498000E81715F073FA12F0BAFEDFF8841B15F081
:1049900034F912F0B4FE040015F5FC50D0E9002300
:1049A0000020DFF8701B11F001FF41EC100B20001C
:1049B00016F0D7FA12F0A3FEDFF85C1B02E000BF8E
:1049C0002063000015F019F9DFF89C1715F04EFA76
:1049D000102041F6EA11685404F088B941F25840B9
:1049E000284415F0D7FE012812D112F088FEDFF816
:1049F0002C1B15F002F9DFF8701715F037FA41F2A9
:104A00005840284409F0D8FD092041F6EA116854BD
:104A100004F06CB941F25840284415F0BBFE01285F
:104A200040F086800DF5F96141F2584028440BF0C2
:104A3000FBF84DF804CD0DF5806C9CEDF38B5DF823
:104A400004CB12F05CFE0400072118A812F09EFEB1
:104A5000DDE91801CDE99C019CA9200012F0A2FE1D
:104A600012F04DFEDFF8B81A15F0C7F812F047FE45
:104A7000B0EE480AF0EE680A16F073FA12F03FFE44
:104A800023A115F0BAF8DFF8E01615F0EFF941F6BA
:104A9000F410285C01280ED112F031FEDFF8841AE0
:104AA00015F0ABF8DFF8C01615F0E0F90A2041F672
:104AB000EA1168543CE09DF80008002814D012F078
:104AC0001EFEDFF8641A15F098F812F018FEDFF8F1
:104AD0005C1A15F092F8DFF8901615F0C7F90A2065
:104AE00041F6EA11685423E012F009FEDFF8401A9B
:104AF00015F083F812F003FEDFF8381A15F07DF890
:104B000012F0FDFDDFF8301A08E000BF20F10000D0
:104B100020C200000000000000003E4015F06DF8CB
:104B2000DFF8441615F0A2F9142041F6EA11685492
:104B300004F0DCB841F2B830284416F03EFB15F51D
:104B4000D05041F61821294491ED000B80ED000B67
:104B500041F60820284415F5D15191ED000B80ED68
:104B6000000B002041F6EC116850132041F6F011C3
:104B7000685041F2B830284409F03EF90E2041F661
:104B8000EA11685404F0B2B841F2B830284409F090
:104B900067FBC0B200280CD015F5D05090ED000B8B
:104BA00041F2B830284409F00DFA0F2041F6EA111D
:104BB000685404F09BB841F2B830284409F050FB27
:104BC000C0B2002803D00B2041F6EA11685404F06B
:104BD0008DB841F25840284415F0DCFD012808D179
:104BE00041F25840284409F0E7FC0C2041F6EA1154
:104BF000685404F07BB841F25840284415F0CAFDCF
:104C0000012803D10D2041F6EA11685404F06EB872
:104C10000DF5F16141F2584028440BF005F841F6DA
:104C2000903028444DF804CD0DF5806C9CEDE30BDD
:104C30005DF804CB80ED000B41F6EC102858401CC9
:104C4000CDF8A80515F5D050D0E9000112F072FF9B
:104C5000CDF8AC0541F608202844D0E9000116F053
:104C6000B9FCCDF8B00541F69030284490ED000B2A
:104C70004DF804CD0DF5806C8CED6F0B5DF804CB19
:104C80000DF58063D3E9E4230020DFF8881811F0E4
:104C90008DFD41EC100B51EC100B31F0004141EC5B
:104CA000100B4DF804CD0DF5806C8CED710B5DF89B
:104CB00004CBDDF8B007CDF8C8050DF5B5600CF0F4
:104CC00056FB9DF8C007002807D041F6EC10285885
:104CD00041F6F011695888422AD341F6F410285C55
:104CE000012821D141F65170285C00280DD115F51D
:104CF000D05090ED001B41F69030284490ED000B11
:104D000041F62870284416F079FC41F65170285C71
:104D100000280DD041F62870284416F083FC0120AD
:104D200041F60841685403E0012041F60841685407
:104D300041F60840285C00284ED041F2B8302844A3
:104D400009F03AFA12F0C4FD41F610222A44C2E9F1
:104D50000001012041F60841685412F0D0FCDFF850
:104D6000D41714F04AFF12F0CAFCDFF8D01714F081
:104D700044FFDFF8F41315F079F812F0C0FC0400DA
:104D8000002118A812F002FDDDE91801CDE99A0111
:104D90009AA9200012F006FD12F0B1FCDFF8A0176E
:104DA00014F02BFF41F61021294491ED000B16F071
:104DB000D8F8DFF8B41315F059F841F6F410285C70
:104DC000012804D1102041F6EA1168544BE0142068
:104DD00041F6EA11685446E041F6EC102858401CB0
:104DE00041F6EC11685041F690302844D0E90001BA
:104DF0000022002316F072FC0FD215F5D050D0E936
:104E0000002341F608202844D0E9000116F010F9EB
:104E100015F5D052C2E900010EE015F5D050D0E9E9
:104E2000000141F608222A44D2E9002316F028F8AE
:104E300015F5D052C2E9000141F608202844D0E916
:104E400000230020DFF85C1E11F0B0FC41EC100BD9
:104E500016F05EFC41F60820284480ED000B0E2081
:104E600041F6EA11685403F041BF00BF6D91050897
:104E70004884050841F62820285C00280ED141F618
:104E80000940285C002809D115F5D85011F06CFBB9
:104E900041F68820285841F68C21685015F5FB50C2
:104EA00011F062FB41F6484005EB000141F2584029
:104EB00028440AF0F7FA12F022FCDFF8EC1D14F097
:104EC0009CFEA94914F0D2FF002141F25840284429
:104ED00009F005FDC0B200280AD141F67820284427
:104EE000D0E9002341F2B830284409F071F911E00B
:104EF000002141F25840284409F034FC8DED380B74
:104F000038A816F039FC02000B0041F2B8302844F2
:104F100009F05EF941F25840284409F04DFB0020A9
:104F200041F6EC11685015F5D05041F6182129448E
:104F300091ED000B80ED000B41F6C860284415F0A0
:104F400050FF15F5767012F058FC15F5F25080ED13
:104F5000000B15F5787012F050FC41F648602844BB
:104F600080ED000B15F57A7012F047FC41F65060A9
:104F7000284480ED000B15F57C7012F03EFC41F6E4
:104F80005860284480ED000B15F5806012F035FC68
:104F900041F68860284480ED000B15F5816012F021
:104FA0002CFC41F69060284480ED000B15F58460E0
:104FB00012F023FC15F5F55080ED000B002141F2B5
:104FC0005840284409F0CEFB15F5F35080ED000B56
:104FD000002141F25840284409F081FCC0B2002869
:104FE0002AD1DFF8C80CD0E9000116F0E7FB060073
:104FF0000F0041F678202844D0E9000116F0DEFBCE
:1050000032003B0011F0D2FB06000F00DFF8A00CCD
:10501000D0E9000116F0D2FB02000B00300039008D
:1050200011F0B2FC15F5F352D2E9002316F000F8A6
:1050300015F5F352C2E9000115F5D75090ED003B8C
:1050400041F61820284490ED002B41F6903028447A
:1050500090ED001B15F5F35090ED000B280004F0C7
:10506000B8F815F58A6011F03DFEC0B20CF06DFC89
:1050700041F678716854280007F0B5FD41F64840C4
:1050800005EB0002012141F2584028440AF066FB7A
:1050900012F035FBDFF81C1C14F0AFFD324914F0A0
:1050A000E5FE12F02CFBDFF8101C14F0A6FD2E49D3
:1050B00014F0DCFE112041F6EA11685403F016BE2C
:1050C00041F60940285C00282CD115F5D85011F084
:1050D00056FAC0B2002825D041F68C202858002866
:1050E00013D015F5D85011F03FFA41F68C2028580E
:1050F000401E41F68C21685041F68C2005EB0001E2
:1051000015F5077012F0F5FB0CE0012041F609419E
:10511000685412F0F4FADFF8A41B14F06EFD124983
:1051200014F0A4FE0024002141F25840284409F064
:10513000D6FBC0B2002823D041F25840284409F0E1
:10514000BDFBC0B200281BD001201AE0D44E0508D8
:10515000DC9F0508E89F0508F0AA050830780508D7
:10516000F8AA0508285805089D4705084C58050861
:10517000FCA9F1D24D62503FF49F050800A005083C
:105180000020C0B2002800D00124002141F2584084
:10519000284409F0A4FBC0B2002808D141F25840CD
:1051A000284415F0F7FA012801D1012000E0002081
:1051B000C0B2002800D00124E4B2002C00F0E3814A
:1051C0000DF5E96141F2584028440AF02DFD41F601
:1051D000903028444DF804CD0DF5806C9CEDD30B38
:1051E0005DF804CB80ED000B41F67940285C002887
:1051F00004D141F67840285C00283BD0002041F6DD
:1052000079416854002041F67841685441F648409D
:1052100005EB000141F2584028440AF043F900210F
:1052200041F25840284409F09DFA15F5F35080EDFD
:10523000000B15F5D75090ED003B15F5D05090EDD3
:10524000002B41F69030284490ED001B15F5F350EB
:1052500090ED000B280003F0BCFF280007F0C3FC12
:1052600041F6484005EB0002012141F25840284434
:105270000AF074FA41F69030284490ED000B41F6A4
:105280006860284415F018FA8DED140B14A915F573
:10529000826012F0D8FADDE9140191F0004141EC8E
:1052A000100B15F5EF5014F08FFF15F5D05080ED71
:1052B000000B15F5D05090ED000B41F6B06028447E
:1052C00015F0BBF98DED360B36A915F5836012F09C
:1052D000BAFA41F6286005EB000115F57E7012F070
:1052E000B2FA15F5D05090ED000B41F6C860284495
:1052F00015F0BCFC41F6C860284415F027FD8DED83
:105300001E0B1EA915F5856012F09DFA41F6C860C6
:10531000284415F025FD8DED1C0B1CA915F58660A4
:1053200012F091FA41F6C860284415F00FFD2800EC
:1053300003F0F2FF8DED1A0B1AA915F5876012F034
:1053400082FA41F6C860284415F00AFD280003F0EF
:10535000E3FF8DED180B18A915F5886012F073FAAC
:1053600015F5D050D0E9000112F0E4FB040015F56A
:105370004D7011F0C7FC00283ED041F6EC102858C3
:10538000B890B99415F5D05090ED000B8DEDBA0B97
:1053900041F6C860284415F0D9FC8DEDBC0B41F6F0
:1053A0009030284490ED000B8DEDBE0B0DF5806321
:1053B000D3E9D4230020574911F0F8F941EC100B40
:1053C00051EC100B31F0004141EC100B8DEDC00B96
:1053D000DDF87007C29041F6C860284415F0C0FCA3
:1053E0008DEDC40B41F6C860284416F010FA8DF814
:1053F0001803B8A80CF070F841F6EC102858401CBF
:1054000041F6EC11685041F67870285C8DF8600523
:10541000002000210DF5806CCCE95A0141F6C860EE
:10542000284415F09DFC4DF804CD0DF5806C8CEDF5
:105430005D0B5DF804CB15F58C6012F0DEF94DF8CC
:1054400004CD0DF5806C8CED5F0B5DF804CB41F65F
:105450009030284490ED000B4DF804CD0DF5806C94
:105460008CED610B5DF804CB41F61870284490ED8B
:10547000000B4DF804CD0DF5806C8CED630B5DF8E1
:1054800004CB4DF804CD0DF5806C9CEDD50B5DF88B
:1054900004CB4DF804CD0DF5806C8CED650B5DF8FB
:1054A00004CB15F5FC5090ED000B4DF804CD0DF537
:1054B000806C8CED670B5DF804CB15F5FB5011F09B
:1054C0005EF88DF8A00541F6C860284416F09FF9F3
:1054D0008DF8A10541F60940285C8DF8A2050DF56F
:1054E000AC600CF031FBC0B200282BD041F6094073
:1054F000285C002826D0012025E000BFFC4E0508CE
:10550000487805084B81050860780508A06D0508F6
:105510002098050880842E4100AB050878650508B1
:1055200030980508705805085C84050894580508EB
:1055300078780508B8580508409805080CA00508B3
:1055400018A005080020C0B200280ED041F6C8609F
:10555000284415F0FBFB41F61020284480ED000B99
:10556000132041F6EA1168540DE0200012F0B0F962
:1055700041EC100B41F2B830284408F023FD122012
:1055800041F6EA11685403F0B1BB41F2B830284447
:1055900008F066FEC0B2002808D041F25840284406
:1055A00009F00AF8112041F6EA11685403F09EBB95
:1055B00041F62820285C8DF8B00241F618202844D6
:1055C00090ED000B8DEDAE0B41F61020284490EDD0
:1055D000000B8DEDB00B15F5FC5090ED000B8DED33
:1055E000B20B41F6C860284415F0BAFB8DEDB40B40
:1055F00041F6EC102858B690ACA941F6D4302844B6
:1056000016F019F941F6C4302858401C41F6C4314F
:10561000685012F074F80400032146A812F0B6F89E
:10562000DDE94601CDE9980198A9200012F0BAF809
:1056300012F065F8DFF8881B14F0DFFADFF8901B32
:1056400014F014FC12F05BF8DFF8781B14F0D5FAB4
:1056500012F055F89DEDB00B15F083FCDFF8701BD0
:1056600014F004FC12F04BF8DFF85C1B14F0C5FAE0
:1056700041F6EC11695814F09BFBDFF8541B14F051
:10568000F5FB41F62820285C00280ED141F6502079
:1056900028449DEDB00B80ED000B41F658202844C6
:1056A0009DEDAE0B80ED000B0CE015F5D3509DED9C
:1056B000B00B80ED000B41F6682028449DEDAE0B49
:1056C00080ED000B41F6D020285C00280FD101218D
:1056D00041F2A870284408F07FF941F68870284408
:1056E00090ED000B41F2584028440AF0BCFA41F218
:1056F0005840284415F00EFE41F678202844D0E9A1
:10570000002341F2B830284408F062FD312041F610
:10571000EA11685403F0EABA41F25840284415F0FF
:1057200039F801285CD141F6C420284415F0EFFE79
:10573000002851D141F62820285C00284CD10020B7
:1057400041F65031685415F5D85010F00DFF41F670
:105750008820285841F68C21685011F0D0FFDFF8DE
:10576000701A14F083FBDFF81C1D14F046FA11F0D8
:10577000C6FF040015F5077012F024F801002000A0
:1057800014F016FBE2A114F038FADFF8441A14F012
:105790006DFB41F25840284415F055FA41F2B830FB
:1057A000284415F00AFD022042F67001685442F6C2
:1057B0007000295C41F62830284407F01CF841F6B7
:1057C000BC40295842F67800284407F00BF9152010
:1057D00041F6EA11685403E0172041F6EA116854D3
:1057E00003F084BA15F5D85010F0C9FEC0B20028F5
:1057F0000DD141F25840284414F0CCFF012804D1C7
:1058000041F25840284408F0D7FE03F06FBA41F641
:105810008C20285800282CD015F5D85010F0A4FE64
:1058200041F68C202858401E41F68C21685011F01A
:1058300066FFB8A114F0E1F9DFF8541C14F016FB70
:1058400041F68C2028583C21B0FBF1F201FB1200FC
:10585000002805D111F053FFDFF8741914F006FB8E
:1058600041F68C2005EB000115F5077012F041F8A8
:10587000CBE7012041F60941685411F040FFDFF801
:10588000501914F0F3FA41F6882005EB000115F5E4
:10589000077012F02EF8032042F67001685442F6A9
:1058A0007000295C41F62830284406F0A4FF42F637
:1058B0007800284407F0B5F842F67800284407F04D
:1058C000C3F8B0EE408AF0EE608A11F018FF0400D1
:1058D000032146A811F05AFFDDE94601CDE9960102
:1058E00096A9200011F05EFF11F009FFDFF8A41B5C
:1058F00014F083F9040053EC182B0020DFF8981BF8
:1059000010F054FF41EC100B200015F02AFB11F0B1
:10591000F6FEDFF8881B14F070F9DFF8B41814F005
:10592000A5FA42F67800284415F001FE002800F0A0
:10593000898011F0E4FEDFF8681B14F05EF9DFF8EF
:10594000901814F093FA42F67800284407F089F88A
:10595000B0EE408AF0EE608A42F67800284407F004
:1059600076F8B0EE409AF0EE609A41F6B84005EB5A
:10597000000141F6E840284408F06CFD15F5E951B6
:1059800041F65050284408F065FD15F5E750D0E980
:10599000000153EC192B15F00DFA09D241F6105005
:1059A000284480ED009B41F67850284480ED008B20
:1059B00011F0A5FEDFF8EC1A14F01FF911F09FFEAC
:1059C000040041F610502844D0E900230020DFF8FD
:1059D000C81A10F0EBFE41EC100B200015F0C1FAD4
:1059E00011F08DFEDFF8B41A14F007F9DFF8E017B4
:1059F00014F03CFA11F083FEDFF8AC1A14F0FDF855
:105A000011F07DFE040041F678502844D0E90023CF
:105A10000020DFF8841A10F0C9FE41EC100B2000C2
:105A200015F09FFA11F06BFEDFF8701A14F0E5F82C
:105A3000DFF89C1714F01AFA11F061FEDFF89017E6
:105A400014F014FA162041F6EA116854DDE641F22A
:105A50005840284414F09EFE012822D1012041F62E
:105A60005031685441F65830284410F0BBFD15F50C
:105A7000217011F047F9002805D141F2584028441F
:105A800015F0E1F804E041F25840284415F0E6F83A
:105A900041F2B830284415F090FB172041F6EA1186
:105AA000685403F023B941F25840284414F072FEC0
:105AB00001281DD142F67800284415F038FD002851
:105AC00018D141F6B84005EB000141F25840284496
:105AD00009F0E8FC11F013FEDFF8D01914F08DF88E
