:020000040800F2
:10000000D8AF00201DB905086F2402087F2402081C
:100010008F2402089F240208AF2402080000000079
:10002000000000000000000000000000BF240208E3
:10003000CF24020800000000DF240208EF24020899
:100040007528020875280208752802087528020814
:100050007528020875280208FF240208752802087E
:10006000752802081B250208752802087528020851
:1000700075280208752802087528020875280208E4
:1000800075280208752802087528020875280208D4
:100090007528020875280208752802083725020805
:1000A00075280208CB250208752802087528020861
:1000B000752802080B260208752802087528020810
:1000C0007528020875280208752802087528020894
:1000D0007528020895270208A5270208B5270208F7
:1000E0001B2602087528020875280208C526020882
:1000F000F7260208752802082B270208752802082F
:1001000075280208C5270208752802087528020804
:10011000D5270208E5270208752802087528020875
:10012000F5270208052802081528020825280208D4
:100130007528020875280208752802087528020823
:100140007528020875280208752802084528020843
:100150007528020835280208752802085528020863
:1001600075280208752802087528020875280208F3
:1001700075280208652802087528020875280208F3
:100180007528020880B516480078002806D100219D
:1001900014480DF04FFF01201149087012480078F3
:1001A000002806D1002111480DF044FF01200E491E
:1001B00008700F480078002806D100210D480DF086
:1001C00039FF01200A4908700B480078002806D141
:1001D00000210A480DF02EFF01200749087001BDDB
:1001E000FF990020B8990020009A0020C0990020B3
:1001F000019A0020BC990020029A0020B4990020A6
:100200002DE9F047EAB00400150021600023002228
:100210000021201D0DF010FFC4F8BC59206810F516
:10022000A47114F51C600FF033F9206810F590707C
:100230000090206810F58873206810F58072012105
:1002400004F6082013F00DF814F5256013F062FA97
:1002500014F5296013F078FB04F6AC2013F09AFB38
:1002600004F6B82013F096FB04F6C42013F092FBBA
:1002700014F52D6013F098FB002114F5366013F08F
:100280002FFC04F6643013F0B2FC002214F5376141
:10029000201D13F097FD80080200206810F19801DE
:1002A00014F5376014F0A7FC0120269026A814F05E
:1002B000ADFFCDE904014020029000200190012013
:1002C00000904FF48053206810F1D002206810F5A0
:1002D0004C7104F6384016F0F2FA0023002204F6BE
:1002E000384104F6985016F039FB04F6985204F69B
:1002F000384141F26C30204409F09EF80020029011
:10030000206810F5EA700190206810F5E270009006
:10031000206810F5DA73206810F5D272206810F5A5
:10032000417141F27030204416F088FE41F2703085
:1003300004EB000141F2B83020440EF0C5FD206806
:1003400010F55773206810F5AA72206810F5367101
:1003500041F2584020440FF050F96420259025A820
:1003600017F08EF8CDE92E012EA914F5B55017F02F
:1003700043F94FF4FA70249024A817F081F8CDE9DE
:100380002C012CA941F2B060204417F035F94FF44C
:100390007A70239023A817F073F8CDE92A012AA9CF
:1003A00014F5B65017F0EAF8002041F2D861605415
:1003B000DFF8B01B63A817F0F5F96420229022A89B
:1003C00017F05EF800220492CDE9020100200090AF
:1003D00063AB206810F50172206810F5057114F503
:1003E000B7500EF025FC63A817F0ECF9DFF8781B86
:1003F0005CA817F0D7F96420219021A817F040F8E5
:1004000000220492CDE90201002000905CAB20683C
:1004100010F50972206810F50D7141F24870204402
:100420000EF006FC5CA817F0CDF9DFF8401B55A8CC
:1004300017F0B8F901230200206810F5117141F29C
:10044000B07020440EF062FB55A817F0BBF9DFF83E
:10045000201B4EA817F0A6F900230200206810F513
:10046000157141F6080020440EF050FB4EA817F01D
:10047000A9F9DFF8001B47A817F094F90023020040
:10048000206810F5197114F5C3500EF03FFB47A812
:1004900017F098F9DFF8E01A40A817F083F9642004
:1004A000209020A816F0ECFF00220492CDE9020172
:1004B0000020009040AB206810F51D72206810F5F8
:1004C000217141F6B80020440EF0B2FB40A817F0AD
:1004D00079F9DFF8A81A39A817F064F964201F9099
:1004E0001FA816F0CDFF00220492CDE902010020E2
:1004F000009039AB206810F52572206810F529713D
:1005000014F5C9500EF094FB39A817F05BF9DFF829
:10051000701A32A817F046F964201E901EA816F033
:10052000AFFF00220492CDE902010020009032AB1F
:10053000206810F52D72206810F5317141F6881091
:1005400020440EF075FB32A817F03CF9002041F66C
:10055000F0116054002041F6F1116054002041F682
:10056000F2116054002041F6F4116050142041F65D
:10057000F8116050022041F6FC116054032014F57C
:10058000D0510860012041F6042160500020002174
:1005900041F608222244C2E900010020002141F670
:1005A00010222244C2E900010020002141F6182255
:1005B0002244C2E900010020002114F5D152C2E911
:1005C00000015FF0120A5FF000085FF080495546B5
:1005D000BAF1000F00D56D420026DFF8C07E07E0BB
:1005E0004046494642464B4617F000F98046894648
:1005F000E80707D542464B463000390017F0F6F8B9
:1006000006000F006D08002DEAD1BAF1000F12D5D7
:100610000020002132003B0017F0C2F903D1002076
:10062000DFF87C1E09E00020DFF8701E32003B007E
:1006300017F0C6F901E03000390041F628222244C3
:10064000C2E90001002041F6302160540020DFF8AB
:100650004C1E41F638222244C2E900010020DFF896
:100660003C1E14F5D252C2E900010020002141F6DF
:1006700048222244C2E900010020002141F6502214
:100680002244C2E900010020002141F65822224400
:10069000C2E900010020002114F5D352C2E9000193
:1006A0000020002141F668222244C2E90001002016
:1006B000002141F670222244C2E9000164201D900D
:1006C0001DA816F0DDFE41F678222244C2E90001A1
:1006D00064201C901CA816F0D3FE14F5D452C2E975
:1006E000000165201B901BA816F0CAFE41F6882267
:1006F0002244C2E90001052041F69021605000200B
:1007000041F69421605041F69820204417F07BFA7E
:1007100041F6A420204417F076FA0020002141F68B
:10072000B0222244C2E900010020002141F6B82293
:100730002244C2E900010020002114F5D652C2E98A
:100740000001012041F6C821605441F6CC2020442C
:1007500017F061FA002041F6D8216054002041F6DC
:10076000D92160540020002114F5D752C2E90001BC
:10077000DFF8300DDFF8301D41F6E8222244C2E9EF
:100780000001002041F6F0216054002041F6F121E3
:1007900060540020002141F6F8222244C2E9000101
:1007A000002014F5D8510870002019904FF47A7089
:1007B0001A901AAA19A941F60830204416F0AEFE84
:1007C000002014F5D9510860002041F62431605012
:1007D000002041F628316050002041F62C31605055
:1007E00041F6303020440CF0EAFF002041F6583149
:1007F00060544FF47A70189018A816F041FECDE9B5
:10080000280128A914F5DB5016F0F6FE002041F669
:10081000703160540020002141F690322244C2E938
:1008200000010020002141F698322244C2E9000173
:100830000020002114F5DD52C2E900010020002152
:1008400041F6A8322244C2E900010020002141F60D
:10085000B0322244C2E90001002041F6B8316054B0
:100860000020002114F5DE52C2E90001002041F60B
:10087000C8316050002041F6CC316050012041F673
:10088000D0316050052041F6D4316050002041F64F
:10089000D831605041F6DC30204417F0C4F941F6FD
:1008A000E830204417F0AFF9022041F6F4316050EF
:1008B000002041F6F83160540020DFF8E01B14F509
:1008C000E052C2E900010020DFF8D01B41F60842E7
:1008D0002244C2E90001002041F61041605400208A
:1008E00041F611416054002041F648416054002017
:1008F00014F5E4510870002041F681416054002055
:1009000041F6B8416054002014F5E9510870002008
:1009100041F68851605441F6782004EB000141F61D
:10092000D850204416F02AFE002041F64861605459
:100930000020002141F650622244C2E9000100205B
:10094000002141F658622244C2E900010020002142
:1009500014F5F352C2E900010020002141F668625B
:100960002244C2E900010020002141F670622244C5
:10097000C2E900010020002141F698622244C2E948
:1009800000010020002114F5F552C2E900016420A5
:10099000179017A816F074FD41F6A8622244C2E928
:1009A00000010020002141F6B0622244C2E90001AA
:1009B0000A2041F6B861605004F69C7017F03BF9CC
:1009C000050004F69C7017F036F980B20200ADB253
:1009D000290041F6D860204417F03DF9002000219D
:1009E00041F618722244C2E900010020002114F5EA
:1009F000F952C2E900010020002141F62872224488
:100A0000C2E90001642041F6307160504FF49670E5
:100A1000169016A814F0FAFB41F668722244C2E957
:100A2000000141F6687004EB000141F6707020444B
:100A300016F0A4FD012041F68871605400200021C9
:100A400041F690722244C2E900010020002141F6E3
:100A500098722244C2E90001002014F5FD5108609B
:100A6000DFF8480ADFF8481A41F6A8722244C2E9C2
:100A700000010020DFF8241A41F6B0722244C2E9D6
:100A800000010020002141F6B8722244C2E90001B1
:100A90000020DFF8081A14F5FE52C2E90001012017
:100AA00041F6C87160504FF47A7041F6CC716050D5
:100AB00004F2D470109041F2C41020440F9004F25C
:100AC000CC700E9041F2BC1020440D9004F2C47022
:100AD0000C9004F2BC700B9041F2B41020440A90C8
:100AE00004F2B470099004F2AC70089004F2A4709F
:100AF000079004F29C70069004F29470059004F242
:100B00008C70049004F28470039004F27C70029064
:100B100004F274700190206810F5846000902068E1
:100B200010F58263206810F58062206810F57C71F2
:100B300041F6D070204410F0A7FA0020DFF85C19CD
:100B400042F210322244C2E90001DFF86009DFF806
:100B5000941E42F218322244C2E900010020DFF85C
:100B60003C1942F220322244C2E900010020002157
:100B700042F228322244C2E900010020DFF8681E58
:100B800042F230322244C2E900010020DFF85C1E4C
:100B9000CDE900010022DFF8583E04F2847142F2F0
:100BA0003830204410F07BFF04F64C00159014F50B
:100BB0000460149004F63400139004F6240012909C
:100BC00004F61C00119004F61400109004F60C00BA
:100BD0000F9004F604000E9004F2FC700D9004F2E5
:100BE000F4700C9004F2EC700B9004F2E4700A9034
:100BF00004F2DC7009900020089042F2203020447A
:100C0000D0E90001CDE9060142F218302044D0E9D4
:100C10000001CDE9040142F210302044D0E9000186
:100C2000CDE90201206810F5747000904623206819
:100C300010F5587242F2383004EB000142F25030A5
:100C4000204417F021F842F2503004EB000142F248
:100C5000B030204410F06FFF41F224202044109067
:100C600041F2182020440F9041F20C2020440E90B5
:100C700041F2FC1020440D9041F2F41020440C90FD
:100C800041F2EC1020440B9041F2E41020440A9011
:100C900041F2DC102044099041F2D4102044089025
:100CA00041F2CC102044079004F64C00069014F555
:100CB0000460059004F63400049004F614000390D8
:100CC00004F60C00029004F60400019004F2FC709B
:100CD000009004F2F47304F2EC7204F2DC7114F587
:100CE000165011F08DFA0020DFF8B01742F2D05202
:100CF0002244C2E90001DFF8B407DFF8E81C42F241
:100D0000D8522244C2E900010020DFF8901742F2D5
:100D1000E0522244C2E900010020002142F2E852E0
:100D20002244C2E900010020DFF8BC1C42F2F0526C
:100D30002244C2E900010020DFF8B81CCDE900011F
:100D40000022DFF8AC3C04F2747142F2F850204407
:100D500010F0A5FE04F6C800159004F6BC0014902F
:100D600014F50B60139014F50A60129004F69800C5
:100D7000119014F50960109004F688000F9014F596
:100D800008600E9004F678000D9014F507600C9042
:100D900004F668000B9014F506600A9004F65800FB
:100DA00009900020089042F2E0502044D0E9000170
:100DB000CDE9060142F2D8502044D0E90001CDE946
:100DC000040142F2D0502044D0E90001CDE90201F3
:100DD000206810F5787000904523206810F5667241
:100DE00042F2F85004EB000142F21060204416F089
:100DF0004BFF42F2106004EB000142F270602044AD
:100E000010F099FE41F288202044109041F27C209D
:100E100020440F9041F2702020440E9014F593501E
:100E20000D9041F2582020440C9041F25020204473
:100E30000B9041F2482020440A9014F592500990FA
:100E400041F238202044089041F23020204407909D
:100E500004F6C800069004F6BC00059014F50B607B
:100E6000049014F50960039004F68800029014F5CC
:100E70000860019004F67800009014F5076304F60A
:100E8000680204F6580114F5215011F0B9F9002058
:100E900042F69001605404F69852211D42F69800E3
:100EA00020440CF0E3FD200000F0ACFD200000F039
:100EB000BEFD16F037FF039004F6F86016F038FF19
:100EC0008DF80C0014F5706016F032FF8DF80D00EF
:100ED00004F6087016F02CFF8DF80E0014F5716002
:100EE00016F026FF8DF80F0016F01CFF029004F696
:100EF000187016F01DFF8DF8080014F5726016F0DA
:100F000017FF8DF8090004F6287016F011FF8DF810
:100F10000A0014F5736016F00BFF8DF80B0016F045
:100F200001FF019004F6387016F002FF8DF80400FE
:100F300014F5746016F0FCFE8DF8050004F6487098
:100F400016F0F6FE8DF8060014F5756016F0F0FE4A
:100F50008DF8070004F6587016F0FAFE002811D03C
:100F6000012010E05CBB050864BB05086CBB0508EC
:100F700074BB05087CBB050884BB05088CBB050851
:100F800094BB05080020C0B20090019B029A03990F
:100F90002068A03016F04EFF206810F1A0010DF17E
:100FA00002000FF025FF17F0D2FB0500082101A871
:100FB00017F014FCDDE90101CDE9300130A928006A
:100FC00017F018FC04F6985017F024FC41F6C821DD
:100FD000605441F6C82004EB000114F11C0017F026
:100FE00027FC14F55A6017F030FC14F5D252C2E910
:100FF000000114F5D25114F1B40017F04CFC04F6C2
:10100000A85017F022FC41F638222244C2E9000120
:1010100041F6382004EB000114F1BC0017F03BFC52
:1010200004F6E86114F1D40017F042FC14F56F6186
:1010300014F1DC0017F03CFC14F55B6017F0EAFBE0
:101040000100C9B241F2B83020440EF0F9F841F283
:10105000B83020440EF076F98DF801000DF1010151
:1010600014F5CC7017F0E4FB04F6B85017F0D2FB7F
:1010700014F5D051086014F5D05000688DF80000C8
:10108000694614F5D07017F0D3FB14F55C6017F0C7
:10109000C1FB0D900DA816F0F3F914F5D452C2E976
:1010A000000114F55C6114F5FE7017F012FC41F6B6
:1010B000A8602044D0E9002341F2B83020440EF06B
:1010C00047F914F56D6017F0A5FB0C900CA816F00D
:1010D000D7F941F688222244C2E9000114F56D6176
:1010E00014F56E7017F0F5FB04F6C85017F092FB7C
:1010F0000B900BA816F0C4F941F678222244C2E9FD
:10110000000104F6C85114F5017017F0E2FB14F564
:101110005D6017F09AFB41F6F8222244C2E9000113
:1011200041F6F82004EB000114F5037017F0B3FB4F
:1011300004F6D85017F0DDFB17F0F0FB41F6F8226B
:101140002244C2E9000141F6F82004EB000114F545
:10115000037017F0A0FB14F55E6017F05BFB41F61F
:101160009021605041F6902004EB000114F50770C7
:1011700017F0E5FB200008F067FB41F6184004EB90
:10118000000141F2584020440FF012FA04F6647155
:1011900014F5767017F08CFB04F6647017F055FBAD
:1011A00041F650622244C2E9000104F66C7114F564
:1011B000787017F07DFB04F66C7017F046FB41F673
:1011C00058622244C2E9000104F6747114F57A7081
:1011D00017F06EFB04F6747017F037FB14F5F3523A
:1011E000C2E9000104F67C7114F57C7017F060FB15
:1011F00004F67C7017F029FB41F668622244C2E9CC
:10120000000141F2B830204417F0A6FB41F6086215
:101210002244C2E9000141F2B830204417F0DEFB5D
:1012200041F610622244C2E900010020002141F68B
:1012300018622244C2E900010020002114F5F15295
:10124000C2E900010020002141F628622244C2E9DF
:101250000001002041F630616050002041F6346109
:1012600060500020002141F638622244C2E90001AA
:101270008E48DFF8841714F5F252C2E9000104F633
:10128000847114F5806017F013FB04F6847017F076
:10129000DCFA41F698622244C2E9000104F68C713E
:1012A00014F5816017F004FB04F68C7017F0CDFA8A
:1012B00014F5F552C2E9000141F698602044D0E9E6
:1012C000000141F678622244C2E9000100200021B9
:1012D00014F5F452C2E900010020002141F68862B1
:1012E0002244C2E90001012141F2584020440EF09D
:1012F00093FA02000B0014F5F550D0E9000116F046
:1013000075FA41F690622244C2E9000104F6947134
:1013100014F5846017F0CCFA04F6947017F095FA7F
:1013200041F6B0622244C2E9000104F69C7016F056
:1013300082FC80B241F6B86160500020002114F5B3
:10134000F652C2E900010020002141F6C8622244A1
:10135000C2E90001012141F2584020440EF05CFA3C
:1013600002000B0041F6B0602044D0E9000116F005
:101370003DFA41F6D0622244C2E9000104F69C71B4
:1013800014F5896017F070FB04F6B47017F05DFA7D
:1013900014F5F952C2E9000114F5F950D0E900231F
:1013A000200008F0A4F941F618722244C2E90001B5
:1013B00014F5F95114F58D6017F06DFA41F61870B7
:1013C00004EB000114F58C6017F065FA04F6BC70AC
:1013D00017F03BFA41F628722244C2E9000141F6B7
:1013E000287004EB000114F58E6017F054FA04F62F
:1013F000A47016F09DFCC0B211F0D8FA41F68871C5
:10140000605404F6A47114F58A6017F03EFB14F5DD
:101410005F6017F01AFA41F688322244C2E90001EF
:1014200041F6883004EB000114F5567017F033FADA
:1014300014F5626017F009FA02000B0041F2B830AF
:1014400020440DF0CEFF41F2B83020440DF0CFFF24
:10145000CDE9100110A914F5647017F01CFA04F618
:10146000286017F0F2F902000B0041F2B830204476
:101470000DF0BAFF41F2B83020440DF0BBFFCDE9CA
:101480000E010EA914F5667017F005FA04F638601F
:1014900016F05EFC00280DD001200CE00000F03FAB
:1014A0000000F07FCDCCCCCCCC60B5409A99999916
:1014B0009999D93F002041F6D821605441F6D820AF
:1014C000215C14F1600017F0F1FA04F6446016F0A4
:1014D0003FFC002801D0012000E0002041F67031DF
:1014E000605441F67030215C14F5C67017F0DEFAD6
:1014F00014F5656016F02CFC002801D0012000E0F6
:10150000002041F6D921605441F6D920215C14F520
:10151000157017F0CBFA41F6D920215C14F5B750BD
:1015200017F0DAFA41F6D920215C41F248702044E4
:1015300017F0D2FA41F6D920215C41F6B8002044D8
:1015400017F0CAFA41F6D920215C14F5C95017F0FA
:10155000C3FA41F6D920215C41F68810204417F0E7
:10156000BBFA04F65C6016F0F3FB002801D0012002
:1015700000E0002041F6B831605441F6B830215CFB
:1015800014F51E7017F092FA04F6B86017F0B1F96E
:1015900041F60421605041F6042004EB000114F5EB
:1015A000687017F09CFA14F56C6017F0A2F941F618
:1015B000D031605041F6D0302058059005A914F57F
:1015C0006A7017F08CFA04F6C86017F092F941F6C9
:1015D000D431605041F6D4302058049004A914F559
:1015E0006C7017F07CFA04F6D86017F02EF914F539
:1015F000E052C2E9000114F5E05114F5707017F0E3
:101600004AF904F6686114F5217017F075FA14F5BB
:10161000686114F5447017F06FFA14F5447016F011
:1016200097FB002801D0012100E00021C9B241F25E
:101630005840204417F079FA14F56E6017F005F958
:1016400041F608422244C2E9000141F6084004EB99
:10165000000114F5727017F01EF904F6986016F088
:1016600067FB0100C9B220000CF094F841F6FC11B0
:10167000605404F6986114F52D7017F006FA04F61C
:10168000AC6114F54D7017F037FA41F28410204424
:1016900017F0DBF841F6A8722244C2E9000141F2DA
:1016A000841004EB000114F5936017F001F941F286
:1016B0008C10204417F0C9F841F6B0722244C2E9F8
:1016C000000141F28C1004EB000114F5946017F056
:1016D000EFF841F29410204417F0B7F841F6B872D1
:1016E0002244C2E9000141F2941004EB000104F22B
:1016F000547017F0DDF841F29C10204417F0A5F863
:1017000014F5FE52C2E9000141F29C1004EB000105
:1017100004F25C7017F0CCF841F2A410204417F0EA
:10172000E8F841F6C871605041F2A41004EB0001E2
:1017300004F2647017F0FCF941F2AC10204417F089
:1017400084F817F005FA41F6CC71605041F2AC1004
:1017500004EB000104F26C7017F0AAF800200021DD
:1017600041F678322244C2E900010020002114F53C
:10177000DC52C2E9000114F55F6017F066F841F62B
:1017800088322244C2E9000104F6C85017F042F83A
:101790000A900AA815F074FE41F678222244C2E9A4
:1017A000000104F6F86114F5986017F06EF914F56D
:1017B000706114F5996017F068F904F6087114F572
:1017C0009A6017F062F914F5716114F59B6017F0D7
:1017D0005CF904F6187114F59C6017F056F914F5CD
:1017E000726114F59D6017F050F904F6287114F534
:1017F0009E6017F04AF914F5736114F59F6017F0B5
:1018000044F904F6387114F5A06017F03EF914F5A8
:10181000746114F5A16017F038F904F6487114F5F5
:10182000A26017F032F914F5756114F5A36017F092
:101830002CF904F6587114F5A46017F05DF941F61F
:10184000A8602044D0E9002314F5B7500DF047FA02
:1018500041F6A8602044D0E9002341F248702044BA
:101860000DF03DFA41F6A8602044D0E9002341F292
:10187000B07020440DF08AF941F6A8602044D0E908
:10188000002341F6080020440DF080F941F6A860DD
:101890002044D0E9002314F5C3500DF077F941F648
:1018A000A8602044D0E9002341F6B80020440DF0A0
:1018B00016FA41F6A8602044D0E9002314F5C95077
:1018C0000DF00DFA41F6A8602044D0E9002341F65E
:1018D000881020440DF003FA04F6647114F5767054
:1018E00016F0E6FF04F6082114F5296017F04DF90B
:1018F00014F5256114F52D6017F06EF904F6C42176
:1019000014F52D6017F06AF904F6AC2114F52D607A
:1019100017F064F904F6B82114F52D6017F05EF99C
:101920001420099009A815F0ABFD02000B0014F576
:101930002D6017F05CF91420089008A815F0A0FDA0
:1019400002000B0014F52D6017F056F94FF4FA70F1
:10195000079007A815F094FD02000B0014F52D6008
:1019600017F04FF93220069006A815F089FD020005
:101970000B0014F52D6017F04EF9782017F04EF992
:101980000500231D04F6C42214F52961280018F06F
:10199000F1FF010014F5366019F001F9002114F58A
:1019A0001C600DF0B4FD16F0D2FE144919F00BF9CD
:1019B00016F0CDFE082119F0E1F9114919F03CFAB1
:1019C00004F6BC1104F6D40016F0B9FF41F29420DD
:1019D00004EB000104F6DC0016F07BFF20006AB087
:1019E000BDE8F0879999A93F000039400080414047
:1019F00000002E40008046409999B93F10880508A4
:101A00005D57050810B50400206810F5987114F5AD
:101A1000256011F00BFF206810F59E7114F525600C
:101A200011F01CFF14F5256011F039FF10BD70474F
:101A30002DE9F84FADF5176D0600306816F08EFDF4
:101A400016F5376013F0D9F906F6384014F0E7FDC3
:101A500041F27030304415F02DFC41F2B830304482
:101A60000DF0CEFC41F2584030440EF01EF816F551
:101A7000B7500DF068F941F2487030440DF063F949
:101A800041F2B07030440DF0A7F841F60800304440
:101A90000DF0A2F816F5C3500DF09EF841F6B8000F
:101AA00030440DF050F916F5C9500DF04CF941F6DF
:101AB000881030440DF047F916F51C600DF03CFD20
:101AC00016F5366019F0C0F918F0E4FF06F60820A4
:101AD00011F09AFC16F52D6019F0D8F941F6D07086
:101AE00030440FF000FD42F2B030304410F027FADD
:101AF00042F27060304410F022FA06F6AC2019F081
:101B0000E3FA002804D0002116F51C600DF0FFFC5C
:101B100016F5B55015F08EFDC0B2002800F0EA862B
:101B20000021301D19F0D6FA300008F072FA41F6A3
:101B300048417054300008F08DFB010016F5E45068
:101B40000078002802D116F5E4500170300008F04A
:101B5000ABFC010041F68140305C002802D141F627
:101B600081403154300008F002FE41F6B841705413
:101B7000300008F026FF16F5E9510870300009F032
:101B80004AF841F688517054300008F0F4F941F6F3
:101B9000F010305C012800F00F8116F5DA7016F0B5
:101BA00054FE04000D0041F2B83030440DF078FBD3
:101BB00022002B0015F0F4FE0BD041F2B830304477
:101BC0000DF06EFBCDE9460146A916F5DA7016F068
:101BD00062FE16F5DE7016F08CFE040041F2B8309D
:101BE00030440DF0A9FB84420AD041F2B8303044B1
:101BF0000DF0A2FB139013A916F5DE7016F06FFF1F
:101C000016F5D47016F0A4F8040041F2B830304450
:101C10000DF002FAC0B284420AD041F2B83030442A
:101C20000DF0FAF90100C9B216F5D47016F03EFFB6
:101C300016F5CC7016F07CF8040041F2B830304450
:101C40000DF080FBE4B2C0B284420BD041F2B83058
:101C500030440DF077FB8DF8100004A916F5CC7018
:101C600016F0E6FD16F5AE7016F072F8040016F5E3
:101C7000B7500DF023F8844208D016F5B7500DF098
:101C80001DF8010016F5AE7016F010FF16F5B470D1
:101C900016F05EF8040041F2487030440DF00EF882
:101CA000844209D041F2487030440DF007F8010039
:101CB00016F5B47016F0FAFE16F59C7016F048F89A
:101CC000040041F2B07030440CF055FF844209D05A
:101CD00041F2B07030440CF04EFF010016F59C70DC
:101CE00016F0E4FE16F1E40016F032F8040041F6B6
:101CF000080030440CF03FFF844209D041F6080050
:101D000030440CF038FF010016F1E40016F0CEFE6E
:101D100016F1F00016F01CF8040016F5C3500CF094
:101D20002AFF844208D016F5C3500CF024FF0100AE
:101D300016F1F00016F0BAFE16F1FC0016F008F8E5
:101D4000040041F6B80030440CF0B8FF844209D0DA
:101D500041F6B80030440CF0B1FF010016F1FC0070
:101D600016F0A4FE16F5847015F0F2FF040016F5C7
:101D7000C9500CF0A3FF844208D016F5C9500CF0EE
:101D80009DFF010016F5847016F090FE16F58A701E
:101D900015F0DEFF040041F6881030440CF08EFF91
:101DA000844209D041F6881030440CF087FF0100CE
:101DB00016F58A7016F07AFE41F25840304419F058
:101DC000A4F9C0B2002862D041F6905006EB0001A1
:101DD00041F2584030440EF0AAFF41F6B85006EBED
:101DE000000106F6B41016F0AAFD41F698503044F2
:101DF000D0E900230020DFF82C1615F0F7FC31F0B5
:101E00000041CDE92E012EA916F5916016F043FD93
:101E100016F5ED5116F5976016F061FE41F6A850E3
:101E200006EB000116F58F6016F035FD41F6B05057
:101E30003044D0E900230020DFF8E81515F0D6FC87
:101E4000CDE92C012CA916F5906016F024FD41F681
:101E5000F010305C00280ED041F6F110305C022802
:101E600009D041F690503044D0E9000141F6983253
:101E70003244C2E9000141F698503044D0E90023D1
:101E800033F0004342F6980030440BF09DFE16F507
:101E9000F27016F0DAFC02000B0041F69830304484
:101EA000D0E9000115F07CFD1ED041F6983006EB1C
:101EB000000116F5F27016F0EEFC41F69830304451
:101EC000D0E9002341F67830304419F08EFB41F61A
:101ED00090323244C2E9000141F6903006EB000135
:101EE00016F5587016F0D7FC16F5187015F030FF7F
:101EF000002829D0002116F5187016F0D7FD41F6FC
:101F000098303044D0E9000141F678323244C2E9D9
:101F1000000141F698303044D0E9000116F5DC525A
:101F2000C2E9000141F698303044D0E9000141F6A1
:101F300090323244C2E9000141F6903006EB0001D4
:101F400016F5587016F0A7FC16F1900015F0F0FE8B
:101F500041F6F011715CC0B288420AD041F6F0102F
:101F6000305C8DF80F000DF10F0116F1900016F0A6
:101F70005FFC16F5FA7016F068FC02000B0016F50F
:101F8000DD50D0E9000115F00BFD05D016F5DD514F
:101F900016F5FA7016F07FFC41F6F010305C002860
:101FA00020D141F6F110305C02281BD116F5A76054
:101FB00015F0CEFE01280CD1002116F5A76016F011
:101FC00075FD002106F22C5016F070FD300007F070
:101FD00055F806F22C5015F0BBFE002802D1300057
:101FE00007F0B2F816F11C0015F0A2FE040006F688
:101FF000985016F00FFCE4B2844209D016F11C0090
:1020000015F096FE129012A906F6985016F097FC5D
:1020100016F1B40016F019FC04000D0016F55A6014
:1020200016F013FC22002B0015F0BAFC05D016F1B7
:10203000B40116F55A6016F03BFC16F1BC0016F020
:1020400004FC04000D0006F6A85016F0FEFB22006A
:102050002B0015F0A5FC05D016F1BC0106F6A85022
:1020600016F026FC16F1D40016F0EFFB04000D006C
:1020700006F6E86016F0E9FB22002B0015F090FC54
:1020800005D016F1D40106F6E86016F011FC16F141
:10209000DC0016F0DAFB04000D0016F56F6016F098
:1020A000D4FB22002B0015F07BFC05D016F1DC01DF
:1020B00016F56F6016F0FCFB16F5CC7015F038FEC7
:1020C000040016F55B6016F0A5FBE4B2844209D06B
:1020D00016F5CC7015F02CFE119011A916F55B6069
:1020E00016F02DFC16F5D07015F022FE040006F651
:1020F000B85016F08FFBE4B2844209D016F5D070C8
:1021000015F016FE109010A906F6B85016F017FC40
:1021100016F5FE7016F07EFB040016F55C6016F0F6
:1021200079FB844205D016F5FE7116F55C6016F059
:10213000D0FB16F5017016F06DFB040006F6C850D2
:1021400016F068FB844205D016F5017106F6C850FA
:1021500016F0BFFB16F5037016F077FB04000D00B8
:1021600016F55D6016F071FB22002B0015F018FCCF
:1021700005D016F5037116F55D6016F099FB16F59E
:10218000057016F0B6FB040006F6D85016F0B1FB49
:10219000844205D016F5057106F6D85016F0C8FC35
:1021A00016F5077016F036FB040016F55E6016F0A3
:1021B00031FB844205D016F5077116F55E6016F006
:1021C00088FB16F5567016F040FB02000B0041F636
:1021D00088303044D0E9000115F0E2FB0ED016F54E
:1021E000567016F032FB41F688323244C2E90001E3
:1021F00016F5567116F55F6016F05AFB16F55A7013
:1022000016F008FB040006F6F85016F003FB8442B3
:1022100005D016F55A7106F6F85016F05AFB16F569
:102220005C7016F0F7FA040016F5606016F0F2FA2A
:10223000844205D016F55C7116F5606016F049FB16
:1022400016F55E7016F0E6FA040006F6086016F061
:10225000E1FA844205D016F55E7106F6086016F0C4
:1022600038FB16F5647016F0F0FA04000D0016F550
:10227000626016F0EAFA22002B0015F091FB05D0FF
:1022800016F5647116F5626016F012FB16F56670AD
:1022900016F0DBFA04000D0006F6286016F0D5FAF9
:1022A00022002B0015F07CFB05D016F5667106F6B2
:1022B000286016F0FDFA16F1600015F049FD0400E3
:1022C00006F6386015F044FD844205D016F1600131
:1022D00006F6386016F010FC16F5C67015F038FDDD
:1022E000040006F6446015F033FD844205D016F56F
:1022F000C67106F6446016F0FFFB16F51E7015F069
:1023000027FD040006F65C6015F022FD844205D02E
:1023100016F51E7106F65C6016F0EEFB16F5687099
:1023200016F0E7FA040006F6B86016F0E2FA844206
:1023300005D016F5687106F6B86016F0F9FB16F5CB
:102340006A7016F0D6FA040016F56C6016F0D1FA31
:10235000844205D016F56A7116F56C6016F0E8FB3C
:1023600016F56C7016F0C5FA040006F6C86016F093
:10237000C0FA844205D016F56C7106F6C86016F0F6
:10238000D7FB16F56E7016F045FA040016F56D6071
:1023900016F040FA844205D016F56E7116F56D60A0
:1023A00016F097FA16F5707016F04FFA04000D004B
:1023B00006F6D86016F049FA22002B0015F0F0FA64
:1023C00005D016F5707106F6D86016F071FA16F59C
:1023D000217015F0BDFC040006F6686015F0B8FC2D
:1023E000844205D016F5217106F6686016F084FB6C
:1023F00016F5447015F0ACFC040016F5686015F095
:10240000A7FC844217D016F5447116F5686016F0E3
:1024100073FB16F5447015F09BFC002804D00121D5
:1024200003E000BF80842E410021C9B241F2584030
:10243000304416F07AFB16F53B7015F089FC040069
:1024400006F6746015F084FC844205D016F53B71E5
:1024500006F6746016F050FB16F5727016F0F5F97A
:1024600004000D0016F56E6016F0EFF922002B0047
:1024700015F096FA05D016F5727116F56E6016F025
:1024800017FA16F52D7015F053FC040006F6986047
:1024900015F04EFCE4B2C0B2844205D016F52D71A1
:1024A00006F6986016F0F1FA16F54D7015F050FC2E
:1024B000040006F6AC6015F04BFC844205D016F51E
:1024C0004D7106F6AC6016F017FB16F58A6015F034
:1024D0002FFC040006F6A47015F02AFCE4B2C0B28A
:1024E000844205D016F58A6106F6A47016F0CDFA7E
:1024F00016F5936016F0A9F904000D0041F284105E
:10250000304416F0A2F922002B0015F049FA20D031
:1025100016F5936141F28410304416F0C9F916F5AE
:10252000936016F092F941F6A8723244C2E90001B4
:1025300041F2B07030440CF01EFB012809D141F685
:10254000A8703044D0E9002341F2584030440EF0E6
:1025500011FC16F5946016F078F904000D0041F2B4
:102560008C10304416F071F922002B0015F018FA87
:1025700020D016F5946141F28C10304416F098F991
:1025800016F5946016F061F941F6B0723244C2E972
:10259000000141F2B07030440CF0EDFA002809D18E
:1025A00041F6B0703044D0E9002341F25840304445
:1025B0000EF0E0FB16F53B7015F0CAFB040006F6C2
:1025C000746015F0C5FB844205D016F53B7106F624
:1025D000746016F091FA06F2547016F036F90400A1
:1025E0000D0041F29410304416F02FF922002B0018
:1025F00015F0D6F90FD006F2547141F29410304420
:1026000016F056F906F2547016F01FF941F6B8723A
:102610003244C2E9000106F25C7016F016F90400BB
:102620000D0041F29C10304416F00FF922002B00EF
:1026300015F0B6F90ED006F25C7141F29C103044F0
:1026400016F036F906F25C7016F0FFF816F5FE5239
:10265000C2E9000106F2647016F04BF9040041F281
:10266000A410304416F045F984420DD006F264718E
:1026700041F2A410304416F05BFA06F2647016F0D2
:1026800038F941F6C871705006F26C7016F0DDF83A
:1026900004000D0041F2AC10304416F0D6F82200D0
:1026A0002B0015F07DF90FD006F26C7141F2AC10E1
:1026B000304416F0FDF806F26C7016F0C6F816F00D
:1026C00047FA41F6CC71705016F5157015F040FBC5
:1026D000040016F5656015F03BFB844211D016F539
:1026E000157116F5656016F007FA16F5157015F0F8
:1026F0002FFB002801D0012000E0002041F6D92165
:10270000705442F69000305C012809D043D303286E
:102710001AD00FD305282AD01FD3062831D03AE08B
:1027200001208DF80E000DF10E0116F5507016F017
:102730007FF838E002208DF80D000DF10D0116F53F
:10274000507016F075F82EE003208DF80C0003A9E8
:1027500016F5507016F06CF825E004208DF80B008B
:102760000DF10B0116F5507016F062F81BE0052014
:102770008DF80A000DF10A0116F5507016F058F8A0
:1027800011E006208DF809000DF1090116F55070D1
:1027900016F04EF807E000208DF8080002A916F5A3
:1027A000507016F045F806F6F86116F5986018F0C6
:1027B00093FF16F5706116F5996018F08DFF06F617
:1027C000087116F59A6018F087FF16F5716116F515
:1027D0009B6018F081FF06F6187116F59C6018F0E2
:1027E0007BFF16F5726116F59D6018F075FF06F611
:1027F000287116F59E6018F06FFF16F5736116F5D7
:102800009F6018F069FF06F6387116F5A06018F0A1
:1028100063FF16F5746116F5A16018F05DFF06F60A
:10282000487116F5A26018F057FF16F5756116F598
:10283000A36018F051FF06F6587116F5A46018F061
:1028400061FF16F516500FF04BFD16F521500FF0F5
:1028500047FD41F25840304418F068FF012805D088
:10286000012116F52A7016F021F904E0002116F571
:102870002A7016F01BF916F5477015F069FA012851
:1028800007D1002116F5477016F010F930000AF054
:102890000DFA06F6D40015F0BDFFD6F8BC19884233
:1028A00005D006F6BC1106F6D40016F048F806F678
:1028B000DC0015F0AFFF040041F29420304415F025
:1028C000A9FF844206D006F6DC0141F29420304490
:1028D00015F0FFFF42F6980030440BF098F941F6EE
:1028E000303030440BF053F8079007A916F5097003
:1028F00016F025F841F2B060304414F09BFEC0B2EF
:10290000002818D041F2D860305C002804D030682C
:10291000C03018F0D0FF03E03068C03018F0D4FFAA
:1029200041F2D860305C002801D1012000E0002095
:1029300041F2D861705416F5DB5014F07BFEC0B242
:10294000002842D041F65830305C00280CD016F5F3
:10295000D9500068401C16F5D951086016F5D951B8
:1029600016F50B7015F0EBFF41F6F010305C022805
:102970002BD141F628303058401C41F62831705098
:1029800041F62C303258002141F62C303058401E90
:1029900019F016F941F62C31705041F630303044C0
:1029A0000AF05BFF41F6283006EB000116F50F70C8
:1029B00015F0C5FF41F6303030440AF0E6FF0690CE
:1029C00006A916F5117015F0BAFF41F6F010305C4B
:1029D000002809D0022801F0D981C0F045810328E0
:1029E00000F0868706F03DBB41F6F110305C002810
:1029F00005D0022800F0D980C0F0A780F1E015F0E2
:102A0000A6FEDFF8B01D18F017FA002116F5B75032
:102A10000CF04DF9002141F2487030440CF047F9B8
:102A2000012141F2B07030440CF09EF8002141F6D3
:102A3000080030440CF098F8002116F5C3500CF053
:102A400093F8002141F6B80030440CF030F9002131
:102A500016F5C9500CF02BF9002141F688103044CE
:102A60000CF025F941F6A8703044D0E9002341F27A
:102A7000584030440EF07EF941F2B830304419F03D
:102A8000A6F841F2B83030440CF07EFA0022002360
:102A900041F2B83030440CF05BFB41F25840304416
:102AA00019F099F841F6184006EB000141F2584040
:102AB00030440DF07DFD002116F5B75016F00CF8EE
:102AC000002141F24870304416F006F8002141F62A
:102AD000B800304416F000F8002116F5C95015F082
:102AE000FBFF002141F68810304415F0F5FF00216E
:102AF00016F1780015F0DAFF41F6902006EB0001A0
:102B000016F5077015F01BFF16F5B65014F04EFDC4
:102B1000002116F5247015F0C9FF002041F6486128
:102B20007054002116F52F7015F0C0FF002116F526
:102B3000357015F0BBFF002116F5387015F0B6FFA3
:102B4000012041F6F11170544BE016F5B65014F027
:102B500038FDC0B2002827D015F0F9FDDFF8541C6D
:102B600018F06AF915F0F3FDDFF84C1C18F02BF89B
:102B7000DFF8401C18F060F915F0E9FDDFF83C1CA7
:102B800018F021F8DFF82C1C18F056F915F0DFFDCD
:102B9000DFF8241C18F017F8DFF8181C18F04CF9AF
:102BA000022041F6F11170541BE016F1780015F087
:102BB000CFF8012817D041F25840304418F0B6FD44
:102BC00001280ED141F690503044D0E9000141F681
:102BD00098323244C2E9000141F2584030440CF0CE
:102BE0009FFD06F03EBA002116F1780015F05EFF59
:102BF000002116F1840015F059FF16F10C0015F0B4
:102C000097F8C0B2012804D024D3032819D009D3DF
:102C100020E0012041F6F0117054002041F6F1113E
:102C20007054DEE716F5366018F00EF917F008FF5D
:102C3000022041F6F0117054002041F6F111705459
:102C4000CFE7032041F6F0117054002041F6F11156
:102C50007054C6E700208DF807000DF1070116F14A
:102C60000C0015F0E5FDBCE741F6F020305C0028D3
:102C700015D0022800F0CE80C0F09280042800F029
:102C80005D83C0F02D83062800F0F983C0F08783B0
:102C9000082800F01586C0F09B8500F027BE15F0CF
:102CA00056FDDFF8101B18F0C7F815F050FDDFF8DF
:102CB000081B17F088FFDFF8FC1A18F0BDF815F0B4
:102CC00046FDDFF8FC1A17F07EFFDFF8E81A18F06F
:102CD000B3F815F03CFDDFF8E01A17F074FFDFF8E9
:102CE000D41A18F0A9F841F6A8603044D0E90023BE
:102CF00016F5B7500BF0F3FF41F6A8603044D0E969
:102D0000002341F2487030440BF0E9FF41F6A8601F
:102D10003044D0E9002341F2B07030440BF036FF6C
:102D200041F6A8603044D0E9002341F60800304461
:102D30000BF02CFF41F6A8603044D0E9002316F5D3
:102D4000C3500BF023FF41F6A8603044D0E90023C4
:102D500041F6B80030440BF0C2FF41F6A8603044A1
:102D6000D0E9002316F5C9500BF0B9FF41F6A86071
:102D70003044D0E9002341F6881030440BF0AFFF17
:102D800041F6A8603044D0E9002341F2B830304425
:102D90000CF0DEFA012041F6F021705400F0A6BDDF
:102DA00041F25840304418F0C1FC012830D141F6BE
:102DB000884006EB000141F2584030440DF0F8FB2A
:102DC000012141F2584030440CF07EFD04000D001A
:102DD00041F2B83030440CF0AFFA41F6E82131440A
:102DE000D1E90023CDE9042315F098FDCDE90201D6
:102DF00041F698303044D0E90001CDE900012200CD
:102E00002B00300006F04BFB022041F6F0217054FD
:102E100000F06CBD16F16C0014F09AFF012850D040
:102E200016F5AE7014F094FF040016F5B7500BF0D1
:102E300045FF844208D016F5AE7014F089FF0100FA
:102E400016F5B7500BF033FF16F5B47014F080FF91
:102E5000040041F2487030440BF030FF844209D046
:102E600016F5B47014F074FF010041F2487030445C
:102E70000BF01DFF16F59C7014F06AFF040041F280
:102E8000B07030440BF077FE84423BD016F59C7056
:102E900014F05EFF010041F2B07030440BF064FEAC
:102EA00016F59C7014F054FF012821D041F6B07043
:102EB0003044D0E9002341F2584030440DF05AFF2D
:102EC00020E0002116F16C0015F0F0FD002041F625
:102ED000F0217054002041F6F011705400208DF85C
:102EE00006000DF1060116F10C0015F0A1FCECE155
:102EF00041F6A8703044D0E9002341F258403044F4
:102F00000DF038FF16F1E40014F022FF040041F642
:102F1000080030440BF02FFE844209D016F1E40083
:102F200014F016FF010041F6080030440BF01CFEBF
:102F300016F1F00014F00CFF040016F5C3500BF06E
:102F40001AFE844208D016F1F00014F001FF0100CF
:102F500016F5C3500BF008FE16F1FC0014F0F8FE55
:102F6000040041F6B80030440BF0A8FE844209D0BA
:102F700016F1FC0014F0ECFE010041F6B8003044FC
:102F80000BF095FE16F5847014F0E2FE040016F5C1
:102F9000C9500BF093FE844208D016F5847014F0EB
:102FA000D7FE010016F5C9500BF081FE16F58A70A8
:102FB00014F0CEFE040041F6881030440BF07EFE83
:102FC000844209D016F58A7014F0C2FE010041F661
:102FD000881030440BF06BFE16F5B75018F0FFFD6B
:102FE00041F6D921715CC0B2814206D041F6D920A8
:102FF000315C16F5B75015F06FFD41F24870304462
:1030000018F0EDFD41F6D921715CC0B2814207D0C4
:1030100041F6D920315C41F24870304415F05CFD36
:1030200041F6B800304418F0DAFD41F6D921715C60
:10303000C0B2814207D041F6D920315C41F6B800D8
:10304000304415F049FD16F5C95018F0C8FD41F699
:10305000D921715CC0B2814206D041F6D920315CE1
:1030600016F5C95015F038FD41F68810304418F0B7
:10307000B6FD41F6D921715CC0B2814207D041F65C
:10308000D920315C41F68810304415F025FD16F545
:10309000D47014F05DFE040041F2B83030440BF0FF
:1030A000BBFFC0B2844210D016F5D47014F050FEAD
:1030B000002840F0CE8041F2B83030440BF088FF59
:1030C00041F25840304418F08DFD16F5DE7015F0D1
:1030D00010FC040041F2B83030440CF02DF9844269
:1030E00034D016F5DE7015F004FC15F017FC020064
:1030F0000B0041F2B83030440CF02AF841F258404D
:10310000304418F06FFD41F2B83030440CF0C8F88C
:10311000CDE9440144A916F5DA7015F0BCFB16F5AB
:10312000DE7015F0E6FB040041F2B83030440CF0DC
:1031300003F984420AD041F2B83030440CF0FCF874
:103140000F900FA916F5DE7015F0C9FC16F5DA70B0
:1031500015F07BFB04000D0041F2B83030440CF058
:103160009FF822002B0014F01BFC36D016F5DA7005
:1031700015F06BFB02000B0041F2B83030440BF04D
:103180005EFF41F25840304418F02CFD41F2B83057
:1031900030440CF0D1F80E900EA916F5DE7015F043
:1031A0009EFC16F5DA7015F050FB04000D0041F29C
:1031B000B83030440CF074F822002B0014F0F0FB0F
:1031C0000BD041F2B83030440CF06AF8CDE942013E
:1031D00042A916F5DA7015F05EFB16F5CC7014F006
:1031E000A7FD040041F2B83030440CF0ABF8E4B273
:1031F000C0B284420FD016F5CC7014F099FD0100D6
:10320000C9B241F2B83030440CF01AF841F25840DB
:10321000304418F0E7FC41F6B840305C00280CD090
:10322000002041F6B841705441F6884006EB000199
:1032300041F2584030440DF0BBF916F5217014F0FE
:1032400087FD002810D141F25840304418F0C3FCEB
:103250000FE041F2B83030440BF096FE41F2584096
:10326000304418F0BFFC30E741F25840304418F0C9
:10327000BDFC16F53E7014F06BFD012809D141F23A
:103280005840304418F0B6FC002116F53E7015F099
:103290000DFC41F25840304418F048FA012804D19E
:1032A00041F2584030440CF03BFA16F51B7014F014
:1032B0004FFD01280AD016F52F7014F049FD0128A2
:1032C00003D1052041F6F02170540FE3002116F5DB
:1032D0001B7015F0EBFB032041F6F0217054F4E76E
:1032E00041F25840304418F021FA012825D116F552
:1032F000217014F02DFD002805D141F258403044D2
:1033000018F074FC04E041F25840304418F06EFCB0
:10331000012041F6F411705016F11C0014F008FD64
:10332000C0B241F6F811705041F2584030440CF0F0
:10333000F7F9042041F6F0217054D7E241F25840E9
:10334000304418F0F3F9012828D141F6F410305830
:1033500041F6F8117158884212D241F6F4103058F3
:10336000401C41F6F411705041F6F41030588DF8BD
:1033700005000DF1050116F1A00015F059FA08E05D
:1033800041F25840304418F026FC022041F6F0216A
:10339000705441F2584030440CF0C2F9A6E20120CA
:1033A00041F64861705416F5787015F04EFA41F602
:1033B00058623244C2E9000116F57A7015F045FAF8
:1033C00016F5F352C2E9000116F57C7015F03DFACE
:1033D00041F668623244C2E9000116F5806015F0DA
:1033E00034FA41F698623244C2E9000116F5816070
:1033F00015F02BFA16F5F552C2E9000116F58460B6
:1034000015F023FA41F6B0623244C2E9000101210D
:1034100041F2584030440CF057FA41F670623244A1
:10342000C2E9000141F2B83030440BF085FF41F6AB
:10343000E8213144D1E90023CDE9042315F06EFAE7
:10344000CDE9020141F698303044D0E90001CDE9E0
:10345000000141F670603044D0E90023300006F0EE
:103460001EF815F074F9DFF8041C17F0ACFBD14915
:1034700017F0E2FC062041F6F021705436E216F116
:103480006C0014F065FC012800F0628116F52F70C5
:1034900014F05EFC002800F07A8116F5DA7015F061
:1034A000D4F904000D0041F2B83030440BF0F8FEBE
:1034B00022002B0014F074FA0BD041F2B8303044E3
:1034C0000BF0EEFECDE9400140A916F5DA7015F0DB
:1034D000E2F916F5DE7015F00CFA040041F2B8308E
:1034E00030440BF029FF84420AD041F2B830304416
:1034F0000BF022FF0D900DA916F5DE7015F0EFFA16
:1035000041F6B840305C002836D0002041F6B84182
:10351000705441F6884006EB000141F258403044B7
:103520000DF046F8012141F2584030440CF0CCF93E
:1035300041F670623244C2E9000141F2B8303044D1
:103540000BF0FAFE41F6E8213144D1E90023CDE940
:10355000042315F0E3F9CDE9020141F69830304437
:10356000D0E90001CDE9000141F670603044D0E9B6
:103570000023300005F093FF41F68140305C0028C5
:103580002DD0002041F681417054002141F2584075
:1035900030440CF099F941F670623244C2E90001FE
:1035A00041F2B83030440BF0C7FE41F6E821314417
:1035B000D1E90023CDE9042315F0B0F9CDE90201EA
:1035C00041F698303044D0E90001CDE9000141F6E0
:1035D00070603044D0E90023300005F060FF16F53C
:1035E000357014F0B5FB012811D1002116F53570A6
:1035F00015F05CFA15F0ABF8DFF8881D17F0E3FA68
:103600006C4917F019FC072041F6F021705441F283
:103610005840304418F08AF8012840F0D88041F230
:10362000584030440CF07CF841F698303044D0E9F2
:10363000002341F67860304418F010F8CDE9180105
:1036400018A916F5826015F026F9DDE9182341F670
:10365000F050304417F09AFD04000D0022002B00BA
:1036600041F2B83030440BF0EAFC22002B0016F592
:10367000F65017F0BAFF02000B00300006F037F8E2
:10368000CDE92A012AA916F5836015F004F941F65F
:10369000386006EB000116F57E7015F0FCF822008C
:1036A0002B0041F6D860304418F0A8FA41F6D860F3
:1036B000304418F009FB02000B00300006F017F848
:1036C000CDE9280128A916F5856015F0E4F841F642
:1036D000D860304418F0FDFA02000B00300006F00C
:1036E00006F8CDE9260126A916F5866015F0D3F86F
:1036F00041F6D860304418F0E7FACDE9240124A956
:1037000016F5876015F0C7F841F6D860304418F018
:10371000E0FACDE9220122A916F5886015F0BBF880
:1037200041F6D860304418F0D4FA04000D0016F5C4
:103730008C6015F08AF802000B002000290018F0B8
:10374000EFFA3FD3002116F5387015F0AFF93EE0DF
:10375000002116F16C0015F0A9F9002041F6F021C6
:10376000705414F0F4FFDFF89C1D17F02CFA114987
:1037700017F062FB002041F6F011705400208DF824
:10378000040001A916F10C0015F052F81FE0022008
:1037900041F6F0217054002041F64861705414F055
:1037A000D6FFDFF8601D17F00EFA024917F044FB50
:1037B0000DE000BF5D570508306705085467050830
:1037C00078670508012116F5387015F06FF98DE05E
:1037D00041F2B83030440BF0FBFDC0B200286ED08F
:1037E0000022002341F2B83030440BF0B1FC01213B
:1037F00041F2584030440CF067F841F670623244B0
:10380000C2E9000141F2B83030440BF095FD41F6B9
:10381000E8213144D1E90023CDE9042315F07EF8F5
:10382000CDE9020141F698303044D0E90001CDE9FC
:10383000000141F670603044D0E90023300005F00B
:103840002EFE0020002141F638623244C2E9000118
:103850000020002116F5F152C2E9000100200021EC
:1038600041F618623244C2E900010020002141F60D
:1038700028623244C2E900010020002116F5F4520A
:10388000C2E900010020002141F688623244C2E909
:1038900000010020002116F5F652C2E900010020C7
:1038A000002141F6C8623244C2E9000141F6D86005
:1038B000304418F04CFA082041F6F021705415E01D
:1038C00041F2B83030440BF083FDC0B200280DD077
:1038D00014F03DFFDFF8301C17F075F9DFF82C1CF1
:1038E00017F0AAFA062041F6F021705405F0B9BB92
:1038F00041F6F120305C002817D0022800F0A380A8
:10390000C0F08080042800F02981C0F0EF800628F4
:1039100000F07181C0F05881082800F0D681C0F015
:103920008981092800F0F281FEE114F010FFDFF830
:10393000DC1B17F081FA14F00AFFDFF8D41B17F034
:1039400042F9DFF8C81B17F077FA14F000FFDFF830
:10395000C41B17F038F9DFF8B41B17F06DFA14F038
:10396000F6FEDFF8AC1B17F02EF9DFF8A01B17F0FE
:1039700063FA16F5D07014F0DBF9C0B26421484345
:1039800016F5D051086016F5D050006803280ED205
:10399000032016F5D051086016F5D05000688DF858
:1039A00003000DF1030116F5D07014F041FF16F17C
:1039B0001C0014F0BDF941F6C821705416F50370CF
:1039C00014F043FF41F6F8223244C2E9000116F533
:1039D000077014F01FFF41F69021705041F69020BF
:1039E00030580C900CA811F011FCCDE93E013EA915
:1039F00041F60830304413F0D1FD012041F6F121A9
:103A0000705491E1300018F0B1F9C0B2002819D01B
:103A1000012116F5B7500BF04AF9012141F6B80023
:103A200030440BF044F9002141F6881030440BF08B
:103A30003EF9002116F5C3500BF096F8022041F62E
:103A4000F121705470E1300018F090F9C0B20028F4
:103A50004BD0002016F5D8510870002041F6F41123
:103A6000705041F6F8203044D0E9000141F60822B8
:103A70003244C2E9000116F5D0500068400818F041
:103A8000A5F902000B0041F608203044D0E90001FE
:103A900018F0ACF941F608223244C2E9000114F0F2
:103AA00056FEDFF8741A17F08EF816F5D051096833
:103AB00017F064F914F04BFEDFF8501A17F0BCF958
:103AC00014F045FEDFF8541A17F07DF841F608218E
:103AD0003144D1E9002318F0FAF9DFF8301A17F071
:103AE000ABF9032041F6F12170541DE141F2B830E9
:103AF00030440BF06DFCC0B200282ED041F60820F7
:103B00003044D0E9002341F2B83030440BF020FBC0
:103B100041F60830304413F049FD14F018FEDFF888
:103B2000EC1917F089F9DFF8F81917F04CF80400D0
:103B300016F5077014F06EFE0100200017F01EF954
:103B400014F005FE5DA117F03EF8DFF8C01917F07C
:103B500073F9042041F6F1217054E5E041F6083094
:103B6000304413F02EFDC0B200280CD141F2584071
:103B7000304417F0DBFD012804D141F258403044B5
:103B80000BF0CEFDD0E041F60830304413F016FDC6
:103B900041F6B840305C00280CD0002041F6B84116
:103BA000705441F6884006EB000141F25840304421
:103BB0000CF0FEFC41F25840304418F017F8062093
:103BC00041F6F1217054DDE741F2B83030440BF09A
:103BD000FFFBC0B200280DD041F608203044D0E9E8
:103BE000002341F2B83030440BF0B2FA062041F61F
:103BF000F121705498E041F2B83030440BF0E8FB0A
:103C0000C0B2002808D041F25840304417F08EFD71
:103C1000012801D1012000E00020C0B2002808D016
:103C200041F2584030440BF07BFD072041F6F12172
:103C3000705479E041F25840304417F077FD012884
:103C400042D116F5D8500078401C41F6C821715C6D
:103C500088420BDA16F5D8500078401C16F5D8517A
:103C60000870062041F6F12170542DE0002016F571
:103C7000D851087041F6F4103058401C16F5D05158
:103C8000096888421CD241F6F4103058401C41F6B5
:103C9000F411705041F608203044D0E90023002090
:103CA000DFF8801818F076F941F608223244C2E9AC
:103CB0000001052041F6F121705405E02063000069
:103CC000082041F6F12170542EE0300018F04EF833
:103CD000C0B2002819D0002116F5B7500AF0E7FF4E
:103CE000002141F6B80030440AF0E1FF002141F61E
:103CF000881030440AF0DBFF002116F5C3500AF0AB
:103D000033FF092041F6F12170540DE0300018F026
:103D10002DF8C0B2002807D0002041F6F0117054F1
:103D2000002041F6F121705416F16C0014F010F8E7
:103D3000012829D114F00BFDDFF8D41716F043FF4A
:103D4000DFF8C81717F078F814F001FDDFF8D8177E
:103D500016F039FFDFF8B41717F06EF8002116F1EE
:103D60006C0014F0A3FE002041F6F12170540020F5
:103D700041F6F011705400208DF802000DF102019F
:103D800016F10C0014F054FD05F06BB941F6F21079
:103D9000305C002800F0A180012800F04183022857
:103DA00000F06A83032800F0C583042800F0038430
:103DB000052800F03F84062800F09084072800F0D2
:103DC0008985082800F09985092800F042860A288C
:103DD00000F05B860B2800F0DD860C2800F02B87B6
:103DE0000D2800F03A870E2800F044870F2800F0D5
:103DF000FC86102800F01187112801F06780122836
:103E000001F0D281132801F00A84142801F01A84E9
:103E1000152801F0C984162801F02D85172801F016
:103E20004D86182801F07586192801F0B0861A28E9
:103E300001F004871B2801F015871C2801F0248756
:103E40001E2802F066811F2802F0C083202802F09D
:103E5000D583212802F0E683222802F0E983232873
:103E600002F07484242802F00287252802F0648777
:103E7000262802F07B87272803F03C80282803F0BF
:103E8000D880292803F07D812A2803F012832B286B
:103E900003F0C1832C2803F0E1832D2803F0EC8389
:103EA0002E2803F00E842F2803F01F84302803F0FF
:103EB0002784312803F0F284322803F00C8633285B
:103EC00003F03886342803F08A86352804F0F0871A
:103ED000362805F0678005F079B814F038FCDFF873
:103EE0002C1616F0A9FF14F032FCDFF8241616F099
:103EF0006AFEDFF8181616F09FFF14F028FCDFF8B2
:103F00002C1616F060FEDFF8041616F095FF14F07C
:103F10001EFCDFF8FC1516F056FEDFF8F01516F063
:103F20008BFF14F014FCDFF8081618F0EFF816F108
:103F3000B40014F08AFC16F5D252C2E9000116F161
:103F4000BC0014F082FC41F638223244C2E9000180
:103F5000002041F63021705416F5FE7014F05AFC22
:103F60000B900BA813F08CFA16F5D452C2E900019D
:103F700016F56E7014F04EFC0A900AA813F080FA41
:103F800041F688223244C2E9000116F5D450D0E946
:103F9000002341F2B83030440BF0DAF941F2B83086
:103FA000304418F0BCF816F5017014F033FC099099
:103FB00009A813F065FA41F678223244C2E90001FB
:103FC00041F678203044D0E9002316F5B7500AF0C6
:103FD00086FE41F678203044D0E9002341F2487053
:103FE00030440AF07CFE41F678203044D0E90023CA
:103FF00041F2B07030440AF0C9FD41F678203044F7
:10400000D0E9002341F6080030440AF0BFFD41F634
:1040100078203044D0E9002316F5C3500AF0B6FDED
:1040200041F678203044D0E9002341F6B80030440E
:104030000AF055FE41F678203044D0E9002316F509
:10404000C9500AF04CFE41F678203044D0E90023F4
:1040500041F6881030440AF042FE16F5157013F050
:1040600077FE002804D0012003E000BF9CBB0508B8
:10407000002041F6D921705441F6D920315C16F563
:10408000656014F013FD41F6D920305C00281BD088
:10409000012116F5B75014F01FFD012141F24870BF
:1040A000304414F019FD012141F6B800304414F0F9
:1040B00013FD012116F5C95014F00EFD012141F642
:1040C0008810304414F008FD41F6782006EB00011A
:1040D00041F6D850304413F061FA16F5D07013F061
:1040E00027FEC0B216F5D051086016F5687014F0BE
:1040F00000FC41F60421705016F56A7014F0F9FBCB
:1041000041F6D031705016F56C7014F0F2FB41F6A8
:10411000D431705016F5687014F0EBFB41F60421B1
:10412000715881420FD041F6042006EB000116F5CC
:10413000687014F0D4FC41F6042006EB000106F68A
:10414000B86014F0CCFC16F51E7013F001FE0028C8
:1041500001D0012000E0002041F6B8317054002069
:10416000002141F690723244C2E9000141F6CC20B0
:10417000304417F0D8FF41F69820304417F0EEFF96
:1041800041F6A420304417F0E9FF16F11C0013F0AB
:10419000CFFD41F6C821705441F6C820305C02289A
:1041A00028DB41F6C82006EB000116F1A00014F050
:1041B0003FFB14F0CCFAD64916F005FDD34916F0B2
:1041C0003BFE14F0C4FADFF8F01C16F0FCFC14F00F
:1041D000BEFA41F6C821715C17F0DBFFCB4916F03F
:1041E0002BFE14F0B4FACA4916F0EDFCC74916F0DC
:1041F00023FE08E001208DF801000DF1010116F108
:10420000A00014F015FB16F1600013F0A1FD0028CA
:1042100001D0012000E0002041F6D821705441F681
:10422000D820315C16F1600014F040FC41F2584097
:10423000304418F021F816F5E65141F25840304468
:104240000CF0B6F914F083FADFF8701C16F0BBFC22
:10425000AE4916F0F1FD16F5077014F0DBFA41F6E1
:10426000902170504FF47A70089008A813F008F964
:10427000CDE93C013CA941F60830304413F08EF9F9
:10428000002016F5D9510860002041F62831705001
:104290000020059005A916F50F7014F050FB41F6AB
:1042A0003030304409F0A0FA41F69020315841F600
:1042B0003030304409F0C8FA16F5C67013F048FDE6
:1042C000002801D0012000E0002041F67031705438
:1042D0000020002141F6A8323244C2E9000100204A
:1042E000002141F6B0323244C2E9000141F6DC302F
:1042F000304417F0C5FF002041F6CC31705000204B
:1043000041F6F831705416F5707014F09EFA16F5F7
:10431000E052C2E9000116F5727014F096FA41F607
:1043200008423244C2E900010020002141F618226F
:104330003244C2E90001012141F6D070304417F047
:10434000BAFF16F52D7013F0F3FC0100C9B230006E
:1043500009F020FA41F6FC11705414F0F8F9DFF876
:10436000601B16F030FC41F6FC11715C17F011FF78
:1043700041F6FC10305C002806D0022818D00DD37E
:1043800020E000BF70B0050814F0E1F9DFF8341B3D
:1043900016F019FC5D4916F04FFD1CE014F0D7F93A
:1043A000DFF8241B16F00FFC584916F045FD12E00B
:1043B00014F0CDF9DFF8701E16F005FC534916F025
:1043C0003BFD08E014F0C3F9DFF8601E16F0FBFBBC
:1043D0004E4916F031FD41F63870304417F071FF48
:1043E000012042F69001705442F69000315C41F693
:1043F0003030304409F0CDFA142141F630303044E9
:1044000009F030FB002041F610417054002041F6C5
:1044100011417054012041F6F211705404F0D6BDE0
:10442000300017F0A3FCC0B2002823D041F6D820FA
:10443000305C00280FD0002141F2B07030440AF007
:1044400093FB41F6B0703044D0E9002341F258406C
:1044500030440CF08FFC002141F6881030440AF003
:1044600026FC002116F5C3500AF07EFB022041F61F
:10447000F211705404F0AABD300017F077FCC0B2FE
:1044800000283CD0012041F65831705416F5DB501D
:1044900013F0CAF841F63020305C002802D0012821
:1044A00015D028E014F053F9DFF8841D16F08BFBCB
:1044B000164916F0C1FC012141F2487030440AF05F
:1044C000F6FB012116F5C9500AF0F1FB13E014F0D8
:1044D0003EF9DFF8601D16F076FB0C4916F0ACFCD7
:1044E000012116F5B7500AF0E2FB012141F6B800B0
:1044F00030440AF0DCFB032041F6F211705404F062
:1045000065BD00BFA4BB05087CB005085D57050864
:10451000306705089C670508D0A805083C94050885
:10452000ACBB05080000F03FC0670508E46705085C
:10453000EDA10508300017F019FCC0B2002838D0F2
:1045400041F6D850304413F031F816F5017014F0EC
:1045500061F917F0D1FE17F0DDFEDFF8DC2CDFF893
:10456000DC3C13F043F917F0F9FE040014F0EFF807
:10457000050002211AA814F031F9DDE91A01CDE98C
:10458000B001B0A9280014F035F914F0E0F8DFF814
:10459000B01C16F018FB210017F014FFC6A116F08E
:1045A00012FBDFF8A01C16F047FC042041F6F211C4
:1045B000705404F00BBD41F6D850304413F001F8AC
:1045C000C0B2002834D014F0C2F8DFF87C1C16F01A
:1045D000FAFADFF8701C16F02FFC41F6FC10305C84
:1045E000012804D1052041F6F211705420E041F673
:1045F000CC20304417F049FF002815D141F6302077
:10460000305C002810D142F69800304417F04DFF7E
:10461000002804D1152041F6F211705408E0092059
:1046200041F6F211705403E0182041F6F211705473
:1046300004F0CCBC41F2B83030440AF0C9FEC0B23C
:10464000002849D041F63020305C002802D00128F3
:1046500010D025E041F638203044D0E9002316F58B
:10466000D250D0E900010EF0B7F816F5D152C2E9E8
:10467000000115E041F6DC30304417F018FF401E11
:10468000010041F6DC30304417F021FFD0E904018D
:1046900017F02AFF91F0004116F5D152C2E900014E
:1046A00041F688203044D0E9002341F2B83030444C
:1046B0000AF04EFE16F5D150D0E9002341F2B83091
:1046C00030440AF045FD41F25840304417F0D4FD23
:1046D000062041F6F211705404F078BC41F2B83073
:1046E00030440AF075FEC0B2002808D041F25840AC
:1046F000304417F01BF8012801D1012000E0002010
:10470000C0B2002800F0E48041F6504006EB000102
:104710000DF5C1600AF050FF01208DF829060DF556
:10472000C16141F2584030440BF042FF16F57670FB
:1047300014F08BF841F650623244C2E900010021C6
:1047400041F2584030440BF067F804000D0041F688
:1047500050603044D0E9000122002B0013F046F8ED
:1047600017F0EEFECDF80C060DF5C16141F2584090
:1047700030440BF01DFF00220DF5C16141F258409D
:1047800030440BF04DFFDDF80C0616F5FD510860C6
:1047900016F5FD50006817F019FB22002B0013F0EE
:1047A0000FF941F698723244C2E9000141F65060B7
:1047B0003044D0E9000141F698723244D2E9002336
:1047C00017F014FBCDE9140113F0C1FFDFF8DC1D75
:1047D00016F0F9F913F0BBFFDFF8681A16F02CFB9E
:1047E0000DF5C162012141F2584030440CF041F80E
:1047F00013F0ADFFDFF8B81D16F0E5F913F0A7FFD1
:10480000DFF8B01D17F082FCDFF8AC1D17F07EFC5E
:1048100041F650613144D1E9002317F058FB13F001
:1048200096FFD4A116F0CFF9DFF8181A16F004FBA2
:10483000DDE914010022002317F072FA13D813F0F7
:1048400086FFDFF8781D16F0BEF9DFF8F81916F0CC
:10485000F3FA41F2584030440AF062FF082041F672
:10486000F211705434E014A817F07EFECDE93A013D
:104870003AA941F6D850304412F090FE41F6D85093
:10488000304412F093FE13F062FFDFF8341D16F08F
:104890009AF913F05CFFDFF81C1D17F037FCDFF806
:1048A000181D17F033FCDDE9142317F010FB13F08B
:1048B0004EFFB0A102E000BF2063000016F083F9B4
:1048C000DFF8801916F0B8FA072041F6F21170549B
:1048D00004F07CBB41F6D850304412F072FEC0B2F6
:1048E000002808D041F2584030440AF019FF08204F
:1048F00041F6F211705404F069BB41F25840304463
:1049000016F014FF012840F0A28040F628116944F7
:1049100041F2584030440CF00AFA0DF50061D1E93B
:104920004A0141F698323244C2E900010DF50061B6
:10493000D1E94C0141F690723244C2E9000113F012
:1049400006FFDFF8701C17F0E1FBDFF86C1C17F0B6
:10495000DDFB040000211AA813F040FFDDE91A0175
:10496000CDE9AE01AEA9200013F044FF13F0EFFE35
:10497000DFF8501C16F027F913F0E9FE16F5D151B7
:10498000D1E9002317F0A3FADFF8B81816F054FAAB
:1049900013F0DDFE040007211AA813F01FFFDDE964
:1049A0001A01CDE9AC01ACA9200013F023FF13F0EC
:1049B000CEFEDFF8141C16F006F913F0C8FE41F61F
:1049C00098313144D1E9002317F081FA13F0BFFE8A
:1049D00069A116F0F8F8DFF86C1816F02DFA13F04C
:1049E000B6FEDFF8E81B16F0EEF813F0B0FE040098
:1049F00041F690703044D0E900230020DFF8D01B4E
:104A000012F0F4FE02000B00200017F060FA13F021
:104A10009EFEDFF8C01B16F0D6F8DFF8281816F057
:104A20000BFA13F094FEDFF8A41E16F0CCF813F086
:104A30008EFEDDF8501916F0A1F913F088FEDFF8AC
:104A4000041816F0F9F9112041F6F211705404F02F
:104A5000BDBA41F25840304416F068FE012812D128
:104A600013F075FEDFF8701B16F0ADF8DFF8D41701
:104A700016F0E2F941F2584030440AF051FE0A20A3
:104A800041F6F211705404F0A1BA41F2584030449A
:104A900016F04CFE01287BD10DF50E6141F2584015
:104AA00030440CF044F90DF50065D5E9384513F0B4
:104AB0004EFE070007211AA813F090FEDDE91A0147
:104AC000CDE9AA01AAA9380013F094FE13F03FFE25
:104AD000DFF8081B16F077F813F039FE22002B00E0
:104AE00017F0F5F913F033FE23A116F06CF8DFF898
:104AF000541716F0A1F941F6FC10305C01280ED1D4
:104B000013F025FEDFF8D81A16F05DF8DFF8341739
:104B100016F092F90B2041F6F211705438E09DF82E
:104B20002009002814D013F012FEDFF8B81A16F08E
:104B30004AF813F00CFEDFF8B01A16F044F8DFF86C
:104B4000041716F079F90B2041F6F21170541FE0AA
:104B500013F0FDFDDFF8941A16F035F813F0F7FDA9
:104B6000DFF88C1A16F02FF813F0F1FDDFF8841A35
:104B700004E000BF20F1000020C2000016F023F87E
:104B8000DFF8C01616F058F9152041F6F2117054EE
:104B900004F01CBA41F2B830304417F0C0FA16F5F0
:104BA000D150D0E9000141F608223244C2E90001A7
:104BB00041F628203044D0E9000141F61022324469
:104BC000C2E90001002041F6F4117050132041F6B3
:104BD000F811705041F2B83030440AF0D5F90F2086
:104BE00041F6F211705404F0F1B941F2B83030449A
:104BF0000AF0EEFBC0B200280DD041F60820304488
:104C0000D0E9002341F2B83030440AF0A1FA102074
:104C100041F6F211705404F0D9B941F2B830304481
:104C20000AF0D6FBC0B2002803D00C2041F6F211E6
:104C3000705404F0CBB941F25840304416F076FD80
:104C4000012808D141F2584030440AF069FD0D2096
:104C500041F6F211705404F0B9B941F258403044B1
:104C600016F064FD012803D10E2041F6F2117054B4
:104C700004F0ACB940F69801694441F25840304420
:104C80000CF055F80DF50061D1E9260141F6983296
:104C90003244C2E9000141F6F4103058401CCDF80E
:104CA000E00541F608203044D0E9000113F050FF40
:104CB000CDF8E40541F610203044D0E9000117F0AA
:104CC0003FFCCDF8E80541F698303044D0E90001CA
:104CD0000DF5806CCCE97C010DF50063D3E9282348
:104CE0000020DFF8EC1812F081FD31F000410DF5E5
:104CF000806CCCE97E01DDF8C008CDF800060DF52A
:104D0000BC600DF094FB9DF8D808002807D041F650
:104D1000F410305841F6F811715888422DD341F6FD
:104D2000FC10305C012824D141F66170305C002811
:104D300010D141F608203044D0E90001CDE900014E
:104D400041F698303044D0E9002341F638703044C1
:104D500017F02CFC41F66170305C00280DD041F654
:104D60003870304417F03AFC012041F6104170547D
:104D700003E0012041F61041705441F61040305CD0
:104D800000284ED041F2B83030440AF0D5FA13F082
:104D9000C5FD41F618223244C2E90001012041F666
:104DA0001041705413F0D3FCDFF8441815F00BFFDA
:104DB00013F0CDFCDFF8401815F005FFDFF8841480
:104DC00016F03AF813F0C3FC040000211AA813F0FF
:104DD00005FDDDE91A01CDE9A801A8A9200013F01D
:104DE00009FD13F0B4FCDFF8141815F0ECFE41F6E1
:104DF00018213144D1E9002317F069F8DFF8441491
:104E000016F01AF841F6FC10305C012804D111208C
:104E100041F6F21170544DE0152041F6F211705434
:104E200048E041F6F4103058401C41F6F41170503F
:104E300041F698303044D0E900010022002317F0F9
:104E40001FFC11D241F608203044D0E9002341F67E
:104E500010203044D0E9000117F09CF841F60822F8
:104E60003244C2E9000110E041F608203044D0E9A4
:104E7000000141F610223244D2E9002316F0B6FFB9
:104E800041F608223244C2E9000141F610203044C4
:104E9000D0E900230020DFF86C1E12F0A7FC17F009
:104EA00009FC41F610223244C2E900010F2041F60C
:104EB000F211705404F08AB850940508445E050855
:104EC00088B0050894B00508B4BB050841F6302049
:104ED000305C00280FD141F61140305C00280AD127
:104EE00041F60830304412F061FB41F69020305812
:104EF00041F69421705041F67070304412F056FB28
:104F000041F6504006EB000140F6680068440AF0A4
:104F100053FB16F5FD500068CDF86C0840F66801AB
:104F2000694441F2584030440BF042FB13F00FFC4F
:104F3000DFF8781615F047FEC24915F07DFF41F6FF
:104F4000D860304416F003FF16F5FD50016841F6B5
:104F5000D860304417F0DAFB16F5FD50016841F6D1
:104F6000D860304417F0F6FB002141F2584030443D
:104F70000AF045FDC0B2002809D116F5D450D0E999
:104F8000002341F2B83030440AF0E2F911E0002188
:104F900041F2584030440AF097FCCDE9380138A876
:104FA00017F0E2FA02000B0041F2B83030440AF088
:104FB000CFF913F0CCFBDFF8501D15F004FE13F011
:104FC000C6FBDFF8F01517F0A1F8DFF8EC1517F0C5
:104FD0009DF841F698713144D1E9002316F077FF2E
:104FE00013F0B5FBDFF8241D15F0EDFD16F5FD51AE
:104FF000096815F0C3FE13F0AAFBDFF8141D15F0C5
:10500000E2FD904915F018FF41F2584030440AF093
:1050100087FB002041F6F411705016F5D150D0E90D
:10502000000141F608223244C2E9000116F5787009
:1050300013F00BFC41F658623244C2E9000116F548
:105040007A7013F002FC16F5F352C2E9000116F56E
:105050007C7013F0FAFB41F668623244C2E9000149
:1050600016F5806013F0F1FB41F698623244C2E914
:10507000000116F5816013F0E8FB16F5F552C2E960
:10508000000116F5846013F0E0FB41F6B062324493
:10509000C2E90001002141F2584030440AF014FCFA
:1050A00041F670623244C2E90001002141F25840E9
:1050B00030440AF0A4FCC0B200282BD1DFF8540C15
:1050C000D0E9000117F04CFB04000D0016F5D45098
:1050D000D0E9000117F044FB22002B0012F086FB00
:1050E00004000D00DFF8300CD0E9000117F038FBA8
:1050F00002000B002000290012F062FC41F67062F1
:105100003244D2E9002316F045FF41F67062324482
:10511000C2E9000141F6E8203044D0E90001CDE9C0
:10512000040116F5D150D0E90001CDE9020141F6A4
:1051300098303044D0E90001CDE9000141F67060BB
:105140003044D0E90023300004F0A9F916F58A6054
:1051500012F0EEFDC0B20DF046FC41F688717054BD
:10516000300008F004FE40F668026A44012141F272
:10517000584030440BF07DFB13F0E9FADFF89C1B3C
:1051800015F021FD2F4915F057FE13F0E0FADFF876
:10519000901B15F018FD2B4915F04EFE122041F61C
:1051A000F211705403F012BF41F61140305C002838
:1051B00026D141F60830304412F003FAC0B200287C
:1051C0001ED041F69420305800280CD041F608300B
:1051D000304412F0EBF941F694203058401E41F66D
:1051E000942170500CE0012041F61141705413F0ED
:1051F000AEFADFF8301B15F0E6FC124915F01CFE84
:105200000024002141F2584030440AF0F8FBC0B2BB
:1052100000281BD041F2584030440AF0DFFBC0B2F6
:10522000002813D0012012E028880508BCBB05081F
:10523000086805082C680508FCA9F1D24D62503FAA
:10524000A0B005085D570508ACB005080020C0B245
:10525000002800D00124002141F2584030440AF0D7
:10526000CEFBC0B2002808D141F25840304416F0BD
:105270005DFA012801D1012000E00020C0B2002821
:1052800000D00124E4B2002C00F08E810DF5026103
:1052900041F2584030440BF04AFD0DF50061D1E970
:1052A000080141F698323244C2E9000141F68140DA
:1052B000305C002804D116F5E4500078002845D071
:1052C000002041F681417054002016F5E451087029
:1052D00041F6504006EB000141F2584030440BF0DB
:1052E00067F9002141F2584030440AF0EDFA41F6E6
:1052F00070623244C2E9000141F6E8203044D0E94E
:105300000001CDE9040141F608203044D0E9000154
:10531000CDE9020141F698303044D0E90001CDE9F1
:10532000000141F670603044D0E90023300004F001
:10533000B6F8300008F01BFD41F6504006EB0002C5
:10534000012141F2584030440BF093FA0DF500630F
:10535000D3E9162341F67860304416F07FF9CDE9A1
:10536000160116A916F5826013F095FADDE91623E9
:1053700041F6F050304415F009FF41F6082232445E
:10538000C2E9000141F608203044D0E9002316F5B7
:10539000F65016F02AF9CDE9360136A916F58360E4
:1053A00013F079FA41F6386006EB000116F57E70CD
:1053B00013F071FA41F608203044D0E9002341F699
:1053C000D860304416F01AFC41F6D860304416F02C
:1053D0007BFCCDE9200120A916F5856013F05BFA6E
:1053E00041F6D860304416F074FCCDE91E011EA9C8
:1053F00016F5866013F04FFA41F6D860304416F087
:1054000063FC02000B00300004F0DFF8CDE91C0162
:105410001CA916F5876013F03EFA41F6D8603044B7
:1054200016F057FC02000B00300004F0CEF8CDE976
:105430001A011AA916F5886013F02DFA41F6082012
:105440003044D0E9000113F083FB040016F54D70E1
:1054500012F07EFC002839D041F6F4103058C69086
:10546000C79441F608203044D0E90001CDE9C801D5
:1054700041F6D860304416F027FCCDE9CA0141F668
:1054800098303044D0E90001CDE9CC010DF500633E
:10549000D3E90A2300204E4912F0A8F931F0004167
:1054A000CDE9CE01DDF84808D09041F6D86030440F
:1054B00016F00FFCCDE9D20141F6D860304417F068
:1054C00078F98DF85003C6A80DF066F841F6F4108F
:1054D0003058401C41F6F411705041F68870305C31
:1054E0008DF89805002000210DF5806CCCE968014D
:1054F00041F6D860304416F0ECFB0DF5806CCCE939
:105500006A0116F58C6013F0A0F90DF5806CCCE9FA
:105510006C0141F698303044D0E900010DF5806C03
:10552000CCE96E0141F628703044D0E900010DF558
:10553000806CCCE970010DF50061D1E90A010DF52F
:10554000806CCCE9720141F690703044D0E90001E2
:105550000DF5806CCCE9740141F67070304412F0A6
:1055600030F88DF8D80541F6D860304417F021F9AD
:105570008DF8D90541F61140305C8DF8DA050DF54E
:10558000B3600DF02BFBC0B2002839D1200013F01E
:10559000C5F902000B0041F2B830304409F0D8FDE3
:1055A000132041F6F211705403F010BD6C5E050833
:1055B00040880508EDA10508A39105085068050875
:1055C000E0A80508588805087C7D0508F0A80508AE
:1055D00080842E41C4BB05083475050800A9050860
:1055E00074680508649405089868050870880508BB
:1055F000BC68050810A90508B8B00508C4B00508BE
:1056000041F6D860304416F05FFB41F61822324470
:10561000C2E90001142041F6F2117054C4E741F2CE
:10562000B830304409F0D4FEC0B2002808D041F2AE
:10563000584030440AF074F8122041F6F2117054C8
:1056400003F0C4BC41F63020305C8DF8E80216F55A
:10565000D150D0E90001CDE9BC0141F61820304419
:10566000D0E90001CDE9BE0141F690703044D0E9A7
:105670000001CDE9C00141F6D860304416F029FBA5
:10568000CDE9C20141F6F4103058C490BAA941F6F0
:10569000DC30304417F0A1F841F6CC303058401CD3
:1056A00041F6CC31705013F052F80400032148A8A1
:1056B00013F094F8DDE94801CDE9A601A6A9200080
:1056C00013F098F813F043F8DFF8201B15F07BFA7D
:1056D000DFF81C1B15F0B0FB13F039F8DFF8781E6B
:1056E00015F071FA13F033F8DDE9BE2316F0EFFB85
:1056F000DFF8FC1A15F0A0FB13F029F8734915F038
:1057000062FA41F6F411715815F038FBDFF8E01A2F
:1057100015F092FB41F63020305C00280DD1DDE918
:10572000BE0141F658223244C2E90001DDE9BC0164
:1057300016F5D352C2E900010DE0DDE9BE0141F6E4
:1057400068223244C2E90001DDE9BC0141F6702261
:105750003244C2E9000141F6D820305C00280FD164
:10576000012141F2B070304409F0FEF941F6A87011
:105770003044D0E9002341F2584030440BF0FAFAAB
:1057800041F25840304416F077FD16F5D450D0E978
:10579000002341F2B830304409F0DAFD322041F6FE
:1057A000F211705403F012BC41F25840304415F02D
:1057B000BDFF01285DD141F6CC20304416F065FED6
:1057C000002852D141F63020305C00284DD1002015
:1057D00041F65831705441F60830304411F0E6FE7D
:1057E00041F69020305841F69421705012F0AFFFEE
:1057F000DFF8FC1915F020FBDFF8641D15F0E3F964
:1058000012F0A5FF040016F5077013F003F801006D
:10581000200015F0B3FAD8A115F0D5F9DFF8D019AA
:1058200015F00AFB41F25840304416F0D4F941F229
:10583000B830304416F073FC022042F690017054E8
:1058400042F69000315C41F63030304408F0A1F867
:1058500041F6C440315842F69800304408F092F9BD
:10586000162041F6F211705403E0182041F6F211AF
:10587000705403F0ABBB41F60830304411F0A1FE88
:10588000C0B200280DD141F25840304415F04EFF0F
:10589000012804D141F25840304409F041FF03F09F
:1058A00095BB41F694203058002828D041F60830A6
:1058B000304411F07BFE41F694203058401E41F6F2
:1058C0009421705012F043FFACA101E0CCBB05085D
:1058D00015F079F9DFF8901C15F0AEFA41F6942036
:1058E00030583C21B0FBF1F201FB12000028D6D168
:1058F00012F02DFFDFF8F81815F09EFACFE701201F
:1059000041F61141705412F022FFDFF8E41815F04F
:1059100093FA032042F69001705442F69000315CF5
:1059200041F63030304408F034F842F69800304404
:1059300008F047F942F69800304408F055F90400A1
:105940000D0012F004FF0700032148A812F046FFE3
:10595000DDE94801CDE9A401A4A9380012F04AFF0D
:1059600012F0F5FEDFF8041C15F02DF907000020F9
:10597000DFF8FC1B22002B0011F038FF02000B00A7
:10598000380016F0A4FA12F0E2FEDFF8E81B15F07A
:105990001AF9DFF85C1815F04FFA42F69800304417
:1059A00016F083FD002800F0848012F0D0FEDFF8AE
:1059B000C81B15F008F9DFF8381815F03DFA42F663
:1059C0009800304408F01BF98046894642F698005A
:1059D000304408F00CF904000D0016F5E65141F6CC
:1059E000F040304409F0E8FD41F6285006EB000194
:1059F00041F65850304409F0DFFD41F6E8403044AC
:105A0000D0E9000122002B0016F08AF908D241F6F5
:105A100018503044C0E9004516F5EC50C0E9008943
:105A200012F095FEDFF8541B15F0CDF812F08FFE42
:105A3000040041F618503044D0E900230020DFF87C
:105A4000301B11F0D3FE02000B00200016F03FFACD
:105A500012F07DFEDFF81C1B15F0B5F8DFF890178B
:105A600015F0EAF912F073FEDFF8141B15F0ABF82D
:105A700012F06DFE040016F5EC50D0E90023002072
:105A8000DFF8EC1A11F0B2FE02000B00200016F055
:105A90001EFA12F05CFEDFF8DC1A15F094F8DFF85D
:105AA000501715F0C9F912F052FEDFF8441715F03F
:105AB000C3F9172041F6F2117054F0E641F2584054
:105AC000304415F033FE012821D1012041F6583130
:105AD000705416F5DB5011F0A7FD16F5217012F089
