:020000040800F2
:1000000028C70020BD620508D3D90108E3D901083B
:10001000F3D9010803DA010813DA0108000000002F
:1000200000000000000000000000000023DA0108CA
:1000300033DA01080000000043DA010853DA01084E
:10004000D9DD0108D9DD0108D9DD0108D9DD0108B4
:10005000D9DD0108D9DD010863DA0108D9DD01081D
:10006000D9DD01087FDA0108D9DD0108D9DD0108F1
:10007000D9DD0108D9DD0108D9DD0108D9DD010884
:10008000D9DD0108D9DD0108D9DD0108D9DD010874
:10009000D9DD0108D9DD0108D9DD01089BDA0108A5
:1000A000D9DD01082FDB0108D9DD0108D9DD010800
:1000B000D9DD01086FDB0108D9DD0108D9DD0108B0
:1000C000D9DD0108D9DD0108D9DD0108D9DD010834
:1000D000D9DD0108F9DC010809DD010819DD010895
:1000E0007FDB0108D9DD0108D9DD010829DC010821
:1000F0005BDC0108D9DD01088FDC0108D9DD0108CE
:10010000D9DD010829DD0108D9DD0108D9DD0108A3
:1001100039DD010849DD0108D9DD0108D9DD010813
:1001200059DD010869DD010879DD010889DD010873
:10013000D9DD0108D9DD0108D9DD0108D9DD0108C3
:10014000D9DD0108D9DD0108D9DD0108A9DD0108E3
:10015000D9DD010899DD0108D9DD0108B9DD010803
:10016000D9DD0108D9DD0108D9DD0108D9DD010893
:10017000D9DD0108C9DD0108D9DD0108D9DD010893
:10018000D9DD010880B516480078002806D1002185
:1001900014480AF08DF801201149087012480078BF
:1001A000002806D1002111480AF082F801200E49EA
:1001B00008700F480078002806D100210D480AF089
:1001C00077F801200A4908700B480078002806D10A
:1001D00000210A480AF06CF801200749087001BDA7
:1001E00011920020C891002012920020D09100208E
:1001F00013920020CC91002014920020C491002082
:1002000070B52DED048BC0B00400150021600023F3
:1002100000220021201D0AF04DF8C4F8C4582068BF
:1002200010F5D87104F6C8000BF0FEF9206810F53F
:10023000B8700090206810F5B073206810F5A872AF
:10024000012114F511600EF0F9F904F658100EF0C2
:1002500027FC2068D0F89C312068B0F99A212068EA
:10026000B0F9981104F698100EF025FD04F6D81098
:100270000EF088FE04F6F4100EF0AAFE14F52060CD
:100280000EF0A6FE04F60C200EF0A2FE04F61820D6
:100290000EF0A8FE002104F6A8200EF03FFF04F6A1
:1002A000AC200EF0C2FF002204F6B821201D0FF092
:1002B000A7F880080200206810F1980104F6B82021
:1002C0000FF01DFF01201D901DA810F023FACDE9AD
:1002D00004014020029000200190012000904FF482
:1002E0008053206810F1D002206810F5467114F593
:1002F000386011F068FD0023002214F5386114F510
:100300004E6011F0AFFD14F54E6214F5386141F204
:10031000DC10204407F0FAF800200290206810F565
:100320000F700190206810F50B700090206810F598
:100330000773206810F50372206810F53B7114F5FF
:100340008F5012F089F814F58F5141F22820204483
:100350000AF072FE206810F55173206810F5DE7205
:10036000206810F5307141F2C82020440BF0F0F9FC
:1003700064201C901CA812F091FACDE9260126A950
:1003800014F5A85012F046FB4FF4FA701B901BA80E
:1003900012F084FACDE9240124A941F2105020443E
:1003A00012F038FB4FF47A701A901AA812F076FA0D
:1003B000CDE9220122A914F5A95012F0EDFA00208E
:1003C00041F238516054DFF8181D38A812F0FAFBDA
:1003D0006420199019A812F061FA00220492CDE964
:1003E00002010020009038AB206810F51B722068D5
:1003F00010F51F7114F5AA500AF0D2FC38A812F0BB
:10040000F1FBDFF8E01C31A812F0DCFB642018904F
:1004100018A812F043FA00220492CDE9020100204C
:10042000009031AB206810F52372206810F5277119
:1004300041F2A85020440AF0B3FC31A812F0D2FBDC
:10044000DFF8A41C2AA812F0BDFB012302002068DB
:1004500010F52B7141F2106020440AF00FFC2AA81D
:1004600012F0C0FB002041F268616054002041F2AC
:1004700069616054002041F26A616054002041F2D9
:100480006C616050142041F270616050022041F2B2
:1004900074616054032041F278616050012041F2A0
:1004A0007C61605014F5B45000220023C0E90023A1
:1004B00041F28860204400220023C0E9002341F279
:1004C0009060204400220023C0E9002341F298609C
:1004D000204400220023C0E9002312269FED198B3F
:1004E0003500002E00D56D429FED189B07E051ECC2
:1004F000180B53EC182B12F085FB41EC180BE80796
:1005000007D551EC190B53EC182B12F07BFB41EC87
:10051000190B6D08002DEAD1002E1FD553EC192BB5
:100520000020002112F048FC02D19FED0A9B15E04B
:100530000020DFF8B81B53EC192B12F04DFC41ECF6
:10054000190B0BE00000000000000040000000005C
:100550000000F03F000000000000F07F14F5B550EF
:1005600080ED009B002041F2A861605441F2B06030
:1005700020440022DFF8743BC0E9002341F2B86058
:1005800020440022DFF8643BC0E9002314F5B65094
:1005900000220023C0E9002341F2C8602044002269
:1005A0000023C0E9002341F2D06020440022002350
:1005B000C0E9002341F2D860204400220023C0E9B2
:1005C000002314F5B75000220023C0E9002341F2B4
:1005D000E860204400220023C0E900236420179033
:1005E00017A812F05BF941F2F0622244C2E900015F
:1005F0006420169016A812F051F941F2F8622244D4
:10060000C2E900016520159015A812F047F914F50C
:10061000B852C2E90001052041F20871605041F270
:100620001070204412F0FBFC41F21C70204412F0C8
:10063000F6FC41F22870204400220023C0E9002388
:1006400041F23070204400220023C0E9002341F22F
:100650003870204400220023C0E90023012014F553
:10066000BA51087041F24470204412F0E0FC0020BE
:1006700041F250716054002041F25171605441F2D6
:100680005870204400220023C0E90023002014F504
:10069000BB510870002041F26171605441F26870F2
:1006A000204400220023C0E90023002041F27071A1
:1006B0006054002013904FF47A70149014AA13A978
:1006C00041F27870204412F037F9002041F2907125
:1006D0006050002041F294716050002041F2987106
:1006E0006050002041F29C71605014F5BD5009F03B
:1006F000F8FC002041F2B87160544FF47A70129007
:1007000012A812F0CBF8CDE9200120A914F5BE50B3
:1007100012F080F9002041F2D071605441F2F07083
:10072000204400220023C0E9002341F2F870204455
:1007300000220023C0E9002314F5C050002200234A
:10074000C0E90023002041F60801605441F6100082
:10075000204400220023C0E9002341F61800204471
:1007600000220023C0E90023002014F5C1510870C5
:1007700041F62800204400220023C0E90023002085
:1007800041F630016050002041F6340160500120F4
:1007900041F638016050052041F63C0160500020D0
:1007A00014F5C251086041F64400204412F047FCA1
:1007B00041F65000204412F032FC022041F65C0168
:1007C0006050002014F5C351087041F668002044C1
:1007D0000022DFF81839C0E9002341F670002044F8
:1007E0000022DFF80839C0E90023002041F6A80103
:1007F0006054002014F5C7510870002041F618110C
:100800006054002041F650116054002041F68811D8
:10081000605441F2F06004EB000141F6C81020443E
:1008200012F0BAF8206810F1E00114F5CF500CF086
:1008300062FA002014F5D351087041F66820204474
:1008400000220023C0E9002341F67020204400224A
:100850000023C0E9002341F6782020440022002331
:10086000C0E9002314F5D55000220023C0E900237D
:1008700041F6A820204400220023C0E90023642080
:10088000119011A812F00AF841F6B0222244C2E9F0
:10089000000141F6B820204400220023C0E90023D3
:1008A00004F6D86012F0D3FB050004F6D86012F00D
:1008B000CEFB0200290041F6D820204412F0D5FBDF
:1008C00041F61830204400220023C0E9002314F52B
:1008D000D95000220023C0E9002341F628302044EB
:1008E00000220023C0E9002341F630302044DFF825
:1008F0009C2CDFF89C3CC0E9002341F638302044B2
:100900000022DFF8E837C0E9002314F5DA500022AE
:100910000023C0E9002341F6483020440022DFF8DC
:10092000CC37C0E90023012041F6503160504FF42C
:100930007A7041F65431605014F5F760109041F22E
:10094000F00020440F9014F5F6600E9041F2E8009C
:1009500020440D9014F5F5600C9014F5F4600B90A4
:1009600014F587500A9014F5F360099014F5F260BD
:10097000089014F5F160079014F5F060069014F5F6
:10098000EF60059014F5EE60049014F5ED600390AF
:1009900014F5EC60029014F5EB600190206810F5FE
:1009A00077700090206810F57373206810F56F72EF
:1009B000206810F56B7141F6583020440CF064FB50
:1009C00041F6986020440022DFF82037C0E9002378
:1009D00014F5F550DFF8B42BDFF8B83BC0E900237D
:1009E00041F6A86020440022DFF80037C0E9002368
:1009F00041F6B060204400220023C0E9002341F604
:100A0000B86020440022DFF8903BC0E900239FED4E
:100A1000811B9FED820B14F5ED6114F5F6500DF07E
:100A200017F814F503600E9004F624000D9004F6F8
:100A300018000C9004F608000B9014F500600A9062
:100A400014F5FF60099014F5FE60089014F5FD6040
:100A5000079014F5FC60069014F5FB60059014F502
:100A6000FA60049014F5F960039014F5F8600290B0
:100A700000200190206810F56370009041F6A86096
:100A8000204490ED002B14F5F55090ED001B41F63D
:100A90009860204490ED000B4623206810F55272B8
:100AA00014F5F65141F6D860204412F0F7FA41F6F9
:100AB000D86004EB000141F6387020440DF023F8B3
:100AC00041F250102044109041F2441020440F9005
:100AD00041F2381020440E9041F2281020440D902D
:100AE00014F589500C9041F2181020440B9041F2FB
:100AF000101020440A9041F208102044099014F587
:100B00008850089041F2F8002044079014F50360E3
:100B1000069004F62400059004F61800049014F5DD
:100B2000FF60039014F5FE60029014F5FD600190E3
:100B300014F5FC60009014F5FB6314F5FA6214F5EB
:100B4000F86142F2081020440DF07EFB002042F2D2
:100B500058116054200000F029FD200000F03BFDFA
:100B600012F0E0FA039004F6346012F0E1FA8DF826
:100B70000C0004F63C6012F0DBFA8DF80D0004F670
:100B8000446012F0D5FA8DF80E0004F64C6012F0B5
:100B9000CFFA8DF80F0012F0C5FA029004F65460F7
:100BA00012F0C6FA8DF8080004F65C6012F0C0FA84
:100BB0008DF8090004F6646012F0BAFA8DF80A00A4
:100BC00004F66C6012F0B4FA8DF80B0012F0AAFA79
:100BD000019004F6746012F0ABFA8DF8040004F68C
:100BE0007C6012F0A5FA8DF8050004F6846012F01E
:100BF0009FFA8DF8060004F68C6012F099FA8DF8D1
:100C0000070004F6946012F0A3FA00280AD001202D
:100C100009E000BF0000000000804140000000002B
:100C200000002E400020C0B20090019B029A039960
:100C30002068A03012F0FEFA206810F1A0010DF13A
:100C400002000CF0DDF812F08CFF0500082101A86D
:100C500012F0CEFFDDE90101CDE9280128A9280025
:100C600012F0D2FF14F54E6012F0F1F914F5BA51FA
:100C7000087014F5BA5114F11C0012F0D5FF04F6F7
:100C8000E84012F0DEFF41F2B860204480ED000B36
:100C900041F2B86004EB000114F1B40012F0F7FF68
:100CA00014F54F6012F0CDFF41F2B060204480EDAA
:100CB000000B41F2B06004EB000114F1BC0012F033
:100CC000E6FF04F6246114F1D40012F0EDFF04F6FF
:100CD0002C6114F1DC0012F0E7FF04F6F84012F08A
:100CE000B6F90100C9B241F2282020440AF068FB9D
:100CF00041F2282020440AF0EBFB8DF801000DF1B1
:100D0000010114F5CC7012F08FFF14F5506012F051
:100D10009EF941F27861605041F2786020588DF878
:100D20000000694614F5D07012F07EFF04F60850FA
:100D300012F08DF90D900DA811F0B0FD41F2F8629E
:100D40002244C2E9000104F6085114F5FE7012F0C5
:100D5000BCFF41F6B0202044D0E9002341F2282016
:100D600020440AF0BBFB04F60C6012F070F90C9002
:100D70000CA811F093FD14F5B852C2E9000104F675
:100D80000C6114F56B7012F0A0FF14F5516012F0B5
:100D90005EF90B900BA811F081FD41F2F062224444
:100DA000C2E9000114F5516114F5017012F08DFFD4
:100DB00004F6185012F045FF41F26870204480EDAF
:100DC000000B41F2687004EB000114F5037012F09F
:100DD0005EFF14F5526012F088FF12F09BFF41F2A3
:100DE00068722244C2E9000141F2687004EB00011C
:100DF00014F5037012F04BFF04F6285012F027F997
:100E000041F20871605041F2087004EB000114F5E2
:100E1000077012F090FF200006F0AEFD41F678005A
:100E200004EB000141F2C82020440BF08DFB04F6D6
:100E3000A86114F5757012F037FF04F6A86012F07F
:100E400000FF41F66820204480ED000B14F56B6133
:100E500014F5777012F028FF14F56B6012F0F1FEB4
:100E600041F67020204480ED000B04F6B86114F5C3
:100E7000797012F019FF04F6B86012F0E2FE41F644
:100E80007820204480ED000B14F5D1500022DFF8CB
:100E90000C37C0E9002341F6282020440022934B60
:100EA000C0E9002341F63020204400220023C0E99D
:100EB000002341F63820204400220023C0E900230B
:100EC00014F5D25000220023C0E90023002041F68F
:100ED00048216050002041F64C21605041F65020DE
:100EE000204400220023C0E9002341F6582020447A
:100EF000DFF89826DFF8A836C0E9002314F56C6106
:100F000014F57D7012F0D0FE14F56C6012F099FEAD
:100F100014F5D55080ED000B04F6C86114F57F7010
:100F200012F0C2FE04F6C86012F08BFE41F6A82053
:100F3000204480ED000B14F5D45014F5D55191EDFB
:100F4000000B80ED000B41F6882020440022002396
:100F5000C0E9002341F69020204400220023C0E98C
:100F6000002341F2C82020440AF004FD41F6A820E5
:100F70002044D0E9002351EC100B11F043FE41F660
:100F800098222244C2E9000114F56D6104F2144074
:100F900012F08AFE14F56D6012F053FE41F6B8208F
:100FA000204480ED000B14F5D65000220023C0E948
:100FB000002341F6C820204400220023C0E900237A
:100FC00041F2C82020440AF0D5FC41F6B820204464
:100FD000D0E9002351EC100B11F014FE41F6D022A1
:100FE0002244C2E9000104F6D86104F23C4012F048
:100FF0006CFE14F56E6012F024FE14F5D95080EDED
:10100000000B14F5D95090ED000B200006F0FEFB0C
:1010100041F61830204480ED000B14F5D95104F24C
:101020004C4012F034FE41F6183004EB000104F29B
:10103000444012F02CFE04F6E86012F002FE41F685
:101040002830204480ED000B41F6283004EB0001ED
:1010500004F2544012F01BFE04F6385012F0F1FD79
:1010600041F2E870204480ED000B41F2E87004EB9F
:10107000000114F5537012F00AFE04F6685012F0E5
:10108000E0FD41F2282020440AF079FA41F22820BC
:1010900020440AF07AFA8DED1E0B1EA914F561703A
:1010A00012F0F5FD14F5576012F0CBFD41F2282047
:1010B00020440AF067FA41F2282020440AF068FA36
:1010C0008DED0E0B0EA914F5637012F0E0FD14F512
:1010D000586012F03DF800280AD0012009E000BF56
:1010E000F4640508FC640508046505080000F03F89
:1010F000002041F25071605441F25070215C14F1B3
:10110000600012F025FE04F68C5012F021F8002841
:1011100001D0012000E0002041F2D071605441F282
:10112000D070215C14F5C67012F012FE04F69850CF
:1011300012F00EF8002801D0012000E0002041F25A
:101140005171605441F25170215C14F5157012F028
:10115000FFFD04F6A45011F0FBFF002801D0012090
:1011600000E0002014F5C151087014F5C150017859
:1011700014F51E7012F0ECFD04F6F45012F0B5FDFB
:1011800041F27C61605041F27C6004EB000114F597
:10119000657012F0F3FD04F6FC5012F0A6FD41F666
:1011A0003801605041F638002058059005A914F523
:1011B000677012F0E3FD04F6046012F096FD41F64C
:1011C0003C01605041F63C002058049004A914F5FD
:1011D000697012F0D3FD04F6146012F032FD41F68E
:1011E0006800204480ED000B41F6680004EB00012C
:1011F00014F56D7012F04BFD14F55B6114F5217060
:1012000012F0C9FD04F6C85114F5447012F0C3FD84
:1012100014F5447011F09CFF002801D0012100E07A
:101220000021C9B241F2C820204412F0CDFD04F6DD
:101230001C6012F006FD41F67000204480ED000BAA
:1012400041F6700004EB000114F56F7012F01FFD01
:1012500014F55E6011F06CFF0100C9B2200008F0C7
:101260002BFF41F27461605414F55E6114F52D702A
:1012700012F0ADFD41F2B000204412F0E2FC41F664
:101280003030204480ED000B41F2B00004EB00014F
:1012900004F27C4012F008FD41F2B800204412F044
:1012A000D0FC41F63830204480ED000B41F2B8000C
:1012B00004EB000104F2844012F0F6FC14F58650B1
:1012C00012F0BFFC14F5DA5080ED000B14F58651D6
:1012D00014F5E76012F0E8FC41F2C800204412F077
:1012E000B0FC41F64830204480ED000B41F2C800CC
:1012F00004EB000114F5E86012F0D6FC41F2D000D6
:10130000204412F0F2FC41F65031605041F2D0001E
:1013100004EB000114F5E96012F06AFD41F2D80017
:10132000204412F08EFC51EC100B12F071FD41F6CE
:101330005431605041F2D80004EB000114F5EA602A
:1013400012F0B2FC41F2D870204400220023C0E920
:10135000002314F5BF5000220023C0E9002304F647
:10136000385012F06EFC41F2E870204480ED000B22
:1013700014F5516011F06BFE0A900AA811F08EFA74
:1013800041F2F0622244C2E9000104F6346104F241
:10139000A44012F01CFD04F63C6104F2AC4012F0D3
:1013A00016FD04F6446104F2B44012F010FD04F698
:1013B0004C6104F2BC4012F00AFD04F6546104F2E0
:1013C000C44012F004FD04F65C6104F2CC4012F05B
:1013D000FEFC04F6646104F2D44012F0F8FC04F65A
:1013E0006C6104F2DC4012F0F2FC04F6746104F269
:1013F000E44012F0ECFC04F67C6104F2EC4012F0E4
:10140000E6FC04F6846104F2F44012F0E0FC04F619
:101410008C6104F2FC4012F0DAFC04F6946104F2F0
:10142000045012F0B8FC41F6B0202044D0E900236B
:1014300014F5AA5009F00BFD41F6B0202044D0E984
:10144000002341F2A850204409F001FD41F6B020EC
:101450002044D0E9002341F21060204409F04EFC02
:1014600014F56A6114F5737012F01EFC41F6B02099
:101470002044D0E9002314F5CF500BF072FC14F592
:10148000116104F6D81012F0E0FC04F6581104F6CD
:10149000182012F001FD04F6981104F6182012F03D
:1014A000FDFC04F60C2104F6182012F0F9FC04F6F9
:1014B000F41104F6182012F0F3FC14F5206104F680
:1014C000182012F0EDFC1420099009A811F0E6F99B
:1014D00002000B0004F6182012F0EBFC1420089018
:1014E00008A811F0DBF902000B0004F6182012F036
:1014F000E5FC4FF4FA70079007A811F0CFF902004D
:101500000B0004F6182012F0DEFC3220069006A82C
:1015100011F0C4F902000B0004F6182012F0DDFCF3
:10152000782012F0DDFC0500231D04F60C2204F6E1
:10153000D811280014F0C8FB010004F6A82014F00C
:10154000D8FC002104F6C8000AF0ADF812F009FB3F
:10155000144914F0E2FC12F004FB082114F0B8FD69
:10156000114914F013FE04F6C40104F63C0012F015
:10157000E2FB41F25C1004EB000104F6440012F0BF
:10158000A4FB200040B0BDEC048B70BD9A999999E2
:101590009999D93F9999A93F000039400000F0BFBF
:1015A0009999B93FF03405086507050810B504009E
:1015B000206810F5C07104F658100DF0FDFA20688F
:1015C00010F5C67104F658100DF00EFB04F6581015
:1015D0000DF02BFB10BD10B50400206810F5D07184
:1015E00004F698100DF0BAFC04F698100DF0B8FC53
:1015F00010BD00002DE9F8432DED108BADF59C6D6D
:101600000500286812F0B2F905F6B8200EF079FE50
:1016100015F5386010F087FA15F58F5011F058F86D
:1016200041F22820284409F0B7FF41F2C82028449D
:101630000AF070FA15F5AA5009F03DFC41F2A850E5
:10164000284409F038FC41F21060284409F07CFB82
:1016500005F6C8000AF03CF805F6A82014F09EFD37
:1016600014F0C2FB15F511600DF0BAF805F618205C
:1016700014F0B6FD15F5CF500BF0B5FB41F6583020
:1016800028440BF0FEFE41F6387028440CF039FC7B
:1016900005F6F41014F0C2FE002804D0002105F66F
:1016A000C8000AF000F815F5A85011F0D1F9C0B241
:1016B000002800F0B9870021281D14F0B5FE28008D
:1016C00006F0DCFC41F6A8016854280006F0F5FDA0
:1016D00015F5C7510870280006F010FF41F61811E3
:1016E0006854280007F02DF841F65011685428007E
:1016F00007F052F941F688116854280006F071FC91
:1017000041F26860285C012800F0A98015F5DA70C4
:1017100012F097FAB0EE408AF0EE608A41F228208B
:10172000284409F083FE53EC182B51EC100B11F0F8
:1017300043FB0BD041F22820284409F077FE8DEDC1
:10174000440B44A915F5DA7012F0A1FA15F5DE7014
:1017500012F0CBFA040041F22820284409F0B2FE2E
:1017600084420AD041F22820284409F0ABFE1290AE
:1017700012A915F5DE7012F001FB15F5D47011F009
:10178000E7FC040041F22820284409F0FDFCC0B227
:1017900084420AD041F22820284409F0F5FC0100D7
:1017A000C9B215F5D47012F0D3FA15F5CC7011F05A
:1017B000BFFC040041F22820284409F089FEE4B26D
:1017C000C0B284420BD041F22820284409F080FEA8
:1017D0008DF8100004A915F5CC7012F025FA15F556
:1017E000AE7011F0B5FC040015F5AA5009F01EFB0F
:1017F000844208D015F5AA5009F018FB010015F530
:10180000AE7012F0A5FA15F5B47011F0A1FC040049
:1018100041F2A850284409F009FB844209D041F262
:10182000A850284409F002FB010015F5B47012F02D
:101830008FFA15F59C7011F08BFC040041F21060DA
:10184000284409F050FA844209D041F2106028443B
:1018500009F049FA010015F59C7012F079FA41F28D
:10186000C820284414F0FBFDC0B200285AD041F62D
:10187000901005EB000141F2C82028440BF0E9F973
:1018800041F698102844D0E900230020DFF8AC1678
:1018900011F0B8F941EC100B51EC100B31F0004194
:1018A00041EC100B8DED280B28A905F26C4012F0CD
:1018B000EEF915F5CD5105F29C4012F05FFA41F6B4
:1018C000A81005EB000105F25C4012F0E0F941F6CA
:1018D000B0102844D0E900230020DFF8601611F092
:1018E00091F9CDE9260126A905F2644012F0CFF95D
:1018F00041F26860285C002814D041F26960285CDD
:1019000002280FD041F2F870284441F69011294482
:1019100091ED000B80ED000B15F5CE5105F2044062
:1019200012F0B5F915F5F27012F08BF953EC102B9B
:1019300041F2F8702844D0E9000111F03DFA1ED0C0
:1019400041F2F87005EB000115F5F27012F09FF905
:1019500041F2F870284490ED000B41F2D870284411
:1019600014F0F7FF41F2F070284480ED000B41F2D3
:10197000F07005EB000115F5557012F088F915F5BA
:10198000187011F0E5FB002829D0002115F518701A
:1019900012F0DEF941F2D870284441F2F87129447E
:1019A00091ED000B80ED000B15F5BF5041F2F87181
:1019B000294491ED000B80ED000B41F2F0702844BA
:1019C00041F2F871294491ED000B80ED000B41F2DA
:1019D000F07005EB000115F5557012F058F915F18E
:1019E000900011F0A5FB41F26861695CC0B28842C9
:1019F0000AD041F26860285C8DF80F000DF10F01EC
:101A000015F1900012F010F915F5FA7012F019F9AD
:101A100053EC102B15F5C050D0E9000111F0CCF9B2
:101A200005D015F5C05115F5FA7012F030F941F2F4
:101A30006860285C002820D141F26960285C022897
:101A40001BD105F21C5011F083FB01280CD10021A1
:101A500005F21C5012F07CF9002115F5A26012F07D
:101A600077F9280005F078FB15F5A26011F070FBFE
:101A7000002802D1280005F0D5FB15F11C0011F05B
:101A800057FB040015F54E6011F0E1FAE4B2844210
:101A900009D015F11C0011F04BFB119011A915F59F
:101AA0004E6012F048F915F1B40012F0CAF8B0EE29
:101AB000408AF0EE608A05F6E84012F0C2F853EC76
:101AC000182B51EC100B11F077F905D015F1B4017A
:101AD00005F6E84012F0E8F815F1BC0012F0B1F894
:101AE000B0EE408AF0EE608A15F54F6012F0A9F86A
:101AF00053EC182B51EC100B11F05EF905D015F1D9
:101B0000BC0115F54F6012F0CFF815F1D40012F0BA
:101B100098F8B0EE408AF0EE608A05F6246012F084
:101B200090F853EC182B51EC100B11F045F905D03F
:101B300015F1D40105F6246012F0B6F815F1DC00B9
:101B400012F07FF8B0EE408AF0EE608A05F62C6065
:101B500012F077F853EC182B51EC100B11F02CF914
:101B600005D015F1DC0105F62C6012F09DF815F595
:101B7000CC7011F0DDFA040005F6F84011F067FAB8
:101B8000E4B2844209D015F5CC7011F0D1FA10906E
:101B900010A905F6F84012F0CEF815F5D07011F046
:101BA000C7FA040015F5506011F051FAE4B284420E
:101BB00009D015F5D07011F0BBFA0F900FA915F5EB
:101BC000506012F0B8F815F5FE7011F040FA0400FC
:101BD00005F6085011F03BFA844205D015F5FE7168
:101BE00005F6085012F071F815F5017011F02FFA92
:101BF000040015F5516011F02AFA844205D015F55C
:101C0000017115F5516012F060F815F5037012F0CE
:101C100018F8B0EE408AF0EE608A05F6185012F01F
:101C200010F853EC182B51EC100B11F0C5F805D03F
:101C300015F5037105F6185012F036F815F5057014
:101C400012F053F8040015F5526012F04EF8844279
:101C500005D015F5057115F5526012F0C9F815F5A6
:101C6000077011F0F4F9040005F6285011F0EFF9AF
:101C7000844205D015F5077105F6285012F025F8B5
:101C800015F5097011F0E3F9040015F5536011F032
:101C9000DEF9844205D015F5097115F5536012F08F
:101CA00014F815F5537011F0CCFF53EC102B41F2E2
:101CB000E8702844D0E9000111F07EF80ED015F547
:101CC000537011F0BEFF41F2E870284480ED000B24
:101CD00015F5537105F6385011F0E6FF15F55770FC
:101CE00011F0B5F9040015F5546011F0B0F9844213
:101CF00005D015F5577115F5546011F0E6FF15F58F
:101D0000597011F0A4F9040005F6485011F09FF93C
:101D1000844205D015F5597105F6485011F0D5FFEC
:101D200015F55B7011F093F9040015F5556011F08D
:101D30008EF9844205D015F55B7115F5556011F0EB
:101D4000C4FF15F5617011F07CFFB0EE408AF0EE33
:101D5000608A05F6685011F074FF53EC182B51ECB3
:101D6000100B11F029F805D015F5617105F66850D2
:101D700011F09AFF15F5637011F063FFB0EE408A21
:101D8000F0EE608A15F5576011F05BFF53EC182BED
:101D900051EC100B11F010F805D015F5637115F525
:101DA000576011F081FF15F1600011F0D1F90400C6
:101DB00015F5586011F0CCF9844205D015F1600199
:101DC00015F5586011F0E7FF15F5C67011F0C0F970
:101DD000040005F68C5011F0BBF9844205D015F5CE
:101DE000C67105F68C5011F0D6FF15F5157011F07F
:101DF000AFF9040005F6985011F0AAF9844205D015
:101E000015F5157105F6985011F0C5FF15F51E7002
:101E100011F09EF9040005F6A45011F099F98442DE
:101E200005D015F51E7105F6A45011F0B4FF15F597
:101E3000657011F05AFF040005F6F45011F055FFDB
:101E4000844205D015F5657105F6F45011F0D0FF08
:101E500015F5677011F049FF040005F6FC5011F00C
:101E600044FF844205D015F5677105F6FC5011F06A
:101E7000BFFF15F5697011F038FF040005F6046026
:101E800011F033FF844205D015F5697105F6046041
:101E900011F0AEFF15F56B7011F0D9F8040005F6DE
:101EA0000C6011F0D4F8844205D015F56B7105F67D
:101EB0000C6011F00AFF15F56D7011F0C2FEB0EE66
:101EC000408AF0EE608A05F6146011F0BAFE53EC19
:101ED000182B51EC100B10F06FFF05D015F56D713C
:101EE00005F6146011F0E0FE15F5217011F030F9DF
:101EF000040015F55B6011F02BF9844205D015F54F
:101F0000217115F55B6011F046FF15F5447011F075
:101F10001FF9040005F6C85011F01AF9844216D0D2
:101F200015F5447105F6C85011F035FF15F54470EC
:101F300011F00EF9002803D0012102E080842E4127
:101F40000021C9B241F2C820284411F03DFF15F527
:101F50003B7011F0FDF8040005F6BC5011F0F8F8E4
:101F6000844205D015F53B7105F6BC5011F013FF06
:101F700015F56F7011F065FEB0EE408AF0EE608AE4
:101F800005F61C6011F05DFE53EC182B51EC100BA4
:101F900010F012FF05D015F56F7105F61C6011F0F9
:101FA00083FE15F52D7011F0C3F8040015F55E6081
:101FB00011F0BEF8E4B2C0B2844205D015F52D711F
:101FC00015F55E6011F003FF15F5757011F039FE1F
:101FD000B0EE408AF0EE608A05F6A86011F031FE9E
:101FE00053EC182B51EC100B10F0E6FE05D015F554
:101FF000757105F6A86011F057FE15F5777011F0B0
:1020000020FEB0EE408AF0EE608A15F56B6011F0AC
:1020100018FE53EC182B51EC100B10F0CDFE05D030
:1020200015F5777115F56B6011F03EFE15F57970B9
:1020300011F007FEB0EE408AF0EE608A05F6B86057
:1020400011F0FFFD53EC182B51EC100B10F0B4FE07
:1020500005D015F5797105F6B86011F025FE15F576
:102060007D7011F0EEFDB0EE408AF0EE608A15F55D
:102070006C6011F0E6FD53EC182B51EC100B10F0D6
:102080009BFE05D015F57D7115F56C6011F00CFE09
:1020900015F57F7011F0D5FDB0EE408AF0EE608A44
:1020A00005F6C86011F0CDFD53EC182B51EC100B68
:1020B00010F082FE05D015F57F7105F6C86011F0AD
:1020C000F3FD05F2144011F0BCFDB0EE408AF0EED5
:1020D000608A15F56D6011F0B4FD53EC182B51ECCE
:1020E000100B10F069FE05D005F2144115F56D6076
:1020F00011F0DAFD05F23C4010F0A9FF040005F6EE
:10210000D86010F0A4FF844205D005F23C4105F6EA
:10211000D86011F0DAFD05F2444011F092FD53EC65
:10212000102B41F618302844D0E9000110F044FE8D
:1021300020D005F2444011F084FD41F618302844C7
:1021400080ED000B41F61830284490ED000B28007C
:1021500005F0C8FA15F5D95080ED000B15F5D951E9
:1021600015F56E6011F093FD15F5D95105F24C404F
:1021700011F08DFD05F24C4011F063FD53EC102B76
:1021800015F5D950D0E9000110F016FE21D005F266
:102190004C4011F056FD15F5D95080ED000B15F5AA
:1021A000D95115F56E6011F072FD15F5D95090ED0D
:1021B000000B280005F02AFB41F61830284480ED7A
:1021C000000B41F6183005EB000105F2444011F018
:1021D0005EFD05F2544011F034FDB0EE408AF0EEA1
:1021E000608A05F6E86011F02CFD53EC182B51ECD9
:1021F000100B10F0E1FD0ED005F2544105F6E86039
:1022000011F052FD05F2544011F01BFD41F628304B
:10221000284480ED000B05F27C4011F012FDB0EE79
:10222000408AF0EE608A41F2B000284411F009FDC6
:1022300053EC182B51EC100B10F0BEFD20D005F222
:102240007C4141F2B000284411F02EFD05F27C40A3
:1022500011F0F7FC41F63030284480ED000B41F2DC
:102260001060284408F03FFD012809D141F63030C4
:10227000284490ED000B41F2C82028440AF004FDE8
:1022800005F2844011F0DDFCB0EE408AF0EE608A89
:1022900041F2B800284411F0D4FC53EC182B51EC57
:1022A000100B10F089FD20D005F2844141F2B800F6
:1022B000284411F0F9FC05F2844011F0C2FC41F60B
:1022C0003830284480ED000B41F21060284408F0BB
:1022D0000AFD002809D141F63830284490ED000B62
:1022E00041F2C82028440AF0CFFC15F53B7010F0ED
:1022F0002FFF040005F6BC5010F02AFF844205D0E1
:1023000015F53B7105F6BC5011F045FD15F5E7607C
:1023100011F097FCB0EE408AF0EE608A15F5865019
:1023200011F08FFC53EC182B51EC100B10F044FD06
:102330000DD015F5E76115F5865011F0B5FC15F5D2
:10234000E76011F07EFC15F5DA5080ED000B15F515
:10235000E86011F076FCB0EE408AF0EE608A41F25F
:10236000C800284411F06DFC53EC182B51EC100BF5
:1023700010F022FD0FD015F5E86141F2C8002844A5
:1023800011F092FC15F5E86011F05BFC41F6483065
:10239000284480ED000B15F5E96011F0A6FC04005F
:1023A00041F2D000284411F0A0FC84420DD015F574
:1023B000E96141F2D000284411F01AFD15F5E960F9
:1023C00011F093FC41F65031685015F5EA6011F0B8
:1023D00038FCB0EE408AF0EE608A41F2D800284422
:1023E00011F02FFC53EC182B51EC100B10F0E4FC07
:1023F00011D015F5EA6141F2D800284411F054FCDF
:1024000015F5EA6011F01DFC51EC100B11F000FD08
:1024100041F65431685042F25810285C012809D026
:1024200043D303281AD00FD305282AD01FD3062858
:1024300031D03AE001208DF80E000DF10E0115F5B6
:102440004D7011F0F1FB38E002208DF80D000DF118
:102450000D0115F54D7011F0E7FB2EE003208DF80E
:102460000C0003A915F54D7011F0DEFB25E00420EA
:102470008DF80B000DF10B0115F54D7011F0D4FB2B
:102480001BE005208DF80A000DF10A0115F54D70CD
:1024900011F0CAFB11E006208DF809000DF10901C9
:1024A00015F54D7011F0C0FB07E000208DF8080015
:1024B00002A915F54D7011F0B7FB05F6346105F270
:1024C000A44014F0C9FA05F63C6105F2AC4014F0E2
:1024D000C3FA05F6446105F2B44014F0BDFA05F6FE
:1024E0004C6105F2BC4014F0B7FA05F6546105F2F0
:1024F000C44014F0B1FA05F65C6105F2CC4014F06A
:10250000ABFA05F6646105F2D44014F0A5FA05F6BD
:102510006C6105F2DC4014F09FFA05F6746105F277
:10252000E44014F099FA05F67C6105F2EC4014F0F1
:1025300093FA05F6846105F2F44014F08DFA05F67D
:102540008C6105F2FC4014F087FA05F6946105F2FF
:10255000045014F097FA15F5CF500AF0F9FBC0B209
:10256000010015F5277011F0F3FB15F5737011F0EC
:1025700068FBB0EE408AF0EE608A15F56A6011F0F3
:1025800060FB53EC182B51EC100B10F015FC05D030
:1025900015F5737115F56A6011F086FB42F20810AB
:1025A00028440BF0C1FE41F2C820284414F07EFA02
:1025B000012805D0012115F52A7011F0C9FB04E0AE
:1025C000002115F52A7011F0C3FB15F5477010F0C6
:1025D000BFFD012807D1002115F5477011F0B8FBA8
:1025E000280007F01FF905F63C0010F030FDD5F883
:1025F000C418884205D005F6C40105F63C0011F068
:102600009AFB05F6440010F022FD040041F25C1034
:10261000284410F01CFD844206D005F6440141F226
:102620005C10284411F051FB41F21050284410F086
:102630000FFAC0B2002818D041F23850285C0028A8
:1026400004D02868C03014F0F6FA03E02868C030DF
:1026500014F0FAFA41F23850285C002801D1012028
:1026600000E0002041F23851685415F5BE5010F0DA
:10267000EFF9C0B2002842D041F2B870285C0028BF
:102680000ED041F290702858401C41F29071685071
:1026900041F2907005EB000115F50B7011F04BFB4A
:1026A00041F26860285C022829D141F298702858CC
:1026B000401C41F29871685041F29C702A580021E8
:1026C00041F29C702858401E14F03AFC41F29C7173
:1026D000685015F5BD5007F07FFD41F2987005EB8D
:1026E000000115F50F7011F026FB15F5BD5007F030
:1026F000BDFD069006A915F5117011F01CFB41F205
:102700006860285C002809D0022801F0E480C0F04D
:102710001081032800F0B88604F007BD41F269601B
:10272000285C002804D0022800F0A48072D3BDE009
:1027300011F017FADFF83C1D13F028FD002115F504
:10274000AA5008F06CFB002141F2A850284408F080
:1027500066FB012141F21060284408F0BDFA41F601
:102760003030284490ED000B41F2C82028440AF094
:102770008BFA41F22820284414F0E9FB41F228208A
:10278000284408F0B9FC9FED210B41F22820284491
:1027900008F09EFD41F2C820284414F0DCFB002123
:1027A00015F1780011F0D4FA41F2087005EB000140
:1027B00015F5077011F0BFFA15F5A95010F004F9DE
:1027C000002041F608016854002115F5CF500AF0A9
:1027D000A7FA002115F5247011F0BAFA002015F5BA
:1027E000D3510870002115F52F7011F0B1FA0021B6
:1027F00015F5357011F0ACFA002115F5387011F0AF
:10280000A7FA012041F2696168544FE0000000001E
:102810000000000015F5A95010F0E1F8C0B2002842
:1028200027D011F09EF9DFF84C1C13F0AFFC11F02B
:1028300098F9DFF8001E13F070FBDFF8381C13F076
:10284000A5FC11F08EF9DFF8301C13F066FBDFF801
:10285000241C13F09BFC11F084F9DFF8D81D13F051
:102860005CFBDFF8101C13F091FC022041F269615F
:1028700068541BE015F1780010F06AFC012817D0AD
:1028800041F2C820284414F011F901280ED141F278
:10289000F870284441F69011294491ED000B80ED29
:1028A000000B41F2C820284408F0E2FF04F03DBCD0
:1028B000002115F1780011F04BFA002115F1840088
:1028C00011F046FA15F10C0010F032FCC0B20128EC
:1028D00004D024D3032819D009D320E0012041F2E9
:1028E00068616854002041F269616854DEE705F6CA
:1028F000A82013F053FC13F04DFA022041F2686156
:102900006854002041F269616854CFE7032041F226
:1029100068616854002041F269616854C6E700208C
:102920008DF807000DF1070115F10C0011F07CF98D
:10293000BCE715F5BB500078002814D0022800F041
:1029400089806ED3042800F08982C0F0598206285D
:1029500000F00083C0F0B382082800F07485C0F056
:10296000208500F085BD11F0FCF8DFF8081B13F09E
:102970000DFC11F0F6F8DFF8BC1C13F0CEFADFF80E
:10298000F41A13F003FC11F0ECF8DFF8F01A13F06E
:10299000C4FADFF8E01A13F0F9FB11F0E2F8DFF8FF
:1029A000941C13F0BAFADFF8CC1A13F0EFFB41F6DF
:1029B000B0202844D0E9002315F5AA5008F047FAC2
:1029C00041F6B0202844D0E9002341F2A850284421
:1029D00008F03DFA41F6B0202844D0E9002341F246
:1029E0001060284408F08AF941F6B0202844D0E964
:1029F000002341F22820284408F070FD41F6B02061
:102A00002844D0E9002315F5CF500AF0AAF9002098
:102A100041F608016854012015F5BB51087000F01B
:102A200027BD41F2C820284414F040F801280FD1F6
:102A300041F6E80005EB000141F2C820284409F006
:102A400083FD280004F099FD022015F5BB510870A4
:102A500000F00EBD15F16C0010F07AFB012850D08B
:102A600015F5AE7010F074FB040015F5AA5008F0CF
:102A7000DDF9844208D015F5AE7010F069FB010055
:102A800015F5AA5008F0CBF915F5B47010F060FBFD
:102A9000040041F2A850284408F0C8F9844209D043
:102AA00015F5B47010F054FB010041F2A850284411
:102AB00008F0B5F915F59C7010F04AFB040041F2DE
:102AC0001060284408F00FF984423BD015F59C7043
:102AD00010F03EFB010041F21060284408F0FCF8C1
:102AE00015F59C7010F034FB012821D041F63830E8
:102AF000284490ED000B41F2C82028440AF0C4F8A5
:102B000020E0002115F16C0011F022F9002015F5EC
:102B1000BB510870002041F26861685400208DF8B4
:102B200006000DF1060115F10C0011F07DF85CE1D5
:102B300041F63030284490ED000B41F2C820284483
:102B40000AF0A2F815F5D47010F002FB040041F26F
:102B50002820284408F018FBC0B2844210D015F594
:102B6000D47010F0F5FA002840F0D48041F228200B
:102B7000284408F0E5FA41F2C820284414F0EFF99F
:102B800015F5DE7011F0B1F8040041F22820284458
:102B900008F098FC844234D015F5DE7011F0A5F8E9
:102BA00011F0B8F841EC100B41F22820284408F04D
:102BB0008FFB41F2C820284414F0D1F941F22820BB
:102BC000284408F033FC8DED420B42A915F5DA706C
:102BD00011F05DF815F5DE7011F087F8040041F290
:102BE0002820284408F06EFC84420AD041F22820B4
:102BF000284408F067FC0E900EA915F5DE7011F060
:102C0000BDF815F5DA7011F01CF8B0EE408AF0EE60
:102C1000608A41F22820284408F008FC53EC182B65
:102C200051EC100B10F0C8F838D015F5DA7011F02F
:102C300008F841F22820284408F0BAFA41F2C820E6
:102C4000284414F08CF941F22820284408F03AFC7A
:102C50000D900DA915F5DE7011F090F815F5DA70EC
:102C600010F0EFFFB0EE408AF0EE608A41F22820CB
:102C7000284408F0DBFB53EC182B51EC100B10F040
:102C80009BF80BD041F22820284408F0CFFB8DEDB3
:102C9000400B40A915F5DA7010F0F9FF15F5CC706E
:102CA00010F046FA040041F22820284408F010FCF5
:102CB000E4B2C0B284420FD015F5CC7010F038FAEF
:102CC0000100C9B241F22820284408F079FB41F202
:102CD000C820284414F043F941F61810285C002855
:102CE0000CD0002041F61811685441F6E80005EBBD
:102CF000000141F2C820284409F026FC15F5217096
:102D000010F026FA002810D141F2C820284414F00F
:102D100022F90FE041F22820284408F0EDF941F2B1
:102D2000C820284414F01BF92AE741F2C82028449F
:102D300014F019F915F57D7010F083FF53EC102B8A
:102D400015F5D550D0E9000110F036F80AD015F588
:102D50007D7010F076FF15F5D55080ED000B280042
:102D600004F00BFC15F53E7010F0F2F9012809D1C2
:102D700041F2C820284414F0FAF8002115F53E70FD
:102D800010F0E6FF41F2C820284413F08FFE01281E
:102D900004D141F2C820284408F06AFD15F51B70E3
:102DA00010F0D6F9012821D015F52F7010F0D0F9C8
:102DB000012803D1052015F5BB510870002415F535
:102DC000247010F0C5F9002800D0012415F5CF506B
:102DD00009F0BEFF2100C9B2C0B2814205D0210076
:102DE000C9B215F5CF5009F09BFF41E3002115F55D
:102DF0001B7010F0ADFF032015F5BB510870DDE727
:102E000041F2C820284413F051FE012825D115F5C0
:102E1000217010F09DF9002805D141F2C820284406
:102E200014F0A1F804E041F2C820284414F09BF803
:102E3000012041F26C61685015F11C0010F078F926
:102E4000C0B241F27061685041F2C820284408F0D5
:102E50000FFD042015F5BB51087009E341F2C820AD
:102E6000284413F023FE012828D141F26C60285831
:102E700041F270616958884212D241F26C60285860
:102E8000401C41F26C61685041F26C6028588DF82A
:102E900005000DF1050115F1A00010F0C5FE08E0D8
:102EA00041F2C820284414F056F8022015F5BB5111
:102EB000087041F2C820284408F0DAFCD8E201206A
:102EC00015F5D351087015F5757010F0BAFE41F67E
:102ED0006820284480ED000B15F5777010F0B1FEE6
:102EE00041F67020284480ED000B15F5797010F044
:102EF000A8FE41F67820284480ED000B15F57D7082
:102F000010F09FFE15F5D55080ED000B15F57F7084
:102F100010F097FE41F6A820284480ED000B05F242
:102F2000144010F08EFE41F6B820284480ED000BCE
:102F3000280004F022FB10F014FEDFF8EC1812F069
:102F4000ECFFDFF8301513F021F9062015F5BB5121
:102F500008708DE215F16C0010F0FAF8012800F00D
:102F6000E98115F52F7010F0F3F8002800F00182C8
:102F700015F5DA7010F065FEB0EE408AF0EE608A6A
:102F800041F22820284408F051FA53EC182B51EC58
:102F9000100B0FF011FF0BD041F22820284408F04D
:102FA00045FA8DED3E0B3EA915F5DA7010F06FFE77
:102FB00015F5DE7010F099FE040041F22820284437
:102FC00008F080FA84420AD041F22820284408F010
:102FD00079FA0C900CA915F5DE7010F0CFFE41F6D1
:102FE0001810285C00280FD0002041F618116854F2
:102FF00041F6E80005EB000141F2C820284409F041
:10300000A3FA280004F0B9FA15F5757010F019FE4E
:1030100053EC102B41F668202844D0E900010FF052
:10302000CBFE0BD015F5757010F00BFE41F6682045
:10303000284480ED000B280004F09FFA15F5777006
:1030400010F0FFFD53EC102B41F670202844D0E91E
:1030500000010FF0B1FE0BD015F5777010F0F1FD07
:1030600041F67020284480ED000B280004F085FA1A
:1030700015F5797010F0E5FD53EC102B41F6782032
:103080002844D0E900010FF097FE0BD015F57970B8
:1030900010F0D7FD41F67820284480ED000B280081
:1030A00004F06BFA15F57D7010F0CBFD53EC102B8E
:1030B00015F5D550D0E900010FF07EFE0AD015F5C8
:1030C0007D7010F0BEFD15F5D55080ED000B280089
:1030D00004F053FA15F57F7010F0B3FD53EC102B8C
:1030E00041F6A8202844D0E900010FF065FE0BD07E
:1030F00015F57F7010F0A5FD41F6A820284480ED5D
:10310000000B280004F039FA05F2144010F099FD84
:1031100053EC102B41F6B8202844D0E900010FF001
:103120004BFE0BD005F2144010F08BFD41F6B82099
:10313000284480ED000B280004F01FFA05F23C4003
:103140000FF085FF040041F6D820284413F013FF48
:10315000844213D005F23C400FF079FF010041F6A4
:10316000D820284413F00CFF05F23C400FF06FFF0D
:10317000010041F6D820284413F026FF002415F55D
:1031800024700FF0E5FF002800D0012415F5CF5082
:1031900009F0DEFD2100C9B2C0B2814205D0210094
:1031A000C9B215F5CF5009F0BBFD15F535700FF01C
:1031B000CFFF012811D1002115F5357010F0C8FDA1
:1031C00010F0CFFCDFF81C1C12F0A7FEA94912F08A
:1031D000DDFF072015F5BB51087041F2C8202844D7
:1031E00013F064FC012840F0DB8041F2C820284441
:1031F00008F03EFB41F2F870284490ED000B15F505
:10320000D45013F0E5FB8DED140B14A905F2044026
:1032100010F03DFD41F628302844D0E90001DDE9F9
:10322000142313F0D9FE41EC100B41F6082028447A
:1032300013F056F9B0EE408AF0EE608AB0EE480A1C
:10324000F0EE680A41F22820284407F0B1FFB0EE02
:10325000480AF0EE680A15F5D65013F07AFB2800FC
:1032600004F0D4FA8DED240B24A905F20C4010F0E3
:103270000EFD41F6502005EB000115F57B7010F0B6
:1032800006FDB0EE480AF0EE680A41F6D820284460
:1032900013F016FF41F6D820284413F081FF2800D0
:1032A00004F0B4FA8DED220B22A905F21C4010F0B7
:1032B000EEFC41F6D820284413F07AFF280004F0F1
:1032C000A5FA8DED200B20A905F2244010F0DFFCBB
:1032D00041F6D820284413F063FF8DED1E0B1EA984
:1032E00005F22C4010F0D3FC41F6D820284413F00E
:1032F0005FFF8DED1C0B1CA905F2344010F0C7FCDC
:1033000041F6D820284413F053FFB0EE408AF0EE87
:10331000608A05F2444010F094FC51EC180B53EC19
:10332000102B13F06FFF36D3002115F5387010F015
:103330000FFD35E0002115F16C0010F009FD0020B3
:1033400015F5BB51087010F00CFCDFF8FC1D12F0F5
:10335000E4FD484912F01AFF002041F26861685408
:1033600000208DF8040001A915F10C0010F05CFCA0
:1033700016E0022015F5BB510870002015F5D35159
:10338000087010F0EEFBDFF8C01D12F0C6FD3949E1
:1033900012F0FCFE04E0012115F5387010F0D8FCA5
:1033A00066E041F22820284408F0E0F8C0B2002886
:1033B00048D09FED330B41F22820284407F088FFC6
:1033C000280004F0DAF841F65020284400220023B7
:1033D000C0E9002341F63820284400220023C0E938
:1033E000002341F63020284400220023C0E90023B6
:1033F00015F5D25000220023C0E9002341F68820B1
:10340000284400220023C0E9002341F690202844EC
:1034100000220023C0E9002315F5D6500022002326
:10342000C0E9002341F6C820284400220023C0E957
:10343000002341F6D820284413F0FBFE082015F5A0
:10344000BB51087014E041F22820284408F08EF89F
:10345000C0B200280CD010F084FBDFF8F41C12F08E
:103460005CFD044912F092FE062015F5BB51087070
:1034700003F05BBE65070508381705085C170508EB
:10348000000000000000000041F26170285C00288C
:1034900016D0022800F08F807DD3042800F014811C
:1034A000C0F0DB80062800F05B81C0F04381082873
:1034B00000F0C181C0F07381092800F0CC81D8E10F
:1034C00010F04FFBDFF88C1C12F060FE10F049FB8F
:1034D000584912F022FDDFF87C1C12F057FE10F064
:1034E00040FBDFF8741C12F018FDDFF8681C12F0C6
:1034F0004DFE10F036FB4F4912F00FFDDFF8541C63
:1035000012F044FE15F5D0700FF012FEC0B2642127
:10351000484341F27861685041F2786028580328A6
:103520000ED2032041F27861685041F27860285849
:103530008DF803000DF1030115F5D07010F074FB48
:1035400015F11C000FF0F4FD15F5BA51087015F5D2
:10355000037010F076FB41F26870284480ED000B98
:1035600015F507700FF073FD41F20871685041F2D4
:10357000087028580B900BA80DF0CCF8CDE93C0151
:103580003CA941F2787028440FF016FA012041F26C
:10359000617168546DE1280013F05AFEC0B2002832
:1035A00008D0012115F5AA5007F039FC022041F29C
:1035B000617168545DE1280013F04AFEC0B2002832
:1035C0004AD0002041F270716854002041F26C61D1
:1035D000685015F5B45041F26871294491ED000B23
:1035E00080ED000B41F278602858400813F046FE49
:1035F00002000B0015F5B450D0E9000113F0ECFC0B
:1036000015F5B452C2E9000110F0ABFADFF8901DD5
:1036100012F083FC41F27861695812F059FD10F004
:10362000A0FADFF8301B12F0B1FD10F09AFADFF8C3
:10363000741D01E01417050812F06FFC15F5B45164
:1036400091ED000B13F027FEDFF8081B12F09EFD32
:10365000032041F2617168540BE141F228202844B3
:1036600007F084FFC0B200282DD015F5B45090EDBE
:10367000000B41F22820284407F02AFE41F278701E
:1036800028440FF0A1F910F06CFADFF8C81A12F014
:103690007DFDDFF8141D12F040FC040015F50770E5
:1036A0000FF0D5FC0100200012F012FD10F059FAC5
:1036B0005CA112F032FCDFF89C1A12F067FD0420C6
:1036C00041F261716854D4E041F2787028440FF0FF
:1036D00086F9C0B200280CD141F2C820284413F06A
:1036E000E5F9012804D141F2C820284408F0C0F8C7
:1036F000BFE041F2787028440FF06EF941F61810DF
:10370000285C00280CD0002041F61811685441F6BE
:10371000E80005EB000141F2C820284408F014FF3E
:1037200041F2C820284413F01EFC062041F26171CA
:103730006854DDE741F22820284407F017FFC0B2A3
:1037400000280CD015F5B45090ED000B41F2282064
:10375000284407F0BDFD062041F26171685488E0FD
:1037600041F22820284407F001FFC0B2002808D009
:1037700041F2C820284413F099F9012801D1012011
:1037800000E00020C0B2002808D041F2C820284440
:1037900008F06EF8072041F26171685469E041F267
:1037A000C820284413F082F9012843D141F27070F7
:1037B000285C401C15F5BA51097888420BDA41F2B1
:1037C0007070285C401C41F270716854062041F210
:1037D000617168542EE0002041F27071685441F22A
:1037E0006C602858401C41F27861695888421DD2AB
:1037F00041F26C602858401C41F26C61685015F52C
:10380000B450D0E900230020DFF8A41B13F0AAFD78
:1038100015F5B452C2E90001052041F26171685406
:1038200008E000BF206300000C650508082041F295
:10383000617168541DE0280013F00AFDC0B2002831
:1038400008D0002115F5AA5007F0E9FA092041F245
:10385000617168540DE0280013F0FAFCC0B2002832
:1038600007D0002041F268616854002041F2617184
:10387000685415F16C000FF06BFC012829D110F091
:1038800070F9DFF8301B12F048FBDFF8C81812F0AF
:103890007DFC10F066F9DFF8201B12F03EFBDFF82C
:1038A000B41812F073FC002115F16C0010F050FAFE
:1038B000002041F261716854002041F2686168544F
:1038C00000208DF802000DF1020115F10C0010F03E
:1038D000ABF903F02ABC41F26A60285C002876D07C
:1038E000012800F08182022800F09F82032800F066
:1038F000D682042800F00A83052800F015830628E4
:1039000000F06E83072800F0D083082800F0F883C9
:10391000092800F023840A2800F05F840B2800F0B7
:103920007A840C2800F0BA840D2800F0D0840E2888
:1039300000F0EC84102800F0E986112801F00E81D7
:10394000122801F02281132801F03881142801F097
:103950004281152801F0DA81162801F02A841728FF
:1039600001F08484182801F09B84192801F0FB845D
:103970001A2801F06C851B2801F0FE851C2801F037
:103980008F871D2802F039801E2802F059801F28D9
:1039900002F06480202802F08580212802F09B80BC
:1039A000222802F0AA80232802F08081242802F035
:1039B0008E82252802F0A482262802F0F48227288D
:1039C00003F0DB82282803F0528303F064BB10F07D
:1039D000C8F8DFF8801712F0D9FB10F0C2F8DFF852
:1039E000D41912F09AFADFF86C1712F0CFFB10F02E
:1039F000B8F8DFF8F01D12F090FADFF8581712F05F
:103A0000C5FB10F0AEF8DFF8AC1912F086FADFF85B
:103A1000441712F0BBFB15F1B40010F012F941F29B
:103A2000B860284480ED000B15F1BC0010F009F9D6
:103A300041F2B060284480ED000B002041F2A86103
:103A4000685415F5FE700FF002FB0A900AA80EF0FC
:103A500025FF41F2F8622A44C2E9000115F56B70B6
:103A60000FF0F5FA099009A80EF018FF15F5B852F5
:103A7000C2E9000141F2F8602844D0E9002341F294
:103A80002820284407F02AFD15F501700FF0DFFA11
:103A9000089008A80EF002FF41F2F0622A44C2E941
:103AA000000141F2F0602844D0E9002315F5AA5046
:103AB00007F0CDF941F2F0602844D0E9002341F24B
:103AC000A850284407F0C3F941F2F0602844D0E937
:103AD000002341F21060284407F010F915F5157025
:103AE0000FF036FB002801D0012000E0002041F259
:103AF0005171685441F25170295C05F6985010F0EC
:103B000027F941F2F06005EB000141F6C8102844A6
:103B10000EF052FF15F5D0700FF00AFBC0B241F263
:103B20007861685015F5657010F0DFF841F27C613E
:103B3000685015F5677010F0D8F841F638016850F4
:103B400015F5697010F0D1F841F63C01685015F593
:103B5000657010F0CAF841F27C61695881420FD05B
:103B600041F27C6005EB000115F5657010F006F977
:103B700041F27C6005EB000105F6F45010F0FEF810
:103B800015F51E700FF0E4FA002801D0012000E0C6
:103B9000002015F5C151087041F24470284413F01B
:103BA0009DFC41F21070284413F0B3FC41F21C70EC
:103BB000284413F0AEFC15F11C000FF0B9FA15F50E
:103BC000BA51087015F5BA50007802282BDB15F5AC
:103BD000BA5115F1A00010F027F80FF0C2FFDFF87E
:103BE000D41712F09AF9DFF86C1512F0CFFA0FF033
:103BF000B8FFDFF8F81B12F090F90FF0B2FF15F5DF
:103C0000BA51097813F0A0FCDFF8481512F0BEFA9B
:103C10000FF0A7FFDFF89C1712F07FF9DFF83415DB
:103C200012F0B4FA08E001208DF801000DF1010155
:103C300015F1A0000FF0F8FF15F160000FF088FA01
:103C4000002801D0012000E0002041F250716854AA
:103C500015F5C95141F2C820284408F075FC0FF051
:103C600080FFDFF88C1B12F058F9DFF8E81412F02F
:103C70008DFA15F507700FF0EAF941F208716850F6
:103C80004FF47A70079007A80EF008FECDE93A01CC
:103C90003AA941F2787028440EF08EFE002041F2DD
:103CA00090716850002041F2987168500020059092
:103CB00005A915F50F7010F03EF815F5BD5006F08A
:103CC0001DFA41F20870295815F5BD5006F07EFA2C
:103CD00015F5C6700FF03CFA002801D0012000E075
:103CE000002041F2D071685441F6100028440022AF
:103CF0000023C0E9002341F61800284400220023D5
:103D0000C0E9002341F64400284413F090FC002051
:103D100041F634016850002015F5C351087015F5BF
:103D20006D700FF08EFF41F66800284480ED000BA7
:103D300015F56F700FF085FF41F67000284480ED97
:103D4000000B002115F5CF5008F0EAFF15F5737050
:103D50000FF077FFB0EE408AF0EE608ADFF8900D4A
:103D6000D0E9000113F07EFC53EC182B0EF04AFF53
:103D700006000F00DFF87C0DD0E9000113F072FCA3
:103D800002000B00300039000FF026F813F096FC0B
:103D900002000B0015F5CF5008F0E3FF012141F6BA
:103DA0005830284413F0B8FC15F52D700FF0C0F909
:103DB0000100C9B2280006F07FF941F2746168542D
:103DC000012042F25811685442F25810295C15F54E
:103DD000BD5006F04DFA012041F26A61685403F0CB
:103DE0005AB900BFF45A0508280013F031FAC0B2DE
:103DF000002818D041F25070285C00280FD0002114
:103E000041F21060284406F067FF41F6383028443C
:103E100090ED000B41F2C820284408F035FF022045
:103E200041F26A61685403F036B9280013F010FAC1
:103E3000C0B2002831D0012041F2B871685415F5A4
:103E4000BE500EF0FFFD41F2A860285C002802D0B1
:103E5000012810D01DE00FF084FEDFF8181E12F0CC
:103E60005CF8BC4912F092F9012141F2A8502844B3
:103E700006F0D5FF0DE00FF074FEDFF8FC1D12F028
:103E80004CF8B44912F082F9012115F5AA5006F058
:103E9000C6FF032041F26A61685403F0FCB82800B1
:103EA00013F0D6F9C0B200282ED041F6C81028442D
:103EB0000EF08AFD15F501700FF0C9F800EE100A3A
:103EC000B8EE400A10EE100A13F02CFCDFF8AC2D0F
:103ED000DFF8AC3D0EF096FE13F048FC08EE100A39
:103EE0000FF03FFEDFF89C1D12F017F8B0EE480A05
:103EF00013F070FC95A112F010F8964912F046F9F3
:103F0000042041F26A61685403F0C5B841F6C81054
:103F100028440EF064FDC0B2002803D0052041F211
:103F20006A61685403F0B7B841F2C820284412F01F
:103F3000BDFD012852D141F24470284413F0AFFC7A
:103F4000002847D141F2A860285C002842D1002017
:103F500041F2B871685441F2787028440EF034FD93
:103F600041F20870285841F20C7168500FF0F9FDC9
:103F7000784912F00BF9DFF8301411F0CEFF04008D
:103F800015F507700FF063F80100200012F0A0F89B
:103F90000FF0E7FD6DA111F0C0FF6E4912F0F6F8C9
:103FA00041F2C820284412F0D6FF41F228202844CC
:103FB00013F084FC022042F25811685442F2581067
:103FC000295C15F5BD5006F053F9062041F26A61EF
:103FD000685403E00A2041F26A61685403F05BB858
:103FE00041F2787028440EF0FAFCC0B200280DD1DE
:103FF00041F2C820284412F059FD012804D141F2B1
:10400000C820284407F034FC03F045B841F20C7096
:10401000285800282CD041F2787028440EF0D4FCA7
:1040200041F20C702858401E41F20C7168500FF09C
:1040300098FDDAA111F071FFDFF84C1C12F0A6F820
:1040400041F20C7028583C21B0FBF1F201FB120048
:10405000002804D10FF085FD3E4912F097F841F297
:104060000C7005EB000115F507700FF064FECBE74F
:104070000FF077FD374912F089F841F2087005EB2F
:10408000000115F507700FF056FE032042F258119B
:10409000685442F25810295C15F5BD5006F0E8F856
:1040A000072041F26A616854AEE741F2C820284413
:1040B00012F0FCFC012821D1012041F2B8716854B2
:1040C00015F5BE500EF0BEFC15F521700FF040F84E
:1040D000002805D141F2C820284412F03CFF04E03A
:1040E00041F2C820284412F03EFF41F22820284423
:1040F00013F0E4FB0A2041F26A61685402F0CBBF7E
:1041000041F2C820284412F0D1FC01281AD141F60E
:10411000B00005EB000141F2C820284408F014FA71
:104120000FF01FFDDFF8641B11F0F7FE094912F0D4
:104130002DF841F2C820284407F09AFB092041F2EB
:104140006A61685402F0A7BF146505082063000087
:10415000005B0508650705088017050841F2C820BF
:10416000284412F0A3FC012835D141F2F87028440C
:1041700090ED000B280004F036FD15F5C05080EDE1
:10418000000B0FF0EEFCDFF8081B11F0C6FE15F572
:10419000C05191ED000B13F07EF80FF0E2FC83A10B
:1041A00011F0BBFEDFF8EC1A11F0F0FF15F5C95164
:1041B00041F2C820284408F0C7F90FF0D2FCDFF81C
:1041C000301611F0AAFEDFF8CC1A11F0DFFF0B2039
:1041D00041F26A61685402F05EBF41F2C82028448F
:1041E00012F064FC012814D115F5C95141F2C82020
:1041F000284408F0A9F90FF0B4FCDFF8F41511F029
:104200008CFEDFF8901A11F0C1FF0B2041F26A61B9
:10421000685402F040BF41F22820284407F0A6F974
:10422000C0B2002838D015F5B45041F29861294445
:1042300091ED000B80ED000B41F29860284490ED69
:10424000000B41F22820284407F042F841F2886030
:10425000284415F5B55191ED000B80ED000B0020C1
:1042600041F26C616850142041F27061685041F66F
:104270002800284400220023C0E9002341F228201E
:10428000284406F039FF41F65000284413F041F964
:104290000C2041F26A61685402F0FDBE41F2282010
:1042A000284407F063F9C0B200280ED0012115F5AB
:1042B000CF5008F035FD002141F65830284413F066
:1042C0002BFA0D2041F26A61685402F0E4BE41F21B
:1042D000C820284412F0EAFB012808D115F5CF5078
:1042E00008F07EFDC0B2012801D1012000E00020CD
:1042F000C0B2002808D041F2C820284407F0B8FA1C
:104300000E2041F26A61685402F0C5BE41F2C82035
:10431000284412F0CBFB012840F0F6810DF59561A1
:1043200041F2C820284408F094FC4DF804CD0DF566
:10433000806C9CED2B8B5DF804CB002115F5CF50E4
:1043400008F0EEFC012141F65830284413F0E4F95E
:1043500041F2C820284413F0B5FA51EC180B31F0A3
:10436000004141EC190B53EC102BDFF82C09DFF85E
:104370002C190EF047FC02000B0051EC190B12F047
:1043800041FF1BD241F26C602858002816D041F240
:104390007460285C032811D0012010E02E0000007A
:1043A0007C5305081C4005081C65050820B0430027
:1043B0000000F03F14170508A41705080020C0B23C
:1043C000002800F09D8151EC180B31F0004141ECC8
:1043D000100B41F610002844D0E9000153EC102BDB
:1043E00012F010FF19D251EC180B31F0004141ECE2
:1043F000100B41F61000284480ED000B15F5B45069
:1044000090ED000B51EC100B31F0004141EC100B22
:1044100041F61800284480ED000B41F22820284482
:1044200007F050F80FF076FCCDE9D2018DEDD48B7A
:104430004DF804CD0DF5806C9CED2D0B5DF804CB93
:104440008DEDD60B8DEDD88BD2A941F650002844C6
:1044500013F03BFA41F65000284413F0B7FA41F646
:104460005C0169588842C0F0468141F65C002B58D7
:10447000002241F6500005EB0001280002F03AFF4F
:1044800053EC102B0020DFF8C01D12F06BFF41EC45
:10449000100B13F0ABFA41F29060284480ED000B52
:1044A00041F65000284413F091FA02284FD341F608
:1044B0005C002958491E41F65000284413F0CAFAFE
:1044C000040041F65C002958891E41F6500028443A
:1044D00013F0C0FA0200D4E90001D2E9002312F07F
:1044E0007BFD41EC100B53EC102B002000210EF053
:1044F00063FC2CD041F65C002958491E41F650005F
:10450000284413F0A7FA040041F65C002958891EDC
:1045100041F65000284413F09DFA0200D4E902014C
:10452000D2E9022312F058FD15F5B452D2E9002366
:104530000EF052FC41EC100B51EC100B31F000412D
:1045400041EC100B41F62800284480ED000B0FF0E1
:1045500008FB0400022116A80FF04FFBDDE916014D
:10456000CDE9740174A920000FF04EFB41F26C619B
:104570006958491C11F0ACFD9BA111F0CEFC0FF065
:10458000F0FA0400082116A80FF037FBDDE9160148
:10459000CDE9720172A920000FF036FB15F5B45178
:1045A00091ED000B12F077FE8FA111F0B6FC0FF029
:1045B000D8FA0400082116A80FF01FFBDDE9160148
:1045C000CDE9700170A920000FF01EFB41F2886157
:1045D000294491ED000B12F05EFE83A111F09DFCC9
:1045E0000FF0BFFA04000C2116A80FF006FBDDE95E
:1045F0001601CDE96E016EA920000FF005FBB0EEAB
:10460000480AF0EE680A12F046FE77A111F085FC28
:104610000DF58063D3E92C230020DFF8A41E0EF0F3
:10462000F1FA41EC100B51EC100B31F0004141EC70
:10463000180B0FF096FA0400082116A80FF0DDFA07
:10464000DDE91601CDE96C016CA920000FF0DCFA60
:10465000B0EE480AF0EE680A12F01DFEDFF8641EA4
:1046600011F05BFC0FF07DFADDF8D01411F030FD95
:10467000DFF8201611F08AFD0FF073FADFF8CC1B7B
:1046800011F04BFC0400082116A80FF0B6FADDE982
:104690001601CDE96A016AA920000FF0B5FA41F2CE
:1046A0009061294491ED000B12F0F5FD0FF059FADD
:1046B000DFF8E01511F06AFDDDE9D20100220023E8
:1046C00013F0D2F904D8012015F5C351087003E0A6
:1046D000002015F5C351087041F27460285C02286F
:1046E00004D1152041F26A6168540DE01B2041F2AB
:1046F0006A61685408E0102041F26A61685403E07E
:10470000102041F26A61685402F0C5BC0DF58E615B
:1047100041F2C820284408F09CFA4DF804CD0DF56C
:10472000806C9CED1D9B5DF804CB41F26C602858B9
:10473000002840F0CB8041F2D070285C002800F0C7
:10474000C58041F2C820284413F0BCF851EC190B85
:1047500031F0004141EC180B53EC102BDFF8F40A58
:10476000DFF8F41A0EF04EFA02000B0051EC180BB1
:1047700012F048FD80F0AA8014269FEDE48B3400EF
:10478000002E00D564429FEDDFAB07E051EC180B23
:1047900053EC182B0EF036FA41EC180BE00707D556
:1047A00051EC1A0B53EC182B0EF02CFA41EC1A0BAF
:1047B0006408002CEAD1002E1CD553EC1A2B0020E3
:1047C00000210EF0F9FA02D19FEDCBAB12E00020F0
:1047D000DFF8881A53EC1A2B0EF0FEFA41EC1A0B94
:1047E00008E000BFC8170508203A2000304005083F
:1047F0009C0E050851EC190B31F0004141EC180BEF
:1048000051EC1A0B0022DFF8583A0EF0E5FA53EC9F
:10481000182B0EF0F7F941EC100B13F043F953ECA1
:10482000102B0020DFF83C1A12F09CFD41EC100B1D
:1048300013F0DCF8B0EE408AF0EE608A51EC180B11
:1048400013F03EF941F270616958081A401E41F2B6
:104850006C616850B0EE481AF0EE681A9FEDAB0B31
:1048600013F026F951EC100B13F02AF9060034006E
:1048700051EC190B0022002313F0F6F800D2764217
:1048800030000FF047FA15F5B452C2E900012000DC
:104890000FF040FA41F288622A44C2E900010FF0A9
:1048A00060F9DFF8C41911F038FB0FF05AF9310044
:1048B00012F04AFE0FF055F991A111F02EFB2100E4
:1048C00012F042FEDFF8CC1311F060FC41F26C6094
:1048D000285841F270616958884280F01B8141F28A
:1048E0006C602858401C41F26C6168500FF039F937
:1048F0000400022116A80FF080F9DDE91601CDE9C8
:10490000680168A920000FF07FF941F26C616958D5
:1049100011F0DEFBD6A111F000FB0FF022F904002C
:10492000082116A80FF069F9DDE91601CDE9660145
:1049300066A920000FF068F915F5B45191ED000B50
:1049400012F0A9FCCAA111F0E8FA0FF00AF904006C
:10495000082116A80FF051F9DDE91601CDE964012F
:1049600064A920000FF050F941F28861294491EDCB
:10497000000B12F090FCBEA111F0CFFA0FF0F1F88D
:1049800004000C2116A80FF038F9DDE91601CDE975
:10499000620162A920000FF037F9B0EE490AF0EE8B
:1049A000690A12F078FCB2A111F0B7FA0DF5806334
:1049B000D3E91E230020DFF8081B0EF023F941EC99
:1049C000100B51EC100B31F0004141EC180B0FF0C3
:1049D000C8F80400082116A80FF00FF9DDE9160148
:1049E000CDE9600160A920000FF00EF9B0EE480A91
:1049F000F0EE680A12F04FFCDFF8C81A11F08DFAD9
:104A00000FF0AFF8DDF8981411F062FBA14911F036
:104A1000BDFB41F628002844D0E900010022002314
:104A200013F022F825D251EC190B31F0004141EC82
:104A3000180B41F628002844D0E900230020DFF8B5
:104A400008180EF0DFF802000B0051EC180B12F002
:104A5000D9FB0ED241F27460285C022804D11520E3
:104A600041F26A61685477E01B2041F26A61685440
:104A700072E051EC190B0022002312F0F5FF0FD267
:104A800015F5B450D0E9002341F288602844D0E9FC
:104A9000000112F067FC15F5B452C2E900010EE006
:104AA00015F5B450D0E9000141F288622A44D2E9F8
:104AB000002312F091FA15F5B452C2E9000141F257
:104AC00088602844D0E900230020DFF87C170EF02E
:104AD00099F841EC100B12F089FF41F288602844EC
:104AE00080ED000B112041F26A61685434E000BF90
:104AF0001091002000000020000000000000F07F66
:104B000020000000000000000000F03F0000000056
:104B10000000004041F22820284406F0D3FC0FF0AA
:104B2000F9F841F290622A44C2E9000141F274604E
:104B3000285C022802D0032805D009E0152041F2A4
:104B40006A61685408E0142041F26A61685403E025
:104B50001B2041F26A61685402F09DBA41F228209C
:104B6000284406F003FDC0B200280CD015F5B4505F
:104B700090ED000B41F22820284406F0A9FB1220FA
:104B800041F26A61685402F086BA41F22820284452
:104B900006F0ECFCC0B200280ED0012115F5CF5074
:104BA00008F0BEF8002141F65830284412F0B4FD58
:104BB000132041F26A61685402F06DBA15F5CF50C6
:104BC00008F00EF9C0B2012803D10D2041F26A614C
:104BD000685402F060BA0EF0C4FFDFF84C1D11F00B
:104BE0009CF92C4911F0D2FA0EF0BBFFDFF83C1D06
:104BF00011F093F941F29061294491ED000B12F00C
:104C00004AFB244911F0C2FA41F2A860285C8DF8F1
:104C1000000241F29060284490ED000B8DED820B74
:104C20009DED820B8DED840B80A941F64400284454
:104C300012F05AFF41F634002858401C41F6340166
:104C4000685041F2A860285C002829D115F5B750BA
:104C50009DED840B80ED000B41F2E860284441F2A9
:104C60009061294491ED000B80ED000B29E000BF1D
:104C7000203A2000EC17050810180508FCA9F1D20D
:104C80004D62503F0C5B0508235A0508C40E050809
:104C90008C53050865070508AE47E17A14AEEF3F6F
:104CA00041F2D06028449DED840B80ED000B41F271
:104CB000D860284441F29061294491ED000B80EDC9
:104CC000000B41F25070285C00280FD1012141F205
:104CD0001060284406F000F841F63030284490ED8A
:104CE000000B41F2C820284407F0CEFF41F2F860E3
:104CF0002844D0E9002341F22820284406F0EEFBA6
:104D0000242041F26A61685402F0C5B915F5B45027
:104D1000D0E9000141F290622A44D2E9002312F066
:104D20005BF95FF03332DFF8083C0DF06BFF41ECCC
:104D3000100B12F05DFF51EC100B31F0004141EC13
:104D4000100B41F22870284480ED000B41F228201E
:104D5000284412F081FFB0EE408AF0EE608A41F202
:104D600090602844D0E9002341F228702844D0E91B
:104D7000000112F0F7FA02000B0051EC180B12F0D0
:104D800041FAC0F0408141F22820284412F0B6FFD9
:104D9000B0EE408AF0EE608A41F290602844D0E99B
:104DA000000141F228722A44D2E9002312F014F9DA
:104DB00053EC182B12F026FA12D241F22820284484
:104DC00012F09CFF41F290602844D0E9000153ECBE
:104DD000102B12F001F941F228722A44C2E90001B5
:104DE00015F5B450D0E9000141F290622A44D2E9AD
:104DF000002312F0F1F8DFF8782EDFF8783E0DF09E
:104E000001FF41EC100B12F0F3FE51EC100B31F0EE
:104E1000004141EC100B41F23070284480ED000B52
:104E200041F22820284412F017FFB0EE408AF0EE3D
:104E3000608A41F290602844D0E9002341F230704A
:104E40002844D0E9000112F08DFA02000B0051EC69
:104E5000180B12F0D7F9C0F0EA8041F2282028445C
:104E600012F04CFFB0EE408AF0EE608A41F29060A2
:104E70002844D0E9000141F230722A44D2E90023EB
:104E800012F0AAF853EC182B12F0BCF912D241F22E
:104E90002820284412F032FF41F290602844D0E9E3
:104EA000000153EC102B12F097F841F230722A44B3
:104EB000C2E9000115F5B450D0E9000141F2906259
:104EC0002A44D2E9002312F087F8E24AE24B0DF0BF
:104ED00099FE41EC100B12F08BFE51EC100B31F0EF
:104EE000004141EC100B41F23870284480ED000B7A
:104EF00041F22820284412F0AFFEB0EE408AF0EED6
:104F0000608A41F290602844D0E9002341F2387071
:104F10002844D0E9000112F025FA02000B0051EC00
:104F2000180B12F06FF9C0F0968041F22820284447
:104F300012F0E4FEB0EE408AF0EE608A41F290603A
:104F40002844D0E9000141F238722A44D2E9002312
:104F500012F042F853EC182B12F054F912D241F22D
:104F60002820284412F0CAFE41F290602844D0E97B
:104F7000000153EC102B12F02FF841F238722A4442
:104F8000C2E900010EF0EDFDDFF8C41C10F0C5FF12
:104F9000DFF8C01C11F0FAF841F21C70284412F03E
:104FA00015FD002802D0022869D0B2E041F29060DD
:104FB0002844D0E9002341F230702844D0E90001B0
:104FC00012F0D0F915F5B452C2E900010EF0C9FD96
:104FD000DFF8841C10F0A1FF41F23071294491EDFB
:104FE000000B12F058F9DFF86C1C11F0CFF8042018
:104FF00042F25811685442F25810295C15F5BD5020
:1050000005F036F9A6E041F22820284412F024FEEB
:1050100051EC100B41F290622A44D2E9002311F0C6
:10502000DBFF41F228722A44C2E90001D8E641F2CE
:105030002820284412F010FE51EC100B41F290622F
:105040002A44D2E9002311F0C7FF41F230722A440A
:10505000C2E900012EE741F22820284412F0FCFDAD
:1050600051EC100B41F290622A44D2E9002311F076
:10507000B3FF41F238722A44C2E9000182E741F2EB
:1050800090602844D0E9000115F5B452D2E900231C
:1050900012F0B8F810D241F290602844D0E9002311
:1050A00041F238702844D0E9000112F05BF915F59F
:1050B000B452C2E900010FE041F290602844D0E907
:1050C000000141F238722A44D2E9002311F084FF32
:1050D00015F5B452C2E900010EF043FDDFF8781B6C
:1050E00010F01BFF41F23871294491ED000B12F0D2
:1050F000D2F8DFF8601B11F049F8062042F258118F
:10510000685442F25810295C15F5BD5005F0B0F80E
:1051100020E041F290602844D0E9002341F2287059
:105120002844D0E9000112F01DF915F5B452C2E986
:1051300000010EF016FDDFF8201B10F0EEFE41F22C
:105140002871294491ED000B12F0A5F8DFF8041B3B
:1051500011F01CF841F21C70284412F037FC41F6A3
:10516000581005EB000141F2C820284407F0ECF983
:105170000EF0F7FCDFF8EC1A10F0CFFEDFF8D41ACF
:1051800011F004F815F5B850D0E9002341F22820B9
:10519000284406F0A3F9002041F26C616850022017
:1051A00041F278616850162041F26A61685401F05A
:1051B00072BF41F22820284406F0D8F9C0B2002876
:1051C00040D015F5B45090ED000B41F22820284452
:1051D00006F07EF80EF0C5FC0400022116A80EF0C1
:1051E0000CFDDDE91601CDE9780178A920000EF06B
:1051F0000BFD41F26C616958491C10F069FF14A164
:1052000010F08BFE0EF0ADFC0400082116A80EF085
:10521000F4FCDDE91601CDE9760176A920000EF057
:10522000F3FC15F5B45191ED000B12F034F808A120
:1052300010F073FEDFF8F81D10F0A8FF172041F200
:105240006A61685401F027BF0000E03F2C65050843
:10525000203A2000CDCCCCCCCCCCEC3F0000F03FB1
:10526000000028400000F0BF185B050841F228202C
:10527000284406F07BF9C0B200280FD041F2C820C4
:10528000284411F013FC012808D141F2C820284419
:1052900006F0EEFA182041F26A61685401F0FBBE94
:1052A00041F2C820284411F001FC012859D1C4A9B9
:1052B00041F2C820284407F0CCFC9DEDD09B9DED29
:1052C000C48B41F22820284406F0FCF80EF022FDA1
:1052D000CDE9BA018DEDBC9B9DEDC60B8DEDBE0BEE
:1052E0008DEDC09BCE98C290BAA941F21C702844A3
:1052F00012F0EBFA0EF035FC04000C2116A80EF0AB
:105300007CFCDDE91601CDE95E015EA920000EF00E
:105310007BFCB0EE480AF0EE680A11F0BCFFDFF843
:10532000141D10F0FAFD0EF01CFC0400DDE9BE2394
:10533000002063490DF066FC41EC100B200011F0D9
:10534000AAFF604910F0E9FD0EF00BFCCE9910F0B9
:10535000BFFEDFF8001910F019FF192041F26A6151
:10536000685401F098BE41F26C60285841F27861AF
:105370006958491E884264D241F26C602858401C2A
:1053800041F26C61685041F21C70284412F01EFB1F
:10539000012802D0032811D03EE041F29060284459
:1053A000D0E9000141F230722A44D2E9002311F021
:1053B00013FE15F5B452C2E900013DE041F29060E0
:1053C0002844D0E9000115F5B452D2E9002311F0C8
:1053D00019FF10D241F290602844D0E9000141F257
:1053E00038722A44D2E9002311F0F6FD15F5B452C3
:1053F000C2E900010FE041F290602844D0E90023A7
:1054000041F238702844D0E9000111F0ABFF15F5E6
:10541000B452C2E900010FE041F290602844D0E9A3
:10542000000141F228722A44D2E9002311F0D4FD90
:1054300015F5B452C2E90001162041F26A616854C0
:1054400003E01A2041F26A61685401F024BE41F27F
:10545000A860285C8DF8E80141F29060284490ED46
:10546000000B8DED7C0B002241F2A860285C012826
:1054700000D1012241F21C7005EB0001280001F06F
:10548000EDFF8DED7E0B7AA941F64400284412F021
:105490002BFB41F634002858401C41F6340168507B
:1054A0000EF05FFBDFF8F01D10F037FDDFF8A417FA
:1054B00010F06CFE0EF055FBDFF8781E04E000BF24
:1054C00080842E412465050810F027FD0EF049FB6D
:1054D0009DED7E0B11F0DFFEDFF8781710F056FE21
:1054E00041F2A860285C002810D115F5B7509DED59
:1054F0007E0B80ED000B41F2E860284441F29061A0
:10550000294491ED000B80ED000B10E041F2D060DA
:1055100028449DED7E0B80ED000B41F2D8602844BD
:1055200041F29061294491ED000B80ED000B41F2B6
:105530005070285C00280FD1012141F210602844EE
:1055400005F0CAFB41F63030284490ED000B41F2E3
:10555000C820284407F098FB41F2F8602844D0E9BD
:10556000002341F22820284405F0B8FF242041F20E
:105570006A61685401F08FBD0EF0F3FADFF8681D20
:1055800010F0CBFCDFF8CC1610F000FE41F2786092
:105590002858022846D20EF0E4FADFF8501D10F029
:1055A000BCFCDFF8B01610F0F1FD41F29060284429
:1055B00090ED000B8DEDB00B41F2F870284490EDAA
:1055C000000B8DEDB20B00200021CDE9B40141F2BA
:1055D000F870284490ED000B8DEDB60BB0A941F2A8
:1055E0001070284412F071F941F2A860285C00287C
:1055F00009D115F5B75041F29061294491ED000BA6
:1056000080ED000B09E041F2D060284441F2906146
:10561000294491ED000B80ED000B242041F26A61DA
:1056200068543BE115F5C1500078002860D041F284
:105630009060284490ED000B51EC100B31F00041CC
:1056400041EC100B41F618002844D0E9000153EC5E
:10565000102B11F0C1FC41EC100B51EC100B31F090
:10566000004141EC180B41F668002844D0E90023C2
:1056700000205FF080410DF0C5FA53EC182B0DF0BF
:10568000C1FA0EF0C5FB0400600041F27861695870
:10569000B0FBF1F041F27C6168500EF062FADFF885
:1056A000501C10F03AFC0EF05CFA210011F04CFF97
:1056B000DFF8A01510F06AFD0EF053FADFF8341C85
:1056C00010F02BFC0EF04DFA040041F610002844B7
:1056D000D0E9002300205FF080410DF093FA41EC07
:1056E000100B200011F0D7FDDFF8681510F04EFD0B
:1056F0000EF037FADFF8001C10F00FFC0EF031FA54
:1057000041F27861695810F0E3FCDFF8481510F0B9
:105710003DFD0EF026FADFF8E41B10F0FEFB0EF064
:1057200020FA41F27C61695811F00EFFDFF8241570
:1057300010F02CFD002441F22820284412F08CFAAD
:10574000B0EE408AF0EE608A41F22820284412F040
:10575000D5FAB0EE409AF0EE609A41F27C6028589B
:105760000EF0D8FA02000B0016001F0051EC180BC7
:1057700053EC192B11F030FC32003B0011F042FDCC
:1057800000D2012441F22820284412F065FA51EC9D
:10579000100B41F290622A44D2E9002311F032FD4D
:1057A0000ED341F22820284412F0A8FA41F290606A
:1057B0002844D0E9000153EC102B11F023FD01D255
:1057C000012000E00020C0B2002800D00124E4B293
:1057D000002C45D00EF0C5F9DFF8241B10F09DFB1E
:1057E000DFF8701410F0D2FC002041F29071685084
:1057F00041F2907005EB000115F50B700EF09BFA6D
:1058000041F61000284400220023C0E9002341F69D
:105810001800284400220023C0E9002341F2107040
:10582000284411F076FE41F64400284411F0FFFEB2
:10583000002041F634016850002041F2A86168540C
:10584000002115F5AA5005F0EAFA002141F2A8500E
:10585000284405F0E4FA012041F26A6168541DE031
:10586000002041F630016850002015F5C251086053
:1058700015F5B45041F29061294491ED000B80ED93
:10588000000B15F5B850D0E9002341F22820284438
:1058900005F024FE1C2041F26A61685401F0FBBB54
:1058A000002041F26C61685041F278602858401E37
:1058B000400841F27C61695848430EF02BFA41ECF4
:1058C000180B41F27860285CC0071AD441F27C6062
:1058D0002858022190FBF1F00EF01CFA41EC190B54
:1058E00053EC192B002000210DF066FA01D19FED39
:1058F000DE9B53EC182B51EC190B11F033FD41ECEE
:10590000180B15F5C3500078012813D115F5B450C4
:10591000D0E9002351EC180B11F024FD15F5B45219
:10592000C2E9000112E000BFB423050808350508EC
:105930003333EB3F15F5B450D0E9000153EC182B8D
:1059400011F04AFB15F5B452C2E900010EF009F955
:10595000DFF8B01910F0E1FA0EF003F941F630016A
:105960006958491C10F0B4FB0EF0FBF8DFF89819E9
:1059700010F0D3FAB74910F009FC0EF0F2F8DFF896
:105980008C1910F0CAFA0EF0ECF841F27C616958FB
:1059900011F0DAFDAF4910F0F9FB0EF0E2F8DFF894
:1059A000701910F0BAFA0EF0DCF841F29061294457
:1059B00091ED000B11F06FFCA64910F0E7FB0EF023
:1059C000D0F8DFF8501910F0A8FA15F5B45191EDA0
:1059D000000B11F060FC9F4910F0D8FB0EF0C1F8ED
:1059E000DFF8B41810F099FA9A4910F0CFFB1D2097
:1059F00041F26A61685401F04EBB41F25070285C7C
:105A0000002817D141F21060284405F075F9C0B2A2
:105A100001280FD1002141F21060284405F05CF903
:105A200041F63830284490ED000B41F2C82028445C
:105A300007F02AF91E2041F26A61685401F02BBB7D
:105A400041F21060284405F057F9C0B2012803D193
:105A50001F2041F26A61685401F01DBB41F2282009
:105A6000284405F083FDC0B200280DD141F2C820C2
:105A7000284411F01BF8012804D141F2C820284421
:105A800005F0F6FE01F007BB15F5B45090ED000BE4
:105A900041F22820284405F01BFC202041F26A61D5
:105AA0006854EFE741F22820284405F05FFDC0B2BA
:105AB00000280ED0012115F5CF5007F031F9002153
:105AC00041F65830284411F027FE212041F26A6146
:105AD000685401F0E0BA15F5CF5007F081F9C0B273
