:020000040800F2
:1000000080CB002091E60608A96B0208B96B0208B4
:10001000C96B0208D96B0208E96B020800000000F6
:10002000000000000000000000000000F96B020862
:10003000096C020800000000196C0208296C020813
:10004000A56F0208A56F0208A56F0208A56F020838
:10005000A56F0208A56F0208396C0208A56F020897
:10006000A56F0208556C0208A56F0208A56F02086B
:10007000A56F0208A56F0208A56F0208A56F020808
:10008000A56F0208A56F0208A56F0208A56F0208F8
:10009000A56F0208A56F0208A56F0208716C02081F
:1000A000A56F0208056D0208A56F0208A56F02087A
:1000B000A56F0208456D0208A56F0208A56F02082A
:1000C000A56F0208A56F0208A56F0208A56F0208B8
:1000D000A56F0208C56E0208D56E0208E56E02081B
:1000E000556D0208A56F0208A56F0208FF6D020892
:1000F000316E0208A56F0208656E0208A56F02083E
:10010000A56F0208F56E0208A56F0208A56F020828
:10011000056F0208156F0208A56F0208A56F020897
:10012000256F0208356F0208456F0208556F0208F7
:10013000A56F0208A56F0208A56F0208A56F020847
:10014000A56F0208A56F0208A56F0208756F020867
:10015000A56F0208656F0208A56F0208856F020887
:10016000A56F0208A56F0208A56F0208A56F020817
:10017000A56F0208956F0208A56F0208A56F020817
:10018000A56F020880B516480078002806D1002126
:10019000144811F071FD01201149087012480078CF
:1001A000002806D10021114811F066FD01200E49FA
:1001B00008700F480078002806D100210D4811F082
:1001C0005BFD01200A4908700B480078002806D121
:1001D00000210A4811F050FD01200749087001BDB7
:1001E000F79A0020B09A0020F89A0020B89A0020D0
:1001F000F99A0020B49A0020FA9A0020AC9A0020C4
:100200002DE9F8432DED048BEAB0040089469046B1
:10021000C4F80090002300220021201D11F02EFDC3
:10022000C4F8F089206810F5A47104F6F81012F0F3
:10023000CFFF206810F590700090206810F588734B
:10024000206810F58072012114F5246017F00DF973
:1002500004F6882017F086FB04F6C82017F0A4FCEB
:1002600004F6E42017F0C6FC14F52F6017F0C2FC6A
:1002700004F6FC2017F0BEFC04F6083017F0C4FCAE
:10028000002104F6983017F05BFD04F69C3017F05F
:10029000D0FD002204F6A831201D17F0BBFE800817
:1002A0000200206810F1980104F6A83018F0E1FE71
:1002B0000120269026A819F01DFACDE9040140205E
:1002C000029000200190012000904FF4805320689C
:1002D00010F1D002206810F54C7114F547601AF047
:1002E0006CFE0023002214F5476114F55D601AF0DE
:1002F000BDFE14F55D6214F5476114F59F500BF0D7
:1003000089F900200290206810F5EA7001902068B9
:1003100010F5E2700090206810F5DA73206810F58F
:10032000D272206810F5417141F2E83020441BF090
:1003300039FA41F2E83004EB000141F23040204448
:1003400012F02AFC206810F55773206810F5AA7285
:10035000206810F5367141F2D040204412F0F9FFC8
:100360006420259025A81BF083FCCDE92E012EA941
:1003700041F2187020441BF083FD4FF4FA70249072
:1003800024A81BF075FCCDE92C012CA941F22870A2
:1003900020441BF075FD4FF47A70239023A81BF0C6
:1003A00067FCCDE92A012AA941F2387020441BF0EC
:1003B000E3FC002041F250716054DFF80C1C63A88C
:1003C0001BF03EFE6420229022A81BF051FC00226C
:1003D0000492CDE902010020009063AB206810F583
:1003E0000172206810F5057141F25870204412F036
:1003F00068FA63A81BF034FEDFF8D01B5CA81BF082
:100400001FFE6420219021A81BF032FC00220492E0
:10041000CDE90201002000905CAB206810F5097264
:10042000206810F50D7114F5BE5012F04AFA5CA860
:100430001BF016FEDFF8981B55A81BF001FE0123E8
:100440000200206810F5117141F62800204412F0D6
:100450009DF955A81BF004FEDFF8781B4EA81BF091
:10046000EFFD00230200206810F5157114F5C4504B
:1004700012F08CF94EA81BF0F3FDDFF85C1B47A8C7
:100480001BF0DEFD00230200206810F5197141F613
:10049000D800204412F07AF947A81BF0E1FDDFF8FC
:1004A0003C1B40A81BF0CCFD6420209020A81BF032
:1004B000DFFB00220492CDE902010020009040AB56
:1004C000206810F51D72206810F5217141F630107A
:1004D000204412F0F6F940A81BF0C2FDDFF8001B23
:1004E00039A81BF0ADFD64201F901FA81BF0C0FBB6
:1004F00000220492CDE902010020009039AB20686F
:1005000010F52572206810F5297141F698102044E5
:1005100012F0D7F939A81BF0A3FDDFF8C81A32A8EA
:100520001BF08EFD64201E901EA81BF0A1FB002274
:100530000492CDE902010020009032AB206810F552
:100540002D72206810F5317114F5D05012F0B9F900
:1005500032A81BF085FD002041F668216054002080
:1005600041F669216054002041F66A216054002060
:1005700041F66C216050142041F670216050022039
:1005800041F674216054032041F678216050012027
:1005900041F67C21605014F5D45000220023C0E9BC
:1005A000002341F68820204400220023C0E90023D4
:1005B00041F69020204400220023C0E9002341F6A8
:1005C0009820204400220023C0E9002312279FED39
:1005D0001A8B3E00002F00D576429FED199BF00745
:1005E00007D553EC192B51EC180B1BF051FD41ECC6
:1005F000190B7608002E08D053EC182B51EC180B71
:100600001BF046FD41EC180BE9E7002F20D553EC19
:10061000192B002000211BF01DFE02D19FED0A9B2B
:1006200016E00020DFF8F41E53EC192B1BF022FE1D
:1006300041EC190B0CE000BF00000000000000407E
:10064000000000000000F03F000000000000F07F0C
:1006500014F5D55080ED009B41F6A82020440022DF
:100660000023C0E90023002041F6B021605441F688
:10067000B82020440022DFF8A43EC0E9002314F58E
:10068000D6500022DFF8943EC0E9002341F6C8208E
:10069000204400220023C0E9002341F6D02020445A
:1006A00000220023C0E9002341F6D8202044002284
:1006B0000023C0E9002314F5D75000220023C0E92D
:1006C000002341F6E820204400220023C0E9002353
:1006D00041F6F020204400220023C0E900236420DA
:1006E0001D901DA81BF0C4FA41F6F8222244C2E96D
:1006F000000164201C901CA81BF0BAFA14F5D85213
:10070000C2E9000165201B901BA81BF0B1FA41F65D
:1007100008322244C2E90001052041F61031605040
:10072000002041F61431605041F6183020441BF08F
:10073000C4FE41F6243020441BF0BFFE41F63030A9
:10074000204400220023C0E9002341F63830204431
:1007500000220023C0E9002314F5DA500022002310
:10076000C0E90023012041F64831605441F64C3085
:1007700020441BF0AAFE002041F6583160540020AE
:1007800041F65931605414F5DB5000220023C0E9D2
:10079000002341F668302044DFF8842DDFF8843DE3
:1007A000C0E9002341F6703020440022DFF86C3DA0
:1007B000C0E9002341F67830204441F668312144F5
:1007C00091ED000B80ED000B002014F5DC5108705A
:1007D000002041F68131605441F6883020440022E7
:1007E0000023C0E90023002041F69031605400202E
:1007F00019904FF47A701A901AAA19A941F69830F4
:1008000020441BF083FA002041F6B03160500020F4
:1008100041F6B4316050002041F6B83160500020FC
:1008200041F6BC31605014F5DE5010F0D5FD0020CB
:1008300041F6E83160544FF47A70189018A81BF014
:1008400017FACDE9280128A941F6F03020441BF021
:1008500017FB002014F5E051087014F5E150002258
:100860000023C0E9002341F6284020440022002351
:10087000C0E9002341F63040204400220023C0E9B3
:10088000002341F63840204400220023C0E9002321
:1008900014F5E25000220023C0E90023002041F6B5
:1008A0004841605441F65040204400220023C0E9F2
:1008B0000023002041F658416050002041F65C4181
:1008C0006050012014F5E3510860052041F66441B1
:1008D0006050002041F66841605041F66C40204471
:1008E0001BF0FBFD41F6784020441BF0E6FD0220A2
:1008F00041F684416050002041F68841605441F641
:10090000904020440022DFF8143CC0E9002341F667
:10091000984020440022DFF8043CC0E90023002076
:1009200014F5E5510870002041F6A1416054002003
:1009300041F6D8416054002041F610516054002027
:1009400041F611516054002041F648516054002096
:1009500041F6B0516054002041F61861605441F6F0
:10096000F82004EB000141F6686020441BF004FA13
:1009700041F6D86020441BF0B8FD002041F610710C
:10098000605441F61870204400220023C0E900237F
:1009900014F5F95000220023C0E9002341F6287025
:1009A000204400220023C0E9002341F63070204497
:1009B00000220023C0E9002341F6387020440022C1
:1009C0000023C0E9002314F5FB5000220023C0E9F6
:1009D000002341F66870204400220023C0E9002370
:1009E0006420179017A81BF043F941F67072224457
:1009F000C2E9000141F67870204400220023C0E9DA
:100A000000230A2014F5FC51086004F6FC701BF06A
:100A100087FD060004F6FC701BF082FD80B2020028
:100A2000B6B2310014F5FD501BF08BFD14F5FF50EC
:100A300000220023C0E9002341F6E8702044002290
:100A40000023C0E9002341F6F07020440022002377
:100A5000C0E90023642041F6F8716050002042F2A2
:100A600050016054002042F25101605478201690E9
:100A700016A818F03FFE42F258022244C2E90001D3
:100A80004FF41670159015A818F034FE42F260026B
:100A90002244C2E9000142F2600004EB000142F28C
:100AA000680020441BF068F9012014F50251087019
:100AB00042F28800204400220023C0E9002342F2D1
:100AC0009000204400220023C0E90023002042F2CD
:100AD0009801605042F2A0002044DFF84C2ADFF871
:100AE0004C3AC0E9002342F2A80020440022DFF87B
:100AF0002C3AC0E9002342F2B00020440022002337
:100B0000C0E9002342F2B80020440022DFF80C3A8A
:100B1000C0E90023012014F5035108604FF47A70F6
:100B200042F2C401605004F2FC70109041F22420A3
:100B300020440F9004F2F4700E9041F21C202044E7
:100B40000D9004F2EC700C9004F2E4700B9041F202
:100B5000142020440A9004F2DC70099004F2D4704E
:100B6000089004F2CC70079004F2C470069004F26E
:100B7000BC70059004F2B470049004F2AC70039061
:100B800004F2A470029004F29C700190206810F5A9
:100B900084600090206810F58263206810F5806200
:100BA000206810F57C7142F2C800204414F00AFA63
:100BB00042F2084020440022DFF86039C0E90023F7
:100BC00042F210402044DFF86029DFF8D03EC0E94F
:100BD000002342F2184020440022DFF84039C0E9E7
:100BE000002342F22040204400220023C0E90023D9
:100BF00042F2284020440022DFF8A43EC0E900234E
:100C00009FED671B9FEDEE0B04F2AC7142F230409A
:100C1000204414F0F9FE04F674000E9004F6680007
:100C20000D9004F65C000C9004F64C000B9004F65A
:100C300044000A9004F63C00099004F63400089041
:100C400004F62C00079004F62400069004F61C001D
:100C5000059004F61400049004F60C00039004F6CA
:100C60000400029000200190206810F5747000903C
:100C700042F21840204490ED002B42F210402044F4
:100C800090ED001B42F20840204490ED000B4623FB
:100C9000206810F5587242F2304004EB000142F235
:100CA000484020441BF067FC42F2484004EB00013E
:100CB00042F2A840204414F005FF41F28420204471
:100CC000109041F2782020440F9041F26C20204493
:100CD0000E9041F25C2020440D9041F254202044BB
:100CE0000C9041F24C2020440B9041F244202044CF
:100CF0000A9041F23C202044099041F234202044E3
:100D0000089041F22C202044079004F674000690CD
:100D100004F66800059004F65C00049004F63C00BC
:100D2000039004F63400029004F62C00019004F6BF
:100D30002400009004F61C0304F6140204F60401D7
:100D400042F27860204415F09FFA42F2C8602044D5
:100D50000022DFF8C837C0E9002342F2D060204407
:100D6000DFF8C427DFF8343DC0E9002342F2D86041
:100D700020440022DFF8A437C0E9002342F2E060FB
:100D8000204400220023C0E9002342F2E86020440E
:100D90000022DFF80C3DC0E900239FED931B03E028
:100DA00000000000008041409FED850B04F29C7123
:100DB00042F2F060204414F027FE14F50F600E900C
:100DC00004F6E4000D9004F6D8000C9004F6C80078
:100DD0000B9014F50C600A9004F6B800099014F515
:100DE0000B60089004F6A800079014F50A600690BE
:100DF00004F69800059014F50960049004F6880044
:100E0000039014F50860029000200190206810F50E
:100E10007870009042F2D860204490ED002B42F2AE
:100E2000D060204490ED001B42F2C860204490ED59
:100E3000000B4523206810F5667242F2F06004EB67
:100E4000000142F2087020441BF095FB42F208704A
:100E500004EB000142F26870204414F033FE41F2CA
:100E6000E8202044109041F2DC2020440F9041F211
:100E7000D02020440E9014F596500D9041F2B820E9
:100E800020440C9041F2B02020440B9041F2A82065
:100E900020440A9014F59550099041F2982020447E
:100EA000089041F290202044079014F50F600690BE
:100EB00004F6E400059004F6D800049004F6B800A7
:100EC000039014F50B60029004F6A800019014F54D
:100ED0000A60009004F6980314F5096214F508619D
:100EE00042F63810204415F0CFF9002042F6881160
:100EF000605414F55D62211D42F69010204410F0FC
:100F0000D5FB200000F0D4FD200000F0E6FD1BF032
:100F100085FB149004F658701BF086FB8DF850008A
:100F200014F576601BF080FB8DF8510004F66870B4
:100F30001BF07AFB8DF8520014F577601BF074FB00
:100F40008DF853001BF06AFB139004F678701BF0C9
:100F50006BFB8DF84C0014F578601BF065FB8DF889
:100F60004D0004F688701BF05FFB8DF84E0014F501
:100F700079601BF059FB8DF84F001BF04FFB12906E
:100F800004F698701BF050FB8DF8480014F57A6059
:100F90001BF04AFB8DF8490004F6A8701BF044FBD7
:100FA0008DF84A0014F57B601BF03EFB8DF84B007A
:100FB00004F6B8701BF049FB002819D0012518E091
:100FC0000000000000002E4020E9060828E906087D
:100FD00030E9060838E9060840E9060848E9060845
:100FE00050E9060858E90608000000000080464065
:100FF00000252800C0B20090129B139A1499206813
:10100000A0301BF0A6FB206810F1A00111A813F07E
:101010008DFE1CF047F80600082168461CF07CF89D
:10102000DDE90001CDE9300130A930001CF080F885
:1010300014F55D601CF08CF841F64831605441F6BF
:10104000483004EB000114F11C001CF090F804F689
:10105000D8501CF099F814F5D65080ED000B14F51B
:10106000D65114F1B4001CF0B9F814F55E601CF010
:101070008BF841F6B820204480ED000B41F6B820F3
:1010800004EB000114F1BC001CF0A8F804F6487150
:1010900014F1D4001CF0AFF814F5756114F1DC0004
:1010A0001CF0A9F804F6E8501CF052F80100C9B28F
:1010B00041F23040204411F045FF41F230402044DD
:1010C00011F0D0FF8DF801000DF1010114F5CC7085
:1010D0001CF04DF814F55F601CF03AF841F67821E9
:1010E000605041F6782020588DF80000694614F5CC
:1010F000D0701CF03CF804F6F8501CF029F80A9067
:101100000AA81AF0B5FD14F5D852C2E9000104F698
:10111000F85114F5FE701CF081F841F6707020440F
:10112000D0E9002341F23040204411F0A3FF14F530
:1011300073601CF00DF8099009A81AF099FD41F6AA
:1011400008322244C2E9000114F5736114F5787085
:101150001CF064F814F560601BF0FAFF089008A812
:101160001AF086FD41F6F8222244C2E9000114F586
:10117000606114F501701CF051F804F608601CF071
:1011800003F841F68830204480ED000B41F68830AA
:1011900004EB000114F503701CF020F814F56160F5
:1011A0001CF04EF81CF068F841F688322244C2E97F
:1011B000000141F6883004EB000114F503701CF0C7
:1011C0000DF804F618601BF0C3FF41F610316050B3
:1011D00041F6103004EB000114F507701CF05DF8C7
:1011E00020000AF057FC41F6A84004EB000141F250
:1011F000D040204413F04AF904F658601BF090F9EF
:1012000041F61271605241F6127004EB000114F5C0
:101210006A701CF04FF814F566601BF081F941F616
:101220001471605241F6147004EB000114F56C70F7
:101230001CF040F804F6C47114F580601BF0DBFF6D
:1012400004F6C4701BF0A0FF41F61870204480ED36
:10125000000B04F6CC7114F581601BF0CCFF04F692
:10126000CC701BF091FF14F5F95080ED000B04F6E3
:10127000D47114F582601BF0BEFF04F6D4701BF02D
:1012800083FF41F62870204480ED000B04F6DC71EA
:1012900014F583601BF0AFFF04F6DC701BF074FFE5
:1012A00041F63070204480ED000B41F23040204484
:1012B0001CF018F841F69860204480ED000B41F2D4
:1012C000304020441CF05EF814F5F55080ED000B22
:1012D00041F6A860204400220023C0E9002341F623
:1012E000B060204400220023C0E9002341F6B8602A
:1012F000204400220023C0E90023002014F5F65109
:101300000860002041F6C461605041F6C860204486
:1013100000220023C0E9002341F6D0602044824A25
:10132000DFF88037C0E9002304F6E47114F5856026
:101330001BF061FF04F6E4701BF026FF14F5FB5070
:1013400080ED000B04F6EC7114F586601BF053FF82
:1013500004F6EC701BF018FF41F66870204480ED35
:10136000000B14F5FA5014F5FB5191ED000B80EDD4
:10137000000B41F64870204400220023C0E90023FE
:1013800041F65070204400220023C0E900230121CF
:1013900041F2D040204412F0F5F841F66870204444
:1013A000D0E9002351EC100B1AF072FE41F658728E
:1013B0002244C2E9000104F6F47114F589601BF0BF
:1013C0001AFF04F6F4701BF0DFFE41F6787020443B
:1013D00080ED000B04F6FC701BF0A2F880B214F54F
:1013E000FC51086041F68870204400220023C0E9C7
:1013F000002341F69070204400220023C0E900231E
:10140000012141F2D040204412F0BCF841F678703E
:101410002044D0E9002351EC100B1AF039FE41F6BC
:1014200098722244C2E9000104F6FC7114F58E6042
:101430001BF0FCFF41F2140020441BF0A5FE41F616
:10144000E870204480ED000B41F6E870204490EDF8
:10145000000B20000AF062FA14F5FF5080ED000B3B
:1014600041F6E87004EB000114F592601BF0B6FE43
:1014700014F5FF5114F591601BF0B0FE41F21C0011
:1014800020441BF081FE41F6F070204480ED000BFB
:1014900041F6F07004EB000114F593601BF09EFE22
:1014A00041F2040020441BF0BFF8C0B215F027FB46
:1014B00014F50251087041F2040004EB000114F528
:1014C0008F601BF0C6FF04F628601BF05DFE41F63E
:1014D0001840204480ED000B41F6184004EB000159
:1014E00014F55C701BF07AFE14F567601BF04CFE7F
:1014F00041F67030204480ED000B41F6703004EB73
:10150000000114F570701BF069FE14F568601BF0A3
:101510009CF800280CD001200BE000BF0000F03F39
:10152000CDCCCCCCCC60B5409A9999999999D93FBA
:10153000002041F65831605441F65830215C14F1D6
:1015400060001BF099FF04F68C601BF07EF8002809
:1015500001D0012000E0002014F5E051087014F5DE
:10156000E050017814F5C6701BF086FF04F6986011
:101570001BF06BF8002801D0012000E0002041F6AC
:101580005931605441F65930215C14F515701BF047
:1015900073FF41F65930215C41F2587020441BF032
:1015A00081FF41F65930215C14F5BE501BF07AFFE3
:1015B00041F65930215C41F6301020441BF072FF97
:1015C00041F65930215C41F6981020441BF06AFF27
:1015D00041F65930215C14F5D0501BF063FF04F63E
:1015E000A4601BF032F8002801D0012000E00020A8
:1015F00041F64841605441F64840215C14F51E70A4
:101600001BF03AFF04F618701BF01AFE41F67C211D
:10161000605041F67C2004EB000114F572701BF061
:1016200044FF14F572601BF00BFE14F5E3510860E3
:1016300014F5E3500068029002A914F574701BF0D1
:1016400034FF04F628701BF0FBFD41F66441605046
:1016500041F664402058019001A914F576701BF002
:1016600024FF04F638701BF08FFD41F690402044B3
:1016700080ED000B41F6904004EB000114F57A7008
:101680001BF0ACFD14F56B6114F521701BF01AFF13
:1016900004F6C86114F544701BF014FF14F544708F
:1016A0001AF0D3FF002801D0012100E00021C9B2C7
:1016B00041F2D04020441BF024FF14F574601BF06D
:1016C00063FD41F69840204480ED000B41F69840C0
:1016D00004EB000114F57C701BF080FD14F56E60C6
:1016E0001AF0A2FF0100C9B220000FF05BFE41F624
:1016F0007421605414F56E6114F52D701BF0A9FE71
:1017000004F6F46114F54D701BF0DCFE14F5706105
:1017100014F550701BF0D6FE41F2E41020441BF08B
:1017200033FD42F2A000204480ED000B41F2E410B2
:1017300004EB000114F598601BF05DFD41F2EC1024
:1017400020441BF021FD42F2A800204480ED000B54
:1017500041F2EC1004EB000114F599601BF04BFD15
:1017600041F2F41020441BF00FFD42F2B00020447F
:1017700080ED000B41F2F41004EB000104F27C70E8
:101780001BF039FD41F2FC1020441BF0FDFC42F23D
:10179000B800204480ED000B41F2FC1004EB000186
:1017A00004F284701BF027FD41F2042020441BF05A
:1017B00047FD14F50351086041F2042004EB0001D9
:1017C00004F28C701BF0A0FE41F20C2020441BF0B0
:1017D000DBFC51EC100B1BF0A9FE42F2C40160507F
:1017E00041F20C2004EB000104F294701BF003FDA5
:1017F00041F2D83004EB000114F1CC001BF0FBFCEB
:1018000004F60C7114F553701BF05CFE41F60840B1
:10181000204400220023C0E9002341F61040204468
:1018200000220023C0E9002304F628601BF0ACFC72
:1018300041F61840204480ED000B14F560601BF069
:1018400087FC079007A81AF013FA41F6F822224401
:10185000C2E9000104F6587114F59D601BF0F9FD12
:1018600014F5766114F59E601BF0F3FD04F66871C3
:1018700014F59F601BF0EDFD14F5776114F5A06081
:101880001BF0E7FD04F6787114F5A1601BF0E1FD93
:1018900014F5786114F5A2601BF0DBFD04F6887185
:1018A00014F5A3601BF0D5FD14F5796114F5A4605F
:1018B0001BF0CFFD04F6987114F5A5601BF0C9FD6F
:1018C00014F57A6114F5A6601BF0C3FD04F6A87147
:1018D00014F5A7601BF0BDFD14F57B6114F5A8603D
:1018E0001BF0B7FD04F6B87114F5A9601BF0EAFD12
:1018F00041F670702044D0E9002341F25870204432
:1019000011F03CF841F670702044D0E9002314F542
:10191000BE5011F033F841F670702044D0E9002336
:1019200041F62800204410F073FF41F67070204407
:10193000D0E9002314F5C45010F06AFF41F670702E
:101940002044D0E9002341F6D800204410F060FF85
:1019500041F670702044D0E9002341F63010204455
:1019600011F00CF841F670702044D0E9002341F6E4
:101970009810204411F002F841F670702044D0E92C
:10198000002314F5D05010F0F9FF04F6C47114F5DB
:1019900080601BF030FC14F5246104F6C8201BF0B5
:1019A000E2FD04F6882104F608301BF009FE04F677
:1019B000FC2104F608301BF005FE04F6E42104F6D1
:1019C00008301BF0FFFD14F52F6104F608301BF002
:1019D000F9FD1420069006A81AF04AF902000B003F
:1019E00004F608301BF0F8FD1420059005A81AF045
:1019F0003FF902000B0004F608301BF0F8FD4FF42D
:101A0000FA70049004A81AF033F902000B0004F6EF
:101A100008301BF0F7FD3220039003A81AF028F9D4
:101A200002000B0004F608301BF0F8FD78201BF0D4
:101A300003FE0600231D04F6FC2204F6C821300034
:101A40001DF0BDFD010004F698301DF0E4FE0021FC
:101A500004F6F81011F0FBFB1BF024FB12491DF0FB
:101A6000F0FE1BF01FFB08211DF0E6FF0F491EF0E2
:101A70004DF814F51F6104F6FC001BF00EFC41F25A
:101A8000F42004EB000104F604101BF0C7FB200057
:101A90006AB0BDEC048BBDE8F28300009999A93FC0
:101AA000000039409999B93F90B10608417D060878
:101AB00010B50400206810F5987104F6882015F020
:101AC000E6FF206810F59E7104F6882015F0F7FFF8
:101AD00004F6882016F014F810BD70472DE9F84F71
:101AE0002DED0C8BADF5306DAAB0060030681BF003
:101AF000CBF906F6A83017F0DEFB16F5476019F0B3
:101B0000D7F841F2E830304419F0B3FF41F23040E9
:101B1000304411F001FB00240A2C06D241F2D040DF
:101B2000304411F0ADFE641CF6E741F258703044C9
:101B300010F059FF16F5BE5010F055FF41F6280081
:101B4000304410F08CFE16F5C45010F088FE41F6BB
:101B5000D800304410F083FE41F63010304410F0CD
:101B600042FF41F69810304410F03DFF16F5D0507A
:101B700010F039FF06F6F81011F07EFB06F69830EB
:101B80001DF0CAFF1DF0C0FD16F5246015F046FDDE
:101B900006F608301DF0E2FF42F2C800304413F0B0
:101BA0000BFC42F2A840304414F09FF942F26870F6
:101BB000304414F09AF906F6E4201EF024F90028C7
:101BC00001D0012000E00020C0B2002804D0002194
:101BD00006F6F81011F03BFB41F2187030441AF091
:101BE00070F9C0B2002801D0012000E00020C0B28E
:101BF000002801F05D810021301D1EF00AF930003F
:101C00000AF040FB41F6D841705430000AF0B5FCB0
:101C1000050041F61050305C002802D141F610500A
:101C2000355430000AF024FE040041F61150305CB7
:101C3000002802D141F61150345430000AF0E6FF7A
:101C400041F64851705430000BF057F941F6B0514D
:101C5000705430000BF0CAFA41F61861705430002D
:101C60000AF0C2FA41F66820305C012800F05B817E
:101C700016F5DA701BF088FAB0EE408AF0EE608A52
:101C800041F23040304411F091F953EC182B51ECF3
:101C9000100B1AF0DFFA01D0012000E00020C0B2E2
:101CA00000280BD041F23040304411F07FF98DED27
:101CB000460B46A916F5DA701BF090FA16F5DE70A1
:101CC0001BF0BEFA050041F23040304411F0C2F979
:101CD000854201D0012000E00020C0B200280AD0D7
:101CE00041F23040304411F0B5F9159015A916F5C0
:101CF000DE701BF0DAFB16F5D4701AF0A6FC0500B6
:101D000041F23040304410F0F0FFC0B2854201D0C3
:101D1000012000E00020C0B200280AD041F230408B
:101D2000304410F0E2FF0100C9B216F5D4701BF088
:101D3000A3FB16F5CC701AF077FC050041F2304099
:101D4000304411F08FF9EDB2C0B2854201D00120CC
:101D500000E00020C0B200280BD041F230403044F7
:101D600011F080F98DF8100004A916F5CC701BF065
:101D7000FEF916F5AE701AF068FC050041F25870D5
:101D8000304410F0E8FD854201D0012000E0002041
:101D9000C0B2002809D041F25870304410F0DBFD89
:101DA000010016F5AE701BF067FB16F5B4701AF063
:101DB0004CFC050016F5BE5010F0CDFD854201D05B
:101DC000012000E00020C0B2002808D016F5BE5067
:101DD00010F0C1FD010016F5B4701BF04DFB16F5B7
:101DE0009C701AF032FC050041F62800304410F0D7
:101DF00004FD854201D0012000E00020C0B200288F
:101E000009D041F62800304410F0F7FC010016F527
:101E10009C701BF031FB16F1E4001AF016FC050073
:101E200016F5C45010F0E9FC854201D0012000E015
:101E30000020C0B2002808D016F5C45010F0DDFC18
:101E4000010016F1E4001BF017FB16F1F0001AF088
:101E5000FCFB050041F6D800304410F0CEFC854272
:101E600001D0012000E00020C0B2002809D041F6D6
:101E7000D800304410F0C1FC010016F1F0001BF056
:101E8000FBFA16F1FC001AF0E0FB050041F63010F9
:101E9000304410F060FD854201D0012000E00020B8
:101EA000C0B2002809D041F63010304410F053FD84
:101EB000010016F1FC001BF0DFFA16F584701AF031
:101EC000C4FB050041F69810304410F044FD8542F3
:101ED00001D0012000E00020C0B2002809D041F666
:101EE0009810304410F037FD010016F584701BF097
:101EF000C3FA16F58A701AF0A8FB050016F5D05043
:101F000010F029FD854201D0012000E00020C0B280
:101F1000002808D016F5D05010F01DFD010016F570
:101F20008A701BF0A9FA41F2D04030441DF08CFFBA
:101F3000C0B2002801D0012000E00020C0B200287B
:101F400000F0C48016F5F15141F2D040304412F057
:101F500083FE41F6486006EB000106F6E8101BF030
:101F60009CF941F628603044D0E9002300205F4905
:101F70001AF08EF841EC180B51EC180B31F00041BF
:101F800041EC100B8DED2C0B2CA916F596601BF077
:101F900025F941F6306006EB000116F59C601BF058
:101FA00084FA41F6386006EB000116F594601BF0E8
:101FB00015F916F5F250D0E9002300204B491AF02C
:101FC00067F8CDE92A012AA916F595601BF006F9F4
:101FD00041F66820305C00280DD041F66920305C65
:101FE000022808D041F62840304416F5F15191ED11
:101FF000000B80ED000B41F62860304490ED008B23
:1020000051EC180B31F0004141EC100B42F69010EE
:1020100030440FF0CFFB41F6D860305C002855D03B
:10202000002041F6D861705416F5F75116F5886016
:102030001BF0D4F841F6E86006EB000116F5846069
:102040001BF0CCF841F6F06006EB000116F58A6053
:102050001BF0C4F841F6F86006EB000116F58B6042
:102060001BF0BCF841F6F060304490ED000B3000FE
:1020700009F0BEFB8DED280B28A916F58C601BF02E
:10208000ADF841F6F860304490ED000B300009F0F7
:10209000AFFB8DED260B26A916F58D601BF09EF883
:1020A00016F5F85116F587601BF098F841F60870A0
:1020B0003044D0E9002300200C4919F0E9FFCDE9B4
:1020C000240124A916F5F6701BF088F816F5F270B5
:1020D0001BF05AF853EC102B41F628403044D0E95D
:1020E00000011AF0B7F803D0012002E080842E41ED
:1020F0000020C0B200281BD041F6284006EB0001AA
:1021000016F5F2701BF06AF841F62840304490ED65
:10211000000B41F6084030441EF03BF916F5E15043
:1021200080ED000B16F5E15116F55E701BF056F8C8
:1021300016F518701AF089FA002801D0012000E085
:102140000020C0B2002827D0002116F518701BF01F
:1021500093F941F60840304441F62841314491ED6D
:10216000000B80ED000B41F61040304441F6284151
:10217000314491ED000B80ED000B16F5E15041F676
:102180002841314491ED000B80ED000B16F5E15133
:1021900016F55E701BF022F816F190001AF044FA62
:1021A00041F66821715CC0B2884201D0012000E094
:1021B0000020C0B200280AD041F66820305C8DF8BB
:1021C0000F000DF10F0116F190001AF0D0FF41F64B
:1021D0006820305C00282CD141F66920305C022850
:1021E00027D116F5AC601AF030FA012801D1012090
:1021F00000E00020C0B200280CD0002116F5AC6031
:102200001BF03AF9002106F254501BF035F930006A
:1022100009F020F806F254501AF017FA002801D1FC
:10222000012000E00020C0B2002802D0300009F0F8
:102230007AF816F11C001AF0F7F9050016F55D6042
:102240001AF086FFEDB2854201D0012000E00020A7
:10225000C0B2002809D016F11C001AF0E5F914905C
:1022600014A916F55D601BF018F816F1B4001AF009
:102270008BFFB0EE408AF0EE608A06F6D8501AF076
:1022800083FF53EC182B51EC100B19F0E3FF01D036
:10229000012000E00020C0B2002805D016F1B401F2
:1022A00006F6D8501AF0A7FF16F1BC001AF06CFF22
:1022B000B0EE408AF0EE608A16F55E601AF064FFB8
:1022C00053EC182B51EC100B19F0C4FF01D0012076
:1022D00000E00020C0B2002805D016F1BC0116F5C0
:1022E0005E601AF088FF16F1D4001AF04DFFB0EED0
:1022F000408AF0EE608A06F648701AF045FF53EC0B
:10230000182B51EC100B19F0A5FF01D0012000E0B3
:102310000020C0B2002805D016F1D40106F648709E
:102320001AF069FF16F1DC001AF02EFFB0EE408AB9
:10233000F0EE608A16F575601AF026FF53EC182B44
:1023400051EC100B19F086FF01D0012000E00020B5
:10235000C0B2002805D016F1DC0116F575601AF040
:102360004AFF16F5CC701AF05FF9050006F6E85042
:102370001AF0EEFEEDB2854201D0012000E000200F
:10238000C0B2002809D016F5CC701AF04DF91390A0
:1023900013A906F6E8501AF080FF16F5D0701AF06F
:1023A00043F9050016F55F601AF0D2FEEDB28542E2
:1023B00001D0012000E00020C0B2002809D016F5AD
:1023C000D0701AF031F9129012A916F55F601AF068
:1023D00064FF16F5FE701AF0BBFE050006F6F85015
:1023E0001AF0B6FE854201D0012000E00020C0B204
:1023F000002805D016F5FE7106F6F8501AF00EFF0B
:1024000016F501701AF0A4FE050016F560601AF0CA
:102410009FFE854201D0012000E00020C0B20028CC
:1024200005D016F5017116F560601AF0F7FE16F585
:1024300003701AF0A9FEB0EE408AF0EE608A06F64C
:1024400008601AF0A1FE53EC182B51EC100B19F098
:1024500001FF01D0012000E00020C0B2002805D01B
:1024600016F5037106F608601AF0C5FE16F505703C
:102470001AF0E6FE050016F561601AF0E1FE8542ED
:1024800001D0012000E00020C0B2002805D016F5E0
:10249000057116F561601BF037F816F507701AF034
:1024A00057FE050006F618601AF052FE854201D06C
:1024B000012000E00020C0B2002805D016F5077109
:1024C00006F618601AF0AAFE16F55C701AF05CFEAB
:1024D00053EC102B41F618403044D0E9000119F0BC
:1024E000B9FE01D0012000E00020C0B200280ED0CB
:1024F00016F55C701AF048FE41F61840304480ED45
:10250000000B16F55C7106F628601AF074FE16F5DD
:1025100060701AF01DFE050016F563601AF018FED3
:10252000854201D0012000E00020C0B2002805D083
:1025300016F5607116F563601AF070FE16F562709C
:102540001AF006FE050006F638601AF001FE854214
:1025500001D0012000E00020C0B2002805D016F50F
:10256000627106F638601AF059FE16F564701AF0BA
:10257000EFFD050016F564601AF0EAFD854201D012
:10258000012000E00020C0B2002805D016F56471DB
:1025900016F564601AF042FE16F56A7019F0C0FF75
:1025A000050006F6586019F0BBFFADB280B2854257
:1025B00001D0012000E00020C0B2002805D016F5AF
:1025C0006A7106F658601AF031FF16F56C7019F052
:1025D000A7FF050016F5666019F0A2FFADB280B244
:1025E000854201D0012000E00020C0B2002805D0C3
:1025F00016F56C7116F566601AF018FF16F5707016
:102600001AF0C2FDB0EE408AF0EE608A16F56760FF
:102610001AF0BAFD53EC182B51EC100B19F01AFEFE
:1026200001D0012000E00020C0B2002805D016F53E
:10263000707116F567601AF0DEFD16F160001AF091
:1026400004F8050016F5686019F0FFFF854201D017
:10265000012000E00020C0B2002805D016F1600182
:1026600016F568601AF02EFF16F5C67019F0EDFF2A
:10267000050006F68C6019F0E8FF854201D00120C4
:1026800000E00020C0B2002805D016F5C67106F69D
:102690008C601AF017FF16F51E7019F0D6FF0500B2
:1026A00006F6A46019F0D1FF854201D0012000E0B8
:1026B0000020C0B2002805D016F51E7106F6A460F1
:1026C0001AF000FF16F572701AF0BAFD050006F652
:1026D00018701AF0B5FD854201D0012000E00020FD
:1026E000C0B2002805D016F5727106F618701AF0FF
:1026F0000BFF16F574701AF0A3FD050016F5726055
:102700001AF09EFD854201D0012000E00020C0B2F9
:10271000002805D016F5747116F572601AF0F4FEF3
:1027200016F576701AF08CFD050006F628701AF082
:1027300087FD854201D0012000E00020C0B20028C2
:1027400005D016F5767106F628701AF0DDFE16F53E
:1027500078701AF0FDFC050016F573601AF0F8FCAD
:10276000854201D0012000E00020C0B2002805D041
:1027700016F5787116F573601AF050FD16F57A703B
:102780001AF002FDB0EE408AF0EE608A06F638706C
:102790001AF0FAFC53EC182B51EC100B19F05AFDFF
:1027A00001D0012000E00020C0B2002805D016F5BD
:1027B0007A7106F638701AF01EFD16F5217019F0C0
:1027C00044FF050016F56B6019F03FFF854201D00C
:1027D000012000E00020C0B2002805D016F52171CC
:1027E00016F56B601AF06EFE16F5447019F02DFFA9
:1027F000050006F6C86019F028FF854201D00120C7
:1028000000E00020C0B2002814D016F5447106F68E
:10281000C8601AF057FE16F5447019F016FF00282C
:1028200001D0012100E00021C9B241F2D040304482
:102830001AF067FE16F53B7019F007FF050006F663
:10284000BC6019F002FF854201D0012000E00020A9
:10285000C0B2002805D016F53B7106F6BC601AF030
:1028600031FE16F57C701AF08FFCB0EE408AF0EE67
:10287000608A16F574601AF087FC53EC182B51EC43
:10288000100B19F0E7FC01D0012000E00020C0B2DD
:10289000002805D016F57C7116F574601AF0ABFCB3
:1028A00016F52D7019F0C0FE050016F56E6019F0D2
:1028B000BBFEEDB2C0B2854201D0012000E0002095
:1028C000C0B2002805D016F52D7116F56E601AF00D
:1028D000C0FD16F54D7019F0B8FE050006F6F4605F
:1028E00019F0B3FE854201D0012000E00020C0B203
:1028F000002805D016F54D7106F6F4601AF0E2FDD9
:1029000016F5507019F0A1FE050016F5706019F06B
:102910009CFE854201D0012000E00020C0B20028CA
:1029200005D016F5507116F570601AF0CBFD16F54E
:102930008F6019F079FE050041F20400304419F06F
:1029400073FEEDB2C0B2854201D0012000E000204C
:10295000C0B2002806D016F58F6141F20400304461
:102960001AF077FD16F598601AF00EFCB0EE408A6A
:10297000F0EE608A41F2E41030441AF005FC53ECAA
:10298000182B51EC100B19F065FC01D0012000E070
:102990000020C0B2002826D016F5986141F2E4105C
:1029A00030441AF028FC16F598601AF0EDFB42F25C
:1029B000A000304480ED000B41F6280030440FF0B9
:1029C0001CFF012801D1012000E00020C0B2002836
:1029D00009D042F2A000304490ED000B41F2D0400B
:1029E000304412F05CF916F599601AF0CDFBB0EEA8
:1029F000408AF0EE608A41F2EC1030441AF0C4FBD9
:102A000053EC182B51EC100B19F024FC01D00120D1
:102A100000E00020C0B2002826D016F5996141F2EE
:102A2000EC1030441AF0E7FB16F599601AF0ACFB95
:102A300042F2A800304480ED000B41F628003044FB
:102A40000FF0DBFE002801D1012000E00020C0B221
:102A5000002809D042F2A800304490ED000B41F26A
:102A6000D040304412F01BF916F53B7019F0EDFD23
:102A7000050006F6BC6019F0E8FD854201D0012092
:102A800000E00020C0B2002805D016F53B7106F624
:102A9000BC601AF017FD06F27C701AF075FBB0EE00
:102AA000408AF0EE608A41F2F41030441AF06CFB78
:102AB00053EC182B51EC100B19F0CCFB01D001207A
:102AC00000E00020C0B200280FD006F27C7141F275
:102AD000F41030441AF08FFB06F27C701AF054FBAD
:102AE00042F2B000304480ED000B06F284701AF020
:102AF0004BFBB0EE408AF0EE608A41F2FC103044AD
:102B00001AF042FB53EC182B51EC100B19F0A2FBFE
:102B100001D0012000E00020C0B200280FD006F252
:102B2000847141F2FC1030441AF065FB06F28470A7
:102B30001AF02AFB42F2B800304480ED000B06F296
:102B40008C701AF07DFB050041F2042030441AF02D
:102B500077FB854201D0012000E00020C0B20028B0
:102B60000DD006F28C7141F2042030441AF0CCFCF6
:102B700006F28C701AF064FB16F50351086006F239
:102B800094701AF001FBB0EE408AF0EE608A41F2D8
:102B90000C2030441AF0F8FA53EC182B51EC100BBF
:102BA00019F058FB01D0012000E00020C0B200283D
:102BB00011D006F2947141F20C2030441AF01BFB44
:102BC00006F294701AF0E0FA51EC100B1AF0AEFC19
:102BD00042F2C401705016F5157019F036FD05006B
:102BE00006F6986019F031FD854201D0012000E021
:102BF0000020C0B2002811D016F5157106F69860B5
:102C00001AF060FC16F5157019F01FFD002801D0B0
:102C1000012000E0002041F65931705416F1CC003B
:102C20001AF0B2FAB0EE408AF0EE608A41F2D83083
:102C300030441AF0A9FA53EC182B51EC100B19F090
:102C400009FB01D0012000E00020C0B2002806D01E
:102C500016F1CC0141F2D83030441AF0CCFA16F516
:102C6000537019F0F2FC050006F60C7019F0EDFC3B
:102C7000854201D0012000E00020C0B2002805D02C
:102C800016F5537106F60C701AF01CFC42F688100B
:102C9000305C012809D043D303281AD00FD305286C
:102CA0002AD01FD3062831D03AE001208DF80E003B
:102CB0000DF10E0116F556701AF059FA38E002209F
:102CC0008DF80D000DF10D0116F556701AF04FFA42
:102CD0002EE003208DF80C0003A916F556701AF0AB
:102CE00046FA25E004208DF80B000DF10B0116F5D6
:102CF00056701AF03CFA1BE005208DF80A000DF121
:102D00000A0116F556701AF032FA11E006208DF815
:102D100009000DF1090116F556701AF028FA07E0BE
:102D200000208DF8080002A916F556701AF01FFA57
:102D300006F6587116F59D601DF0AEFB16F576612E
:102D400016F59E601DF0A8FB06F6687116F59F60EB
:102D50001DF0A2FB16F5776116F5A0601DF09CFB37
:102D600006F6787116F5A1601DF096FB16F57861F0
:102D700016F5A2601DF090FB06F6887116F5A360AB
:102D80001DF08AFB16F5796116F5A4601DF084FB31
:102D900006F6987116F5A5601DF07EFB16F57A61B2
:102DA00016F5A6601DF078FB06F6A87116F5A7606B
:102DB0001DF072FB16F57B6116F5A8601DF06CFB2B
:102DC00006F6B87116F5A9601DF082FB42F2786034
:102DD000304413F0B7FA42F63810304413F0B2FA28
:102DE00041F2D04030441DF08DFB012801D101207B
:102DF00000E00020C0B2002805D0002116F52A709E
:102E00001AF03AFB04E0012116F52A701AF034FB9F
:102E100016F5477019F019FC012801D1012000E0D6
:102E20000020C0B2002807D0002116F547701AF024
:102E300023FB30000DF0C8FC06F6FC001AF088F900
:102E4000D6F8F019884201D0012000E00020C0B27D
:102E5000002805D016F51F6106F6FC001AF01DFAD1
:102E600006F604101AF074F9050041F2F42030441B
:102E70001AF06EF9854201D0012000E00020C0B2B6
:102E8000002806D006F6041141F2F42030441AF06E
:102E9000C5F942F6901030440EF0BFFC16F5DE5036
:102EA0000EF08FFB079007A916F509701AF0F5F9D7
:102EB00041F22870304419F004F8C0B2002801D063
:102EC000012000E00020C0B2002818D041F250706C
:102ED000305C002804D03068C0301DF0F1FB03E006
:102EE0003068C0301DF0F5FB41F25070305C0028B6
:102EF00001D1012000E0002041F25071705441F6F0
:102F0000F030304418F0DDFFC0B2002801D00120BD
:102F100000E00020C0B2002842D041F6E830305C2A
:102F200000280ED041F6B0303058401C41F6B03188
:102F3000705041F6B03006EB000116F50B701AF038
:102F4000ACF941F66820305C022829D141F6B8304E
:102F50003058401C41F6B831705041F6BC30325800
:102F6000002141F6BC303058401E1DF0C4FD41F632
:102F7000BC31705016F5DE500EF089FA41F6B830CB
:102F800006EB000116F50F701AF087F916F5DE5002
:102F90000EF015FB069006A916F511701AF07DF9D2
:102FA00041F66820305C002809D0022801F0AA838D
:102FB000C0F05D81032801F01F8108F037B941F6A8
:102FC0006920305C002805D0022800F0E680C0F0BF
:102FD000AD804AE11AF066F8DFF8E41C1CF096FDBB
:102FE000002141F2587030440FF0ACFC002116F57E
:102FF000BE500FF0A7FC012141F6280030440FF02D
:10300000F3FB002116F5C4500FF0EEFB002141F652
:10301000D80030440FF0E8FB002141F63010304476
:103020000FF090FC002141F6981030440FF08AFC1C
:10303000002116F5D0500FF085FC42F2A00030447C
:1030400090ED000B41F2D040304411F028FE41F2E7
:10305000304030441DF056FD41F2304030440FF016
:10306000FDFD9FED300B41F2304030440FF0F6FE95
:1030700041F2D04030441DF049FD41F6A84006EB36
:10308000000141F2D040304411F000FA002141F239
:10309000587030441AF006FA002116F5BE501AF0A6
:1030A00001FA002141F6301030441AF0FBF90021FA
:1030B00041F6981030441AF0F5F9002116F5D05079
:1030C0001AF0F0F9002116F178001AF0D5F941F65E
:1030D000103006EB000116F507701AF0DEF841F229
:1030E0003870304418F064FE002116F524701AF090
:1030F000C3F9002041F610717054002116F52F70AD
:103100001AF0BAF9002116F535701AF0B5F9002158
:1031100016F538701AF0B0F9012041F669217054A3
:10312000A3E000BF000000000000000041F2387082
:10313000304418F04AFEC0B2002801D0012000E05F
:103140000020C0B2002827D019F0ACFFDFF8701BB8
:103150001CF0DCFC19F0A6FFDFF8681B1CF071FB0B
:10316000DFF85C1B1CF0D2FC19F09CFFDFF8581B49
:103170001CF067FBDFF8481B1CF0C8FC19F092FF3D
:10318000DFF8401B1CF05DFBDFF8341B1CF0BEFCBD
:10319000022041F66921705467E016F1780019F0B9
:1031A00054FA012801D1012000E00020C0B200281B
:1031B00040D0002116F178001AF05EF9002116F1D6
:1031C00084001AF059F916F10C0019F02DFAC0B26A
:1031D000012804D024D3032819D009D320E00120EA
:1031E00041F668217054002041F6692170543CE09A
:1031F00006F698301CF090FC1CF050FA022041F6C4
:1032000068217054002041F6692170542DE003209C
:1032100041F668217054002041F66921705424E081
:1032200000208DF807000DF1070116F10C0019F0D0
:103230009EFF1AE041F2D04030441DF063F90128AE
:1032400001D1012000E00020C0B200280DD041F6DD
:103250002840304416F5F15191ED000B80ED000B44
:1032600041F2D040304410F00FF907F0DFBF16F5FF
:10327000DC500078002815D0022800F0F080C0F063
:103280009B80042800F03284C0F0F683062800F00A
:10329000EC84C0F06284082800F09087C0F0F086CB
:1032A00000F0A8BF19F0FEFEDFF8141A1CF02EFC87
:1032B00019F0F8FEDFF80C1A1CF0C3FADFF8001A58
:1032C0001CF024FC19F0EEFEDFF8001A1CF0B9FA2D
:1032D000DFF8EC191CF01AFC19F0E4FEDFF8E41931
:1032E0001CF0AFFADFF8D8191CF010FC41F6707032
:1032F0003044D0E9002341F2587030440FF03EFBD7
:1033000041F670703044D0E9002316F5BE500FF03E
:1033100035FB41F670703044D0E9002341F62800B7
:1033200030440FF075FA41F670703044D0E9002354
:1033300016F5C4500FF06CFA41F670703044D0E9C5
:10334000002341F6D80030440FF062FA41F6707065
:103350003044D0E9002341F6301030440FF00EFB2A
:1033600041F670703044D0E9002341F698103044A3
:103370000FF004FB41F670703044D0E9002316F5DD
:10338000D0500FF0FBFA41F670703044D0E90023C2
:1033900041F2304030440FF06DFE16F5707019F0B8
:1033A000F3FE41F67030304480ED000B012016F53D
:1033B000DC51087000F01EBF41F2D04030441DF0D7
:1033C000A1F8012801D1012000E00020C0B20028AE
:1033D00043D041F6185006EB000141F2D040304492
:1033E00011F054F8012141F2D040304410F020F99E
:1033F000B0EE408AF0EE608A41F2304030440FF087
:1034000029FE040041F668303044D0E9002341F63B
:1034100070303044D0E9000118F03AFE41EC130B53
:10342000B0EE439AF0EE639A200019F025FF41ECCC
:10343000120BB0EE493AF0EE693A41F628403044BA
:1034400090ED001BB0EE480AF0EE680A300008F07C
:1034500026F9022016F5DC51087000F0CBBE16F1FB
:103460006C0019F0F2F8012801D1012000E00020E1
:10347000C0B2002816D0002116F16C0019F0FCFF34
:10348000002016F5DC510870002041F668217054C8
:1034900000208DF806000DF1060116F10C0019F060
:1034A00066FEE8E216F5AE7019F0CFF8040041F2BE
:1034B000587030440FF04FFA844201D0012000E0F0
:1034C0000020C0B2002809D016F5AE7019F0BDF882
:1034D000010041F2587030440FF034FA16F5B47020
:1034E00019F0B3F8040016F5BE500FF034FA844218
:1034F00001D0012000E00020C0B2002808D016F55D
:10350000B47019F0A2F8010016F5BE500FF01AFAC7
:1035100016F59C7019F099F8040041F62800304423
:103520000FF06BF9844201D0012000E00020C0B20E
:1035300000282AD016F59C7019F087F8010041F692
:10354000280030440FF050F916F59C7019F07DF802
:10355000012801D1012000E00020C0B200280AD0DB
:1035600042F2A000304490ED000B41F2D0403044D4
:1035700011F095FB09E042F2A800304490ED000BF9
:1035800041F2D040304411F08AFB16F1E40019F00A
:103590005CF8040016F5C4500FF02FF9844201D0F6
:1035A000012000E00020C0B2002808D016F1E4009D
:1035B00019F04BF8010016F5C4500FF015F916F18B
:1035C000F00019F042F8040041F6D80030440FF042
:1035D00014F9844201D0012000E00020C0B200288C
:1035E00009D016F1F00019F030F8010041F6D800CA
:1035F00030440FF0F9F816F1FC0019F026F8040039
:1036000041F6301030440FF0A6F9844201D0012079
:1036100000E00020C0B2002809D016F1FC0019F02B
:1036200014F8010041F6301030440FF08BF916F514
:10363000847019F00AF8040041F6981030440FF035
:103640008AF9844201D0012000E00020C0B20028A5
:1036500009D016F5847018F0F8FF010041F69810B3
:1036600030440FF06FF916F58A7018F0EEFF040081
:1036700016F5D0500FF06FF9844201D0012000E020
:103680000020C0B2002808D016F58A7018F0DDFFBF
:10369000010016F5D0500FF055F941F25870304442
:1036A0001DF038FA41F65931715CC0B2814201D047
:1036B000012000E00020C0B2002807D041F65930B8
:1036C000315C41F25870304419F0ECFE16F5BE50F2
:1036D0001DF020FA41F65931715CC0B2814201D02F
:1036E000012000E00020C0B2002806D041F6593089
:1036F000315C16F5BE5019F0D5FE41F6301030445D
:103700001DF008FA41F65931715CC0B2814201D016
:10371000012000E00020C0B2002807D041F6593057
:10372000315C41F63010304419F0BCFE41F698107F
:1037300030441DF0EFF941F65931715CC0B281425D
:1037400001D0012000E00020C0B2002807D041F6DF
:103750005930315C41F69810304419F0A3FE16F54B
:10376000D0501DF0D7F941F65931715CC0B2814299
:1037700001D0012000E00020C0B2002806D041F6B0
:103780005930315C16F5D05019F08CFE16F5D47016
:1037900018F05BFF040041F2304030440FF0A5FA0E
:1037A000C0B2844201D0012000E00020C0B2002855
:1037B00020D016F5D47018F048FF002801D0012061
:1037C00000E00020C0B200280AD041F2304030446E
:1037D0000FF044FA41F2D04030441DF09EF909E068
:1037E00041F2304030440FF05DFA41F2D0403044B5
:1037F0001DF093F916F5DE7019F022FD040041F278
:10380000304030440FF026FC844201D0012000E01B
:103810000020C0B200283AD016F5DE7019F010FD75
:1038200019F02AFD41EC100B41F2304030440FF00A
:1038300015FB41F2D04030441DF06FF941F23040A9
:1038400030440FF0B3FB8DED440B44A916F5DA704C
:1038500019F0C4FC16F5DE7019F0F2FC040041F218
:10386000304030440FF0F6FB844201D0012000E0EC
:103870000020C0B200280AD041F2304030440FF09E
:10388000E9FB119011A916F5DE7019F00EFE16F580
:10389000DA7019F079FCB0EE408AF0EE608A41F2FD
:1038A000304030440FF082FB53EC182B51EC100BDE
:1038B00018F0D0FC01D0012000E00020C0B20028A8
:1038C0003ED016F5DA7019F05FFC41F2304030441A
:1038D0000FF024FA41F2D04030441DF01EF941F2BD
:1038E000304030440FF0B6FB109010A916F5DE7092
:1038F00019F0DBFD16F5DA7019F046FCB0EE408ADF
:10390000F0EE608A41F2304030440FF04FFB53EC50
:10391000182B51EC100B18F09DFC01D0012000E099
:103920000020C0B200280BD041F2304030440FF0EC
:103930003DFB8DED420B42A916F5DA7019F04EFCF5
:1039400016F5CC7018F070FE040041F2304030449F
:103950000FF088FBE4B2C0B2844201D0012000E045
:103960000020C0B200280FD016F5CC7018F05CFE15
:103970000100C9B241F2304030440FF0E3FA41F2A5
:10398000D04030441DF0C9F841F64850305C002862
:103990000CD0002041F64851705441F6185006EB07
:1039A000000141F2D040304410F070FD16F5217056
:1039B00018F04BFE002801D0012000E00020C0B22A
:1039C000002805D041F2D04030441DF0AAF804E0B0
:1039D00041F2D04030441DF099F816F53E7018F0D1
:1039E00034FE012801D1012000E00020C0B20028EF
:1039F00009D041F2D04030441DF097F8002116F56F
:103A00003E7019F039FD41F2D04030441CF07AFD8F
:103A1000012801D1012000E00020C0B2002804D01C
:103A200041F2D04030440FF02FFD16F51B7018F016
:103A30000CFE012801D1012000E00020C0B20028C6
:103A400009D0002116F51B7019F016FD032016F59C
:103A5000DC5108700FE016F52F7018F0F6FD012804
:103A600001D1012000E00020C0B2002803D00520D1
:103A700016F5DC510870BDE341F2D04030441CF033
:103A800041FD012801D1012000E00020C0B2002842
:103A90002BD016F5217018F0D8FD002801D0012098
:103AA00000E00020C0B2002805D041F2D0403044F0
:103AB0001DF037F804E041F2D04030441DF031F8F9
:103AC000012041F66C21705016F11C0018F0ACFD7D
:103AD000C0B241F67021705041F2D04030440FF036
:103AE000D3FC042016F5DC51087083E341F2D0408A
:103AF00030441CF007FD012801D1012000E0002026
:103B0000C0B2002828D041F66C20305841F6702110
:103B10007158884212D241F66C203058401C41F650
:103B20006C21705041F66C2030588DF805000DF175
:103B3000050116F1A00019F01AFB08E041F2D0408F
:103B400030441CF0E3FF022016F5DC51087041F20E
:103B5000D04030440FF098FC4CE3012041F6107146
:103B6000705416F5816019F00FFB16F5F95080EDD1
:103B7000000B16F5826019F007FB41F628703044FF
:103B800080ED000B16F5836019F0FEFA41F63070F7
:103B9000304480ED000B16F5856019F0F5FA16F546
:103BA000FB5080ED000B16F5866019F0EDFA41F63A
:103BB0006870304480ED000B16F5896019F0E4FA66
:103BC00041F67870304480ED000B012141F2D04085
:103BD00030440FF02DFD41F63870304480ED000B7D
:103BE00016F5707019F0D0FA41F67030304480ED5F
:103BF000000B41F2304030440FF02CFA040041F643
:103C000068303044D0E9002341F670303044D0E9C8
:103C1000000118F03DFA41EC130BB0EE438AF0EED0
:103C2000638A200019F028FB41EC120BB0EE483AF1
:103C3000F0EE683A41F62840304490ED001B41F622
:103C40003870304490ED000B300007F028FD19F07B
:103C500029FADFF8AC1D1BF0F4FD19491BF056FFE3
:103C6000062016F5DC510870C4E216F16C0018F05D
:103C7000ECFC012801D1012000E00020C0B20028A6
:103C800026D0002116F16C0019F0F6FB002016F585
:103C9000DC51087019F006FADFF8681D1BF0D1FD41
:103CA00007491BF033FF002041F6682170540020C3
:103CB0008DF8040001A916F10C0019F058FADEE1A4
:103CC000417D0608E88E06080C8F0608308F06082E
:103CD00016F52F7018F0B9FC002801D1012000E082
:103CE0000020C0B2002812D0022016F5DC51087066
:103CF000002041F61071705419F0D4F9DFF8041D5A
:103D00001BF09FFDDFF8001D1BF000FFB7E116F56B
:103D1000DA7019F039FAB0EE408AF0EE608A41F2BA
:103D2000304030440FF042F953EC182B51EC100B9B
:103D300018F090FA01D0012000E00020C0B2002865
:103D40000BD041F2304030440FF030F98DED400B94
:103D500040A916F5DA7019F041FA16F5DE7019F07F
:103D60006FFA040041F2304030440FF073F984429E
:103D700001D0012000E00020C0B200280AD041F2AA
:103D8000304030440FF066F90F900FA916F5DE7041
:103D900019F08BFB41F64850305C00284ED00020D3
:103DA00041F64851705441F6185006EB000141F2BB
:103DB000D040304410F06AFB012141F2D040304441
:103DC0000FF036FC41F63870304480ED000B16F5EC
:103DD000707019F0D9F941F67030304480ED000B65
:103DE00041F2304030440FF035F9040041F66830BC
:103DF0003044D0E9002341F670303044D0E900016E
:103E000018F046F941EC130BB0EE438AF0EE638AEA
:103E1000200019F031FA41EC120BB0EE483AF0EE06
:103E2000683A41F62840304490ED001B41F6387066
:103E3000304490ED000B300007F031FC41F611509A
:103E4000305C002845D0002041F61151705400210B
:103E500041F2D04030440FF0EBFB41F63870304473
:103E600080ED000B16F5707019F08EF941F6703088
:103E7000304480ED000B41F2304030440FF0EAF85E
:103E8000040041F668303044D0E9002341F6703038
:103E90003044D0E9000118F0FBF841EC130BB0EE10
:103EA000438AF0EE638A200019F0E6F941EC120B28
:103EB000B0EE483AF0EE683A41F62840304490EDD2
:103EC000001B41F63870304490ED000B300007F0D5
:103ED000E6FB16F5357018F0B8FB012801D101207A
:103EE00000E00020C0B2002812D0002116F5357085
:103EF00019F0C2FA19F0D6F8DFF8101B1BF0A1FC7C
:103F0000DFF8041B1BF002FE072016F5DC510870D9
:103F100041F2D04030441CF0F5FA012801D10120D3
:103F200000E00020C0B2002800F0A98041F2D0409B
:103F300030440FF0A9FA41F62840304490ED000BD0
:103F400016F5FA501CF064FA8DED180B18A916F549
:103F5000876019F043F99DED180B16F5F4501BF02E
:103F6000BFFFB0EE408AF0EE608AB0EE480AF0EE95
:103F7000680A41F2304030440EF0D0FEB0EE480AFC
:103F8000F0EE680A41F6887030441CF002FAB0EE98
:103F9000409AF0EE609AB0EE490AF0EE690A3000FD
:103FA00007F0BCFC8DED220B22A916F5886019F0F4
:103FB00015F941F6C86006EB000116F5846019F0AA
:103FC0000DF9B0EE480AF0EE680A16F5FD501CF047
:103FD000B3FD16F5FD501CF02BFE300007F09EFCE3
:103FE0008DED200B20A916F58A6019F0F7F816F56B
:103FF000FD501CF027FE300007F090FC8DED1E0BED
:104000001EA916F58B6019F0E9F816F5FD501CF0A5
:104010000FFE8DED1C0B1CA916F58C6019F0DEF857
:1040200016F5FD501CF00EFE8DED1A0B1AA916F5B3
:104030008D6019F0D3F816F5FD501CF003FEB0EEBC
:1040400040AAF0EE60AA16F5916019F09DF851ECC7
:104050001A0B53EC102B1CF025FE01D2012000E0BE
:104060000020C0B2002805D0012116F5387019F0E3
:1040700003FA04E0002116F5387019F0FDF9B9E0F3
:1040800041F2304030440FF035F8C0B2002801D082
:10409000012000E00020C0B2002800F089809FEDE0
:1040A000450B41F2304030440EF0D8FE012141F280
:1040B000D04030440FF0BCFA41F63870304480ED07
:1040C000000B16F5707019F05FF841F6703030444F
:1040D00080ED000B41F2304030440EF0BBFF040095
:1040E00041F668303044D0E9002341F67030304466
:1040F000D0E9000117F0CCFF41EC130BB0EE438A7E
:10410000F0EE638A200019F0B7F841EC120BB0EE24
:10411000483AF0EE683A41F62840304490ED001BF2
:1041200041F63870304490ED000B300007F0B7FADC
:1041300041F6C860304400220023C0E9002341F664
:10414000B060304400220023C0E9002341F6A8609B
:10415000304400220023C0E9002341F6B860304417
:1041600000220023C0E9002341F6487030440022B9
:104170000023C0E9002341F65070304400220023A0
:10418000C0E9002341F68870304400220023C0E9D2
:10419000002341F69070304400220023C0E9002340
:1041A00016F5FD501CF095FD082016F5DC51087041
:1041B00020E000BF000000000000000041F230409D
:1041C00030440EF097FFC0B2002801D0012000E07B
:1041D0000020C0B200280DD018F064FFDFF8FC1BEF
:1041E0001BF02FFBDFF820181BF090FC062016F5C3
:1041F000DC51087007F01AB841F68130305C0028B5
:1042000017D0022800F0AA80C0F08080042800F0B7
:104210003781C0F0F880062800F09081C0F07281EC
:10422000082800F0FB81C0F0AC81092800F01E8254
:1042300030E218F037FFDFF8D0171BF067FC18F0FA
:1042400031FFDFF89C1B1BF0FCFADFF8BC171BF0FA
:104250005DFC18F027FFDFF88C1B1BF0F2FADFF88B
:10426000A8171BF053FC18F01DFFDFF8741B1BF0A0
:10427000E8FADFF894171BF049FC16F5D07018F037
:10428000D3F9C0B26421484341F67821705041F619
:104290007820305803280ED2032041F67821705040
:1042A00041F6782030588DF803000DF1030116F522
:1042B000D07018F05CFF16F11C0018F0B5F941F64B
:1042C0004831705416F5037018F05EFF41F68830DF
:1042D000304480ED000B16F5077018F039FF41F6F9
:1042E0001031705041F6103030580E900EA815F075
:1042F00001FACDE93E013EA941F69830304417F06D
:104300004CFD012041F681317054C3E130001CF0B6
:10431000EFFCC0B2002801D0012000E00020C0B2B4
:1043200000281AD0012141F2587030440EF00AFBE7
:10433000012141F6301030440EF004FB002116F547
:10434000D0500EF0FFFA002141F6D80030440EF0B4
:104350004BFA022041F6813170549BE130001CF091
:10436000C7FCC0B2002801D0012000E00020C0B28C
:10437000002847D0002041F690317054002041F6CB
:104380006C21705016F5D45041F68831314491EDCE
:10439000000B80ED000B41F67820305840081CF0EF
:1043A000EDFC02000B0016F5D450D0E900011CF022
:1043B000F5FC16F5D452C2E9000118F073FEDFF8DF
:1043C000281A1BF03EFA41F6782171581BF034FB95
:1043D00018F068FEDFF830161BF098FB18F062FE4C
:1043E000DFF8081A1BF02DFA16F5D45191ED000BE9
:1043F0001CF045FDDFF810161BF088FB032041F68A
:104400008131705446E141F2304030440EF072FE8A
:10441000C0B2002801D0012000E00020C0B2002876
:104420002DD016F5D45090ED000B41F230403044C1
:104430000EF014FD41F69830304417F0B9FC18F036
:1044400031FEDFF8C4151BF061FBDFF8A4191BF087
:10445000F8F9040016F5077018F07AFE0100200044
:104460001BF0EAFA18F01EFEA5A11BF0EAF9DFF82E
:1044700098151BF04BFB042041F68131705409E183
:1044800041F69830304417F0A0FCC0B2002801D0AB
:10449000012000E00020C0B2002820D041F6983072
:1044A000304417F08FFC41F64850305C00280CD0A7
:1044B000002041F64851705441F6185006EB0001B7
:1044C00041F2D04030440FF0E1FF41F2D04030449F
:1044D0001CF027FB062041F68131705411E041F2B7
:1044E000D04030441CF00EF8012801D1012000E03A
:1044F0000020C0B2002804D041F2D04030440EF079
:10450000C3FFC7E041F2304030440EF0F3FDC0B2CB
:10451000002801D0012000E00020C0B200280CD00B
:1045200016F5D45090ED000B41F2304030440EF0BF
:1045300095FC062041F681317054ABE041F23040E9
:1045400030440EF0D7FDC0B200280CD041F2D0406C
:1045500030441BF0D7FF012801D0012000E00020EB
:1045600090F0010000E00020C0B2002808D041F225
:10457000D04030440EF088FF072041F6813170545E
:1045800088E041F2D04030441BF0BCFF012801D14B
:10459000012000E00020C0B200283ED041F690305B
:1045A000305C401C41F64831715C88420BDA41F6C0
:1045B0009030305C401C41F690317054062041F63A
:1045C0008131705429E0002041F69031705441F659
:1045D0006C203058401C41F678217158884218D21E
:1045E00041F66C203058401C41F66C21705016F595
:1045F000D450D0E900230020DFF8D01D1CF0B2FC1D
:1046000016F5D452C2E90001052041F681317054FB
:1046100003E0082041F6813170543BE030001CF08B
:1046200067FBC0B2002801D0012000E00020C0B22A
:1046300000281AD0002141F2587030440EF082F95F
:10464000002141F6301030440EF07CF9002116F5BF
:10465000D0500EF077F9002141F6D80030440EF02A
:10466000C3F8092041F68131705413E030001CF08A
:104670003FFBC0B2002801D0012000E00020C0B202
:10468000002807D0002041F668217054002041F630
:104690008131705416F16C0017F0D7FF012801D159
:1046A000012000E00020C0B2002827D018F0FAFC5A
:1046B000DFF82C171BF0C5F8D3491BF027FA18F0C8
:1046C000F1FCDFF80C1D1BF0BCF8CF491BF01EFA03
:1046D000002116F16C0018F0CFFE002041F6813168
:1046E0007054002041F66821705400208DF80200BB
:1046F0000DF1020116F10C0018F039FD06F096BD1F
:104700002063000041F66A20305C002800F0B3808E
:10471000012800F0C783022800F0F683032800F088
:104720004284042800F08C84052800F0D9840628EF
:1047300000F03685072800F04D86082800F06386D3
:10474000092800F099870A2800F0AF870B2801F0AC
:1047500042800C2801F065800D2801F0F3800E28BE
:1047600001F04B810F2801F06081102801F0708169
:10477000112801F01181122801F02B81132801F07A
:10478000B982142801F0C484152801F0E1871628A5
:1047900001F0F787172802F05C80182802F0EE80FD
:1047A000192802F004811A2802F092811B2802F0D5
:1047B00041821C2802F0A8821D2802F0FE831E28D8
:1047C00002F033841F2802F07584202802F0CE8482
:1047D000212802F0E584222802F0FA84242802F03D
:1047E0006887252803F0EC81262803F00682272815
:1047F00003F01D82282803F02082292803F0BF82BD
:104800002A2803F0A5852B2803F00E862C2803F018
:1048100031862D2803F0FA862E2803F08E872F2864
:1048200004F04980302804F00882312804F0D08256
:10483000322804F0F682332804F00783342804F089
:104840003483352804F04B83362804F0538337280B
:1048500004F02B84382804F05F85392804F0928511
:104860003A2804F0E5853B2806F008843C2806F049
:104870007B8406F08DBC18F015FC63491BF046F9EB
:1048800018F010FCDFF858151AF0DBFF5E491BF03A
:104890003DF918F007FCDFF8901D1AF0D2FF5A49D5
:1048A0001BF034F918F0FEFBDFF834151AF0C9FFDD
:1048B00055491BF02BF918F0F5FBDFF8701D1CF0C3
:1048C0000DFC16F1B40018F05FFC16F5D65080ED23
:1048D000000B16F1BC0018F057FC41F6B82030442C
:1048E00080ED000B002041F6B021705416F5FE70EB
:1048F00018F02EFC0D900DA817F0BAF916F5D85245
:10490000C2E9000116F5787018F022FC0C900CA892
:1049100017F0AEF941F608323244C2E9000116F54B
:10492000D850D0E9002341F2304030440EF0A2FBD1
:1049300041F2304030441CF0DBFB16F5017018F0FA
:1049400007FC0B900BA817F093F941F6F8223244BC
:10495000C2E9000141F6F8203044D0E9002341F2D9
:10496000587030440EF00AF841F6F8203044D0E98F
:10497000002316F5BE500EF001F841F6F820304441
:10498000D0E9002341F6280030440DF041FF41F604
:10499000F8203044D0E9002316F5C4500DF038FF5C
:1049A00041F6F8203044D0E9002341F6D8003044E5
:1049B0000DF02EFF41F6F8203044D0E9002341F6F7
:1049C000301030440DF0DAFF41F6F8203044D0E9E1
:1049D000002341F6981030440DF0D0FF41F6F82046
:1049E0003044D0E9002316F5D0500DF0C7FF16F57E
:1049F000157017F02AFE00280AD0012009E000BF38
:104A000060E9060868E90608417D060818DD060821
:104A1000002041F65931705441F65930315C06F6A8
:104A2000986018F029FD41F65930305C00281BD001
:104A3000012141F25870304418F034FD012116F57F
:104A4000BE5018F02FFD012141F63010304418F00F
:104A500029FD012141F69810304418F023FD012171
:104A600016F5D05018F01EFD41F6F82006EB0001B7
:104A700041F66860304417F090F916F5D07017F0E1
:104A8000D3FDC0B241F67821705016F5727018F05F
:104A9000D7FB41F67C21705016F5747018F0D0FBEE
:104AA00016F5E351086016F5767018F0C9FB41F66B
:104AB0006441705016F5727018F0C2FB41F67C210B
:104AC0007158814201D0012000E00020C0B20028CE
:104AD0000FD041F67C2006EB000116F5727018F03D
:104AE000E4FC41F67C2006EB000106F6187018F095
:104AF000DCFC16F51E7017F0A8FD002801D001207F
:104B000000E0002041F64841705442F288003044F1
:104B100000220023C0E9002341F64C3030441CF051
:104B2000EBFA41F6183030441CF001FB41F624301A
:104B300030441CF0FCFA16F11C0017F075FD41F62C
:104B40004831705441F64830305C02282BDB41F686
:104B5000483006EB000116F1A00018F008FB18F031
:104B6000A1FA9F491AF06DFEDFF8C41A1AF0CEFFC1
:104B700018F098FADFF8BC1A1AF063FE18F092FAEF
:104B800041F64831715C1CF0EDFADFF8A41A1AF016
:104B9000BDFF18F087FA92491AF053FEDFF8901A19
:104BA0001AF0B4FF08E001208DF801000DF10101B9
:104BB00016F1A00018F0DBFA16F1600017F045FDC1
:104BC000002801D0012000E0002041F65831705447
:104BD00041F65830315C16F1600018F04DFC41F29E
:104BE000D04030441CF042FB41F6505006EB00012F
:104BF00041F2D04030440FF049FC18F053FADFF88E
:104C0000381A1AF01EFEDFF8281A1AF07FFF16F580
:104C1000077018F09DFA41F6103170504FF47A7019
:104C20000A900AA817F024F8CDE93C013CA941F606
:104C30009830304417F0B1F8002041F6B031705090
:104C4000002041F6B83170500020059005A916F5F6
:104C50000F7018F022FB16F5DE500CF0D2FB41F677
:104C60001030315816F5DE500CF008FC16F5C67001
:104C700017F0EBFC002801D0012000E0002016F521
:104C8000E051087041F63840304400220023C0E96A
:104C9000002316F5E25000220023C0E9002341F66C
:104CA0006C4030441CF0E6FA002041F65C41705044
:104CB000002041F68841705416F57A7018F064FAB5
:104CC00041F69040304480ED000B16F57C7018F0F2
:104CD0005BFA41F69840304480ED000B41F690209D
:104CE000304400220023C0E90023012142F2C80021
:104CF00030441CF0DAFA16F5537017F0A6FC0028C1
:104D000001D0012000E00020C0B2002838D018F007
:104D1000C9F9DFF828191AF094FDDFF814191AF010
:104D2000F5FE16F1CC0018F02FFA51EC100B16F529
:104D3000D652D2E900231BF0B5FF13D316F1CC00F5
:104D400018F022FA51EC100B41F6B8223244D2E9A5
:104D500000231BF0A7FF01D3012000E0002090F00A
:104D6000010000E00120C0B2002804D0012041F67B
:104D7000742170541AE0022041F67421705415E039
:104D800018F090F9DFF8E81D1AF05BFDDFF8A018C5
:104D90001AF0BCFE16F52D7017F046FC0100C9B2E2
:104DA00030000CF0FFFA41F67421705418F07AF9D3
:104DB000DFF8C01D1AF045FD41F67421715C1CF04E
:104DC000D1F941F67420305C002813D001281CD0A2
:104DD000022825D004282ED038E000BF24DD0608A4
:104DE000E88E0608548F0608E4D40608C0BE0608FC
:104DF00070E9060818F056F9DFF8801D1AF021FD59
:104E0000DFF82C181AF082FE2AE018F04BF9DFF8D0
:104E1000701D1AF016FDDFF818181AF077FE1FE063
:104E200018F040F9DFF85C1D1AF00BFDDFF80018F0
:104E30001AF06CFE14E018F035F9DFF84C1D1AF08A
:104E400000FDDFF8EC171AF061FE09E018F02AF90E
:104E5000DFF8381D1AF0F5FCDFF8D4171AF056FE0B
:104E600016F500501CF027FA012042F68811705404
:104E700042F68810315C16F5DE500CF0A4FB1421CC
:104E800016F5DE500CF00EFC002016F5E55108700A
:104E9000002041F6A1417054012041F66A2170546E
:104EA00006F076B930001BF023FFC0B2002801D015
:104EB000012000E00020C0B2002823D041F6583085
:104EC000305C00280FD0002141F6280030440DF05E
:104ED0008BFC42F2A800304490ED000B41F2D04030
:104EE00030440FF0DCFE002116F5D0500DF02AFD05
:104EF000002141F6D80030440DF076FC022041F646
:104F00006A21705406F044B930001BF0F1FEC0B2C3
:104F1000002801D0012000E00020C0B2002840D0CD
:104F2000012041F6E831705441F6F030304416F07B
:104F3000C0FF41F6B020305C002802D0012816D016
:104F40002BE018F0AFF8DFF8941D1AF07AFCDFF8C8
:104F5000E0161AF0DBFD012116F5BE500DF0F2FC53
:104F6000012141F6981030440DF0ECFC15E018F0EA
:104F700099F8DFF86C1D1AF064FCDFF8B4161AF02B
:104F8000C5FD012141F2587030440DF0DBFC0121D8
:104F900041F6301030440DF0D5FC032041F66A2173
:104FA000705406F0F5B830001BF0A2FEC0B2002825
:104FB00001D0012000E00020C0B200283ED041F620
:104FC0006860304416F0F4FE16F5017018F0C0F871
:104FD00000EE100AB8EE400A10EE100A1CF086F936
:104FE000DFF8002DDFF8003D17F052F81CF0A2F9B1
:104FF00008EE100A18F056F80400022148A818F02C
:105000008BF8DDE94801CDE9CA01CAA9200018F0F2
:105010008FF818F047F8DFF8D41C1AF012FCB0EE45
:10502000480A1CF0BBF9D9A11AF00BFCDFF80016F6
:105030001AF06CFD042041F66A21705406F0A8B8FD
:1050400041F66860304416F0C0FEC0B2002801D0BE
:10505000012000E00020C0B200283FD018F022F864
:10506000DFF88C1C1AF0EDFBDFF8C4151AF04EFDCA
:1050700041F67420305C012804D041F67420305C85
:10508000042804D1052041F66A21705426E041F637
:105090004C3030441CF0F3F900281BD141F6B0200D
:1050A000305C002816D142F6901030441CF0F7F91D
:1050B000002801D0012000E00020C0B2002804D068
:1050C0000B2041F66A21705408E01B2041F66A214A
:1050D000705403E01E2041F66A21705406F058B85F
:1050E00041F2304030440EF005F8C0B2002801D043
:1050F000012000E00020C0B200284FD041F6B020CF
:10510000305C002802D0012811D02AE041F6B820F6
:10511000304490ED001B16F5D65090ED000B11F0C9
:10512000EFFB41F69820304480ED000B19E041F68A
:105130006C4030441CF0B5F90400641E210041F6B7
:105140006C4030441CF0BDF990ED060B1CF0C8F922
:1051500051EC100B91F0004141F698223244C2E923
:10516000000141F608303044D0E9002341F23040DC
:1051700030440DF07FFF41F69820304490ED000B55
:1051800041F2304030440DF069FE41F2D0403044ED
:105190001CF06CF8062041F66A21705405F0F8BF47
:1051A00041F2304030440DF0A5FFC0B200280CD0D1
:1051B00041F2D04030441BF0A5F9012801D0012074
:1051C00000E0002090F0010000E00020C0B20028C4
:1051D00000F0F98016F5E7510DF5ED600EF098F846
:1051E00001208DF889070DF5ED6141F2D040304482
:1051F0000FF04CF916F5806017F0C6FF41F61870F5
:10520000304480ED000B16F56A7017F089F941F60D
:105210001271705216F56C7017F082F941F6147124
:10522000705216F5507017F010FA002801D00120C6
:1052300000E0002042F250017054002141F2D040C1
:1052400030440EF09FF9B0EE408AF0EE608A41F6ED
:1052500018703044D0E9002351EC180B16F018FFF9
:105260001CF072F90400CDF86C470DF5ED6141F2C8
:10527000D04030440FF00AF900220DF5ED6141F203
:10528000D04030440FF03CF9DDF86C0742F2980151
:10529000705042F2980030581BF070FD53EC182B00
:1052A00016F0E8FF42F290023244C2E9000141F6F2
:1052B00018703044D0E9000142F290023244D2E941
:1052C00000231BF06BFDCDE9160117F0EBFEDFF8B4
:1052D000F81D1AF0B6FA17F0E5FED5491AF016FCDB
:1052E0000DF5ED62012141F2D04030440FF038FA63
:1052F00017F0D8FEDFF8D41D1AF0A3FA17F0D2FE8B
:10530000CA491BF0EBFEDFF8C81D1BF0E7FE41F6B3
:105310001871314491ED000B1BF0B1FD17F0C2FE86
:10532000C0A11AF08EFAC2491AF0F0FBDDE91601AD
:10533000002200231BF0B6FC12D817F0B3FEDFF8F2
:10534000941D1AF07EFABA491AF0E0FB41F2D040FF
:1053500030440EF099F8082041F66A21705432E08A
:1053600016A81CF005F9CDE93A013AA941F66860A2
:10537000304416F012FD41F66860304416F018FD16
:1053800017F090FEDFF8501D02E000BF2063000020
:105390001AF057FA17F086FEA4491BF09FFEDFF8BB
:1053A000301D1BF09BFE9DED160B1BF068FD17F0EA
:1053B00079FE9CA11AF045FA9D491AF0A7FB072037
:1053C00041F66A21705405F0E3BE00BF0000F03FD3
:1053D000788F060841F66860304416F0F6FCC0B2DB
:1053E000002801D0012000E00020C0B2002808D031
:1053F00041F2D04030440EF047F8082041F66A21CF
:10540000705405F0C5BE41F2D04030441BF07AF82C
:10541000012801D1012000E00020C0B2002800F0E6
:1054200029810DF5366141F2D04030440FF014FC73
:1054300041F6284030444DF804CD0DF5006C9CED4C
:10544000D90B5DF804CB80ED000B42F288003044AC
:105450004DF804CD0DF5006C9CEDDB0B5DF804CB35
:1054600080ED000B17F01EFE70491BF037FEDFF8D1
:10547000601C1BF033FE0400002148A817F04CFE0E
:10548000DDE94801CDE9C801C8A9200017F050FEA8
:1054900017F008FEDFF8441C1AF0D3F917F002FEEB
:1054A00041F69821314491ED000B1BF0E8FC604976
:1054B0001AF02CFB17F0F6FD0400072148A817F09E
:1054C0002BFEDDE94801CDE9C601C6A9200017F091
:1054D0002FFE17F0E7FDDFF8081C1AF0B2F917F0FD
:1054E000E1FD41F62841314491ED000B1BF0C7FC72
:1054F00017F0D8FDC1A11AF0A4F94D491AF006FB26
:1055000017F0D0FDDFF8DC1B1AF09BF917F0CAFD8D
:10551000040042F288003044D0E900230020DFF884
:10552000C81B16F0B5FD41EC100B20001BF0A7FCCA
:1055300017F0B8FDDFF8B41B1AF083F93C491AF0F4
:10554000E5FA17F0AFFDDFF8A81B1AF07AF917F0AB
:10555000A9FDDDF8881B1AF06FFA17F0A3FD344996
:105560001AF0D4FA42F25000305C00286DD042F2BA
:105570002800305C002863D041F69820304490ED3C
:10558000001B41F62840304490ED000B16F500500A
:105590001CF010F841F628403044D0E90001002208
:1055A00000231CF01BF816D241F668303044D0E9D5
:1055B00000010022DFF83C3B16F05CFE41F6982229
:1055C0003244D2E900231BF0CDFC41F6982232444C
:1055D000C2E9000117E041F668303044D0E900012B
:1055E0000022DFF8103B16F045FE02000B0041F6EA
:1055F00098203044D0E900011BF0D0FB41F69822FE
:105600003244C2E9000141F69820304490ED000B8D
:1056100041F2304030440DF021FC092041F66A216E
:10562000705427E020F100009C8F0608A3CC0608E8
:10563000417D0608D4BE06081885060820A606087F
:10564000132041F66A21705414E041F6683030446A
:10565000D0E9002341F670303044D0E9000116F063
:1056600017FD41F678323244C2E90001132041F6B9
:105670006A21705405F08CBD41F2304030440DF089
:1056800039FDC0B2002801D0012000E00020C0B2E6
:10569000002808D041F2D04030440DF0F5FE0A2039
:1056A00041F66A21705405F073BD41F2D040304498
:1056B0001AF028FF012801D1012000E00020C0B22B
:1056C000002800F0868040F61831694441F2D0404D
:1056D00030440FF0C1FA41F6284030444DF804CD73
:1056E0000DF5006C9CEDC70B5DF804CB80ED000B55
:1056F00017F0D8FCDFF8001A1BF0F0FCDFF8D01927
:105700001BF0ECFC0400002148A817F005FDDDE9C2
:105710004801CDE9C401C4A9200017F009FD17F024
:10572000C1FCDFF8D8191AF08CF817F0BBFC41F671
:105730009821314491ED000B1BF0A1FBDFF8C0195B
:105740001AF0E4F917F0AEFC0400072148A817F09E
:10575000E3FCDDE94801CDE9C201C2A9200017F050
:10576000E7FC17F09FFCDFF89C191AF06AF817F0B5
:1057700099FC41F62841314491ED000B1BF07FFB71
:1057800017F090FC1DA11AF05CF8DFF874191AF0FC
:10579000BDF941F69820304490ED001B41F62840B9
:1057A000304490ED000B16F500501BF003FF16F58A
:1057B00000501BF02DFF41F67830304442F22001BA
:1057C000314491ED000B80ED000B132041F66A216E
:1057D000705405F0DDBC41F2D04030441AF092FE26
:1057E000012801D1012000E00020C0B2002816D01D
:1057F00017F058FCDFF8101902E000BF20C20000CB
:105800001AF01FF8DFF8F8181AF080F941F2D040CA
:1058100030440DF039FE0C2041F66A21705405F039
:10582000B7BC41F2D04030441AF06CFE012801D1DF
:10583000012000E00020C0B2002800F081800DF5BA
:105840002D6141F2D04030440FF006FA4DF804CDFE
:105850000DF5006C9CEDB58B5DF804CB17F022FCC8
:105860000400072148A817F057FCDDE94801CDE9FD
:10587000C001C0A9200017F05BFC17F013FCDFF893
:10588000841819F0DEFF17F00DFCB0EE480AF0EEB8
:10589000680A1BF0F4FA17F005FCB7A119F0D1FF64
:1058A000DFF85C181AF032F941F67420305C0128F8
:1058B00004D041F67420305C04280ED117F0F2FBBE
:1058C000DFF8481819F0BDFFDFF834181AF01EF998
:1058D0000D2041F66A21705432E09DF8100B00282B
:1058E00014D017F0DFFBDFF84C1E19F0AAFF17F0F9
:1058F000D9FBDFF8441E19F0A4FFDFF804181AF0F2
:1059000005F90D2041F66A21705419E017F0CAFB21
:10591000DFF8281E19F095FF17F0C4FBDFF8201EF2
:1059200019F08FFF17F0BEFBDFF8181E19F089FF82
:10593000DFF8CC171AF0EAF81B2041F66A21705400
:1059400005F026BC41F2304030441BF0D1FB16F587
:10595000D45041F69821314491ED000B80ED000BBD
:1059600041F68820304416F5D55191ED000B80EDBD
:10597000000B002041F66C217050132041F670217D
:10598000705041F2304030440DF068F9112041F67A
:105990006A21705405F0FCBB41F2304030440DF0F8
:1059A000A9FBC0B2002801D0012000E00020C0B255
:1059B00000280CD016F5D45090ED000B41F2304089
:1059C00030440DF04BFA122041F66A21705405F074
:1059D000DFBB41F2304030440DF08CFBC0B20028F8
:1059E00001D0012000E00020C0B2002803D00E202A
:1059F00041F66A21705405F0CBBB41F2D0403044EF
:105A00001AF080FD012801D1012000E00020C0B281
:105A1000002808D041F2D04030440DF035FD0F2071
:105A200041F66A21705405F0B3BB41F2D0403044D6
:105A30001AF068FD012801D1012000E00020C0B269
:105A4000002803D0102041F66A21705405F0A0BB55
:105A500040F68821694441F2D04030440FF0FCF810
:105A600041F6284030444DF804CD0DF5006C9CED16
:105A7000A30B5DF804CB80ED000B41F66C20305891
:105A8000401CCDF8900616F5D450D0E9000117F06F
:105A90004DFDCDF8940641F688203044D0E9000150
:105AA0001BF052FDCDF8980641F62840304490EDA9
:105AB000000B4DF804CD0DF5806C8CEDA90B5DF855
:105AC00004CB0DF50063D3E9A4230020DFF81816FA
:105AD00016F0DEFA41EC180B51EC180B31F00041D6
