:020000040800F2
:1000000080CB00205D4B0608F9690208096A0208E6
:10001000196A0208296A0208396A02080000000009
:10002000000000000000000000000000496A020813
:10003000596A020800000000696A0208796A020829
:10004000F56D0208F56D0208F56D0208F56D020800
:10005000F56D0208F56D0208896A0208F56D02085F
:10006000F56D0208A56A0208F56D0208F56D020833
:10007000F56D0208F56D0208F56D0208F56D0208D0
:10008000F56D0208F56D0208F56D0208F56D0208C0
:10009000F56D0208F56D0208F56D0208C16A0208E7
:1000A000F56D0208556B0208F56D0208F56D020842
:1000B000F56D0208956B0208F56D0208F56D0208F2
:1000C000F56D0208F56D0208F56D0208F56D020880
:1000D000F56D0208156D0208256D0208356D0208E0
:1000E000A56B0208F56D0208F56D02084F6C020859
:1000F000816C0208F56D0208B56C0208F56D020806
:10010000F56D0208456D0208F56D0208F56D0208EF
:10011000556D0208656D0208F56D0208F56D02085F
:10012000756D0208856D0208956D0208A56D0208BF
:10013000F56D0208F56D0208F56D0208F56D02080F
:10014000F56D0208F56D0208F56D0208C56D02082F
:10015000F56D0208B56D0208F56D0208D56D02084F
:10016000F56D0208F56D0208F56D0208F56D0208DF
:10017000F56D0208E56D0208F56D0208F56D0208DF
:10018000F56D020880B516480078002806D10021D8
:10019000144811F031FD012011490870124800780F
:1001A000002806D10021114811F026FD01200E493A
:1001B00008700F480078002806D100210D4811F082
:1001C0001BFD01200A4908700B480078002806D161
:1001D00000210A4811F010FD01200749087001BDF7
:1001E000F79A0020B09A0020F89A0020B89A0020D0
:1001F000F99A0020B49A0020FA9A0020AC9A0020C4
:100200002DE9F8432DED048BEAB0040089469046B1
:10021000C4F80090002300220021201D11F0EEFC04
:10022000C4F8F089206810F5A47104F6F81012F0F3
:100230008FFF206810F590700090206810F588738B
:10024000206810F58072012114F5246017F0CDF8B4
:1002500004F6882017F046FB04F6C82017F064FC6B
:1002600004F6E42017F086FC14F52F6017F082FCEA
:1002700004F6FC2017F07EFC04F6083017F084FC2E
:10028000002104F6983017F01BFD04F69C3017F09F
:1002900090FD002204F6A831201D17F07BFE800897
:1002A0000200206810F1980104F6A83018F0A1FEB1
:1002B0000120269026A819F0DDF9CDE9040140209F
:1002C000029000200190012000904FF4805320689C
:1002D00010F1D002206810F54C7114F547601AF047
:1002E0002CFE0023002214F5476114F55D601AF01E
:1002F0007DFE14F55D6214F5476114F59F500BF017
:100300004BF900200290206810F5EA7001902068F7
:1003100010F5E2700090206810F5DA73206810F58F
:10032000D272206810F5417141F2E83020441BF090
:10033000F9F941F2E83004EB000141F23040204489
:1003400012F0EAFB206810F55773206810F5AA72C6
:10035000206810F5367141F2D040204412F0B9FF08
:100360006420259025A81BF043FCCDE92E012EA981
:1003700041F2187020441BF00AFD4FF4FA702490EB
:1003800024A81BF035FCCDE92C012CA941F22870E2
:1003900020441BF0FCFC4FF47A70239023A81BF040
:1003A00027FCCDE92A012AA941F2387020441BF02C
:1003B000A3FC002041F250716054DFF80C1C63A8CC
:1003C0001BF0C4FD6420229022A81BF011FC002227
:1003D0000492CDE902010020009063AB206810F583
:1003E0000172206810F5057141F25870204412F036
:1003F00028FA63A81BF0BAFDDFF8D01B5CA81BF03D
:10040000A5FD6420219021A81BF0F2FB002204929C
:10041000CDE90201002000905CAB206810F5097264
:10042000206810F50D7114F5BE5012F00AFA5CA8A0
:100430001BF09CFDDFF8981B55A81BF087FD0123DE
:100440000200206810F5117141F62800204412F0D6
:100450005DF955A81BF08AFDDFF8781B4EA81BF04C
:1004600075FD00230200206810F5157114F5C450C5
:1004700012F04CF94EA81BF079FDDFF85C1B47A881
:100480001BF064FD00230200206810F5197141F68D
:10049000D800204412F03AF947A81BF067FDDFF8B6
:1004A0003C1B40A81BF052FD6420209020A81BF0AC
:1004B0009FFB00220492CDE902010020009040AB96
:1004C000206810F51D72206810F5217141F630107A
:1004D000204412F0B6F940A81BF048FDDFF8001BDD
:1004E00039A81BF033FD64201F901FA81BF080FB70
:1004F00000220492CDE902010020009039AB20686F
:1005000010F52572206810F5297141F698102044E5
:1005100012F097F939A81BF029FDDFF8C81A32A8A4
:100520001BF014FD64201E901EA81BF061FB00222E
:100530000492CDE902010020009032AB206810F552
:100540002D72206810F5317114F5D05012F079F940
:1005500032A81BF00BFD002041F6682160540020FA
:1005600041F669216054002041F66A216054002060
:1005700041F66C216050142041F670216050022039
:1005800041F674216054032041F678216050012027
:1005900041F67C21605014F5D45000220023C0E9BC
:1005A000002341F68820204400220023C0E90023D4
:1005B00041F69020204400220023C0E9002341F6A8
:1005C0009820204400220023C0E9002312279FED39
:1005D0001A8B3E00002F00D576429FED199BF00745
:1005E00007D553EC192B51EC180B1BF0D7FC41EC41
:1005F000190B7608002E08D053EC182B51EC180B71
:100600001BF0CCFC41EC180BE9E7002F20D553EC94
:10061000192B002000211BF0A3FD02D19FED0A9BA6
:1006200016E00020DFF8F41E53EC192B1BF0A8FD98
:1006300041EC190B0CE000BF00000000000000407E
:10064000000000000000F03F000000000000F07F0C
:1006500014F5D55080ED009B41F6A82020440022DF
:100660000023C0E90023002041F6B021605441F688
:10067000B82020440022DFF8A43EC0E9002314F58E
:10068000D6500022DFF8943EC0E9002341F6C8208E
:10069000204400220023C0E9002341F6D02020445A
:1006A00000220023C0E9002341F6D8202044002284
:1006B0000023C0E9002314F5D75000220023C0E92D
:1006C000002341F6E820204400220023C0E9002353
:1006D00041F6F020204400220023C0E900236420DA
:1006E0001D901DA81BF084FA41F6F8222244C2E9AD
:1006F000000164201C901CA81BF07AFA14F5D85253
:10070000C2E9000165201B901BA81BF071FA41F69D
:1007100008322244C2E90001052041F61031605040
:10072000002041F61431605041F6183020441BF08F
:100730004AFE41F6243020441BF045FE41F630309D
:10074000204400220023C0E9002341F63830204431
:1007500000220023C0E9002314F5DA500022002310
:10076000C0E90023012041F64831605441F64C3085
:1007700020441BF030FE002041F658316054002028
:1007800041F65931605414F5DB5000220023C0E9D2
:10079000002341F668302044DFF8842DDFF8843DE3
:1007A000C0E9002341F6703020440022DFF86C3DA0
:1007B000C0E9002341F67830204441F668312144F5
:1007C00091ED000B80ED000B002014F5DC5108705A
:1007D000002041F68131605441F6883020440022E7
:1007E0000023C0E90023002041F69031605400202E
:1007F00019904FF47A701A901AAA19A941F69830F4
:1008000020441BF043FA002041F6B0316050002034
:1008100041F6B4316050002041F6B83160500020FC
:1008200041F6BC31605014F5DE5010F095FD00200B
:1008300041F6E83160544FF47A70189018A81BF014
:10084000D7F9CDE9280128A941F6F03020441BF062
:100850009EFA002014F5E051087014F5E1500022D2
:100860000023C0E9002341F6284020440022002351
:10087000C0E9002341F63040204400220023C0E9B3
:10088000002341F63840204400220023C0E9002321
:1008900014F5E25000220023C0E90023002041F6B5
:1008A0004841605441F65040204400220023C0E9F2
:1008B0000023002041F658416050002041F65C4181
:1008C0006050012014F5E3510860052041F66441B1
:1008D0006050002041F66841605041F66C40204471
:1008E0001BF081FD41F6784020441BF06CFD022096
:1008F00041F684416050002041F68841605441F641
:10090000904020440022DFF8143CC0E9002341F667
:10091000984020440022DFF8043CC0E90023002076
:1009200014F5E5510870002041F6A1416054002003
:1009300041F6D8416054002041F610516054002027
:1009400041F611516054002041F648516054002096
:1009500041F6B0516054002041F61861605441F6F0
:10096000F82004EB000141F6686020441BF0C4F954
:1009700041F6D86020441BF03EFD002041F6107186
:10098000605441F61870204400220023C0E900237F
:1009900014F5F95000220023C0E9002341F6287025
:1009A000204400220023C0E9002341F63070204497
:1009B00000220023C0E9002341F6387020440022C1
:1009C0000023C0E9002314F5FB5000220023C0E9F6
:1009D000002341F66870204400220023C0E9002370
:1009E0006420179017A81BF003F941F67072224497
:1009F000C2E9000141F67870204400220023C0E9DA
:100A000000230A2014F5FC51086004F6FC701BF06A
:100A10000DFD060004F6FC701BF008FD80B202001C
:100A2000B6B2310014F5FD501BF011FD14F5FF5066
:100A300000220023C0E9002341F6E8702044002290
:100A40000023C0E9002341F6F07020440022002377
:100A5000C0E90023642041F6F8716050002042F2A2
:100A600050016054002042F25101605478201690E9
:100A700016A818F0FFFD42F258022244C2E9000114
:100A80004FF41670159015A818F0F4FD42F26002AC
:100A90002244C2E9000142F2600004EB000142F28C
:100AA000680020441BF028F9012014F50251087059
:100AB00042F28800204400220023C0E9002342F2D1
:100AC0009000204400220023C0E90023002042F2CD
:100AD0009801605042F2A0002044DFF84C2ADFF871
:100AE0004C3AC0E9002342F2A80020440022DFF87B
:100AF0002C3AC0E9002342F2B00020440022002337
:100B0000C0E9002342F2B80020440022DFF80C3A8A
:100B1000C0E90023012014F5035108604FF47A70F6
:100B200042F2C401605004F2FC70109041F22420A3
:100B300020440F9004F2F4700E9041F21C202044E7
:100B40000D9004F2EC700C9004F2E4700B9041F202
:100B5000142020440A9004F2DC70099004F2D4704E
:100B6000089004F2CC70079004F2C470069004F26E
:100B7000BC70059004F2B470049004F2AC70039061
:100B800004F2A470029004F29C700190206810F5A9
:100B900084600090206810F58263206810F5806200
:100BA000206810F57C7142F2C800204414F0CAF9A4
:100BB00042F2084020440022DFF86039C0E90023F7
:100BC00042F210402044DFF86029DFF8D03EC0E94F
:100BD000002342F2184020440022DFF84039C0E9E7
:100BE000002342F22040204400220023C0E90023D9
:100BF00042F2284020440022DFF8A43EC0E900234E
:100C00009FED671B9FEDEE0B04F2AC7142F230409A
:100C1000204414F0B9FE04F674000E9004F6680047
:100C20000D9004F65C000C9004F64C000B9004F65A
:100C300044000A9004F63C00099004F63400089041
:100C400004F62C00079004F62400069004F61C001D
:100C5000059004F61400049004F60C00039004F6CA
:100C60000400029000200190206810F5747000903C
:100C700042F21840204490ED002B42F210402044F4
:100C800090ED001B42F20840204490ED000B4623FB
:100C9000206810F5587242F2304004EB000142F235
:100CA000484020441BF0EDFB42F2484004EB0001B9
:100CB00042F2A840204414F0C5FE41F284202044B2
:100CC000109041F2782020440F9041F26C20204493
:100CD0000E9041F25C2020440D9041F254202044BB
:100CE0000C9041F24C2020440B9041F244202044CF
:100CF0000A9041F23C202044099041F234202044E3
:100D0000089041F22C202044079004F674000690CD
:100D100004F66800059004F65C00049004F63C00BC
:100D2000039004F63400029004F62C00019004F6BF
:100D30002400009004F61C0304F6140204F60401D7
:100D400042F27860204415F05FFA42F2C860204415
:100D50000022DFF8C837C0E9002342F2D060204407
:100D6000DFF8C427DFF8343DC0E9002342F2D86041
:100D700020440022DFF8A437C0E9002342F2E060FB
:100D8000204400220023C0E9002342F2E86020440E
:100D90000022DFF80C3DC0E900239FED931B03E028
:100DA00000000000008041409FED850B04F29C7123
:100DB00042F2F060204414F0E7FD14F50F600E904D
:100DC00004F6E4000D9004F6D8000C9004F6C80078
:100DD0000B9014F50C600A9004F6B800099014F515
:100DE0000B60089004F6A800079014F50A600690BE
:100DF00004F69800059014F50960049004F6880044
:100E0000039014F50860029000200190206810F50E
:100E10007870009042F2D860204490ED002B42F2AE
:100E2000D060204490ED001B42F2C860204490ED59
:100E3000000B4523206810F5667242F2F06004EB67
:100E4000000142F2087020441BF01BFB42F20870C4
:100E500004EB000142F26870204414F0F3FD41F20B
:100E6000E8202044109041F2DC2020440F9041F211
:100E7000D02020440E9014F596500D9041F2B820E9
:100E800020440C9041F2B02020440B9041F2A82065
:100E900020440A9014F59550099041F2982020447E
:100EA000089041F290202044079014F50F600690BE
:100EB00004F6E400059004F6D800049004F6B800A7
:100EC000039014F50B60029004F6A800019014F54D
:100ED0000A60009004F6980314F5096214F508619D
:100EE00042F63810204415F08FF9002042F68811A0
:100EF000605414F55D62211D42F69010204410F0FC
:100F000095FB200000F0D4FD200000F0E6FD1BF072
:100F10000BFB149004F658701BF00CFB8DF850007E
:100F200014F576601BF006FB8DF8510004F668702E
:100F30001BF000FB8DF8520014F577601BF0FAFAF5
:100F40008DF853001BF0F0FA139004F678701BF044
:100F5000F1FA8DF84C0014F578601BF0EBFA8DF87F
:100F60004D0004F688701BF0E5FA8DF84E0014F57C
:100F700079601BF0DFFA8DF84F001BF0D5FA129064
:100F800004F698701BF0D6FA8DF8480014F57A60D4
:100F90001BF0D0FA8DF8490004F6A8701BF0CAFACD
:100FA0008DF84A0014F57B601BF0C4FA8DF84B00F5
:100FB00004F6B8701BF0CFFA002819D0012518E00C
:100FC0000000000000002E404C4D0608544D06085D
:100FD0005C4D0608644D06086C4D0608744D060805
:100FE0007C4D0608844D0608000000000080464045
:100FF00000252800C0B20090129B139A1499206813
:10100000A0301BF02CFB206810F1A00111A813F0F8
:101010004DFE1BF0CDFF0600082168461CF002F8CB
:10102000DDE90001CDE9300130A930001CF006F8FF
:1010300014F55D601CF012F841F64831605441F639
:10104000483004EB000114F11C001CF016F804F603
:10105000D8501CF01FF814F5D65080ED000B14F595
:10106000D65114F1B4001CF03FF814F55E601CF08A
:1010700011F841F6B820204480ED000B41F6B8206D
:1010800004EB000114F1BC001CF02EF804F64871CA
:1010900014F1D4001CF035F814F5756114F1DC007E
:1010A0001CF02FF804F6E8501BF0D8FF0100C9B27D
:1010B00041F23040204411F005FF41F2304020441D
:1010C00011F090FF8DF801000DF1010114F5CC70C5
:1010D0001BF0D3FF14F55F601BF0C0FF41F67821D1
:1010E000605041F6782020588DF80000694614F5CC
:1010F000D0701BF0C2FF04F6F8501BF0AFFF0A904F
:101100000AA81AF075FD14F5D852C2E9000104F6D8
:10111000F85114F5FE701CF007F841F67070204489
:10112000D0E9002341F23040204411F063FF14F570
:1011300073601BF093FF099009A81AF059FD41F65E
:1011400008322244C2E9000114F5736114F5787085
:101150001BF0EAFF14F560601BF080FF089008A800
:101160001AF046FD41F6F8222244C2E9000114F5C6
:10117000606114F501701BF0D7FF04F608601BF0E6
:1011800089FF41F68830204480ED000B41F688301D
:1011900004EB000114F503701BF0A6FF14F5616069
:1011A0001BF0D4FF1BF0EEFF41F688322244C2E967
:1011B000000141F6883004EB000114F503701BF0C8
:1011C00093FF04F618601BF049FF41F610316050A0
:1011D00041F6103004EB000114F507701BF0E3FF3B
:1011E00020000AF017FC41F6A84004EB000141F290
:1011F000D040204413F00AF904F658601BF016F9A9
:1012000041F61271605241F6127004EB000114F5C0
:101210006A701BF0D5FF14F566601BF007F941F604
:101220001471605241F6147004EB000114F56C70F7
:101230001BF0C6FF04F6C47114F580601BF061FF5B
:1012400004F6C4701BF026FF41F61870204480EDB0
:10125000000B04F6CC7114F581601BF052FF04F60C
:10126000CC701BF017FF14F5F95080ED000B04F65D
:10127000D47114F582601BF044FF04F6D4701BF0A7
:1012800009FF41F62870204480ED000B04F6DC7164
:1012900014F583601BF035FF04F6DC701BF0FAFEDA
:1012A00041F63070204480ED000B41F23040204484
:1012B0001BF09EFF41F69860204480ED000B41F248
:1012C000304020441BF0E4FF14F5F55080ED000B96
:1012D00041F6A860204400220023C0E9002341F623
:1012E000B060204400220023C0E9002341F6B8602A
:1012F000204400220023C0E90023002014F5F65109
:101300000860002041F6C461605041F6C860204486
:1013100000220023C0E9002341F6D0602044824A25
:10132000DFF88037C0E9002304F6E47114F5856026
:101330001BF0E7FE04F6E4701BF0ACFE14F5FB5066
:1013400080ED000B04F6EC7114F586601BF0D9FEFD
:1013500004F6EC701BF09EFE41F66870204480EDB0
:10136000000B14F5FA5014F5FB5191ED000B80EDD4
:10137000000B41F64870204400220023C0E90023FE
:1013800041F65070204400220023C0E900230121CF
:1013900041F2D040204412F0B5F841F66870204484
:1013A000D0E9002351EC100B1AF0F8FD41F6587209
:1013B0002244C2E9000104F6F47114F589601BF0BF
:1013C000A0FE04F6F4701BF065FE41F67870204430
:1013D00080ED000B04F6FC701BF028F880B214F5C9
:1013E000FC51086041F68870204400220023C0E9C7
:1013F000002341F69070204400220023C0E900231E
:10140000012141F2D040204412F07CF841F678707E
:101410002044D0E9002351EC100B1AF0BFFD41F637
:1014200098722244C2E9000104F6FC7114F58E6042
:101430001BF082FF41F2140020441BF02BFE41F60A
:10144000E870204480ED000B41F6E870204490EDF8
:10145000000B20000AF024FA14F5FF5080ED000B79
:1014600041F6E87004EB000114F592601BF03CFEBD
:1014700014F5FF5114F591601BF036FE41F21C008B
:1014800020441BF007FE41F6F070204480ED000B75
:1014900041F6F07004EB000114F593601BF024FE9C
:1014A00041F2040020441BF045F8C0B215F0E7FA01
:1014B00014F50251087041F2040004EB000114F528
:1014C0008F601BF04CFF04F628601BF0E3FD41F633
:1014D0001840204480ED000B41F6184004EB000159
:1014E00014F55C701BF000FE14F567601BF0D2FD74
:1014F00041F67030204480ED000B41F6703004EB73
:10150000000114F570701BF0EFFD14F568601BF01E
:1015100022F800280CD001200BE000BF0000F03FB3
:10152000CDCCCCCCCC60B5409A9999999999D93FBA
:10153000002041F65831605441F65830215C14F1D6
:1015400060001BF01FFF04F68C601BF004F80028FD
:1015500001D0012000E0002014F5E051087014F5DE
:10156000E050017814F5C6701BF00CFF04F698608B
:101570001AF0F1FF002801D0012000E0002041F620
:101580005931605441F65930215C14F515701BF047
:10159000F9FE41F65930215C41F2587020441BF0AD
:1015A00007FF41F65930215C14F5BE501BF000FFD7
:1015B00041F65930215C41F6301020441BF0F8FE12
:1015C00041F65930215C41F6981020441BF0F0FEA2
:1015D00041F65930215C14F5D0501BF0E9FE04F6B9
:1015E000A4601AF0B8FF002801D0012000E000201C
:1015F00041F64841605441F64840215C14F51E70A4
:101600001BF0C0FE04F618701BF0A0FD41F67C2113
:10161000605041F67C2004EB000114F572701BF061
:10162000CAFE14F572601BF091FD14F5E3510860D9
:1016300014F5E3500068029002A914F574701BF0D1
:10164000BAFE04F628701BF081FD41F6644160503B
:1016500041F664402058019001A914F576701BF002
:10166000AAFE04F638701BF015FD41F690402044A8
:1016700080ED000B41F6904004EB000114F57A7008
:101680001BF032FD14F56B6114F521701BF0A0FE08
:1016900004F6C86114F544701BF09AFE14F544700A
:1016A0001AF059FF002801D0012100E00021C9B241
:1016B00041F2D04020441BF0AAFE14F574601BF0E8
:1016C000E9FC41F69840204480ED000B41F698403B
:1016D00004EB000114F57C701BF006FD14F56E6040
:1016E0001AF028FF0100C9B220000FF01BFE41F6DE
:1016F0007421605414F56E6114F52D701BF02FFEEB
:1017000004F6F46114F54D701BF062FE14F570617F
:1017100014F550701BF05CFE41F2E41020441BF005
:10172000B9FC42F2A000204480ED000B41F2E4102D
:1017300004EB000114F598601BF0E3FC41F2EC109F
:1017400020441BF0A7FC42F2A800204480ED000BCF
:1017500041F2EC1004EB000114F599601BF0D1FC90
:1017600041F2F41020441BF095FC42F2B0002044FA
:1017700080ED000B41F2F41004EB000104F27C70E8
:101780001BF0BFFC41F2FC1020441BF083FC42F232
:10179000B800204480ED000B41F2FC1004EB000186
:1017A00004F284701BF0ADFC41F2042020441BF0D5
:1017B000CDFC14F50351086041F2042004EB000154
:1017C00004F28C701BF026FE41F20C2020441BF02A
:1017D00061FC51EC100B1BF02FFE42F2C401605073
:1017E00041F20C2004EB000104F294701BF089FC20
:1017F00041F2D83004EB000114F1CC001BF081FC65
:1018000004F60C7114F553701BF0E2FD41F608402C
:10181000204400220023C0E9002341F61040204468
:1018200000220023C0E9002304F628601BF032FCEC
:1018300041F61840204480ED000B14F560601BF069
:101840000DFC079007A81AF0D3F941F6F8222244BC
:10185000C2E9000104F6587114F59D601BF07FFD8C
:1018600014F5766114F59E601BF079FD04F668713D
:1018700014F59F601BF073FD14F5776114F5A060FB
:101880001BF06DFD04F6787114F5A1601BF067FD87
:1018900014F5786114F5A2601BF061FD04F68871FF
:1018A00014F5A3601BF05BFD14F5796114F5A460D9
:1018B0001BF055FD04F6987114F5A5601BF04FFD63
:1018C00014F57A6114F5A6601BF049FD04F6A871C1
:1018D00014F5A7601BF043FD14F57B6114F5A860B7
:1018E0001BF03DFD04F6B87114F5A9601BF070FD06
:1018F00041F670702044D0E9002341F25870204432
:1019000010F0FCFF41F670702044D0E9002314F57C
:10191000BE5010F0F3FF41F670702044D0E9002370
:1019200041F62800204410F033FF41F67070204447
:10193000D0E9002314F5C45010F02AFF41F670706E
:101940002044D0E9002341F6D800204410F020FFC5
:1019500041F670702044D0E9002341F63010204455
:1019600010F0CCFF41F670702044D0E9002341F61E
:101970009810204410F0C2FF41F670702044D0E966
:10198000002314F5D05010F0B9FF04F6C47114F51B
:1019900080601BF0B6FB14F5246104F6C8201BF030
:1019A00068FD04F6882104F608301BF08FFD04F66C
:1019B000FC2104F608301BF08BFD04F6E42104F64C
:1019C00008301BF085FD14F52F6104F608301BF07C
:1019D0007FFD1420069006A81AF00AF902000B00F9
:1019E00004F608301BF07EFD1420059005A81AF0BF
:1019F000FFF802000B0004F608301BF07EFD4FF4E8
:101A0000FA70049004A81AF0F3F802000B0004F630
:101A100008301BF07DFD3220039003A81AF0E8F88F
:101A200002000B0004F608301BF07EFD78201BF04E
:101A300089FD0600231D04F6FC2204F6C8213000AF
:101A40001DF013FD010004F698301DF03AFE002150
:101A500004F6F81011F0BBFB1BF0AAFA12491DF0B6
:101A600046FE1BF0A5FA08211DF03CFF0F491DF0B2
:101A7000A3FF14F51F6104F6FC001BF094FB41F278
:101A8000F42004EB000104F604101BF04DFB2000D1
:101A90006AB0BDEC048BBDE8F28300009999A93FC0
:101AA000000039409999B93F5419060859E70508CB
:101AB00010B50400206810F5987104F6882015F020
:101AC000A6FF206810F59E7104F6882015F0B7FF78
:101AD00004F6882015F0D4FF10BD70472DE9F84FAB
:101AE0002DED0C8BADF5306DAAB0060030681BF003
:101AF00051F906F6A83017F09EFB16F5476019F06D
:101B000097F841F2E830304419F073FF41F2304069
:101B1000304411F0C1FA00240A2C06D241F2D04020
:101B2000304411F06DFE641CF6E741F25870304409
:101B300010F019FF16F5BE5010F015FF41F6280001
:101B4000304410F04CFE16F5C45010F048FE41F63B
:101B5000D800304410F043FE41F63010304410F00D
:101B600002FF41F69810304410F0FDFE16F5D050FB
:101B700010F0F9FE06F6F81011F03EFB06F698306C
:101B80001DF020FF1DF016FD16F5246015F006FD72
:101B900006F608301DF038FF42F2C800304413F05A
:101BA000CBFB42F2A840304414F05FF942F2687077
:101BB000304414F05AF906F6E4201EF07AF80028B2
:101BC00001D0012000E00020C0B2002804D0002194
:101BD00006F6F81011F0FBFA41F2187030441AF0D2
:101BE000F7F8C0B2002801D0012000E00020C0B208
:101BF000002801F05D810021301D1EF060F83000EA
:101C00000AF000FB41F6D841705430000AF075FC30
:101C1000050041F61050305C002802D141F610500A
:101C2000355430000AF0E4FD040041F61150305CF8
:101C3000002802D141F61150345430000AF0A6FFBA
:101C400041F64851705430000BF017F941F6B0518D
:101C5000705430000BF08AFA41F61861705430006D
:101C60000AF082FA41F66820305C012800F05B81BE
:101C700016F5DA701BF00EFAB0EE408AF0EE608ACC
:101C800041F23040304411F051F953EC182B51EC33
:101C9000100B1AF065FA01D0012000E00020C0B25C
:101CA00000280BD041F23040304411F03FF98DED67
:101CB000460B46A916F5DA701BF016FA16F5DE701B
:101CC0001BF044FA050041F23040304411F082F933
:101CD000854201D0012000E00020C0B200280AD0D7
:101CE00041F23040304411F075F9159015A916F500
:101CF000DE701BF060FB16F5D4701AF02CFC0500AA
:101D000041F23040304410F0B0FFC0B2854201D003
:101D1000012000E00020C0B200280AD041F230408B
:101D2000304410F0A2FF0100C9B216F5D4701BF0C8
:101D300029FB16F5CC701AF0FDFB050041F230408E
:101D4000304411F04FF9EDB2C0B2854201D001200C
:101D500000E00020C0B200280BD041F230403044F7
:101D600011F040F98DF8100004A916F5CC701BF0A5
:101D700084F916F5AE701AF0EEFB050041F25870CA
:101D8000304410F0A8FD854201D0012000E0002081
:101D9000C0B2002809D041F25870304410F09BFDC9
:101DA000010016F5AE701BF0EDFA16F5B4701AF0DE
:101DB000D2FB050016F5BE5010F08DFD854201D016
:101DC000012000E00020C0B2002808D016F5BE5067
:101DD00010F081FD010016F5B4701BF0D3FA16F572
:101DE0009C701AF0B8FB050041F62800304410F052
:101DF000C4FC854201D0012000E00020C0B20028D0
:101E000009D041F62800304410F0B7FC010016F567
:101E10009C701BF0B7FA16F1E4001AF09CFB050069
:101E200016F5C45010F0A9FC854201D0012000E055
:101E30000020C0B2002808D016F5C45010F09DFC58
:101E4000010016F1E4001BF09DFA16F1F0001AF003
:101E500082FB050041F6D800304410F08EFC85422C
:101E600001D0012000E00020C0B2002809D041F6D6
:101E7000D800304410F081FC010016F1F0001BF096
:101E800081FA16F1FC001AF066FB050041F63010ED
:101E9000304410F020FD854201D0012000E00020F8
:101EA000C0B2002809D041F63010304410F013FDC4
:101EB000010016F1FC001BF065FA16F584701AF0AB
:101EC0004AFB050041F69810304410F004FD8542AD
:101ED00001D0012000E00020C0B2002809D041F666
:101EE0009810304410F0F7FC010016F584701BF0D8
:101EF00049FA16F58A701AF02EFB050016F5D05037
:101F000010F0E9FC854201D0012000E00020C0B2C1
:101F1000002808D016F5D05010F0DDFC010016F5B1
:101F20008A701BF02FFA41F2D04030441DF0E2FEDF
:101F3000C0B2002801D0012000E00020C0B200287B
:101F400000F0C48016F5F15141F2D040304412F057
:101F500043FE41F6486006EB000106F6E8101BF070
:101F600022F941F628603044D0E9002300205F497F
:101F70001AF014F841EC180B51EC180B31F0004139
:101F800041EC100B8DED2C0B2CA916F596601BF077
:101F9000ABF841F6306006EB000116F59C601BF0D3
:101FA0000AFA41F6386006EB000116F594601BF062
:101FB0009BF816F5F250D0E9002300204B4919F0A8
:101FC000EDFFCDE92A012AA916F595601BF08CF8E2
:101FD00041F66820305C00280DD041F66920305C65
:101FE000022808D041F62840304416F5F15191ED11
:101FF000000B80ED000B41F62860304490ED008B23
:1020000051EC180B31F0004141EC100B42F69010EE
:1020100030440FF08FFB41F6D860305C002855D07B
:10202000002041F6D861705416F5F75116F5886016
:102030001BF05AF841F6E86006EB000116F58460E3
:102040001BF052F841F6F06006EB000116F58A60CD
:102050001BF04AF841F6F86006EB000116F58B60BC
:102060001BF042F841F6F060304490ED000B300078
:1020700009F080FB8DED280B28A916F58C601BF06C
:1020800033F841F6F860304490ED000B300009F071
:1020900071FB8DED260B26A916F58D601BF024F83B
:1020A00016F5F85116F587601BF01EF841F608701A
:1020B0003044D0E9002300200C4919F06FFFCDE92E
:1020C000240124A916F5F6701BF00EF816F5F2702F
:1020D0001AF0E0FF53EC102B41F628403044D0E9D1
:1020E00000011AF03DF803D0012002E080842E4167
:1020F0000020C0B200281BD041F6284006EB0001AA
:1021000016F5F2701AF0F0FF41F62840304490EDD9
:10211000000B41F6084030441EF091F816F5E150EE
:1021200080ED000B16F5E15116F55E701AF0DCFF3C
:1021300016F518701AF00FFA002801D0012000E0FF
:102140000020C0B2002827D0002116F518701BF01F
:1021500019F941F60840304441F62841314491EDE7
:10216000000B80ED000B41F61040304441F6284151
:10217000314491ED000B80ED000B16F5E15041F676
:102180002841314491ED000B80ED000B16F5E15133
:1021900016F55E701AF0A8FF16F190001AF0CAF951
:1021A00041F66821715CC0B2884201D0012000E094
:1021B0000020C0B200280AD041F66820305C8DF8BB
:1021C0000F000DF10F0116F190001AF056FF41F6C5
:1021D0006820305C00282CD141F66920305C022850
:1021E00027D116F5AC601AF0B6F9012801D101200B
:1021F00000E00020C0B200280CD0002116F5AC6031
:102200001BF0C0F8002106F254501BF0BBF8300060
:1022100008F0E2FF06F254501AF09DF9002801D1AF
:10222000012000E00020C0B2002802D0300009F0F8
:102230003CF816F11C001AF07DF9050016F55D60FA
:102240001AF00CFFEDB2854201D0012000E0002021
:10225000C0B2002809D016F11C001AF06BF91490D6
:1022600014A916F55D601AF09EFF16F1B4001AF07D
:1022700011FFB0EE408AF0EE608A06F6D8501AF0F0
:1022800009FF53EC182B51EC100B19F069FF01D02A
:10229000012000E00020C0B2002805D016F1B401F2
:1022A00006F6D8501AF02DFF16F1BC001AF0F2FE17
:1022B000B0EE408AF0EE608A16F55E601AF0EAFE33
:1022C00053EC182B51EC100B19F04AFF01D00120F0
:1022D00000E00020C0B2002805D016F1BC0116F5C0
:1022E0005E601AF00EFF16F1D4001AF0D3FEB0EEC5
:1022F000408AF0EE608A06F648701AF0CBFE53EC86
:10230000182B51EC100B19F02BFF01D0012000E02D
:102310000020C0B2002805D016F1D40106F648709E
:102320001AF0EFFE16F1DC001AF0B4FEB0EE408AAF
:10233000F0EE608A16F575601AF0ACFE53EC182BBF
:1023400051EC100B19F00CFF01D0012000E000202F
:10235000C0B2002805D016F1DC0116F575601AF040
:10236000D0FE16F5CC701AF0E5F8050006F6E85038
:102370001AF074FEEDB2854201D0012000E0002089
:10238000C0B2002809D016F5CC701AF0D3F813901B
:1023900013A906F6E8501AF006FF16F5D0701AF0E9
:1023A000C9F8050016F55F601AF058FEEDB28542D7
:1023B00001D0012000E00020C0B2002809D016F5AD
:1023C000D0701AF0B7F8129012A916F55F601AF0E3
:1023D000EAFE16F5FE701AF041FE050006F6F8500A
:1023E0001AF03CFE854201D0012000E00020C0B27E
:1023F000002805D016F5FE7106F6F8501AF094FE86
:1024000016F501701AF02AFE050016F560601AF044
:1024100025FE854201D0012000E00020C0B2002846
:1024200005D016F5017116F560601AF07DFE16F5FF
:1024300003701AF02FFEB0EE408AF0EE608A06F6C6
:1024400008601AF027FE53EC182B51EC100B19F012
:1024500087FE01D0012000E00020C0B2002805D096
:1024600016F5037106F608601AF04BFE16F50570B6
:102470001AF06CFE050016F561601AF067FE8542E1
:1024800001D0012000E00020C0B2002805D016F5E0
:10249000057116F561601AF0BDFF16F507701AF0A8
:1024A000DDFD050006F618601AF0D8FD854201D062
:1024B000012000E00020C0B2002805D016F5077109
:1024C00006F618601AF030FE16F55C701AF0E2FDA0
:1024D00053EC102B41F618403044D0E9000119F0BC
:1024E0003FFE01D0012000E00020C0B200280ED045
:1024F00016F55C701AF0CEFD41F61840304480EDC0
:10250000000B16F55C7106F628601AF0FAFD16F558
:1025100060701AF0A3FD050016F563601AF09EFDC9
:10252000854201D0012000E00020C0B2002805D083
:1025300016F5607116F563601AF0F6FD16F5627017
:102540001AF08CFD050006F638601AF087FD85420A
:1025500001D0012000E00020C0B2002805D016F50F
:10256000627106F638601AF0DFFD16F564701AF035
:1025700075FD050016F564601AF070FD854201D006
:10258000012000E00020C0B2002805D016F56471DB
:1025900016F564601AF0C8FD16F56A7019F046FF6A
:1025A000050006F6586019F041FFADB280B28542D1
:1025B00001D0012000E00020C0B2002805D016F5AF
:1025C0006A7106F658601AF0B7FE16F56C7019F0CD
:1025D0002DFF050016F5666019F028FFADB280B238
:1025E000854201D0012000E00020C0B2002805D0C3
:1025F00016F56C7116F566601AF09EFE16F5707091
:102600001AF048FDB0EE408AF0EE608A16F5676079
:102610001AF040FD53EC182B51EC100B19F0A0FDF3
:1026200001D0012000E00020C0B2002805D016F53E
:10263000707116F567601AF064FD16F1600019F00C
:102640008AFF050016F5686019F085FF854201D004
:10265000012000E00020C0B2002805D016F1600182
:1026600016F568601AF0B4FE16F5C67019F073FF1F
:10267000050006F68C6019F06EFF854201D001203E
:1026800000E00020C0B2002805D016F5C67106F69D
:102690008C601AF09DFE16F51E7019F05CFF0500A7
:1026A00006F6A46019F057FF854201D0012000E032
:1026B0000020C0B2002805D016F51E7106F6A460F1
:1026C0001AF086FE16F572701AF040FD050006F647
:1026D00018701AF03BFD854201D0012000E0002077
:1026E000C0B2002805D016F5727106F618701AF0FF
:1026F00091FE16F574701AF029FD050016F572604A
:102700001AF024FD854201D0012000E00020C0B273
:10271000002805D016F5747116F572601AF07AFE6D
:1027200016F576701AF012FD050006F628701AF0FC
:102730000DFD854201D0012000E00020C0B200283C
:1027400005D016F5767106F628701AF063FE16F5B8
:1027500078701AF083FC050016F573601AF07EFCA1
:10276000854201D0012000E00020C0B2002805D041
:1027700016F5787116F573601AF0D6FC16F57A70B6
:102780001AF088FCB0EE408AF0EE608A06F63870E7
:102790001AF080FC53EC182B51EC100B19F0E0FCF4
:1027A00001D0012000E00020C0B2002805D016F5BD
:1027B0007A7106F638701AF0A4FC16F5217019F03B
:1027C000CAFE050016F56B6019F0C5FE854201D002
:1027D000012000E00020C0B2002805D016F52171CC
:1027E00016F56B601AF0F4FD16F5447019F0B3FE9F
:1027F000050006F6C86019F0AEFE854201D0012042
:1028000000E00020C0B2002814D016F5447106F68E
:10281000C8601AF0DDFD16F5447019F09CFE002822
:1028200001D0012100E00021C9B241F2D040304482
:102830001AF0EDFD16F53B7019F08DFE050006F659
:10284000BC6019F088FE854201D0012000E0002024
:10285000C0B2002805D016F53B7106F6BC601AF030
:10286000B7FD16F57C701AF015FCB0EE408AF0EE5C
:10287000608A16F574601AF00DFC53EC182B51ECBD
:10288000100B19F06DFC01D0012000E00020C0B257
:10289000002805D016F57C7116F574601AF031FC2D
:1028A00016F52D7019F046FE050016F56E6019F04C
:1028B00041FEEDB2C0B2854201D0012000E000200F
:1028C000C0B2002805D016F52D7116F56E601AF00D
:1028D00046FD16F54D7019F03EFE050006F6F46053
:1028E00019F039FE854201D0012000E00020C0B27D
:1028F000002805D016F54D7106F6F4601AF068FD53
:1029000016F5507019F027FE050016F5706019F0E5
:1029100022FE854201D0012000E00020C0B2002844
:1029200005D016F5507116F570601AF051FD16F5C8
:102930008F6019F0FFFD050041F20400304419F0EA
:10294000F9FDEDB2C0B2854201D0012000E00020C7
:10295000C0B2002806D016F58F6141F20400304461
:102960001AF0FDFC16F598601AF094FBB0EE408A60
:10297000F0EE608A41F2E41030441AF08BFB53EC25
:10298000182B51EC100B19F0EBFB01D0012000E0EB
:102990000020C0B2002826D016F5986141F2E4105C
:1029A00030441AF0AEFB16F598601AF073FB42F251
:1029B000A000304480ED000B41F6280030440FF0B9
:1029C000DCFE012801D1012000E00020C0B2002877
:1029D00009D042F2A000304490ED000B41F2D0400B
:1029E000304412F01CF916F599601AF053FBB0EE62
:1029F000408AF0EE608A41F2EC1030441AF04AFB53
:102A000053EC182B51EC100B19F0AAFB01D001204C
:102A100000E00020C0B2002826D016F5996141F2EE
:102A2000EC1030441AF06DFB16F599601AF032FB89
:102A300042F2A800304480ED000B41F628003044FB
:102A40000FF09BFE002801D1012000E00020C0B261
:102A5000002809D042F2A800304490ED000B41F26A
:102A6000D040304412F0DBF816F53B7019F073FDDE
:102A7000050006F6BC6019F06EFD854201D001200C
:102A800000E00020C0B2002805D016F53B7106F624
:102A9000BC601AF09DFC06F27C701AF0FBFAB0EEF6
:102AA000408AF0EE608A41F2F41030441AF0F2FAF3
:102AB00053EC182B51EC100B19F052FB01D00120F4
:102AC00000E00020C0B200280FD006F27C7141F275
:102AD000F41030441AF015FB06F27C701AF0DAFAA2
:102AE00042F2B000304480ED000B06F284701AF020
:102AF000D1FAB0EE408AF0EE608A41F2FC10304428
:102B00001AF0C8FA53EC182B51EC100B19F028FBF3
:102B100001D0012000E00020C0B200280FD006F252
:102B2000847141F2FC1030441AF0EBFA06F2847022
:102B30001AF0B0FA42F2B800304480ED000B06F211
:102B40008C701AF003FB050041F2042030441AF0A7
:102B5000FDFA854201D0012000E00020C0B200282B
:102B60000DD006F28C7141F2042030441AF052FC70
:102B700006F28C701AF0EAFA16F50351086006F2B4
:102B800094701AF087FAB0EE408AF0EE608A41F253
:102B90000C2030441AF07EFA53EC182B51EC100B39
:102BA00019F0DEFA01D0012000E00020C0B20028B8
:102BB00011D006F2947141F20C2030441AF0A1FABF
:102BC00006F294701AF066FA51EC100B1AF034FC0D
:102BD00042F2C401705016F5157019F0BCFC0500E6
:102BE00006F6986019F0B7FC854201D0012000E09C
:102BF0000020C0B2002811D016F5157106F69860B5
:102C00001AF0E6FB16F5157019F0A5FC002801D0A6
:102C1000012000E0002041F65931705416F1CC003B
:102C20001AF038FAB0EE408AF0EE608A41F2D830FD
:102C300030441AF02FFA53EC182B51EC100B19F00A
:102C40008FFA01D0012000E00020C0B2002806D099
:102C500016F1CC0141F2D83030441AF052FA16F590
:102C6000537019F078FC050006F60C7019F073FC2F
:102C7000854201D0012000E00020C0B2002805D02C
:102C800016F5537106F60C701AF0A2FB42F6881086
:102C9000305C012809D043D303281AD00FD305286C
:102CA0002AD01FD3062831D03AE001208DF80E003B
:102CB0000DF10E0116F556701AF0DFF938E002201A
:102CC0008DF80D000DF10D0116F556701AF0D5F9BD
:102CD0002EE003208DF80C0003A916F556701AF0AB
:102CE000CCF925E004208DF80B000DF10B0116F551
:102CF00056701AF0C2F91BE005208DF80A000DF19C
:102D00000A0116F556701AF0B8F911E006208DF890
:102D100009000DF1090116F556701AF0AEF907E039
:102D200000208DF8080002A916F556701AF0A5F9D2
:102D300006F6587116F59D601DF004FB16F57661D8
:102D400016F59E601DF0FEFA06F6687116F59F6096
:102D50001DF0F8FA16F5776116F5A0601DF0F2FA8D
:102D600006F6787116F5A1601DF0ECFA16F578619B
:102D700016F5A2601DF0E6FA06F6887116F5A36056
:102D80001DF0E0FA16F5796116F5A4601DF0DAFA87
:102D900006F6987116F5A5601DF0D4FA16F57A615D
:102DA00016F5A6601DF0CEFA06F6A87116F5A76016
:102DB0001DF0C8FA16F57B6116F5A8601DF0C2FA81
:102DC00006F6B87116F5A9601DF0D8FA42F27860DF
:102DD000304413F077FA42F63810304413F072FAA8
:102DE00041F2D04030441DF0E3FA012801D1012026
:102DF00000E00020C0B2002805D0002116F52A709E
:102E00001AF0C0FA04E0012116F52A701AF0BAFA95
:102E100016F5477019F09FFB012801D1012000E051
:102E20000020C0B2002807D0002116F547701AF024
:102E3000A9FA30000DF088FC06F6FC001AF00EF935
:102E4000D6F8F019884201D0012000E00020C0B27D
:102E5000002805D016F51F6106F6FC001AF0A3F94C
:102E600006F604101AF0FAF8050041F2F420304496
:102E70001AF0F4F8854201D0012000E00020C0B231
:102E8000002806D006F6041141F2F42030441AF06E
:102E90004BF942F6901030440EF07FFC16F5DE50F0
:102EA0000EF04FFB079007A916F509701AF07BF991
:102EB00041F22870304418F08BFFC0B2002801D0D6
:102EC000012000E00020C0B2002818D041F250706C
:102ED000305C002804D03068C0301DF047FB03E0B0
:102EE0003068C0301DF04BFB41F25070305C002860
:102EF00001D1012000E0002041F25071705441F6F0
:102F0000F030304418F064FFC0B2002801D0012036
:102F100000E00020C0B2002842D041F6E830305C2A
:102F200000280ED041F6B0303058401C41F6B03188
:102F3000705041F6B03006EB000116F50B701AF038
:102F400032F941F66820305C022829D141F6B830C8
:102F50003058401C41F6B831705041F6BC30325800
:102F6000002141F6BC303058401E1DF01AFD41F6DC
:102F7000BC31705016F5DE500EF049FA41F6B8300B
:102F800006EB000116F50F701AF00DF916F5DE507C
:102F90000EF0D5FA069006A916F511701AF003F98D
:102FA00041F66820305C002809D0022801F0AA838D
:102FB000C0F05D81032801F01F8108F0FBB841F6E5
:102FC0006920305C002805D0022800F0E680C0F0BF
:102FD000AD804AE119F0ECFFDFF8E41C1CF0ECFCDA
:102FE000002141F2587030440FF06CFC002116F5BE
:102FF000BE500FF067FC012141F6280030440FF06D
:10300000B3FB002116F5C4500FF0AEFB002141F6D2
:10301000D80030440FF0A8FB002141F630103044B6
:103020000FF050FC002141F6981030440FF04AFC9C
:10303000002116F5D0500FF045FC42F2A0003044BC
:1030400090ED000B41F2D040304411F0E8FD41F228
:10305000304030441DF0ACFC41F2304030440FF0C1
:10306000BDFD9FED300B41F2304030440FF0B6FE15
:1030700041F2D04030441DF09FFC41F6A84006EBE1
:10308000000141F2D040304411F0C0F9002141F27A
:10309000587030441AF08CF9002116F5BE501AF021
:1030A00087F9002141F6301030441AF081F90021EF
:1030B00041F6981030441AF07BF9002116F5D050F3
:1030C0001AF076F9002116F178001AF05BF941F652
:1030D000103006EB000116F507701AF064F841F2A3
:1030E0003870304418F024FE002116F524701AF0D0
:1030F00049F9002041F610717054002116F52F7027
:103100001AF040F9002116F535701AF03BF900214C
:1031100016F538701AF036F9012041F6692170541D
:10312000A3E000BF000000000000000041F2387082
:10313000304418F00AFEC0B2002801D0012000E09F
:103140000020C0B2002827D019F032FFDFF8701B32
:103150001CF032FC19F02CFFDFF8681B1CF0C7FADA
:10316000DFF85C1B1CF028FC19F022FFDFF8581B6D
:103170001CF0BDFADFF8481B1CF01EFC19F018FF0C
:10318000DFF8401B1CF0B3FADFF8341B1CF014FC12
:10319000022041F66921705467E016F1780019F0B9
:1031A000DAF9012801D1012000E00020C0B2002896
:1031B00040D0002116F178001AF0E4F8002116F151
:1031C00084001AF0DFF816F10C0019F0B3F9C0B260
:1031D000012804D024D3032819D009D320E00120EA
:1031E00041F668217054002041F6692170543CE09A
:1031F00006F698301CF0E6FB1CF0A6F9022041F61A
:1032000068217054002041F6692170542DE003209C
:1032100041F668217054002041F66921705424E081
:1032200000208DF807000DF1070116F10C0019F0D0
:1032300024FF1AE041F2D04030441DF0B9F80128D3
:1032400001D1012000E00020C0B200280DD041F6DD
:103250002840304416F5F15191ED000B80ED000B44
:1032600041F2D040304410F0CFF807F0A3BF16F57C
:10327000DC500078002815D0022800F0F080C0F063
:103280009B80042800F03284C0F0F683062800F00A
:10329000EC84C0F06284082800F09087C0F0F086CB
:1032A00000F0A8BF19F084FEDFF8141A1CF084FBAC
:1032B00019F07EFEDFF80C1A1CF019FADFF8001A7C
:1032C0001CF07AFB19F074FEDFF8001A1CF00FFAFC
:1032D000DFF8EC191CF070FB19F06AFEDFF8E41956
:1032E0001CF005FADFF8D8191CF066FB41F6707087
:1032F0003044D0E9002341F2587030440FF0FEFA18
:1033000041F670703044D0E9002316F5BE500FF03E
:10331000F5FA41F670703044D0E9002341F62800F8
:1033200030440FF035FA41F670703044D0E9002394
:1033300016F5C4500FF02CFA41F670703044D0E905
:10334000002341F6D80030440FF022FA41F67070A5
:103350003044D0E9002341F6301030440FF0CEFA6B
:1033600041F670703044D0E9002341F698103044A3
:103370000FF0C4FA41F670703044D0E9002316F51E
:10338000D0500FF0BBFA41F670703044D0E9002302
:1033900041F2304030440FF02DFE16F5707019F0F8
:1033A00079FE41F67030304480ED000B012016F5B7
:1033B000DC51087000F01EBF41F2D04030441CF0D8
:1033C000F7FF012801D1012000E00020C0B2002851
:1033D00043D041F6185006EB000141F2D040304492
:1033E00011F014F8012141F2D040304410F0E0F81F
:1033F000B0EE408AF0EE608A41F2304030440FF087
:10340000E9FD040041F668303044D0E9002341F67C
:1034100070303044D0E9000118F0C0FD41EC130BCE
:10342000B0EE439AF0EE639A200019F0ABFE41EC47
:10343000120BB0EE493AF0EE693A41F628403044BA
:1034400090ED001BB0EE480AF0EE680A300008F07C
:10345000E8F8022016F5DC51087000F0CBBE16F13A
:103460006C0019F078F8012801D1012000E000205B
:10347000C0B2002816D0002116F16C0019F082FFAE
:10348000002016F5DC510870002041F668217054C8
:1034900000208DF806000DF1060116F10C0019F060
:1034A000ECFDE8E216F5AE7019F055F8040041F2B3
:1034B000587030440FF00FFA844201D0012000E030
:1034C0000020C0B2002809D016F5AE7019F043F8FC
:1034D000010041F2587030440FF0F4F916F5B47061
:1034E00019F039F8040016F5BE500FF0F4F98442D3
:1034F00001D0012000E00020C0B2002808D016F55D
:10350000B47019F028F8010016F5BE500FF0DAF982
:1035100016F59C7019F01FF8040041F6280030449D
:103520000FF02BF9844201D0012000E00020C0B24E
:1035300000282AD016F59C7019F00DF8010041F60C
:10354000280030440FF010F916F59C7019F003F8BC
:10355000012801D1012000E00020C0B200280AD0DB
:1035600042F2A000304490ED000B41F2D0403044D4
:1035700011F055FB09E042F2A800304490ED000B39
:1035800041F2D040304411F04AFB16F1E40018F04B
:10359000E2FF040016F5C4500FF0EFF8844201D0AA
:1035A000012000E00020C0B2002808D016F1E4009D
:1035B00018F0D1FF010016F5C4500FF0D5F816F140
:1035C000F00018F0C8FF040041F6D80030440FF0B6
:1035D000D4F8844201D0012000E00020C0B20028CD
:1035E00009D016F1F00018F0B6FF010041F6D8003E
:1035F00030440FF0B9F816F1FC0018F0ACFF0400ED
:1036000041F6301030440FF066F9844201D00120B9
:1036100000E00020C0B2002809D016F1FC0018F02C
:103620009AFF010041F6301030440FF04BF916F5C7
:10363000847018F090FF040041F6981030440FF0A9
:103640004AF9844201D0012000E00020C0B20028E5
:1036500009D016F5847018F07EFF010041F698102D
:1036600030440FF02FF916F58A7018F074FF04003B
:1036700016F5D0500FF02FF9844201D0012000E060
:103680000020C0B2002808D016F58A7018F063FF39
:10369000010016F5D0500FF015F941F25870304482
:1036A0001DF08EF941F65931715CC0B2814201D0F2
:1036B000012000E00020C0B2002807D041F65930B8
:1036C000315C41F25870304419F072FE16F5BE506C
:1036D0001DF076F941F65931715CC0B2814201D0DA
:1036E000012000E00020C0B2002806D041F6593089
:1036F000315C16F5BE5019F05BFE41F630103044D7
:103700001DF05EF941F65931715CC0B2814201D0C1
:10371000012000E00020C0B2002807D041F6593057
:10372000315C41F63010304419F042FE41F69810F9
:1037300030441DF045F941F65931715CC0B2814207
:1037400001D0012000E00020C0B2002807D041F6DF
:103750005930315C41F69810304419F029FE16F5C5
:10376000D0501DF02DF941F65931715CC0B2814243
:1037700001D0012000E00020C0B2002806D041F6B0
:103780005930315C16F5D05019F012FE16F5D47090
:1037900018F0E1FE040041F2304030440FF065FAC9
:1037A000C0B2844201D0012000E00020C0B2002855
:1037B00020D016F5D47018F0CEFE002801D00120DC
:1037C00000E00020C0B200280AD041F2304030446E
:1037D0000FF004FA41F2D04030441DF0F4F809E053
:1037E00041F2304030440FF01DFA41F2D0403044F5
:1037F0001DF0E9F816F5DE7019F0A8FC040041F29E
:10380000304030440FF0E6FB844201D0012000E05C
:103810000020C0B200283AD016F5DE7019F096FCF0
:1038200019F0B0FC41EC100B41F2304030440FF085
:10383000D5FA41F2D04030441DF0C5F841F2304095
:1038400030440FF073FB8DED440B44A916F5DA708C
:1038500019F04AFC16F5DE7019F078FC040041F20C
:10386000304030440FF0B6FB844201D0012000E02C
:103870000020C0B200280AD041F2304030440FF09E
:10388000A9FB119011A916F5DE7019F094FD16F53B
:10389000DA7019F0FFFBB0EE408AF0EE608A41F278
:1038A000304030440FF042FB53EC182B51EC100B1E
:1038B00018F056FC01D0012000E00020C0B2002822
:1038C0003ED016F5DA7019F0E5FB41F23040304495
:1038D0000FF0E4F941F2D04030441DF074F841F2A9
:1038E000304030440FF076FB109010A916F5DE70D2
:1038F00019F061FD16F5DA7019F0CCFBB0EE408AD4
:10390000F0EE608A41F2304030440FF00FFB53EC90
:10391000182B51EC100B18F023FC01D0012000E013
:103920000020C0B200280BD041F2304030440FF0EC
:10393000FDFA8DED420B42A916F5DA7019F0D4FBB1
:1039400016F5CC7018F0F6FD040041F2304030441A
:103950000FF048FBE4B2C0B2844201D0012000E085
:103960000020C0B200280FD016F5CC7018F0E2FD90
:103970000100C9B241F2304030440FF0A3FA41F2E5
:10398000D04030441DF01FF841F64850305C00280C
:103990000CD0002041F64851705441F6185006EB07
:1039A000000141F2D040304410F030FD16F5217096
:1039B00018F0D1FD002801D0012000E00020C0B2A5
:1039C000002805D041F2D04030441DF000F804E05A
:1039D00041F2D04030441CF0EFFF16F53E7018F075
:1039E000BAFD012801D1012000E00020C0B200286A
:1039F00009D041F2D04030441CF0EDFF002116F513
:103A00003E7019F0BFFC41F2D04030441CF0D0FCB5
:103A1000012801D1012000E00020C0B2002804D01C
:103A200041F2D04030440FF0EFFC16F51B7018F057
:103A300092FD012801D1012000E00020C0B2002841
:103A400009D0002116F51B7019F09CFC032016F517
:103A5000DC5108700FE016F52F7018F07CFD01287E
:103A600001D1012000E00020C0B2002803D00520D1
:103A700016F5DC510870BDE341F2D04030441CF033
:103A800097FC012801D1012000E00020C0B20028ED
:103A90002BD016F5217018F05EFD002801D0012012
:103AA00000E00020C0B2002805D041F2D0403044F0
:103AB0001CF08DFF04E041F2D04030441CF087FF41
:103AC000012041F66C21705016F11C0018F032FDF7
:103AD000C0B241F67021705041F2D04030440FF036
:103AE00093FC042016F5DC51087083E341F2D040CA
:103AF00030441CF05DFC012801D1012000E00020D1
:103B0000C0B2002828D041F66C20305841F6702110
:103B10007158884212D241F66C203058401C41F650
:103B20006C21705041F66C2030588DF805000DF175
:103B3000050116F1A00019F0A0FA08E041F2D0400A
:103B400030441CF039FF022016F5DC51087041F2B8
:103B5000D04030440FF058FC4CE3012041F6107186
:103B6000705416F5816019F095FA16F5F95080ED4C
:103B7000000B16F5826019F08DFA41F6287030447A
:103B800080ED000B16F5836019F084FA41F6307071
:103B9000304480ED000B16F5856019F07BFA16F5C0
:103BA000FB5080ED000B16F5866019F073FA41F6B4
:103BB0006870304480ED000B16F5896019F06AFAE0
:103BC00041F67870304480ED000B012141F2D04085
:103BD00030440FF0EDFC41F63870304480ED000BBE
:103BE00016F5707019F056FA41F67030304480EDD9
:103BF000000B41F2304030440FF0ECF9040041F684
:103C000068303044D0E9002341F670303044D0E9C8
:103C1000000118F0C3F941EC130BB0EE438AF0EE4B
:103C2000638A200019F0AEFA41EC120BB0EE483A6C
:103C3000F0EE683A41F62840304490ED001B41F622
:103C40003870304490ED000B300007F0EAFC19F0BA
:103C5000AFF9DFF8AC1D1BF04AFD19491BF0ACFEB3
:103C6000062016F5DC510870C4E216F16C0018F05D
:103C700072FC012801D1012000E00020C0B2002820
:103C800026D0002116F16C0019F07CFB002016F5FF
:103C9000DC51087019F08CF9DFF8681D1BF027FD66
:103CA00007491BF089FE002041F66821705400206E
:103CB0008DF8040001A916F10C0019F0DEF9DEE11F
:103CC00059E70508F8F705081CF8050840F8050845
:103CD00016F52F7018F03FFC002801D1012000E0FC
:103CE0000020C0B2002812D0022016F5DC51087066
:103CF000002041F61071705419F05AF9DFF8041DD4
:103D00001BF0F5FCDFF8001D1BF056FEB7E116F5C1
:103D1000DA7019F0BFF9B0EE408AF0EE608A41F235
:103D2000304030440FF002F953EC182B51EC100BDB
:103D300018F016FA01D0012000E00020C0B20028DF
:103D40000BD041F2304030440FF0F0F88DED400BD5
:103D500040A916F5DA7019F0C7F916F5DE7019F0FA
:103D6000F5F9040041F2304030440FF033F9844259
:103D700001D0012000E00020C0B200280AD041F2AA
:103D8000304030440FF026F90F900FA916F5DE7081
:103D900019F011FB41F64850305C00284ED000204D
:103DA00041F64851705441F6185006EB000141F2BB
:103DB000D040304410F02AFB012141F2D040304481
:103DC0000FF0F6FB41F63870304480ED000B16F52D
:103DD000707019F05FF941F67030304480ED000BDF
:103DE00041F2304030440FF0F5F8040041F66830FD
:103DF0003044D0E9002341F670303044D0E900016E
:103E000018F0CCF841EC130BB0EE438AF0EE638A65
:103E1000200019F0B7F941EC120BB0EE483AF0EE81
:103E2000683A41F62840304490ED001B41F6387066
:103E3000304490ED000B300007F0F3FB41F61150D9
:103E4000305C002845D0002041F61151705400210B
:103E500041F2D04030440FF0ABFB41F638703044B3
:103E600080ED000B16F5707019F014F941F6703002
:103E7000304480ED000B41F2304030440FF0AAF89E
:103E8000040041F668303044D0E9002341F6703038
:103E90003044D0E9000118F081F841EC130BB0EE8A
:103EA000438AF0EE638A200019F06CF941EC120BA2
:103EB000B0EE483AF0EE683A41F62840304490EDD2
:103EC000001B41F63870304490ED000B300007F0D5
:103ED000A8FB16F5357018F03EFB012801D1012032
:103EE00000E00020C0B2002812D0002116F5357085
:103EF00019F048FA19F05CF8DFF8101B1BF0F7FB1B
:103F0000DFF8041B1BF058FD072016F5DC51087084
:103F100041F2D04030441CF04BFA012801D101207D
:103F200000E00020C0B2002800F0A98041F2D0409B
:103F300030440FF069FA41F62840304490ED000B10
:103F400016F5FA501CF0BAF98DED180B18A916F5F4
:103F5000876019F0C9F89DED180B16F5F4501BF0A9
:103F600015FFB0EE408AF0EE608AB0EE480AF0EE3F
:103F7000680A41F2304030440EF090FEB0EE480A3C
:103F8000F0EE680A41F6887030441CF058F9B0EE43
:103F9000409AF0EE609AB0EE490AF0EE690A3000FD
:103FA00007F07EFC8DED220B22A916F5886019F032
:103FB0009BF841F6C86006EB000116F5846019F025
:103FC00093F8B0EE480AF0EE680A16F5FD501CF0C2
:103FD00009FD16F5FD501CF081FD300007F060FC76
:103FE0008DED200B20A916F58A6019F07DF816F5E5
:103FF000FD501CF07DFD300007F052FC8DED1E0BD6
:104000001EA916F58B6019F06FF816F5FD501CF01F
:1040100065FD8DED1C0B1CA916F58C6019F064F87C
:1040200016F5FD501CF064FD8DED1A0B1AA916F55E
:104030008D6019F059F816F5FD501CF059FDB0EEE1
:1040400040AAF0EE60AA16F5916019F023F851EC41
:104050001A0B53EC102B1CF07BFD01D2012000E069
:104060000020C0B2002805D0012116F5387019F0E3
:1040700089F904E0002116F5387019F083F9B9E0E8
:1040800041F2304030440EF0F5FFC0B2002801D0BC
:10409000012000E00020C0B2002800F089809FEDE0
:1040A000450B41F2304030440EF098FE012141F2C0
:1040B000D04030440FF07CFA41F63870304480ED47
:1040C000000B16F5707018F0E5FF41F670303044C3
:1040D00080ED000B41F2304030440EF07BFF0400D5
:1040E00041F668303044D0E9002341F67030304466
:1040F000D0E9000117F052FF41EC130BB0EE438AF8
:10410000F0EE638A200019F03DF841EC120BB0EE9E
:10411000483AF0EE683A41F62840304490ED001BF2
:1041200041F63870304490ED000B300007F079FA1A
:1041300041F6C860304400220023C0E9002341F664
:10414000B060304400220023C0E9002341F6A8609B
:10415000304400220023C0E9002341F6B860304417
:1041600000220023C0E9002341F6487030440022B9
:104170000023C0E9002341F65070304400220023A0
:10418000C0E9002341F68870304400220023C0E9D2
:10419000002341F69070304400220023C0E9002340
:1041A00016F5FD501CF0EBFC082016F5DC510870EC
:1041B00020E000BF000000000000000041F230409D
:1041C00030440EF057FFC0B2002801D0012000E0BB
:1041D0000020C0B200280DD018F0EAFEDFF8FC1B6A
:1041E0001BF085FADFF820181BF0E6FB062016F519
:1041F000DC51087006F0DEBF41F68130305C0028EB
:1042000017D0022800F0AA80C0F08080042800F0B7
:104210003781C0F0F880062800F09081C0F07281EC
:10422000082800F0FB81C0F0AC81092800F01E8254
:1042300030E218F0BDFEDFF8D0171BF0BDFB18F020
:10424000B7FEDFF89C1B1BF052FADFF8BC171BF01F
:10425000B3FB18F0ADFEDFF88C1B1BF048FADFF85B
:10426000A8171BF0A9FB18F0A3FEDFF8741B1BF0C6
:104270003EFADFF894171BF09FFB16F5D07018F08C
:1042800059F9C0B26421484341F67821705041F693
:104290007820305803280ED2032041F67821705040
:1042A00041F6782030588DF803000DF1030116F522
:1042B000D07018F0E2FE16F11C0018F03BF941F640
:1042C0004831705416F5037018F0E4FE41F688305A
:1042D000304480ED000B16F5077018F0BFFE41F674
:1042E0001031705041F6103030580E900EA815F075
:1042F000C1F9CDE93E013EA941F69830304417F0AE
:104300000CFD012041F681317054C3E130001CF0F6
:1043100045FCC0B2002801D0012000E00020C0B25E
:1043200000281AD0012141F2587030440EF0CAFA28
:10433000012141F6301030440EF0C4FA002116F588
:10434000D0500EF0BFFA002141F6D80030440EF0F4
:104350000BFA022041F6813170549BE130001CF0D1
:104360001DFCC0B2002801D0012000E00020C0B236
:10437000002847D0002041F690317054002041F6CB
:104380006C21705016F5D45041F68831314491EDCE
:10439000000B80ED000B41F67820305840081CF0EF
:1043A00043FC02000B0016F5D450D0E900011CF0CC
:1043B0004BFC16F5D452C2E9000118F0F9FDDFF804
:1043C000281A1BF094F941F6782171581BF08AFAEB
:1043D00018F0EEFDDFF830161BF0EEFA18F0E8FDED
:1043E000DFF8081A1BF083F916F5D45191ED000B94
:1043F0001CF09BFCDFF810161BF0DEFA032041F6E0
:104400008131705446E141F2304030440EF032FECA
:10441000C0B2002801D0012000E00020C0B2002876
:104420002DD016F5D45090ED000B41F230403044C1
:104430000EF0D4FC41F69830304417F079FC18F0B7
:10444000B7FDDFF8C4151BF0B7FADFF8A4191BF0AD
:104450004EF9040016F5077018F000FE0100200068
:104460001BF040FA18F0A4FDA5A11BF040F9DFF8FD
:1044700098151BF0A1FA042041F68131705409E12E
:1044800041F69830304417F060FCC0B2002801D0EB
:10449000012000E00020C0B2002820D041F6983072
:1044A000304417F04FFC41F64850305C00280CD0E7
:1044B000002041F64851705441F6185006EB0001B7
:1044C00041F2D04030440FF0A1FF41F2D0403044DF
:1044D0001CF07DFA062041F68131705411E041F262
:1044E000D04030441BF064FF012801D1012000E0DE
:1044F0000020C0B2002804D041F2D04030440EF079
:1045000083FFC7E041F2304030440EF0B3FDC0B24B
:10451000002801D0012000E00020C0B200280CD00B
:1045200016F5D45090ED000B41F2304030440EF0BF
:1045300055FC062041F681317054ABE041F2304029
:1045400030440EF097FDC0B200280CD041F2D040AC
:1045500030441BF02DFF012801D0012000E0002095
:1045600090F0010000E00020C0B2002808D041F225
:10457000D04030440EF048FF072041F6813170549E
:1045800088E041F2D04030441BF012FF012801D1F5
:10459000012000E00020C0B200283ED041F690305B
:1045A000305C401C41F64831715C88420BDA41F6C0
:1045B0009030305C401C41F690317054062041F63A
:1045C0008131705429E0002041F69031705441F659
:1045D0006C203058401C41F678217158884218D21E
:1045E00041F66C203058401C41F66C21705016F595
:1045F000D450D0E900230020DFF8D01D1CF008FCC7
:1046000016F5D452C2E90001052041F681317054FB
:1046100003E0082041F6813170543BE030001CF08B
:10462000BDFAC0B2002801D0012000E00020C0B2D5
:1046300000281AD0002141F2587030440EF042F99F
:10464000002141F6301030440EF03CF9002116F5FF
:10465000D0500EF037F9002141F6D80030440EF06A
:1046600083F8092041F68131705413E030001CF0CA
:1046700095FAC0B2002801D0012000E00020C0B2AD
:10468000002807D0002041F668217054002041F630
:104690008131705416F16C0017F05DFF012801D1D3
:1046A000012000E00020C0B2002827D018F080FCD4
:1046B000DFF82C171BF01BF8D3491BF07DF918F01D
:1046C00077FCDFF80C1D1BF012F8CF491BF074F9D2
:1046D000002116F16C0018F055FE002041F68131E2
:1046E0007054002041F66821705400208DF80200BB
:1046F0000DF1020116F10C0018F0BFFC06F05ABDD6
:104700002063000041F66A20305C002800F0B3808E
:10471000012800F0C783022800F0F683032800F088
:104720004284042800F08C84052800F0D9840628EF
:1047300000F03685072800F04D86082800F06386D3
:10474000092800F099870A2800F0AF870B2801F0AC
:1047500042800C2801F065800D2801F0F3800E28BE
:1047600001F04B810F2801F06081102801F0708169
:10477000112801F01181122801F02B81132801F07A
:10478000BB82142801F09A84152801F0B3871628FB
:1047900001F0C987172802F02E80182802F0C08087
:1047A000192802F0D6801A2802F070811B2802F026
:1047B00022821C2802F089821D2802F0D1831E2843
:1047C00002F006841F2802F04884202802F0A18409
:1047D000212802F0B884222802F0CD84242802F097
:1047E0003A87252803F0B981262803F0D3812728AA
:1047F00003F0EA81282803F0ED81292803F0928252
:104800002A2803F078852B2803F0F2852C2803F062
:1048100015862D2803F0CD862E2803F061872F28DA
:1048200004F01C80302804F0D681312804F09C82EA
:10483000322804F0C282332804F0D382342804F0F2
:104840000083352804F01783362804F01F833728A7
:1048500004F0F783382804F02E85392804F06185A8
:104860003A2804F0B4853B2806F0C7833C2806F0BC
:104870003D8406F04FBC18F09BFB63491BF09CF88D
:1048800018F096FBDFF858151AF031FF5E491BF05F
:1048900093F818F08DFBDFF8901D1AF028FF5A49A5
:1048A0001BF08AF818F084FBDFF834151AF01FFFAC
:1048B00055491BF081F818F07BFBDFF8701D1CF0E8
:1048C00063FB16F1B40018F0E5FB16F5D65080ED49
:1048D000000B16F1BC0018F0DDFB41F6B8203044A7
:1048E00080ED000B002041F6B021705416F5FE70EB
:1048F00018F0B4FB0D900DA817F07AF916F5D85200
:10490000C2E9000116F5787018F0A8FB0C900CA80D
:1049100017F06EF941F608323244C2E9000116F58B
:10492000D850D0E9002341F2304030440EF062FB11
:1049300041F2304030441CF031FB16F5017018F0A4
:104940008DFB0B900BA817F053F941F6F822324477
:10495000C2E9000141F6F8203044D0E9002341F2D9
:10496000587030440DF0CAFF41F6F8203044D0E9C9
:10497000002316F5BE500DF0C1FF41F6F82030447B
:10498000D0E9002341F6280030440DF001FF41F644
:10499000F8203044D0E9002316F5C4500DF0F8FE9D
:1049A00041F6F8203044D0E9002341F6D8003044E5
:1049B0000DF0EEFE41F6F8203044D0E9002341F638
:1049C000301030440DF09AFF41F6F8203044D0E921
:1049D000002341F6981030440DF090FF41F6F82086
:1049E0003044D0E9002316F5D0500DF087FF16F5BE
:1049F000157017F0B0FD00280AD0012009E000BFB3
:104A00008C4D0608944D060859E7050838420608FB
:104A1000002041F65931705441F65930315C06F6A8
:104A2000986018F0AFFC41F65930305C00281BD07C
:104A3000012141F25870304418F0BAFC012116F5FA
:104A4000BE5018F0B5FC012141F63010304418F08A
:104A5000AFFC012141F69810304418F0A9FC012167
:104A600016F5D05018F0A4FC41F6F82006EB000132
:104A700041F66860304417F050F916F5D07017F021
:104A800059FDC0B241F67821705016F5727018F0D9
:104A90005DFB41F67C21705016F5747018F056FBE2
:104AA00016F5E351086016F5767018F04FFB41F6E5
:104AB0006441705016F5727018F048FB41F67C2185
:104AC0007158814201D0012000E00020C0B20028CE
:104AD0000FD041F67C2006EB000116F5727018F03D
:104AE0006AFC41F67C2006EB000106F6187018F00F
:104AF00062FC16F51E7017F02EFD002801D0012073
:104B000000E0002041F64841705442F288003044F1
:104B100000220023C0E9002341F64C3030441CF051
:104B200041FA41F6183030441CF057FA41F624306F
:104B300030441CF052FA16F11C0017F0FBFC41F651
:104B40004831705441F64830305C02282BDB41F686
:104B5000483006EB000116F1A00018F08EFA18F0AC
:104B600027FA9F491AF0C3FDDFF8C41A1AF024FF90
:104B700018F01EFADFF8BC1A1AF0B9FD18F018FA8E
:104B800041F64831715C1CF043FADFF8A41A1AF0C0
:104B900013FF18F00DFA92491AF0A9FDDFF8901AE8
:104BA0001AF00AFF08E001208DF801000DF1010163
:104BB00016F1A00018F061FA16F1600017F0CBFCB6
:104BC000002801D0012000E0002041F65831705447
:104BD00041F65830315C16F1600018F0D3FB41F219
:104BE000D04030441CF098FA41F6505006EB0001DA
:104BF00041F2D04030440FF009FC18F0D9F9DFF849
:104C0000381A1AF074FDDFF8281A1AF0D5FE16F5D6
:104C1000077018F023FA41F6103170504FF47A7093
:104C20000A900AA816F0E4FFCDE93C013CA941F640
:104C30009830304417F071F8002041F6B0317050D0
:104C4000002041F6B83170500020059005A916F5F6
:104C50000F7018F0A8FA16F5DE500CF092FB41F632
:104C60001030315816F5DE500CF0C8FB16F5C67042
:104C700017F071FC002801D0012000E0002016F59B
:104C8000E051087041F63840304400220023C0E96A
:104C9000002316F5E25000220023C0E9002341F66C
:104CA0006C4030441CF03CFA002041F65C417050EE
:104CB000002041F68841705416F57A7018F0EAF930
:104CC00041F69040304480ED000B16F57C7018F0F2
:104CD000E1F941F69840304480ED000B41F6902018
:104CE000304400220023C0E90023012142F2C80021
:104CF00030441CF030FA16F5537017F02CFC0028E5
:104D000001D0012000E00020C0B2002838D018F007
:104D10004FF9DFF828191AF0EAFCDFF814191AF035
:104D20004BFE16F1CC0018F0B5F951EC100B16F54E
:104D3000D652D2E900231BF00BFF13D316F1CC009F
:104D400018F0A8F951EC100B41F6B8223244D2E920
:104D500000231BF0FDFE01D3012000E0002090F0B5
:104D6000010000E00120C0B2002804D0012041F67B
:104D7000742170541AE0022041F67421705415E039
:104D800018F016F9DFF8E81D1AF0B1FCDFF8A018EA
:104D90001AF012FE16F52D7017F0CCFB0100C9B207
:104DA00030000CF0BFFA41F67421705418F000F98D
:104DB000DFF8C01D1AF09BFC41F67421715C1CF0F9
:104DC00027F941F67420305C002813D001281CD04C
:104DD000022825D004282ED038E000BF444206081F
:104DE000F8F7050864F80508743A0608402606082E
:104DF0009C4D060818F0DCF8DFF8801D1AF077FCEF
:104E0000DFF82C181AF0D8FD2AE018F0D1F8DFF8F6
:104E1000701D1AF06CFCDFF818181AF0CDFD1FE0B9
:104E200018F0C6F8DFF85C1D1AF061FCDFF8001816
:104E30001AF0C2FD14E018F0BBF8DFF84C1D1AF0B0
:104E400056FCDFF8EC171AF0B7FD09E018F0B0F8DF
:104E5000DFF8381D1AF04BFCDFF8D4171AF0ACFD60
:104E600016F500501CF07DF9012042F688117054AF
:104E700042F68810315C16F5DE500CF064FB14210C
:104E800016F5DE500CF0CEFB002016F5E55108704B
:104E9000002041F6A1417054012041F66A2170546E
:104EA00006F038B930001BF079FEC0B2002801D0FE
:104EB000012000E00020C0B2002823D041F6583085
:104EC000305C00280FD0002141F6280030440DF05E
:104ED0004BFC42F2A800304490ED000B41F2D04070
:104EE00030440FF09CFE002116F5D0500DF0EAFC86
:104EF000002141F6D80030440DF036FC022041F686
:104F00006A21705406F006B930001BF047FEC0B2AB
:104F1000002801D0012000E00020C0B2002840D0CD
:104F2000012041F6E831705441F6F030304416F07B
:104F300047FF41F6B020305C002802D0012816D08F
:104F40002BE018F035F8DFF8941D1AF0D0FBDFF8ED
:104F5000E0161AF031FD012116F5BE500DF0B2FC3D
:104F6000012141F6981030440DF0ACFC15E018F02A
:104F70001FF8DFF86C1D1AF0BAFBDFF8B4161AF050
:104F80001BFD012141F2587030440DF09BFC0121C2
:104F900041F6301030440DF095FC032041F66A21B3
:104FA000705406F0B7B830001BF0F8FDC0B200280E
:104FB00001D0012000E00020C0B200283ED041F620
:104FC0006860304416F0B4FE16F5017018F046F82B
:104FD00000EE100AB8EE400A10EE100A1CF0DCF8E1
:104FE000DFF8002DDFF8003D16F0D8FF1CF0F8F8D0
:104FF00008EE100A17F0DCFF0400022148A818F0A0
:1050000011F8DDE94801CDE9CA01CAA9200018F06C
:1050100015F817F0CDFFDFF8D41C1AF068FBB0EEDE
:10502000480A1CF011F9D9A11AF061FBDFF800164B
:105030001AF0C2FC042041F66A21705406F06AB8E6
:1050400041F66860304416F080FEC0B2002801D0FE
:10505000012000E00020C0B200283FD017F0A8FFD8
:10506000DFF88C1C1AF043FBDFF8C4151AF0A4FC1F
:1050700041F67420305C012804D041F67420305C85
:10508000042804D1052041F66A21705426E041F637
:105090004C3030441CF049F900281BD141F6B020B7
:1050A000305C002816D142F6901030441CF04DF9C7
:1050B000002801D0012000E00020C0B2002804D068
:1050C0000B2041F66A21705408E01B2041F66A214A
:1050D000705403E01E2041F66A21705406F01AB89D
:1050E00041F2304030440DF0C5FFC0B2002801D07D
:1050F000012000E00020C0B200284FD041F6B020CF
:10510000305C002802D0012811D02AE041F6B820F6
:10511000304490ED001B16F5D65090ED000B11F0C9
:10512000AFFB41F69820304480ED000B19E041F6CA
:105130006C4030441CF00BF90400641E210041F661
:105140006C4030441CF013F990ED060B1CF01EF976
:1051500051EC100B91F0004141F698223244C2E923
:10516000000141F608303044D0E9002341F23040DC
:1051700030440DF03FFF41F69820304490ED000B95
:1051800041F2304030440DF029FE41F2D04030442D
:105190001BF0C2FF062041F66A21705405F0BABF29
:1051A00041F2304030440DF065FFC0B200280CD011
:1051B00041F2D04030441BF0FBF8012801D001201F
:1051C00000E0002090F0010000E00020C0B20028C4
:1051D00000F0F98016F5E7510DF5ED600EF058F886
:1051E00001208DF889070DF5ED6141F2D040304482
:1051F0000FF00CF916F5806017F04CFF41F61870AF
:10520000304480ED000B16F56A7017F00FF941F687
:105210001271705216F56C7017F008F941F614719E
:10522000705216F5507017F096F9002801D0012041
:1052300000E0002042F250017054002141F2D040C1
:1052400030440EF05FF9B0EE408AF0EE608A41F62D
:1052500018703044D0E9002351EC180B16F09EFE74
:105260001CF0C8F80400CDF86C470DF5ED6141F273
:10527000D04030440FF0CAF800220DF5ED6141F244
:10528000D04030440FF0FCF8DDF86C0742F2980192
:10529000705042F2980030581BF0C6FC53EC182BAB
:1052A00016F06EFF42F290023244C2E9000141F66C
:1052B00018703044D0E9000142F290023244D2E941
:1052C00000231BF0C1FCCDE9160117F071FEDFF8D9
:1052D000C41D1AF00CFA17F06BFED5491AF06CFBDE
:1052E0000DF5ED62012141F2D04030440FF0F8F9A4
:1052F00017F05EFEDFF8FC191AF0F9F917F058FE06
:10530000CA491BF041FEDFF8901D1BF03DFE41F63F
:105310001871314491ED000B1BF007FD17F048FEAA
:10532000C0A11AF0E4F9C2491AF046FBDDE9160102
:10533000002200231BF00CFC12D817F039FEDFF816
:10534000041E1AF0D4F9BA491AF036FB41F2D040E3
:1053500030440EF059F8082041F66A21705432E0CA
:1053600016A81CF05BF8CDE93A013AA941F668604D
:10537000304416F0D2FC41F66860304416F0D8FC98
:1053800017F016FEDFF8C01D02E000BF206300002A
:105390001AF0ADF917F00CFEA4491BF0F5FDDFF88B
:1053A000F81C1BF0F1FD9DED160B1BF0BEFC17F079
:1053B000FFFD9CA11AF09BF99D491AF0FDFA072008
:1053C00041F66A21705405F0A5BE00BF0000F03F11
:1053D00088F8050841F66860304416F0B6FCC0B2A3
:1053E000002801D0012000E00020C0B2002808D031
:1053F00041F2D04030440EF007F8082041F66A210F
:10540000705405F087BE41F2D04030441AF0D0FF0E
:10541000012801D1012000E00020C0B2002800F0E6
:1054200029810DF5366141F2D04030440FF0D4FBB4
:1054300041F6284030444DF804CD0DF5006C9CED4C
:10544000D90B5DF804CB80ED000B42F288003044AC
:105450004DF804CD0DF5006C9CEDDB0B5DF804CB35
:1054600080ED000B17F0A4FD70491BF08DFDDFF8F7
:10547000281C1BF089FD0400002148A817F0D2FD6C
:10548000DDE94801CDE9C801C8A9200017F0D6FD23
:1054900017F08EFDDFF8B41C1AF029F917F088FD1B
:1054A00041F69821314491ED000B1BF03EFC604920
:1054B0001AF082FA17F07CFD0400072148A817F0C3
:1054C000B1FDDDE94801CDE9C601C6A9200017F00C
:1054D000B5FD17F06DFDDFF8781C1AF008F917F02C
:1054E00067FD41F62841314491ED000B1BF01DFC96
:1054F00017F05EFDC1A11AF0FAF84D491AF05CFAF6
:1055000017F056FDDFF84C1C1AF0F1F817F050FDBB
:10551000040042F288003044D0E900230020DFF884
:10552000381C16F03BFD41EC100B20001BF0FDFB7E
:1055300017F03EFDDFF8241C1AF0D9F83C491AF0A8
:105540003BFA17F035FDDFF8181C1AF0D0F817F009
:105550002FFDDDF8881B1AF0C5F917F029FD344935
:105560001AF02AFA42F25000305C00286DD042F264
:105570002800305C002863D041F69820304490ED3C
:10558000001B41F62840304490ED000B16F500500A
:105590001BF066FF41F628403044D0E900010022AC
:1055A00000231BF071FF16D241F668303044D0E979
:1055B00000010022DFF8AC3B16F0E2FD41F6982234
:1055C0003244D2E900231BF023FC41F698223244F6
:1055D000C2E9000117E041F668303044D0E900012B
:1055E0000022DFF8803B16F0CBFD02000B0041F6F5
:1055F00098203044D0E900011BF026FB41F69822A8
:105600003244C2E9000141F69820304490ED000B8D
:1056100041F2304030440DF0E1FB092041F66A21AF
:10562000705427E020F10000ACF80508C3330608E9
:1056300059E705085426060830EF05084C0E060801
:10564000132041F66A21705414E041F6683030446A
:10565000D0E9002341F670303044D0E9000116F063
:105660009DFC41F678323244C2E90001132041F634
:105670006A21705405F04EBD41F2304030440DF0C7
:10568000F9FCC0B2002801D0012000E00020C0B227
:10569000002808D041F2D04030440DF0B5FE0A2079
:1056A00041F66A21705405F035BD41F2D0403044D6
:1056B0001AF07EFE012801D1012000E00020C0B2D6
:1056C000002800F0868040F61831694441F2D0404D
:1056D00030440FF081FA41F6284030444DF804CDB3
:1056E0000DF5006C9CEDC70B5DF804CB80ED000B55
:1056F00017F05EFCDFF8701A1BF046FCDFF8981913
:105700001BF042FC0400002148A817F08BFCDDE9E7
:105710004801CDE9C401C4A9200017F08FFC17F09F
:1057200047FCDFF8481A19F0E2FF17F041FC41F698
:105730009821314491ED000B1BF0F7FADFF8301A95
:105740001AF03AF917F034FC0400072148A817F0C2
:1057500069FCDDE94801CDE9C201C2A9200017F0CA
:105760006DFC17F025FCDFF80C1A19F0C0FF17F0DC
:105770001FFC41F62841314491ED000B1BF0D5FA96
:1057800017F016FC1DA119F0B2FFDFF8E4191AF0AA
:1057900013F941F69820304490ED001B41F6284063
:1057A000304490ED000B16F500501BF059FE16F535
:1057B00000501BF083FE41F67830304442F2200165
:1057C000314491ED000B80ED000B132041F66A216E
:1057D000705405F09FBC41F2D04030441AF0E8FD0F
:1057E000012801D1012000E00020C0B2002816D01D
:1057F00017F0DEFBDFF8801902E000BF20C20000D6
:1058000019F075FFDFF868191AF0D6F841F2D040A8
:1058100030440DF0F9FD0C2041F66A21705405F07A
:1058200079BC41F2D04030441AF0C2FD012801D1C8
:10583000012000E00020C0B2002800F081800DF5BA
:105840002D6141F2D04030440FF0C6F94DF804CD3F
:105850000DF5006C9CEDB58B5DF804CB17F0A8FB43
:105860000400072148A817F0DDFBDDE94801CDE978
:10587000C001C0A9200017F0E1FB17F099FBDFF889
:10588000F41819F034FF17F093FBB0EE480AF0EE6D
:10589000680A1BF04AFA17F08BFBB7A119F027FF33
:1058A000DFF8CC181AF088F841F67420305C012833
:1058B00004D041F67420305C04280ED117F078FB38
:1058C000DFF8141E19F013FFDFF8A4181AF074F8AB
:1058D0000D2041F66A21705432E09DF8100B00282B
:1058E00014D017F065FBDFF8F41D19F000FF17F076
:1058F0005FFBDFF8EC1D19F0FAFEDFF874181AF000
:105900005BF80D2041F66A21705419E017F050FB46
:10591000DFF8D01D19F0EBFE17F04AFBDFF8C81DC9
:1059200019F0E5FE17F044FBDFF8C01D19F0DFFEAB
:10593000DFF83C181AF040F81B2041F66A21705439
:1059400005F0E8BB41F2304030441BF027FB16F570
:10595000D45041F69821314491ED000B80ED000BBD
:1059600041F68820304416F5D55191ED000B80EDBD
:10597000000B002041F66C217050132041F670217D
:10598000705041F2304030440DF028F9112041F6BA
:105990006A21705405F0BEBB41F2304030440DF036
:1059A00069FBC0B2002801D0012000E00020C0B295
:1059B00000280CD016F5D45090ED000B41F2304089
:1059C00030440DF00BFA122041F66A21705405F0B4
:1059D000A1BB41F2304030440DF04CFBC0B2002876
:1059E00001D0012000E00020C0B2002803D00E202A
:1059F00041F66A21705405F08DBB41F2D04030442D
:105A00001AF0D6FC012801D1012000E00020C0B22C
:105A1000002808D041F2D04030440DF0F5FC0F20B2
:105A200041F66A21705405F075BB41F2D040304414
:105A30001AF0BEFC012801D1012000E00020C0B214
:105A4000002803D0102041F66A21705405F062BB93
:105A500040F68821694441F2D04030440FF0BCF850
:105A600041F6284030444DF804CD0DF5006C9CED16
:105A7000A30B5DF804CB80ED000B41F66C20305891
:105A8000401CCDF8900616F5D450D0E9000117F06F
:105A9000D3FCCDF8940641F688203044D0E90001CB
:105AA0001BF0A8FCCDF8980641F62840304490ED54
:105AB000000B4DF804CD0DF5806C8CEDA90B5DF855
:105AC00004CB0DF50063D3E9A4230020DFF888168A
:105AD00016F064FA41EC180B51EC180B31F0004150
