:020000040800F2
:1000000028CC0020091207083F6C0208D56E0208B0
:10001000F36E0208116F02082F6F02080000000043
:100020000000000000000000000000004D6F02080A
:100030005D6F0208000000006D6F02087D6F02080E
:1000400039730208397302083973020839730208D8
:1000500039730208397302088D6F02083973020878
:1000600039730208A76F020839730208397302084E
:1000700039730208397302083973020839730208A8
:10008000C16F020839730208397302083973020814
:10009000397302083973020839730208D16F0208F4
:1000A000397302084970020839730208397302086B
:1000B0007D7002088D7002083973020839730208D6
:1000C0003973020839730208397302083973020858
:1000D00039730208597202086972020879720208BB
:1000E000AD700208397302083973020835710208CD
:1000F0005B710208397302088771020839730208BC
:1001000039730208897202089D7002083973020867
:1001100099720208A9720208397302083973020839
:10012000B9720208C9720208D9720208E97202089B
:1001300039730208397302083973020839730208E7
:100140003973020839730208397302080973020807
:1001500039730208F9720208397302081973020828
:1001600039730208397302083973020839730208B7
:1001700039730208297302083973020839730208B7
:100180003973020810B5144C2078002805D10021DD
:10019000124811F0FDFD01202070114C207800283C
:1001A00005D100210F4811F0F3FD012020700E4C05
:1001B0002078002805D100210C4811F0E9FD01202C
:1001C00020700B4C2078002805D10021094811F03F
:1001D000DFFD0120207010BDA09B0020589B002057
:1001E000A19B0020609B0020A29B00205C9B002024
:1001F000A39B0020549B00202DE9F74F2DED048B8D
:10020000E8B004006D982060002300220021201D2A
:1002100011F0C0FD6E98C4F8080A206810F5A471AA
:1002200014F5216013F068F8206810F590700090C4
:10023000206810F58873206810F58072012104F69B
:10024000582017F09DF914F52A6017F0F1FB14F50A
:100250002E6017F00FFD04F6FC2017F031FD04F6B8
:10026000083017F02DFD04F6143017F029FD14F5B1
:10027000326017F02FFD002114F53B6017F0C2FD2E
:1002800004F6B43017F037FE002214F53C61201D4F
:1002900017F016FF80080200206810F1980114F58D
:1002A0003C6018F033FF012084F8880C0120269070
:1002B00026A819F077FACDE9040140200290002029
:1002C0000190012000904FF48053206810F1D0027B
:1002D000206810F54C7114F549601AF0E2FE002315
:1002E000002214F5496104F6F8501AF035FF04F6BF
:1002F000F85214F5496141F2104020440BF0C8F95E
:1003000041F2184500200290206810F5EA70019033
:10031000206810F5E2700090206810F5DA7320680C
:1003200010F5D272206810F5417104EB05001BF046
:10033000ABFA04EB050114F5A35012F0BDFC2068E4
:1003400010F55773206810F5AA72206810F5367101
:1003500014F5A85013F091F86420259025A81BF0FF
:10036000F9FCCDE92E012EA941F2587020441BF072
:10037000F3FD4FF4FA70249024A81BF0EBFCCDE9B8
:100380002C012CA941F2687020441BF0E5FD4FF4CC
:100390007A77239723A81BF0DDFCCDE92A012AA94F
:1003A00041F2787020441BF053FD002041F290711F
:1003B0006054DFF8181C61A81BF0ACFE642022908A
:1003C00022A81BF0C7FC00220492CDE90201002004
:1003D000009061AB206810F50172206810F505717E
:1003E00041F29870204412F0FCFA61A81BF0A2FEC2
:1003F000DFF8DC1B5AA81BF08DFE6420219021A899
:100400001BF0A8FC00220492CDE90201002000901C
:100410005AAB206810F50972206810F50D7114F5BB
:10042000C05012F0DEFA5AA81BF084FEDFF8A41BBD
:1004300053A81BF06FFE01230200206810F5117114
:1004400041F66800204412F031FA53A81BF072FE06
:10045000DFF8841B4CA81BF05DFE0023020020681F
:1004600010F5157114F5C65012F020FA4CA81BF0C7
:1004700061FEDFF8681B45A81BF04CFE002302005C
:10048000206810F5197141F61810204412F00EFA88
:1004900045A81BF04FFEDFF8481B3EA81BF03AFEB4
:1004A0006420209020A81BF055FC00220492CDE986
:1004B0000201002000903EAB206810F51D722068FC
:1004C00010F5217141F67010204412F08AFA3EA80E
:1004D0001BF030FEDFF80C1B37A81BF01BFE64205E
:1004E0001F901FA81BF036FC00220492CDE90201E8
:1004F0000020009037AB206810F52572206810F5B9
:10050000297141F6D810204412F06BFA37A81BF07D
:1005100011FEDFF8D41A30A81BF0FCFD64201E90F9
:100520001EA81BF017FC00220492CDE90201002056
:10053000009030AB206810F52D72206810F53171F5
:1005400014F5D25012F04DFA30A81BF0F3FD002044
:1005500041F6A8216054002041F6A92160540020F2
:1005600041F6AA216054002041F6AC2160501420CD
:1005700041F6B0216050022041F6B42160540320BE
:1005800041F6B8216050012041F6BC21605014F5BD
:10059000D65000220023C0E9002341F6C8202044A1
:1005A00000220023C0E9002341F6D020204400228D
:1005B0000023C0E9002341F6D82020440022002374
:1005C000C0E9002312269FED1A8B3500002E00D5BE
:1005D0006D429FED199BE80707D551EC190B53ECC1
:1005E000182B1BF0C5FD41EC190B6D08002D08D030
:1005F00051EC180B53EC182B1BF0BAFD41EC180B07
:10060000E9E7002E20D553EC192B002000211BF028
:1006100091FE02D19FED0A9B16E00020DFF8D41E68
:1006200053EC192B1BF096FE41EC190B0CE000BFAC
:100630000000000000000040000000000000F03F4B
:10064000000000000000F07F4FF4D75004EB0001E1
:1006500081ED009B204490ED000B41F6E820204402
:1006600080ED000B41F6F020204400220023C0E979
:100670000023002041F6F821605414F5D8500022E0
:10068000DFF8703EC0E9002341F608302044002224
:10069000DFF8603EC0E9002341F61030204400221C
:1006A0000023C0E9002341F6183020440022002333
:1006B000C0E9002314F5D95000220023C0E900232B
:1006C00041F62830204400220023C0E9002341F6EF
:1006D0003030204400220023C0E9002341F63830A6
:1006E000204400220023C0E9002364201D901DA89F
:1006F0001BF030FB14F5DA52C2E9000164201C90B3
:100700001CA81BF027FB41F648322244C2E9000135
:1007100065201B901BA81BF01DFB41F650322244A4
:10072000C2E90001052041F658316050002041F631
:100730005C31605014F5DB501BF02FFF41F66C303C
:1007400020441BF02AFF41F6783020440022002389
:10075000C0E9002314F5DC5000220023C0E9002387
:1007600041F68830204400220023C0E90023012004
:1007700041F69031605441F6943020441BF015FF4F
:10078000002014F5DD51087041F6A13500206055B8
:1007900041F6A830204400220023C0E9002341F69E
:1007A000B03004EB0001DFF8502DDFF8503DC1E917
:1007B000002341F6B83121440022DFF8383DC1E979
:1007C0000023204490ED000B14F5DE5080ED000B6B
:1007D000002041F6C8316054002041F6C931605410
:1007E00041F6D030204400220023C0E9002300203D
:1007F00041F6D8316054002019901A971AAA19A905
:1008000014F5DF501BF0EEFA002041F6F83160508D
:10081000002041F6FC316050002014F5E0510860E2
:10082000002041F60441605041F60840204410F099
:1008300057FE002041F630416054189718A81BF06D
:1008400089FACDE9280128A941F6384020441BF057
:1008500083FB002041F64841605441F66840204443
:1008600000220023C0E9002341F67040204400220A
:100870000023C0E9002341F67840204400220023F1
:10088000C0E9002314F5E45000220023C0E900234E
:1008900041F68840204400220023C0E900230020C4
:1008A00041F69041605441F69840204400220023D4
:1008B000C0E90023002014F5E5510860002041F64E
:1008C000A4416050012041F6A8416050052041F646
:1008D000AC416050002041F6B041605041F6B44058
:1008E00020441BF06AFE14F5E6501BF056FE022071
:1008F00041F6CC416050002041F6D041605441F6B1
:10090000D84020440022DFF8EC3BC0E9002314F576
:10091000E7500022DFF8DC3BC0E90023002041F66D
:10092000E8416054002041F6E9416054002014F58C
:10093000E9510870002041F658516054002041F6FA
:1009400059516054002041F690516054002041F606
:10095000F8516054002014F5F351087014F5DA5181
:1009600014F5F6501BF074FA41F6307020441BF079
:100970002CFE002041F66871605441F670702044EE
:1009800000220023C0E9002341F6787020440022B1
:100990000023C0E9002314F5FC5000220023C0E925
:1009A000002341F68870204400220023C0E9002380
:1009B00041F69070204400220023C0E9002341F654
:1009C000B870204400220023C0E9002314F5FE5033
:1009D00000220023C0E900236420179017A81BF011
:1009E000B9F941F6C87604EB0602C2E9000141F606
:1009F000D070204400220023C0E900230A2041F6E1
:100A0000D871605041F2240020441BF0F9FD80466B
:100A100041F2240020441BF0F3FD80B202001FFAD3
:100A200088F8414641F6F87020441BF0FAFD42F286
:100A30003800204400220023C0E9002314F50150AF
:100A400000220023C0E9002342F248002044002293
:100A50000023C0E90023642042F2500160500020CE
:100A600042F2A8016054002042F2A90160547820AB
:100A7000169016A818F096FE42F2B0022244C2E97F
:100A800000014FF41670159015A818F08BFE42F275
:100A9000B80204EB0203C3E9000104EB020114F500
:100AA00003501BF0D5F9012042F2D801605442F204
:100AB000E000204400220023C0E9002342F2E800C5
:100AC000204400220023C0E90023002042F2F0016C
:100AD000605042F2F8002044DFF8502FDFF8503F1A
:100AE000C0E9002314F504500022DFF8083AC0E9F9
:100AF000002342F20810204400220023C0E9002312
:100B000042F2101020440022DFF8E839C0E9002347
:100B1000012042F21811605042F21C10275042F29C
:100B2000201020440022DFF8CC39C0E9002304F271
:100B3000FC70109041F24C2020440F9004F2F470AD
:100B40000E9041F2442020440D9004F2EC700C9081
:100B500004F2E4700B9041F23C2020440A9004F22D
:100B6000DC70099004F2D470089004F2CC70079005
:100B700004F2C470069004F2BC70059004F2B470E4
:100B8000049004F2AC70039004F2A470029004F29A
:100B90009C700190206810F584600090206810F52A
:100BA0008263206810F58062206810F57C7142F243
:100BB0002810204414F08EFA42F2684904EB090030
:100BC0000022DFF83039C0E9002342F2704704EB1D
:100BD0000702DFF8580EDFF85C1EC2E9000142F29E
:100BE000784804EB08020020DFF80819C2E9000188
:100BF00014F5125200200021C2E9000142F288409F
:100C000004EB00020020DFF8301EC2E9000142F2CE
:100C1000904A9FED661B9FEDEB0B04F2AC7104EB69
:100C20000A0014F07DFF42F2A84B04F674000E9007
:100C300004F668000D9004F65C000C9004F64C007D
:100C40000B9004F644000A9004F63C00099004F668
:100C50003400089004F62C00079004F62400069057
:100C600004F61C00059004F61400049004F60C0031
:100C7000039004F60400029000200190206810F513
:100C80007470009004EB080090ED002B04EB07005B
:100C900090ED001B04EB090090ED000B462320684B
:100CA00010F5587204EB0A0104EB0B001BF0D3FCA7
:100CB00004EB0B0142F20850204414F08FFF41F284
:100CC000AC202044109014F595500F9041F29420E0
:100CD00020440E9041F2842020440D9041F27C206B
:100CE00020440C9041F2742020440B9041F26C207F
:100CF00020440A9041F264202044099041F25C2093
:100D00002044089041F254202044079004F67400D7
:100D1000069004F66800059004F65C00049004F662
:100D20003C00039004F63400029004F62C0001907D
:100D300004F62400009004F61C0304F6140204F6E2
:100D4000040142F2D860204415F024FB42F22879D5
:100D500004EB09000022DFF89C37C0E9002342F2CF
:100D6000307704EB0702DFF8C40CDFF8C81CC2E9D7
:100D7000000142F2387804EB08020020DFF8741713
:100D8000C2E9000114F51D5200200021C2E9000152
:100D900042F2487004EB00020020DFF89C1CC2E91C
:100DA000000142F2507A9FED911B03E00000000029
:100DB000008041409FED830B04F29C7104EB0A001C
:100DC00014F0AEFE42F2687B14F50F600E9004F64C
:100DD000E4000D9004F6D8000C9004F6C8000B90C7
:100DE00014F50C600A9004F6B800099014F50B6035
:100DF000089004F6A800079014F50A60069004F61F
:100E00009800059014F50960049004F6880003909A
:100E100014F50860029000200190206810F57870A9
:100E2000009004EB080090ED002B04EB070090ED20
:100E3000001B04EB090090ED000B4523206810F522
:100E4000667204EB0A0104EB0B001BF004FC04EBDC
:100E50000B0142F2C870204414F0C0FE41F2103081
:100E60002044109041F2043020440F9041F2F820C9
:100E700020440E9041F2E82020440D9014F5975044
:100E80000C9041F2D82020440B9041F2D020204415
:100E90000A9041F2C8202044099014F59650089019
:100EA00041F2B8202044079014F50F60069004F634
:100EB000E400059004F6D800049004F6B80003900E
:100EC00014F50B60029004F6A800019014F50A6076
:100ED000009004F6980314F5096214F5086142F6CF
:100EE0009810204415F056FA002042F6E81160549C
:100EF00004F6F852211D42F6F010204410F060FC78
:100F0000200000F0A1FD200000F0B3FD1BF0F8FB75
:100F1000149014F578601BF0F9FB8DF8500004F67E
:100F200088701BF0F3FB8DF8510014F579601BF00D
:100F3000EDFB8DF8520004F698701BF0E7FB8DF87E
:100F400053001BF0DDFB139014F57A601BF0DEFB01
:100F50008DF84C0004F6A8701BF0D8FB8DF84D00FE
:100F600014F57B601BF0D2FB8DF84E0004F6B870D0
:100F70001BF0CCFB8DF84F001BF0C2FB129014F558
:100F80007C601BF0C3FB8DF8480004F6C8701BF0B2
:100F9000BDFB8DF8490014F57D601BF0B7FB8DF8A3
:100FA0004A0004F6D8701BF0B1FB8DF84B0014F525
:100FB0007E601BF0BCFB00281CD001208DF8440093
:100FC0001BE000BF0000000000002E407014070866
:100FD0007814070880140708881407089014070875
:100FE00098140708A0140708A814070800000000B8
:100FF0000080464000208DF844009DF84400009099
:10100000129B139A14992068A0301BF00CFC1CF062
:101010009AF80700082101A81CF0B2F8DDE90101E7
:10102000CDE90B010BA938001CF0B6F804F6F85016
:101030001CF0C2F841F690316054214414F11C00B8
:101040001CF0C9F814F560601CF0D2F841F60830C5
:1010500004EB000181ED000B04EB000114F1B4007E
:101060001CF0F0F804F608601CF0C2F814F5D85033
:1010700080ED000B14F5D85114F1BC001CF0E2F81F
:1010800014F5776114F1D4001CF0E9F804F67871D6
:1010900014F1DC001CF0E3F814F561601CF08CF82E
:1010A0000100C9B214F5A35011F0DEFF14F5A350EE
:1010B00012F06AF88DF801000DF1010114F5CC7001
:1010C0001CF089F804F618601CF076F841F6B82197
:1010D000605060588DF80000694614F5D0701CF01F
:1010E0007AF814F562601CF067F80A900AA81AF002
:1010F00031FE41F648322244C2E9000114F5626132
:1011000014F5FE701CF0BEF804EB0600D0E90023D5
:1011100014F5A35012F040F804F658701CF04CF887
:10112000099009A81AF016FE41F650322244C2E98D
:10113000000104F6587114F578701CF0A3F804F659
:1011400028601CF039F8089008A81AF003FE4FF444
:10115000DA5B04EB0B02C2E9000104F6286114F526
:1011600001701CF08FF814F563601CF041F841F633
:10117000D03704EB070080ED000B04EB070114F5FA
:1011800003701CF05FF804F638601CF08DF81CF05A
:10119000A9F804EB0702C2E9000104EB070114F50A
:1011A00003701CF04FF814F564601CF005F841F66C
:1011B00058316050214414F507701CF0A4F8200049
:1011C0000AF0A2FC41F6F04004EB000114F5A8502F
:1011D00013F0EEF914F568601BF012FA41F66A712B
:1011E0006052214414F56A701CF09AF804F6886085
:1011F0001BF006FA41F66C716052214414F56C70D4
:101200001CF08EF804F6EC7114F580601CF027F8E1
:1012100004F6EC701BF0ECFF41F67070204480ED9A
:10122000000B04F6F47114F581601CF018F804F654
:10123000F4701BF0DDFF41F67870204480ED000B68
:1012400004F6FC7114F582601CF009F804F6FC70D9
:101250001BF0CEFF14F5FC5080ED000B41F20407AB
:1012600004EB070114F583601BF0F9FF04EB0700A2
:101270001BF0BEFF41F68870204480ED000B14F592
:10128000A3501CF067F841F6F060204480ED000B9D
:1012900014F5A3501CF0AEF841F6F860204480ED40
:1012A000000B14F5F85000220023C0E9002341F69A
:1012B0000870204400220023C0E9002341F610708A
:1012C000204400220023C0E90023002041F61871C9
:1012D0006050002041F61C71605014F5F950002256
:1012E0000023C0E9002341F628702044DFF83C27A2
:1012F000DFF84837C0E9002341F20C0704EB07018F
:1013000014F585601BF0ABFF04EB07001BF070FFCA
:1013100041F6B87804EB080080ED000B41F21407A9
:1013200004EB070114F586601BF099FF04EB07003E
:101330001BF05EFF4FF4FE5704EB070080ED000B3F
:1013400004EB080090ED000B41F69870204480ED0E
:10135000000B14F5FD5200200021C2E9000141F606
:10136000A87004EB000200200021C2E90001012165
:1013700014F5A85012F098F904EB0700D0E9002307
:1013800051EC100B1AF0F4FE41F6B0722244C2E99F
:10139000000141F21C0704EB070114F589601BF002
:1013A0005EFF04EB07001BF023FF41F6D07804EB4F
:1013B000080080ED000B41F2240704EB07001BF04E
:1013C0001FF980B241F6D871605014F5FF52002029
:1013D0000021C2E9000141F6E87004EB00020020A0
:1013E0000021C2E90001012114F5A85012F05CF9B6
:1013F00004EB0800D0E9002351EC100B1AF0B8FE02
:1014000041F6F0722244C2E9000104EB070114F531
:101410008E601CF043F841F23C0020441BF0E8FED3
:101420004FF4015004EB000181ED000B42F238074C
:10143000204490ED000B20000AF0AAFA04EB07000C
:1014400080ED000B14F5015114F592601BF0FAFECB
:1014500004EB070114F591601BF0F4FE41F2440027
:1014600020441BF0C5FE42F2480004EB000181ED70
:10147000000B04EB000114F593601BF0E3FE41F256
:101480002C0704EB07001BF041F9C0B215F0BFFBBD
:1014900042F2D801605404EB070114F58F601CF090
:1014A00010F814F565601BF0A3FE4FF4E35904EB4C
:1014B000090080ED000B14F5E35114F55C701BF08E
:1014C000C1FE04F698601BF093FE41F6B83004EBC1
:1014D000000181ED000B04EB000114F570701BF0AE
:1014E000B1FE04F6A8601BF022F9002808D0012004
:1014F00007E000BF0000F03FCDCCCCCCCC60B540C5
:1015000000204FF4DD516054615C14F160001BF069
:10151000EBFF04F6B4601BF00AF9002801D00120AB
:1015200000E0002041F648416054615C14F5C6704B
:101530001BF0DAFF14F56C601BF0F9F8002801D0FD
:10154000012000E000206055615D14F515701BF06E
:10155000CBFF41F2987A615D04EB0A001BF0DAFFE1
:10156000615D14F5C0501BF0D5FF41F67018615D48
:1015700004EB08001BF0CEFF41F6D817615D04EBC9
:1015800007001BF0C7FF615D14F5D2501BF0C2FFCE
:1015900004F6CC601BF0CBF8002801D0012000E05D
:1015A000002041F690416054615C14F51E701BF000
:1015B0009BFF14F574601BF077FE41F6BC21605070
:1015C000214414F572701BF0A8FF04F648701BF05C
:1015D0006BFE41F6A84160506058029002A914F5D4
:1015E00074701BF09AFF14F575601BF05DFE41F6F8
:1015F000AC4160506058019001A914F576701BF061
:101600008CFF14F576601BF0F3FD41F6D84004EB37
:10161000000181ED000B04EB000114F57A701BF062
:1016200011FE04F6D86114F521701BF083FF14F548
:101630006F6114F544701BF07DFF14F544701BF0CE
:1016400076F8002801D0012100E00021C9B214F58C
:10165000A8501BF08EFF04F668701BF0C9FD14F54E
:10166000E75080ED000B14F5E75114F57C701BF08A
:10167000E9FD04F608701BF049F80100C9B220002A
:101680000FF014FF41F6B421605404F6087114F50C
:101690002D701BF016FF04F61C7114F54D701BF035
:1016A00049FF04F6287114F550701BF043FF41F216
:1016B0000C2504EB05001BF09BFD42F2F8002044D2
:1016C00080ED000B04EB050114F598601BF0C7FDDD
:1016D00041F2142504EB05001BF08AFD14F50450BB
:1016E00080ED000B04EB050114F599601BF0B7FDCC
:1016F00041F21C2504EB05001BF07AFD42F20810B4
:10170000204480ED000B04EB050104F27C701BF01B
:10171000A6FD41F2242504EB05001BF069FD42F211
:101720001010204480ED000B04EB050104F28470DE
:101730001BF095FD41F22C2504EB05001BF0B4FDD8
:1017400042F21811605004EB050104F28C701BF09A
:1017500013FF41F2342504EB05001BF049FD51EC69
:10176000100B1BF01BFF42F21C11605004EB050133
:1017700004F294701BF073FD14F5A05114F1CC0029
:101780001BF06DFD04F6347114F553701BF0D2FE9E
:1017900041F2084504EB050114F51F601BF05FFDE5
:1017A00004EB05001BF024FD42F22010204480EDE4
:1017B000000B41F6504004EB000200200021C2E97A
:1017C000000141F6584004EB000200200021C2E96C
:1017D000000114F565601BF00BFD04EB090080EDC2
:1017E000000B04F628601BF0E7FC079007A81AF02E
:1017F000B1FA04EB0B02C2E9000114F5786114F5AB
:101800009D601BF05EFE04F6887114F59E601BF06F
:1018100058FE14F5796114F59F601BF052FE04F632
:10182000987114F5A0601BF04CFE14F57A6114F564
:10183000A1601BF046FE04F6A87114F5A2601BF02F
:1018400040FE14F57B6114F5A3601BF03AFE04F62C
:10185000B87114F5A4601BF034FE14F57C6114F526
:10186000A5601BF02EFE04F6C87114F5A6601BF0EF
:1018700028FE14F57D6114F5A7601BF022FE04F626
:10188000D87114F5A8601BF01CFE14F57E6114F5E8
:10189000A9601BF04FFE04EB0600D0E9002304EB27
:1018A0000A0011F0FBF804EB0600D0E9002314F560
:1018B000C05011F0F3F804EB0600D0E9002341F624
:1018C0006800204411F034F804EB0600D0E900234E
:1018D00014F5C65011F02CF804EB0600D0E90023F3
:1018E00041F61810204411F023F804EB0600D0E96B
:1018F000002304EB080011F0D1F804EB0600D0E956
:10190000002304EB070011F0C9F804EB0600D0E94E
:10191000002314F5D25011F0C1F804F6EC7114F55F
:1019200080601BF09CFC04F6582114F52E601BF01F
:1019300052FE14F52A6114F532601BF079FE04F6AC
:10194000143114F532601BF075FE04F6FC2114F519
:1019500032601BF06FFE04F6083114F532601BF0A4
:1019600069FE1420069006A81AF0F4F902000B0094
:1019700014F532601BF068FE1420059005A81AF0DB
:10198000E9F902000B0014F532601BF068FE4FF419
:10199000FA70049004A81AF0DDF902000B0014F5A7
:1019A00032601BF067FE3220039003A81AF0D2F9D0
:1019B00002000B0014F532601BF068FE78201BF06B
:1019C00073FE0500231D04F6143214F52E61280061
:1019D0001DF047FE010014F53B601DF06FFF002174
:1019E00014F5216011F0C7FC1BF0ADFB14491DF08C
:1019F0007BFF1BF0A8FB08211EF071F811491EF0B7
:101A0000D8F804F6082104F6FC001BF07CFC41F237
:101A10001C3004EB000104F604101BF033FC200022
:101A200068B0BDEC048BBDE8FE8F00BF9A99999910
:101A30009999D93F9999A93F000039409999B93F9F
:101A4000E8DB060889A3060810B50400206810F535
:101A5000987114F52A6016F080F8206810F59E71D0
:101A600014F52A6016F091F814F52A6016F0AEF815
:101A700010BD70472DE9F84F2DED0C8BADF54C6D79
:101A8000040020681BF05CFA14F53C6017F06AFC57
:101A900014F5496019F080F941F2184020441AF019
:101AA0005AF814F5A35011F0C9FB94F8880C0028DB
:101AB0002FD01AF025FE05901AF022FE18901AF089
:101AC0001FFE179000208DF811000DF111000090FD
:101AD00017AB18AA05A92068A0301AF085FE9DF85A
:101AE000140000280BD19DF81500002807D19DF89F
:101AF0001600002803D19DF81700002809D0002007
:101B000084F8880C206810F1A0010DF1120013F088
:101B100097F900250A2D05D214F5A85011F042FFBF
:101B20006D1CF7E741F2987504EB050010F0EBFF30
:101B300014F5C05010F0E7FF41F66800204410F0A3
:101B40001EFF14F5C65010F01AFF41F6181804EBEA
:101B5000080010F014FF41F6701604EB060010F0B8
:101B6000D2FF41F6D810204410F0CDFF14F5D2502A
:101B700010F0C9FF14F5216011F012FC14F53B6060
:101B80001EF028F81DF012FE04F6582015F0D2FDC4
:101B900014F532601EF040F842F22810204413F091
:101BA00093FC42F20850204414F025FA42F2C87027
:101BB000204414F020FA04F6FC201EF082F90028DC
:101BC00001D0012000E00020C0B2002804D0002194
:101BD00014F5216011F0CFFB41F2587020441AF047
:101BE000DCF9C0B2002801D0012000E00020C0B222
:101BF000002801F085810021201D1EF068F92000D9
:101C00000AF05AFB14F5E951087020000AF0BFFCF5
:101C1000070041F65851605C002800D1675420004D
:101C20000AF020FE834641F65951605C002801D13C
:101C300004F801B020000AF0E4FF41F6905160542E
:101C400020000BF049F941F6F851605420000BF0E8
:101C5000AEFA14F5F351087020000AF0E0FA41F6EC
:101C6000A82A14F80A00012800F04D8114F5DA7052
:101C70001BF0BEFAB0EE408AF0EE608A14F5A35075
:101C800011F026FA53EC182B51EC100B1AF052FB02
:101C900001D0012000E00020C0B200280AD014F5D5
:101CA000A35011F015FA8DEDEE0BEEA914F5DA70D4
:101CB0001BF0C8FA14F5DE701BF0F6FA070014F5F5
:101CC000A35011F059FA874201D0012000E0002012
:101CD000C0B2002809D014F5A35011F04DFA1690A7
:101CE00016A914F5DE701BF018FC14F5D4701AF068
:101CF0001EFD070014F5A35011F089F8C0B2874209
:101D000001D0012000E00020C0B2002809D014F565
:101D1000A35011F07CF80100C9B214F5D4701BF087
:101D2000E3FB14F5CC701AF0F1FC070014F5A35096
:101D300011F02AFAFFB2C0B2874201D0012000E0C0
:101D40000020C0B200280AD014F5A35011F01CFAEC
:101D50008DF8100004A914F5CC701BF03CFA14F5B2
:101D6000AE701AF0E4FC070004EB050010F083FEEF
:101D7000874201D0012000E00020C0B2002808D036
:101D800004EB050010F077FE010014F5AE701BF0B7
:101D9000ABFB14F5B4701AF0CAFC070014F5C05080
:101DA00010F069FE874201D0012000E00020C0B29F
:101DB000002808D014F5C05010F05DFE010014F5A5
:101DC000B4701BF091FB14F59C701AF0B0FC070086
:101DD00041F66800204410F0A0FD874201D00120A8
:101DE00000E00020C0B2002809D041F6680020447D
:101DF00010F093FD010014F59C701BF075FB14F1BD
:101E0000E4001AF094FC070014F5C65010F085FDAC
:101E1000874201D0012000E00020C0B2002808D095
:101E200014F5C65010F079FD010014F1E4001BF028
:101E30005BFB14F1F0001AF07AFC070004EB0800D9
:101E400010F06BFD874201D0012000E00020C0B2FD
:101E5000002808D004EB080010F05FFD010014F129
:101E6000F0001BF041FB14F1FC001AF060FC0700CD
:101E700004EB060010F0FFFD874201D0012000E0D6
:101E80000020C0B2002808D004EB060010F0F3FDDB
:101E9000010014F1FC001BF027FB14F584701AF00C
:101EA00046FC070041F6D810204410F0E4FD8742BC
:101EB00001D0012000E00020C0B2002809D041F686
:101EC000D810204410F0D7FD010014F584701BF0E9
:101ED0000BFB14F58A701AF02AFC070014F5D25097
:101EE00010F0C9FD874201D0012000E00020C0B2FF
:101EF000002808D014F5D25010F0BDFD010014F5F3
:101F00008A701BF0F1FA14F5A8501DF0FBFFC0B267
:101F1000002801D0012000E00020C0B2002800F01D
:101F2000E28041F6686904EB090114F5A85012F04B
:101F300013FF41F6906004EB000104F6E8101BF07B
:101F4000E2F99FED718B41F6706704EB0700D0E971
:101F5000002351EC180B1AF00BF941EC190B51EC62
:101F6000190B31F0004141EC100B8DED320B32A911
:101F700014F596601BF066F941F6A86004EB0001C9
:101F800004F6F8101BF05EF941F6B0602044D0E989
:101F9000002351EC180B1AF0EBF841EC190B51EC43
:101FA000190B31F0004141EC100B8DED300B30A9D5
:101FB00014F520601BF046F941F6786004EB00014F
:101FC00014F59C601BF0A9FA14F5F45114F5946013
:101FD0001BF038F941F688602044D0E9002351EC29
:101FE000180B1AF0C5F8CDE92E012EA914F595604D
:101FF0001BF028F914F80A0000280DD041F6A9209A
:10200000205C022808D004EB090090ED000B41F69B
:102010007040204480ED000B04EB070090ED009B26
:1020200051EC190B31F0004141EC100B42F6F0106D
:1020300020440FF049FC41F63071605C002852D01A
:102040000020605441F6387004EB000114F58860FC
:102050001BF0F8F814F5FA5114F584601BF0F2F84F
:1020600041F6487904EB090114F58A601BF0EAF89F
:1020700041F6507704EB070114F58B601BF0E2F892
:1020800004EB090090ED000B200009F0EBFB8DED57
:102090002C0B2CA914F58C601BF0D4F804EB070072
:1020A00090ED000B200009F0DDFB8DED2A0B2AA935
:1020B00014F58D601BF0C6F841F6587004EB000172
:1020C00014F587601BF0BEF814F5FB50D0E900232F
:1020D00051EC180B1AF04CF8CDE9280128A914F599
:1020E000F6701BF0AFF814F5F2701BF081F841F6B2
:1020F000704753EC102B04EB0700D0E900011AF0F5
:1021000019F905D0012004E00000000080842E4170
:102110000020C0B200281AD004EB070114F5F270B9
:102120001BF090F804EB070090ED000B41F65040D7
:1021300020441EF085F941F6684004EB000181ED72
:10214000000B04EB000114F55E701BF07BF814F536
:1021500018701AF0ECFA002801D0012000E00020ED
:10216000C0B2002826D0002114F518701BF0BCF96D
:1021700004EB070090ED000B41F65040204480ED49
:10218000000B04EB070090ED000B41F65840204493
:1021900080ED000B41F6684004EB000104EB070200
:1021A00092ED000B81ED000B04EB000114F55E7065
:1021B0001BF048F814F190001AF0A8FA14F80A106D
:1021C000C0B2884201D0012000E00020C0B2002847
:1021D00009D014F80A008DF80F000DF10F0114F169
:1021E00090001AF0F8FF14F80A0000282CD141F6EC
:1021F000A920205C022827D114F5AC601AF097FAC8
:10220000012801D1012000E00020C0B200280CD03C
:10221000002114F5AC601BF067F9002104F2545062
:102220001BF062F9200009F053F804F254501AF040
:102230007EFA002801D1012000E00020C0B2002871
:1022400002D0200009F0ADF814F11C001AF05EFA7B
:10225000070004F6F8501AF0AFFFFFB2874201D032
:10226000012000E00020C0B2002809D014F11C00B9
:102270001AF04CFA159015A904F6F8501BF043F823
:1022800014F1B4001AF0B4FFB0EE408AF0EE608AA8
:1022900014F560601AF0ACFF53EC182B51EC100BE6
:1022A0001AF048F801D0012000E00020C0B2002858
:1022B00005D014F1B40114F560601AF0D0FF14F1E8
:1022C000BC001AF095FFB0EE408AF0EE608A04F68A
:1022D00008601AF08DFF53EC182B51EC100B1AF01C
:1022E00029F801D0012000E00020C0B2002805D06C
:1022F00014F1BC0104F608601AF0B1FF14F1D40027
:102300001AF076FFB0EE408AF0EE608A14F577603E
:102310001AF06EFF53EC182B51EC100B1AF00AF860
:1023200001D0012000E00020C0B2002805D014F147
:10233000D40114F577601AF092FF14F1DC001AF062
:1023400057FFB0EE408AF0EE608A04F678701AF01B
:102350004FFF53EC182B51EC100B19F0EBFF01D091
:10236000012000E00020C0B2002805D014F1DC01FB
:1023700004F678701AF073FF14F5CC701AF0C6F9F1
:10238000070014F561601AF017FFFFB2874201D011
:10239000012000E00020C0B2002809D014F5CC7064
:1023A0001AF0B4F9149014A914F561601AF0ABFF97
:1023B00014F5D0701AF0AAF9070004F618601AF0A4
:1023C000FBFEFFB2874201D0012000E00020C0B236
:1023D000002809D014F5D0701AF098F9139013A9B9
:1023E00004F618601AF08FFF14F5FE701AF0E4FE80
:1023F000070014F562601AF0DFFE874201D0012069
:1024000000E00020C0B2002805D014F5FE7114F5DC
:1024100062601AF037FF14F501701AF0CDFE070064
:1024200004F628601AF0C8FE874201D0012000E0BF
:102430000020C0B2002805D014F5017104F6286010
:102440001AF020FF14F503701AF0D2FEB0EE408AA5
:10245000F0EE608A14F563601AF0CAFE53EC182B94
:1024600051EC100B19F066FF01D0012000E00020B4
:10247000C0B2002805D014F5037114F563601AF09A
:10248000EEFE14F505701AF00FFF070004F6386031
:102490001AF00AFF874201D0012000E00020C0B2FC
:1024A000002805D014F5057104F638601BF064F8B7
:1024B00014F507701AF080FE070014F564601AF036
:1024C0007BFE874201D0012000E00020C0B200283E
:1024D00005D014F5077114F564601AF0D3FE14F5F5
:1024E0005C701AF085FE4FF4E35753EC102B04EBAD
:1024F0000700D0E9000119F01DFF01D0012000E024
:102500000020C0B200280DD014F55C701AF070FEE7
:1025100004EB070080ED000B14F55C7114F56560A9
:102520001AF09DFE14F560701AF046FE070004F6DE
:1025300058601AF041FE874201D0012000E00020DF
:10254000C0B2002805D014F5607104F658601AF086
:1025500099FE14F562701AF02FFE070014F56660FC
:102560001AF02AFE874201D0012000E00020C0B20C
:10257000002805D014F5627114F566601AF082FE29
:1025800014F564701AF018FE070004F668601AF07B
:1025900013FE874201D0012000E00020C0B20028D5
:1025A00005D014F5647104F668601AF06BFE14F53A
:1025B0006A701AF025F8070014F568601AF020F820
:1025C000BFB280B2874201D0012000E00020C0B23B
:1025D000002805D014F56A7114F568601AF05EFFE2
:1025E00014F56C701AF00CF8070004F688601AF005
:1025F00007F8BFB280B2874201D0012000E000207E
:10260000C0B2002805D014F56C7104F688601AF089
:1026100045FF14F570701AF0EBFDB0EE408AF0EE55
:10262000608A04F698601AF0E3FD53EC182B51EC25
:10263000100B19F07FFE01D0012000E00020C0B295
:10264000002805D014F5707104F698601AF007FEA2
:1026500014F160001AF06BF8070004F6A8601AF095
:1026600066F8874201D0012000E00020C0B20028B7
:1026700005D014F1600104F6A8601AF05BFF14F5B0
:10268000C6701AF054F8070004F6B4601AF04FF858
:10269000874201D0012000E00020C0B2002805D010
:1026A00014F5C67104F6B4601AF044FF14F51E70F8
:1026B0001AF03DF8070004F6CC601AF038F88742AB
:1026C00001D0012000E00020C0B2002805D014F5A0
:1026D0001E7104F6CC601AF02DFF14F572701AF01A
:1026E000E3FD070014F574601AF0DEFD874201D0A7
:1026F000012000E00020C0B2002805D014F572715E
:1027000014F574601AF038FF14F574701AF0CCFDEB
:10271000070004F648701AF0C7FD874201D0012077
:1027200000E00020C0B2002805D014F5747104F652
:1027300048701AF021FF14F576701AF0B5FD070005
:1027400014F575601AF0B0FD874201D0012000E059
:102750000020C0B2002805D014F5767114F575601C
:102760001AF00AFF14F578701AF026FD070004F637
:1027700058701AF021FD874201D0012000E00020AE
:10278000C0B2002805D014F5787104F658701AF01C
:1027900079FD14F57A701AF02BFDB0EE408AF0EE58
:1027A000608A14F576601AF023FD53EC182B51EC77
:1027B000100B19F0BFFD01D0012000E00020C0B2D5
:1027C000002805D014F57A7114F576601AF047FDEB
:1027D00014F5217019F0ABFF070004F6D86019F06A
:1027E000A6FF874201D0012000E00020C0B20028EF
:1027F00005D014F5217104F6D8601AF09BFE14F58B
:10280000447019F094FF070014F56F6019F08FFF02
:10281000874201D0012000E00020C0B2002813D080
:1028200014F5447114F56F601AF084FE14F54470C9
:1028300019F07DFF002801D0012100E00021C9B27C
:1028400014F5A8501AF095FE14F53B7019F06FFFBF
:10285000070004F6E46019F06AFF874201D0012006
:1028600000E00020C0B2002805D014F53B7104F64A
:10287000E4601AF05FFE14F57C701AF0B9FCB0EE5B
:10288000408AF0EE608A04F668701AF0B1FC53ECEE
:10289000182B51EC100B19F04DFD01D0012000E078
:1028A0000020C0B2002805D014F57C7104F66870D1
:1028B0001AF0D5FC14F52D7019F028FF070004F666
:1028C000087019F023FFFFB2C0B2874201D0012087
:1028D00000E00020C0B2002805D014F52D7104F6E8
:1028E00008701AF0EEFD14F54D7019F020FF070086
:1028F00004F61C7019F01BFF874201D0012000E094
:102900000020C0B2002805D014F54D7104F61C70EB
:102910001AF010FE14F5507019F009FF070004F6C4
:10292000287019F004FF874201D0012000E0002048
:10293000C0B2002805D014F5507104F628701AF0C2
:10294000F9FD14F58F6019F0E1FE814641F22C0784
:1029500004EB070019F0DAFE5FFA89F9C0B281458D
:1029600001D0012000E00020C0B2002805D014F5FD
:102970008F6104EB07001AF0A4FD14F598601AF0BB
:1029800037FCB0EE408AF0EE608A41F20C2704EB8F
:1029900007001AF02DFC53EC182B51EC100B19F01A
:1029A000C9FC01D0012000E00020C0B2002824D0E2
:1029B00014F5986104EB07001AF051FC14F59860C7
:1029C0001AF016FC42F2F80704EB070080ED000B4A
:1029D00041F6680020440FF0A0FF012801D101203A
:1029E00000E00020C0B2002807D004EB070090ED03
:1029F000000B14F5A85012F0DAF914F599601AF0EA
:102A0000F7FBB0EE408AF0EE608A41F2142704EB47
:102A100007001AF0EDFB53EC182B51EC100B19F0DA
:102A200089FC01D0012000E00020C0B2002824D0A1
:102A300014F5996104EB07001AF011FC14F5996084
:102A40001AF0D6FB4FF4045704EB070080ED000B9F
:102A500041F6680020440FF060FF002801D10120FA
:102A600000E00020C0B2002807D004EB070090ED82
:102A7000000B14F5A85012F09AF914F53B7019F0F8
:102A800056FE070004F6E46019F051FE874201D0BB
:102A9000012000E00020C0B2002805D014F53B71F1
:102AA00004F6E4601AF046FD04F27C701AF0A0FB14
:102AB000B0EE408AF0EE608A41F21C2704EB07007A
:102AC0001AF096FB53EC182B51EC100B19F032FC5A
:102AD00001D0012000E00020C0B200280ED004F296
:102AE0007C7104EB07001AF0BAFB04F27C701AF058
:102AF0007FFB42F20810204480ED000B04F284704A
:102B00001AF076FBB0EE408AF0EE608A41F224279C
:102B100004EB07001AF06CFB53EC182B51EC100B74
:102B200019F008FC01D0012000E00020C0B200280C
:102B30000ED004F2847104EB07001AF090FB04F24B
:102B400084701AF055FB42F21010204480ED000B07
:102B500004F28C701AF0A8FB814641F22C2704EB9A
:102B600007001AF0A1FB814501D0012000E0002000
:102B7000C0B200280CD004F28C7104EB07001AF0EC
:102B8000FBFC04F28C701AF08FFB42F218116050BB
:102B900004F294701AF02CFBB0EE408AF0EE608ADA
:102BA00041F2342704EB07001AF022FB53EC182BF8
:102BB00051EC100B19F0BEFB01D0012000E0002009
:102BC000C0B2002810D004F2947104EB07001AF090
:102BD00046FB04F294701AF00BFB51EC100B1AF048
:102BE000DDFC42F21C11605014F51F601AF000FB6E
:102BF000B0EE408AF0EE608A41F2084704EB07002D
:102C00001AF0F6FA53EC182B51EC100B19F092FB5A
:102C100001D0012000E00020C0B2002805D014F54A
:102C20001F6104EB07001AF01AFB14F5157019F078
:102C30007EFD070014F56C6019F079FD874201D024
:102C4000012000E00020C0B2002811D014F5157159
:102C500014F56C601AF06EFC14F5157019F067FD30
:102C6000002801D0012000E0002041F6A13160548D
:102C700014F1CC001AF0BCFAB0EE408AF0EE608A93
:102C800014F5A0501AF0B4FA53EC182B51EC100BB9
:102C900019F050FB01D0012000E00020C0B2002854
:102CA00005D014F1CC0114F5A0501AF0D8FA14F59F
:102CB000537019F03CFD070004F6347019F037FD2D
:102CC000874201D0012000E00020C0B2002805D0DA
:102CD00014F5537104F634701AF02CFC42F6E81027
:102CE000205C012809D043D303281AD00FD305282C
:102CF0002AD01FD3062831D03AE001208DF80E00EB
:102D00000DF10E0114F556701AF065FA38E0022044
:102D10008DF80D000DF10D0114F556701AF05BFAE7
:102D20002EE003208DF80C0003A914F556701AF05C
:102D300052FA25E004208DF80B000DF10B0114F57B
:102D400056701AF048FA1BE005208DF80A000DF1C4
:102D50000A0114F556701AF03EFA11E006208DF8BB
:102D600009000DF1090114F556701AF034FA07E064
:102D700000208DF8080002A914F556701AF02BFAFD
:102D800014F5786114F59D601DF0E0FB04F6887180
:102D900014F59E601DF0DAFB14F5796114F59F605F
:102DA0001DF0D4FB04F6987114F5A0601DF0CEFB65
:102DB00014F57A6114F5A1601DF0C8FB04F6A87142
:102DC00014F5A2601DF0C2FB14F57B6114F5A3603D
:102DD0001DF0BCFB04F6B87114F5A4601DF0B6FB41
:102DE00014F57C6114F5A5601DF0B0FB04F6C87104
:102DF00014F5A6601DF0AAFB14F57D6114F5A7601B
:102E00001DF0A4FB04F6D87114F5A8601DF09EFB1C
:102E100014F57E6114F5A9601DF0B4FB42F2D86090
:102E2000204413F015FB42F69810204413F010FBD9
:102E300014F5A8501DF0C0FB012801D1012000E0CD
:102E40000020C0B2002805D0002114F52A701AF025
:102E50004BFB04E0012114F52A701AF045FB14F530
:102E6000477019F064FC012801D1012000E0002026
:102E7000C0B2002807D0002114F547701AF034FBC7
:102E800020000DF037FD04F6FC001AF095F9D4F897
:102E9000081A884201D0012000E00020C0B20028BA
:102EA00005D004F6082104F6FC001AF02CFA04F60A
:102EB00004101AF081F9814641F21C3704EB070037
:102EC0001AF07AF9814501D0012000E00020C0B25B
:102ED000002805D004F6041104EB07001AF0D2F91B
:102EE00042F6F01020440EF022FD41F60840204446
:102EF0000EF0EBFB089008A914F509701AF003FA1C
:102F000041F26870204419F048F8C0B2002801D09E
:102F1000012000E00020C0B2002814D041F29077D8
:102F2000E05D002804D02068C0301DF025FC03E0DF
:102F30002068C0301DF029FCE05D002801D101208F
:102F400000E00020E05541F6384704EB070019F097
:102F500024F8C0B2002801D0012000E00020C0B257
:102F600000283BD041F63040205C00280AD041F6D2
:102F7000F8302158491C215004EB000114F50B7066
:102F80001AF0C1F941F6A820205C022826D14FF49E
:102F9000E0502158491C215041F6044954F80920B9
:102FA000002154F80900401E1DF0E9FD44F8090015
:102FB00041F6084904EB09000EF0EDFA14F5E05172
:102FC00014F50F701AF09FF904EB09000EF07BFB6B
:102FD000079007A914F511701AF095F941F6A82089
:102FE000205C002809D0022801F0C682C0F0408190
:102FF000032801F0768008F058B941F6A927E05D72
:10300000002805D0022800F0D080C0F09B802DE180
:103010001AF099F8DFF8181C1CF0CBFD002104EB26
:1030200005000FF01FFD002114F5C0500FF01AFD30
:10303000012141F6680020440FF066FC002114F5E0
:10304000C6500FF061FC002104EB08000FF05CFC9F
:10305000002104EB06000FF005FD41F6D818002111
:1030600004EB08000FF0FEFC002114F5D2500FF025
:10307000F9FC42F2F800204490ED000B14F5A85042
:1030800011F095FE14F5A3501DF080FD14F5A3502A
:103090000FF074FE9FEDC10B14F5A3500FF070FFFD
:1030A00014F5A8501DF076FD41F6F04004EB000148
:1030B00014F5A85011F07CFA002104EB05001AF079
:1030C00029FA002114F5C0501AF024FA002104EB6B
:1030D00006001AF01FFA002104EB08001AF01AFA91
:1030E000002114F5D2501AF015FA002114F17800DD
:1030F0001AF0FAF941F6583004EB000114F50770A4
:103100001AF001F941F27870204418F0BDFE002158
:1031100014F524701AF0E8F9002041F66871605443
:10312000002114F52F701AF0DFF9002114F5357025
:103130001AF0DAF9002114F538701AF0D5F90120E7
:10314000E05593E041F27870204418F0AAFEC0B236
:10315000002801D0012000E00020C0B2002823D0C8
:1031600019F0F1FFDFF8C85A29001CF022FD19F010
:10317000EAFFDFF8C06A31001CF0B6FB29001CF042
:1031800018FD19F0E0FFDFF8B01A1CF0ADFB2900C4
:103190001CF00FFD19F0D7FF31001CF0A5FB290032
:1031A0001CF007FD0220E05560E014F1780019F0F2
:1031B000BEFA012801D1012000E00020C0B20028A1
:1031C0003AD0002114F178001AF08EF9002114F1A0
:1031D00084001AF089F914F10C0019F097FAC0B2C2
:1031E000012804D01ED3032815D007D31AE00120EC
:1031F00041F6A82160540020E05537E014F53B600B
:103200001CF0E8FC1CF09CFA022041F6A821605456
:103210000020E0552AE0032041F6A8216054002058
:10322000E05523E000208DF807000DF1070114F1AF
:103230000C0019F0D0FF19E014F5A8501DF0BCF9EE
:10324000012801D1012000E00020C0B200280DD0EB
:1032500041F67040204441F66861214491ED000B35
:1032600080ED000B14F5A85010F0A0F908F01DB87F
:1032700041F6C837E05D002815D0022800F0DD8057
:10328000C0F09080042800F0DE83C0F0A8830628F8
:1032900000F08984C0F00384082800F00787C0F09C
:1032A000758600F01CBF19F04EFFDFF8849949467F
:1032B0001CF07FFC19F047FFDFF878A951461CF09D
:1032C00013FB49461CF075FC19F03DFFDFF86C1943
:1032D0001CF00AFB49461CF06CFC19F034FF514607
:1032E0001CF002FB49461CF064FC41F6C87904EB73
:1032F0000900D0E9002304EB05000FF0CFFB04EB3D
:103300000900D0E9002314F5C0500FF0C7FB04EB0F
:103310000900D0E9002341F6680020440FF008FBC3
:1033200004EB0900D0E9002314F5C6500FF000FBB0
:1033300004EB0900D0E9002304EB08000FF0F8FAD1
:1033400004EB0900D0E9002304EB06000FF0A6FB14
:1033500004EB0900D0E9002341F6D81020440FF017
:103360009DFB04EB0900D0E9002314F5D2500FF0C7
:1033700095FB04EB0900D0E9002314F5A3500FF0EE
:103380000BFF14F5707019F033FF41F6B83020448C
:1033900080ED000B0120E05500F0A1BE0000000010
:1033A0000000000014F5A8501DF006F9012801D115
:1033B000012000E00020C0B200283CD014F5EB5101
:1033C00014F5A85011F0F4F8012114F5A85010F0EC
:1033D000C1F9B0EE408AF0EE608A14F5A3500FF008
:1033E000CBFE050041F6B0302044D0E9000141F6A3
:1033F000B8322244D2E9002318F0BAFE41EC130B94
:10340000B0EE439AF0EE639A280019F06BFF41EC9E
:10341000120BB0EE493AF0EE693A41F670402044A2
:1034200090ED001BB0EE480AF0EE680A200008F0AC
:1034300074F90220E05500F052BE14F16C0019F04E
:1034400076F9012801D1012000E00020C0B2002857
:1034500014D0002114F16C001AF046F80020E05559
:10346000002041F6A821605400208DF806000DF1DF
:10347000060114F10C0019F0AEFEAFE214F5AE70C7
:1034800019F055F9814604EB05000FF0F4FA814577
:1034900001D0012000E00020C0B2002808D014F5BF
:1034A000AE7019F044F9010004EB05000FF0DAFAF0
:1034B00014F5B47019F03BF9814614F5C0500FF0C3
:1034C000DAFA814501D0012000E00020C0B20028D6
:1034D00008D014F5B47019F02AF9010014F5C050A1
:1034E0000FF0C0FA14F59C7019F021F9824641F6EC
:1034F000680904EB09000FF010FA824501D00120A1
:1035000000E00020C0B2002826D014F59C7019F00D
:103510000EF9010004EB09000FF0F6F914F59C70A8
:1035200019F005F9012801D1012000E00020C0B206
:10353000002809D042F2F800204490ED000B14F569
:10354000A85011F034FC07E014F5045090ED000B86
:1035500014F5A85011F02BFC14F1E40019F0E7F871
:10356000814614F5C6500FF0D8F9814501D00120ED
:1035700000E00020C0B2002808D014F1E40019F0E7
:10358000D6F8010014F5C6500FF0BEF914F1F000A2
:1035900019F0CDF8814604EB08000FF0BEF9814523
:1035A00001D0012000E00020C0B2002808D014F1B2
:1035B000F00019F0BCF8010004EB08000FF0A4F9CA
:1035C00014F1FC0019F0B3F8804604EB06000FF08C
:1035D00052FA804501D0012000E00020C0B200284E
:1035E00008D014F1FC0019F0A2F8010004EB060069
:1035F0000FF038FA14F5847019F099F8814641F605
:10360000D81804EB08000FF036FA814501D00120EC
:1036100000E00020C0B2002808D014F5847019F032
:1036200086F8010004EB08000FF01CFA14F58A700C
:1036300019F07DF8814614F5D2500FF01CFA81453F
:1036400001D0012000E00020C0B2002808D014F50D
:103650008A7019F06CF8010014F5D2500FF002FADC
:1036600004EB05001DF09AFA41F6A13914F809108F
:10367000C0B2814201D0012000E00020C0B2002889
:1036800005D014F8091004EB050019F043FF14F5F8
:10369000C0501DF083FA14F80910C0B2814201D065
:1036A000012000E00020C0B2002805D014F8091065
:1036B00014F5C05019F02EFF04EB06001DF06EFA51
:1036C00014F80910C0B2814201D0012000E00020AE
:1036D000C0B2002805D014F8091004EB060019F058
:1036E00019FF04EB08001DF059FA14F80910C0B2D4
:1036F000814201D0012000E00020C0B2002805D0A6
:1037000014F8091004EB080019F004FF14F5D25066
:103710001DF044FA14F80910C0B2814201D0012012
:1037200000E00020C0B2002805D014F8091014F5FC
:10373000D25019F0EFFE14F5D47018F0F8FF050020
:1037400014F5A3500FF063FBC0B2854201D00120F5
:1037500000E00020C0B200281CD014F5D47018F08E
:10376000E6FF002801D0012000E00020C0B20028C0
:1037700008D014F5A3500FF001FB14F5A8501DF06C
:1037800010FA07E014F5A3500FF01CFB14F5A85035
:103790001DF007FA14F5DE7019F086FD050014F52A
:1037A000A3500FF0E9FC854201D0012000E0002089
:1037B000C0B2002835D014F5DE7019F075FD19F08F
:1037C00091FD41EC100B14F5A3500FF0D9FB14F54B
:1037D000A8501DF0E6F914F5A3500FF079FC8DED1B
:1037E000EC0BECA914F5DA7019F02CFD14F5DE7071
:1037F00019F05AFD050014F5A3500FF0BDFC8542E9
:1038000001D0012000E00020C0B2002809D014F54A
:10381000A3500FF0B1FC129012A914F5DE7019F04C
:103820007CFE14F5DA7019F0E3FCB0EE408AF0EE9D
:10383000608A14F5A3500FF04BFC53EC182B51EC9D
:10384000100B18F077FD01D0012000E00020C0B27D
:10385000002839D014F5DA7019F0CAFC14F5A35019
:103860000FF0EEFA14F5A8501DF09BF914F5A350D3
:103870000FF082FC119011A914F5DE7019F04DFEC5
:1038800014F5DA7019F0B4FCB0EE408AF0EE608AFC
:1038900014F5A3500FF01CFC53EC182B51EC100B3B
:1038A00018F048FD01D0012000E00020C0B200283F
:1038B0000AD014F5A3500FF00BFC8DEDEA0BEAA92A
:1038C00014F5DA7019F0BEFC14F5CC7018F01EFF78
:1038D000050014F5A3500FF057FCEDB2C0B28542BD
:1038E00001D0012000E00020C0B200280DD014F566
:1038F000CC7018F00BFF0100C9B214F5A3500FF003
:10390000B3FB14F5A8501DF04CF941F69051605CE2
:10391000002807D00020605414F5EB5114F5A8508E
:1039200010F046FE14F5217018F001FF002801D0B8
:10393000012000E00020C0B2002804D014F5A850F7
:103940001DF033F903E014F5A8501DF023F914F528
:103950003E7018F0ECFE012801D1012000E00020AB
:10396000C0B2002808D014F5A8501DF022F900219B
:1039700014F53E7019F0B8FD14F5A8501CF01CFEAB
:10398000012801D1012000E00020C0B2002803D0AE
:1039900014F5A8500FF00AFE14F51B7018F0C7FEBE
:1039A000012801D1012000E00020C0B2002807D08A
:1039B000002114F51B7019F097FD0320E0550DE070
:1039C00014F52F7018F0B3FE012801D1012000E09A
:1039D0000020C0B2002801D00520E0557FE314F597
:1039E000A8501CF0E9FD012801D1012000E00020D1
:1039F000C0B2002826D014F5217018F098FE0028D7
:103A000001D0012000E00020C0B2002804D014F54D
:103A1000A8501DF0CAF803E014F5A8501DF0C5F831
:103A2000012041F6AC21605014F11C0018F06EFE2C
:103A3000C0B241F6B021605014F5A8500FF0B6FDA9
:103A40000420E0554BE314F5A8501CF0B5FD012807
:103A500001D1012000E00020C0B200281ED041F6B4
:103A6000AC20215841F6B022A25891420CD22158E4
:103A7000491C215020588DF805000DF1050114F165
:103A8000A00019F0A8FB05E014F5A8501DF082F87D
:103A90000220E05514F5A8500FF088FD1FE3012027
:103AA00041F66871605414F5816019F0A1FB41F68C
:103AB0007870204480ED000B14F5826019F098FBBB
:103AC00014F5FC5080ED000B14F5836019F090FBA9
:103AD00041F68870204480ED000B14F5856019F0E4
:103AE00087FB41F6B870204480ED000B14F586602A
:103AF00019F07EFB14F5FE5080ED000B14F5896083
:103B000019F076FB41F6D070204480ED000B0121C6
:103B100014F5A8500FF01EFE41F6907504EB050059
:103B200080ED000B14F5707019F062FB41F6B838A7
:103B300004EB080080ED000B14F5A3500FF01CFB04
:103B4000060041F6B0302044D0E9002304EB080021
:103B5000D0E9000118F00CFB41EC130BB0EE438AE6
:103B6000F0EE638A300019F0BDFB41EC120BB0EEB1
:103B7000483AF0EE683A41F67040204490ED001B60
:103B800004EB050090ED000B200007F0C6FD19F0D6
:103B9000DAFADFF8DC191BF0A7FE25491CF009F85A
:103BA0000620E0559BE214F16C0018F0C0FD0128DE
:103BB00001D1012000E00020C0B200281CD000216B
:103BC00014F16C0019F090FC0020E05519F0BBFADC
:103BD000DFF8A0191BF088FE15491BF0EAFF002052
:103BE00041F6A821605400208DF8040001A914F1C9
:103BF0000C0019F0F0FAC8E114F52F7018F097FDD9
:103C0000002801D1012000E00020C0B2002817D018
:103C10000220E055002041F66871605419F093FAD3
:103C2000DFF850191BF060FE01491BF0C2FFACE148
:103C300089A3060854B6060878B606089CB6060896
:103C400014F5DA7019F0D4FAB0EE408AF0EE608A1A
:103C500014F5A3500FF03CFA53EC182B51EC100B59
:103C600018F068FB01D0012000E00020C0B200285D
:103C70000AD014F5A3500FF02BFA8DEDE80BE8A94C
:103C800014F5DA7019F0DEFA14F5DE7019F00CFB99
:103C9000050014F5A3500FF06FFA854201D0012002
:103CA00000E00020C0B2002809D014F5A3500FF0A6
:103CB00063FA109010A914F5DE7019F02EFC41F68D
:103CC0009051605C002847D00020605414F5EB51FF
:103CD00014F5A85010F06CFC012114F5A8500FF059
:103CE00039FD41F6907504EB050080ED000B14F5ED
:103CF000707019F07DFA41F6B83804EB080080EDD9
:103D0000000B14F5A3500FF037FA060041F6B0305F
:103D10002044D0E9002304EB0800D0E9000118F0AA
:103D200027FA41EC130BB0EE438AF0EE638A3000C1
:103D300019F0D8FA41EC120BB0EE483AF0EE683ABE
:103D400041F67040204490ED001B04EB050090ED1F
:103D5000000B200007F0E1FC41F65951605C00289F
:103D600041D000206054002114F5A8500FF0F2FC5F
:103D700041F6907504EB050080ED000B14F57070B2
:103D800019F036FA41F6B83804EB080080ED000B64
:103D900014F5A3500FF0F0F9060041F6B0302044BE
:103DA000D0E9002304EB0800D0E9000118F0E0F9A5
:103DB00041EC130BB0EE438AF0EE638A300019F049
:103DC00091FA41EC120BB0EE483AF0EE683A41F647
:103DD0007040204490ED001B04EB050090ED000BBB
:103DE000200007F09AFC14F5357018F0A0FC0128AB
:103DF00001D1012000E00020C0B2002810D0002135
:103E000014F5357019F070FB19F09DF9DFF8A81D55
:103E10001BF06AFDDFF8A41D1BF0CBFE0720E05568
:103E200014F5A8501CF0C8FB012801D1012000E0C6
:103E30000020C0B2002800F0A88014F5A8500FF0B0
:103E4000B5FB41F67040204490ED000B41F69870B0
:103E500020441CF034FB8DED1C0B1CA914F587606D
:103E600019F0F0F99DED1C0B41F6D86020441CF0D0
:103E70008DF8B0EE408AF0EE608AB0EE480AF0EEBF
:103E8000680A14F5A3500EF0DBFFB0EE480AF0EE1E
:103E9000680A14F5FF501CF0D3FAB0EE409AF0EE29
:103EA000609AB0EE490AF0EE690A200007F070FD52
:103EB0008DED260B26A914F5886019F0C3F914F5C9
:103EC000F95114F5846019F0BDF941F6F875B0EEBA
:103ED000480AF0EE680A04EB05001CF071FE04EBE2
:103EE00005001CF0E9FE200007F052FD8DED240BCB
:103EF00024A914F58A6019F0A5F904EB05001CF05B
:103F0000E5FE200007F044FD8DED220B22A914F5FB
:103F10008B6019F097F904EB05001CF0CDFE8DEDD8
:103F2000200B20A914F58C6019F08CF904EB050026
:103F30001CF0CCFE8DED1E0B1EA914F58D6019F042
:103F400081F904EB05001CF0C1FEB0EE40AAF0EED2
:103F500060AA14F5916019F04BF951EC1A0B53EC6F
:103F6000102B1CF0E3FE01D2012000E00020C0B2C3
:103F7000002805D0012114F5387019F0B5FA04E0D5
:103F8000002114F5387019F0AFFAA8E014F5A35029
:103F90000FF042F9C0B2002801D0012000E000205B
:103FA000C0B2002800F081809FEDC70B14F5A3502C
:103FB0000EF0E6FF012114F5A8500FF0CBFB41F6FF
:103FC000907504EB050080ED000B14F5707019F08E
:103FD0000FF941F6B83804EB080080ED000B14F53A
:103FE000A3500FF0C9F8060041F6B0302044D0E9E4
:103FF000002304EB0800D0E9000118F0B9F841EC07
:10400000130BB0EE438AF0EE638A300019F06AF9C0
:1040100041EC120BB0EE483AF0EE683A41F67040CF
:10402000204490ED001B04EB050090ED000B2000F8
:1040300007F073FB14F5F95000220023C0E90023B8
:1040400041F60870204400220023C0E9002314F543
:10405000F85000220023C0E9002341F610702044EC
:1040600000220023C0E9002314F5FD5000220023A4
:10407000C0E9002341F6A870204400220023C0E9D3
:10408000002314F5FF5000220023C0E9002341F66D
:10409000E870204400220023C0E9002341F6F870B4
:1040A00020441CF05AFE0820E05518E014F5A350F7
:1040B0000FF0B2F8C0B2002801D0012000E00020CB
:1040C000C0B200280BD019F03EF8DFF86C1D1BF0D1
:1040D0000BFCDFF8E81A1BF06CFD0620E05507F03A
:1040E000E4B841F6C937E05D002816D0022800F098
:1040F000978072D3042800F02381C0F0E98006285D
:1041000000F06C81C0F05281082800F0C381C0F03B
:104110008381092800F0E181F1E119F014F8DFF85A
:104120009C5A29001BF045FD19F00DF8DFF8046DCD
:1041300031001BF0D9FB29001BF03BFD19F003F8FF
:10414000DFF8E01C1BF0D0FB29001BF032FD18F05B
:10415000FAFF31001BF0C8FB29001BF02AFD14F503
:10416000D07018F0D3FA41F6B822C0B264214843A7
:10417000A050A05803280AD20320A050A0588DF8C0
:1041800003000DF1030114F5D07019F024F814F1B7
:104190001C0018F0BBFA41F69031605414F503701E
:1041A00019F026F841F6D030204480ED000B14F5CC
:1041B000077019F001F841F65831605060580F90BF
:1041C0000FA815F0EFFACDE9E601E6A914F5DF50E6
:1041D00017F04FFE0120E05591E120001CF0CCFDCE
:1041E000C0B2002801D0012000E00020C0B20028A9
:1041F00015D0012104EB05000EF034FC012104EB85
:1042000006000EF02FFC002114F5D2500EF02AFC0F
:10421000002104EB08000EF077FB0220E0556EE170
:1042200020001CF0A9FDC0B2002801D0012000E050
:104230000020C0B2002845D0002041F6D83160549B
:10424000002041F6AC2160504FF4D65504EB050038
:1042500041F6D031214491ED000B80ED000B41F689
:10426000B826A05940081CF0CDFD02000B0004EB5D
:104270000500D0E900011CF0D5FD04EB0502C2E900
:10428000000118F060FFDFF8A01B1BF02DFBA15907
:104290001BF025FC18F057FFDFF8206931001BF0F8
:1042A00088FC18F050FFDFF8841B1BF01DFB04EBAB
:1042B000050191ED000B1CF026FE31001BF079FC8E
:1042C0000320E0551BE100BF0000000000000000DB
:1042D00014F5A3500EF0A0FFC0B2002801D00120B9
:1042E00000E00020C0B2002829D014F5D65090ED8F
:1042F000000B14F5A3500EF043FE14F5DF5017F039
:10430000C3FD18F020FFDFF8B45829001BF051FC62
:10431000DFF81C1B1BF0E8FA060014F5077018F014
:104320004BFF010030001BF0DAFB18F00CFF8FA1EF
:104330001BF0DAFA29001BF03CFC0420E055DEE01B
:1043400014F5DF5017F0ADFDC0B2002801D00120F8
:1043500000E00020C0B2002817D014F5DF5017F09D
:104360009DFD41F69051605C002807D0002060540C
:1043700014F5EB5114F5A85010F01AF914F5A850E3
:104380001CF013FC0620E0550FE014F5A8501CF0BB
:1043900013F9012801D1012000E00020C0B200285B
:1043A00003D014F5A8500FF001F9A8E014F5A350BC
:1043B0000EF032FFC0B2002801D0012000E0002042
:1043C000C0B2002809D014F5D65090ED000B14F5BA
:1043D000A3500EF0D5FD0620E05590E014F5A35053
:1043E0000EF01AFFC0B200280BD014F5A8501CF034
:1043F000E3F8012801D0012000E0002090F0010046
:1044000000E00020C0B2002805D014F5A8500FF03D
:10441000CDF80720E05572E014F5A8501CF0CCF858
:10442000012801D1012000E00020C0B2002830D0D6
:1044300041F6D830215C491C41F69032A25C914291
:1044400005DA215C491C21540620E05521E00021B9
:10445000215441F6AC202158491C41F6B822A258FB
:10446000914214D22158491C21504FF4D65504EBE7
:104470000500D0E900230020DFF8701D1CF0B6FD18
:1044800004EB0502C2E900010520E05501E0082027
:10449000E05534E020001CF06FFCC0B2002801D0D1
:1044A000012000E00020C0B2002815D0002104EB5C
:1044B00005000EF0D7FA002104EB06000EF0D2FA48
:1044C000002114F5D2500EF0CDFA002104EB0800C3
:1044D0000EF01AFA0920E05511E020001CF04CFC07
:1044E000C0B2002801D0012000E00020C0B20028A6
:1044F00005D0002041F6A82160540020E05514F1B9
:104500006C0018F014F9012801D1012000E000200E
:10451000C0B2002827D018F016FEDFF818191BF0DB
:10452000E3F9DFF8985629001BF043FB18F00BFE67
:10453000DFF8BC1C1BF0D8F929001BF03AFB002166
:1045400014F16C0018F0D0FF0020E055002041F677
:10455000A821605400208DF802000DF1020114F131
:104560000C0018F038FE06F0A0BE00BF206300006B
:10457000B0140708B814070841F6AA20205C0028E8
:1045800000F09680022800F00184C0F0D083042857
:1045900000F0A484C0F05684062800F04885C0F0DE
:1045A000EA84082800F06B86C0F052860A2800F0E2
:1045B000C387C0F0AA870C2801F07280C1F04E803A
:1045C0000E2801F06281C1F00981102801F0858177
:1045D000C1F07181122801F04581C1F028811428B1
:1045E00001F0A884C1F0AB82162801F0CC87C1F09D
:1045F000B387182802F0B880C2F023801A2802F08E
:104600005181C2F0C8801C2802F0DE82C2F06E82A6
:104610001E2802F05684C2F02184202802F034853E
:10462000C2F09384222802F05E85C2F046852428D9
:1046300003F04B82C2F0BE87262803F07A82C3F0D3
:104640005F82282803F08B83C3F079822A2803F045
:10465000AF86C3F037862C2803F08587C3F0CB865E
:104660002E2804F03181C4F01280302804F0B08389
:10467000C4F0F282322804F0E683C4F0D0833428F8
:1046800004F02684C4F00B84362804F00B85C4F0B3
:104690002984382804F0DD86C4F0A8863A2806F07C
:1046A0002E85C4F026873B2806F09E8506F0B0BD17
:1046B00018F049FDDFF8047539001BF07AFA18F09C
:1046C00042FDDFF870A751461BF00EF939001BF0D0
:1046D00070FA18F038FDDFF8F01D1BF005F939000D
:1046E0001BF067FA18F02FFD51461BF0FDF839005A
:1046F0001BF05FFA18F027FDDFF8D41D1CF033FD26
:1047000014F1B40018F074FD41F6083B04EB0B0003
:1047100080ED000B14F1BC0018F06AFD14F5D850C0
:1047200080ED000B002041F6F821605414F5FE7076
:1047300018F042FD0E900EA817F00CFB41F6483918
:1047400004EB0902C2E9000114F5787018F034FD99
:104750000D900DA817F0FEFA41F650322244C2E93E
:10476000000104EB0900D0E9002314F5A3500EF07A
:1047700013FD14F5A3501CF000FD14F5017018F0A2
:104780001BFD0C900CA817F0E5FA4FF4DA5904EB76
:104790000902C2E9000104EB0900D0E9002304EB9F
:1047A00005000EF07BF904EB0900D0E9002314F5B5
:1047B000C0500EF073F904EB0900D0E9002341F674
:1047C000680020440EF0B4F804EB0900D0E900239F
:1047D00014F5C6500EF0ACF804EB0900D0E9002344
:1047E00004EB08000EF0A4F804EB0900D0E9002364
:1047F00004EB06000EF052F941F6D81804EB09005C
:10480000D0E9002304EB08000EF048F904EB09009E
:10481000D0E9002314F5D2500EF040F914F51570CC
:1048200017F085FF002801D0012000E0002041F6AC
:10483000A13904F8090014F8091014F56C6018F097
:1048400053FE14F80900002818D0012104EB0500DC
:1048500018F060FE012114F5C05018F05BFE012134
:1048600004EB060018F056FE012104EB080018F0D6
:1048700051FE012114F5D25018F04CFE14F5DA5116
:1048800014F5F65017F0F5FA14F5D07017F03EFF56
:10489000C0B241F6B821605014F5727018F004FDF2
:1048A00041F6BC25605114F5747018F0FDFC41F61A
:1048B000A841605014F5767018F0F6FC41F6AC4152
:1048C000605014F5727018F0EFFC6159814201D00C
:1048D000012000E00020C0B200280BD004EB05014D
:1048E00014F5727018F019FE04EB050114F57460EC
:1048F00018F013FE14F51E7017F019FF002801D0F0
:10490000012000E0002041F69041605442F2E000B6
:10491000204400220023C0E9002341F694302044C3
:104920001CF02FFC14F5DB501CF046FC41F66C30FB
:1049300020441CF041FC14F11C0017F0E7FE41F686
:1049400090356055605D022824DB04EB050114F10D
:10495000A00018F040FC18F0F6FB51461AF0C4FF16
:1049600039001BF026F918F0EEFBDFF8181E1AF0DC
:10497000BBFF18F0E8FB615D1CF039FC39001BF04F
:1049800018F918F0E0FB51461AF0AEFF39001BF0A1
:1049900010F908E001208DF801000DF1010114F17A
:1049A000A00018F018FC14F1600017F0C0FE0028F9
:1049B00001D0012000E000204FF4DD516054615C23
:1049C00014F1600018F090FD14F5A8501CF093FC51
:1049D00041F6985004EB000114F5A8500FF0E8FDE3
:1049E00018F0B1FBDFF8D81D1AF07EFF39001BF07C
:1049F000E0F814F5077018F0DFFB41F65836A051C7
:104A00004FF47A700B900BA817F0A4F9CDE9E401EC
:104A1000E4A914F5DF5017F02CFA002041F6F83124
:104A20006050002014F5E05108600020069006A9AF
:104A300014F50F7018F067FC41F6084504EB05000B
:104A40000CF063FDA15904EB05000CF09BFD14F57F
:104A5000C67017F06CFE002801D0012000E0002095
:104A600041F64841605414F5E45000220023C0E9A7
:104A7000002341F68840204400220023C0E900239F
:104A800041F6B44020441CF03AFC002041F6A44119
:104A90006050002041F6D041605414F57A7018F04F
:104AA000A7FB41F6D840204480ED000B14F57C7044
:104AB00018F09EFB14F5E75080ED000B41F6D02076
:104AC000204400220023C0E900234FF4D85604EB11
:104AD000060090ED001B04EB0B0090ED000B11F0B5
:104AE00097FF41F6D82804EB080080ED000B14F581
:104AF000A35018F07FFC04EB080090ED008B51EC04
:104B0000180B31F0004141EC110B41F6E82851EC53
:104B1000100B53EC112B1CF085F941EC120B9FED9F
:104B2000C71B04EB080090ED000B1CF003FC04EB2A
:104B3000080080ED000B14F51F6018F059FB42F2DD
:104B4000201804EB080080ED000B18F0FCFADFF8E9
:104B5000741C1AF0C9FE18F0F6FADFF86C1C1CF091
:104B600002FBDFF86C191CF0FEFA81460821F0A860
:104B700018F006FBDDE9F001CDE9E201E2A94846C3
:104B800018F00AFB18F0DFFA04EB080191ED000BB6
:104B90001CF0B9F939001BF00CF8012142F2281081
:104BA00020441CF0F3FB14F5537017F0C0FD0028EF
:104BB00006D0012005E000BF6C08070889A306089D
:104BC0000020C0B2002836D018F0BDFADFF8FC1B78
:104BD0001AF08AFE39001AF0ECFF14F1CC0018F03C
:104BE00007FB51EC100B04EB0B02D2E900231CF085
:104BF0009DF812D314F1CC0018F0FAFA51EC100B16
:104C000004EB0602D2E900231CF090F801D3012046
:104C100000E0002090F0010000E00120C0B2002878
:104C200004D0012041F6B421605419E0022041F67D
:104C3000B421605414E018F086FADFF8941B1AF0DF
:104C400053FE39001AF0B5FF14F52D7017F05EFD14
:104C50000100C9B220000CF029FC41F6B4216054D7
:104C600018F071FADFF86C1B1AF03EFE41F6B4261C
:104C7000A15D1CF0BCFAA05D002806D001280ED072
:104C8000022816D004281ED027E018F05CFADFF8BE
:104C9000101E1AF029FE39001AF08BFF26E018F0DA
:104CA00052FADFF8001E1AF01FFE39001AF081FFD9
:104CB0001CE018F048FADFF8F01D1AF015FE390074
:104CC0001AF077FF12E018F03EFADFF8E01D1AF054
:104CD0000BFE39001AF06DFF08E018F034FADFF827
:104CE000D01D1AF001FE39001AF063FF42F258009D
:104CF00020441CF051FB42F6E81001212154215CB4
:104D000004EB05000CF0E3FC142104EB05000CF0AF
:104D100053FD002041F6E8416054002041F6E9418E
:104D20006054012041F6AA21605406F071BA2000B7
:104D30001CF022F8C0B2002801D0012000E00020C1
:104D4000C0B2002820D014F5DD50007800280DD026
:104D5000002141F6680020440DF0D6FD14F5045002
:104D600090ED000B14F5A85010F021F8002114F577
:104D7000D2500DF077FE002104EB08000DF0C4FDC9
:104D8000022041F6AA21605406F042BA20001BF02E
:104D9000F3FFC0B2002801D0012000E00020C0B223
:104DA00000283DD0012041F63041605404EB07005B
:104DB00017F0EBF841F6F820205C002802D001281B
:104DC00016D029E018F0BFF9DFF8341E1AF08CFD78
:104DD000DFF8301E1AF0EDFE012114F5C0500DF081
:104DE00041FE012141F6D81020440DF03BFE13E0B6
:104DF00018F0A9F9DFF8101E1AF076FDDFF8041E8E
:104E00001AF0D7FE012104EB05000DF02BFE012165
:104E100004EB06000DF026FE032041F6AA216054A3
:104E200006F0F6B9C0B60608D0FF060890E90608F5
:104E3000C014070854B606087808070800000000E8
:104E40000000000020001BF097FFC0B2002801D036
:104E5000012000E00020C0B200283DD014F5F6503B
:104E600017F012F814F5017018F0A6F900EE100A08
:104E7000B8EE400A10EE100A1CF0ACFADFF8182E5B
:104E8000DFF8183E17F074F91CF0C8FA08EE100AA3
:104E900018F059F905000221F0A818F071F9DDE9C0
:104EA000F001CDE9E001E0A9280018F075F918F04B
:104EB0004AF9DFF8EC1D1AF017FDB0EE480A1CF0B5
:104EC000E1FAC9A11AF010FDDFF8381D1AF071FEE1
:104ED000042041F6AA21605406F09AB914F5F65060
:104EE00016F0DFFFC0B2002801D0012000E0002052
:104EF000C0B200283DD018F026F9DFF8A81D1AF03E
:104F0000F3FCDFF8001D1AF054FE41F6B420215CDA
:104F1000012902D0205C042804D1052041F6AA21F1
:104F2000605426E041F6943020441CF01CFB00281D
:104F30001BD141F6F820205C002816D142F6F01073
:104F400020441CF020FB002801D0012000E00020BC
:104F5000C0B2002804D00B2041F6AA21605408E01A
:104F60001B2041F6AA21605403E01E2041F6AA212D
:104F7000605406F04DB914F5A3500EF04DF9C0B2CF
:104F8000002801D0012000E00020C0B200284CD051
:104F900041F6F820205C002802D0012811D02AE038
:104FA00014F5D85090ED001B41F60830204490EDE8
:104FB000000B11F02DFD41F6D820204480ED000BB0
:104FC00019E041F6B44604EB06001CF0DEFA0500D9
:104FD0006D1E290004EB06001CF0E7FA90ED060BAD
:104FE0001CF0F2FA51EC100B91F0004141F6D8227E
:104FF0002244C2E9000141F650302044D0E90023A8
:1050000014F5A3500EF0C8F841F6D820204490EDD6
:10501000000B14F5A3500DF0B3FF14F5A8501CF0CD
:105020006AF9062041F6AA21605406F0F1B814F599
:10503000A3500EF0F1F8C0B200280BD014F5A85020
:105040001BF0BAFA012801D0012000E0002090F006
:10505000010000E00020C0B2002800F0F78041F617
:10506000285004EB00010DF5FC600EF0E5F901207D
:105070008DF801080DF5FC6114F5A8500FF098FAB1
:1050800014F5806018F0B4F841F6707704EB07006F
:1050900080ED000B14F56A7017F0B2FA41F66A71F0
:1050A000605214F56C7017F0ABFA41F66C716052F7
:1050B00014F5507017F03BFB002801D0012000E0F0
:1050C000002042F2A8016054002114F5A8500EF00F
:1050D000EBFAB0EE408AF0EE608A04EB0700D0E90C
:1050E000002351EC180B17F043F81CF0A1FA81468D
:1050F000CDF8E4970DF5FC6114F5A8500FF058FABF
:1051000000220DF5FC6114F5A8500FF08BFA42F265
:10511000F000DDF8E417215042F2E80520581BF0BA
:1051200071FE53EC182B17F015F904EB0502C2E9D8
:10513000000104EB0700D0E9000104EB0502D2E90D
:1051400000231BF06FFECDE91A0117F0FCFFDFF81A
:10515000A41D1AF0C9FB17F0F6FFDFF8A85A2900C2
:105160001AF027FD0DF5FC62012114F5A8500FF08F
:1051700089FB17F0E8FFDFF8801D1AF0B5FB17F088
:10518000E2FFDFF84C8341461BF0EDFFDFF83866A5
:1051900031001BF0E8FF04EB070191ED000B1BF061
:1051A000B2FE17F0D0FFC9A739001AF09DFB290005
:1051B0001AF0FFFCDDE91A01002200231BF0B6FD06
:1051C00018D817F0C0FFDFF8341D1AF08DFB290046
:1051D0001AF0EFFC14F5A8500EF0E8F9082041F69B
:1051E000AA21605432E000BF206300000000F03FBD
:1051F000E4B606081AA81CF02FFACDE9DE01DEA9F4
:1052000014F5F65016F035FE14F5F65016F03CFE87
:1052100017F099FFDFF8E81C1AF066FB17F093FF10
:1052200041461BF0A0FF31001BF09DFF9DED1A0BC6
:105230001BF069FE17F087FF39001AF055FB2900B3
:105240001AF0B7FC072041F6AA21605405F0E0BF30
:1052500014F5F65016F025FEC0B2002801D001204A
:1052600000E00020C0B2002807D014F5A8500EF0CE
:105270009DF9082041F6AA21605405F0C9BF14F534
:10528000A8501BF099F9012801D1012000E000206D
:10529000C0B2002800F0378140F66841694414F537
:1052A000A8500FF059FD41F6704504EB05004DF88C
:1052B00004CD0DF5406C9CED1B0B5DF804CB80ED2F
:1052C000000B42F2E00904EB09004DF804CD0DF5A6
:1052D000406C9CED1D0B5DF804CB80ED000B17F0CE
:1052E00032FF7B491BF03FFFDFF8DC141BF03BFF74
:1052F00006000021F0A817F043FFDDE9F001CDE939
:10530000DC01DCA9300017F047FF17F01CFFDFF8C5
:10531000F41B1AF0E9FA17F016FF41F6D82604EB51
:10532000060191ED000B1BF0EEFDDFF8D878390097
:105330001AF03FFC17F007FF80460721F0A817F08E
:105340001FFFDDE9F001CDE9DA01DAA9404617F0E7
:1053500023FF17F0F8FEDFF8B01B1AF0C5FA17F0BC
:10536000F2FE04EB050191ED000B1BF0CCFD17F0F4
:10537000EAFECAA11AF0B8FA39001AF01AFC17F0BE
:10538000E2FEDFF8881B1AF0AFFA17F0DCFE804669
:1053900004EB0900D0E900230020DFF8741B16F0AD
:1053A000E7FE41EC100B40461BF0ADFD17F0CBFEC5
:1053B000DFF8601B1AF098FA39001AF0FAFB17F0C0
:1053C000C2FEDFF8541B1AF08FFA17F0BCFEDDF8AE
:1053D000901C1AF084FB17F0B6FE39001AF0E9FBB6
:1053E0005FF000089DF8B80C002810D0012080461E
:1053F00017F0A9FEDFF8241B1AF076FA17F0A3FEC7
:10540000DFF81C1B1AF070FA39001AF0D2FB42F2D6
:10541000A800205C002862D04046C0B200285ED1BF
:1054200014F502500078002854D004EB060090EDEB
:10543000001B04EB050090ED000B42F258002044E5
:105440001CF02CF904EB0500D0E900010022002338
:105450001CF038F914D241F6B0302044D0E90001F4
:105460000022DFF8C03A16F075FF04EB0602D2E91D
:1054700000231BF0BBFD04EB0602C2E9000115E0AE
:1054800041F6B0302044D0E900010022DFF8943A20
:1054900016F060FF02000B0004EB0600D0E90001EB
:1054A0001BF0C0FC04EB0602C2E9000104EB06009D
:1054B00090ED000B14F5A3500DF062FD092041F6AC
:1054C000AA2160541FE000BF08B7060820F10000C1
:1054D00077F80608132041F6AA21605413E041F63C
:1054E000B0302044D0E9002341F6B8302044D0E960
:1054F000000116F03DFE14F5DE52C2E90001132052
:1055000041F6AA21605405F083BE14F5A3500DF0B6
:1055100083FEC0B2002801D0012000E00020C0B20C
:10552000002807D014F5A8500EF040F80A2041F6E4
:10553000AA21605405F06CBE14F5A8501BF03CF88D
:10554000012801D1012000E00020C0B2002800F0B5
:1055500083800DF5416114F5A8500FF0FDFB41F675
:10556000704504EB05004DF804CD0DF5406C9CED45
:10557000050B5DF804CB80ED000B17F0E4FDDFF8C0
:10558000A8191BF0F0FD90491BF0EDFD060000216D
:10559000F0A817F0F5FDDDE9F001CDE9D801D8A9B3
:1055A000300017F0F9FD17F0CEFDDFF880191AF082
:1055B0009BF917F0C8FD41F6D82604EB060191EDE2
:1055C000000B1BF0A0FCDFF83C7639001AF0F1FA72
:1055D00017F0B9FD80460721F0A817F0D1FDDDE9ED
:1055E000F001CDE9D601D6A9404617F0D5FD17F058
:1055F000AAFDDFF83C191AF077F917F0A4FD04EBC7
:10560000050191ED000B1BF07EFC17F09CFD23A122
:105610001AF06AF939001AF0CCFA42F2580704EB92
:10562000060090ED001B04EB050090ED000B04EB71
:1056300007001CF033F804EB07001CF05DF814F5CC
:10564000DE5042F27801214491ED000B80ED000B19
:10565000132041F6AA21605405F0DABD14F5A850D4
:105660001AF0AAFF012801D1012000E00020C0B2F9
:10567000002811D017F067FDDFF8241E1AF034F966
:10568000DFF880151AF095FA14F5A8500DF08EFF8A
:105690000C2041F6AA21605405F0BABD20C20000DA
:1056A00014F5A8501AF088FF012801D1012000E06C
:1056B0000020C0B2002800F0808040F6B831694474
:1056C00014F5A8500FF048FB4DF804CD0DF5006C13
:1056D0009CEDEF8B5DF804CB17F035FD050007213D
:1056E000F0A817F04DFDDDE9F001CDE9D401D4A912
:1056F000280017F051FD17F026FDDFF834181AF0D6
:10570000F3F817F020FDB0EE480AF0EE680A1BF03F
:10571000FAFB17F018FD30A11AF0E6F8DFF8E454B0
:1057200029001AF046FA41F6B420215C012902D082
:10573000205C04280DD117F006FDDFF8041E1AF0D6
:10574000D3F829001AF035FA0D2041F6AA21605449
:1057500033E09DF8080C002816D017F0F4FCDFF8B1
:10576000E41D1AF0C1F817F0EEFCDFF8DC1D1AF0AA
:10577000BBF829001AF01DFA0D2041F6AA21605449
:105780001BE000BFA4E9060817F0DDFCDFF8BC1D34
:105790001AF0AAF817F0D7FCDFF8B41D1AF0A4F835
:1057A00017F0D1FCDFF8AC1D1AF09EF829001AF0B2
:1057B00000FA1B2041F6AA21605405F029BD00BF64
:1057C000E8AB06082CB7060835E70608ACCF060894
:1057D000C8CF06088408070820C2000014F5A350AB
:1057E0001BF0CBFC14F5D65041F6D821214491EDA5
:1057F000000B80ED000B41F6C820204441F6E82163
:10580000214491ED000B80ED000B002041F6AC210E
:105810006050132041F6B021605014F5A3500DF0F4
:10582000ADFA112041F6AA21605405F0F1BC14F53F
:10583000A3500DF0F1FCC0B2002801D0012000E01F
:105840000020C0B200280BD014F5D65090ED000B0C
:1058500014F5A3500DF094FB122041F6AA216054D8
:1058600005F0D6BC14F5A3500DF0D6FCC0B200284C
:1058700001D0012000E00020C0B2002803D00E209B
:1058800041F6AA21605405F0C3BC14F5A8501AF0E3
:1058900093FE012801D1012000E00020C0B20028C1
:1058A00007D014F5A8500DF081FE0F2041F6AA2173
:1058B000605405F0ADBC14F5A8501AF07DFE012827
:1058C00001D1012000E00020C0B2002803D0102048
:1058D00041F6AA21605405F09BBC0DF5366114F524
:1058E000A8500FF039FA41F6704804EB08004DF863
:1058F00004CD0DF5006C9CEDD90B5DF804CB80ED6B
:10590000000B41F6AC256059401CCDF8B8074FF4A8
:10591000D65604EB0600D0E9000117F03FFECDF8A3
:10592000BC0741F6C82704EB0700D0E900011BF0D3
:105930007FFECDF8C00704EB080090ED000B4DF89A
:1059400004CD0DF5806C8CEDF30B5DF804CB0DF5FB
:105950000063D3E9DA230020DFF8B41516F008FC61
:1059600041EC180B51EC180B31F0004141EC100BDD
:105970004DF804CD0DF5806C8CEDF50B5DF804CB86
:10598000DDF8880BCDF8D8070DF5F76010F063FE51
:105990009DF8B00B002805D0605941F6B021615840
:1059A00088422CD341F6B420215C012902D0205C2E
:1059B000042820D142F2810914F8090000280CD1F2
:1059C00004EB060090ED001B04EB080090ED000BCB
:1059D00042F2580020441BF061FE14F80900002830
:1059E0000DD042F2580020441BF086FE012041F603
:1059F000E841605403E0012041F6E841605441F67B
:105A0000E84914F80900002859D014F5A3500DF006
:105A1000B3FB41F6D02517F065FC04EB0502C2E9A3
:105A20000001012004F8090017F08DFBDFF8201BAE
:105A300019F05AFF17F087FBDFF8581E19F054FFD2
:105A4000704E31001AF0B5F817F07DFB0700002109
:105A5000F0A817F095FBDDE9F001CDE9D201D2A95C
:105A6000380017F099FB17F06EFBDFF82C1E19F0C9
:105A70003BFF04EB050191ED000B1BF044FA3100F4
:105A80001AF097F841F6B420215C012902D0205C7D
:105A900004280FD1132041F6AA2160544DE000BF25
:105AA00090080708C814070800DC0608B8E90608CB
:105AB000D01407081B2041F6AA2160543DE060592C
:105AC000401C605104EB0800D0E9000100220023D3
:105AD0001BF0F8FD0ED204EB0600D0E9002304EB26
