:020000040800F2
:1000000050EA0020BDAE05085F0E02086F0E020820
:100010007F0E02088F0E02089F0E020800000000EB
:10002000000000000000000000000000AF0E020809
:10003000BF0E020800000000CF0E0208DF0E02080B
:1000400065120208651202086512020865120208AC
:100050006512020865120208EF0E02086512020816
:10006000651202080B0F02086512020865120208E9
:10007000651202086512020865120208651202087C
:10008000651202086512020865120208651202086C
:10009000651202086512020865120208270F02089D
:1000A00065120208BB0F02086512020865120208F9
:1000B00065120208FB0F02086512020865120208A9
:1000C000651202086512020865120208651202082C
:1000D000651202088511020895110208A51102088F
:1000E0000B1002086512020865120208B51002081A
:1000F000E7100208651202081B11020865120208C7
:1001000065120208B511020865120208651202089C
:10011000C5110208D511020865120208651202080D
:10012000E5110208F511020805120208151202086D
:1001300065120208651202086512020865120208BB
:1001400065120208651202086512020835120208DB
:1001500065120208251202086512020845120208FB
:10016000651202086512020865120208651202088B
:10017000651202085512020865120208651202088B
:100180006512020880B516480078002806D10021C3
:1001900014480DF0A5F901201149087012480078A3
:1001A000002806D1002111480DF09AF901200E49CE
:1001B00008700F480078002806D100210D480DF086
:1001C0008FF901200A4908700B480078002806D1F1
:1001D00000210A480DF084F901200749087001BD8B
:1001E000DF99002098990020E0990020A099002034
:1001F000E19900209C990020E29900209499002028
:1002000070B52DED048BE6B00400150021600023CD
:1002100000220021201D0DF065F9C4F8BC592068AA
:1002200010F5A47114F51C600EF09EFB206810F50B
:1002300090700090206810F58873206810F5807227
:10024000012104F6082012F0FFFA14F5256012F0DF
:1002500053FD14F5296012F069FE04F6AC2012F08B
:100260008BFE04F6B82012F087FE04F6C42012F0CC
:1002700083FE14F52D6012F089FE002114F536601E
:1002800012F020FF04F6643012F0A9FF002214F5EA
:100290003761201D13F08EF880080200206810F1ED
:1002A000980114F5376013F09EFF0120219021A8DA
:1002B00014F0A4FACDE9040140200290002001903E
:1002C000012000904FF48053206810F1D002206884
:1002D00010F54C7104F6384015F0E9FD00230022BA
:1002E00004F6384104F6985015F030FE04F69852A2
:1002F00004F6384141F26C30204409F051F90020F5
:100300000290206810F5EA700190206810F5E27004
:100310000090206810F5DA73206810F5D27220681A
:1003200010F5417141F27030204416F083F941F22A
:10033000703004EB000141F2B83020440EF01AF89E
:10034000206810F55773206810F5AA72206810F520
:10035000367141F2584020440EF0BBFB64202090DF
:1003600020A816F089FBCDE92A012AA941F298605C
:10037000204416F03DFC4FF4FA701F901FA816F0B1
:100380007BFBCDE9280128A941F2A860204416F0A2
:100390002FFC4FF47A701E901EA816F06DFBCDE96D
:1003A000260126A941F2B860204416F0E3FB0020A4
:1003B00041F2D0616054DFF88C1B5FA816F0F0FCAE
:1003C00064201D901DA816F057FB00220492CDE971
:1003D0000201002000905FAB206810F501722068D8
:1003E00010F5057141F2D86020440DF077FE5FA84A
:1003F00016F0E6FCDFF8501B58A816F0D1FC64207C
:100400001C901CA816F038FB00220492CDE90201D2
:100410000020009058AB206810F50972206810F594
:100420000D7114F5BA500DF059FE58A816F0C8FC1D
:10043000DFF8181B51A816F0B3FC01230200206856
:1004400010F5117141F2A87020440DF0B5FD51A8CE
:1004500016F0B6FCDFF8F81A4AA816F0A1FC002343
:100460000200206810F5157114F5C0500DF0A4FDC0
:100470004AA816F0A5FCDFF8DC1A43A816F090FC99
:1004800000230200206810F5197141F6580020443D
:100490000DF092FD43A816F093FCDFF8BC1A3CA8BF
:1004A00016F07EFC64201B901BA816F0E5FA0022D3
:1004B0000492CDE90201002000903CAB206810F5C9
:1004C0001D72206810F5217141F6B00020440DF036
:1004D00005FE3CA816F074FCDFF8801A35A816F06B
:1004E0005FFC64201A901AA816F0C6FA0022049243
:1004F000CDE902010020009035AB206810F525728F
:10050000206810F5297141F6181020440DF0E6FD21
:1005100035A816F055FCDFF8481A2EA816F040FC56
:100520006420199019A816F0A7FA00220492CDE9C8
:100530000201002000902EAB206810F52D7220687B
:1005400010F5317114F5CC500DF0C8FD2EA816F041
:1005500037FC002041F6E8116054002041F6E91113
:100560006054002041F6EA116054002041F6EC117D
:100570006050142041F6F0116050022041F6F41151
:100580006054032041F6F8116050012041F6FC113F
:10059000605014F5D05000220023C0E9002341F63A
:1005A0000820204400220023C0E9002341F6102047
:1005B000204400220023C0E9002341F618202044F3
:1005C00000220023C0E9002312269FED1A8B35007C
:1005D000002E00D56D429FED199B07E051EC180BE2
:1005E00053EC182B16F000FC41EC180BE80707D56C
:1005F00051EC190B53EC182B16F0F6FB41EC190BD0
:100600006D08002DEAD1002E20D553EC192B0020C7
:10061000002116F0C7FC02D19FED0A9B16E00020D6
:10062000DFF8601E53EC192B16F0CCFC41EC190BD3
:100630000CE000BF000000000000004000000000CF
:100640000000F03F000000000000F07F14F5D150E2
:1006500080ED009B002041F62821605441F63020B7
:1006600020440022DFF81C3EC0E9002341F6382078
:1006700020440022DFF80C3EC0E9002314F5D250DC
:1006800000220023C0E9002341F648202044002234
:100690000023C0E9002341F650202044002200231B
:1006A000C0E9002341F65820204400220023C0E97D
:1006B000002314F5D35000220023C0E9002341F6A3
:1006C0006820204400220023C0E900236420189001
:1006D00018A816F0D1F941F670222244C2E90001AF
:1006E0006420179017A816F0C7F941F67822224423
:1006F000C2E900016520169016A816F0BDF914F5A0
:10070000D452C2E90001052041F688216050002042
:1007100041F68C21605041F69020204416F075FD82
:1007200041F69C20204416F070FD41F6A82020449C
:1007300000220023C0E9002341F6B020204400221B
:100740000023C0E9002341F6B82020440022002302
:10075000C0E90023012014F5D651087041F6C420E9
:10076000204416F05AFD002041F6D02160540020AC
:1007700041F6D121605441F6D820204400220023C4
:10078000C0E9002314F5D750DFF8FC2CDFF8FC3C5F
:10079000C0E90023002041F6E8216054002041F622
:1007A000E921605441F6F020204400220023C0E9F2
:1007B0000023002041F6F8216054002014904FF4EB
:1007C0007A70159015AA14A914F5D85016F0A2F94C
:1007D000002041F618316050002041F61C31605075
:1007E000002014F5D9510860002041F624316050F2
:1007F00041F6283020440CF02EFA002041F650310A
:1008000060544FF47A70139013A816F035F9CDE9BF
:10081000240124A941F65830204416F0E9F90020BB
:1008200041F66831605441F68830204400220023AC
:10083000C0E9002341F69030204400220023C0E9A3
:10084000002341F69830204400220023C0E9002311
:1008500014F5DD5000220023C0E9002341F6A83042
:10086000204400220023C0E90023002041F6B031DB
:10087000605441F6B830204400220023C0E9002330
:10088000002014F5DE510860002041F6C4316050AC
:10089000012041F6C8316050052041F6CC3160504E
:1008A000002041F6D031605041F6D430204416F09B
:1008B000BCFC14F5DF5016F0A8FC022041F6EC3128
:1008C0006050002041F6F031605441F6F830204489
:1008D0000022DFF8B03BC0E9002314F5E05000220D
:1008E000DFF8A03BC0E90023002041F60841605436
:1008F000002041F609416054002014F5E2510870CF
:10090000002041F678416054002041F6794160545E
:10091000002041F6B0416054002041F61851605467
:10092000002014F5EC51087041F6702004EB000132
:1009300041F6C850204416F01DF9002041F63861F8
:10094000605414F5F25000220023C0E9002341F660
:100950004860204400220023C0E9002341F6506093
:10096000204400220023C0E9002341F658602044BF
:1009700000220023C0E9002314F5F35000220023D5
:10098000C0E9002341F68860204400220023C0E92A
:10099000002341F69060204400220023C0E9002398
:1009A0006420129012A816F067F841F6986222446B
:1009B000C2E9000114F5F55000220023C0E900232C
:1009C0000A2041F6A861605004F69C7016F035FCD0
:1009D000050004F69C7016F030FC80B20200ADB247
:1009E000290041F6C860204416F037FC41F6087033
:1009F000204400220023C0E9002341F61070204467
:100A000000220023C0E9002341F618702044002290
:100A10000023C0E90023642014F5F95108604FF465
:100A20009670119011A813F0E9FE41F65872224415
:100A3000C2E9000141F6587004EB000114F5FB50C7
:100A400016F098F8012041F67871605414F5FC50C6
:100A500000220023C0E9002341F688702044DFF81B
:100A6000302ADFF8303AC0E9002341F69070204484
:100A70000022DFF8103AC0E9002341F698702044C4
:100A800000220023C0E9002314F5FD500022DFF806
:100A9000F439C0E90023012041F6A87160504FF4F9
:100AA0007A7041F6AC71605004F2D470109041F24B
:100AB000C41020440F9004F2CC700E9041F2BC1090
:100AC00020440D9004F2C4700C9004F2BC700B90A2
:100AD00041F2B41020440A9004F2B470099004F278
:100AE000AC70089004F2A470079004F29C70069019
:100AF00004F29470059004F28C70049004F28470F7
:100B0000039004F27C70029004F2747001902068EB
:100B100010F584600090206810F58263206810F55D
:100B20008062206810F57C7141F6B07020440FF0AF
:100B30003FFD42F2F02020440022DFF84839C0E9AE
:100B4000002342F2F8202044DFF84429DFF8803EF9
:100B5000C0E9002314F50C500022DFF82839C0E961
:100B6000002342F20830204400220023C0E9002381
:100B700042F2103020440022DFF8583EC0E9002342
:100B80009FED661B9FEDED0B04F2847142F218306D
:100B9000204410F0EAF904F64C000E9014F50460BD
:100BA0000D9004F634000C9004F624000B9004F62B
:100BB0001C000A9004F61400099004F60C0008903A
:100BC00004F60400079004F2FC70069004F2F4703E
:100BD000059004F2EC70049004F2E470039004F2C7
:100BE000DC70029000200190206810F57470009075
:100BF00014F50C5090ED002B42F2F820204490EDBB
:100C0000001B42F2F020204490ED000B46232068A8
:100C100010F5587242F2183004EB000142F2303005
:100C2000204416F033FB42F2303004EB000142F274
:100C30009030204410F0F5F941F224202044109027
:100C400041F2182020440F9041F20C2020440E90D5
:100C500041F2FC1020440D9041F2F41020440C901D
:100C600041F2EC1020440B9041F2E41020440A9031
:100C700041F2DC102044099041F2D4102044089045
:100C800041F2CC102044079004F64C00069014F575
:100C90000460059004F63400049004F614000390F8
:100CA00004F60C00029004F60400019004F2FC70BB
:100CB000009004F2F47304F2EC7204F2DC7142F27C
:100CC0006050204410F03AFD42F2B050204400221F
:100CD000DFF8B037C0E9002342F2B8502044DFF813
:100CE000B027DFF8EC3CC0E9002314F517500022D0
:100CF000DFF89037C0E9002342F2C85020440022B8
:100D00000023C0E9002342F2D05020440022DFF843
:100D1000C43CC0E900239FED931B03E000000000EA
:100D2000008041409FED850B04F2747142F2D8506F
:100D3000204410F01AF904F6C8000E9004F6BC0026
:100D40000D9014F50B600C9014F50A600B9004F6EE
:100D500098000A9014F50960099004F6880008903C
:100D600014F50860079004F67800069014F5076003
:100D7000059004F66800049014F50660039004F6EC
:100D80005800029000200190206810F578700090C3
:100D900014F5175090ED002B42F2B850204490ED1E
:100DA000001B42F2B050204490ED000B4523206818
:100DB00010F5667242F2D85004EB000142F2F05096
:100DC000204416F063FA42F2F05004EB000142F2C4
:100DD0005060204410F025F941F288202044109002
:100DE00041F27C2020440F9041F2702020440E906C
:100DF00014F593500D9041F2582020440C9041F28C
:100E0000502020440B9041F2482020440A9014F5D1
:100E10009250099041F238202044089041F230204D
:100E20002044079004F6C800069004F6BC00059024
:100E300014F50B60049014F50960039004F6880023
:100E4000029014F50860019004F67800009014F503
:100E5000076304F6680204F6580142F620002044B5
:100E600010F06CFC002042F67001605404F69852B9
:100E7000211D42F6780020440CF057F8200000F0C5
:100E8000B1FD200000F0C3FD16F044FA039004F613
:100E9000F86016F045FA8DF80C0014F5706016F045
:100EA0003FFA8DF80D0004F6087016F039FA8DF847
:100EB0000E0014F5716016F033FA8DF80F0016F07D
:100EC00029FA029004F6187016F02AFA8DF8080034
:100ED00014F5726016F024FA8DF8090004F62870F3
:100EE00016F01EFA8DF80A0014F5736016F018FA61
:100EF0008DF80B0016F00EFA019004F6387016F01B
:100F00000FFA8DF8040014F5746016F009FA8DF8E4
:100F1000050004F6487016F003FA8DF8060014F583
:100F2000756016F0FDF98DF8070004F6587016F09C
:100F300007FA00281AD0012019E000BF00000000C5
:100F400000002E40FCB0050804B105080CB10508EE
:100F500014B105081CB1050824B105082CB1050819
:100F600034B1050800000000008046400020C0B2F7
:100F70000090019B029A03992068A03016F052FA63
:100F8000206810F1A0010DF102000FF0C9F916F070
:100F9000D4FE0500082101A816F016FFDDE90101C5
:100FA000CDE92C012CA9280016F01AFF04F6985060
:100FB00016F026FF14F5D651087014F5D65114F129
:100FC0001C0016F02BFF14F55A6016F034FF41F6A2
:100FD0003820204480ED000B41F6382004EB00015E
:100FE00014F1B40016F04DFF04F6A85016F023FFDC
:100FF00041F63020204480ED000B41F6302004EB18
:10100000000114F1BC0016F03CFF04F6E86114F195
:10101000D40016F043FF14F56F6114F1DC0016F0F4
:101020003DFF14F55B6016F0EBFE0100C9B241F222
:10103000B83020440DF05AFB41F2B83020440DF096
:10104000DFFB8DF801000DF1010114F5CC7016F0F5
:10105000E5FE04F6B85016F0D3FE41F6F8116050E4
:1010600041F6F81020588DF80000694614F5D0704C
:1010700016F0D4FE14F55C6016F0C2FE0D900DA8BB
:1010800015F0FAFC41F678222244C2E9000114F579
:101090005C6114F5FE7016F012FF41F69860204472
:1010A000D0E9002341F2B83020440DF0AFFB14F535
:1010B0006D6016F0A5FE0C900CA815F0DDFC14F583
:1010C000D452C2E9000114F56D6114F56E7016F08A
:1010D000F6FE04F6C85016F093FE0B900BA815F020
:1010E000CBFC41F670222244C2E9000104F6C8514B
:1010F00014F5017016F0E3FE14F55D6016F09BFE2A
:1011000041F6F020204480ED000B41F6F02004EB86
:10111000000114F5037016F0B4FE04F6D85016F072
:10112000DEFE16F0F3FE41F6F0222244C2E9000191
:1011300041F6F02004EB000114F5037016F0A1FE57
:1011400014F55E6016F05CFE41F68821605041F6B1
:10115000882004EB000114F5077016F0E8FE20006B
:1011600008F046FC41F6104004EB000141F2584003
:1011700020440EF0B5FC04F6647114F5767016F098
:101180008DFE04F6647016F056FE14F5F25080EDF4
:10119000000B04F66C7114F5787016F07FFE04F6FF
:1011A0006C7016F048FE41F64860204480ED000B5C
:1011B00004F6747114F57A7016F070FE04F674700B
:1011C00016F039FE41F65060204480ED000B04F625
:1011D0007C7114F57C7016F061FE04F67C7016F0DC
:1011E0002AFE41F65860204480ED000B41F2B830F1
:1011F000204416F0A9FE41F6F850204480ED000B83
:1012000041F2B830204416F0EDFE14F5F05080EDB8
:10121000000B41F60860204400220023C0E90023AF
:1012200041F61060204400220023C0E9002341F66B
:101230001860204400220023C0E90023002014F598
:10124000F1510860002041F62461605041F62860A9
:10125000204400220023C0E9002341F630602044EE
:101260008B4ADFF87437C0E9002304F6847114F563
:10127000806016F013FE04F6847016F0DCFD41F673
:101280008860204480ED000B04F68C7114F58160B9
:1012900016F004FE04F68C7016F0CDFD41F6906059
:1012A000204480ED000B41F66860204441F68861DF
:1012B000214491ED000B80ED000B41F6706020445D
:1012C00000220023C0E9002341F678602044002278
:1012D0000023C0E90023012141F2584020440DF0D1
:1012E0000BFD41F690602044D0E9002351EC100B37
:1012F00015F07AFD14F5F452C2E9000104F6947178
:1013000014F5846016F0CAFD04F6947016F093FD8F
:1013100014F5F55080ED000B04F69C7015F08DFF70
:1013200080B241F6A861605041F6B06020440022CE
:101330000023C0E9002341F6B860204400220023C6
:10134000C0E90023012141F2584020440DF0D4FCB3
:1013500014F5F550D0E9002351EC100B15F044FDC5
:1013600014F5F652C2E9000104F69C7114F5896087
:1013700016F08AFE04F6B47016F05DFD41F61070AA
:10138000204480ED000B41F61070204490ED000BDE
:10139000200008F075FA41F60870204480ED000B3B
:1013A00041F6107004EB000114F58D6016F069FD34
:1013B00041F6087004EB000114F58C6016F061FD35
:1013C00004F6BC7016F037FD41F61870204480ED2D
:1013D000000B41F6187004EB000114F58E6016F056
:1013E00050FD04F6A47015F09BFFC0B210F0AEFDE6
:1013F00041F67871605404F6A47114F58A6016F011
:1014000054FE14F55F6016F016FD14F5DC5080ED07
:10141000000B14F5DC5114F5567016F032FD14F57E
:10142000626016F008FD41F2B83020440DF03FFA3A
:1014300041F2B83020440DF040FA8DED220B22A984
:1014400014F5647016F01DFD04F6286016F0F3FC28
:1014500041F2B83020440DF02DFA41F2B83020446A
:101460000DF02EFA8DED0E0B0EA914F5667016F028
:1014700008FD04F6386015F063FF00280CD0012049
:101480000BE000BF0000F03FCDCCCCCCCC60B54031
:101490009A9999999999D93F002041F6D0216054A1
:1014A00041F6D020215C14F1600016F00FFE04F626
:1014B000446015F045FF002801D0012000E0002025
:1014C00041F66831605441F66830215C14F5C6700D
:1014D00016F0FCFD14F5656015F032FF002801D010
:1014E000012000E0002041F6D121605441F6D120D6
:1014F000215C14F5157016F0E9FD41F6D120215C50
:1015000041F2D860204416F0F7FD41F6D120215C6D
:1015100014F5BA5016F0F0FD41F6D120215C41F6E9
:10152000B000204416F0E8FD41F6D120215C41F6E0
:101530001810204416F0E0FD41F6D120215C14F58E
:10154000CC5016F0D9FD04F65C6015F0F9FE0028C9
:1015500001D0012000E0002041F6B031605441F696
:10156000B030215C14F51E7016F0B0FD04F6B860C2
:1015700016F0B5FC41F6FC11605041F6FC1004EB8E
:10158000000114F5687016F0BAFD14F56C6016F0E1
:10159000A6FC41F6C831605041F6C830205805908D
:1015A00005A914F56A7016F0AAFD04F6C86016F0D5
:1015B00096FC41F6CC31605041F6CC302058049076
:1015C00004A914F56C7016F09AFD04F6D86016F0B4
:1015D00032FC41F6F830204480ED000B41F6F83043
:1015E00004EB000114F5707016F04BFC04F6686112
:1015F00014F5217016F090FD14F5686114F544702F
:1016000016F08AFD14F5447015F09AFE002801D0FA
:10161000012100E00021C9B241F25840204416F0F7
:1016200094FD14F56E6016F006FC14F5E05080EDA4
:10163000000B14F5E05114F5727016F022FC04F65C
:10164000986015F06DFE0100C9B220000BF0EEFAB3
:1016500041F6F411605404F6986114F52D7016F0FB
:1016600024FD04F6AC6114F54D7016F055FD41F201
:101670008410204416F0DFFB41F68870204480ED92
:10168000000B41F2841004EB000114F5936016F096
:1016900005FC41F28C10204416F0CDFB41F6907011
:1016A000204480ED000B41F28C1004EB000114F596
:1016B000946016F0F3FB41F29410204416F0BBFB4B
:1016C00041F69870204480ED000B41F2941004EB39
:1016D000000104F2547016F0E1FB41F29C1020442A
:1016E00016F0A9FB14F5FD5080ED000B41F29C10A3
:1016F00004EB000104F25C7016F0D0FB41F2A41080
:10170000204416F0ECFB41F6A871605041F2A410A1
:1017100004EB000104F2647016F01AFD41F2AC1003
:10172000204416F088FB51EC100B16F021FD41F619
:10173000AC71605041F2AC1004EB000104F26C702B
:1017400016F0ACFB41F67030204400220023C0E9C3
:10175000002341F67830204400220023C0E9002312
:1017600014F55F6016F067FB14F5DC5080ED000B9C
:1017700004F6C85016F044FB0A900AA815F07CF94C
:1017800041F670222244C2E9000104F6F86114F522
:10179000986016F08AFC14F5706114F5996016F0E3
:1017A00084FC04F6087114F59A6016F07EFC14F5BA
:1017B000716114F59B6016F078FC04F6187114F54D
:1017C0009C6016F072FC14F5726114F59D6016F0C1
:1017D0006CFC04F6287114F59E6016F066FC14F596
:1017E000736114F59F6016F060FC04F6387114F50F
:1017F000A06016F05AFC14F5746114F5A16016F09F
:1018000054FC04F6487114F5A26016F04EFC14F571
:10181000756114F5A36016F048FC04F6587114F5D0
:10182000A46016F079FC41F698602044D0E90023CA
:1018300041F2D86020440CF0A8FC41F698602044A6
:10184000D0E9002314F5BA500CF09FFC41F69860E3
:101850002044D0E9002341F2A87020440CF0ECFBB6
:1018600041F698602044D0E9002314F5C0500CF0F4
:10187000E3FB41F698602044D0E9002341F658008C
:1018800020440CF0D9FB41F698602044D0E90023B5
:1018900041F6B00020440CF078FC41F698602044FA
:1018A000D0E9002341F6181020440CF06EFC41F6FC
:1018B00098602044D0E9002314F5CC500CF065FC6E
:1018C00004F6647114F5767016F0E8FA04F608214F
:1018D00014F5296016F069FC14F5256114F52D60E6
:1018E00016F08AFC04F6C42114F52D6016F086FC6F
:1018F00004F6AC2114F52D6016F080FC04F6B82136
:1019000014F52D6016F07AFC1420099009A815F042
:10191000B3F802000B0014F52D6016F078FC1420CB
:10192000089008A815F0A8F802000B0014F52D6027
:1019300016F072FC4FF4FA70079007A815F09CF8A7
:1019400002000B0014F52D6016F06BFC322006909F
:1019500006A815F091F802000B0014F52D6016F0A2
:101960006AFC782016F06AFC0500231D04F6C422E8
:1019700014F52961280018F035FB010014F53660D4
:1019800018F045FC002114F51C600DF02CF816F041
:10199000D4F9124918F04FFC16F0CFF9082118F0CD
:1019A00025FD0F4918F080FD04F6BC1104F6D400A3
:1019B00016F0BDFA41F2942004EB000104F6DC00BD
:1019C00016F07DFA200066B0BDEC048B70BD0000FF
:1019D0009999A93F000039409999B93F547E05086B
:1019E000D94D050810B50400206810F5987114F55C
:1019F000256011F00DFA206810F59E7114F5256030
:101A000011F01EFA14F5256011F03BFA10BD704775
:101A10002DE9F8432DED108BADF5006DBEB005003E
:101A2000286816F090F815F5376012F0DEFC05F620
:101A3000384014F0ECF841F27030284414F036FFCE
:101A400041F2B83028440CF043FF41F2584028449A
:101A50000DF0BAFA41F2D86028440CF0CAFB15F533
:101A6000BA500CF0C6FB41F2A87028440CF00AFBF7
:101A700015F5C0500CF006FB41F6580028440CF058
:101A800001FB41F6B00028440CF0B3FB41F61810FE
:101A900028440CF0AEFB15F5CC500CF0AAFB15F564
:101AA0001C600CF0B5FF15F5366018F009FD18F054
:101AB00029FB05F6082010F099FF15F52D6018F0A8
:101AC00021FD41F6B07028440EF071FF42F29030D3
:101AD00028440FF0A4FC42F2506028440FF09FFC11
:101AE00005F6AC2018F02CFE002804D0002115F5D6
:101AF0001C600CF078FF41F29860284415F096F8CD
:101B0000C0B2002800F033870021281D18F01EFE07
:101B1000280008F051FB15F5E2510870280008F084
:101B200070FC010041F67840285C002802D141F6A3
:101B300078402954280008F092FD010041F67940D0
:101B4000285C002802D141F679402954280008F089
:101B50000AFF41F6B0416854280009F032F841F616
:101B600018516854280009F056F915F5EC51087021
:101B7000280008F0D4FA41F6E810285C012800F0AB
:101B8000138115F5DA7016F056F9B0EE408AF0EED2
:101B9000608A41F2B83028440CF0E0FD53EC182B79
:101BA00051EC100B15F0FEF90BD041F2B83028447F
:101BB0000CF0D4FD8DED4C0B4CA915F5DA7016F038
:101BC00060F915F5DE7016F08AF9040041F2B830BC
:101BD00028440CF00FFE84420AD041F2B830284469
:101BE0000CF008FE139013A915F5DE7016F087FAB5
:101BF00015F5D47015F0A4FB040041F2B830284468
:101C00000CF060FCC0B284420AD041F2B8302844E3
:101C10000CF058FC0100C9B215F5D47016F056FA54
:101C200015F5CC7015F07CFB040041F2B830284467
:101C30000CF0E6FDE4B2C0B284420BD041F2B83001
:101C400028440CF0DDFD8DF8100004A915F5CC70CA
:101C500016F0E4F815F5AE7015F072FB040041F2D1
:101C6000D86028440CF080FA844209D041F2D86050
:101C700028440CF079FA010015F5AE7016F026FA3A
:101C800015F5B47015F05CFB040015F5BA500CF0B6
:101C90006BFA844208D015F5BA500CF065FA0100D1
:101CA00015F5B47016F012FA15F59C7015F048FB96
:101CB000040041F2A87028440CF0B3F9844209D022
:101CC00041F2A87028440CF0ACF9010015F59C70A5
:101CD00016F0FCF915F1E40015F032FB040015F5DF
:101CE000C0500CF09EF9844208D015F5C0500CF09D
:101CF00098F9010015F1E40016F0E8F915F1F0008B
:101D000015F01EFB040041F6580028440CF089F938
:101D1000844209D041F6580028440CF082F90100B1
:101D200015F1F00016F0D2F915F1FC0015F008FBE2
:101D3000040041F6B00028440CF016FA844209D0A1
:101D400041F6B00028440CF00FFA010015F1FC0038
:101D500016F0BCF915F5847015F0F2FA040041F69E
:101D6000181028440CF000FA844209D041F61810EB
:101D700028440CF0F9F9010015F5847016F0A6F965
:101D800015F58A7015F0DCFA040015F5CC500CF04E
:101D9000EBF9844208D015F5CC500CF0E5F90100C0
:101DA00015F58A7016F092F941F25840284418F05F
:101DB000E8FCC0B200286CD041F6885005EB000169
:101DC00041F2584028440EF04DFA41F6B05005EB70
:101DD000000105F6B41016F0AAF841F69050284418
:101DE000D0E900230020DFF8E81D14F0FDFF41ECEE
:101DF000100B51EC100B31F0004141EC100B8DED4C
:101E0000320B32A915F5916016F03BF841F6985067
:101E100005EB000115F5976016F071F915F5ED5118
:101E200015F58F6016F02DF841F6A8502844D0E93A
:101E300000230020DFF8981D14F0D6FFCDE9300113
:101E400030A915F5906016F01CF841F6E810285CF2
:101E500000280ED041F6E910285C022809D041F68E
:101E60009030284441F68851294491ED000B80EDD3
:101E7000000B41F69050284490ED000B51EC100BF4
:101E800031F0004141EC100B42F6780028440BF091
:101E9000E9F815F5F27015F0CEFF53EC102B41F672
:101EA00090302844D0E9000115F07CF81ED041F6AE
:101EB000903005EB000115F5F27015F0E2FF41F6E8
:101EC0009030284490ED000B41F67030284418F013
:101ED000D2FE41F68830284480ED000B41F6883070
:101EE00005EB000115F5587015F0CBFF15F51870CE
:101EF00015F026FA00282AD0002115F5187016F0E2
:101F0000E5F841F67030284441F69031294491EDCE
:101F1000000B80ED000B41F67830284441F69031FB
:101F2000294491ED000B80ED000B41F688302844E8
:101F300041F69031294491ED000B80ED000B41F604
:101F4000883005EB000115F5587015F09AFF15F172
:101F5000900015F0E5F941F6E811695CC0B28842DD
:101F60000AD041F6E810285C8DF80F000DF10F0142
:101F700015F1900015F052FF15F5FA7015F05BFFA2
:101F800053EC102B41F698302844D0E9000115F0AD
:101F900009F807D041F6983005EB000115F5FA7005
:101FA00015F06FFF41F6E810285C002820D141F6BB
:101FB000E910285C02281BD115F5A76015F0C0F9BF
:101FC00001280CD1002115F5A76016F07FF800213B
:101FD00005F22C5016F07AF8280007F007F905F200
:101FE0002C5015F0ADF9002802D1280007F064F953
:101FF00015F11C0015F094F9040005F6985015F041
:10200000FFFEE4B2844209D015F11C0015F088F9F6
:10201000129012A905F6985015F089FF15F1B40039
:1020200015F009FFB0EE408AF0EE608A15F55A60AF
:1020300015F001FF53EC182B51EC100B14F0B2FF0C
:1020400005D015F1B40115F55A6015F027FF15F10B
:10205000BC0015F0F0FEB0EE408AF0EE608A05F6A6
:10206000A85015F0E8FE53EC182B51EC100B14F0AF
:1020700099FF05D015F1BC0105F6A85015F00EFF2B
:1020800015F1D40015F0D7FEB0EE408AF0EE608A6C
:1020900005F6E86015F0CFFE53EC182B51EC100B51
:1020A00014F080FF05D015F1D40105F6E86015F0B5
:1020B000F5FE15F1DC0015F0BEFEB0EE408AF0EE44
:1020C000608A15F56F6015F0B6FE53EC182B51ECD5
:1020D000100B14F067FF05D015F1DC0115F56F60EA
:1020E00015F0DCFE15F5CC7015F01AF9040015F5A5
:1020F0005B6015F085FEE4B2844209D015F5CC7022
:1021000015F00EF9119011A915F55B6015F00FFF90
:1021100015F5D07015F004F9040005F6B85015F067
:102120006FFEE4B2844209D015F5D07015F0F8F8CE
:10213000109010A905F6B85015F0F9FE15F5FE70CF
:1021400015F05EFE040015F55C6015F059FE844242
:1021500005D015F5FE7115F55C6015F0B0FE15F5AE
:10216000017015F04DFE040005F6C85015F048FE4C
:10217000844205D015F5017105F6C85015F09FFE93
:1021800015F5037015F057FEB0EE408AF0EE608A48
:1021900015F55D6015F04FFE53EC182B51EC100B4C
:1021A00014F000FF05D015F5037115F55D6015F00D
:1021B00075FE15F5057015F092FE040005F6D85071
:1021C00015F08DFE844205D015F5057105F6D85041
:1021D00015F0BEFF15F5077015F012FE040015F599
:1021E0005E6015F00DFE844205D015F5077115F5FA
:1021F0005E6015F064FE15F5567015F01CFE53EC8C
:10220000102B15F5DC50D0E9000114F0CBFE0DD0F9
:1022100015F5567015F00FFE15F5DC5080ED000B2E
:1022200015F5567115F55F6015F038FE15F55A7005
:1022300015F0E6FD040005F6F85015F0E1FD8442C6
:1022400005D015F55A7105F6F85015F038FE15F55C
:102250005C7015F0D5FD040015F5606015F0D0FD3B
:10226000844205D015F55C7115F5606015F027FE08
:1022700015F55E7015F0C4FD040005F6086015F054
:10228000BFFD844205D015F55E7105F6086015F0B6
:1022900016FE15F5647015F0CEFDB0EE408AF0EE36
:1022A000608A15F5626015F0C6FD53EC182B51ECF1
:1022B000100B14F077FE05D015F5647115F562600A
:1022C00015F0ECFD15F5667015F0B5FDB0EE408A21
:1022D000F0EE608A05F6286015F0ADFD53EC182B82
:1022E00051EC100B14F05EFE05D015F5667105F685
:1022F000286015F0D3FD15F1600015F021F80400F9
:1023000005F6386015F01CF8844205D015F160011F
:1023100005F6386015F000FF15F5C67015F010F8D9
:10232000040005F6446015F00BF8844205D015F55D
:10233000C67105F6446015F0EFFE15F51E7014F039
:10234000FFFF040005F65C6014F0FAFF844205D03C
:1023500015F51E7105F65C6015F0DEFE15F568706A
:1023600015F0BDFD040005F6B86015F0B8FD844217
:1023700005D015F5687105F6B86015F0E9FE15F59C
:102380006A7015F0ACFD040015F56C6015F0A7FD42
:10239000844205D015F56A7115F56C6015F0D8FE0C
:1023A00015F56C7015F09BFD040005F6C86015F07E
:1023B00096FD844205D015F56C7105F6C86015F0E0
:1023C000C7FE15F56E7015F01BFD040015F56D6068
:1023D00015F016FD844205D015F56E7115F56D608A
:1023E00015F06DFD15F5707015F025FDB0EE408A05
:1023F000F0EE608A05F6D86015F01DFD53EC182B41
:1024000051EC100B14F0CEFD05D015F5707105F6EA
:10241000D86015F043FD15F5217014F091FF04000C
:1024200005F6686014F08CFF844205D015F5217123
:1024300005F6686015F070FE15F5447014F080FF25
:10244000040015F5686014F07BFF844214D015F584
:10245000447115F5686015F05FFE15F5447014F0D1
:102460006FFF002801D0012100E00021C9B241F234
:102470005840284415F069FE15F53B7014F060FFD4
:10248000040005F6746014F05BFF844205D015F576
:102490003B7105F6746015F03FFE15F5727015F08E
:1024A000CAFCB0EE408AF0EE608A15F56E6015F059
:1024B000C2FC53EC182B51EC100B14F073FD05D03B
:1024C00015F5727115F56E6015F0E8FC15F52D70B7
:1024D00014F026FF040005F6986014F021FFE4B222
:1024E000C0B2844205D015F52D7105F6986015F03F
:1024F000DCFD15F54D7014F023FF040005F6AC600B
:1025000014F01EFF844205D015F54D7105F6AC6040
:1025100015F002FE15F58A6014F002FF040005F6BE
:10252000A47014F0FDFEE4B2C0B2844205D015F5EB
:102530008A6105F6A47015F0B8FD15F5936015F0E5
:102540007AFCB0EE408AF0EE608A41F284102844B2
:1025500015F071FC53EC182B51EC100B14F022FD0C
:1025600020D015F5936141F28410284415F096FCB3
:1025700015F5936015F05FFC41F68870284480EDF6
:10258000000B41F2A87028440BF04BFD012809D143
:1025900041F68870284490ED000B41F258402844E1
:1025A0000DF07FFE15F5946015F045FCB0EE408A05
:1025B000F0EE608A41F28C10284415F03CFC53EC9C
:1025C000182B51EC100B14F0EDFC20D015F5946194
:1025D00041F28C10284415F061FC15F5946015F05B
:1025E0002AFC41F69070284480ED000B41F2A8705F
:1025F00028440BF016FD002809D141F690702844BC
:1026000090ED000B41F2584028440DF04AFE15F5BC
:102610003B7014F095FE040005F6746014F090FE13
:10262000844205D015F53B7105F6746015F074FD14
:1026300005F2547015F0FFFBB0EE408AF0EE608AB0
:1026400041F29410284415F0F6FB53EC182B51EC92
:10265000100B14F0A7FC0FD005F2547141F2941046
:10266000284415F01BFC05F2547015F0E4FB41F60C
:102670009870284480ED000B05F25C7015F0DBFBD0
:10268000B0EE408AF0EE608A41F29C10284415F0CA
:10269000D2FB53EC182B51EC100B14F083FC0ED032
:1026A00005F25C7141F29C10284415F0F7FB05F22D
:1026B0005C7015F0C0FB15F5FD5080ED000B05F2C8
:1026C000647015F00CFC040041F2A410284415F0CD
:1026D00006FC84420DD005F2647141F2A410284436
:1026E00015F036FD05F2647015F0F9FB41F6A8719E
:1026F000685005F26C7015F09EFBB0EE408AF0EE6B
:10270000608A41F2AC10284415F095FB53EC182B6D
:1027100051EC100B14F046FC11D005F26C7141F233
:10272000AC10284415F0BAFB05F26C7015F083FB71
:1027300051EC100B15F01CFD41F6AC71685015F50D
:10274000157014F0FDFD040015F5656014F0F8FD3A
:10275000844211D015F5157115F5656015F0DCFC96
:1027600015F5157014F0ECFD002801D0012000E0F3
:10277000002041F6D121685442F67000285C0128FF
:1027800009D043D303281AD00FD305282AD01FD34A
:10279000062831D03AE001208DF80E000DF10E012F
:1027A00015F5507015F03AFB38E002208DF80D0059
:1027B0000DF10D0115F5507015F030FB2EE00320E2
:1027C0008DF80C0003A915F5507015F027FB25E0D6
:1027D00004208DF80B000DF10B0115F5507015F06C
:1027E0001DFB1BE005208DF80A000DF10A0115F50F
:1027F000507015F013FB11E006208DF809000DF163
:10280000090115F5507015F009FB07E000208DF85F
:10281000080002A915F5507015F000FB05F6F861E7
:1028200015F5986018F0AAFA15F5706115F599601C
:1028300018F0A4FA05F6087115F59A6018F09EFADA
:1028400015F5716115F59B6018F098FA05F6187189
:1028500015F59C6018F092FA15F5726115F59D60FA
:1028600018F08CFA05F6287115F59E6018F086FAB6
:1028700015F5736115F59F6018F080FA05F638714B
:1028800015F5A06018F07AFA15F5746115F5A160D8
:1028900018F074FA05F6487115F5A26018F06EFA92
:1028A00015F5756115F5A36018F068FA05F658710D
:1028B00015F5A46018F078FA42F2605028440EF042
:1028C000ADFF42F6200028440EF0A8FF41F2584028
:1028D000284418F07DFA012805D0012115F52A7049
:1028E00015F0F4FB04E0002115F52A7015F0EEFB5D
:1028F00015F5477014F024FD012807D1002115F5C6
:10290000477015F0E3FB280009F02AFB05F6D40018
:1029100015F076FAD5F8BC19884205D005F6BC1139
:1029200005F6D40015F003FB05F6DC0015F068FA97
:10293000040041F29420284415F062FA844206D043
:1029400005F6DC0141F29420284415F0B8FA42F66D
:10295000780028440AF0ADFB41F6283028440AF0FC
:1029600086FA079007A915F5097015F0E0FA41F20B
:10297000A860284414F05AF9C0B2002818D041F2D7
:10298000D060285C002804D02868C03018F0E9FA2C
:1029900003E02868C03018F0EDFA41F2D060285CFE
:1029A000002801D1012000E0002041F2D0616854EC
:1029B00041F65830284414F039F9C0B2002842D00A
:1029C00041F65030285C00280ED041F618302858C7
:1029D000401C41F61831685041F6183005EB0001F3
:1029E00015F50B7015F0A3FA41F6E810285C0228E3
:1029F00029D115F5D9500068401C15F5D95108604A
:102A000041F624302A58002141F624302858401E2F
:102A100018F02CFC41F62431685041F62830284447
:102A20000AF08BF915F5D95115F50F7015F07FFAED
:102A300041F6283028440AF018FA069006A915F540
:102A4000117015F074FA41F6E810285C002809D0DE
:102A5000022801F0F681C0F04D81032800F0AE8716
:102A600006F0B5BB41F6E910285C002805D0022825
:102A700000F0E180C0F0AE80F9E015F05EF9DFF81B
:102A8000C81D17F011FD002141F2D86028440BF059
:102A900064FB002115F5BA500BF05FFB012141F2F8
:102AA000A87028440BF0B6FA002115F5C0500BF0C1
:102AB000B1FA002141F6580028440BF0ABFA00218E
:102AC00041F6B00028440BF048FB002141F61810F5
:102AD00028440BF042FB002115F5CC500BF03DFBD8
:102AE00041F68870284490ED000B41F2584028448C
:102AF0000DF0D7FB41F2B830284418F0BEFB41F28C
:102B0000B83028440BF096FC9FED2F0B41F2B83003
:102B100028440BF075FD41F25840284418F0B1FBF1
:102B200041F6104005EB000141F2584028440CF0FA
:102B3000D7FF002141F2D860284415F0DDFA0021CA
:102B400015F5BA5015F0D8FA002141F6B000284426
:102B500015F0D2FA002141F61810284415F0CCFAED
:102B6000002115F5CC5015F0C7FA002115F17800B9
:102B700015F0ACFA41F6882005EB000115F5077059
:102B800015F0D5F941F2B860284414F00BF8002193
:102B900015F5247015F09AFA002041F63861685452
:102BA000002115F52F7015F091FA002115F53570FB
:102BB00015F08CFA002115F5387015F087FA012010
:102BC00041F6E911685452E00000000000000000E6
:102BD00080842E4141F2B860284413F0EEFFC0B269
:102BE000002827D015F0A9F8DFF85C1C17F05CFC72
:102BF00015F0A3F8DFF8901D17F01DFBDFF8481C57
:102C000017F052FC15F099F8DFF8741D17F013FB5C
:102C1000DFF8341C17F048FC15F08FF8DFF8681D5A
:102C200017F009FBDFF8201C17F03EFC022041F6EC
:102C3000E91168541BE015F1780014F081FB0128BC
:102C400017D041F25840284418F0C2F801280ED19C
:102C500041F69030284441F68851294491ED000B0B
:102C600080ED000B41F2584028440BF0C3FF06F002
:102C7000AEBA002115F1780015F028FA002115F1FF
:102C8000840015F023FA15F10C0014F049FBC0B2D2
:102C9000012804D024D3032819D009D320E001202F
:102CA00041F6E8116854002041F6E9116854DEE766
:102CB00015F5366017F004FC17F0FAF9022041F61A
:102CC000E8116854002041F6E9116854CFE7032069
:102CD00041F6E8116854002041F6E9116854C6E74E
:102CE00000208DF807000DF1070115F10C0015F01B
:102CF00095F8BCE741F6E820285C002815D00228AA
:102D000000F0D380C0F09280042800F06683C0F009
:102D10003683062800F00484C0F09083082800F071
:102D20003586C0F0AC8500F047BE15F006F8DFF838
:102D3000181B17F0B9FB15F000F8DFF84C1C17F062
:102D40007AFADFF8041B17F0AFFB14F0F6FFDFF898
:102D5000341C17F070FADFF8F01A17F0A5FB14F026
:102D6000ECFFDFF8241C17F066FADFF8DC1A17F026
:102D70009BFB41F698602844D0E9002341F2D860DB
:102D800028440BF002FA41F698602844D0E9002369
:102D900015F5BA500BF0F9F941F698602844D0E9DE
:102DA000002341F2A87028440BF046F941F69860E0
:102DB0002844D0E9002315F5C0500BF03DF941F649
:102DC00098602844D0E9002341F6580028440BF0CD
:102DD00033F941F698602844D0E9002341F6B00069
:102DE00028440BF0D2F941F698602844D0E900233A
:102DF00041F6181028440BF0C8F941F698602844B1
:102E0000D0E9002315F5CC500BF0BFF941F69860DE
:102E10002844D0E9002341F2B83028440BF0F6FCF6
:102E2000012041F6E821685400F0C6BD41F2584047
:102E3000284417F0CDFF012835D115F5E45141F2B2
:102E4000584028440CF04CFE012141F258402844DF
:102E50000BF0A6FFB0EE408AF0EE608A41F2B83087
:102E600028440BF0C7FC15F5D75191ED003BB0EEAF
:102E7000439AF0EE639A15F049F841EC120BB0EE6C
:102E8000493AF0EE693A41F69030284490ED001B43
:102E9000B0EE480AF0EE680A280006F0B8FB0220FF
:102EA00041F6E821685400F087BD15F16C0014F07C
:102EB00047FA012850D015F5AE7014F041FA04001D
:102EC00041F2D86028440BF04FF9844209D015F53F
:102ED000AE7014F035FA010041F2D86028440BF0CE
:102EE0003CF915F5B47014F02BFA040015F5BA503E
:102EF0000BF03AF9844208D015F5B47014F020FABA
:102F0000010015F5BA500BF028F915F59C7014F076
:102F100017FA040041F2A87028440BF082F88442AA
:102F20003BD015F59C7014F00BFA010041F2A8702B
:102F300028440BF06FF815F59C7014F001FA012885
:102F400021D041F69070284490ED000B41F258409A
:102F500028440DF0A6F920E0002115F16C0015F0D1
:102F6000B5F8002041F6E8216854002041F6E81148
:102F7000685400208DF806000DF1060115F10C00D3
:102F800014F04CFFF0E141F68870284490ED000BFE
:102F900041F2584028440DF084F915F1E40014F092
:102FA000CFF9040015F5C0500BF03BF8844208D06F
:102FB00015F1E40014F0C4F9010015F5C0500BF050
:102FC00029F815F1F00014F0BBF9040041F658009F
:102FD00028440BF026F8844209D015F1F00014F0D3
:102FE000AFF9010041F6580028440BF013F815F131
:102FF000FC0014F0A5F9040041F6B00028440BF0E1
:10300000B3F8844209D015F1FC0014F099F90100DD
:1030100041F6B00028440BF0A0F815F5847014F0C8
:103020008FF9040041F6181028440BF09DF88442F3
:1030300009D015F5847014F083F9010041F61810D9
:1030400028440BF08AF815F58A7014F079F9040019
:1030500015F5CC500BF088F8844208D015F58A702D
:1030600014F06EF9010015F5CC500BF076F841F232
:10307000D860284418F009F941F6D121695CC0B242
:10308000814207D041F6D120295C41F2D860284422
:1030900015F032F815F5BA5018F0F7F841F6D121CD
:1030A000695CC0B2814206D041F6D120295C15F599
:1030B000BA5015F021F841F6B000284418F0E5F8B0
:1030C00041F6D121695CC0B2814207D041F6D120DE
:1030D000295C41F6B000284415F00EF841F61810AE
:1030E000284418F0D2F841F6D121695CC0B281427F
:1030F00007D041F6D120295C41F61810284414F07D
:10310000FBFF15F5CC5018F0C0F841F6D121695CF1
:10311000C0B2814206D041F6D120295C15F5CC50D1
:1031200014F0EAFF15F5D47014F00AF9040041F226
:10313000B83028440BF0C6F9C0B2844210D015F55F
:10314000D47014F0FDF8002840F0D28041F2B8307D
:1031500028440BF093F941F25840284418F098F8AD
:1031600015F5DE7014F0BBFE040041F2B8302844BF
:103170000BF040FB844234D015F5DE7014F0AFFE46
:1031800014F0C4FE41EC100B41F2B83028440BF0AF
:1031900037FA41F25840284418F07AF841F2B83032
:1031A00028440BF0DBFA8DED4A0B4AA915F5DA70CD
:1031B00014F067FE15F5DE7014F091FE040041F284
:1031C000B83028440BF016FB84420AD041F2B830E4
:1031D00028440BF00FFB0F900FA915F5DE7014F0CB
:1031E0008EFF15F5DA7014F026FEB0EE408AF0EE90
:1031F000608A41F2B83028440BF0B0FA53EC182B37
:1032000051EC100B13F0CEFE38D015F5DA7014F037
:1032100012FE41F2B83028440BF068F941F25840F0
:10322000284418F035F841F2B83028440BF0E2FA9F
:103230000E900EA915F5DE7014F061FF15F5DA7029
:1032400014F0F9FDB0EE408AF0EE608A41F2B83039
:1032500028440BF083FA53EC182B51EC100B13F0AD
:10326000A1FE0BD041F2B83028440BF077FA8DED77
:10327000480B48A915F5DA7014F003FE15F5CC706B
:1032800014F04EF8040041F2B83028440BF0B8FABC
:10329000E4B2C0B284420FD015F5CC7014F040F8FF
:1032A0000100C9B241F2B83028440BF01FFA41F2D4
:1032B0005840284417F0ECFF41F6B040285C002845
:1032C0000AD0002041F6B041685415F5E45141F2AE
:1032D000584028440CF004FC15F5217014F030F827
:1032E000002810D141F25840284417F0CAFF0FE0DF
:1032F00041F2B83028440BF09DF841F25840284480
:1033000017F0C6FF2CE741F25840284417F0C4FFDD
:1033100015F53E7014F014F8012809D141F2584017
:10332000284417F0BDFF002115F53E7014F0CEFEC5
:1033300041F25840284417F04BFD012804D141F2D6
:10334000584028440BF056FC15F51B7013F0F8FF9D
:1033500001280AD015F52F7013F0F2FF012803D1D0
:10336000052041F6E821685426E3002115F51B707D
:1033700014F0ACFE032041F6E8216854F4E741F272
:103380005840284417F024FD012825D115F5217057
:1033900013F0D6FF002805D141F25840284417F019
:1033A0007BFF04E041F25840284417F075FF0120EC
:1033B00041F6EC11685015F11C0013F0B1FFC0B2DA
:1033C00041F6F011685041F2584028440BF012FCCD
:1033D000042041F6E8216854EEE241F258402844C6
:1033E00017F0F6FC012828D141F6EC10285841F6D8
:1033F000F0116958884212D241F6EC102858401C4E
:1034000041F6EC11685041F6EC1028588DF8050093
:103410000DF1050115F1A00014F000FD08E041F2E6
:103420005840284417F02DFF022041F6E821685447
:1034300041F2584028440BF0DDFBBDE2012041F68B
:103440003861685415F5787014F0F5FC41F6486061
:10345000284480ED000B15F57A7014F0ECFC41F671
:103460005060284480ED000B15F57C7014F0E3FCEF
:1034700041F65860284480ED000B15F5806014F08B
:10348000DAFC41F68860284480ED000B15F5816078
:1034900014F0D1FC41F69060284480ED000B15F546
:1034A000846014F0C8FC15F5F55080ED000B012187
:1034B00041F2584028440BF073FC15F5F35080EDB1
:1034C000000B41F2B83028440BF094F915F5D751B0
:1034D00091ED003BB0EE438AF0EE638A14F016FDE6
:1034E00041EC120BB0EE483AF0EE683A41F69030FB
:1034F000284490ED001B15F5F35090ED000B2800CB
:1035000006F085F814F019FCDFF8141C16F093FE91
:10351000CD4916F0C9FF062041F6E82168544BE278
:1035200015F16C0013F00CFF012800F06E8115F509
:103530002F7013F005FF002800F0888115F5DA7070
:1035400014F079FCB0EE408AF0EE608A41F2B830B7
:1035500028440BF003F953EC182B51EC100B13F02B
:1035600021FD0BD041F2B83028440BF0F7F88DED77
:10357000460B46A915F5DA7014F083FC15F5DE70DC
:1035800014F0ADFC040041F2B83028440BF032F9DD
:1035900084420AD041F2B83028440BF02BF90D9048
:1035A0000DA915F5DE7014F0AAFD41F6B040285CB7
:1035B000002835D0002041F6B041685415F5E4519B
:1035C00041F2584028440CF08BFA012141F2584056
:1035D00028440BF0E5FB15F5F35080ED000B41F2AC
:1035E000B83028440BF006F915F5D75191ED003BA2
:1035F000B0EE438AF0EE638A14F088FC41EC120BC3
:10360000B0EE483AF0EE683A41F69030284490ED3A
:10361000001B15F5F35090ED000B280005F0F7FFA7
:1036200041F67940285C00282ED0002041F67941EF
:103630006854002141F2584028440BF0B1FB15F5C5
:10364000F35080ED000B41F2B83028440BF0D2F873
:1036500015F5D75191ED003BB0EE438AF0EE638A49
:1036600014F054FC41EC120BB0EE483AF0EE683A1C
:1036700041F69030284490ED001B15F5F35090ED85
:10368000000B280005F0C3FF15F5357013F058FE48
:10369000012811D1002115F5357014F017FD14F033
:1036A0004CFBDFF88C1D16F0C6FD674916F0FCFEDA
:1036B000072041F6E821685441F25840284417F0A9
:1036C00087FB012840F0DA8041F2584028440BF093
:1036D00091FA41F69030284490ED000B41F6686075
:1036E000284417F007FB8DED160B16A915F582601F
:1036F00014F0C7FBDDE9160191F0004141EC100B1D
:1037000015F5EF5017F07EF8B0EE408AF0EE608AC3
:10371000B0EE480AF0EE680A41F2B83028440AF0E8
:10372000E5FEB0EE480AF0EE680A41F6B0602844C3
:1037300017F0A1FA280006F0A3F88DED2E0B2EA9A4
:1037400015F5836014F09DFB41F6286005EB000140
:1037500015F57E7014F095FBB0EE480AF0EE680A9D
:1037600041F6C860284417F09FFD41F6C860284420
:1037700017F00AFE280006F083F88DED2C0B2CA91B
:1037800015F5856014F07DFB41F6C860284417F0FC
:1037900005FE280006F074F88DED2A0B2AA915F510
:1037A000866014F06EFB41F6C860284417F0ECFD0B
:1037B0008DED280B28A915F5876014F062FB41F602
:1037C000C860284417F0EAFD8DED260B26A915F5F3
:1037D000886014F056FB41F6C860284417F0DEFDFF
:1037E000B0EE408AF0EE608A15F58C6014F023FB91
:1037F00051EC180B53EC102B17F0FAFD39D30021C4
:1038000015F5387014F062FC38E0002115F16C00F9
:1038100014F05CFC002041F6E821685414F08DFAA5
:10382000DFF8A81C16F007FD074916F03DFE002042
:1038300041F6E811685400208DF8040001A915F143
:103840000C0014F0EBFA19E0D94D0508022041F6FE
:10385000E8216854002041F63861685414F06DFA8C
:10386000DFF8681C16F0E7FCDFF8641C16F01CFE9D
:1038700004E0012115F5387014F028FC9CE041F2B9
:10388000B83028440BF00AF8C0B2002872D09FED7F
:103890003A0B41F2B83028440AF0B2FE012141F25D
:1038A000584028440BF07CFA15F5F35080ED000BDE
:1038B00041F2B83028440AF09DFF15F5D75191ED3B
:1038C000003BB0EE438AF0EE638A14F01FFB41EC3C
:1038D000120BB0EE483AF0EE683A41F690302844C8
:1038E00090ED001B15F5F35090ED000B280005F04E
:1038F0008EFE41F62860284400220023C0E9002300
:1039000041F61060284400220023C0E9002341F65C
:103910000860284400220023C0E9002341F6186013
:10392000284400220023C0E9002341F670602844A7
:1039300000220023C0E9002341F6786028440022D9
:103940000023C0E9002341F6B06028440022002390
:10395000C0E9002341F6B860284400220023C0E9F2
:10396000002341F6C860284417F059FD082041F6AD
:10397000E821685420E000BF0000000000000000C3
:10398000B05D0508D45D05088C5D050841F2B830CE
:1039900028440AF083FFC0B200280DD014F0CDF9FE
:1039A000DFF8301B16F047FCDFF8241B16F07CFD17
:1039B000062041F6E821685405F009BC41F6E920EB
:1039C000285C002817D0022800F0A380C0F07F8078
:1039D000042800F02381C0F0EB80062800F0668107
:1039E000C0F04E81082800F0CA81C0F07E8109280D
:1039F00000F0E781F3E114F0A0F9DFF8D41A16F033
:103A000053FD14F09AF9DFF8D01A16F014FCDFF821
:103A1000C01A16F049FD14F090F9DFF8C01A16F03C
:103A20000AFCDFF8AC1A16F03FFD14F086F9DFF857
:103A3000A81A16F000FCDFF8981A16F035FD15F5F7
:103A4000D07013F06DFCC0B26421484341F6F81108
:103A5000685041F6F810285803280ED2032041F68A
:103A6000F811685041F6F81028588DF803000DF150
:103A7000030115F5D07014F0D1F915F11C0013F005
:103A80004FFC15F5D651087015F5037014F0D3F9F5
:103A900041F6F020284480ED000B15F5077014F076
:103AA000AFF941F68821685041F6882028580C90DB
:103AB0000CA810F0A3FECDE9440144A915F5D85097
:103AC00013F068F8012041F6E921685487E12800E5
:103AD00017F0B4FCC0B200281AD0012141F2D8601E
:103AE00028440AF03AFB012141F6B00028440AF0CC
:103AF00034FB002115F5CC500AF02FFB002141F6D4
:103B0000580028440AF086FA022041F6E921685458
:103B100065E1280017F092FCC0B2002847D00020D1
:103B200041F6F8216854002041F6EC11685015F573
:103B3000D05041F6F021294491ED000B80ED000BAF
:103B400041F6F8102858400817F0A8FC02000B00B6
:103B500015F5D050D0E9000117F0B0FC15F5D052A2
:103B6000C2E9000114F0E9F8DFF8741916F063FBFC
:103B700041F6F811695816F039FC14F0DEF8DFF858
:103B8000501916F091FC14F0D8F8DFF8581916F017
:103B900052FB15F5D05191ED000B17F000FDDFF849
:103BA000301916F081FC032041F6E921685416E132
:103BB00041F2B83028440AF071FEC0B200282CD07F
:103BC00015F5D05090ED000B41F2B83028440AF0C2
:103BD00017FD15F5D85012F0E5FF14F0AEF8DFF838
:103BE000F01816F061FCDFF8001916F024FB040051
:103BF00015F5077014F004F90100200016F0F6FB2B
:103C000014F09BF85AA116F016FBDFF8C41816F052
:103C10004BFC042041F6E9216854E0E015F5D8504A
:103C200012F0CBFFC0B200280CD141F2584028441A
:103C300017F0CEF8012804D141F2584028440AF088
:103C4000D9FFCCE015F5D85012F0B4FF41F6B040E2
:103C5000285C00280AD0002041F6B041685415F5D0
:103C6000E45141F2584028440BF03AFF41F25840E9
:103C7000284417F011FB062041F6E9216854E0E7DB
:103C800041F2B83028440AF009FEC0B200280CD036
:103C900015F5D05090ED000B41F2B83028440AF0F1
:103CA000AFFC062041F6E921685498E041F2B830B3
:103CB00028440AF0F3FDC0B2002808D041F2584071
:103CC000284417F085F8012801D1012000E00020E8
:103CD000C0B2002808D041F2584028440AF08AFFB8
:103CE000072041F6E921685479E041F25840284420
:103CF00017F06EF8012841D141F6F820285C401CED
:103D000015F5D651097888420BDA41F6F820285C7F
:103D1000401C41F6F8216854062041F6E921685418
:103D20002CE0002041F6F821685441F6EC102858A8
:103D3000401C41F6F811695888421BD241F6EC103C
:103D40002858401C41F6EC11685015F5D050D0E9C8
:103D500000230020DFF8941717F088FC15F5D052E7
:103D6000C2E90001052041F6E921685406E000BFE0
:103D700020630000082041F6E92168542FE0280064
:103D800017F05CFBC0B200281AD0002141F2D860C5
:103D900028440AF0E2F9002141F6B00028440AF074
:103DA000DCF9002115F5CC500AF0D7F9002141F6D5
:103DB000580028440AF02EF9092041F6E9216854F8
:103DC0000DE0280017F03AFBC0B2002807D0002011
:103DD00041F6E8116854002041F6E921685415F1D4
:103DE0006C0013F0ADFA012829D113F0A6FFDFF81B
:103DF000E81616F020FADFF8D81616F055FB13F087
:103E00009CFFDFF8EC1616F016FADFF8C41616F071
:103E10004BFB002115F16C0014F058F9002041F61D
:103E2000E9216854002041F6E811685400208DF81B
:103E300002000DF1020115F10C0013F0EFFF05F087
:103E4000C6B941F6EA10285C002800F09E800128DF
:103E500000F05483022800F07D83032800F0C38320
:103E6000042800F00784052800F04384062800F0A9
:103E70009484072800F00F85082800F0B1850928F0
:103E800000F0CA850A2800F057860B2800F0A386A8
:103E90000C2800F0B2860D2800F0BC860E2800F039
:103EA00075860F2800F08986102800F0E387112816
:103EB00001F00681122801F06A83132801F07A8349
:103EC000142801F02B84152801F08E84162801F0A7
:103ED000C085172801F0E985182801F026861928E1
:103EE00001F078861A2801F089861B2801F098864F
:103EF0001D2802F0FB801E2802F07E831F2802F09E
:103F00009283202802F0A383212802F0A68322288E
:103F100002F04684232802F0F386242802F0528718
:103F2000252802F06987262803F02E80272803F031
:103F3000C580282803F07F81292803F02F832A28B1
:103F400003F0F6832B2803F016842C2803F0218439
:103F50002D2803F042842E2803F053842F2803F0E9
:103F60005B84302803F02D85312803F05A863228EF
:103F700003F08786332803F0D886342805F04F8075
:103F8000352805F0C58005F0D7B813F0D6FEDFF868
:103F9000401516F089FA13F0D0FEDFF83C1516F044
:103FA0004AF9DFF82C1516F07FFA13F0C6FEDFF899
:103FB000441516F040F9DFF8181516F075FA13F0ED
:103FC000BCFEDFF8141516F036F9DFF8041516F00C
:103FD0006BFA13F0B2FEDFF8201517F003FC15F1B1
:103FE000B40013F028FF41F63820284480ED000B80
:103FF00015F1BC0013F01FFF41F63020284480ED7E
:10400000000B002041F62821685415F5FE7013F0CE
:10401000F7FE0B900BA812F02FFD41F678222A44F0
:10402000C2E9000115F56E7013F0EAFE0A900AA8C5
:1040300012F022FD15F5D452C2E9000141F67820B4
:104040002844D0E9002341F2B83028440AF0DEFBCE
:1040500041F2B830284417F0CEFB15F5017013F08B
:10406000CFFE099009A812F007FD41F670222A44FC
:10407000C2E9000141F670202844D0E9002341F252
:10408000D86028440AF081F841F670202844D0E92D
:10409000002315F5BA500AF078F841F6702028444C
:1040A000D0E9002341F2A870284409F0C5FF41F689
:1040B00070202844D0E9002315F5C05009F0BCFF5A
:1040C00041F670202844D0E9002341F658002844E6
:1040D00009F0B2FF41F670202844D0E9002341F6F0
:1040E000B00028440AF051F841F670202844D0E985
:1040F000002341F6181028440AF047F841F67020D2
:104100002844D0E9002315F5CC500AF03EF815F507
:10411000157013F015F9002804D0012003E000BF4A
:104120003CB10508002041F6D121685441F6D12068
:10413000295C15F5656013F0C9FF41F6D120285CB4
:1041400000281BD0012141F2D860284413F0D4FF8D
:10415000012115F5BA5013F0CFFF012141F6B0004F
:10416000284413F0C9FF012141F61810284413F028
:10417000C3FF012115F5CC5013F0BEFF41F67020AE
:1041800005EB000141F6C850284412F003FD15F577
:10419000D07013F0C5F8C0B241F6F811685015F5AB
:1041A000687013F09CFE41F6FC11685015F56A70BA
:1041B00013F095FE41F6C831685015F56C7013F098
:1041C0008EFE41F6CC31685015F5687013F087FE0D
:1041D00041F6FC11695881420FD041F6FC1005EB05
:1041E000000115F5687013F08AFF41F6FC1005EB2D
:1041F000000105F6B86013F082FF15F51E7013F08C
:104200009FF8002801D0012000E0002041F6B031E5
:10421000685415F5FC5000220023C0E9002341F644
:10422000C420284417F0EBFA41F69020284417F0F8
:1042300001FB41F69C20284417F0FCFA15F11C0004
:1042400013F06EF815F5D651087015F5D6500078B4
:10425000022826DB15F5D65115F1A00013F0DEFD7E
:1042600013F06BFD9C4915F0E6FF994916F01CF917
:1042700013F063FDDFF8F81B15F0DDFF13F05DFDB3
:1042800015F5D651097817F0F0FA914916F00CF9A6
:1042900013F053FD904915F0CEFF8D4916F004F947
:1042A00008E001208DF801000DF1010115F1A000D9
:1042B00013F0B4FD15F1600013F042F8002801D0AE
:1042C000012000E0002041F6D021685441F6D020C2
:1042D000295C15F1600013F0F9FE41F258402844C2
:1042E00017F036FB41F6B84005EB000141F25840AB
:1042F00028440BF0F5FB13F020FDDFF8501E15F0FD
:104300009AFF734916F0D0F815F5077013F078FD91
:1043100041F6882168504FF47A70089008A812F08E
:10432000ABFBCDE9420142A915F5D85012F032FCA1
:10433000002041F618316850002015F5D951086069
:104340000020059005A915F50F7013F0F0FD41F65A
:104350002830284408F094FC41F68820295841F67A
:104360002830284408F0E0FC15F5C67012F0E8FF8C
:10437000002801D0012000E0002041F66831685497
:1043800015F5DD5000220023C0E9002341F6A830D6
:10439000284400220023C0E9002341F6D4302844F9
:1043A00017F0DAFA002041F6C4316850002041F6D7
:1043B000F031685415F5707013F03DFD41F6F8309A
:1043C000284480ED000B15F5727013F034FD15F5DF
:1043D000E05080ED000B41F610202844002200231D
:1043E000C0E90023012141F6B070284417F0CFFA4C
:1043F00015F52D7012F094FF0100C9B2280008F0E5
:1044000015FC41F6F411685413F097FCDFF8401DD9
:1044100015F011FF41F6F411695C17F026FA41F628
:10442000F410285C002805D0022817D00CD31FE018
:1044300028A6050813F081FCDFF8181D15F0FBFE17
:10444000234916F031F81CE013F077FCDFF8081D63
:1044500015F0F1FE1E4916F027F812E013F06DFC7E
:10446000DFF8F81C15F0E7FE194916F01DF808E012
:1044700013F063FCDFF8E81C15F0DDFE144916F0BC
:1044800013F841F62870284417F087FA012042F605
:104490007001685442F67000295C41F628302844C7
:1044A00008F0E7FC142141F62830284408F039FDD3
:1044B000002041F608416854002041F60941685443
:1044C000012041F6EA11685404F036BE44B10508F3
:1044D000D94D050834A605088C5D0508F85D05086A
:1044E000649E0508888A05084CB105080000F03F65
:1044F0001C5E0508405E0508C1970508280016F0F7
:104500009DFFC0B2002823D041F6D020285C0028AF
:104510000FD0002141F2A870284409F07BFD41F63C
:104520009070284490ED000B41F2584028440BF065
:10453000B8FE002115F5CC5009F00FFE002141F620
:104540005800284409F066FD022041F6EA1168543B
:1045500004F0F2BD280016F071FFC0B2002840D070
:10456000012041F65031685441F65830284412F089
:1045700057FB41F62820285C002802D0012816D0DD
:104580002BE013F0DAFBDFF8DC1B15F054FEDFF84C
:10459000D81B15F089FF012115F5BA5009F0DDFD92
:1045A000012141F61810284409F0D7FD15E013F059
:1045B000C4FBDFF8B81B15F03EFEDFF8AC1B15F0AE
:1045C00073FF012141F2D860284409F0C6FD0121A2
:1045D00041F6B000284409F0C0FD032041F6EA117D
:1045E000685404F0A9BD280016F028FFC0B20028C6
:1045F0003ED041F6C850284412F0D4FA15F50170A7
:1046000013F0FEFB00EE100AB8EE400A10EE100A9E
:1046100017F0DEF9DFF8582BDFF8583B12F0E4FB17
:1046200017F0FAF908EE100A13F087FB04000221D4
:1046300018A813F0C9FBDDE91801CDE9A401A4A96C
:10464000200013F0CDFB13F078FBDFF82C1B15F0E6
:10465000F2FDB0EE480A17F013FADAA115F0EBFDFF
:10466000DFF8041B15F020FF042041F6EA1168541E
:1046700004F062BD41F6C850284412F09EFAC0B260
:10468000002834D013F059FBDFF8F01A15F0D3FDF1
:10469000DFF8D41A15F008FF41F6F410285C012861
:1046A00004D1052041F6EA11685420E041F6C42007
:1046B000284417F04AFA002815D141F62820285C32
:1046C000002810D142F67800284417F04EFA00284E
:1046D00004D1142041F6EA11685408E0082041F69C
:1046E000EA11685403E0172041F6EA11685404F017
:1046F00023BD41F2B83028440AF0D0F8C0B20028F7
:1047000049D041F62820285C002802D0012812D088
:104710002AE041F63020284490ED001B41F6382075
:10472000284490ED000B0DF017FB41F618202844AB
:1047300080ED000B18E041F6D430284417F017FA4A
:10474000401E010041F6D430284417F020FA90EDC5
:10475000040B17F029FA51EC100B91F0004141F6CF
:1047600018222A44C2E9000115F5D450D0E90023EB
:1047700041F2B83028440AF049F841F6182028449C
:1047800090ED000B41F2B830284409F039FF0620C3
:1047900041F6EA11685404F0CFBC41F2B830284425
:1047A0000AF07CF8C0B2002808D041F258402844F2
:1047B00016F00EFB012801D1012000E00020C0B25C
:1047C000002866D041F6484005EB00010DF5B160C8
:1047D0000AF05EF901208DF8A9050DF5B16141F2ED
:1047E000584028440BF07CF99FEDCB8B002141F21F
:1047F000584028440AF080FA53EC182B51EC100B67
:1048000012F0F2FA17F004FACDF88C050DF5B1614B
:1048100041F2584028440BF063F913F08EFADFF8A8
:10482000DC1C15F008FD13F088FADFF83C1915F0D0
:104830003BFE0DF5B162012141F2584028440BF0D6
:10484000ABFA13F07AFADFF8B81C15F0F4FC13F0A9
:1048500074FADFF8B01C16F0C5FFDFF8AC1C16F0D8
:10486000C1FFB0EE480AF0EE680A16F098FEA8A163
:1048700015F0E1FC13F061FADFF8EC1815F014FE06
:1048800041F2584028440AF0B5F9072041F6EA11F0
:10489000685404F051BC41F25840284416F098FA8C
:1048A000012840F09B8040F6B801694441F258402D
:1048B00028440BF0D7FC41F6903028444DF804CD45
:1048C0000DF5006C9CED2F0B5DF804CB80ED000B1B
:1048D00015F5FC504DF804CD0DF5006C9CED310B39
:1048E0005DF804CB80ED000B13F027FADFF8141C01
:1048F00016F078FFDFF8101C16F074FF040000219A
:1049000018A813F061FADDE91801CDE9A201A2A906
:10491000200013F065FA13F010FADFF8F01B15F021
:104920008AFC13F00AFA41F61821294491ED000B94
:1049300016F035FEDFF8301815F0B6FD13F0FDF96E
:104940000400072118A813F03FFADDE91801CDE9AA
:10495000A001A0A9200013F043FA13F0EEF9DFF84C
:10496000B01B15F068FC13F0E8F941F690312944CA
:1049700091ED000B16F013FE13F0DFF965A115F0B1
:104980005AFCDFF8E41715F08FFD13F0D6F9DFF8C5
:10499000841B15F050FC13F0D0F9040015F5FC5001
:1049A000D0E900230020DFF8701B12F01DFA41EC63
:1049B000100B200016F0F3FD13F0BFF9DFF85C1BBD
:1049C00002E000BF2063000015F035FCDFF8981707
:1049D00015F06AFD102041F6EA11685404F0ACBBF2
:1049E00041F25840284416F0F3F9012812D113F08F
:1049F000A4F9DFF82C1B15F01EFCDFF86C1715F07E
:104A000053FD41F2584028440AF0F4F8092041F6D9
:104A1000EA11685404F090BB41F25840284416F063
:104A2000D7F9012840F0868040F67801694441F2C8
:104A3000584028440BF016FC4DF804CD0DF5006CE1
:104A40009CED1F8B5DF804CB13F077F90400072170
:104A500018A813F0B9F9DDE91801CDE99E019EA966
:104A6000200013F0BDF913F068F9DFF8B81A15F05B
:104A7000E2FB13F062F9B0EE480AF0EE680A16F0B5
:104A80008EFD13F05AF923A115F0D5FBDFF8D816E7
:104A900015F00AFD41F6F410285C01280ED113F040
:104AA0004CF9DFF8841A15F0C6FBDFF8BC1615F0D8
:104AB000FBFC0A2041F6EA1168543BE09DF8B0087F
:104AC000002814D013F039F9DFF8601A15F0B3FBA1
:104AD00013F033F9DFF8581A15F0ADFBDFF888163C
:104AE00015F0E2FC0A2041F6EA11685422E013F0C6
:104AF00024F9DFF8401A15F09EFB13F01EF9DFF8D9
:104B0000381A15F098FB13F018F9DFF8301A07E09F
:104B100020F1000020C200000000000000003E4024
:104B200015F089FBDFF8401615F0BEFC142041F6A5
:104B3000EA11685404F000BB41F2B830284416F082
:104B40005AFE15F5D05041F61821294491ED000B7D
:104B500080ED000B41F60820284415F5D15191ED68
:104B6000000B80ED000B002041F6EC116850132083
:104B700041F6F011685041F2B830284409F05AFC6F
:104B80000E2041F6EA11685404F0D6BA41F2B8306A
:104B9000284409F083FEC0B200280CD015F5D0508F
:104BA00090ED000B41F2B830284409F029FD0F20A8
:104BB00041F6EA11685404F0BFBA41F2B830284413
:104BC00009F06CFEC0B2002803D00B2041F6EA11B8
:104BD000685404F0B1BA41F25840284416F0F8F88D
:104BE000012808D141F2584028440AF003F80C206B
:104BF00041F6EA11685404F09FBA41F25840284443
:104C000016F0E6F8012803D10D2041F6EA116854A8
:104C100004F092BA40F63801694441F25840284401
:104C20000BF020FB41F6903028444DF804CD0DF5F3
:104C3000006C9CED0F0B5DF804CB80ED000B41F692
:104C4000EC102858401CCDF8600515F5D050D0E97F
:104C5000000113F08DFACDF8640541F608202844D0
:104C6000D0E9000116F0D4FFCDF8680541F6903088
:104C7000284490ED000B4DF804CD0DF5806C8CEDC3
:104C80005D0B5DF804CB0DF50063D3E91023002024
:104C9000DFF8841812F0A8F841EC100B51EC100B5F
:104CA00031F0004141EC100B4DF804CD0DF5806C56
:104CB0008CED5F0B5DF804CBDDF86008CDF8800566
:104CC0000DF5AC600CF071FE9DF87008002807D05F
:104CD00041F6EC10285841F6F011695888422AD361
:104CE00041F6F410285C012821D141F65170285C6E
:104CF00000280DD115F5D05090ED001B41F69030F5
:104D0000284490ED000B41F62870284416F094FFDB
:104D100041F65170285C00280DD041F628702844D7
:104D200016F09EFF012041F60841685403E001207F
:104D300041F60841685441F60840285C00284ED0EE
:104D400041F2B830284409F055FD13F0DFF841F680
:104D500010222A44C2E90001012041F608416854AA
:104D600012F0EBFFDFF8D01715F065FA12F0E5FF4F
:104D7000DFF8CC1715F05FFADFF8EC1315F094FBB1
:104D800012F0DBFF0400002118A813F01DF8DDE984
:104D90001801CDE99C019CA9200013F021F812F024
:104DA000CCFFDFF8A01715F046FA41F61021294490
:104DB00091ED000B16F0F3FBDFF8AC1315F074FB6C
:104DC00041F6F410285C012804D1102041F6EA11C4
:104DD00068544BE0142041F6EA11685446E041F66D
:104DE000EC102858401C41F6EC11685041F6903008
:104DF0002844D0E900010022002316F08DFF0FD2D5
:104E000015F5D050D0E9002341F608202844D0E918
:104E1000000116F02BFC15F5D052C2E900010EE09E
:104E200015F5D050D0E9000141F608222A44D2E914
:104E3000002316F043FB15F5D052C2E9000141F6FC
:104E400008202844D0E900230020DFF85C1E11F080
:104E5000CBFF41EC100B16F079FF41F608202844F7
:104E600080ED000B0E2041F6EA11685404F064B99D
:104E70009C8A050841F62820285C00280ED141F6BE
:104E80000940285C002809D115F5D85011F08AFE98
:104E900041F68820285841F68C21685015F5FB50C2
:104EA00011F080FE41F6484005EB000141F2584008
:104EB00028440AF015FE12F040FFDFF8F01D15F04F
:104EC000BAF9A94915F0F0FA002141F258402844F6
:104ED0000AF023F8C0B200280AD141F6782028440D
:104EE000D0E9002341F2B830284409F08FFC11E0EA
:104EF000002141F25840284409F052FF8DED400B4B
:104F000040A816F057FF02000B0041F2B8302844C9
:104F100009F07CFC41F25840284409F06BFE002067
:104F200041F6EC11685015F5D05041F6182129448E
:104F300091ED000B80ED000B41F6C860284416F09F
:104F40006EFA15F5767012F076FF15F5F25080EDD9
:104F5000000B15F5787012F06EFF41F6486028449A
:104F600080ED000B15F57A7012F065FF41F6506088
:104F7000284480ED000B15F57C7012F05CFF41F6C3
:104F80005860284480ED000B15F5806012F053FF47
:104F900041F68860284480ED000B15F5816012F021
:104FA0004AFF41F69060284480ED000B15F58460BF
:104FB00012F041FF15F5F55080ED000B002141F294
:104FC0005840284409F0ECFE15F5F35080ED000B35
:104FD000002141F25840284409F09FFFC0B2002848
:104FE0002AD1DFF8CC0CD0E9000116F005FF06004D
:104FF0000F0041F678202844D0E9000116F0FCFEAD
:1050000032003B0011F0F0FE06000F00DFF8A40CA8
:10501000D0E9000116F0F0FE02000B00300039006C
:1050200011F0D0FF15F5F352D2E9002316F01EFB64
:1050300015F5F352C2E9000115F5D75090ED003B8C
:1050400041F61820284490ED002B41F6903028447A
:1050500090ED001B15F5F35090ED000B280004F0C7
:10506000D6FA15F58A6012F05BF9C0B20CF08BFF2E
:1050700041F678716854280008F0D3F841F64840AA
:1050800005EB0002012141F2584028440AF084FE59
:1050900012F053FEDFF8201C15F0CDF8324915F060
:1050A00003FA12F04AFEDFF8141C15F0C4F82E497A
:1050B00015F0FAF9112041F6EA11685404F03CB8F1
:1050C00041F60940285C00282CD115F5D85011F084
:1050D00074FDC0B2002825D041F68C202858002845
:1050E00013D015F5D85011F05DFD41F68C202858ED
:1050F000401E41F68C21685041F68C2005EB0001E2
:1051000015F5077012F013FF0CE0012041F609417C
:10511000685412F012FEDFF8A81B15F08CF8124943
:1051200015F0C2F90024002141F25840284409F04A
:10513000F4FEC0B2002823D041F25840284409F0C0
:10514000DBFEC0B200281BD001201AE01055050874
:1051500040A605084CA6050854B105086C7E050854
:105160005CB10508645E0508D94D0508885E050830
:10517000FCA9F1D24D62503F58A6050864A6050867
:105180000020C0B2002800D00124002141F2584084
:10519000284409F0C2FEC0B2002808D141F25840AC
:1051A000284415F015FE012801D1012000E000205F
:1051B000C0B2002800D00124E4B2002C00F0E58148
:1051C0000DF5FF6141F2584028440BF04BF841F6D1
:1051D000903028444DF804CD0DF5806C9CEDFF0B0C
:1051E0005DF804CB80ED000B41F67940285C002887
:1051F00004D141F67840285C00283BD0002041F6DD
:1052000079416854002041F67841685441F648409D
:1052100005EB000141F2584028440AF061FC0021EE
:1052200041F25840284409F0BBFD15F5F35080EDDC
:10523000000B15F5D75090ED003B15F5D05090EDD3
:10524000002B41F69030284490ED001B15F5F350EB
:1052500090ED000B280004F0DAF9280007F0E1FFD8
:1052600041F6484005EB0002012141F25840284434
:105270000AF092FD41F69030284490ED000B41F683
:105280006860284415F036FD8DED140B14A915F552
:10529000826012F0F6FDDDE9140191F0004141EC6D
:1052A000100B15F5EF5015F0ADFA15F5D05080ED57
:1052B000000B15F5D05090ED000B41F6B06028447E
:1052C00015F0D9FC8DED3E0B3EA915F5836012F06B
:1052D000D8FD41F6286005EB000115F57E7012F04F
:1052E000D0FD15F5D05090ED000B41F6C860284474
:1052F00015F0DAFF41F6C860284416F045F88DED48
:10530000240B24A915F5856012F0BBFD41F6C86099
:10531000284416F043F88DED220B22A915F586607E
:1053200012F0AFFD41F6C860284416F02DF82800B1
:1053300004F010FA8DED200B20A915F5876012F00E
:10534000A0FD41F6C860284416F028F8280004F0B3
:1053500001FA8DED1E0B1EA915F5886012F091FD66
:1053600015F5D050D0E9000112F002FF040015F548
:105370004D7011F0E5FF00283ED041F6EC102858A2
:10538000BA90BB9415F5D05090ED000B8DEDBC0B91
:1053900041F6C860284415F0F7FF8DEDBE0B41F6CD
:1053A0009030284490ED000B8DEDC00B0DF500639F
:1053B000D3E900230020584911F016FD41EC100BF1
:1053C00051EC100B31F0004141EC100B8DEDC20B94
:1053D000DDF82008C49041F6C860284415F0DEFFCF
:1053E0008DEDC60B41F6C860284416F02EFD8DF8F1
:1053F0002003BAA80CF08EFB41F6EC102858401C94
:1054000041F6EC11685041F67870285C8DF818056B
:10541000002000210DF5806CCCE9480141F6C86000
:10542000284415F0BBFF4DF804CD0DF5806C8CEDD4
:105430004B0B5DF804CB15F58C6012F0FCFC4DF8BD
:1054400004CD0DF5806C8CED4D0B5DF804CB41F671
:105450009030284490ED000B4DF804CD0DF5806C94
:105460008CED4F0B5DF804CB41F61870284490ED9D
:10547000000B4DF804CD0DF5806C8CED510B5DF8F3
:1054800004CB4DF804CD0DF5006C9CED010B5DF8DF
:1054900004CB4DF804CD0DF5806C8CED530B5DF80D
:1054A00004CB15F5FC5090ED000B4DF804CD0DF537
:1054B000806C8CED550B5DF804CB15F5FB5011F0AD
:1054C0007CFB8DF8580541F6C860284416F0BDFCF9
:1054D0008DF8590541F60940285C8DF85A050DF5FF
:1054E000A3600CF04FFEC0B200282DD041F6094059
:1054F000285C002828D0012027E000BF3855050887
:10550000847E0508C19705089F8705089C7E0508CD
:10551000DC730508749E050880842E4164B105087B
:10552000B46B0508849E0508AC5E0508B08A0508C2
:10553000D05E0508B47E0508F45E0508949E050853
:1055400070A605087CA605080020C0B200280ED071
:1055500041F6C860284415F017FF41F61020284492
:1055600080ED000B132041F6EA1168540DE0200095
:1055700012F0CCFC41EC100B41F2B830284409F099
:105580003FF8122041F6EA11685403F0D5BD41F20C
:10559000B830284409F082F9C0B2002808D041F29E
:1055A0005840284409F026FB112041F6EA116854BE
:1055B00003F0C2BD41F62820285C8DF8B80241F600
:1055C0001820284490ED000B8DEDB00B41F6102013
:1055D000284490ED000B8DEDB20B15F5FC5090EDCD
:1055E000000B8DEDB40B41F6C860284415F0D6FED3
:1055F0008DEDB60B41F6EC102858B890AEA941F6E7
:10560000D430284416F035FC41F6C4302858401CEC
:1056100041F6C431685012F090FB0400032118A831
:1056200012F0D2FBDDE91801CDE99A019AA9200018
:1056300012F0D6FB12F081FBDFF8881B14F0FBFDA3
:10564000DFF8901B14F030FF12F077FBDFF8781BC7
:1056500014F0F1FD12F071FB9DEDB20B15F09FFF00
:10566000DFF8701B14F020FF12F067FBDFF85C1B03
:1056700014F0E1FD41F6EC11695814F0B7FEDFF8C3
:10568000541B14F011FF41F62820285C00280ED18D
:1056900041F6502028449DEDB20B80ED000B41F601
:1056A000582028449DEDB00B80ED000B0CE015F563
:1056B000D3509DEDB20B80ED000B41F668202844DD
:1056C0009DEDB00B80ED000B41F6D020285C00284A
:1056D0000FD1012141F2A870284408F09BFC41F64B
:1056E0008870284490ED000B41F2584028440AF09D
:1056F000D8FD41F25840284416F02AF941F67820A6
:105700002844D0E9002341F2B830284409F07EF85B
:10571000312041F6EA11685403F00EBD41F25840C1
:10572000284415F055FB01285CD141F6C4202844DB
:1057300016F00BFA002851D141F62820285C0028E9
:105740004CD1002041F65031685415F5D85011F075
:1057500029FA41F68820285841F68C21685012F029
:10576000ECFADFF8701A14F09FFEDFF81C1D14F03D
:1057700062FD12F0E2FA040015F5077012F040FB2A
:105780000100200014F032FEE2A114F054FDDFF815
:10579000441A14F089FE41F25840284415F071FD76
:1057A00041F2B830284416F026F8022042F6700183
:1057B000685442F67000295C41F62830284407F00E
:1057C00058FB41F6BC40295842F67800284407F0BF
:1057D00027FC152041F6EA11685403E0172041F632
:1057E000EA11685403F0A8BC15F5D85011F0E5F99A
:1057F000C0B200280DD141F25840284415F0E8FA13
:10580000012804D141F25840284409F0F3F903F08B
:1058100093BC41F68C20285800282CD015F5D85080
:1058200011F0C0F941F68C202858401E41F68C2119
:10583000685012F082FAB8A114F0FDFCDFF8541C95
:1058400014F032FE41F68C2028583C21B0FBF1F2D6
:1058500001FB1200002805D112F06FFADFF874196D
:1058600014F022FE41F68C2005EB000115F50770BF
:1058700012F05DFBCBE7012041F60941685412F0BC
:105880005CFADFF8501914F00FFE41F6882005EBA2
:10589000000115F5077012F04AFB032042F6700173
:1058A000685442F67000295C41F62830284407F01D
:1058B000E0FA42F67800284407F0D1FB42F678007F
:1058C000284407F0DFFBB0EE408AF0EE608A12F069
:1058D00034FA0400032118A812F076FADDE9180161
:1058E000CDE9980198A9200012F07AFA12F025FA71
:1058F000DFF8A41B14F09FFC040053EC182B0020CD
:10590000DFF8981B11F070FA41EC100B200015F035
:1059100046FE12F012FADFF8881B14F08CFCDFF858
:10592000B41814F0C1FD42F67800284416F01DF9B1
:10593000002800F0898012F000FADFF8681B14F0EC
:105940007AFCDFF8901814F0AFFD42F67800284496
:1059500007F0A5FBB0EE408AF0EE608A42F67800D0
:10596000284407F092FBB0EE409AF0EE609A41F6C0
:10597000B84005EB000141F6E840284409F088F8FA
:1059800015F5E95141F65050284409F081F815F514
:10599000E750D0E9000153EC192B15F029FD09D28D
:1059A00041F61050284480ED009B41F67850284481
:1059B00080ED008B12F0C1F9DFF8EC1A14F03BFC1B
:1059C00012F0BBF9040041F610502844D0E900233E
:1059D0000020DFF8C81A11F007FA41EC100B200084
:1059E00015F0DDFD12F0A9F9DFF8B41A14F023FC6C
:1059F000DFF8E01714F058FD12F09FF9DFF8AC1A49
:105A000014F019FC12F099F9040041F6785028447A
:105A1000D0E900230020DFF8841A11F0E5F941EC09
:105A2000100B200015F0BBFD12F087F9DFF8701A9B
:105A300014F001FCDFF89C1714F036FD12F07DF92C
:105A4000DFF8901714F030FD162041F6EA11685483
:105A5000DDE641F25840284415F0BAF9012822D178
:105A6000012041F65031685441F65830284411F075
:105A7000D7F815F5217011F063FC002805D141F22B
:105A80005840284415F0FDFB04E041F258402844FA
:105A900015F002FC41F2B830284415F0ACFE172096
:105AA00041F6EA11685403F047BB41F258402844DC
:105AB00015F08EF901281DD142F67800284416F021
:105AC00054F8002818D141F6B84005EB000141F226
:105AD000584028440AF004F812F02FF9DFF8D019E2
