:020000040800F2
:10000000F0BC0120E9300608B5F50108C5F5010886
:10001000D5F50108E5F50108F5F501080000000037
:1000200000000000000000000000000005F60108CC
:1000300015F601080000000025F6010835F6010854
:10004000C1F90108C1F90108C1F90108C1F90108A4
:10005000C1F90108C1F9010845F60108C1F9010813
:10006000C1F9010861F60108C1F90108C1F90108E7
:10007000C1F90108C1F90108C1F90108C1F9010874
:10008000C1F90108C1F90108C1F90108C1F9010864
:10009000C1F90108C1F90108C1F901087FF6010899
:1000A000C1F9010817F70108C1F90108C1F90108F0
:1000B000C1F9010857F70108C1F90108C1F90108A0
:1000C000C1F90108C1F90108C1F90108C1F9010824
:1000D000C1F90108E1F80108F1F8010801F9010886
:1000E00067F70108C1F90108C1F9010811F8010811
:1000F00043F80108C1F9010877F80108C1F90108BE
:10010000C1F9010811F90108C1F90108C1F9010893
:1001100021F9010831F90108C1F90108C1F9010803
:1001200041F9010851F9010861F9010871F9010863
:10013000C1F90108C1F90108C1F90108C1F90108B3
:10014000C1F90108C1F90108C1F9010891F90108D3
:10015000C1F9010881F90108C1F90108A1F90108F3
:10016000C1F90108C1F90108C1F90108C1F9010883
:10017000C1F90108B1F90108C1F90108C1F9010883
:10018000C1F9010880B516480078002806D1002181
:1001900014480AF07AFB12480121017012480078D5
:1001A000002806D1002111480AF06FFB0E480121FA
:1001B00001700F480078002806D100210D480AF090
:1001C00064FB0B48012101700B480078002806D120
:1001D00000210A480AF059FB07480121017001BDBE
:1001E0000B900020108F00200C900020188F002012
:1001F0000D900020148F00200E9000200C8F002006
:1002000070B52DED048BC0B00400216000230022E6
:100210000021201D0AF03BFB002214F50361201D84
:100220000AF08AFF8208206810F1A00114F503602B
:100230000BF06BFE01201D901DA80CF071F9CDE9AB
:1002400004014020029000200190012000904FF412
:100250008053206810F1D802206800F2283104F69B
:10026000F8000DF06CFD0023002204F6F80104F6FE
:1002700058200DF0B7FD04F6582204F6F80104F6F4
:10028000C86007F00BFD206800F27810009020682D
:1002900000F26813206800F25812012114F56D6015
:1002A0000EF072F814F572600EF098FA2068D0F82B
:1002B000AC312068B0F9AA212068B0F9A81114F572
:1002C00077600EF0B6FB04F6B8700EF027FD04F66A
:1002D000D4700EF045FD14F57E600EF041FD04F67D
:1002E000EC700EF03DFD04F6F8700EF043FD0020BA
:1002F0000290206800F24C200190206800F23C201F
:100300000090206800F22C23206800F21C22206854
:1003100000F2FC2104F5805088300EF013FE04F545
:100320008051883104F58050D0300FF037FA2068C2
:1003300000F25433206800F2CC12206800F2D02181
:1003400004F5885070300FF0CBFD64201C901CA881
:1003500012F0C8FDCDE9240124A904F59850B83065
:1003600012F07FFE4FF4FA701B901BA812F0BAFD3A
:10037000CDE9220122A904F59850C83012F071FE8F
:100380004FF47A701A901AA812F0ACFDCDE9200152
:1003900020A904F59850D83012F022FE41F2F03036
:1003A00000210155DFF8681D38A812F03BFF6420DA
:1003B000199019A812F096FD00220492CDE90201CD
:1003C0000020009038AB206800F27C22206800F208
:1003D0008C2104F59850F8300FF092F838A812F0FC
:1003E00031FFDFF8301D30A812F01CFF6420189098
:1003F00018A812F077FD00220492CDE90201002036
:10040000009030AB206800F29C22206800F2AC2102
:1004100014F5A3500FF074F830A812F013FFDFF8B2
:10042000F81C28A812F0FEFE02000123206800F24A
:10043000BC2104F5A050C8300EF0D0FF28A812F05F
:1004400001FF14F5A9500021017041F22150002153
:10045000015541F222500021015541F22450002162
:10046000015141F228501421015141F22C50022136
:10047000015541F230500321015141F23450012124
:10048000015104F5A850383000220023C0E90023B0
:1004900014F5AA5000220023C0E9002304F5A85057
:1004A000483000220023C0E9002304F5A850503052
:1004B00000220023C0E9002312259FED1A8B2E0095
:1004C000002D00D576429FED199B07E051EC180BEB
:1004D00053EC182B12F0CAFE41EC180B3000C00789
:1004E00007D551EC190B53EC182B12F0BFFE41EC61
:1004F000190B7608002EE9D1002D1FD553EC192BCE
:100500000020002112F08CFF02D19FED0A9B15E024
:100510000020DFF8081C53EC192B12F091FF41EC7E
:10052000190B0BE00000000000000040000000007C
:100530000000F03F000000000000F07F04F5A8502C
:10054000583053EC192BC0E9002314F5AB500021AF
:10055000017004F5A85068300022DFF8C03BC0E904
:10056000002304F5A85070300022DFF8B03BC0E94A
:10057000002304F5A850783000220023C0E90023AE
:1005800014F5AC5000220023C0E9002304F5A85064
:10059000883000220023C0E9002304F5A8509030E1
:1005A00000220023C0E9002304F5A850983000225F
:1005B0000023C0E9002314F5AD5000220023C0E958
:1005C00000236420179017A812F08CFC04F5A852A1
:1005D000A832C2E900016420169016A812F082FC2D
:1005E00004F5A852B032C2E900016520159015A8A3
:1005F00012F078FC04F5A852B832C2E9000114F5F3
:10060000AE500521016004F5A850C83013F03BF846
:1006100004F5A850D83013F036F804F5A850E830A7
:1006200000220023C0E9002304F5A850F030002286
:100630000023C0E9002304F5A850F830002200236D
:10064000C0E9002314F5B0500121017004F5B05049
:10065000001D13F028F841F214600021015541F209
:1006600015600021015504F5B05018300022002318
:10067000C0E9002314F5B1500021017041F221605E
:100680000021015504F5B050283000220023C0E9B4
:10069000002341F2306000210155002013904FF4F7
:1006A0007A70149014AA13A904F5B050383012F0DF
:1006B00067FC41F250600021015141F25460002179
:1006C000015141F258600021015141F25C6000216A
:1006D000015114F5B350002101704FF47A7012905B
:1006E00012A812F0FFFBCDE91E011EA904F5B050BF
:1006F000683012F0B6FC41F278600021015504F533
:10070000B050983000220023C0E9002314F5B55002
:1007100000220023C0E9002304F5B050A8300022D5
:100720000023C0E9002341F2B0600021015504F527
:10073000B050B83000220023C0E9002314F5B650B1
:1007400000220023C0E9002341F2C86000210155C6
:1007500004F5B050D03000220023C0E9002341F25C
:10076000D8600021015141F2DC600021015114F5F3
:10077000B7500121016041F2E4600521015141F2CD
:10078000E8600021015104F5B050EC3012F09BFFFD
:1007900004F5B050FC3012F076FF41F20C700221EB
:1007A000015141F210700021015504F5B850183084
:1007B0000022DFF86839C0E9002314F5B95000229F
:1007C000DFF85839C0E9002341F258700021015583
:1007D00041F290700021015541F2C870002101558D
:1007E00014F5C0500021017041F638000021015578
:1007F00004F5A851A83104F5C050783012F0F0FB90
:10080000206800F2C01104F5C05090300FF0D4FA07
:10081000002104F5C050D83012F065FF04F5C05037
:10082000DC3012F0E3FF41F6E400002101552068BE
:1008300010F1E80104F5C050E83010F08FFE41F6E9
:1008400068100021015504F5C850703000220023C3
:10085000C0E9002304F5C850783000220023C0E925
:10086000002314F5CC5000220023C0E9002304F536
:10087000C850A83000220023C0E9002304F5C85066
:10088000B03000220023C0E900236420119011A899
:1008900012F028FB04F5C852B832C2E9000114F581
:1008A000CE5000220023C0E9002304F6444013F098
:1008B00089F8050004F6444013F084F8020029008A
:1008C00014F5CF5013F08DF814F5D1500022002309
:1008D000C0E9002304F5D050283000220023C0E9ED
:1008E000002304F5D050303000220023C0E900235B
:1008F00004F5D0503830DFF8A42CDFF8A43CC0E970
:10090000002314F5D2500022DFF81038C0E900238C
:1009100004F5D050483000220023C0E9002304F53C
:10092000D05050300022DFF8F437C0E9002341F600
:1009300058200121015141F65C204FF47A71015198
:1009400004F2AC70109004F65C600F9004F2A47096
:100950000E9004F654600D9004F29C700C9004F21A
:1009600094700B9004F64C600A9004F28C7009901D
:1009700004F28470089004F27C70079004F27470A2
:10098000069004F26C70059004F26470049004F216
:100990005C70039004F25470029004F24C70019069
:1009A000206800F2EC300090206800F2DC33206810
:1009B00000F2CC32206800F2BC3114F5D35010F0B4
:1009C0009FFF04F5E850B0300022DFF85037C0E94F
:1009D000002304F5E850B830DFF8C02BDFF8C43B43
:1009E000C0E9002314F5EE500022DFF83037C0E9EB
:1009F000002304F5E850C83000220023C0E900239A
:100A000004F5E850D0300022DFF89C3BC0E9002319
:100A10009FED871B9FED880B04F25C7104F5E85095
:100A2000D83011F08AFC04F624000E9004F6180069
:100A30000D9004F60C000C9004F2FC700B9004F284
:100A4000F4700A9004F2EC70099004F2E4700890DB
:100A500004F2DC70079004F2D470069004F2CC70BB
:100A6000059004F2C470049004F2BC70039004F288
:100A7000B470029000200190206800F29C30009039
:100A800014F5EE50D0E9002343EC122B04F5E850A6
:100A9000B830D0E9002343EC112B04F5E850B03016
:100AA000D0E9002343EC102B4623206800F2583293
:100AB00004F5E851D83104F5E850F03012F0AAFFFF
:100AC00004F5E851F03104F5F050503011F09BFC82
:100AD00004F6BC60109014F56B600F9004F6A460EF
:100AE0000E9004F694600D9004F68C600C9004F661
:100AF00084600B9004F67C600A9004F674600990A0
:100B000004F66C60089004F66460079004F6240014
:100B1000069004F61800059004F60C00049004F208
:100B2000EC70039004F2E470029004F2DC70019027
:100B300004F2D470009004F2CC7304F2C47204F294
:100B4000B47104F50050203012F046F842F2700003
:100B500000210155200000F031FD200000F043FD90
:100B600012F09CFF009003A800A9042212F09CFF41
:100B700014F53A6012F0D3FF8DF80C0004F6A8309B
:100B800012F0CDFF8DF80D0014F53B6012F0C7FF99
:100B90008DF80E0004F6B83012F0C1FF8DF80F008A
:100BA00012F07CFF009002A800A9042212F07CFF42
:100BB00014F53C6012F0B3FF8DF8080004F6C8305D
:100BC00012F0ADFF8DF8090014F53D6012F0A7FF9B
:100BD0008DF80A0004F6D83012F0A1FF8DF80B0052
:100BE00012F05CFF009001A800A9042212F05CFF43
:100BF00014F53E6012F093FF8DF8040004F6E8301F
:100C000012F08DFF8DF8050014F53F6012F087FF9C
:100C10008DF8060004F6F83012F081FF8DF8070019
:100C200014F5406012F08CFF002809D0012008E084
:100C300000000000008041400000000000002E4045
:100C40000020C0B20090019B029A03992068A8304E
:100C500013F000F8206810F1A8010BA810F006FDB1
:100C600013F0C1FC0500082126A813F005FD26A9F4
:100C7000280013F00FFD04F6582012F0A3FE14F51F
:100C8000B051087014F5B05114F11C0013F012FDAE
:100C900014F5266013F01BFD04F5A850703053ECDA
:100CA000102BC0E9002304F5A851703114F1B400F1
:100CB00013F037FD04F6682013F009FD04F5A85081
:100CC000683053EC102BC0E9002304F5A8516831BB
:100CD00014F1BC0013F025FD14F5396114F1D400B2
:100CE00013F02CFD04F6983114F1DC0013F026FD0E
:100CF00014F5276012F066FE0100C9B204F58050B9
:100D0000D0300EF011FF04F58050D0300EF096FF79
:100D10008DF801000DF1010104F2981013F0CAFCE6
:100D200004F6782012F04EFE41F23051085141F2A3
:100D3000305000598DF8000000A904F2A01013F003
:100D4000B9FC14F5286012F03DFE0A900AA812F0D2
:100D5000C9F804F5A852B032C2E9000114F52861BF
:100D600004F2FC1013F0FEFC04F5C850B830D0E9D2
:100D7000002304F58050D0300EF066FF04F6783082
:100D800012F020FE099009A812F0ACF804F5A85260
:100D9000B832C2E9000104F6783104F2A03013F051
:100DA000E1FC04F6882012F00DFE089008A812F06D
:100DB00099F804F5A852A832C2E9000104F6882186
:100DC00004F2042013F0CEFC14F5296013F07FFC2C
:100DD00004F5B050283053EC102BC0E9002304F583
:100DE000B051283104F20C2013F09BFC04F698203B
:100DF00013F0C8FC13F0DCFC04F5B0522832C2E951
:100E0000000104F5B051283104F20C2013F089FCE4
:100E100014F52A6012F0D6FD14F5AE51086014F5F1
:100E2000AE5104F21C2013F0DBFC200007F086F921
:100E300004F6144104F2C83013F080FC04F61440A8
:100E400013F045FC04F5C850703053EC102BC0E98A
:100E5000002304F61C4104F2D03013F06FFC04F6BA
:100E60001C4013F034FC04F5C850783053EC102BC0
:100E7000C0E9002304F6244104F2D83013F05EFCEC
:100E800004F6244013F023FC14F5CC5053EC102B43
:100E9000C0E9002304F5C85028300022DFF80C37E1
:100EA000C0E9002304F5C850303000229B4BC0E954
:100EB000002304F5C850383000220023C0E9002385
:100EC00014F5CA5000220023C0E9002304F5C850DD
:100ED000483000220023C0E9002341F650100021D1
:100EE000015141F654100021015104F5C850583009
:100EF00000220023C0E9002314F5CB50DFF89C2624
:100F0000DFF8AC36C0E9002304F62C4104F2E830E7
:100F100013F014FC04F62C4013F0D9FB04F5C85070
:100F2000A83053EC102BC0E9002304F6344104F23E
:100F3000F03013F003FC04F6344013F0C8FB04F562
:100F4000C850B03053EC102BC0E9002304F5C85052
:100F5000883004F5C851A831D1E90023C0E9002345
:100F600004F5C850903000220023C0E9002304F5A6
:100F7000C850983000220023C0E9002304F58850AF
:100F800070300FF0BFF804F5C850B030D0E900233E
:100F900051EC100B12F06AF914F5CD52C2E90001C0
:100FA00004F63C4114F5816013F0C8FB04F63C40A4
:100FB00013F08DFB14F5CE5053EC102BC0E9002339
:100FC00004F5C850C83000220023C0E9002304F50E
:100FD000C850D03000220023C0E9002304F5885017
:100FE00070300FF08FF814F5CE50D0E9002351EC9B
:100FF000100B12F03BF904F5C852D832C2E90001D7
:1010000004F6444114F5866013F0ACFB04F64C4042
:1010100013F05DFB04F5D050283053EC102BC0E9E1
:10102000002304F5D0502830D0E9002343EC102BE6
:10103000200006F0C5FF51EC100B14F5D152C2E9A7
:10104000000104F5D051283114F5886013F069FBD4
:1010500014F5D15114F5876013F063FB04F6544086
:1010600013F035FB04F5D050303053EC102BC0E9B1
:10107000002304F5D051303114F5896013F051FB91
:1010800014F52B6013F023FB04F5B050903053ECB3
:10109000102BC0E9002304F5B051903104F2403028
:1010A00013F03FFB14F52E6013F011FB04F5805094
:1010B000D0300EF01AFE04F58050D0300EF01FFE36
:1010C00051EC100BCDE90E010EA904F2783013F0AB
:1010D00028FB04F6E82013F0FAFA04F58050D0302B
:1010E0000EF008FE04F58050D0300EF00DFE51ECED
:1010F000100BCDE90C010CA904F2803013F011FBA8
:1011000004F6F82012F01CFD002809D0012008E0A8
:101110000835060810350608183506080000F03FA7
:10112000002041F21461085541F21460015D14F190
:10113000600013F062FB04F6043012F001FD002899
:1011400001D0012000E0002041F27861085541F211
:101150007860015D04F28C1013F04FFB14F53160E0
:1011600012F0EEFC002801D0012000E0002041F246
:101170001561085541F21560015D04F2542013F029
:101180003CFB04F61C3012F0DBFC002801D00120EF
:1011900000E0002041F2C861085541F2C860015DDD
:1011A00004F2782013F029FB14F5366013F0EAFA04
:1011B00041F23451085104F5A851343104F2883019
:1011C00013F031FB04F6683013F0DCFA14F5B75174
:1011D000086014F5B7500068079007A904F2903032
:1011E00013F021FB14F5376013F0CCFA41F2E461FF
:1011F000085141F2E4600059069006A904F29830C3
:1012000013F011FB14F5386013F061FA04F5B850CF
:10121000183053EC102BC0E9002304F5B8511831F5
:1012200004F2A83013F07DFA04F6283104F2842089
:1012300013F006FB14F5346104F2103013F000FBD8
:1012400004F2103012F07CFC002801D0012100E0F3
:101250000021C9B204F58850703013F010FB04F679
:10126000883013F034FA14F5B95053EC102BC0E960
:10127000002314F5B95104F2B03013F052FA04F619
:10128000583012F04CFC0100C9B2200009F0E8FA15
:1012900041F22C51085504F6583104F2B42013F0F1
:1012A000F1FA04F61C6013F012FA04F5D05038304D
:1012B00053EC102BC0E9002304F61C6114F58E607A
:1012C00013F03CFA04F6246013F001FA14F5D2503E
:1012D00053EC102BC0E9002304F6246114F58F6051
:1012E00013F02CFA04F62C6013F0F1F904F5D05049
:1012F000483053EC102BC0E9002304F62C6104F2B3
:101300002C7013F01BFA04F6346013F0E0F904F5C6
:10131000D050503053EC102BC0E9002304F6346158
:1013200004F2347013F00AFA04F63C6013F02AFA5F
:1013300041F65821085104F63C6104F23C7013F068
:10134000B2FA04F6446013F0C2F951EC100B13F03A
:10135000C1FA41F65C21085104F6446104F244707C
:1013600013F0ECF914F5B45000220023C0E9002377
:1013700004F5B050883000220023C0E9002314F5A2
:101380002B6013F0A4F904F5B050903053EC102BFF
:10139000C0E9002304F6882012F014FB059005A88C
:1013A00011F0A0FD04F5A852A832C2E9000114F51D
:1013B0003A6114F5936013F065FA04F6A83114F558
:1013C000946013F05FFA14F53B6114F5956013F027
:1013D00059FA04F6B83114F5966013F053FA14F57F
:1013E0003C6114F5976013F04DFA04F6C83114F51A
:1013F000986013F047FA14F53D6114F5996013F005
:1014000041FA04F6D83114F59A6013F03BFA14F55A
:101410003E6114F59B6013F035FA04F6E83114F5DB
:101420009C6013F02FFA14F53F6114F59D6013F0E2
:1014300029FA04F6F83114F59E6013F023FA14F536
:10144000406114F59F6013F0FBF904F5C850B83003
:10145000D0E9002304F59850F8300EF0AAF804F50E
:10146000C850B830D0E9002314F5A3500EF0A1F80D
:1014700004F5C850B830D0E9002304F5A050C830B6
:101480000DF0ECFF04F60C4104F2C03013F056F9F5
:1014900004F5C850B830D0E9002304F5C050E83056
:1014A00010F092F814F56D6104F6B87013F03EFA7E
:1014B00014F5726104F6F87013F05EFA14F57761B2
:1014C00004F6F87013F05AFA04F6EC7104F6F870AA
:1014D00013F056FA04F6D47104F6F87013F050FACB
:1014E00014F57E6104F6F87013F04AFA14200490A3
:1014F00004A811F0F7FC02000B0004F6F87013F0DA
:1015000048FA1420039003A811F0ECFC02000B0031
:1015100004F6F87013F042FA4FF4FA70029002A841
:1015200011F0E0FC02000B0004F6F87013F03BFA37
:101530003220019001A811F0D5FC02000B0004F646
:10154000F87013F03AFA782013F03AFA0500231DE8
:1015500004F6EC7204F6B871280015F093F8010057
:1015600004F5C050D83015F09CF9002104F5C050A6
:1015700090300EF060FC13F036F80E4915F0A6F925
:1015800013F031F8082115F095FA0B4915F0EFFA30
:10159000200040B0BDEC048B70BD00009A99999971
:1015A0009999D93F9999A93F000039400000F0BFAF
:1015B0009999B93F00F805089FB4050810B50400D3
:1015C000206800F2881114F572600DF0A5F920680A
:1015D00000F2981114F572600DF0BDF914F5726007
:1015E0000DF0E1F910BD10B50400206800F2B01153
:1015F00014F577600DF07EFB14F577600DF07CFB41
:1016000010BD00002DE9F0472DED108BADF5976D65
:101610000600306812F0DEFE16F503600AF06CFD7D
:1016200006F6F8000CF0FFF906F5805088300DF052
:10163000B5FD06F58050D0300EF070FB06F58850F1
:1016400070300EF02FFE06F59850F8300DF0E5FFE3
:1016500016F5A3500DF0E1FF06F5A050C8300DF0CF
:1016600023FF06F5C05090300EF0FAFB06F5C0508F
:10167000D83015F07FFA15F08FF816F56D600CF084
:1016800051FF06F6F87015F097FA06F5C050E830ED
:101690000FF0DFFF16F5D35010F02FFB06F5F050DA
:1016A000503011F0C3F806F6D47015F0B9FB0028DD
:1016B00001D0012000E00020C0B2002805D00021A8
:1016C00006F5C05090300EF0B6FB06F59850B830D5
:1016D00011F0E5FCC0B2002801F03D810021301D71
:1016E00015F0A4FB300007F0A1F841F258718855BD
:1016F000300007F006FA41F290718855300007F08B
:101700006BFB41F2C8718855300007F0CCFC16F530
:10171000C0510870300007F02FFE41F6380188559F
:10172000300007F030F816F5A9500078012800F0D5
:10173000D58006F2B41012F0CAFFB0EE408AF0EE87
:10174000608A06F58050D0300EF026FA53EC182B44
:1017500051EC100B11F064FE01D0012000E00020DC
:10176000C0B200280DD006F58050D0300EF014FA2B
:1017700051EC100BCDE93A013AA906F2B41012F07F
:10178000D0FF06F2BC1012F0FDFF040006F58050F9
:10179000D0300EF04DFA844201D0012000E000204C
:1017A000C0B200280AD006F58050D0300EF040FAC2
:1017B000119011A906F2BC1013F035F806F2A8102A
:1017C00012F0BEF9040006F58050D0300EF08EF80D
:1017D000C0B2844201D0012000E00020C0B2002845
:1017E0000AD006F58050D0300EF080F80100C9B262
:1017F00006F2A81013F001F806F2981012F08FF913
:10180000040006F58050D0300EF018FAE4B2C0B2F1
:10181000844201D0012000E00020C0B200280BD09B
:1018200006F58050D0300EF009FA8DF8400010A96E
:1018300006F2981012F03EFF06F25C1012F080F9EA
:10184000040006F59850F8300DF0A2FE844201D055
:10185000012000E00020C0B2002809D006F5985011
:10186000F8300DF095FE010006F25C1012F0C5FF95
:1018700006F2681012F064F9040016F5A3500DF09A
:1018800087FE844201D0012000E00020C0B2002881
:1018900008D016F5A3500DF07BFE010006F268108B
:1018A00012F0ABFF06F2381012F04AF9040006F508
:1018B000A050C8300DF0C7FD844201D0012000E0E7
:1018C0000020C0B2002809D006F5A050C8300DF0A5
:1018D000BAFD010006F2381012F08FFF06F58850AD
:1018E000703015F0BFFAC0B2002856D016F5C251BC
:1018F00006F5885070300FF0DEFD06F5C050483018
:10190000D0E9002300202C4911F0B0FC41EC100B71
:1019100051EC100B31F0004141EC100B51EC100B6D
:10192000CDE9380138A916F58C6012F0FAFE06F5FB
:10193000C051503116F5926012F075FF06F5C05196
:10194000583116F58A6012F0ECFE16F5C350D0E956
:1019500000230020184911F089FCCDE9360136A991
:1019600016F58B6012F0DDFE16F5A9500078002800
:1019700013D041F22150805D02280ED016F5B550EB
:1019800016F5C251D1E90023C0E9002306F5C05184
:10199000703106F2F83012F0C4FE06F2E41012F0D4
:1019A00096FE53EC102B16F5B554D4E9000111F056
:1019B00037FD03D0012002E080842E410020C0B218
:1019C00000281DD016F5B55106F2E41012F0A9FE5C
:1019D00016F5B550D0E9002343EC102B16F5B450A2
:1019E00015F0E1FC06F5B050983053EC102BC0E92F
:1019F000002306F5B051983106F2483012F091FEFE
:101A000006F2602012F09CF8002801D0012000E0CE
:101A10000020C0B2002825D0002106F2602012F07C
:101A2000ECFE16F5B45016F5B551D1E90023C0E926
:101A3000002306F5B050883016F5B551D1E90023E2
:101A4000C0E9002306F5B050983016F5B551D1E93C
:101A50000023C0E9002306F5B051983106F2483062
:101A600012F05FFE16F1900012F059F816F5A95128
:101A70000978C0B2884201D0012000E00020C0B245
:101A800000280AD016F5A95000788DF80F000DF146
:101A90000F0116F1900012F00DFE06F2F41012F094
:101AA00016FE53EC102B06F5B054A834D4E900010F
:101AB00011F0B6FC01D0012000E00020C0B20028E7
:101AC00006D006F5B051A83106F2F41012F029FE46
:101AD00016F5A950007800282CD141F22150805DE4
:101AE000022827D116F5A26012F02AF8012801D1A8
:101AF000012000E00020C0B200280CD0002116F523
:101B0000A26012F07AFE002106F2045012F075FE77
:101B1000300005F0BBFE06F2045012F011F8002868
:101B200001D1012000E00020C0B2002802D0300026
:101B300005F021FF16F11C0011F0F1FF040006F67C
:101B4000582011F03FFFE4B2844201D0012000E0B0
:101B50000020C0B2002809D016F11C0011F0DFFFF0
:101B60000F900FA906F6582012F03AFE16F1B400B5
:101B700012F0ADFDB0EE408AF0EE608A16F52660F8
:101B800012F0A5FD53EC182B51EC100B11F048FC92
:101B900001D0012000E00020C0B2002805D016F1DD
:101BA000B40116F5266012F0C9FD16F1BC0012F062
:101BB0008EFDB0EE408AF0EE608A06F6682012F0E4
:101BC00086FD53EC182B51EC100B11F029FC01D0C1
:101BD000012000E00020C0B2002805D016F1BC01B1
:101BE00006F6682012F0AAFD16F1D40012F06FFD7F
:101BF000B0EE408AF0EE608A16F5396012F067FDAB
:101C000053EC182B51EC100B11F00AFC01D0012001
:101C100000E00020C0B2002805D016F1D40116F56E
:101C2000396012F08BFD16F1DC0012F050FDB0EEC1
:101C3000408AF0EE608A06F6983012F048FD53ECC8
:101C4000182B51EC100B11F0EBFB01D0012000E040
:101C50000020C0B2002805D016F1DC0106F698304D
:101C600012F06CFD06F2981011F059FF040016F501
:101C7000276011F0A7FEE4B2844201D0012000E009
:101C80000020C0B2002809D006F2981011F047FFDA
:101C90000E900EA916F5276012F0A2FD06F2A01014
:101CA00011F03DFF040006F6782011F08BFEE4B23F
:101CB000844201D0012000E00020C0B2002809D0F9
:101CC00006F2A01011F02BFF0D900DA906F678205A
:101CD00012F086FD06F2FC1011F074FE040016F5F9
:101CE000286011F06FFE844201D0012000E0002046
:101CF000C0B2002805D006F2FC1116F5286012F0DB
:101D000031FD06F2042011F05DFE040006F6882085
:101D100011F058FE844201D0012000E00020C0B242
:101D2000002805D006F2042106F6882012F01AFDDC
:101D300006F20C2012F0CBFCB0EE408AF0EE608A86
:101D400016F5296012F0C3FC53EC182B51EC100B64
:101D500011F066FB01D0012000E00020C0B2002895
:101D600005D006F20C2116F5296012F0E7FC06F208
:101D7000142012F007FD040006F6982012F002FD70
:101D8000844201D0012000E00020C0B2002805D02C
:101D900006F2142106F6982012F085FD06F21C20AA
:101DA00011F010FE040016F52A6011F00BFE8442BB
:101DB00001D0012000E00020C0B2002805D006F2CA
:101DC0001C2116F52A6012F0CDFC06F2242011F039
:101DD000F9FD040006F6A82011F0F4FD844201D0BC
:101DE000012000E00020C0B2002805D006F2242126
:101DF00006F6A82012F0B6FC06F2403012F067FC9E
:101E000053EC102B06F5B0549034D4E9000111F0D6
:101E100007FB01D0012000E00020C0B2002810D054
:101E200006F2403012F053FC06F5B050903053ECFF
:101E3000102BC0E9002306F2403116F52B6012F09A
:101E40007DFC06F2503011F0BDFD040006F6B8200E
:101E500011F0B8FD844201D0012000E00020C0B2A2
:101E6000002805D006F2503106F6B82012F07AFCB0
:101E700006F2583011F0A6FD040016F52C6011F0A2
:101E8000A1FD844201D0012000E00020C0B2002862
:101E900005D006F2583116F52C6012F063FC06F2FC
:101EA000603011F08FFD040006F6C82011F08AFDA5
:101EB000844201D0012000E00020C0B2002805D0FB
:101EC00006F2603106F6C82012F04CFC06F27830BB
:101ED00012F0FDFBB0EE408AF0EE608A16F52E603F
:101EE00012F0F5FB53EC182B51EC100B11F098FA93
:101EF00001D0012000E00020C0B2002805D006F289
:101F0000783116F52E6012F019FC06F2803012F0CE
:101F1000DEFBB0EE408AF0EE608A06F6E82012F0B2
:101F2000D6FB53EC182B51EC100B11F079FA01D0C1
:101F3000012000E00020C0B2002805D006F2803168
:101F400006F6E82012F0FAFB16F1600011F0F8FD39
:101F5000040006F6F82011F0F3FD844201D00120C0
:101F600000E00020C0B2002805D016F1600106F69E
:101F7000F82012F065FC06F28C1011F0E1FD04006F
:101F800006F6043011F0DCFD844201D0012000E0AF
:101F90000020C0B2002805D006F28C1106F60430ED
:101FA00012F04EFC06F2542011F0CAFD040016F5A2
:101FB000316011F0C5FD844201D0012000E0002015
:101FC000C0B2002805D006F2542116F5316012F097
:101FD00037FC06F2782011F0B3FD040006F61C3041
:101FE00011F0AEFD844201D0012000E00020C0B21B
:101FF000002805D006F2782106F61C3012F020FCED
:1020000006F2883012F0BEFB040016F5366012F0BE
:10201000B9FB844201D0012000E00020C0B20028BA
:1020200005D006F2883116F5366012F03CFC06F257
:10203000903012F0A7FB040006F6683012F0A2FB05
:10204000844201D0012000E00020C0B2002805D069
:1020500006F2903106F6683012F025FC06F2983050
:1020600012F090FB040016F5376012F08BFB8442EF
:1020700001D0012000E00020C0B2002805D006F207
:10208000983116F5376012F00EFC06F2A03011F010
:1020900099FC040006F6783011F094FC844201D0DB
:1020A000012000E00020C0B2002805D006F2A031D7
:1020B00006F6783012F056FB06F2A83012F007FB55
:1020C000B0EE408AF0EE608A16F5386012F0FFFA42
:1020D00053EC182B51EC100B11F0A2F901D0012098
:1020E00000E00020C0B2002805D006F2A83116F5A5
:1020F000386012F023FB06F2842011F021FD040069
:1021000006F6283011F01CFD844201D0012000E0C9
:102110000020C0B2002805D006F2842106F628303F
:1021200012F08EFB06F2103011F00AFD040016F5D5
:10213000346011F005FD844201D0012000E0002050
:10214000C0B2002814D006F2103116F5346012F037
:1021500077FB06F2103011F0F3FC002801D00121CA
:1021600000E00021C9B206F58850703012F087FBFC
:1021700006F2EC2011F0E4FC040006F6343011F015
:10218000DFFC844201D0012000E00020C0B2002822
:1021900005D006F2EC2106F6343012F051FB06F2BF
:1021A000B03012F094FAB0EE408AF0EE608A06F693
:1021B000883012F08CFA53EC182B51EC100B11F004
:1021C0002FF901D0012000E00020C0B2002805D086
:1021D00006F2B03106F6883012F0B0FA06F2B420FA
:1021E00011F09DFC040006F6583011F098FCE4B2A2
:1021F000C0B2844201D0012000E00020C0B200281B
:1022000005D006F2B42106F6583012F03BFB06F278
:10221000C83012F05CFAB0EE408AF0EE608A06F642
:10222000144012F054FA53EC182B51EC100B11F02F
:10223000F7F801D0012000E00020C0B2002805D04E
:1022400006F2C83106F6144012F078FA06F2D030E1
:1022500012F03DFAB0EE408AF0EE608A06F61C40BD
:1022600012F035FA53EC182B51EC100B11F0D8F892
:1022700001D0012000E00020C0B2002805D006F205
:10228000D03106F61C4012F059FA06F2D83012F09E
:102290001EFAB0EE408AF0EE608A06F6244012F094
:1022A00016FA53EC182B51EC100B11F0B9F801D0C1
:1022B000012000E00020C0B2002805D006F2D8318D
:1022C00006F6244012F03AFA06F2E83012F0FFF96E
:1022D000B0EE408AF0EE608A06F62C4012F0F7F974
:1022E00053EC182B51EC100B11F09AF801D001208F
:1022F00000E00020C0B2002805D006F2E83106F662
:102300002C4012F01BFA06F2F03012F0E0F9B0EEB9
:10231000408AF0EE608A06F6344012F0D8F953ECA9
:10232000182B51EC100B11F07BF801D0012000E0CC
:102330000020C0B2002805D006F2F03106F6344085
:1023400012F0FCF916F5816012F0C1F9B0EE408A86
:10235000F0EE608A06F63C4012F0B9F953EC182B07
:1023600051EC100B11F05CF801D0012000E00020CE
:10237000C0B2002805D016F5816106F63C4012F087
:10238000DDF916F5866011F01DFB040006F64440E9
:1023900011F018FB844201D0012000E00020C0B2FF
:1023A000002805D016F5866106F6444012F0DAF9E9
:1023B00016F5876012F08BF953EC102B16F5D154FB
:1023C000D4E9000111F02CF801D0012000E0002038
:1023D000C0B2002827D016F5876012F078F916F5FC
:1023E000D15053EC102BC0E9002316F5D150D0E9A1
:1023F000002343EC102B300005F04AFD51EC100B8C
:1024000006F5D0522832C2E9000106F5D051283134
:1024100006F64C4012F085F906F5D051283116F534
:10242000886012F07EF916F5886012F050F953ECCE
:10243000102B06F5D0542834D4E9000110F0F0FF39
:1024400001D0012000E00020C0B2002827D016F5FE
:10245000886012F03CF906F5D050283053EC102B70
:10246000C0E9002306F5D051283106F64C4012F0A1
:1024700058F906F5D0502830D0E9002343EC102B52
:10248000300005F09DFD51EC100B16F5D152C2E95C
:10249000000116F5D15116F5876012F042F916F5D4
:1024A000896012F014F9B0EE408AF0EE608A06F608
:1024B000544012F00CF953EC182B51EC100B10F0A7
:1024C000AFFF01D0012000E00020C0B2002810D0F2
:1024D00016F5896106F6544012F030F916F5896058
:1024E00012F0F5F806F5D050303053EC102BC0E95F
:1024F000002316F58E6012F0EAF8B0EE408AF0EE96
:10250000608A06F61C6012F0E2F853EC182B51ECCE
:10251000100B10F085FF01D0012000E00020C0B2B8
:10252000002829D016F58E6106F61C6012F006F917
:1025300016F58E6012F0CBF806F5D050383053EC1B
:10254000102BC0E9002306F5A050C8300CF07BFF2B
:10255000012801D1012000E00020C0B200280BD0EA
:1025600006F5D0503830D0E9002343EC102B06F5A7
:10257000885070300EF0BAFF16F58F6012F0A7F891
:10258000B0EE408AF0EE608A06F6246012F09FF802
:1025900053EC182B51EC100B10F042FF01D001202E
:1025A00000E00020C0B2002827D016F58F6106F6A3
:1025B000246012F0C3F816F58F6012F088F816F553
:1025C000D25053EC102BC0E9002306F5A050C830C0
:1025D0000CF039FF002801D1012000E00020C0B23A
:1025E00000280AD016F5D250D0E9002343EC102B76
:1025F00006F5885070300EF079FF06F2EC2011F0ED
:102600009FFA040006F6343011F09AFA844201D0A1
:10261000012000E00020C0B2002805D006F2EC2125
:1026200006F6343012F00CF906F22C7012F04FF866
:10263000B0EE408AF0EE608A06F62C6012F047F8A1
:1026400053EC182B51EC100B10F0EAFE01D00120D6
:1026500000E00020C0B2002810D006F22C7106F66F
:102660002C6012F06BF806F22C7012F030F806F5C0
:10267000D050483053EC102BC0E9002306F23470E0
:1026800012F025F8B0EE408AF0EE608A06F634606B
:1026900012F01DF853EC182B51EC100B10F0C0FE8B
:1026A00001D0012000E00020C0B2002810D006F2C6
:1026B000347106F6346012F041F806F2347012F00C
:1026C00006F806F5D050503053EC102BC0E900232B
:1026D00006F23C7012F056F8040006F63C6012F068
:1026E00051F8844201D0012000E00020C0B200284F
:1026F0000CD006F23C7106F63C6012F0D4F806F2FB
:102700003C7012F03FF841F65821885106F24470AF
:1027100011F0DDFFB0EE408AF0EE608A06F644600C
:1027200011F0D5FF53EC182B51EC100B10F078FE84
:1027300001D0012000E00020C0B2002810D006F235
:10274000447106F6446011F0F9FF06F2447011F08E
:10275000BEFF51EC100B12F0BDF841F65C21885120
:1027600042F27000805D012809D043D303281AD0BB
:102770000FD305282AD01FD3062831D03AE00120F4
:102780008DF80E000DF10E0106F2283011F092FFC7
:1027900038E002208DF80D000DF10D0106F2283011
:1027A00011F088FF2EE003208DF80C0003A906F23B
:1027B000283011F07FFF25E004208DF80B000DF18B
:1027C0000B0106F2283011F075FF1BE005208DF893
:1027D0000A000DF10A0106F2283011F06BFF11E03A
:1027E00006208DF809000DF1090106F2283011F0DC
:1027F00061FF07E000208DF8080002A906F22830EA
:1028000011F058FF16F53A6116F5936014F054FE76
:1028100006F6A83116F5946014F04EFE16F53B61ED
:1028200016F5956014F048FE06F6B83116F5966078
:1028300014F042FE16F53C6116F5976014F03CFE6C
:1028400006F6C83116F5986014F036FE16F53D61AF
:1028500016F5996014F030FE06F6D83116F59A6038
:1028600014F02AFE16F53E6116F59B6014F024FE66
:1028700006F6E83116F59C6014F01EFE16F53F6171
:1028800016F59D6014F018FE06F6F83116F59E60F8
:1028900014F012FE16F5406116F59F6014F028FE44
:1028A00006F5C050E8300EF086FEC0B2010006F218
:1028B0009C2011F0A2FF06F2C03011F008FFB0EE2C
:1028C000408AF0EE608A06F60C4011F000FF53ECEF
:1028D000182B51EC100B10F0A3FD01D0012000E0EB
:1028E0000020C0B2002805D006F2C03106F60C4028
:1028F00011F024FF06F50050203010F0DDF906F548
:102900008850703014F00EFE012801D1012000E043
:102910000020C0B2002805D0002106F2A82011F046
:102920006CFF04E0012106F2A82011F066FF06F218
:102930001C3011F005F9012801D1012000E0002030
:10294000C0B2002807D0002106F21C3011F055FF5C
:10295000300007F0C1FB06F59850C83010F09FFB1F
:10296000C0B2002815D041F2F030805D002804D0BC
:102970003068C83014F0ADFE03E03068C83014F0A1
:10298000AFFE41F2F030805D90F0010041F2F03195
:10299000885506F5B050683010F081FBC0B20028B1
:1029A00039D016F5B350007800280DD041F25060B0
:1029B0008059401C41F25061885106F5B0515031A8
:1029C00006F22C2011F00CFF16F5A9500078022811
:1029D00021D141F258608059401C41F25861885120
:1029E00041F25C608259002141F25C608059401ED6
:1029F00014F0DFFF41F25C61885106F5B0515831A7
:102A000006F23C2011F0ECFE06F5B0515C3106F206
:102A1000442011F0E5FE16F5A9500078002809D0F1
:102A2000022801F07D82C0F05081032801F01C8053
:102A300004F014BF41F22150805D002804D0022828
:102A400000F0A78074D33EE111F0CDFDDFF8781AD5
:102A500014F08DF8002106F59850F8300CF091FD37
:102A6000002116F5A3500CF08CFD012106F5A050B5
:102A7000C8300CF0E1FC06F5D0503830D0E9002326
:102A800043EC102B06F5885070300EF02FFD06F544
:102A90008050D03014F094FF06F58050D0300CF008
:102AA000DDFE9FED210B06F58050D0300CF0C6FF07
:102AB00006F58850703014F087FF002116F1780079
:102AC00011F09BFE16F5AE5106F21C2011F088FEA7
:102AD00006F59850D83010F09BFA41F2B060002112
:102AE0008155002106F5C050E8300EF04CFD002164
:102AF00006F2902011F081FE41F668100021815508
:102B0000002106F2BC2011F078FE002106F2D4204C
:102B100011F073FE002106F2E02011F06EFE41F28A
:102B2000215001218155CEE000000000000000008E
:102B300006F59850D83010F076FAC0B2002827D0A9
:102B400011F051FDDFF8801914F011F811F04BFD70
:102B5000DFF8781913F0BAFEDFF86C1914F007F8F3
:102B600011F041FDDFF8681913F0B0FEDFF85819D5
:102B700013F0FDFF11F037FDDFF8501913F0A6FE3A
:102B8000DFF8441913F0F3FF41F22150022181557F
:102B900099E016F1780010F0D3FF012801D101204F
:102BA00000E00020C0B2002841D0002116F17800DA
:102BB00011F023FE002116F1840011F01EFE16F123
:102BC0000C0010F0ACFFC0B2012804D025D30328BC
:102BD0001AD009D321E016F5A9500121017041F264
:102BE0002150002181556EE006F5C050D83013F019
:102BF000C1FF13F0A7FD16F5A9500221017041F2A3
:102C00002150002181555EE016F5A9500321017085
:102C100041F221500021815555E000208DF8070038
:102C20000DF1070116F10C0011F044FD4BE006F523
:102C30008850703014F076FC012801D1012000E0AA
:102C40000020C0B200283ED041F2B060805D002874
:102C500021D016F5C250D0E9002343EC102B3000F0
:102C600006F0F5FC51EC100B06F5B052A832C2E9A3
:102C7000000106F5B851283106F5885070300EF085
:102C80007BF806F5885070300DF0BAF941F2B0606B
:102C90000021815517E016F5B55016F5C251D1E95E
:102CA0000023C0E9002316F5BB5106F588507030AB
:102CB0000EF062F806F5885070300DF0A1F941F27F
:102CC000B0600121815504F0C9BD16F5B1500078FE
:102CD000002814D0022800F08F806FD3042800F061
:102CE0001D83C0F0E182062800F0A483C0F04D836C
:102CF000082800F09B86C0F03B8600F0B3BE11F0C0
:102D000072FCDFF8C41713F032FF11F06CFCDFF82F
:102D1000BC1713F0DBFDDFF8B01713F028FF11F03C
:102D200062FCDFF8041D13F0D1FDDFF89C1713F0EF
:102D30001EFF11F058FCDFF8941713F0C7FDDFF801
:102D4000881713F014FF06F5C850B830D0E90023F7
:102D500006F59850F8300CF02CFC06F5C850B83049
:102D6000D0E9002316F5A3500CF023FC06F5C8505B
:102D7000B830D0E9002306F5A050C8300CF06EFB47
:102D800006F5C850B830D0E9002306F58050D030A1
:102D90000CF05AFF06F5C850B830D0E9002306F50C
:102DA000C050E8300EF010FC41F2B06000218155B7
:102DB00016F5B1500121017000F054BE06F588509F
:102DC000703014F0AFFB012801D1012000E0002099
:102DD000C0B200280ED006F5B851983106F58850DB
:102DE00070300DF0C9FF300004F097FF16F5B150B8
:102DF0000221017000F036BE16F16C0010F0A0FE4A
:102E0000012801D1012000E00020C0B2002816D026
:102E1000002116F16C0011F0F0FC16F5B150002104
:102E2000017016F5A9500021017000208DF80600F0
:102E30000DF1060116F10C0011F03CFC33E206F234
:102E40005C1010F07DFE040006F59850F8300CF090
:102E50009FFB844201D0012000E00020C0B2002886
:102E600009D006F25C1010F06BFE010006F59850D8
:102E7000F8300CF086FB06F2681010F061FE0400DA
:102E800016F5A3500CF084FB844201D0012000E031
:102E90000020C0B2002808D006F2681010F050FEE2
:102EA000010016F5A3500CF06CFB06F2381010F080
:102EB00047FE040006F5A050C8300CF0C4FA844266
:102EC00001D0012000E00020C0B200282DD006F281
:102ED000381010F035FE010006F5A050C8300CF097
:102EE000ABFA06F2381010F02BFE012801D10120B8
:102EF00000E00020C0B200280CD006F5D0503830D9
:102F0000D0E9002343EC102B06F5885070300EF00A
:102F1000EDFA0AE016F5D250D0E9002343EC102B6D
:102F200006F5885070300EF0E1FA06F2A81010F0A5
:102F300007FE040006F58050D0300CF0D7FCC0B27C
:102F4000844201D0012000E00020C0B2002820D03F
:102F500006F2A81010F0F4FD002801D0012000E0D6
:102F60000020C0B200280AD006F58050D0300CF006
:102F700075FC06F58850703014F02AFD09E006F55E
:102F80008050D0300CF08EFC06F58850703014F074
:102F90001FFD06F2BC1011F0F5FB040006F5805091
:102FA000D0300CF045FE844201D0012000E000202A
:102FB000C0B200283CD006F2BC1011F0E3FB11F0C7
:102FC000F7FB41EC100B06F58050D0300CF036FDCD
:102FD00006F58850703014F0FBFC06F58050D030B8
:102FE0000CF0DAFD51EC100BCDE9340134A906F2F6
:102FF000B41011F096FB06F2BC1011F0C3FB0400F4
:1030000006F58050D0300CF013FE844201D0012030
:1030100000E00020C0B200280AD006F58050D03071
:103020000CF006FE0C900CA906F2BC1011F0FBFB94
:1030300006F2B41011F04BFBB0EE408AF0EE608A5D
:1030400006F58050D0300CF0A7FD53EC182B51EC56
:10305000100B10F0E5F901D0012000E00020C0B213
:10306000002840D006F2B41011F031FB06F5805074
:10307000D0300CF053FC06F58850703014F0A8FCEA
:1030800006F58050D0300CF0D3FD0B900BA906F262
:10309000BC1011F0C8FB06F2B41011F018FBB0EE32
:1030A000408AF0EE608A06F58050D0300CF074FD56
:1030B00053EC182B51EC100B10F0B2F901D0012099
:1030C00000E00020C0B200280DD006F58050D030BE
:1030D0000CF062FD51EC100BCDE9320132A906F281
:1030E000B41011F01EFB06F2981010F018FD040049
:1030F00006F58050D0300CF0A1FDE4B2C0B284429D
:1031000001D0012000E00020C0B200280FD006F25C
:10311000981010F004FD0100C9B206F58050D030BF
:103120000CF002FD06F58850703014F051FC41F2AD
:10313000C870805D00280BD041F2C8700021815515
:1031400006F5B851983106F5885070300DF014FE30
:1031500006F2842010F0F4FC002801D0012000E0E9
:103160000020C0B2002805D006F58850703014F059
:1031700033FC04E006F58850703014F025FC06F2AC
:10318000E83011F0A4FA53EC102B06F5C854A8341B
:10319000D4E9000110F044F901D0012000E0002042
:1031A000C0B200280DD006F2E83011F090FA06F512
:1031B000C850A83053EC102BC0E90023300004F0B5
:1031C000ACFD06F2F82010F0BBFC012801D1012073
:1031D00000E00020C0B2002809D006F58850703009
:1031E00014F0FEFB002106F2F82011F006FB06F5B4
:1031F0008850703014F096F9012801D1012000E0C8
:103200000020C0B2002804D006F5885070300CF0C1
:10321000F7FE06F26C2010F093FC012801D101208A
:1032200000E00020C0B2002809D0002106F26C2086
:1032300011F0E3FA16F5B150032101700FE006F228
:10324000BC2010F07DFC012801D1012000E000200D
:10325000C0B2002803D016F5B1500521017000243A
:1032600006F2902010F06CFC002801D0012000E054
:103270000020C0B2002800D0012406F5C050E8307C
:103280000EF099F9E4B2C0B2844201D0012000E00E
:103290000020C0B2002806D02100C9B206F5C050F7
:1032A000E8300EF070F9DDE306F58850703014F068
:1032B00039F9012801D1012000E00020C0B2002826
:1032C0002BD006F2842010F03BFC002801D0012016
:1032D00000E00020C0B2002805D006F5885070300C
:1032E00014F07AFB04E006F58850703014F074FB9B
:1032F00041F224500121815116F11C0010F00FFC05
:1033000041F22851C0B2885106F5885070300CF057
:1033100077FE16F5B15004210170A3E306F588503D
:10332000703014F0FFF8012801D1012000E00020E6
:10333000C0B2002828D041F22450805941F22851CF
:103340008959884212D241F224508059401C41F2DE
:103350002451885141F2245080598DF805000DF117
:10336000050116F1A00011F0A5F908E006F5885056
:10337000703014F029FB16F5B1500221017006F5EA
:10338000885070300CF03CFE6CE341F6681001216F
:10339000815506F2C83011F09AF906F5C850703020
:1033A00053EC102BC0E9002306F2D03011F08FF956
:1033B00006F5C850783053EC102BC0E9002306F214
:1033C000D83011F084F916F5CC5053EC102BC0E92D
:1033D000002306F2E83011F07AF906F5C850A8305B
:1033E00053EC102BC0E9002306F2F03011F06FF916
:1033F00006F5C850B03053EC102BC0E9002316F589
:10340000816011F064F916F5CE5053EC102BC0E931
:103410000023300004F081FC11F0E5F8DFF8401AD9
:1034200013F054FA284913F0A2FB16F5B150062107
:10343000017017E316F16C0010F082FB012801D136
:10344000012000E00020C0B200281ED0002116F1AB
:103450006C0011F0D2F916F5B1500021017011F095
:10346000C2F8DFF8001A13F031FA174913F07FFBA6
:1034700016F5A9500021017000208DF8040001A963
:1034800016F10C0011F016F971E206F2BC2010F0F2
:1034900057FB002801D1012000E00020C0B2002825
:1034A00018D016F5B1500221017041F668100021C4
:1034B000815511F098F8DFF8AC1913F007FA0249BA
:1034C00013F055FB53E200BF9FB40508C4CB0508B9
:1034D000E8CB050806F2B41011F0F9F8B0EE408A16
:1034E000F0EE608A06F58050D0300CF055FB53ECBE
:1034F000182B51EC100B0FF093FF01D0012000E0CE
:103500000020C0B200280DD006F58050D0300CF05D
:1035100043FB51EC100BCDE9300130A906F2B41099
:1035200011F0FFF806F2BC1011F02CF9040006F5BA
:103530008050D0300CF07CFB844201D0012000E0B0
:103540000020C0B200280AD006F58050D0300CF020
:103550006FFB0A900AA906F2BC1011F064F941F25F
:10356000C870805D00280ED041F2C87000218155DE
:1035700006F5B851983106F5885070300DF0FCFB17
:10358000300004F0CAFB06F2C83011F0A0F853EC8A
:10359000102B06F5C8547034D4E900010FF040FF39
:1035A00001D0012000E00020C0B200280DD006F2BA
:1035B000C83011F08CF806F5C850703053EC102B61
:1035C000C0E90023300004F0A8FB06F2D03011F06F
:1035D0007EF853EC102B06F5C8547834D4E900017A
:1035E0000FF01EFF01D0012000E00020C0B2002833
:1035F0000DD006F2D03011F06AF806F5C8507830D8
:1036000053EC102BC0E90023300004F086FB06F2D7
:10361000D83011F05CF853EC102B16F5CC54D4E9EB
:1036200000010FF0FDFE01D0012000E00020C0B23B
:1036300000280CD006F2D83011F049F816F5CC501D
:1036400053EC102BC0E90023300004F066FB06F2B7
:10365000E83011F03CF853EC102B06F5C854A834B0
:10366000D4E900010FF0DCFE01D0012000E00020D1
:10367000C0B200280DD006F2E83011F028F806F5A7
:10368000C850A83053EC102BC0E90023300004F0E0
:1036900044FB06F2F03011F01AF853EC102B06F54B
:1036A000C854B034D4E900010FF0BAFE01D00120B3
:1036B00000E00020C0B200280DD006F2F03011F07A
:1036C00006F806F5C850B03053EC102BC0E90023C3
:1036D000300004F022FB16F5816010F0F8FF53EC87
:1036E000102B16F5CE54D4E900010FF099FE01D04D
:1036F000012000E00020C0B200280CD016F5816047
:1037000010F0E5FF16F5CE5053EC102BC0E9002366
:10371000300004F002FB16F5866010F053F9040047
:1037200016F5CF5014F060F9844201D0012000E07A
:103730000020C0B2002811D016F5866010F042F9C2
:10374000010016F5CF5014F054F916F5866010F00C
:1037500039F9010016F5CF5014F075F9002406F27E
:10376000902010F0EDF9002801D0012000E00020A9
:10377000C0B2002800D0012406F5C050E8300DF09A
:103780001AFFE4B2C0B2844201D0012000E0002060
:10379000C0B2002806D02100C9B206F5C050E830FA
:1037A0000DF0F1FE06F2D42010F0CAF9012801D183
:1037B000012000E00020C0B2002812D0002106F253
:1037C000D42011F01AF810F00EFFDFF80C1D13F0E2
:1037D0007DF8DFF8081D13F0CAF916F5B15007217E
:1037E000017006F58850703013F09CFE012801D15D
:1037F000012000E00020C0B2002800F0B88006F5EB
:10380000885070300CF0FCFB16F5B550D0E9002361
:1038100043EC102B06F5C850883013F007FE51EC2E
:10382000100BCDE9120112A906F2F83010F079FF61
:1038300006F5D0523032D2E90001DDE9122314F04E
:1038400007F941EC100B06F5C850103013F052FB8D
:10385000B0EE408AF0EE608AB0EE480AF0EE680AF8
:1038600006F58050D0300CF059F8B0EE480AF0EE72
:10387000680A06F5C850C83013F095FD300004F012
:103880009FFB51EC100BCDE92E012EA916F580609F
:1038900010F047FF06F5C851583106F2E03010F03D
:1038A00040FFB0EE480AF0EE680A16F5CF5014F06B
:1038B0008FF916F5CF5014F007FA300004F080FBB2
:1038C00051EC100BCDE92C012CA916F5826010F0FB
:1038D00028FF16F5CF5014F0FFF9300004F070FB0C
:1038E00051EC100BCDE92A012AA916F5836010F0DE
:1038F00018FF16F5CF5014F0E7F951EC100BCDE995
:10390000280128A916F5846010F00BFF16F5CF509A
:1039100014F0E2F951EC100BCDE9260126A916F5B9
:10392000856010F0FEFE16F5CF5014F0D5F9B0EE1C
:10393000408AF0EE608A16F5876010F0C8FE51EC00
:10394000180B53EC102B14F0F1F901D2012000E018
:103950000020C0B2002805D0012106F2E02010F0BE
:103960004CFF04E0002106F2E02010F046FF79E071
:1039700006F58050D0300CF0AFF9C0B2002801D06D
:10398000012000E00020C0B2002848D09FED240BA9
:1039900006F58050D0300CF051F8300004F0BDF93D
:1039A00006F5C850583000220023C0E9002316F560
:1039B000CA5000220023C0E9002306F5C850383061
:1039C00000220023C0E9002306F5C8504830002239
:1039D0000023C0E9002306F5C850903000220023E0
:1039E000C0E9002306F5C850983000220023C0E942
:1039F000002306F5C850C83000220023C0E9002388
:103A000006F5C850D03000220023C0E9002316F587
:103A1000CF5014F0A2F916F5B1500821017021E041
:103A200000000000000000000CCC050806F58050E6
:103A3000D0300CF051F9C0B2002801D0012000E0D4
:103A40000020C0B200280DD010F0CDFDDFF8901A94
:103A500012F03CFFDFF8841A13F089F816F5B15024
:103A60000621017003F0FABE41F22160805D00285A
:103A700017D0022800F09580C0F08280042800F062
:103A80002581C0F0E380062800F07A81C0F05981DA
:103A9000082800F0EE81C0F09681092800F0FA8134
:103AA00006E210F0A0FDDFF8341A13F060F810F011
:103AB0009AFDDFF8301A12F009FFDFF8201A13F030
:103AC00056F810F090FDDFF8201A12F0FFFEDFF834
:103AD0000C1A13F04CF810F086FDDFF8081A12F0FB
:103AE000F5FEDFF8F81913F042F806F2A01010F016
:103AF00016F8C0B26421484341F23051885141F276
:103B00003050805903280ED241F2305003218151A8
:103B100041F2305080598DF803000DF1030106F297
:103B2000A01010F0C7FD16F11C000FF0F8FF16F5FD
:103B3000B051087006F20C2010F0C9FD06F5B05027
:103B4000283053EC102BC0E9002306F21C200FF0A4
:103B500039FF16F5AE51086016F5AE5000680990B1
:103B600009A808F0DDFCCDE9240124A906F5B05030
:103B700038300FF045FA41F221600121815597E17B
:103B8000300014F0F9F8C0B2002809D0012106F580
:103B90009850F8300BF0F5FC41F22160022181557C
:103BA00086E1300014F0E8F8C0B200284DD041F2B0
:103BB00030600021815541F224500021815106F5E9
:103BC000A850383006F5B0512831D1E90023C0E9BA
:103BD000002341F230508059400810F0F3FD0200FC
:103BE0000B0006F5A8543834D4E9000113F030FF77
:103BF00006F5A8523832C2E9000110F0F4FCDFF8F3
:103C00006C1E12F063FE41F23051895912F052FFDE
:103C100010F0E9FCDFF8C41812F0A9FF10F0E3FC83
:103C2000DFF84C1E12F052FE06F5A8513831D1E9EA
:103C3000002343EC102B14F0B9F8DFF8A01812F0B1
:103C400096FF41F221600321815531E106F5805054
:103C5000D0300CF041F8C0B2002801D0012000E0C3
:103C60000020C0B2002830D006F5A8503830D0E986
:103C7000002343EC102B06F58050D0300BF0DEFE15
:103C800006F5B05038300FF0C3F910F0ACFCDFF897
:103C90004C1812F06CFFDFF8DC1D12F017FE040068
:103CA00006F21C200FF08EFE0100200014F0E1F857
:103CB00010F099FC69A112F009FEDFF8201812F04B
:103CC00056FF41F2216004218155F1E006F5B05024
:103CD00038300FF0A8F9C0B200281FD006F5B05058
:103CE00038300FF09DF941F2C870805D00280BD08C
:103CF00041F2C8700021815506F5B851983106F59A
:103D0000885070300DF038F806F58850703013F098
:103D100063FE41F221600621815511E006F58850CD
:103D2000703013F0FFFB012801D1012000E00020DA
:103D3000C0B2002804D006F5885070300CF060F94D
:103D4000B6E006F58050D0300BF0C6FFC0B20028B8
:103D500001D0012000E00020C0B200280FD006F5FD
:103D6000A8503830D0E9002343EC102B06F58050E2
:103D7000D0300BF063FE41F221600621815597E0BF
:103D800006F58050D0300BF0A7FFC0B200280CD051
:103D900006F58850703013F0C5FB012801D00120D2
:103DA00000E0002090F0010000E00020C0B20028F8
:103DB00008D006F5885070300CF022F941F22160ED
:103DC0000721815574E006F58850703013F0AAFB86
:103DD000012801D1012000E00020C0B2002847D016
:103DE00041F23060805D401C16F5B0510978884280
:103DF0000BDA41F23060805D401C41F23061885541
:103E000041F221600621815532E041F2306000210B
:103E1000815541F224508059401C41F2305189595A
:103E2000884221D241F224508059401C41F2245151
:103E3000885106F5A8503830D0E900230020DFF87B
:103E40003C1C14F073F806F5A8523832C2E90001A0
:103E500041F22160052181550AE000BF2063000086
:103E6000203506082835060841F2216008218155D1
:103E70001EE0300013F080FFC0B2002809D00021FE
:103E800006F59850F8300BF07CFB41F221600921D7
:103E900081550DE0300013F06FFFC0B2002807D04D
:103EA00016F5A9500021017041F2216000218155D1
:103EB00016F16C000FF044FE012801D1012000E052
:103EC0000020C0B2002829D010F08DFBDFF81416B6
:103ED00012F0FCFCDFF8041612F049FE10F083FB30
:103EE000DFF89C1B12F0F2FCDFF8F01512F03FFE39
:103EF000002116F16C0010F080FC41F221600021DD
:103F0000815516F5A9500021017000208DF802009E
:103F10000DF1020116F10C0010F0CCFB03F09EBC79
:103F200041F22250805D002876D0012800F0768290
:103F3000022800F09582032800F0D882042800F0BF
:103F40000D83052800F01883062800F078830728E1
:103F500000F0D883082800F00D84092800F033848D
:103F60000A2800F07D840B2800F0A4840C2800F0BF
:103F7000ED840D2800F009850E2800F02A85102810
:103F800000F03287112801F05181122801F06E8172
:103F9000132801F08A81142801F09B81152801F073
:103FA0002082162801F09E84172801F0F584182835
:103FB00001F01885192801F088851A2801F0FE857E
:103FC0001B2801F08F861C2802F029801D2802F092
:103FD000F4801E2802F01B811F2802F02C8120286B
:103FE00002F05C81212802F07881222802F08E8183
:103FF000232802F05082242802F06883252802F04A
:104000008483262802F0C583272803F036832828D6
:1040100003F0C78303F0DABB10F0E5FADFF8BC1455
:1040200012F0A5FD10F0DFFADFF8B81412F04EFC24
:10403000DFF8A81412F09BFD10F0D5FADFF8881E07
:1040400012F044FCDFF8941412F091FD10F0CBFA5A
:10405000DFF8901412F03AFCDFF8801412F087FDBC
:1040600016F1B40010F033FB06F5A850703053EC95
:10407000102BC0E9002316F1BC0010F028FB06F558
:10408000A850683053EC102BC0E9002316F5AB5054
:104090000021017006F2FC100FF094FC089008A8B3
:1040A0000EF020FF06F5A852B032C2E9000106F278
:1040B000A0300FF087FC079007A80EF013FF06F55D
:1040C000A852B832C2E9000106F5A850B030D0E9D4
:1040D000002306F58050D0300BF0B6FD06F2042028
:1040E0000FF070FC069006A80EF0FCFE06F5A85234
:1040F000A832C2E9000106F5A850A830D0E9002393
:1041000006F59850F8300BF054FA06F5A850A83090
:10411000D0E9002316F5A3500BF04BFA06F5A85092
:10412000A830D0E9002306F5A050C8300BF096F96E
:1041300006F254200FF004FD002801D0012000E019
:10414000002041F21561885541F21560815D16F538
:10415000316010F052FB06F5A851A83106F5C050A9
:1041600078300EF04DFF06F2A0100FF0D8FC41F2AF
:104170003051C0B2885106F2883010F003FB41F292
:104180003451885106F2903010F0FCFA16F5B75110
:10419000086006F2983010F0F5FA41F2E4618851B7
:1041A00006F2883010F0EEFA41F23451895981421A
:1041B00001D0012000E00020C0B200280DD006F59B
:1041C000A851343106F2883010F02DFB06F5A851C5
:1041D000343116F5366010F026FB06F278200FF029
:1041E000AFFC002801D0012000E0002041F2C861AE
:1041F000885506F5B050001D13F00CFF06F5A850C9
:10420000C83013F016FF06F5A850D83013F011FF90
:1042100016F11C000FF083FC16F5B051087016F56E
:10422000B0500078022826D316F5B05116F1A00040
:1042300010F040FA10F0D7F9AA4912F047FBA7494D
:1042400012F095FC10F0CFF9DFF8841C12F03EFB61
:1042500010F0C9F916F5B051097813F0F9FE9F492D
:1042600012F085FC10F0BFF99E4912F02FFB9B491C
:1042700012F07DFC08E001208DF801000DF1010134
:1042800016F1A00010F016FA16F160000FF058FCBD
:10429000002801D0012000E0002041F2146188557F
:1042A00006F5B851D03106F5885070300CF064FD39
:1042B00010F099F9DFF81C1C12F008FB874912F086
:1042C00056FC06F21C200FF07DFB16F5AE5108607F
:1042D0004FF47A70059005A80EF004FECDE9220196
:1042E00022A906F5B05038300EF08AFE41F2506037
:1042F0000021815141F25860002181510020049039
:1043000004A906F23C2010F06BFA41F25C60322105
:10431000815106F28C100FF013FC002801D001200F
:1043200000E0002041F27861885506F5B050B830C1
:1043300000220023C0E9002316F5B6500022002316
:10434000C0E9002306F5B050EC3013F0F2FE41F264
:10435000DC600021815141F210700021815506F28C
:10436000A83010F0B4F906F5B850183053EC102B03
:10437000C0E9002306F2B03010F0A9F916F5B950E3
:1043800053EC102BC0E90023002106F5C050E830A3
:104390000DF0F9F806F2C03010F099F9B0EE408A4D
:1043A000F0EE608ADFF8242ED2E9000113F0D0FE8F
:1043B00053EC182B0EF05AFF04000D00DFF8102EFE
:1043C000D2E9000113F0C4FE02000B002000290016
:1043D0000FF036F813F0EAFE02000B0006F5C050AD
:1043E000E8300DF0F1F8012116F5D35013F01FFF5E
:1043F00006F2B4200FF093FB0100C9B2300006F0C2
:104400002FFA41F22C51885542F27000012181555A
:1044100041F222500121815503F0D8B9300013F048
:10442000ABFCC0B2002819D041F21460805D0028B6
:1044300010D0002106F5A050C8300AF0FDFF16F597
:10444000D250D0E9002343EC102B06F58850703091
:104450000DF04CF841F222500221815503F0B6B91B
:10446000300013F089FCC0B2002832D016F5B350EA
:104470000121017006F5B05068300EF00AFE16F505
:10448000AB500078002802D001280FD01DE010F0BA
:10449000AAF8DFF8101D12F019FA104912F067FBA4
:1044A000012116F5A3500BF06CF80EE010F09BF80C
:1044B000DFF8F41C12F00AFA084912F058FB012147
:1044C00006F59850F8300BF05CF841F222500321C9
:1044D000815503F07BB900BF3C2806089FB405084E
:1044E00048280608C4CB050830CC0508300013F076
:1044F00043FCC0B200282FD006F5C05078300EF033
:1045000087FD06F204200FF05DFA00EE100AB8EE07
:10451000400A10EE100A13F093FEDFF8902CDFF83B
:10452000903C0EF0A3FE13F0B5FE08EE100A10F05A
:104530005AF8DFF8801C12F0C9F9B0EE480A13F0FF
:10454000F1FED4A112F0C2F9DFF86C1C12F00FFBDF
:1045500041F222500421815503F038B906F5C050CC
:1045600078300EF060FDC0B2002803D041F2225036
:104570000521815503F02AB906F58850703012F0F4
:10458000D1FF012801D1012000E00020C0B20028A5
:1045900053D006F5B050001D13F028FF002806D1B7
:1045A00016F5AB500078002801D1012000E0002072
:1045B000C0B200283DD016F5B3500021017006F5B9
:1045C000B05038300EF024FD41F2C45016F5AE5113
:1045D0000968815110F007F8DFF8DC1B12F0C7FA08
:1045E000DFF8901412F072F9040006F21C200FF0AC
:1045F000E9F90100200013F03CFC0FF0F4FFA5A145
:1046000012F064F9DFF8B01B12F0B1FA06F5885029
:10461000703013F0D9F906F58050D03013F0EDFE6C
:1046200042F270000221815541F22250062181554B
:1046300003E041F222500A21815503F0C7B806F584
:10464000B05038300EF0EFFCC0B2002846D041F236
:10465000C450805900282CD006F5B05038300EF0E8
:10466000D7FC41F2C4508059401E41F2C4518851D8
:104670000FF0B9FF88A112F029F9DFF8E81D12F058
:1046800076FA41F2C45080593C21B0FBF1F201FBB3
:104690001200002805D10FF0A6FFDFF81C1B12F056
:1046A00066FA06F5A851C43106F21C2010F098F8FD
:1046B00026E00FF098FFDFF8001B12F058FA16F50D
:1046C000AE5106F21C2010F08BF842F2700003216C
:1046D000815541F222500721815511E006F588509D
:1046E000703012F01FFF012801D1012000E00020EE
:1046F000C0B2002804D006F5885070300BF080FC62
:1047000003F064B806F58850703012F00BFF0128F2
:1047100001D1012000E00020C0B2002828D016F509
:10472000B3500121017006F5B05068300EF0B1FCB5
:1047300006F284200FF004FA002801D0012000E0E6
:104740000020C0B2002805D006F58850703013F064
:1047500043F904E006F58850703013F035F906F59A
:104760008050D03013F049FE41F222500A21815589
:1047700003F02CB806F58850703012F0D3FE0128F3
:1047800001D1012000E00020C0B2002819D016F5A8
:10479000BB5106F5885070300CF0EEFA0FF023FF95
:1047A000DFF8DC1D12F092F8DFF80C1A12F0DFF9D6
:1047B00006F5885070300BF023FC41F2225009219D
:1047C000815503F003B806F58850703012F0AAFE48
:1047D000012801D1012000E00020C0B200283DD016
:1047E00016F5B550D0E9002343EC102B300004F04F
:1047F0002EFF51EC100B06F5B052A832C2E90001B1
:104800000FF0F1FEDFF8901E12F060F806F5B051DF
:10481000A831D1E9002343EC102B13F0C7FA0FF0B5
:10482000E2FE95A112F052F8DFF88C1912F09FF910
:1048300006F5B851D03106F5885070300CF09CFA6E
:104840000FF0D1FEDFF88C1612F040F8DFF868198F
:1048500012F08DF941F222500B21815502F0B6BFC2
:1048600006F58850703012F05DFE012801D101205C
:1048700000E00020C0B200281AD006F5B851D031AF
:1048800006F5885070300CF077FA0FF0ACFEDFF8C8
:10489000441603E0206300002E00000012F016F81A
:1048A000DFF8141912F063F941F222500B218155FF
:1048B00002F08CBF06F58050D0300BF00DFAC0B27C
:1048C000002801D0012000E00020C0B200283BD029
:1048D00006F5A850383006F5A8515031D1E900232B
:1048E000C0E9002306F5A8505030D0E9002343EC7E
:1048F000102B06F58050D0300BF0A0F816F5AA501A
:1049000006F5A8515831D1E90023C0E9002341F24E
:1049100024500021815141F228501421815106F583
:10492000B050D03000220023C0E9002306F58050AB
:10493000D0300AF093FF06F5B050FC3013F079FB4D
:1049400041F222500C21815502F040BF06F5805003
:10495000D0300BF0C1F9C0B2002801D0012000E036
:104960000020C0B200280ED0012106F5C050E8306A
:104970000CF009FE002116F5D35013F058FC41F25B
:1049800022500D21815502F021BF06F5885070306C
:1049900012F0C8FD01280DD106F5C050E8300CF02A
:1049A00055FEC0B2012801D0012000E0002090F0A7
:1049B000010000E00020C0B2002808D006F58850B1
:1049C00070300BF01DFB41F222500E21815502F098
:1049D000FDBE06F58850703012F0A4FD012801D10B
:1049E000012000E00020C0B2002800F0FB810DF59E
:1049F000906106F5885070300CF05DFD0DF580611A
:104A0000D1E9200141EC180B002106F5C050E83037
:104A10000CF0B9FD012116F5D35013F008FC06F592
:104A20008850703013F0EDFC51EC180B31F0004160
:104A300041EC190B53EC102BDFF8600CDFF8601C15
:104A40000EF014FC02000B0051EC190B13F06EF980
:104A500018D241F224508059002813D041F22C5032
:104A6000805D03280ED001200DE000BFAC1F0608BA
:104A7000E00906083035060820B043000000F03F8A
:104A800054CC05080020C0B2002800F0A78151ECEA
:104A9000180B31F0004141EC100B06F5B052B83262
:104AA000D2E9000153EC102B13F040F91FD251EC66
:104AB000180B31F0004141EC100B06F5B050B83046
:104AC00053EC102BC0E9002306F5A8503830D0E98C
:104AD000002343EC102B51EC100B31F0004141EC62
:104AE000100B16F5B65053EC102BC0E9002306F559
:104AF0008050D0300BF09CF80FF05AFECDE9CC017D
:104B000051EC180BCDE9CE010DF58061D1E9220100
:104B1000CDE9D00151EC180BCDE9D201CCA906F5B5
:104B2000B050FC3013F072FC06F5B050FC3013F0BE
:104B300090FC41F20C718959884201D3012000E0B8
:104B40000020C0B2002800F0448141F20C7083596B
:104B5000002206F5B051FC31300002F081FF53EC29
:104B6000102B0020DFF81C1E13F0E0F941EC100BB5
:104B700013F076FC51EC100B06F5A8524832C2E94E
:104B8000000106F5B050FC3013F063FC022801D39D
:104B9000012000E00020C0B2002850D041F20C708B
:104BA0008059411E06F5B050FC3013F090FC040013
:104BB00041F20C708059811E06F5B050FC3013F0A4
:104BC00086FCD0E90023D4E9000112F041FF41EC5A
:104BD000100B53EC102B002000210EF021FC2ED0E6
:104BE00041F20C708059411E06F5B050FC3013F0B4
:104BF0006EFC040041F20C708059811E06F5B05025
:104C0000FC3013F064FCD0E90223D4E9020112F075
:104C10001FFF06F5A8543834D4E900230EF010FC29
:104C200041EC100B51EC100B31F0004141EC100B3A
:104C300006F5B050D03053EC102BC0E900230FF034
:104C4000D2FC040002217CA80FF01BFD7CA92000EF
:104C50000FF020FD41F224518959491C11F02AFF1F
:104C60009AA111F033FE0FF0BEFC040008217AA8CF
:104C70000FF007FD7AA920000FF00CFD06F5A851F2
:104C80003831D1E9002343EC102B13F08FF88FA1BA
:104C900011F01CFE0FF0A7FC0400082178A80FF00B
:104CA000F0FC78A920000FF0F5FC16F5AA51D1E927
:104CB000002343EC102B13F079F884A111F006FEC9
:104CC0000FF091FC04000C2176A80FF0DAFC76A915
:104CD00020000FF0DFFCB0EE480AF0EE680A13F097
:104CE00065F87AA111F0F2FD0DF58063D3E9222376
:104CF0000020DFF8AC1D0EF0B9FA41EC100B51ECBE
:104D0000100B31F0004141EC180B0FF06CFC04006B
:104D1000082174A80FF0B5FC74A920000FF0BAFCAC
:104D2000B0EE480AF0EE680A13F040F8DFF8741DA0
:104D300011F0CCFD0FF057FCDDF8A81411F0BAFE0D
:104D4000DFF8741411F013FF0FF04DFCDFF8381C7E
:104D500011F0BCFD0400082172A80FF092FC72A9AA
:104D600020000FF097FC06F5A8514831D1E9002347
:104D700043EC102B13F01AF80FF035FCDFF8381461
:104D800011F0F5FEDDE9CC010022002313F0A4FBB5
:104D900008D841F210700121815542F270000621BD
:104DA000815507E041F210700021815542F27000F8
:104DB0000421815541F22C50805D022804D141F23A
:104DC0002250152181550DE041F222501B218155C1
:104DD00008E041F222501021815503E041F22250B7
:104DE0001021815502F0F2BC0DF5896106F588505D
:104DF00070300CF060FB0DF58061D1E9120141ECDF
:104E0000190B41F224508059002840F0C88041F22B
:104E10007860805D002800F0C28006F58850703010
:104E200013F0EFFA51EC190B31F0004141EC180B83
:104E300053EC102BDFF8540BDFF8541B0EF016FA6E
:104E400002000B0051EC180B12F070FF01D301208F
:104E500000E00020C0B2002840F0A18014249FEDA3
:104E6000DD8B2500002C00D56D429FEDD4AB07E013
:104E700051EC180B53EC182B0EF0F8F941EC180B11
:104E80002800C00707D551EC1A0B53EC182B0EF075
:104E9000EDF941EC1A0B6D08002DE9D1002C1BD562
:104EA00053EC1A2B002000210EF0BAFA02D19FED2C
:104EB000C5AB11E00020DFF8B81E53EC1A2B0EF042
:104EC000BFFA41EC1A0B07E078CC0508203A200025
:104ED000F4090608E4C0050851EC190B31F0004153
:104EE00041EC180B51EC1A0B0022DFF8883E0EF053
:104EF000A7FA53EC182B0EF0B9F941EC100B13F094
:104F000002FB53EC102B0020DFF86C1E13F00EF8A0
:104F100041EC100B13F0A4FA51EC100B0FF0F0FC65
:104F200041F228518959091A491E41F224529151DE
:104F30009FEDA80B13F0F1FA51EC100B0FF0E0FC11
:104F400005002C0051EC190B0022002313F0C4FAC9
:104F500000D26D4228000FF02BFC06F5A852383223
:104F6000C2E9000120000FF023FC16F5AA52C2E9A5
:104F700000010FF038FBDFF8041E11F0A7FC0FF062
:104F800032FB290013F0ECFA0FF02DFB93A111F086
:104F90009DFC210013F0E4FA874911F0E8FD41F28D
:104FA0002450805941F228518959884280F01A8151
:104FB00041F224508059401C41F2245188510FF095
:104FC00012FB0400022170A80FF05BFB70A9200007
:104FD0000FF060FB41F22451895911F06BFD80A163
:104FE00011F074FC0FF0FFFA040008216EA80FF016
:104FF00048FB6EA920000FF04DFB06F5A851383193
:10500000D1E9002343EC102B12F0D0FE74A111F073
:105010005DFC0FF0E8FA040008216CA80FF031FBEA
:105020006CA920000FF036FB16F5AA51D1E9002338
:1050300043EC102B12F0BAFE69A111F047FC0FF0FF
:10504000D2FA04000C216AA80FF01BFB6AA9200009
:105050000FF020FBB0EE490AF0EE690A12F0A6FE4E
:105060005FA111F033FC0DF58063D3E91423002018
:10507000DFF82C1A0EF0FAF841EC100B51EC100B83
:1050800031F0004141EC180B0FF0ADFA040008219B
:1050900068A80FF0F6FA68A920000FF0FBFAB0EE4E
:1050A000480AF0EE680A12F081FEDFF8F81911F0F4
:1050B0000DFC0FF098FADDF8701411F0FBFC3E497E
:1050C00011F055FD06F5B052D032D2E900010022B0
:1050D000002313F001FA25D251EC190B31F00041F5
:1050E00041EC180B06F5B050D030D0E90023002079
:1050F000DFF890180EF0BAF802000B0051EC180B14
:1051000012F014FE0ED241F22C50805D022804D120
:1051100041F222501521815586E041F222501B2197
:10512000815581E051EC190B0022002313F0D4F9D2
:1051300010D206F5A8503830D0E9002316F5AA544D
:10514000D4E9000112F0F2FE06F5A8523832C2E9A5
:1051500000010FE006F5A8523832D2E9000116F539
:10516000AA54D4E9002312F073FC06F5A852383291
:10517000C2E9000116F5AA50D0E900230020DFF8AB
:1051800004180EF073F841EC100B13F069F951ECB0
:10519000100B16F5AA52C2E9000141F2225011216A
:1051A000815541E09CCC0508C0CC0508FCA9F1D292
:1051B0004D62503F542806089FB4050800000000C7
:1051C0000000F03F000000000000F07F088E00208B
:1051D000B00000200000000000000040200000009F
:1051E000203A200006F58050D0300AF021FD0FF063
:1051F000DFFA06F5A8524832C2E9000141F22C500C
:10520000805D022802D0032805D009E041F2225037
:105210001521815508E041F222501421815503E007
:1052200041F222501B21815502F0D0BA06F5805080
:10523000D0300AF051FDC0B2002801D0012000E0BA
:105240000020C0B200280FD006F5A8503830D0E9B1
:10525000002343EC102B06F58050D0300AF0EEFB13
:1052600041F222501221815502F0B0BA06F5805069
:10527000D0300AF031FDC0B2002801D0012000E09A
:105280000020C0B200280ED0012106F5C050E83041
:105290000CF079F9002116F5D35012F0C8FF41F255
:1052A00022501321815502F091BA06F5C050E83022
:1052B0000CF0CCF9C0B2012801D1012000E000209F
:1052C000C0B2002803D041F222500D21815502F0D6
:1052D0007DBA0FF088F9DFF8D81D11F0F7FADFF882
:1052E000F81D11F044FC0FF07EF9DFF8C81D11F035
:1052F000EDFA06F5A8514831D1E9002343EC102B13
:1053000012F054FDDFF8D01D11F031FC16F5AB5052
:1053100000788DF8880106F5A8504830D0E90023C0
:10532000CDE96423DDE96401CDE9660162A906F5F2
:10533000B050EC3013F071F941F2DC608059401C40
:1053400041F2DC61885116F5AB500078002810D18D
:1053500006F5A8509830DDE96623C0E9002316F56C
:10536000AD5006F5A8514831D1E90023C0E900232A
:1053700010E006F5A8508830DDE96623C0E9002377
:1053800006F5A850903006F5A8514831D1E9002320
:10539000C0E9002341F21460805D002811D1012191
:1053A00006F5A050C8300AF047F806F5D05038305E
:1053B000D0E9002343EC102B06F5885070300CF038
:1053C00095F806F5A850B030D0E9002306F58050D6
:1053D000D0300AF039FC41F222502421815502F0EC
:1053E000F5B906F5A8523832D2E9000106F5A854FD
:1053F0004834D4E9002312F02BFB5FF03332DFF89E
:10540000B83C0DF033FF41EC100B13F04BF951ECAD
:10541000100B31F0004141EC100B06F5A850E830BC
:1054200053EC102BC0E9002306F5A8504830D0E912
:10543000002306F5A854E834D4E9000112F076FD03
:1054400002000B0014001D0006F58050D03013F050
:1054500031F951EC100B22002B0012F067FC03D243
:10546000012002E0792706080020C0B2002813D0EE
:1054700006F58050D03013F01DF951EC100B06F5F5
:10548000A8544834D4E9002312F0E2FA06F5A852F1
:10549000E832C2E9000132E006F58050D03013F066
:1054A0005DF953EC102B14001D0006F5A85248328C
:1054B000D2E9000106F5A857E837D7E9002312F032
:1054C000C7FA22002B0012F031FC01D2012000E0CB
:1054D0000020C0B2002812D006F58050D03013F062
:1054E0003DF953EC102B06F5A8544834D4E90001DB
:1054F00012F0AEFA06F5A852E832C2E9000106F54C
:10550000A8523832D2E9000106F5A8544834D4E94B
:10551000002312F09DFADFF8A42BDFF8A43B0DF076
:10552000A5FE41EC100B13F0BDF851EC100B31F05F
:10553000004141EC100B06F5A850F03053EC102B55
:10554000C0E9002306F5A8504830D0E9002306F54D
:10555000A854F034D4E9000112F0E8FC02000B007A
:1055600014001D0006F58050D03013F0A3F851EC64
:10557000100B22002B0012F0D9FB03D2012002E015
:105580000CC105080020C0B2002813D006F58050D9
:10559000D03013F08FF851EC100B06F5A8544834B6
:1055A000D4E9002312F054FA06F5A852F032C2E909
:1055B000000132E006F58050D03013F0CFF853EC04
:1055C000102B14001D0006F5A8524832D2E9000144
:1055D00006F5A857F037D7E9002312F039FA220070
:1055E0002B0012F0A3FB01D2012000E00020C0B28A
:1055F000002812D006F58050D03013F0AFF853ECED
:10560000102B06F5A8544834D4E9000112F020FA12
:1056100006F5A852F032C2E9000106F5A852383268
:10562000D2E9000106F5A8544834D4E9002312F069
:105630000FFAD64AD64B0DF019FE41EC100B13F0C1
:1056400031F851EC100B31F0004141EC100B06F534
:10565000A850F83053EC102BC0E9002306F5A850F1
:105660004830D0E9002306F5A854F834D4E9000105
:1056700012F05CFC02000B0014001D0006F58050C7
:10568000D03013F017F851EC100B22002B0012F061
:105690004DFB07D2012006E0BC1F0608AE47E17AA9
:1056A00014AEEF3F0020C0B2002813D006F58050A2
:1056B000D03012F0FFFF51EC100B06F5A85448341F
:1056C000D4E9002312F0C4F906F5A852F832C2E971
:1056D000000132E006F58050D03013F03FF853EC73
:1056E000102B14001D0006F5A8524832D2E9000123
:1056F00006F5A857F837D7E9002312F0A9F92200D8
:105700002B0012F013FB01D2012000E00020C0B2F8
:10571000002812D006F58050D03013F01FF853EC5B
:10572000102B06F5A8544834D4E9000112F090F982
:1057300006F5A852F832C2E900010EF054FFDFF876
:10574000841911F0C3F8DFF8901911F010FA06F57A
:10575000A850D83012F07DFE002802D0022825D0B3
:1057600068E006F5A8504830D0E9002306F5A854B3
:10577000F034D4E9000112F0D9FB06F5A852383212
:10578000C2E900010EF02FFFDFF83C1911F09EF87E
:1057900006F5A851F031D1E9002343EC102B12F0AB
:1057A00005FBDFF8341911F0E2F967E006F5A852BD
:1057B0004832D2E9000106F5A8543834D4E9002370
:1057C00012F0B4FA11D206F5A8504830D0E90023FF
:1057D00006F5A854F834D4E9000112F0A7FB06F549
:1057E000A8523832C2E9000110E006F5A85248324A
:1057F000D2E9000106F5A854F834D4E9002312F0E8
:1058000027F906F5A8523832C2E900010EF0EBFE86
:10581000DFF8B41811F05AF806F5A851F831D1E9BB
:10582000002343EC102B12F0C1FADFF8AC1811F092
:105830009EF923E006F5A8504830D0E9002306F58C
:10584000A854E834D4E9000112F070FB06F5A85220
:105850003832C2E900010EF0C6FEDFF86C1811F014
:1058600035F806F5A851E831D1E9002343EC102BB7
:1058700012F09CFADFF8601811F079F906F5A850DB
:10588000D83012F0E6FD002801D1012000E0002010
:1058900006F5C051083106F5885070300BF06CFAEF
:1058A0000EF0A1FEDFF8241811F010F8DFF8281828
:1058B00011F05DF906F5A850B830D0E9002306F5DF
:1058C0008050D0300AF0C0F941F2245000218151BB
:1058D00041F230500221815141F22250162181556E
:1058E00001F074BF06F58050D0300AF0F5F9C0B26F
:1058F000002801D0012000E00020C0B200283ED0E6
:1059000006F5A8503830D0E9002343EC102B06F5FB
:105910008050D0300AF092F80EF065FE04000221AB
:1059200080A80EF0AEFE80A920000EF0B3FE41F27A
:1059300024518959491C11F0BDF816A110F0C6FF79
:105940000EF051FE040008217EA80EF09AFE7EA9FA
:1059500020000EF09FFE06F5A8513831D1E9002352
:1059600043EC102B12F022FA0AA110F0AFFFDFF87F
:10597000601711F0FCF841F222501721815501F017
:1059800025BF00BF0000E03F40350608CDCCCCCCA1
:10599000CCCCEC3F203A200006F58050D0300AF005
:1059A0009BF9C0B2002801D0012000E00020C0B265
:1059B000002815D006F58850703011F0B3FD01288D
:1059C00001D1012000E00020C0B2002808D006F577
:1059D000885070300AF014FB41F222501821815592
:1059E00001F0F4BE06F58850703011F09BFD0128DF
:1059F00001D1012000E00020C0B2002863D0BEA980
:105A000006F5885070300BF056FDDDE9CA0141EC17
:105A1000190BDDE9BE0141EC180B06F58050D030C2
:105A20000AF006F90EF0C4FECDE9B40151EC190BF1
:105A3000CDE9B601DDE9C001CDE9B80151EC190BA2
:105A4000CDE9BA01C898BC90B4A906F5A850D830E1
:105A500012F0DCFC0EF0C7FD04000C2160A80EF073
:105A600010FE60A920000EF015FEB0EE480AF0EE20
:105A7000680A12F09BF9DFF85C1610F027FF0EF0B1
:105A8000B2FD0400DDE9B823002005490DF0EEFB6E
:105A900041EC100B200012F089F9024904E000BF2C
:105AA00080842E413835060810F010FF0EF09BFD63
:105AB000C89910F0FFFFDFF8201611F058F841F2F6
:105AC00022501921815501F081BE41F224508059A4
:105AD00041F230518959491E884269D241F224501D
