:020000040800F2
:10000000F0BC01206133060811E3010821E3010877
:1000100031E3010841E3010851E301080000000059
:1000200000000000000000000000000061E3010883
:1000300071E301080000000081E3010891E3010879
:100040001DE701081DE701081DE701081DE701087C
:100050001DE701081DE70108A1E301081DE70108EC
:100060001DE70108BDE301081DE701081DE70108C0
:100070001DE701081DE701081DE701081DE701084C
:100080001DE701081DE701081DE701081DE701083C
:100090001DE701081DE701081DE70108DBE3010872
:1000A0001DE7010873E401081DE701081DE70108C9
:1000B0001DE70108B3E401081DE701081DE7010879
:1000C0001DE701081DE701081DE701081DE70108FC
:1000D0001DE701083DE601084DE601085DE601085F
:1000E000C3E401081DE701081DE701086DE50108EB
:1000F0009FE501081DE70108D3E501081DE7010898
:100100001DE701086DE601081DE701081DE701086C
:100110007DE601088DE601081DE701081DE70108DD
:100120009DE60108ADE60108BDE60108CDE601083F
:100130001DE701081DE701081DE701081DE701088B
:100140001DE701081DE701081DE70108EDE60108AC
:100150001DE70108DDE601081DE70108FDE60108CD
:100160001DE701081DE701081DE701081DE701085B
:100170001DE701080DE701081DE701081DE701085B
:100180001DE7010880B516480078002806D1002137
:1001900014480AF0DCFB1248012101701248007873
:1001A000002806D1002111480AF0D1FB0E48012198
:1001B00001700F480078002806D100210D480AF090
:1001C000C6FB0B48012101700B480078002806D1BE
:1001D00000210A480AF0BBFB07480121017001BD5C
:1001E0000B900020108F00200C900020188F002012
:1001F0000D900020148F00200E9000200C8F002006
:1002000070B52DED048BC0B00400216000230022E6
:100210000021201D0AF09DFB206800F2C01114F59A
:1002200003600BF013FD206800F278100090206846
:1002300000F26813206800F25812012104F67800D9
:100240000EF020FE04F6C8000FF046F82068D0F843
:10025000AC312068B0F9AA212068B0F9A81104F6E1
:1002600018100FF064F914F516600FF0D5FA04F6C3
:100270007C100FF0F3FA04F688100FF0EFFA04F692
:1002800094100FF0EBFA14F51A600FF0F1FA002158
:1002900014F523600FF08AFB04F634200FF000FC05
:1002A000002214F52461201D0FF0E6FC820820686E
:1002B00010F1A00114F5246010F0C1FB01201D9085
:1002C0001DA810F0C7FECDE90401402002900020D7
:1002D0000190012000904FF48053206810F1D80263
:1002E000206800F2283104F6083012F0C2FA002328
:1002F000002204F6083104F6684012F00DFB04F603
:10030000684204F6083104F58050D83007F018FD33
:1003100000200290206800F24C200190206800F23A
:100320003C200090206800F22C23206800F21C2260
:10033000206800F2FC2114F5875012F089FD14F5B5
:10034000875104F5885028300BF072F9206800F2CC
:100350005433206800F2CC12206800F2D02104F55A
:100360008850C8300BF006FD64201C901CA812F0C9
:1003700081FFCDE9240124A904F5A050103013F029
:1003800038F84FF4FA701B901BA812F073FFCDE9F8
:10039000220122A914F5A15013F02BF84FF47A7022
:1003A0001A901AA812F066FFCDE9200120A904F5E1
:1003B000A050303012F0DCFF41F2484000210155DE
:1003C000DFF8441D38A813F0F5F86420199019A837
:1003D00012F050FF00220492CDE9020100200090AB
:1003E00038AB206800F27C22206800F28C2104F5F2
:1003F000A05050300AF0CEFF38A813F0EBF8DFF829
:100400000C1D30A813F0D6F86420189018A812F02C
:1004100031FF00220492CDE902010020009030ABB0
:10042000206800F29C22206800F2AC2104F5A05064
:10043000B8300AF0AFFF30A813F0CCF8DFF8D01CCA
:1004400028A813F0B7F802000123206800F2BC21AD
:1004500014F5A9500AF00CFF28A813F0BBF841F2DC
:1004600078500021015541F279500021015541F2A7
:100470007A500021015541F27C500021015114F5C0
:10048000AC501421016041F284500221015541F227
:1004900088500321015141F28C500121015104F592
:1004A000A850903000220023C0E9002304F5A85092
:1004B000983000220023C0E9002314F5AD5000223B
:1004C0000023C0E9002304F5A850A830002200232F
:1004D000C0E9002312259FED1A8B2E00002D00D5B8
:1004E00076429FED199B07E051EC180B53EC182B4B
:1004F00013F084F841EC180B3000C00707D551EC1D
:10050000190B53EC182B13F079F841EC190B760802
:10051000002EE9D1002D1FD553EC192B002000210E
:1005200013F046F902D19FED0A9B15E00020DFF899
:10053000E41B53EC192B13F04BF941EC190B0BE0B6
:100540000000000000000040000000000000F03F3C
:10055000000000000000F07F04F5A850B03053EC1C
:10056000192BC0E9002341F2B8500021015514F5C0
:10057000AE500022DFF89C3BC0E9002304F5A850F0
:10058000C8300022DFF88C3BC0E9002304F5A850F6
:10059000D03000220023C0E9002304F5A850D83051
:1005A00000220023C0E9002314F5AF5000220023ED
:1005B000C0E9002304F5A850E83000220023C0E978
:1005C000002304F5A850F03000220023C0E90023E6
:1005D00004F5A850F83000220023C0E9002364206D
:1005E000179017A812F046FE14F5B052C2E90001A8
:1005F0006420169016A812F03DFE04F5B0520832A1
:10060000C2E900016520159015A812F033FE04F52B
:10061000B0521032C2E9000141F2186005210151C7
:1006200014F5B15013F0F7F904F5B050303013F071
:10063000F2F914F5B25000220023C0E9002304F5BA
:10064000B050483000220023C0E9002304F5B05028
:10065000503000220023C0E9002341F258600121FC
:10066000015504F5B0505C3013F0E5F941F26C60CF
:100670000021015541F26D600021015504F5B05093
:10068000703000220023C0E9002341F2786000218D
:10069000015541F279600021015514F5B450002252
:1006A0000023C0E9002341F28860002101550020A9
:1006B00013904FF47A70149014AA13A904F5B05053
:1006C000903012F025FE41F2A8600021015141F264
:1006D000AC600021015141F2B0600021015141F2B2
:1006E000B4600021015141F2B860002101554FF47E
:1006F0007A70129012A812F0BDFDCDE91E011EA95C
:1007000014F5B65012F075FE41F2D060002101558B
:1007100004F5B050F03000220023C0E9002304F5B6
:10072000B050F83000220023C0E9002314F5B8507F
:1007300000220023C0E9002341F208700021015586
:1007400004F5B850103000220023C0E9002304F55E
:10075000B850183000220023C0E9002314F5B95026
:100760000021017004F5B850283000220023C0E9B0
:10077000002341F230700021015141F23470002118
:10078000015141F238700121015141F23C700521C3
:10079000015114F5BA500021016004F5B8504430FD
:1007A00013F059F904F5B850543013F034F941F20C
:1007B00064700221015141F268700021015504F575
:1007C000B85070300022DFF84C39C0E9002304F53E
:1007D000B85078300022DFF83C39C0E9002341F2FC
:1007E000B0700021015541F2E8700021015514F567
:1007F000C1500021017041F658000021015541F619
:1008000090000021015514F5B05104F5C050D030CE
:1008100012F0AEFD206810F1E80104F5C050E83098
:100820000CF0E6FD41F668100021015504F5C850B2
:10083000703000220023C0E9002304F5C85078304E
:1008400000220023C0E9002314F5CC50002200232D
:10085000C0E9002304F5C850A83000220023C0E9F5
:10086000002304F5C850B03000220023C0E9002363
:100870006420119011A812F0FDFC04F5C852B832A2
:10088000C2E9000114F5CE5000220023C0E9002384
:1008900004F6546013F0EFF8050004F6546013F00A
:1008A000EAF80200290014F5CF5013F0F3F814F51C
:1008B000D15000220023C0E9002304F5D050283095
:1008C00000220023C0E9002304F5D050303000227C
:1008D0000023C0E9002304F5D0503830DFF8C82CDD
:1008E000DFF8C83CC0E9002314F5D2500022DFF83D
:1008F0002438C0E9002304F5D050483000220023FA
:10090000C0E9002304F5D05050300022DFF804384D
:10091000C0E9002341F658200121015141F65C2035
:100920004FF47A71015104F2AC70109004F58050CC
:100930006C300F9004F2A4700E9004F58050643077
:100940000D9004F29C700C9004F294700B9004F5DE
:1009500080505C300A9004F28C70099004F284702C
:10096000089004F27C70079004F27470069004F210
:100970006C70059004F26470049004F25C70039053
:1009800004F25470029004F24C700190206800F25E
:10099000EC300090206800F2DC33206800F2CC32AA
:1009A000206800F2BC3114F5D3500CF0F3FE04F5CE
:1009B000E850B0300022DFF85C37C0E9002304F5CE
:1009C000E850B830DFF8E02BDFF8E43BC0E9002363
:1009D00014F5EE500022DFF83C37C0E9002304F59F
:1009E000E850C83000220023C0E9002304F5E85095
:1009F000D0300022DFF8BC3BC0E900239FED8C1B08
:100A00009FED8D0B04F25C7104F5E850D8300DF0C9
:100A1000DEFB04F624000E9004F618000D9004F698
:100A20000C000C9004F2FC700B9004F2F4700A902D
:100A300004F2EC70099004F2E470089004F2DC70A7
:100A4000079004F2D470069004F2CC70059004F282
:100A5000C470049004F2BC70039004F2B47002906D
:100A600000200190206800F29C30009014F5EE50B8
:100A7000D0E9002343EC122B04F5E850B830D0E95C
:100A8000002343EC112B04F5E850B030D0E90023EB
:100A900043EC102B4623206800F2583204F5E8514D
:100AA000D83104F5E850F03013F00DF804F5E851B2
:100AB000F03104F5F05050300DF0EFFB04F58050AC
:100AC000CC30109014F586500F9004F58050B4305F
:100AD0000E9004F58050A4300D9004F580509C30A9
:100AE0000C9004F5805094300B9004F580508C30BD
:100AF0000A9004F580508430099004F580507C30D1
:100B0000089004F580507430079004F62400069095
:100B100004F61800059004F60C00049004F2EC7042
:100B2000039004F2E470029004F2DC70019004F28D
:100B3000D470009004F2CC7304F2C47204F2B47165
:100B400004F5005020300DF091FF42F270000021BA
:100B50000155200000F038FD200000F04AFD12F0A1
:100B6000FFFF009003A800A9042212F0FFFF14F574
:100B70005B6013F036F88DF80C0004F6B85013F0F3
:100B800030F88DF80D0014F55C6013F02AF88DF83C
:100B90000E0004F6C85013F024F88DF80F0012F080
:100BA000DFFF009002A800A9042212F0DFFF14F575
:100BB0005D6013F016F88DF8080004F6D85013F0B5
:100BC00010F88DF8090014F55E6013F00AF88DF83E
:100BD0000A0004F6E85013F004F88DF80B0012F048
:100BE000BFFF009001A800A9042212F0BFFF14F576
:100BF0005F6012F0F6FF8DF8040004F6F85012F072
:100C0000F0FF8DF8050014F5606012F0EAFF8DF832
:100C1000060004F6086012F0E4FF8DF8070014F5F2
:100C2000616012F0EFFF00280AD0012009E000BF48
:100C300000000000008041400000000000002E4045
:100C40000020C0B20090019B029A03992068A8304E
:100C500013F062F8206810F1A8010BA80CF050FC0A
:100C600013F023FD0500082126A813F067FD26A92F
:100C7000280013F071FD04F6684012F0FCFE41F20A
:100C80005861085504F5B051583114F11C0013F0A7
:100C900073FD14F5476013F07CFD04F5A850C830CF
:100CA00053EC102BC0E9002304F5A851C83114F10E
:100CB000B40013F098FD04F6784013F06AFD14F5C3
:100CC000AE5053EC102BC0E9002314F5AE5114F1D3
:100CD000BC0013F088FD14F55A6114F1D40013F030
:100CE0008FFD04F6A85114F1DC0013F089FD14F512
:100CF000486012F0C0FE0100C9B204F588502830E7
:100D00000AF05CFE04F5885028300AF0E1FE8DF808
:100D100001000DF1010104F2981013F02DFD04F60D
:100D2000884012F0A8FE41F28851085141F28850E3
:100D300000598DF8000000A904F2A01013F01CFD6A
:100D400014F5496012F097FE0A900AA812F092FA80
:100D500004F5B0520832C2E9000114F5496104F209
:100D6000FC1013F061FD04F5C850B830D0E9002341
:100D700004F5885028300AF0B1FE04F6885012F0CD
:100D80007AFE099009A812F075FA04F5B0521032F3
:100D9000C2E9000104F6885104F2A03013F044FDCA
:100DA00004F6984012F067FE089008A812F062FA64
:100DB00014F5B052C2E9000104F6984104F204208F
:100DC00013F032FD14F54A6013F0E3FC14F5B4504F
:100DD00053EC102BC0E9002314F5B45104F20C209D
:100DE00013F001FD04F6A84013F02EFD13F042FDB0
:100DF00014F5B452C2E9000114F5B45104F20C2008
:100E000013F0F1FC14F54B6012F035FE41F218615D
:100E1000085104F5B051183104F21C2013F042FDC2
:100E2000200007F0DFF904F6246104F2C83013F063
:100E3000E7FC04F6246013F0ACFC04F5C8507030F5
:100E400053EC102BC0E9002304F62C6104F2D030DF
:100E500013F0D6FC04F62C6013F09BFC04F5C8508C
:100E6000783053EC102BC0E9002304F6346104F20F
:100E7000D83013F0C5FC04F6346013F08AFC14F586
:100E8000CC5053EC102BC0E9002304F5C850283097
:100E90000022DFF82437C0E9002304F5C8503030C1
:100EA00000229C4BC0E9002304F5C85038300022D2
:100EB0000023C0E9002314F5CA5000220023C0E932
:100EC000002304F5C850483000220023C0E9002365
:100ED00041F650100021015141F6541000210151FA
:100EE00004F5C850583000220023C0E9002314F54F
:100EF000CB50DFF8B426DFF8C436C0E9002304F68F
:100F00003C6104F2E83013F07BFC04F63C6013F023
:100F100040FC04F5C850A83053EC102BC0E9002366
:100F200004F6446104F2F03013F06AFC04F6446005
:100F300013F02FFC04F5C850B03053EC102BC0E96F
:100F4000002304F5C850883004F5C851A831D1E910
:100F50000023C0E9002304F5C8509030002200238C
:100F6000C0E9002304F5C850983000220023C0E9EE
:100F7000002304F58850C8300BF00EF804F5C85073
:100F8000B030D0E9002351EC100B12F037FB14F510
:100F9000CD52C2E9000104F64C6114F5816013F0F2
:100FA0002FFC04F64C6013F0F4FB14F5CE5053EC18
:100FB000102BC0E9002304F5C850C83000220023DC
:100FC000C0E9002304F5C850D03000220023C0E956
:100FD000002304F58850C8300AF0DEFF14F5CE5027
:100FE000D0E9002351EC100B12F008FB04F5C852B5
:100FF000D832C2E9000104F6546114F5866013F09A
:1010000013FC04F65C6013F0C4FB04F5D0502830E8
:1010100053EC102BC0E9002304F5D0502830D0E960
:10102000002343EC102B200007F01EF851EC100BAE
:1010300014F5D152C2E9000104F5D051283114F55C
:10104000886013F0D0FB14F5D15114F5876013F0CC
:10105000CAFB04F6646013F09CFB04F5D0503030FA
:1010600053EC102BC0E9002304F5D051303114F5B6
:10107000896013F0B8FB14F54C6013F08AFB04F59B
:10108000B050E83053EC102BC0E9002304F5B05108
:10109000E83104F2403013F0A6FB14F54F6013F072
:1010A00078FB04F5885028300AF069FD04F5885073
:1010B00028300AF06EFD51EC100BCDE90E010EA99F
:1010C00004F2783013F08FFB04F6F84013F061FB64
:1010D00004F5885028300AF057FD04F58850283070
:1010E0000AF05CFD51EC100BCDE90C010CA904F2E7
:1010F000803013F078FB04F6085012F083FD0028CE
:101100000AD0012009E000BF8037060888370608AA
:10111000903706080000F03F002041F26C6108554E
:1011200041F26C60015D14F1600013F0C8FB04F63D
:10113000145012F067FD002801D0012000E00020CB
:1011400041F2D061085541F2D060015D04F28C108B
:1011500013F0B5FB14F5526012F054FD002801D0D5
:10116000012000E0002041F26D61085541F26D6000
:10117000015D04F2542013F0A2FB04F62C5012F08F
:1011800041FD002801D0012000E0002014F5B951F4
:10119000087014F5B950017804F2782013F08FFB31
:1011A00014F5576013F050FB41F28C51085104F5CF
:1011B000A8518C3104F2883013F097FB04F6785074
:1011C00013F042FB41F23871085141F23870005976
:1011D000079007A904F2903013F087FB14F55860CC
:1011E00013F032FB41F23C71085141F23C7000595E
:1011F000069006A904F2983013F077FB14F55960B5
:1012000013F0C7FA04F5B850703053EC102BC0E956
:10121000002304F5B851703104F2A83013F0E3FA5A
:1012200004F6385104F2842013F06CFB14F5556178
:1012300004F2103013F066FB04F2103012F0E2FCFE
:10124000002801D0012100E00021C9B204F5885036
:10125000C83013F076FB04F6985013F09AFA04F5B0
:10126000B850783053EC102BC0E9002304F5B85186
:10127000783104F2B03013F0B6FA04F6685012F088
:10128000B0FC0100C9B2200009F04CFB41F28451CE
:10129000085504F6685104F2B42013F055FB04F528
:1012A00080502C3013F075FA04F5D050383053ECE0
:1012B000102BC0E9002304F580512C3114F58E6009
:1012C00013F09EFA04F58050343013F062FA14F5EE
:1012D000D25053EC102BC0E9002304F58051343177
:1012E00014F58F6013F08CFA04F580503C3013F045
:1012F00050FA04F5D050483053EC102BC0E90023CD
:1013000004F580513C3104F22C7013F079FA04F5A5
:101310008050443013F03DFA04F5D050503053EC77
:10132000102BC0E9002304F58051443104F23470DD
:1013300013F066FA04F580504C3013F085FA41F64C
:101340005821085104F580514C3104F23C7013F0DF
:101350000CFB04F58050543013F01BFA51EC100BC9
:1013600013F01AFB41F65C21085104F58051543109
:1013700004F2447013F044FA04F5B050D83000225F
:101380000023C0E9002314F5B75000220023C0E970
:10139000002314F54C6013F0FCF904F5B050E8306C
:1013A00053EC102BC0E9002304F6984012F063FBC5
:1013B000059005A811F05EFF14F5B052C2E90001D6
:1013C00014F55B6114F5936013F0BEFA04F6B8519E
:1013D00014F5946013F0B8FA14F55C6114F5956097
:1013E00013F0B2FA04F6C85114F5966013F0ACFA93
:1013F00014F55D6114F5976013F0A6FA04F6D85160
:1014000014F5986013F0A0FA14F55E6114F5996074
:1014100013F09AFA04F6E85114F59A6013F094FA6E
:1014200014F55F6114F59B6013F08EFA04F6F85121
:1014300014F59C6013F088FA14F5606114F59D6052
:1014400013F082FA04F6086114F59E6013F07CFA3A
:1014500014F5616114F59F6013F054FA04F5C85057
:10146000B830D0E9002304F5A050503009F0EBFF6C
:1014700004F5C850B830D0E9002304F5A050B830C6
:1014800009F0E1FF04F5C850B830D0E9002314F5A5
:10149000A95009F02DFF04F61C6104F2C03013F0CE
:1014A000AFF904F5C850B830D0E9002304F5C050B6
:1014B000E8300BF0D3FF04F6780114F5166013F052
:1014C00097FA04F6C80114F51A6013F0B7FA04F697
:1014D000181114F51A6013F0B3FA04F6941114F508
:1014E0001A6013F0AFFA04F67C1114F51A6013F0C9
:1014F000A9FA04F6881114F51A6013F0A3FA14205F
:10150000049004A811F0B6FE02000B0014F51A6056
:1015100013F0A1FA1420039003A811F0ABFE02000F
:101520000B0014F51A6013F09BFA4FF4FA70029056
:1015300002A811F09FFE02000B0014F51A6013F0D0
:1015400094FA3220019001A811F094FE02000B00E1
:1015500014F51A6013F093FA782013F093FA05004B
:10156000231D04F6941214F51661280015F0B2F943
:10157000010014F5236015F0BCFA002114F5036096
:101580000AF0A3FB13F091F80D4915F0C7FA13F018
:101590008CF8082115F0B6FB0A4915F010FC200064
:1015A00040B0BDEC048B70BD9A9999999999D93F37
:1015B0009999A93F000039400000F0BF9999B93FBF
:1015C00094FA050833B7050810B50400206800F246
:1015D000881104F6C8000DF01DFF206800F2981174
:1015E00004F6C8000DF035FF04F6C8000DF059FFF1
:1015F00010BD10B50400206800F2B01104F61810F8
:101600000EF0F6F804F618100EF0F4F810BD000015
:101610002DE9F0472DED108BADF59C6D060030687F
:1016200012F03AFF16F524600FF000FB06F60830C2
:1016300010F093FF16F5875011F036FD06F588502F
:1016400028300AF0B5FA06F58850C8300AF074FD63
:1016500006F5A050503009F02AFF06F5A050B8302A
:1016600009F025FF16F5A95009F068FE16F503608C
:101670000AF040FB16F5236015F0A4FB15F0B4F951
:1016800006F678000DF0CCFC16F51A6015F0BCFBE0
:1016900006F5C050E8300BF026FF16F5D3500CF0DD
:1016A00076FA06F5F05050300DF00AF806F67C1088
:1016B00015F0DEFC002801D0012000E00020C0B2BF
:1016C000002804D0002116F503600AF0FEFA06F5A2
:1016D000A050103011F0ABFEC0B2002801F04F81D5
:1016E0000021301D15F0CAFC300007F0FDF841F272
:1016F000B0718855300007F062FA41F2E871885500
:10170000300007F0C3FB16F5C1510870300007F038
:1017100026FD41F658018855300007F08BFE41F652
:1017200090018855300007F08CF841F27850805DC8
:10173000012800F0D58006F2B41013F02AF8B0EEBC
:10174000408AF0EE608A06F5885028300AF06EF97B
:1017500053EC182B51EC100B12F02AF801D0012099
:1017600000E00020C0B200280DD006F588502830D7
:101770000AF05CF951EC100BCDE9440144A906F2E2
:10178000B41013F030F806F2BC1013F05DF804004A
:1017900006F5885028300AF095F9844201D00120DE
:1017A00000E00020C0B200280AD006F5885028309A
:1017B0000AF088F9119011A906F2BC1013F095F8FF
:1017C00006F2A81012F01EFA040006F58850283020
:1017D00009F0D6FFC0B2844201D0012000E0002011
:1017E000C0B200280AD006F58850283009F0C8FF9A
:1017F0000100C9B206F2A81013F061F806F29810C1
:1018000012F0EFF9040006F5885028300AF060F96C
:10181000E4B2C0B2844201D0012000E00020C0B296
:1018200000280BD006F5885028300AF051F98DF8C1
:10183000400010A906F2981012F09EFF06F25C100C
:1018400012F0E0F9040006F5A050503009F0EAFD6E
:10185000844201D0012000E00020C0B2002809D05D
:1018600006F5A050503009F0DDFD010006F25C10D5
:1018700013F025F806F2681012F0C4F9040006F51A
:10188000A050B83009F0CEFD844201D0012000E024
:101890000020C0B2002809D006F5A050B83009F0E9
:1018A000C1FD010006F2681013F009F806F23810C5
:1018B00012F0A8F9040016F5A95009F00EFD8442B3
:1018C00001D0012000E00020C0B2002808D016F5A9
:1018D000A95009F002FD010006F2381012F0EFFFE6
:1018E00006F58850C83015F0E5FBC0B2002859D085
:1018F00006F5C051983106F58850C8300BF025FD2B
:1019000016F5C550D0E9002300202E4911F076FECF
:1019100041EC100B51EC100B31F0004141EC100B7D
:1019200051EC100BCDE9420142A916F58C6012F082
:101930005AFF06F5C051A83116F5926012F0D5FF96
:1019400006F5C051B03116F58A6012F04CFF06F56D
:10195000C050B830D0E9002300201A4911F04EFEE3
:10196000CDE9400140A916F58B6012F03CFF41F231
:101970007850805D002815D041F27950805D0228B2
:1019800010D006F5B050F83006F5C0519831D1E9C5
:101990000023C0E9002306F5C051C83106F2F83033
:1019A00012F021FF06F2E41012F0F3FE53EC102BBC
:1019B00006F5B054F834D4E9000111F0F9FE03D073
:1019C000012002E080842E410020C0B2002820D0F7
:1019D00006F5B051F83106F2E41012F004FF06F5F6
:1019E000B050F830D0E9002343EC102B06F5B0508E
:1019F000D83015F000FE06F5B050F03053EC102B47
:101A0000C0E9002306F5B051F03106F2483012F07B
:101A1000EAFE06F2602012F0F5F8002801D001205D
:101A200000E00020C0B2002828D0002106F260208B
:101A300012F045FF06F5B050D83006F5B051F83138
:101A4000D1E90023C0E9002316F5B75006F5B051DF
:101A5000F831D1E90023C0E9002306F5B050F03099
:101A600006F5B051F831D1E90023C0E9002306F5AD
:101A7000B051F03106F2483012F0B5FE16F1900088
:101A800012F0AFF841F27851895DC0B2884201D0BE
:101A9000012000E00020C0B200280AD041F27850B6
:101AA000805D8DF80F000DF10F0116F1900012F01E
:101AB00063FE06F2F41012F06CFE53EC102B16F5D8
:101AC000B854D4E9000111F073FE01D0012000E008
:101AD0000020C0B2002805D016F5B85106F2F41067
:101AE00012F081FE41F27850805D00282CD141F245
:101AF0007950805D022827D116F5A26012F082F895
:101B0000012801D1012000E00020C0B200280CD043
:101B1000002116F5A26012F0D2FE002106F2045058
:101B200012F0CDFE300005F003FF06F2045012F073
:101B300069F8002801D1012000E00020C0B200288F
:101B400002D0300005F069FF16F11C0012F049F8D0
:101B5000040006F6684011F08EFFE4B2844201D022
:101B6000012000E00020C0B2002809D016F11C00BE
:101B700012F037F80F900FA906F6684012F092FEA7
:101B800016F1B40012F005FEB0EE408AF0EE608A65
:101B900016F5476012F0FDFD53EC182B51EC100BBD
:101BA00011F006FE01D0012000E00020C0B20028A4
:101BB00005D016F1B40116F5476012F021FE16F1BA
:101BC000BC0012F0E6FDB0EE408AF0EE608A06F648
:101BD000784012F0DEFD53EC182B51EC100B11F095
:101BE000E7FD01D0012000E00020C0B2002805D0B0
:101BF00016F1BC0106F6784012F002FE16F1D40090
:101C000012F0C7FDB0EE408AF0EE608A16F55A6019
:101C100012F0BFFD53EC182B51EC100B11F0C8FD66
:101C200001D0012000E00020C0B2002805D016F14C
:101C3000D40116F55A6012F0E3FD16F1DC0012F043
:101C4000A8FDB0EE408AF0EE608A06F6A85012F0C9
:101C5000A0FD53EC182B51EC100B11F0A9FD01D095
:101C6000012000E00020C0B2002805D016F1DC0100
:101C700006F6A85012F0C4FD06F2981011F0B1FF5C
:101C8000040016F5486011F0F6FEE4B2844201D07B
:101C9000012000E00020C0B2002809D006F2981010
:101CA00011F09FFF0E900EA916F5486012F0FAFD94
:101CB00006F2A01011F095FF040006F6884011F01E
:101CC000DAFEE4B2844201D0012000E00020C0B27C
:101CD000002809D006F2A01011F083FF0D900DA985
:101CE00006F6884012F0DEFD06F2FC1011F0C3FE8D
:101CF000040016F5496011F0BEFE844201D00120B7
:101D000000E00020C0B2002805D006F2FC1116F554
:101D1000496012F089FD06F2042011F0ACFE0400C7
:101D200006F6984011F0A7FE844201D0012000E0A1
:101D30000020C0B2002805D006F2042106F6984023
:101D400012F072FD06F20C2012F023FDB0EE408A74
:101D5000F0EE608A16F54A6012F01BFD53EC182B6A
:101D600051EC100B11F024FD01D0012000E0002007
:101D7000C0B2002805D006F20C2116F54A6012F018
:101D80003FFD06F2142012F05FFD040006F6A840A5
:101D900012F05AFD844201D0012000E00020C0B2C0
:101DA000002805D006F2142106F6A84012F0DDFD49
:101DB00006F21C2011F05FFE040016F54B6011F0D6
:101DC0005AFE844201D0012000E00020C0B2002869
:101DD00005D006F21C2116F54B6012F025FD06F227
:101DE000242011F048FE040006F6B84011F043FE2E
:101DF000844201D0012000E00020C0B2002805D0BC
:101E000006F2242106F6B84012F00EFD06F240302C
:101E100012F0BFFC53EC102B06F5B054E834D4E9B3
:101E2000000111F0C5FC01D0012000E00020C0B28B
:101E3000002810D006F2403012F0ABFC06F5B0508E
:101E4000E83053EC102BC0E9002306F2403116F5C0
:101E50004C6012F0D5FC06F2503011F00CFE04007C
:101E600006F6C84011F007FE844201D0012000E0D0
:101E70000020C0B2002805D006F2503106F6C84056
:101E800012F0D2FC06F2583011F0F5FD040016F500
:101E90004D6011F0F0FD844201D0012000E00020EF
:101EA000C0B2002805D006F2583116F54D6012F088
:101EB000BBFC06F2603011F0DEFD040006F6D840EF
:101EC00011F0D9FD844201D0012000E00020C0B211
:101ED000002805D006F2603106F6D84012F0A4FCC6
:101EE00006F2783012F055FCB0EE408AF0EE608ACF
:101EF00016F54F6012F04DFC53EC182B51EC100B03
:101F000011F056FC01D0012000E00020C0B20028F2
:101F100005D006F2783116F54F6012F071FC06F22A
:101F2000803012F036FCB0EE408AF0EE608A06F6A1
:101F3000F84012F02EFC53EC182B51EC100B11F062
:101F400037FC01D0012000E00020C0B2002805D0FD
:101F500006F2803106F6F84012F052FC16F16000ED
:101F600011F050FE040006F6085011F04BFE8442BA
:101F700001D0012000E00020C0B2002805D016F1F9
:101F8000600106F6085012F0BDFC06F28C1011F04C
:101F900039FE040006F6145011F034FE844201D0DC
:101FA000012000E00020C0B2002805D006F28C110C
:101FB00006F6145012F0A6FC06F2542011F022FE90
:101FC000040016F5526011F01DFE844201D001207C
:101FD00000E00020C0B2002805D006F2542116F51A
:101FE000526012F08FFC06F2782011F00BFE040014
:101FF00006F62C5011F006FE844201D0012000E0CC
:102000000020C0B2002805D006F2782106F62C5038
:1020100012F078FC06F2883012F016FC040016F577
:10202000576012F011FC844201D0012000E0002032
:10203000C0B2002805D006F2883116F5576012F0BC
:1020400094FC06F2903012F0FFFB040006F6785084
:1020500012F0FAFB844201D0012000E00020C0B25F
:10206000002805D006F2903106F6785012F07DFC7B
:1020700006F2983012F0E8FB040016F5586012F0F2
:10208000E3FB844201D0012000E00020C0B2002820
:1020900005D006F2983116F5586012F066FC06F28B
:1020A000A03011F0E8FC040006F6885011F0E3FCC3
:1020B000844201D0012000E00020C0B2002805D0F9
:1020C00006F2A03106F6885012F0AEFB06F2A830F8
:1020D00012F05FFBB0EE408AF0EE608A16F55960B0
:1020E00012F057FB53EC182B51EC100B11F060FB66
:1020F00001D0012000E00020C0B2002805D006F287
:10210000A83116F5596012F07BFB06F2842011F01D
:1021100079FD040006F6385011F074FD844201D0B8
:10212000012000E00020C0B2002805D006F2842182
:1021300006F6385012F0E6FB06F2103011F062FDA0
:10214000040016F5556011F05DFD844201D00120B8
:1021500000E00020C0B2002814D006F2103116F5BD
:10216000556012F0CFFB06F2103011F04BFD002845
:1021700001D0012100E00021C9B206F58850C83025
:1021800012F0DFFB06F2EC2011F03CFD040006F635
:10219000445011F037FD844201D0012000E00020BE
:1021A000C0B2002805D006F2EC2106F6445012F029
:1021B000A9FB06F2B03012F0ECFAB0EE408AF0EE75
:1021C000608A06F6985012F0E4FA53EC182B51ECA2
:1021D000100B11F0EDFA01D0012000E00020C0B298
:1021E000002805D006F2B03106F6985012F008FB30
:1021F00006F2B42011F0F5FC040006F6685011F068
:10220000F0FCE4B2C0B2844201D0012000E0002022
:10221000C0B2002805D006F2B42106F6685012F0CC
:1022200093FB06F2C83012F0B4FAB0EE408AF0EE3A
:10223000608A06F6246012F0ACFA53EC182B51ECCD
:10224000100B11F0B5FA01D0012000E00020C0B25F
:10225000002805D006F2C83106F6246012F0D0FA44
:1022600006F2D03012F095FAB0EE408AF0EE608AB5
:1022700006F62C6012F08DFA53EC182B51EC100B73
:1022800011F096FA01D0012000E00020C0B2002831
:1022900005D006F2D03106F62C6012F0B1FA06F243
:1022A000D83012F076FAB0EE408AF0EE608A06F688
:1022B000346012F06EFA53EC182B51EC100B11F045
:1022C00077FA01D0012000E00020C0B2002805D03C
:1022D00006F2D83106F6346012F092FA06F2E830CF
:1022E00012F057FAB0EE408AF0EE608A06F63C60D3
:1022F00012F04FFA53EC182B51EC100B11F058FA66
:1023000001D0012000E00020C0B2002805D006F274
:10231000E83106F63C6012F073FA06F2F03012F083
:1023200038FAB0EE408AF0EE608A06F6446012F0A9
:1023300030FA53EC182B51EC100B11F039FA01D094
:10234000012000E00020C0B2002805D006F2F031E4
:1023500006F6446012F054FA16F5816012F019FA8C
:10236000B0EE408AF0EE608A06F64C6012F011FA88
:1023700053EC182B51EC100B11F01AFA01D001207C
:1023800000E00020C0B2002805D016F5816106F6F5
:102390004C6012F035FA16F5866011F06CFB040003
:1023A00006F6546011F067FB844201D0012000E082
:1023B0000020C0B2002805D016F5866106F65460EC
:1023C00012F032FA16F5876012F0E3F953EC102B95
:1023D00016F5D154D4E9000111F0EAF901D0012039
:1023E00000E00020C0B2002827D016F5876012F068
:1023F000D0F916F5D15053EC102BC0E9002316F597
:10240000D150D0E9002343EC102B300005F094FDAF
:1024100051EC100B06F5D0522832C2E9000106F546
:10242000D051283106F65C6012F0DDF906F5D05186
:10243000283116F5886012F0D6F916F5886012F08A
:10244000A8F953EC102B06F5D0542834D4E9000138
:1024500011F0AEF901D0012000E00020C0B2002848
:1024600027D016F5886012F094F906F5D050283080
:1024700053EC102BC0E9002306F5D051283106F6A5
:102480005C6012F0B0F906F5D0502830D0E9002396
:1024900043EC102B300005F0E7FD51EC100B16F566
:1024A000D152C2E9000116F5D15116F5876012F03C
:1024B0009AF916F5896012F06CF9B0EE408AF0EEE8
:1024C000608A06F6646012F064F953EC182B51EC44
:1024D000100B11F06DF901D0012000E00020C0B216
:1024E000002810D016F5896106F6646012F088F9AC
:1024F00016F5896012F04DF906F5D050303053ECE6
:10250000102BC0E9002316F58E6012F042F9B0EEF0
:10251000408AF0EE608A06F580502C3012F039F9CE
:1025200053EC182B51EC100B11F042F901D00120A3
:1025300000E00020C0B2002829D016F58E6106F513
:1025400080502C3012F05CF916F58E6012F021F9F3
:1025500006F5D050383053EC102BC0E9002316F5A7
:10256000A95008F0BAFE012801D1012000E00020A6
:10257000C0B200280BD006F5D0503830D0E9002387
:1025800043EC102B06F58850C8300AF0F9FE16F51A
:102590008F6012F0FEF8B0EE408AF0EE608A06F529
:1025A0008050343012F0F5F853EC182B51EC100B2E
:1025B00011F0FEF801D0012000E00020C0B2002898
:1025C00027D016F58F6106F58050343012F018F9D7
:1025D00016F58F6012F0DDF816F5D25053EC102B83
:1025E000C0E9002316F5A95008F077FE002801D1B4
:1025F000012000E00020C0B200280AD016F5D25019
:10260000D0E9002343EC102B06F58850C8300AF0BF
:10261000B7FE06F2EC2011F0F5FA040006F644507D
:1026200011F0F0FA844201D0012000E00020C0B295
:10263000002805D006F2EC2106F6445012F062F9AB
:1026400006F22C7012F0A5F8B0EE408AF0EE608A27
:1026500006F580503C3012F09CF853EC182B51ECEE
:10266000100B11F0A5F801D0012000E00020C0B24D
:10267000002811D006F22C7106F580503C3012F083
:10268000BFF806F22C7012F084F806F5D0504830EE
:1026900053EC102BC0E9002306F2347012F079F8E5
:1026A000B0EE408AF0EE608A06F58050443012F0B9
:1026B00070F853EC182B51EC100B11F079F801D095
:1026C000012000E00020C0B2002811D006F23471D1
:1026D00006F58050443012F093F806F2347012F090
:1026E00058F806F5D050503053EC102BC0E90023B9
:1026F00006F23C7012F0A8F8040006F580504C3049
:1027000012F0A2F8844201D0012000E00020C0B203
:1027100000280DD006F23C7106F580504C3012F0C6
:1027200024F906F23C7012F08FF841F658218851D6
:1027300006F2447012F02DF8B0EE408AF0EE608A96
:1027400006F58050543012F024F853EC182B51EC5D
:10275000100B11F02DF801D0012000E00020C0B2D4
:10276000002811D006F2447106F58050543012F062
:1027700047F806F2447012F00CF851EC100B12F00E
:102780000BF941F65C21885142F27000805D01280E
:1027900009D043D303281AD00FD305282AD01FD33A
:1027A000062831D03AE001208DF80E000DF10E011F
:1027B00006F2283011F0E0FF38E002208DF80D001D
:1027C0000DF10D0106F2283011F0D6FF2EE00320A6
:1027D0008DF80C0003A906F2283011F0CDFF25E09A
:1027E00004208DF80B000DF10B0106F2283011F0DA
:1027F000C3FF1BE005208DF80A000DF10A0106F267
:10280000283011F0B9FF11E006208DF809000DF114
:10281000090106F2283011F0AFFF07E000208DF823
:10282000080002A906F2283011F0A6FF16F55B6138
:1028300016F5936014F068FF06F6B85116F594602B
:1028400014F062FF16F55C6116F5956014F05CFFFC
:1028500006F6C85116F5966014F056FF16F55D6140
:1028600016F5976014F050FF06F6D85116F59860EB
:1028700014F04AFF16F55E6116F5996014F044FFF6
:1028800006F6E85116F59A6014F03EFF16F55F6102
:1028900016F59B6014F038FF06F6F85116F59C60AB
:1028A00014F032FF16F5606116F59D6014F02CFFF0
:1028B00006F6086116F59E6014F026FF16F56161B4
:1028C00016F59F6014F03CFF06F5C050E8300AF0A2
:1028D000BCFDC0B2010006F29C2011F0F0FF06F230
:1028E000C03011F056FFB0EE408AF0EE608A06F676
:1028F0001C6011F04EFF53EC182B51EC100B10F034
:1029000057FF01D0012000E00020C0B2002805D010
:1029100006F2C03106F61C6011F072FF06F5005099
:1029200020300CF013F906F58850C83014F022FF5F
:10293000012801D1012000E00020C0B2002805D00C
:10294000002106F2A82011F0BAFF04E0012106F2EE
:10295000A82011F0B4FF06F21C3011F053F9012841
:1029600001D1012000E00020C0B2002807D00021E2
:1029700006F21C3011F0A3FF300007F00FFC16F533
:10298000A15010F054FDC0B2002815D041F24840CB
:10299000805D002804D03068C83014F0C2FF03E026
:1029A0003068C83014F0C4FF41F24840805D90F0B8
:1029B000010041F24841885516F5B65010F037FD38
:1029C000C0B2002839D041F2B860805D00280DD037
:1029D00041F2A8608059401C41F2A861885106F577
:1029E000B051A83106F22C2011F05CFF41F2785072
:1029F000805D022821D141F2B0608059401C41F233
:102A0000B061885141F2B4608259002141F2B46052
:102A10008059401E15F0F5F841F2B461885106F571
:102A2000B051B03106F23C2011F03CFF06F5B05138
:102A3000B43106F2442011F035FF41F27850805D48
:102A4000002809D0022801F07F82C0F053810328BA
:102A500001F0208004F054BF41F27950805D0028DD
:102A600004D0022800F0A98076D341E111F01DFEC8
:102A7000DFF87C1A14F0A3F9002106F5A0505030BD
:102A800008F0C9FC002106F5A050B83008F0C3FCDE
:102A9000012116F5A95008F019FC06F5D050383080
:102AA000D0E9002343EC102B06F58850C8300AF01B
:102AB00067FC06F58850283015F0AAF806F588500E
:102AC000283008F015FE9FED220B06F588502830BF
:102AD00008F0FEFE06F58850C83015F09DF800217C
:102AE00016F1780011F0EBFE06F5B051183106F240
:102AF0001C2011F0D7FE06F5A050303010F050FC2D
:102B000041F2087000218155002106F5C050E830DF
:102B10000AF083FC002106F2902011F0D0FE41F66D
:102B2000681000218155002106F2BC2011F0C7FE7B
:102B3000002106F2D42011F0C2FE002106F2E020AE
:102B400011F0BDFE41F2795001218155D0E000BF66
:102B5000000000000000000006F5A050303010F02A
:102B60002AFCC0B2002827D011F09FFDDFF88019A1
:102B700014F025F911F099FDDFF8781913F0CEFF64
:102B8000DFF86C1914F01BF911F08FFDDFF86819EC
:102B900013F0C4FFDFF8581914F011F911F085FD96
:102BA000DFF8501913F0BAFFDFF8441914F007F9F1
:102BB00041F27950022181559AE016F1780011F026
:102BC00021F8012801D1012000E00020C0B2002836
:102BD00040D0002116F1780011F071FE002116F1AD
:102BE000840011F06CFE16F10C0010F0FAFFC0B278
:102BF000012804D024D3032819D009D320E041F2BE
:102C000078500121815541F27950002181556FE0C2
:102C100016F5236014F0D6F813F0BCFE41F278509C
:102C20000221815541F279500021815560E041F245
:102C300078500321815541F279500021815557E0A8
:102C400000208DF807000DF1070116F10C0011F0BE
:102C500093FD4DE006F58850C83014F08BFD012837
:102C600001D1012000E00020C0B2002840D041F294
:102C70000870805D002820D006F5C0509830D0E95B
:102C8000002343EC102B300006F044FD51EC100BF8
:102C900016F5B852C2E9000116F5BC5106F5885088
:102CA000C83009F0B3FF06F58850C83009F0F2F8D3
:102CB00041F20870002181551AE006F5B050F83055
:102CC00006F5C0519831D1E90023C0E9002306F58B
:102CD000B851B83106F58850C83009F097FF06F5AD
:102CE0008850C83009F0D6F841F2087001218155AA
:102CF00004F006BE41F27860805D002814D00228FE
:102D000000F08F806FD3042800F01D83C0F0E182B3
:102D1000062800F0A483C0F04D83082800F09C86AC
:102D2000C0F03B8600F0B4BE11F0BFFCDFF8C01766
:102D300014F045F811F0B9FCDFF8B81713F0EEFE07
:102D4000DFF8AC1714F03BF811F0AFFCDFF8041D0E
:102D500013F0E4FEDFF8981714F031F811F0A5FC39
:102D6000DFF8901713F0DAFEDFF8841714F027F875
:102D700006F5C850B830D0E9002306F5A050503011
:102D800008F061FB06F5C850B830D0E9002306F51D
:102D9000A050B83008F057FB06F5C850B830D0E95D
:102DA000002316F5A95008F0A3FA06F5C850B8306C
:102DB000D0E9002306F58850283008F08FFE06F58C
:102DC000C850B830D0E9002306F5C050E8300AF00A
:102DD00045FB41F208700021815541F278600121E4
:102DE000815500F055BE06F58850C83014F0C2FC7D
:102DF000012801D1012000E00020C0B200280ED03F
:102E000006F5B851F03106F58850C83009F0FEFEDD
:102E1000300004F0D4FF41F278600221815500F0C7
:102E200037BE16F16C0010F0EDFE012801D1012033
:102E300000E00020C0B2002816D0002116F16C007E
:102E400011F03DFD41F278600021815541F278504A
:102E50000021815500208DF806000DF1060116F1C4
:102E60000C0011F089FC33E206F25C1010F0CAFE8F
:102E7000040006F5A050503008F0D4FA844201D086
:102E8000012000E00020C0B2002809D006F25C104A
:102E900010F0B8FE010006F5A050503008F0BBFA63
:102EA00006F2681010F0AEFE040006F5A050B8302F
:102EB00008F0B8FA844201D0012000E00020C0B23E
:102EC000002809D006F2681010F09CFE010006F5FB
:102ED000A050B83008F09FFA06F2381010F092FEB9
:102EE000040016F5A95008F0F8F9844201D0012039
:102EF00000E00020C0B200282CD006F2381010F0FC
:102F000081FE010016F5A95008F0E0F906F238102C
:102F100010F078FE012801D1012000E00020C0B2AD
:102F200000280CD006F5D0503830D0E9002343EC0F
:102F3000102B06F58850C8300AF022FA0AE016F580
:102F4000D250D0E9002343EC102B06F58850C8304E
:102F50000AF016FA06F2A81010F054FE040006F566
:102F60008850283008F00CFCC0B2844201D0012007
:102F700000E00020C0B2002820D006F2A81010F017
:102F800041FE002801D0012000E00020C0B200284E
:102F90000AD006F58850283008F0AAFB06F58850BC
:102FA000C83014F03DFE09E006F58850283008F0DE
:102FB000C3FB06F58850C83014F032FE06F2BC1090
:102FC00011F042FC040006F58850283008F07AFD24
:102FD000844201D0012000E00020C0B200283CD093
:102FE00006F2BC1011F030FC11F044FC41EC100B67
:102FF00006F58850283008F06BFC06F58850C8307C
:1030000014F00EFE06F58850283008F00FFD51EC44
:10301000100BCDE93E013EA906F2B41011F0E3FB1E
:1030200006F2BC1011F010FC040006F588502830A0
:1030300008F048FD844201D0012000E00020C0B229
:1030400000280AD006F58850283008F03BFD0C9087
:103050000CA906F2BC1011F048FC06F2B41011F0F5
:1030600098FBB0EE408AF0EE608A06F58850283072
:1030700008F0DCFC53EC182B51EC100B10F098FB13
:1030800001D0012000E00020C0B2002840D006F2AC
:10309000B41011F07EFB06F58850283008F088FB4C
:1030A00006F58850C83014F0BBFD06F5885028306E
:1030B00008F008FD0B900BA906F2BC1011F015FCEE
:1030C00006F2B41011F065FBB0EE408AF0EE608AB3
:1030D00006F58850283008F0A9FC53EC182B51EC69
:1030E000100B10F065FB01D0012000E00020C0B201
:1030F00000280DD006F58850283008F097FC51ECD8
:10310000100BCDE93C013CA906F2B41011F06BFBA9
:1031100006F2981010F065FD040006F5885028307E
:1031200008F0D6FCE4B2C0B2844201D0012000E035
:103130000020C0B200280FD006F2981010F051FD08
:103140000100C9B206F58850283008F037FC06F5B2
:103150008850C83014F064FD16F5C150007800287E
:103160000BD016F5C1500021017006F5B851F031B1
:1031700006F58850C83009F049FD06F2842010F0A9
:1031800041FD002801D0012000E00020C0B200284D
:1031900005D006F58850C83014F046FD04E006F569
:1031A0008850C83014F038FD06F2E83011F0F1FA1A
:1031B00053EC102B06F5C854A834D4E9000110F0E4
:1031C000F7FA01D0012000E00020C0B200280DD0A5
:1031D00006F2E83011F0DDFA06F5C850A83053ECDD
:1031E000102BC0E90023300004F0E9FD06F2F820BE
:1031F00010F008FD012801D1012000E00020C0B23C
:10320000002809D006F58850C83014F011FD0021BF
:1032100006F2F82011F053FB06F58850C83014F080
:10322000A9FA012801D1012000E00020C0B2002845
:1032300004D006F58850C83008F02CFE06F26C2049
:1032400010F0E0FC012801D1012000E00020C0B214
:10325000002809D0002106F26C2011F030FB41F269
:103260007860032181550FE006F2BC2010F0CAFC03
:10327000012801D1012000E00020C0B2002803D0C5
:1032800041F2786005218155002406F2902010F06B
:10329000B9FC002801D0012000E00020C0B20028C5
:1032A00000D0012406F5C050E8300AF0CEF8E4B2B0
:1032B000C0B2844201D0012000E00020C0B200284A
:1032C00006D02100C9B206F5C050E8300AF0A5F8D2
:1032D000DEE306F58850C83014F04CFA012801D11D
:1032E000012000E00020C0B200282BD006F284208C
:1032F00010F088FC002801D0012000E00020C0B2BE
:10330000002805D006F58850C83014F08DFC04E084
:1033100006F58850C83014F087FC41F27C5001213A
:10332000815116F11C0010F05CFC16F5AC51C0B2D6
:10333000086006F58850C83008F0ACFD41F27860AE
:1033400004218155A4E306F58850C83014F012FA20
:10335000012801D1012000E00020C0B2002828D0BF
:1033600041F27C50805916F5AC510968884212D25E
:1033700041F27C508059401C41F27C51885141F20D
:103380007C5080598DF805000DF1050116F1A00063
:1033900011F0F2F908E006F58850C83014F03CFC52
:1033A00041F278600221815506F58850C83008F056
:1033B00071FD6DE341F668100121815506F2C830B8
:1033C00011F0E7F906F5C850703053EC102BC0E946
:1033D000002306F2D03011F0DCF906F5C850783041
:1033E00053EC102BC0E9002306F2D83011F0D1F9CC
:1033F00016F5CC5053EC102BC0E9002306F2E83050
:1034000011F0C7F906F5C850A83053EC102BC0E9ED
:10341000002306F2F03011F0BCF906F5C850B030C8
:1034200053EC102BC0E9002316F5816011F0B1F9BF
:1034300016F5CE5053EC102BC0E90023300004F0F9
:10344000BEFC11F032F9DFF8401A13F067FB28498F
:1034500013F0B5FC41F278600621815518E316F1AE
:103460006C0010F0CFFB012801D1012000E000200A
:10347000C0B200281ED0002116F16C0011F01FFA16
:1034800041F278600021815511F00FF9DFF8FC1945
:1034900013F044FB164913F092FC41F278500021DE
:1034A000815500208DF8040001A916F10C0011F0DF
:1034B00063F971E206F2BC2010F0A4FB002801D1F0
:1034C000012000E00020C0B2002817D041F278604F
:1034D0000221815541F668100021815511F0E5F86F
:1034E000DFF8A81913F01AFB014913F068FC53E246
:1034F00033B7050858CE05087CCE050806F2B4108F
:1035000011F047F9B0EE408AF0EE608A06F5885077
:10351000283008F08BFA53EC182B51EC100B10F0FC
:1035200047F901D0012000E00020C0B200280DD0F2
:1035300006F58850283008F079FA51EC100BCDE9E7
:103540003A013AA906F2B41011F04DF906F2BC1096
:1035500011F07AF9040006F58850283008F0B2FA24
:10356000844201D0012000E00020C0B200280AD02F
:1035700006F58850283008F0A5FA0A900AA906F244
:10358000BC1011F0B2F916F5C150007800280ED029
:1035900016F5C1500021017006F5B851F03106F55D
:1035A0008850C83009F032FB300004F008FC06F205
:1035B000C83011F0EEF853EC102B06F5C8547034F7
:1035C000D4E9000110F0F4F801D0012000E000205F
:1035D000C0B200280DD006F2C83011F0DAF806F5B6
:1035E000C850703053EC102BC0E90023300004F0B9
:1035F000E6FB06F2D03011F0CCF853EC102B06F5B8
:10360000C8547834D4E9000110F0D2F801D0012078
:1036100000E00020C0B200280DD006F2D03011F03A
:10362000B8F806F5C850783053EC102BC0E90023E9
:10363000300004F0C4FB06F2D83011F0AAF853ECC5
:10364000102B16F5CC54D4E9000110F0B1F801D0DC
:10365000012000E00020C0B200280CD006F2D830D3
:1036600011F097F816F5CC5053EC102BC0E900235D
:10367000300004F0A4FB06F2E83011F08AF853ECB5
:10368000102B06F5C854A834D4E9000110F090F8C6
:1036900001D0012000E00020C0B200280DD006F2C9
:1036A000E83011F076F806F5C850A83053EC102B2E
:1036B000C0E90023300004F082FB06F2F03011F084
:1036C00068F853EC102B06F5C854B034D4E9000167
:1036D00010F06EF801D0012000E00020C0B20028F8
:1036E0000DD006F2F03011F054F806F5C850B030A5
:1036F00053EC102BC0E90023300004F060FB16F5FA
:10370000816011F046F853EC102B16F5CE54D4E935
:10371000000110F04DF801D0012000E00020C0B2FF
:1037200000280CD016F5816011F033F816F5CE5054
:1037300053EC102BC0E90023300004F040FB16F5D9
:10374000866010F098F9040016F5CF5014F074FA62
:10375000844201D0012000E00020C0B2002811D036
:1037600016F5866010F087F9010016F5CF5014F0B9
:1037700068FA16F5866010F07EF9010016F5CF5054
:1037800014F089FA002406F2902010F03BFA002889
:1037900001D0012000E00020C0B2002800D00124A8
:1037A00006F5C050E83009F050FEE4B2C0B28442E1
:1037B00001D0012000E00020C0B2002806D0210086
:1037C000C9B206F5C050E83009F027FE06F2D42051
:1037D00010F018FA012801D1012000E00020C0B249
:1037E000002812D0002106F2D42011F068F810F061
:1037F0005CFFDFF8001D13F091F9DFF8FC1C13F0FB
:10380000DEFA41F278600721815506F58850C8300C
:1038100013F0B0FF012801D1012000E00020C0B268
:10382000002800F0B98006F58850C83008F032FB57
:1038300006F5B050F830D0E9002343EC102B06F524
:10384000C850883013F01AFF51EC100BCDE912016B
:1038500012A906F2F83010F0C6FF06F5D052303249
:10386000D2E90001DDE9122314F01AFA41EC100B41
:1038700006F5C850103013F065FCB0EE408AF0EE4B
:10388000608AB0EE480AF0EE680A06F588502830E3
:1038900007F08EFFB0EE480AF0EE680A06F5C85051
:1038A000C83013F0A8FE300004F0DEFB51EC100B22
:1038B000CDE9380138A916F5806010F094FF06F5BF
:1038C000C851583106F2E03010F08DFFB0EE480AD2
:1038D000F0EE680A16F5CF5014F0A2FA16F5CF50A4
:1038E00014F01AFB300004F0BFFB51EC100BCDE9D3
:1038F000360136A916F5826010F075FF16F5CF5027
:1039000014F012FB300004F0AFFB51EC100BCDE9CA
:10391000340134A916F5836010F065FF16F5CF5019
:1039200014F0FAFA51EC100BCDE9320132A916F578
:10393000846010F058FF16F5CF5014F0F5FA51ECF2
:10394000100BCDE9300130A916F5856010F04BFF62
:1039500016F5CF5014F0E8FAB0EE408AF0EE608A27
:1039600016F5876010F015FF51EC180B53EC102B77
:1039700014F004FB01D2012000E00020C0B20028B6
:1039800005D0012106F2E02010F099FF04E00021AB
:1039900006F2E02010F093FF7AE006F58850283018
:1039A00008F0E4F8C0B2002801D0012000E00020B7
:1039B000C0B2002848D09FED250B06F5885028306E
:1039C00007F086FF300004F0FAF906F5C8505830C9
:1039D00000220023C0E9002316F5CA50002200236C
:1039E000C0E9002306F5C850383000220023C0E9A2
:1039F000002306F5C850483000220023C0E9002308
:103A000006F5C850903000220023C0E9002306F5D7
:103A1000C850983000220023C0E9002306F5C850A2
:103A2000C83000220023C0E9002306F5C850D0307A
:103A300000220023C0E9002316F5CF5014F0B5FA98
:103A400041F278600821815522E000BF00000000AB
:103A500000000000A0CE050806F58850283008F0C8
:103A600085F8C0B2002801D0012000E00020C0B2DB
:103A700000280DD010F019FEDFF8801A13F04EF870
:103A8000DFF8741A13F09BF941F278600621815532
:103A900003F036BF41F27960805D002817D002281C
:103AA00000F09480C0F08180042800F02381C0F0F1
:103AB000E180062800F07881C0F05781082800F0E6
:103AC000EC81C0F09481092800F0F88104E210F044
:103AD000ECFDDFF8241A13F072F910F0E6FDDFF8C0
:103AE000201A13F01BF8DFF8101A13F068F910F021
:103AF000DCFDDFF8101A13F011F8DFF8FC1913F0F1
:103B00005EF910F0D2FDDFF8F81913F007F8DFF8CE
:103B1000E81913F054F906F2A01010F062F8C0B2E0
:103B20006421484341F28851885141F288508059BC
:103B300003280ED241F288500321815141F288506E
:103B400080598DF803000DF1030106F2A01010F06A
:103B500013FE16F11C0010F044F841F2586188552C
:103B600006F20C2010F015FE16F5B45053EC102B95
:103B7000C0E9002306F21C200FF07DFF41F218611E
:103B8000885141F218608059099009A80DF062FA35
:103B9000CDE92E012EA906F5B05090300FF0F8FBBC
:103BA00041F279600121815596E1300014F00CFA60
:103BB000C0B2002809D0012106F5A050503007F00E
:103BC0002AFC41F279600221815585E1300014F030
:103BD000FBF9C0B200284CD041F288600021815529
:103BE00041F27C500021815106F5A850903016F525
:103BF000B451D1E90023C0E9002341F28850805933
:103C0000400810F041FE02000B0006F5A854903465
:103C1000D4E9000114F044F806F5A8529032C2E944
:103C2000000110F042FDDFF8601E12F077FF41F254
:103C30008851895913F066F810F037FDDFF8B8188D
:103C400013F0BDF810F031FDDFF8401E12F066FFF2
:103C500006F5A8519031D1E9002343EC102B14F064
:103C6000CEF9DFF8941813F0AAF841F27960032135
:103C7000815531E106F58850283007F077FFC0B252
:103C8000002801D0012000E00020C0B2002830D080
:103C900006F5A8509030D0E9002343EC102B06F530
:103CA0008850283007F014FE06F5B05090300FF021
:103CB00077FB10F0FAFCDFF8401813F080F8DFF81B
:103CC000D01D12F02BFF040006F21C200FF0D3FED3
:103CD0000100200014F0F6F910F0E7FC69A112F0E1
:103CE0001DFFDFF8141813F06AF841F2796004211F
:103CF0008155F1E006F5B05090300FF05CFBC0B29A
:103D000000281FD006F5B05090300FF051FB16F58B
:103D1000C150007800280BD016F5C1500021017069
:103D200006F5B851F03106F58850C83008F06EFF3E
:103D300006F58850C83013F077FF41F2796006210C
:103D4000815511E006F58850C83013F013FD0128A5
:103D500001D1012000E00020C0B2002804D006F507
:103D60008850C83008F096F8B6E006F5885028303C
:103D700007F0FCFEC0B2002801D0012000E00020C6
:103D8000C0B200280FD006F5A8509030D0E900232B
:103D900043EC102B06F58850283007F099FD41F2CE
:103DA00079600621815597E006F58850283007F0A4
:103DB000DDFEC0B200280CD006F58850C83013F0E4
:103DC000D9FC012801D0012000E0002090F0010082
:103DD00000E00020C0B2002808D006F58850C830A6
:103DE00008F058F841F279600721815574E006F532
:103DF0008850C83013F0BEFC012801D1012000E03A
:103E00000020C0B2002847D041F28860805D401C8D
:103E100041F25861895D88420BDA41F28860805D29
:103E2000401C41F28861885541F279600621815534
:103E300032E041F288600021815541F27C50805986
:103E4000401C41F288518959884221D241F27C506C
:103E50008059401C41F27C51885106F5A8509030A1
:103E6000D0E900230020DFF8301C14F08BF906F5B0
:103E7000A8529032C2E9000141F2796005218155D2
:103E80000AE000BF2063000098370608A037060844
:103E900041F27960082181551EE0300014F094F859
:103EA000C0B2002809D0002106F5A050503007F01C
:103EB000B2FA41F27960092181550DE0300014F029
:103EC00083F8C0B2002807D041F278500021815514
:103ED00041F279600021815516F16C000FF092FEDD
:103EE000012801D1012000E00020C0B2002829D023
:103EF00010F0DBFBDFF8081612F010FEDFF8F81503
:103F000012F05DFF10F0D1FBDFF8B01E12F006FEDC
:103F1000DFF8E41512F053FF002116F16C0010F0E9
:103F2000CEFC41F279600021815541F278500021A8
:103F3000815500208DF802000DF1020116F10C00F0
:103F400010F01AFC03F0DCBC41F27A50805D0028CE
:103F500076D0012800F07282022800F090820328B7
:103F600000F0D282042800F00783052800F01283B5
:103F7000062800F07283072800F0D383082800F099
:103F80000784092800F02E840A2800F077840B2883
:103F900000F09E840C2800F0E8840D2800F00485D1
:103FA0000E2800F02585102800F02C87112801F03C
:103FB0005081122801F06D81132801F089811428A5
:103FC00001F09A81152801F01A82162801F07D84EB
:103FD000172801F0D384182801F0F684192801F07D
:103FE00066851A2801F0D6851B2801F063861C28F7
:103FF00001F0F9871D2802F0C1801E2802F0E6803A
:104000001F2802F0F680202802F02681212802F0E5
:104010004281222802F05881232802F01B822428A2
:1040200002F02D83252802F04983262802F08A8396
:10403000272803F07783282803F0078403F019BCAE
:1040400010F033FBDFF8B01412F0B9FE10F02DFBC6
:10405000DFF8AC1412F062FDDFF89C1412F0AFFE32
:1040600010F023FBDFF87C1E12F058FDDFF88814F7
:1040700012F0A5FE10F019FBDFF8841412F04EFDCB
:10408000DFF8741412F09BFE16F1B40010F081FBFF
:1040900006F5A850C83053EC102BC0E9002316F1E8
:1040A000BC0010F076FB16F5AE5053EC102BC0E9B7
:1040B000002341F2B8500021815506F2FC100FF0A8
:1040C000DAFC089008A80FF0D5F806F5B0520832CF
:1040D000C2E9000106F2A0300FF0CDFC079007A85E
:1040E0000FF0C8F806F5B0521032C2E9000106F52B
:1040F000B0500830D0E9002306F58850283007F08A
:10410000EDFC06F204200FF0B6FC069006A80FF0B6
:10411000B1F816F5B052C2E9000116F5B050D0E979
:10412000002306F5A050503007F08DF916F5B05079
:10413000D0E9002306F5A050B83007F084F916F551
:10414000B050D0E9002316F5A95007F0D1F806F2D7
:1041500054200FF057FD002801D0012000E000207E
:1041600041F26D61885541F26D60815D16F55260D6
:1041700010F0A5FB16F5B05106F5C050D0300FF089
:1041800007F906F2A0100FF02CFD41F28851C0B2E1
:10419000885106F2883010F057FB41F28C5188515B
:1041A00006F2903010F050FB41F23871885106F25F
:1041B000983010F049FB41F23C71885106F288308A
:1041C00010F042FB41F28C518959814201D001200B
:1041D00000E00020C0B200280DD006F5A8518C31B7
:1041E00006F2883010F081FB06F5A8518C3116F5E7
:1041F000576010F07AFB06F278200FF003FD0028DC
:1042000001D0012000E0002016F5B951087006F534
:10421000B0505C3014F02AF816F5B15014F035F8AF
:1042200006F5B050303014F030F816F11C000FF0E5
:10423000D8FC41F25861885541F25860805D0228EF
:1042400027D306F5B051583116F1A00010F094FABA
:1042500010F02BFAAA4912F061FCA74912F0AFFD49
:1042600010F023FADFF8841C12F058FC10F01DFA4D
:1042700041F25861895D14F017F89F4912F09FFDD3
:1042800010F013FA9E4912F049FC9B4912F097FD79
:1042900008E001208DF801000DF1010116F1A000E8
:1042A00010F06AFA16F160000FF0ACFC002801D0A3
:1042B000012000E0002041F26C61885506F5C051F4
:1042C000283106F58850C83008F0A0FC10F0EDF950
:1042D000DFF81C1C12F022FC874912F070FD06F278
:1042E0001C200FF0C8FB41F2186188514FF47A701E
:1042F000059005A80EF0BEFFCDE92C012CA906F50E
:10430000B05090300FF044F841F2A8600021815184
:1043100041F2B060002181510020049004A906F20E
:104320003C2010F0BFFA41F2B4603221815106F214
:104330008C100FF067FC002801D0012000E0002065
:1043400041F2D061885506F5B850103000220023A4
:10435000C0E9002306F5B850183000220023C0E958
:10436000002306F5B850443014F00FF841F23470D1
:104370000021815141F268700021815506F2A83078
:1043800010F007FA06F5B850703053EC102BC0E966
:10439000002306F2B03010F0FCF906F5B850783082
:1043A00053EC102BC0E90023002106F5C050E83083
:1043B00009F033F806F2C03010F0EBF9B0EE408AA5
:1043C000F0EE608ADFF8242ED2E9000113F0ECFF52
:1043D00053EC182B0FF012F904000D00DFF8102E2B
:1043E000D2E9000113F0E0FF02000B0020002900D9
:1043F0000FF0EEF914F006F802000B0006F5C050BD
:10440000E83009F02BF8012116F5D35014F03BF8F1
:1044100006F2B4200FF0E5FB0100C9B2300006F04F
:1044200081FA41F28451885542F270000121815590
:1044300041F27A500121815503F01BBA300013F08C
:10444000C3FDC0B2002818D041F26C60805D002826
:104450000FD0002116F5A95006F038FF16F5D250FE
:10446000D0E9002343EC102B06F58850C83008F043
:1044700087FF41F27A500221815503F0FAB93000EA
:1044800013F0A2FDC0B2002832D041F2B860012181
:10449000815516F5B6500EF0C4FF41F2B850805D5C
:1044A000002802D0012810D01EE010F0FEF8DFF83E
:1044B0001C1D12F033FB104912F081FC012106F59E
:1044C000A050B83006F0A7FF0EE010F0EEF8DFF8CD
:1044D000001D12F023FB084912F071FC012106F5C2
:1044E000A050503006F097FF41F27A5003218155D9
:1044F00003F0BFB9B42A060833B70508C02A060876
:1045000058CE0508C4CE0508300013F05DFDC0B2DA
:1045100000282FD006F5C050D0300EF041FF06F233
:1045200004200FF0A8FA00EE100AB8EE400A10EED0
:10453000100A13F0B1FFDFF89C2CDFF89C3C0FF061
:104540005DF813F0D3FF08EE100A10F0AEF8DFF8B4
:104550008C1C12F0E3FAB0EE480A14F00FF8D4A164
:1045600012F0DCFADFF8781C12F029FC41F27A50E4
:104570000421815503F07DB906F5C050D0300EF00E
:104580001AFFC0B2002803D041F27A5005218155AC
:1045900003F06FB906F58850C83013F0EBF8012826
:1045A00001D1012000E00020C0B2002853D006F560
:1045B000B0505C3014F046F8002806D141F2B850F3
:1045C000805D002801D1012000E00020C0B2002859
:1045D0003DD041F2B8600021815506F5B0509030D1
:1045E0000EF0DEFE41F21C6041F2186189598151E2
:1045F00010F05BF8DFF8E81B12F0E1FBDFF8901435
:1046000012F08CFA040006F21C200FF034FA0100BC
:10461000200013F057FD10F048F8A5A112F07EFA23
:10462000DFF8BC1B12F0CBFB06F58850C83013F046
:10463000F3FA06F58850283014F00BF842F27000B7
:104640000221815541F27A500621815503E041F261
:104650007A500A21815503F00CB906F5B05090301C
:104660000EF0A9FEC0B2002847D041F21C6080596C
:1046700000282CD006F5B05090300EF091FE41F29B
:104680001C608059401E41F21C61885110F00DF8E9
:1046900088A112F043FADFF8E01D12F090FB41F21E
:1046A0001C6080593C21B0FBF1F201FB1200002894
:1046B00005D10FF0FAFFDFF8281B12F080FB06F59A
:1046C000B0511C3106F21C2010F0ECF827E00FF07E
:1046D000ECFFDFF80C1B12F072FB06F5B05118313D
:1046E00006F21C2010F0DEF842F270000321815522
:1046F00041F27A500721815511E006F58850C83003
:1047000013F038F8012801D1012000E00020C0B2E8
:10471000002804D006F58850C83007F0BBFB03F032
:10472000A8B806F58850C83013F024F8012801D144
:10473000012000E00020C0B2002827D041F2B8607C
:104740000121815516F5B6500EF06BFE06F284205D
:104750000FF058FA002801D0012000E00020C0B27C
:10476000002805D006F58850C83013F05DFA04E043
:1047700006F58850C83013F04FFA06F588502830F7
:1047800013F067FF41F27A500A21815503F071B8A6
:1047900006F58850C83012F0EDFF012801D1012044
:1047A00000E00020C0B200281AD006F5B851B83198
:1047B00006F58850C83008F029FA0FF076FFDFF8C8
:1047C000C41D12F0ABF9DFF8181A12F0F8FA06F56A
:1047D0008850C83007F05EFB41F27A5009218155BC
:1047E00003F047B806F58850C83012F0C3FF01281F
:1047F00001D1012000E00020C0B200283CD006F525
:10480000B050F830D0E9002343EC102B300004F016
:1048100081FF51EC100B16F5B852C2E900010FF000
:1048200044FFDFF8701E12F079F916F5B851D1E99E
:10483000002343EC102B13F0E2FB0FF036FF95A1A1
:1048400012F06CF9DFF8981912F0B9FA06F5C051B8
:10485000283106F58850C83008F0D8F90FF025FF48
:10486000DFF88C1612F05AF9DFF8741912F0A7FA73
:1048700041F27A500B21815502F0FBBF06F58850BA
:10488000C83012F077FF012801D1012000E000209C
:10489000C0B200281AD006F5C051283106F588505C
:1048A000C83008F0B3F90FF000FFDFF8441603E05A
:1048B000206300002E00000012F030F9DFF820190C
:1048C00012F07DFA41F27A500B21815502F0D1BFEE
:1048D00006F58850283007F049F9C0B2002801D009
:1048E000012000E00020C0B200283CD006F5A8500E
:1048F000903006F5A851A831D1E90023C0E9002382
:1049000006F5A850A830D0E9002343EC102B06F59B
:104910008850283006F0DCFF06F5A850983006F5E0
:10492000A851B031D1E90023C0E9002341F27C5005
:104930000021815116F5AC501421016006F5B850E4
:10494000283000220023C0E9002306F588502830D3
:1049500006F0CEFE06F5B850543013F096FC41F246
:104960007A500C21815502F084BF06F5885028301A
:1049700007F0FCF8C0B2002801D0012000E00020C0
:10498000C0B200280ED0012106F5C050E83008F072
:1049900044FD002116F5D35013F075FD41F27A5015
:1049A0000D21815502F065BF06F58850C83012F020
:1049B000E1FE01280DD106F5C050E83008F090FD69
:1049C000C0B2012801D0012000E0002090F00100D9
:1049D00000E00020C0B2002808D006F58850C8309A
:1049E00007F058FA41F27A500E21815502F041BF8A
:1049F00006F58850C83012F0BDFE012801D1012013
:104A000000E00020C0B2002800F0FA810DF59561A9
:104A100006F58850C83008F098FC0DF58061D1E9A2
:104A20002A0141EC180B002106F5C050E83008F0CF
:104A3000F4FC012116F5D35013F025FD06F588503E
:104A4000C83013F00AFE51EC180B31F0004141EC74
:104A5000190B53EC102BDFF8400CDFF8401C0EF064
:104A6000CDFD02000B0051EC190B13F087FA15D2A3
:104A700041F27C508059002810D041F28450805D72
:104A800003280BD001200AE054220608740C060803
:104A9000A837060820B043000000F03F0020C0B255
:104AA000002800F0A98151EC180B31F0004141ECD5
:104AB000100B06F5B8521032D2E9000153EC102B5E
:104AC00013F05CFA20D251EC180B31F0004141ECAC
:104AD000100B06F5B850103053EC102BC0E9002332
:104AE00006F5A8509030D0E9002343EC102B51EC90
:104AF000100B31F0004141EC100B06F5B8501830A6
:104B000053EC102BC0E9002306F58850283006F03E
:104B1000D9FF0FF0AFFECDE9D60151EC180BCDE96E
:104B2000D8010DF58061D1E92C01CDE9DA0151EC14
:104B3000180BCDE9DC01D6A906F5B850543013F0B6
:104B400091FD06F5B850543013F0AFFD41F2647199
:104B50008959884201D3012000E00020C0B200281A
:104B600000F0458141F264708359002206F5B85186
:104B70005431300002F0C8FF53EC102B0020DFF856
:104B8000E81D13F0FFFA41EC100B13F095FD51EC0A
:104B9000100B16F5AD52C2E9000106F5B8505430BD
:104BA00013F083FD022801D3012000E00020C0B2F1
:104BB000002850D041F264708059411E06F5B8506B
:104BC000543013F0B0FD040041F264708059811E2E
:104BD00006F5B850543013F0A6FDD0E90023D4E90F
:104BE000000113F05DF841EC100B53EC102B00208A
:104BF00000210EF0DDFD2ED041F264708059411E7F
:104C000006F5B850543013F08EFD040041F2647084
:104C10008059811E06F5B850543013F084FDD0E958
:104C20000223D4E9020113F03BF806F5A8549034AE
:104C3000D4E900230EF0CCFD41EC100B51EC100B2D
:104C400031F0004141EC100B06F5B850283053EC20
:104C5000102BC0E900230FF028FD0400022186A8D4
:104C60000FF071FD86A920000FF076FD41F27C5116
:104C70008959491C12F046F89BA111F04FFF0FF023
:104C800014FD0400082184A80FF05DFD84A9200014
:104C90000FF062FD06F5A8519031D1E9002343ECF5
:104CA000102B13F0ACF990A111F038FF0FF0FDFCC0
:104CB0000400082182A80FF046FD82A920000FF011
:104CC0004BFD06F5A8519831D1E9002343EC102B98
:104CD00013F095F984A111F021FF0FF0E6FC040018
:104CE0000C2180A80FF02FFD80A920000FF034FDCB
:104CF000B0EE480AF0EE680A13F081F97AA111F0DB
:104D00000DFF0DF58063D3E92C230020DFF8741D1F
:104D10000EF074FC41EC100B51EC100B31F0004123
:104D200041EC180B0FF0C1FC040008217EA80FF025
:104D30000AFD7EA920000FF00FFDB0EE480AF0EE4C
:104D4000680A13F05CF9DFF8401D11F0E7FE0FF080
:104D5000ACFCDDF8D01411F0D5FFDFF8841412F0AC
:104D60002EF80FF0A2FCDFF8041C11F0D7FE0400AF
:104D700008217CA80FF0E7FC7CA920000FF0ECFCD8
:104D800016F5AD51D1E9002343EC102B13F037F9A0
:104D90000FF08BFCDFF8481412F011F8DDE9D601B2
:104DA0000022002313F0C4FC0AD841F268700121EC
:104DB000815542F270000621815509E0E8CE0508D0
:104DC00041F268700021815542F270000421815542
:104DD00041F28450805D022804D141F27A501521BD
:104DE00081550DE041F27A501B21815508E041F2D6
:104DF0007A501021815503E041F27A5010218155FB
:104E000002F037BD0DF58E6106F58850C83008F008
:104E10009CFA0DF58061D1E91C0141EC190B41F2BE
:104E20007C508059002840F0C98041F2D060805DFC
:104E3000002800F0C38006F58850C83013F00DFC40
:104E400051EC190B31F0004141EC180B53EC102BD5
:104E5000DFF8200BDFF8201B0EF0D0FB02000B0068
:104E600051EC180B13F08AF801D3012000E0002068
:104E7000C0B2002840F0A28014249FEDE08B2500F2
:104E8000002C00D56D429FEDDFAB07E051EC180B15
:104E900053EC182B0EF0B2FB41EC180B2800C007A6
:104EA00007D551EC1A0B53EC182B0EF0A7FB41EC75
:104EB0001A0B6D08002DE9D1002C1BD553EC1A2BD1
:104EC000002000210EF074FC02D19FEDC6AB11E072
:104ED0000020DFF86C1E53EC1A2B0EF079FC41EC2D
:104EE0001A0B07E00CCF0508203A2000880C0608B2
:104EF00078C3050851EC190B31F0004141EC180B57
:104F000051EC1A0B0022DFF83C3E0EF061FC53EC32
:104F1000182B0EF073FB41EC100B13F020FC53EC3C
:104F2000102B0020DFF8201E13F02CF941EC100BA1
:104F300013F0C2FB51EC100B0FF044FD16F5AC5111
:104F40000968091A491E41F27C5291519FEDAB0B41
:104F500013F00FFC51EC100B0FF034FD05002C008A
:104F600051EC190B0022002313F0E2FB00D26D423A
:104F700028000FF07FFC06F5A8529032C2E900012C
:104F800020000FF077FC06F5A8529832C2E9000124
:104F90000FF08BFBDFF8B41D11F0C0FD0FF085FBA7
:104FA000290013F009FC0FF080FB92A111F0B6FD6F
:104FB000210013F001FC8A4911F001FF41F27C50FD
:104FC000805916F5AC510968884280F01F8141F282
:104FD0007C508059401C41F27C5188510FF065FB98
:104FE000040002217AA80FF0AEFB7AA920000FF08E
:104FF000B3FB41F27C51895911F084FE7EA111F07E
:105000008DFD0FF052FB0400082178A80FF09BFBE8
:1050100078A920000FF0A0FB06F5A8519031D1E946
:10502000002343EC102B12F0EAFF73A111F076FD80
:105030000FF03BFB0400082176A80FF084FB76A953
:1050400020000FF089FB06F5A8519831D1E9002323
:1050500043EC102B12F0D3FF67A111F05FFD0FF0AE
:1050600024FB04000C2174A80FF06DFB74A9200030
:105070000FF072FBB0EE490AF0EE690A12F0BFFFC2
:105080005DA111F04BFD0DF58063D3E91E230020D7
:10509000DFF8F0190EF0B2FA41EC100B51EC100BE6
:1050A00031F0004141EC180B0FF0FFFA0400082129
:1050B00072A80FF048FB72A920000FF04DFBB0EE74
:1050C000480AF0EE680A12F09AFFDFF8BC1911F0F6
:1050D00025FD0FF0EAFADDF8981411F013FE4049AF
:1050E00011F06DFE06F5B8522832D2E90001002217
:1050F000002313F01DFB25D251EC190B31F00041B8
:1051000041EC180B06F5B8502830D0E900230020F8
:10511000DFF854180EF072FA02000B0051EC180B75
:1051200012F02CFF0ED241F28450805D022804D18F
:1051300041F27A501521815589E041F27A501B21C4
:10514000815584E051EC190B0022002313F0F0FA92
:1051500011D206F5A8509030D0E9002306F5A854E6
:105160009834D4E9000113F00DF806F5A8529032F6
:10517000C2E9000110E006F5A8529032D2E9000120
:1051800006F5A8549834D4E9002312F089FD06F5F9
:10519000A8529032C2E9000106F5A8509830D0E933
:1051A00000230020DFF8C0170EF028FA41EC100BA6
:1051B00013F082FA51EC100B06F5A8529832C2E9AE
:1051C000000141F27A501121815540E030CF0508AD
:1051D00054CF0508FCA9F1D24D62503FCC2A0608F5
:1051E00033B70508000000000000F07F088E0020A3
:1051F000B000002020000000203A20000000000045
:1052000000000040000000000000F03F06F588505C
:10521000283006F057FC0FF02DFB16F5AD52C2E911
:10522000000141F28450805D022802D0032805D09D
:1052300009E041F27A501521815508E041F27A5097
:105240001421815503E041F27A501B21815502F06F
:1052500010BB06F58850283006F088FCC0B2002844
:1052600001D0012000E00020C0B200280FD006F5D8
:10527000A8509030D0E9002343EC102B06F588505D
:10528000283006F025FB41F27A501221815502F0B8
:10529000F0BA06F58850283006F068FCC0B2002845
:1052A00001D0012000E00020C0B200280ED0012172
:1052B00006F5C050E83008F0B0F8002116F5D350DC
:1052C00013F0E1F841F27A501321815502F0D1BA7E
:1052D00006F5C050E83008F003F9C0B2012801D14A
:1052E000012000E00020C0B2002803D041F27A5033
:1052F0000D21815502F0BDBA0FF0D7F9DFF8781D06
:1053000011F00CFCDFF8941D11F059FD0FF0CDF9F0
:10531000DFF8681D11F002FC16F5AD51D1E900234C
:1053200043EC102B12F06BFEDFF8701D11F047FDFF
:1053300041F2B850805D8DF8B00116F5AD50D0E95E
:105340000023CDE96E23DDE96E01CDE970016CA982
:1053500006F5B850443013F08CFA41F2347080599D
:10536000401C41F23471885141F2B850805D0028F0
:1053700010D106F5A850F030DDE97023C0E9002314
:1053800006F5A850F83016F5AD51D1E90023C0E973
:1053900000230EE016F5AF50DDE97023C0E90023CD
:1053A00006F5A850E83016F5AD51D1E90023C0E963
:1053B000002341F26C60805D002810D1012116F5B8
:1053C000A95005F083FF06F5D0503830D0E900230E
:1053D00043EC102B06F58850C83007F0D1FF06F5D6
:1053E000B0500830D0E9002306F58850283006F088
:1053F00075FB41F27A502421815502F03ABA06F544
:10540000A8529032D2E9000116F5AD54D4E9002338
:1054100012F046FC5FF03332DFF8643C0EF0EEF839
:1054200041EC100B13F06AFA51EC100B31F0004113
:1054300041EC100B16F5B25053EC102BC0E90023D1
:1054400016F5AD50D0E9002316F5B254D4E90001A9
:1054500012F098FE02000B0014001D0006F58850A3
:10546000283013F053FA51EC100B22002B0012F0ED
:1054700085FD03D2012002E0F12906080020C0B218
:10548000002811D006F58850283013F03FFA51EC6F
:10549000100B16F5AD54D4E9002312F001FC16F5FB
:1054A000B252C2E900012EE006F58850283013F010
:1054B00081FA53EC102B14001D0016F5AD52D2E901
:1054C000000116F5B257D7E9002312F0E9FB2200DC
:1054D0002B0012F053FD01D2012000E00020C0B2E9
:1054E000002810D006F58850283013F063FA53ECEA
:1054F000102B16F5AD54D4E9000112F0D1FB16F5CE
:10550000B252C2E9000106F5A8529032D2E9000178
:1055100016F5AD54D4E9002312F0C2FBDFF8642B7A
:10552000DFF8643B0EF06AF841EC100B13F0E6F97B
:1055300051EC100B31F0004141EC100B06F5B0506E
:10554000483053EC102BC0E9002316F5AD50D0E9DC
:10555000002306F5B0544834D4E9000112F012FEDD
:1055600002000B0014001D0006F58850283013F0CF
:10557000CDF951EC100B22002B0012F0FFFC03D2EE
:10558000012002E0A0C305080020C0B2002812D00C
:1055900006F58850283013F0B9F951EC100B16F5C8
:1055A000AD54D4E9002312F07BFB06F5B05248322B
:1055B000C2E9000130E006F58850283013F0FAF90E
:1055C00053EC102B14001D0016F5AD52D2E900016A
:1055D00006F5B0574837D7E9002312F061FB2200E7
:1055E0002B0012F0CBFC01D2012000E00020C0B261
:1055F000002811D006F58850283013F0DBF953EC61
:10560000102B16F5AD54D4E9000112F049FB06F554
:10561000B0524832C2E9000106F5A8529032D2E9F0
:10562000000116F5AD54D4E9002312F039FBD14A3C
:10563000D14B0DF0E3FF41EC100B13F05FF951EC8F
:10564000100B31F0004141EC100B06F5B05050301A
:1056500053EC102BC0E9002316F5AD50D0E9002320
:1056600006F5B0545034D4E9000112F08BFD02006D
:105670000B0014001D0006F58850283013F046F981
:1056800051EC100B22002B0012F078FC08D2012004
:1056900007E000BF64220608AE47E17A14AEEF3F90
:1056A0000020C0B2002812D006F58850283013F030
:1056B0002DF951EC100B16F5AD54D4E9002312F07E
:1056C000EFFA06F5B0525032C2E9000130E006F5BB
:1056D0008850283013F06EF953EC102B14001D0085
:1056E00016F5AD52D2E9000106F5B0575037D7E9AB
:1056F000002312F0D5FA22002B0012F03FFC01D259
:10570000012000E00020C0B2002811D006F588502A
:10571000283013F04FF953EC102B16F5AD54D4E9A3
:10572000000112F0BDFA06F5B0525032C2E9000194
:105730000EF0BBFFDFF8541911F0F0F9DFF85C1937
:1057400011F03DFB06F5B050303012F0AEFF0028EE
:1057500002D0022824D064E016F5AD50D0E9002331
:1057600006F5B0544834D4E9000112F00BFD06F5FB
:10577000A8529032C2E900010EF097FFDFF810192D
:1057800011F0CCF906F5B0514831D1E9002343ECD2
:10579000102B12F034FCDFF8041911F010FB61E05B
:1057A00016F5AD52D2E9000106F5A8549034D4E9BB
:1057B000002312F0E3FB10D216F5AD50D0E9002320
:1057C00006F5B0545034D4E9000112F0DBFC06F5C4
:1057D000A8529032C2E900010FE016F5AD52D2E9AD
:1057E000000106F5B0545034D4E9002312F058FA01
:1057F00006F5A8529032C2E900010EF056FFDFF81C
:10580000901811F08BF906F5B0515031D1E9002311
:1058100043EC102B12F0F3FBDFF8801811F0CFFAF5
:1058200020E016F5AD50D0E9002316F5B254D4E9C6
:10583000000112F0A7FC06F5A8529032C2E900015F
:105840000EF033FFDFF8481811F068F916F5B25181
:10585000D1E9002343EC102B12F0D1FBDFF83C1808
:1058600011F0ADFA06F5B050303012F01EFF0028EE
:1058700001D1012000E0002016F5C35106F5885043
:10588000C83007F0C3F90EF010FFDFF8081811F068
:1058900045F9DFF8081811F092FA06F5B05010300B
:1058A000D0E9002306F58850283006F017F941F2B8
:1058B0007C500021815141F288500221815141F2F6
:1058C0007A501621815501F0D4BF06F58850283052
:1058D00006F04CF9C0B2002801D0012000E0002001
:1058E000C0B200283ED006F5A8509030D0E9002381
:1058F00043EC102B06F58850283005F0E9FF0EF038
:10590000D4FE040002218AA80EF01DFF8AA92000FF
:105910000EF022FF41F27C518959491C11F0F2F935
:1059200013A111F0FBF80EF0C0FE0400082188A8B6
:105930000EF009FF88A920000EF00EFF06F5A85111
:105940009031D1E9002343EC102B12F058FB08A151
:1059500011F0E4F8DFF8401711F031FA41F27A5013
:105960001721815501F085BF0000E03FB8370608D8
:10597000203A2000CDCCCCCCCCCCEC3F06F58850E6
:10598000283006F0F3F8C0B2002801D0012000E072
:105990000020C0B2002815D006F58850C83011F09C
:1059A000E9FE012801D1012000E00020C0B200285A
:1059B00008D006F58850C83006F06CFA41F27A50EB
:1059C0001821815501F055BF06F58850C83011F0F7
:1059D000D1FE012801D1012000E00020C0B2002842
:1059E00063D0C8A906F58850C83007F0AEFCDDE9E1
:1059F000D40141EC190BDDE9C80141EC180B06F5A7
:105A00008850283006F05EF80EF034FFCDE9BE0174
:105A100051EC190BCDE9C001DDE9CA01CDE9C201A4
:105A200051EC190BCDE9C401D298C690BEA906F578
:105A3000B050303012F016FE0EF037FE04000C218C
:105A40006AA80EF080FE6AA920000EF085FEB0EE76
:105A5000480AF0EE680A12F0D2FADFF8241E11F0BC
:105A60005DF80EF022FE0400DDE9C22300200549A6
:105A70000DF0C4FD41EC100B200012F0C0FA0249F9
:105A800004E000BF80842E41B037060811F046F8CC
:105A90000EF00BFED29911F035F9DFF8001611F077
:105AA0008EF941F27A501921815501F0E2BE41F29E
:105AB0007C50805941F288518959491E884263D2ED
:105AC00041F27C508059401C41F27C51885106F5CE
:105AD000B050303012F0E9FD012802D0032811D077
