:020000040800F2
:1000000060C5002091A605083B770108D179010859
:10001000EF7901080D7A01082B7A01080000000031
:10002000000000000000000000000000497A010804
:10003000597A010800000000697A0108797A0108FC
:10004000517E0108517E0108517E0108517E010850
:10005000517E0108517E0108897A0108517E01080C
:10006000517E0108A37A0108BD7A0108517E01087A
:10007000517E0108517E0108517E0108517E010820
:10008000D77A0108517E0108517E0108517E01088E
:10009000517E0108517E0108517E0108E77A01086E
:1000A000517E01085F7B0108517E0108517E0108E5
:1000B000937B0108A37B0108517E0108517E010852
:1000C000517E0108517E0108517E0108517E0108D0
:1000D000517E0108717D0108817D0108917D010833
:1000E000C37B0108517E0108517E01084B7C010849
:1000F000717C0108517E01089D7C0108517E010838
:10010000517E0108A17D0108B37B0108517E0108E1
:10011000B17D0108C17D0108517E0108517E0108B1
:10012000D17D0108E17D0108F17D0108017E010812
:10013000517E0108517E0108517E0108517E01085F
:10014000517E0108517E0108517E0108217E01087F
:10015000517E0108117E0108517E0108317E01089F
:10016000517E0108517E0108517E0108517E01082F
:10017000517E0108417E0108517E0108517E01082F
:10018000517E010810B5144C2078002805D10021BB
:10019000124805F083F901202070114C20780028C6
:1001A00005D100210F4805F079F9012020700E4C8F
:1001B0002078002805D100210C4805F06FF90120B6
:1001C00020700B4C2078002805D10021094805F04B
:1001D00065F90120207010BDDD940020949400206A
:1001E000DE9400209C940020DF940020989400204E
:1001F000E0940020909400202DE9FF4FCDB0040042
:100200004E982060002300220021201D05F048F9AF
:100210005A98C4F8980A04F69C204FA9082205F0C1
:10022000E3FE206810F5A47104F6A82006F0D2F9C8
:10023000206810F590700090206810F58873206891
:1002400010F58072012114F52F6009F035FA04F6DB
:10025000383009F083FC04F6783009F0A1FD04F68B
:10026000943009F0C3FD14F53A6009F0BFFD04F6BF
:10027000AC3009F0BBFD04F6B83009F0C1FD002137
:1002800004F6484009F054FE04F64C4009F0C9FE5B
:10029000002204F65841201D09F0A8FF0200920830
:1002A000206810F1980104F658400BF053F8012033
:1002B00084F8200D0120219021A80BF097FBCDE9B7
:1002C00004014020029000200190012000904FF492
:1002D0008053206810F1D002206810F5467104F6B2
:1002E00028500DF002F80023002204F6285114F5DE
:1002F00069600DF055F814F5696204F6285141F271
:10030000FC40204403F0C2F8206810F5F37005901B
:10031000206800F2E5100490206810F5F270039058
:10032000206810F5EA700290206810F5E2700190E4
:10033000206810F5DA700090206810F5D2732068FC
:1003400010F5CA72206810F53B7114F5A85006F03C
:10035000E1F9002041F228616054002041F22A6155
:10036000605241F23060204400220023C0E90023A3
:100370004FF4FA6041F238616050002041F23C6174
:100380006054DFF88C0D90ED002BDFF8880D90EDB8
:10039000001BDFF8840D90ED000B206810F5127241
:1003A000206810F5467114F5B25008F0C1FD6420C4
:1003B000209020A80DF05EFBCDE9280128A941F28C
:1003C000F86020440DF058FC4FF4FA701F901FA8FD
:1003D0000DF050FBCDE9260126A941F2087020441A
:1003E0000DF04AFC4FF47A751E951EA80DF042FBE5
:1003F000CDE9240124A941F2187020440DF0B8FB86
:10040000002041F230716054DFF8101D46A80DF055
:1004100011FD64201D901DA80DF02CFB00220492FC
:10042000CDE902010020009046AB206810F516725D
:10043000206810F51A7141F23870204405F026FF4B
:1004400046A80DF007FDDFF8D81C3FA80DF0F2FC20
:1004500064201C901CA80DF00DFB00220492CDE935
:100460000201002000903FAB206810F51E7220684A
:1004700010F5227114F5BD5005F008FF3FA80DF0EE
:10048000E9FCDFF8A01C38A80DF0D4FC0123020021
:10049000206810F5267141F60800204405F02EFE74
:1004A00038A80DF0D7FCDFF8801C31A80DF0C2FC95
:1004B00064201B901BA80DF0DDFA00220492CDE908
:1004C00002010020009031AB206810F52A722068EC
:1004D00010F52E7114F5C35005F0D8FE31A80DF0BB
:1004E000B9FCDFF8481C2AA80DF0A4FC64201A907F
:1004F0001AA80DF0BFFA00220492CDE902010020F3
:1005000000902AAB206810F53272206810F5367121
:1005100041F6C800204405F0B9FE2AA80DF09AFC67
:10052000002041F630116054002041F63111605432
:10053000002041F632116054002041F63411605021
:10054000142041F638116050022041F63C116054ED
:10055000002041F63D1160544FF4CA5804EB0800E6
:100560000022DFF8CC3BC0E9002341F648102044CC
:100570000022DFF8BC3BC0E9002341F650102044C4
:1005800000220023C0E9002341F658102044002235
:100590000023C0E9002314F5CB5000220023C0E95A
:1005A000002341F66810204400220023C0E9002304
:1005B00041F67010204400220023C0E9002341F6D8
:1005C0007810204400220023C0E900236420199001
:1005D00019A80DF04FFA14F5CC52C2E9000105201C
:1005E00041F688116050002041F68C11605041F6B0
:1005F000901020440DF035FC41F6B81020440DF069
:100600003CFC012041F6C411605441F6C81020445E
:100610000DF03BFC002041F6D411605441F6D51991
:10062000002004F8090041F6D810204400220023DD
:10063000C0E90023002014F5CF510870002041F6D6
:10064000E111605400201790189518AA17A941F6D7
:10065000E81020440DF056FA002014F5D05108603F
:10066000002041F604216050002041F6082160502E
:10067000002041F60C21605041F61020204404F087
:10068000ADFD002041F638216054169516A80DF0F6
:10069000F1F9CDE9220122A914F5D2500DF0ECFABE
:1006A000002041F65021605414F5CC5141F65820F9
:1006B00020440DF05DFA6420159015A80DF0DAF9CC
:1006C00041F670222244C2E9000141F6782204EB8F
:1006D00002000026DFF85C7AC0E9006714F5D45008
:1006E0000026DFF8547AC0E9006741F6882304EB5E
:1006F00003050020DFF8381AC5E9000141F6902013
:1007000004EB00050020DFF8301AC5E9000141F6CE
:10071000982004EB000500200021C5E900014FF4FA
:10072000D55504EB05060020DFF8101AC6E90001D4
:1007300004EB020090ED000B41F6A820204480ED70
:10074000000B04EB020090ED000B41F6B0202044BA
:1007500080ED000B04EB030090ED000B41F6B82098
:10076000204480ED000B04EB050090ED000B14F528
:10077000D65080ED000B012041F6C821605404F6EC
:100780001400109041F2F02020440F9004F60C0069
:100790000E9041F2E82020440D9004F604000C90E5
:1007A00004F2FC700B9014F597500A9004F2F47068
:1007B000099004F2EC70089004F2E470079004F2DF
:1007C000DC70069004F2D470059004F2CC700490B2
:1007D00004F2C470039004F2BC70029004F2B4708E
:1007E0000190206810F581600090206810F57E73FC
:1007F000206810F57A72206810F5767141F6D020E5
:10080000204407F0CDF841F6106504EB0500002206
:10081000DFF81C39C0E9002341F6186604EB060234
:10082000DFF81C09DFF81C19C2E900014FF4F15789
:1008300004EB07025FF03330DFF80C19C2E9000166
:1008400041F6286004EB000200200021C2E900010B
:1008500041F6306004EB00020020DFF8F018C2E936
:10086000000141F6386A9FEDEE1B9FEDEF0B04F29D
:10087000C47104EB0A0007F0A3FD41F6506B04F6C7
:100880008C000E9014F508600D9004F674000C9026
:1008900004F664000B9004F65C000A9004F6540021
:1008A000099004F64C00089004F64400079004F602
:1008B0003C00069004F63400059004F62C000490E9
:1008C00004F62400039004F61C000290002001901E
:1008D000206810F56E70009004EB070090ED002B7F
:1008E00004EB060090ED001B04EB050090ED000BFF
:1008F0004623206810F5527204EB0A0104EB0B004A
:100900000DF0CBFA04EB0B0141F6B060204407F088
:10091000BBFD41F250302044109041F2443020445D
:100920000F9041F2383020440E9041F2283020449C
:100930000D9014F599500C9041F2183020440B9012
:1009400041F2103020440A9041F2083020440990CE
:1009500014F59850089041F2F8202044079004F6CE
:100960008C00069014F50860059004F6740004905D
:1009700004F65400039004F64C00029004F6440080
:10098000019004F63C00009004F6340304F62C02B7
:1009900004F61C0114F5025008F056F942F2D00595
:1009A00004EB05000022DFF88837C0E9002342F29B
:1009B000D80604EB0602DFF88807DFF88817C2E9DB
:1009C000000142F2E00704EB0702DFF88407DFF8DA
:1009D0008417C2E9000142F2E80004EB00020020A3
:1009E0000021C2E9000142F2F00004EB0002002005
:1009F000DFF85817C2E9000142F2F80A9FED8C1B9C
:100A00009FED890B04F2BC7104EB0A0007F0D8FCDF
:100A100042F2101B04F608100E9004F6FC000D9034
:100A200014F50F600C9014F50E600B9004F6D800CE
:100A30000A9014F50D60099004F6C800089014F5AA
:100A40000C60079004F6B800069014F50B60059052
:100A500004F6A800049014F50A60039004F69800C8
:100A6000029000200190206810F57270009004EB55
:100A7000070090ED002B04EB060090ED001B04EB4B
:100A8000050090ED000B4523206810F5607204EB23
:100A90000A0104EB0B000DF000FA04EB0B0142F22B
:100AA0007010204407F0F0FC41F2B4302044109064
:100AB00041F2A83020440F9041F29C3020440E9027
:100AC00041F28C3020440D9041F2843020440C904F
:100AD00041F27C3020440B9041F2743020440A9063
:100AE00041F26C302044099041F264302044089077
:100AF00041F25C302044079004F60810069004F69A
:100B0000FC00059014F50F60049014F50D6003903F
:100B100004F6C800029014F50C60019004F6B800C9
:100B2000009014F50B6304F6A80204F6980114F57E
:100B30000D5008F089F8002042F2903160542000F6
:100B400000F00AFB200000F01CFB0DF0FBF91490F4
:100B500041F2240020440DF0FBF98DF8500041F2E1
:100B60002C0020440DF0F4F98DF8510041F23400CE
:100B700020440DF0EDF98DF8520041F23C00204484
:100B80000DF0E6F98DF853000DF0DCF9139041F209
:100B9000440020440DF0DCF98DF84C0041F24C008B
:100BA00020440DF0D5F98DF84D0041F25400204459
:100BB0000DF0CEF98DF84E0041F25C0020440DF0AE
:100BC000C7F98DF84F000DF0BDF9129041F26400A5
:100BD00020440DF0BDF98DF8480041F26C0020442E
:100BE0000DF0B6F98DF8490041F2740020440DF083
:100BF000AFF98DF84A0041F27C0504EB05000DF0D9
:100C0000A7F98DF84B0041F2840604EB06000DF0C5
:100C1000B0F9002810D001208DF844000FE000BF8B
:100C200000000000008041400000000000002E4055
:100C3000000000000080464000208DF844009DF830
:100C400044000090129B139A14992068A0300DF074
:100C500018FA0DF0B0FE0700082109A80DF0C8FE33
:100C6000DDE90901CDE9070107A938000DF0CCFE47
:100C700014F569600DF0D8FE41F6C41160542144AA
:100C800014F11C000DF0DFFE04F698600DF0E8FE94
:100C900041F6481004EB000181ED000B04EB00016C
:100CA00014F1B4000DF006FF14F56A600DF0D8FEE3
:100CB00004EB080080ED000B14F5CA5114F1BC00E0
:100CC0000DF0F8FE41F2140004EB000114F1D40021
:100CD0000DF0FDFE41F21C0004EB000114F1DC00FC
:100CE0000DF0F5FE14F56C600DF09EFE069006A862
:100CF0000CF0C0FE4FF4CC5704EB0702C2E9000130
:100D000014F56C6114F501700DF0F4FE04F6D86072
:100D10000DF08AFE41F688116050214414F50770E9
:100D20000DF0FAFE14F574600DF023F9002801D0DF
:100D3000012000E0002041F6D4116054615C14F100
:100D400060000DF0F6FE04F658700DF012F9002860
:100D500001D0012000E0002004F8090014F8091077
:100D600014F515700DF0E5FE41F2387A14F809100B
:100D700004EB0A000DF0F3FE14F8091014F5BD5051
:100D80000DF0EDFE14F8091014F5C3500DF0E7FE58
:100D900041F6C80814F8091004EB08000DF0DFFE56
:100DA00041F2B44904EB090104F628200DF08FFE4E
:100DB00004EB09000DF054FE41F6A82904EB0900EC
:100DC00080ED000B41F2BC4B04EB0B0114F52360EA
:100DD0000DF07DFE04EB0B000DF042FE41F6B0205D
:100DE000204480ED000B41F2C44B04EB0B0104F6F0
:100DF00038200DF06CFE04EB0B000DF031FE41F6D7
:100E0000B820204480ED000B41F2CC4B04EB0B01E9
:100E100004F648200DF05BFE04EB0B000DF020FE05
:100E200014F5D65080ED000B04EB090090ED000B9B
:100E300014F5B25008F0B1F904F6D8700DF099F835
:100E4000002801D0012000E0002041F6C8216054B4
:100E500004F6D87114F556700DF084FE14F56C602C
:100E60000DF0E2FD059005A80CF004FE04EB07026E
:100E7000C2E9000141F2240004EB000114F5A06076
:100E80000DF08FFE41F22C0004EB000114F5A1607F
:100E90000DF087FE41F2340004EB000114F5A2606E
:100EA0000DF07FFE41F23C0004EB000114F5A3605D
:100EB0000DF077FE41F2440004EB000114F5A4604C
:100EC0000DF06FFE41F24C0004EB000114F5A5603B
:100ED0000DF067FE41F2540004EB000114F5A6602A
:100EE0000DF05FFE41F25C0004EB000114F5A76019
:100EF0000DF057FE41F2640004EB000114F5A86008
:100F00000DF04FFE41F26C0004EB000114F5A960F6
:100F10000DF047FE41F2740004EB000114F5AA60E5
:100F20000DF03FFE04EB050114F5AB600DF039FE4A
:100F300004EB060114F5AC600DF014FE41F67025CB
:100F400004EB0500D0E9002304EB0A0005F0FAF9F0
:100F500004EB0500D0E9002314F5BD5005F0F2F9CB
:100F600004EB0500D0E9002341F60800204405F019
:100F700007F904EB0500D0E9002314F5C35005F090
:100F8000E1F904EB0500D0E9002304EB080005F0CB
:100F9000D9F914F52F6104F678300DF015FE04F63A
:100FA000383104F6B8300DF03CFE04F6AC3104F6EE
:100FB000B8300DF038FE04F6943104F6B8300DF078
:100FC00032FE14F53A6104F6B8300DF02CFE142010
:100FD000049004A80CF04EFD02000B0004F6B8309B
:100FE0000DF02BFE1420039003A80CF043FD02002B
:100FF0000B0004F6B8300DF02BFE4FF4FA7002909F
:1010000002A80CF037FD02000B0004F6B8300DF01A
:101010002AFE3220019001A80CF02CFD02000B00EA
:1010200004F6B8300DF02BFE78200DF02BFE0500F5
:10103000231D04F6AC3204F6783128000FF0FFFDD2
:10104000010004F648400FF027FF002104F6A82015
:1010500005F0FFFAB4F89E0A0090694604F61410F1
:101060000DF05AFD14F59E5104F61C100DF042FDD2
:1010700014F5B2500FF026FF41F2D44020440CF09A
:1010800067FF41F22865605541F2E44020440FF0CB
:101090001DFF41F22A66A05341F2EC4020440DF0BE
:1010A000DFFC41F2306704EB070080ED000B41F2FA
:1010B000F44020440DF0B8FC41F23861605004EB7C
:1010C000050104F678200DF0BEFC04EB060104F6E1
:1010D00088200FF00CFF04EB070114F527600DF0DA
:1010E000E9FC04EB070090ED000B14F5A85005F0A7
:1010F0007FFC615D14F5A85005F04DFCA15B14F573
:10110000A85005F059FC200051B0BDE8F08F000058
:10111000C8A90508C0A90508B8A90508DCA80508DC
:10112000E4A80508ECA80508F4A80508FCA805082B
:101130000000F03F00002840000069400088C340E4
:101140009A9999999999A93F3333C33F000039403F
:101150000AD7A3703D0AC73F10B50400206810F5F8
:10116000987104F6383008F08EFD206810F59E71F5
:1011700004F6383008F09FFD04F6383008F0BCFD66
:1011800010BD70472DE9F84F2DED048BECB0040035
:1011900014F5A85005F066FC20680DF00AFB04F673
:1011A00058400AF003FA04F628500BF019FF14F522
:1011B000B25008F0B9F894F8200D002834D00CF0A3
:1011C000C1FE04900CF0BEFE16900CF0BBFE159014
:1011D00000208DF80D000DF10D00009015AB16AA42
:1011E00004A92068A0300CF02DFF9DF81000002805
:1011F0000BD19DF81100002807D19DF8120000289E
:1012000003D19DF8130000280ED0002084F8200D93
:10121000206810F1A0010DF10E0006F08FFA0021F8
:1012200004F6A82005F015FA41F2387504EB050024
:1012300005F0DEF814F5BD5005F0DAF841F60806C1
:1012400004EB060004F0F0FF14F5C35005F0D0F8ED
:1012500041F6C80804EB080005F0CAF804F6A82017
:1012600005F00CFA04F648400FF04EFE0FF08CFD2E
:1012700014F52F6008F0FAFA04F6B8300FF066FEA5
:1012800041F6D020204406F079FD41F6B0602044BC
:1012900007F009FB42F27010204407F004FB04F64B
:1012A00094300FF0A8FF002801D0012000E00020BA
:1012B000C0B2002804D0002104F6A82005F0C9F926
:1012C00041F2F86020440CF0F8FCC0B2002801D0D4
:1012D000012000E00020C0B2002800F013840021AB
:1012E000201D0FF08EFF41F6301914F80900012877
:1012F00000F0828014F5AE700CF03BFE070004EBAA
:10130000050005F00CF8874201D0012000E0002024
:10131000C0B2002808D004EB050005F000F8010079
:1013200014F5AE700DF005FC14F5B4700CF021FE50
:10133000070014F5BD5004F0F2FF874201D00120F0
:1013400000E00020C0B2002808D014F5BD5004F021
:10135000E6FF010014F5B4700DF0EBFB14F59C7082
:101360000CF007FE070004EB060004F0FEFE8742C7
:1013700001D0012000E00020C0B2002808D004EB1A
:10138000060004F0F2FE010014F59C700DF0D1FB94
:1013900014F1FC000CF0EDFD070014F5C35004F04F
:1013A000BEFF874201D0012000E00020C0B200282B
:1013B00008D014F5C35004F0B2FF010014F1FC0092
:1013C0000DF0B7FB14F584700CF0D3FD070004EBAF
:1013D000080004F0A4FF874201D0012000E00020B3
:1013E000C0B2002808D004EB080004F098FF010008
:1013F00014F584700DF09DFB14F5A85005F0B7FAB4
:10140000C0B2002801D0012000E00020C0B20028B6
:101410002BD014F5A85005F0B2FA8DED2E0B2EA9A5
:1014200014F525600DF046FB14F5A85005F0AAFA56
:101430008DED2C0B2CA904F658200DF03BFB14F578
:10144000A85005F0A2FA8DED2A0B2AA914F5266002
:101450000DF030FB14F5A85005F09AFA8DED280B2D
:1014600028A904F668200DF025FB14F5A8500FF00C
:10147000E3FEADF8140005A904F608200FF037FDCF
:1014800004F678200CF064FD41F22867E15DC0B2FB
:10149000884201D0012000E00020C0B2002817D00F
:1014A00004F678200CF054FD0100C9B214F5A850E0
:1014B00005F071FAE05504EB070104F678200DF011
:1014C000C2FA04EB070141F2D44020440DF0BBFA0C
:1014D00014F80900022800F0958004F688200FF027
:1014E000F5FC41F22A67E15B80B2884201D001201D
:1014F00000E00020C0B2002817D004F688200FF0CA
:10150000E5FC010089B214F5A85005F055FAE05346
:1015100004EB070104F688200FF0E9FC04EB070157
:1015200041F2E44020440FF0E2FC14F527600DF096
:1015300097FA41F2306753EC102B04EB0700D0E927
:1015400000010FF08DFE01D0012000E00020C0B2AC
:10155000002818D014F527600DF082FA14F5A85071
:1015600005F046FA04EB070080ED000B04EB0701E1
:1015700014F527600DF09EFA04EB070141F2EC40F0
:1015800020440DF097FA14F529600DF04DFA41F260
:101590003867E159884201D0012000E00020C0B244
:1015A000002816D014F529600DF03EFA010014F55C
:1015B000A85005F013FAE05104EB070114F5296077
:1015C0000DF0AAFA04EB070141F2F44020440DF0BB
:1015D000A3FA14F528600CF0BBFCC0B2002801D0BF
:1015E000012000E00020C0B200280BD000208DF8C0
:1015F0000C0003A914F528600DF025FA14F5A85085
:1016000005F026FA14F190000CF0A2FC14F8091071
:10161000C0B2884201D0012000E00020C0B2002802
:1016200009D014F809008DF80B000DF10B0114F12D
:1016300090000DF008FA14F5B25007F021FEB0EE5C
:10164000408AF0EE608A14F524600DF009FA53EC3C
:10165000182B51EC100B0FF003FE01D0012000E01D
:101660000020C0B200280AD014F5B25007F008FEDE
:101670008DED260B26A914F524600DF01BFA14F845
:10168000090000282CD141F63110205C022827D116
:1016900014F5AF600CF06DFC012801D1012000E0D1
:1016A0000020C0B200280CD0002114F5AF600DF06E
:1016B00040FA002104F26C500DF03BFA200001F0DA
:1016C0000BFE04F26C500CF054FC002801D10120F8
:1016D00000E00020C0B2002802D0200001F065FE2A
:1016E00014F11C000CF034FC070014F569600DF0D7
:1016F0009BF9FFB2874201D0012000E00020C0B278
:10170000002809D014F11C000CF022FC149014A93C
:1017100014F569600DF000FA14F1B4000DF0A0F9B1
:10172000B0EE408AF0EE608A04F698600DF098F909
:1017300053EC182B51EC100B0FF092FD01D001204F
:1017400000E00020C0B2002805D014F1B40104F676
:1017500098600DF0BCF914F1BC000DF081F9B0EE09
:10176000408AF0EE608A14F56A600DF079F953EC66
:10177000182B51EC100B0FF073FD01D0012000E08D
:101780000020C0B2002805D014F1BC0114F56A6035
:101790000DF09DF914F1D4000DF062F9B0EE408A1D
:1017A000F0EE608A41F2140704EB07000DF058F9DF
:1017B00053EC182B51EC100B0FF052FD01D001200F
:1017C00000E00020C0B2002805D014F1D40104EBE1
:1017D00007000DF07CF914F1DC000DF041F9B0EEDA
:1017E000408AF0EE608A41F21C0704EB07000DF01E
:1017F00037F953EC182B51EC100B0FF031FD01D0E1
:10180000012000E00020C0B2002805D014F1DC0166
:1018100004EB07000DF05BF914F501700DF004F90D
:10182000070014F56C600DF0FFF8874201D001202D
:1018300000E00020C0B2002805D014F5017114F5B5
:101840006C600DF057F914F507700DF0EDF8070016
:1018500004F6D8600DF0E8F8874201D0012000E0DE
:101860000020C0B2002805D014F5077104F6D86036
:101870000DF040F914F160000CF07BFB070014F54B
:1018800074600CF076FB874201D0012000E000205C
:10189000C0B2002805D014F1600114F574600DF099
:1018A00061F914F515700CF064FB070004F658702C
:1018B0000CF05FFB874201D0012000E00020C0B2A5
:1018C000002811D014F5157104F658700DF04AF97E
:1018D00014F515700CF04DFB002801D0012000E03C
:1018E000002041F6D511605442F29030205C01286E
:1018F00009D043D303281AD00FD305282AD01FD3E9
:10190000062831D03AE001208DF80A000DF10A01D5
:1019100014F55C700DF097F838E002208DF809009E
:101920000DF1090114F55C700DF08DF82EE0032027
:101930008DF8080002A914F55C700DF084F825E01C
:1019400004208DF807000DF1070114F55C700DF00F
:101950007AF81BE005208DF806000DF1060114F55C
:101960005C700DF070F811E006208DF805000DF1A7
:10197000050114F55C700DF066F807E000208DF8A5
:10198000040001A914F55C700DF05DF841F224002B
:1019900004EB000114F5A0600FF072FC41F22C0082
:1019A00004EB000114F5A1600FF06AFC41F2340071
:1019B00004EB000114F5A2600FF062FC41F23C0060
:1019C00004EB000114F5A3600FF05AFC41F244004F
:1019D00004EB000114F5A4600FF052FC41F24C003E
:1019E00004EB000114F5A5600FF04AFC41F254002D
:1019F00004EB000114F5A6600FF042FC41F25C001C
:101A000004EB000114F5A7600FF03AFC41F264000A
:101A100004EB000114F5A8600FF032FC41F26C00F9
:101A200004EB000114F5A9600FF02AFC41F27400E8
:101A300004EB000114F5AA600FF022FC41F27C00D7
:101A400004EB000114F5AB600FF01AFC41F28400C6
:101A500004EB000114F5AC600FF02EFC14F50250FD
:101A600007F050F914F50D5007F04CF914F54770D4
:101A70000CF07FFA012801D1012000E00020C0B263
:101A8000002807D0002114F547700DF052F820000F
:101A900002F054FB04F614100CF0C6FFB4F89E1AC2
:101AA000884201D0012000E00020C0B2002807D009
:101AB000B4F89E0A099009A904F614100DF02CF848
:101AC00004F61C100CF0B0FF070014F59E500CF04B
:101AD000ABFF874201D0012000E00020C0B2002807
:101AE00005D004F61C1114F59E500DF003F841F6D4
:101AF0001020204403F055FC089008A914F5097043
:101B00000DF00AF841F2087020440CF0D6F8C0B28B
:101B1000002801D0012000E00020C0B2002814D02D
:101B200041F23077E05D002804D02068C0300FF02B
:101B3000B5FC03E02068C0300FF0B9FCE05D002880
:101B400001D1012000E00020E05514F5D2500CF046
:101B5000B4F8C0B2002801D0012000E00020C0B2DB
:101B600000283AD041F63820205C00280AD04FF4F3
:101B7000D0502158491C215014F5D05114F50B7048
:101B80000CF0CAFF41F63010205C022825D141F646
:101B9000082954F80900401C44F8090041F60C27B4
:101BA000E2590021E059401E0FF07BFEE05141F662
:101BB000102704EB070003F05AFB04EB090114F5AE
:101BC0000F700CF0A9FF04EB070003F0E8FB07908F
:101BD00007A914F511700CF09FFF41F6301A14F8A4
:101BE0000A00002806D0022800F06D83C0F0E980CA
:101BF00001F066BB41F63117E05D002804D00228F1
:101C000000F0A2806DD3DAE00CF0D5FEDFF8F41D11
:101C10000FF04EFE002104EB050004F077FB0021DD
:101C200014F5BD5004F072FB012104EB060004F032
:101C300093FA002114F5C35004F068FB002104EB73
:101C4000080004F063FB002104EB05000CF087FFA3
:101C5000002114F5BD500CF082FF002114F5C35093
:101C60000CF07DFF002104EB08000CF078FF002150
:101C700014F178000CF05DFF41F6881004EB0001D0
:101C800014F507700CF048FF41F2187020440BF077
:101C90008BFF41F2286004EB000104F678200CF081
:101CA000D2FE41F22A6004EB000104F688200FF016
:101CB0001EF941F2306004EB000114F527600CF0CE
:101CC000F9FE41F2386004EB000114F529600CF0D4
:101CD00023FF002114F5A85004F03DFE0120E0553B
:101CE0006DE041F2187020440BF06BFFC0B2002889
:101CF00001D0012000E00020C0B2002823D00CF069
:101D00005AFEDFF8005D29000FF0D2FD0CF053FE03
:101D1000DFF8E46C31000FF0D1FD29000FF0C8FDB1
:101D20000CF049FEDFF8C81C0FF0C8FD29000FF0C9
:101D3000BFFD0CF040FE31000FF0C0FD29000FF098
:101D4000B7FD0220E0553AE014F178000CF011F9EB
:101D5000012801D1012000E00020C0B200282ED0CF
:101D6000002114F178000CF0E4FE002114F184004D
:101D70000CF0DFFE14F10C000CF0EAF8C0B2012800
:101D800002D0022806D011E0012004F80A00002049
:101D9000E05514E004F648400FF0B6F80EF0BEFF30
:101DA000022004F80A000020E05508E000208DF829
:101DB00003000DF1030114F10C000CF044FE01F0DE
:101DC0007FBA4FF4CF57E05D002802D001284FD0F2
:101DD00077E20CF0F0FDDFF82C9C49460FF068FD2F
:101DE0000CF0E9FDDFF810AC51460FF067FD4946F5
:101DF0000FF05EFD0CF0DFFDDFF8F81B0FF05EFD6D
:101E000049460FF055FD0CF0D6FD51460FF056FD3A
:101E100049460FF04DFD41F6702904EB0900D0E969
:101E2000002304EB050004F08DFA04EB0900D0E96F
:101E3000002314F5BD5004F085FA04EB0900D0E945
:101E4000002304EB060004F09BF904EB0900D0E941
:101E5000002314F5C35004F075FA04EB0900D0E92F
:101E6000002304EB080004F06DFA0120E05528E29D
:101E700014F16C000CF07DF8012801D1012000E084
:101E80000020C0B2002813D0002114F16C000CF027
:101E900050FE0020E055002004F80A0000208DF8D4
:101EA00002000DF1020114F10C000CF0CCFD08E26F
:101EB00014F5AE700CF05DF8070004EB050004F0BB
:101EC0002EFA874201D0012000E00020C0B2002895
:101ED00008D014F5AE700CF04CF8010004EB0500CE
:101EE00004F014FA14F5B4700CF043F8070014F57C
:101EF000BD5004F014FA874201D0012000E0002018
:101F0000C0B2002808D014F5B4700CF032F801000B
:101F100014F5BD5004F0FAF914F59C700CF029F892
:101F2000070004EB060004F020F9874201D00120ED
:101F300000E00020C0B2002808D014F59C700CF01E
:101F400018F8010004EB060004F006F914F1FC0097
:101F50000CF00FF8060014F5C35004F0E0F98642C7
:101F600001D0012000E00020C0B2002808D014F108
:101F7000FC000BF0FEFF010014F5C35004F0C6F99D
:101F800014F584700BF0F5FF060004EB080004F074
:101F9000C6F9864201D0012000E00020C0B200282E
:101FA00008D014F584700BF0E4FF010004EB080086
:101FB00004F0ACF904EB05000FF07BFD41F6D516FB
:101FC000A15DC0B2814201D0012000E00020C0B27A
:101FD000002804D0A15D04EB05000CF0C0FD14F551
:101FE000BD500FF066FDA15DC0B2814201D001205D
:101FF00000E00020C0B2002804D0A15D14F5BD505F
:102000000CF0ADFD14F5C3500FF053FDA15DC0B24F
:10201000814201D0012000E00020C0B2002804D09D
:10202000A15D14F5C3500CF09AFD04EB08000FF00D
:1020300040FDA15DC0B2814201D0012000E000203E
:10204000C0B2002804D0A15D04EB08000CF087FDAD
:1020500004F628200CF004FD41F6A82553EC102BC3
:1020600004EB0500D0E900010FF0FAF801D00120DF
:1020700000E00020C0B200283AD004F628200CF07E
:10208000EFFC14F5D45090ED002B41F6782020445D
:1020900090ED001B0FF010FD8DED120B04F62820C3
:1020A0000CF0DEFC53EC102BDDE912010FF0D8F838
:1020B00001D0012000E00020C0B2002804D012A905
:1020C00004F628200CF0F6FC04EB05009DED120B45
:1020D00080ED000B12A941F2B44020440CF0EAFC60
:1020E00004EB050090ED000B14F5B25007F055F825
:1020F00014F523600CF0B4FC41F6B02553EC102B22
:1021000004EB0500D0E900010FF0AAF801D001208E
:1021100000E00020C0B2002832D014F523600CF09B
:102120009FFC14F5D45090ED002B41F6782020440C
:1021300090ED001B0FF0C0FC8DED100B14F523602B
:102140000CF08EFC53EC102BDDE910010FF088F839
:1021500001D0012000E00020C0B2002804D010A966
:1021600014F523600CF0A6FC04EB05009DED100BAC
:1021700080ED000B10A941F2BC4020440CF09AFC09
:1021800004F638200CF06CFC41F6B82553EC102B0B
:1021900004EB0500D0E900010FF062F801D0012046
:1021A00000E00020C0B200283BD004F638200CF03C
:1021B00057FC41F69020204490ED002B41F68820FA
:1021C000204490ED001B0FF077FC8DED0E0B04F614
:1021D00038200CF045FC53EC102BDDE90E010FF01C
:1021E0003FF801D0012000E00020C0B2002804D058
:1021F0000EA904F638200CF05DFC04EB05009DED03
:102200000E0B80ED000B0EA941F2C44020440CF0EF
:1022100051FC04EB050090ED000B14F5B25007F0F3
:102220004DF804F648200CF01BFC4FF4D65553EC47
:10223000102B04EB0500D0E900010FF011F801D0DC
:10224000012000E00020C0B200283AD004F6482067
:102250000CF006FC14F5D55090ED002B41F69820BB
:10226000204490ED001B0FF027FC8DED0C0B04F6C5
:1022700048200CF0F5FB53EC102BDDE90C010EF0BF
:10228000EFFF01D0012000E00020C0B2002804D000
:102290000CA904F648200CF00DFC04EB05009DEDA4
:1022A0000C0B80ED000B0CA941F2CC4020440CF04B
:1022B00001FC04EB050090ED000B14F5B25006F0A4
:1022C000E3FF00F0FDBF41F63217E05D002833D098
:1022D000022800F04383C0F02183042800F0E28349
:1022E000C0F09283062800F00584C0F0EF83082830
:1022F00000F07A84C0F01E840A2800F0C784C0F081
:1023000087840C2800F0FE84C0F0D9840E2800F0E9
:10231000A485C0F01785102800F0CD85C0F0B785E2
:10232000122800F0FD85C0F0EC85142800F06D87C0
:10233000C0F0068700F077BF0CF03DFBDFF8C41655
:102340000FF0B6FA0CF037FBDFF8ACB659460FF0D9
:10235000B5FADFF8B0160FF0ABFA0CF02CFBDFF893
:10236000D01D0FF0ABFADFF89C160FF0A1FA0CF0BD
:1023700022FB59460FF0A2FADFF888160FF098FA00
:102380000CF019FBDFF8B41D0FF0C2FB14F1B40020
:102390000CF066FB41F64810204480ED000B14F170
:1023A000BC000CF05DFB14F5CA5080ED000B002062
:1023B00041F63D11605414F501700CF035FB0B90A3
:1023C0000BA80BF057FB4FF4CC5904EB0902C2E900
:1023D000000104EB0900D0E9002304EB050003F041
:1023E000B1FF04EB0900D0E9002314F5BD5003F060
:1023F000A9FF04EB0900D0E9002304EB060003F079
:10240000BFFE04EB0900D0E9002314F5C35003F02C
:1024100099FF04EB0900D0E9002304EB080003F066
:1024200091FF14F515700BF0A4FD002801D00120D8
:1024300000E0002041F6D516A055A15D04F65870C5
:102440000CF077FBA05D002813D0012104EB050000
:102450000CF085FB012114F5BD500CF080FB01212F
:1024600014F5C3500CF07BFB012104EB08000CF0C9
:1024700076FB14F5CC5141F6582020440BF089FB33
:10248000002041F23C61605441F6C81020440FF036
:1024900049FB41F6901020440FF05FFB41F6B81065
:1024A00020440FF06DFB14F11C000BF051FD41F6C0
:1024B000C4156055605D022827DB04EB050114F1AB
:1024C000A0000CF0C0FA0CF076FA59460FF0F6F9BD
:1024D000DFF830150FF0ECF90CF06DFADFF8EC1DB9
:1024E0000FF0ECF90CF067FA615D0FF064FBDFF8B8
:1024F000145529000FF0DCF90CF05DFA59460FF085
:10250000DDF929000FF0D4F908E001208DF8010071
:102510000DF1010114F1A0000CF095FA14F1600026
:102520000BF027FD002801D0012000E0002041F63B
:10253000D4116054615C14F160000CF0FAFA14F5E7
:10254000A8500FF0BCFB41F22860215C14F5A850A4
:1025500004F021FA41F22A60215A14F5A85004F03F
:102560002BFA14F507700CF05FFA41F688156051EC
:102570004FF47A700A900AA80BF07CFACDE9240196
:1025800024A941F6E81020440BF003FB002014F5C9
:10259000D0510860002041F60821605000200690CC
:1025A00006A914F50F700CF0B7FA41F6102020447C
:1025B00002F029FE615941F61020204402F04EFE3F
:1025C00004F628200CF04CFA41F6A82504EB05008F
:1025D00080ED000B41F678294FF4D45804EB080045
:1025E00090ED002B04EB090090ED001B04EB0500BF
:1025F00090ED000B0FF060FA04EB050080ED000B8E
:1026000041F2B44604EB06000CF02AFA04EB050094
:10261000D0E9002351EC100B0EF022FE01D0012076
:1026200000E00020C0B2002805D004EB050104EB57
:1026300006000CF03FFA14F523600CF011FA41F695
:10264000B02604EB060080ED000B04EB080090EDD3
:10265000002B04EB090090ED001B04EB060090ED4D
:10266000000B0FF029FA04EB060080ED000B41F29D
:10267000BC4804EB08000CF0F3F904EB0600D0E9C9
:10268000002351EC100B0EF0EBFD01D0012000E017
:102690000020C0B2002805D004EB060104EB0800BE
:1026A0000CF008FA04EB0500D0E9000104EB060287
:1026B000D2E900230FF016FB07D204EB060004EB6F
:1026C000050191ED000B80ED000B04F638200CF0B5
:1026D000C7F941F6B82904EB090080ED000B41F67B
:1026E0009020204490ED002B41F68820204490ED6E
:1026F000001B04EB090090ED000B0FF0DDF904EB7B
:10270000090080ED000B41F2C44804EB08000CF016
:10271000A7F904EB0900D0E9002351EC100B0EF0EF
:102720009FFD01D0012000E00020C0B2002805D0AC
:1027300004EB090104EB08000CF0BCF904F6482096
:102740000CF08EF94FF4D65804EB080080ED000B26
:1027500014F5D55090ED002B41F69820204490EDD3
:10276000001B04EB080090ED000B0FF0A5F904EB43
:10277000080080ED000B41F2CC4B04EB0B000CF099
:102780006FF904EB0800D0E9002351EC100B0EF0B8
:1027900067FD01D0012000E00020C0B2002805D074
:1027A00014F5D65104EB0B000CF084F914F55670B7
:1027B0000BF0DFFB002801D0012000E0002041F6F3
:1027C000C82B04F80B0004F6D8700BF0D2FB14F8F9
:1027D0000B10814201D0012000E00020C0B200288F
:1027E00005D014F80B1004F6D8700CF0A2F904EB25
:1027F000080090ED000B14F5B25006F045FD04EB17
:10280000090090ED000B14F5B25006F057FD9FED56
:102810007B8B14F80B0000280CD004EB060090ED25
:10282000000B14F5B25006F0B8FC04EB060090ED76
:10283000009B0BE004EB050090ED000B14F5B2508B
:1028400006F0ABFC04EB050090ED009B0CF0B3F838
:10285000DFF8201C0FF032F80CF0ADF8DFF8181C90
:102860000FF056F9DFF8D4180FF052F906000421E2
:1028700030A80CF0BDF8DDE93001CDE9220122A934
:1028800030000CF0C1F80CF096F804EB050191ED66
:10289000000B0FF03EFA0CF08EF8DFF8E01B0FF0A3
:1028A0000DF80CF088F8B0EE490AF0EE690A0FF066
:1028B00030FA0CF080F8CBA10FF000F851490EF07F
:1028C000F7FF0CF078F80500082130A80CF090F81C
:1028D000DDE93001CDE9200120A928000CF094F8B1
:1028E000012141F6D02020440FF083FA42F29030CB
:1028F0000121215441F61025215C04EB050002F072
:1029000052FD0A2104EB050002F0C6FD002041F64D
:10291000502160540120E05500F085BC14F5A8500A
:102920000FF06DFA01280CD114F5B25006F0F2FC4C
:10293000C0B2002801D1012000E0002090F0010089
:1029400000E00020C0B2002806D0012114F5BD50DF
:1029500003F0DCFC0220E05500F065BC20000FF025
:1029600051FAC0B2002801D0012000E00020C0B21E
:1029700000283AD0002041F63821605441F6E81092
:1029800020440BF011F941F68810205841F68C11C3
:1029900060500CF010F81B4D29000EF089FFDFF895
:1029A000E01A0EF08BFF0CF006F8060014F5077025
:1029B0000CF03AF8010030000FF067FAB1A10EF008
:1029C0007DFF29000EF074FF42F290300221215465
:1029D000215C41F61020204402F0E5FC002114F5B2
:1029E000A85003F0B8FF0320E05500F01CBC00BF66
:1029F000285905084C59050804590508000000002D
:102A000000000000AD47050841F6E81604EB06009B
:102A10000BF0D7F8C0B2002801D0012000E0002060
:102A2000C0B200283DD041F68C15605900281ED058
:102A300004EB06000BF0B8F86059401E60510BF033
:102A4000BAFF91A10EF03AFFDFF83C1A0EF030FF0A
:102A500060593C21B0FBF1F201FB1200002820D1AB
:102A60000BF0A9FFDFF81C1A0EF022FF19E014F595
:102A7000A8500FF024F9012041F6502160540BF0CA
:102A80009AFFDFF8001A0EF013FF42F29030032194
:102A90002154215C41F61020204402F084FC0420E3
:102AA000E055C0E314F5A8500FF059FA002801D002
:102AB000012000E00020C0B2002806D0002114F55B
:102AC000BD5003F023FC0520E055ACE320000FF0DF
:102AD00099F9C0B2002801D0012000E00020C0B266
:102AE000002806D0002104EB060003F035FB062089
:102AF000E05598E320000FF085F9C0B200280BD014
:102B000014F5A8500FF02BFA002801D1012000E0A5
:102B1000002090F0010000E00020C0B2002808D0A2
:102B200041F23860215814F5A85003F014FF072033
:102B3000E05578E314F5A8500FF011FA002801D001
:102B4000012000E00020C0B200284AD014F5A850AF
:102B500003F015FF41F6901804EB080080ED000B20
:102B600014F5A85003F00EFF41F6981504EB05008C
:102B700080ED000B0BF01FFFDFF88C190EF09EFEAE
:102B8000DFF8006931000EF093FE0BF014FFDFF860
:102B90007C190EF093FE04EB080191ED000B0FF091
:102BA000B8F80BF008FF0FF23C0841460EF086FE25
:102BB00031000EF07DFE0BF0FEFEDFF854190EF032
:102BC0007DFE04EB050191ED000B0FF0A2F80BF078
:102BD000F2FE41460EF072FE31000EF069FE082052
:102BE000E05520E320C2000020000FF00BF9C0B236
:102BF000002801D0012000E00020C0B2002806D04B
:102C0000012104EB060003F0A7FA0920E0550AE3CE
:102C100020000FF0F7F8C0B2002801D0012000E03A
:102C20000020C0B200282CD041F63D10205C0028C6
:102C300002D0012810D01EE0012114F5BD5003F090
:102C400065FB0BF0B8FEDFF8CC180EF037FEDFF8AE
:102C500034180EF02DFE0EE0012104EB050003F008
:102C600055FB0BF0A8FEDFF8B0180EF027FEDFF8DA
:102C700014180EF01DFE002041F23C6160540A2041
:102C8000E055D0E2206300002E00000020000FF08D
:102C9000B9F8C0B2002801D0012000E00020C0B285
:102CA00000280BD041F6D410205C002804D000216D
:102CB00004EB060003F050FA0B20E055B3E22000CD
:102CC0000FF0A0F8C0B2002801D0012000E00020E1
:102CD000C0B2002815D041F23C65615D20000FF0C4
:102CE00047F9010004EB080003F010FB615D2000D0
:102CF0000FF044F9010014F5C35003F007FB0C205A
:102D0000E05590E220000FF07DF8C0B200280BD013
:102D100014F5A8500FF023F9002801D1012000E09C
:102D2000002090F0010000E00020C0B2002808D090
:102D300041F23860215814F5A85003F00CFE0D2024
:102D4000E05570E214F5A8500FF009F9002801D001
:102D5000012000E00020C0B200287DD014F5A8506A
:102D600003F00DFE8DED1A0B14F5A85003F00AFECA
:102D70008DED180B1AA914F5CD500FF004F918A910
:102D800041F6AC1020440FF0FEF80BF014FEDFF813
:102D90008C170EF093FDDFF8EC5629000EF088FD3D
:102DA0000BF009FEB2A10EF089FD0BF004FE804687
:102DB00041F23C66A15D20000FF0E0F801004046C2
:102DC0000EF0F9FE0BF0F7FD8046A15D20000FF03C
:102DD000CFF8010040460EF0EEFE0BF0ECFD0FF2D6
:102DE0004C3841460EF06AFD9DED1A0B0EF091FF36
:102DF0000FF2403949460EF061FD29000EF058FDF2
:102E00000BF0D9FDCCA10EF059FD0BF0D4FD83469B
:102E1000A15D20000FF0B2F8010058460EF0CBFE85
:102E20000BF0C9FD8346A15D20000FF0A1F8010061
:102E300058460EF0C0FE0BF0BEFD41460EF03EFDC2
:102E40009DED180B0EF065FF49460EF037FD290089
:102E50000EF02EFD0E20E055E5E120000EF0D2FF31
:102E6000C0B2002801D0012000E00020C0B200283C
:102E70000CD041F23C60215C042905DA215C491C3C
:102E800021540B20E05501E00F20E055CBE120005C
:102E90000EF0B8FFC0B2002801D0012000E00020F1
:102EA000C0B2002806D0012104EB060003F054F95B
:102EB0001020E055B7E120000EF0A4FFC0B20028BA
:102EC00001D0012000E00020C0B2002818D041F657
:102ED0003D16A05D002802D001280AD010E0002194
:102EE00014F5BD5003F012FA0120A0550920E05559
:102EF00006E0002104EB050003F008FA1120E0557C
:102F000091E120000EF07EFFC0B2002801D0012028
:102F100000E00020C0B2002801D01220E05582E17C
:102F20000BF049FDDFF8F8150EF0C8FCDFF854553A
:102F300029000EF0BDFC022104F6A82003F089FB55
:102F400041F604264FF4D05854F80800A05104EB81
:102F5000060114F50D700BF0DFFD002044F80800A9
:102F600014F5D05114F50B700BF0D6FD0BF023FDCA
:102F700029000EF09DFCA059429004F2D4700BF091
:102F80006FFD8DED3C0B04F2BC700BF069FD8DED17
:102F90003E0B04F2C4700BF063FD8DED400B0BF0A3
:102FA0000AFDDFF880150EF089FC41F690112144EE
:102FB00091ED000B0EF0ADFE0BF0FDFCC4A6310050
:102FC0000EF07CFC41F69811214491ED000B0EF0BF
:102FD000A0FE29000EF06CFC5FF000084046C0B275
:102FE000042847DA0BF0E7FCBAA10EF067FC0BF0FF
:102FF000E2FC81464146C9B220000EF0BFFF01004D
:1030000048460EF0D8FD0BF0D6FC81464146C9B2C9
:1030100020000EF0ADFF010048460EF0CCFD0BF095
:10302000CAFC31000EF04AFC81464146C9B214F593
:10303000CD500FF02FF890ED000B48460EF069FED2
:103040000BF0B9FC31000EF039FC81464146C9B2A3
:1030500041F6AC1020440FF01DF890ED000B4846EF
:103060000EF057FE29000EF023FC18F10108B5E719
:1030700056315F0041F6501604EB06020020DFF8DF
:10308000A814C2E900010BF096FCDFF8A0140EF0C2
:1030900015FC29000EF00CFC0BF08DFC80460E2177
:1030A00030A80BF0AAFCDDE93001CDE91C011CA918
:1030B00040460BF0A9FC80460E2130A80BF098FC8E
:1030C000DDE93001CDE91E011EA940460BF09CFC54
:1030D0000BF071FC04EB060191ED000B0EF019FEF4
:1030E00029000EF0E5FB04EB060090ED000B8DEDE2
:1030F000320B00200021CDE94A0100200021CDE95A
:103100004C0100200021CDE94E0100200021CDE935
:103110005001002052900020539032A941F6C8106F
:1031200020440EF0C1FF1320E0557CE0203D20003C
:103130007059050820C2000056325F002190050832
:10314000002114F1A0000FF039F841F6C81B04EB80
:103150000B000FF053F841F6C415615D88420DD3A2
:10316000012114F184000BF0E4FC04F648400DF05A
:10317000CBFE0DF0DCFD1420E05545E00BF01BFC10
:10318000DFF8AC6331000EF099FBDFF8F8824146BE
:103190000EF08EFB0BF00FFCDFF898130EF08EFB99
:1031A0000BF009FC814604EB0B000FF027F8401CE4
:1031B000010048460EF069FE0BF0FDFBDFF87813C6
:1031C0000EF07CFB615D0EF0F6FC41460EF070FBEC
:1031D0000BF0F1FB31000EF071FB41460EF068FB85
:1031E000002041F63D11605441F6C820205C0028C3
:1031F00008D041F6B020204490ED000B14F5B250F9
:1032000005F0CBFF0420E0550DE0002041F6382109
:103210006054032104F6A82003F01BFA0020E055B7
:10322000002004F80A0014F16C000AF0A2FE012844
:1032300001D1012000E00020C0B2002840D00BF0F6
:10324000BAFBDFF8EC120EF039FBDFF83852290038
:103250000EF02EFB0BF0AFFBDFF8E0120EF02EFBB2
:1032600029000EF025FB002114F16C000BF061FC2D
:1032700042F2903000212154215C41F6102020447C
:1032800002F091F814F5A8500EF019FD14F80A0098
:10329000022808D104F648400DF036FE0DF035FD49
:1032A0001420E0550CE00020E055002004F80A004E
:1032B00000208DF80000694614F10C000BF0C3FBF0
:1032C0006CB0BDEC048BBDE8F18F0000D083050825
:1032D00020000000565F000038B584B004000AF0FA
:1032E00031FE039014F5A0600AF032FE8DF80C0058
:1032F00014F5A1600AF02CFE8DF80D0014F5A26003
:103300000AF026FE8DF80E0014F5A3600AF020FEE8
:103310008DF80F000AF016FE029014F5A4600AF072
:1033200017FE8DF8080014F5A5600AF011FE8DF85F
:10333000090014F5A6600AF00BFE8DF80A0014F5DA
:10334000A7600AF005FE8DF80B000AF0FBFD019066
:1033500014F5A8600AF0FCFD8DF8040014F5A960CE
:103360000AF0F6FD8DF8050014F5AA600AF0F0FDEC
:103370008DF8060014F5AB600AF0EAFD8DF8070041
:1033800014F5AC600AF0F5FD002801D0012500E03D
:1033900000252800C0B20090019B029A0399206882
:1033A000A0300AF06EFE05B030BD18B585B004003F
:1033B0000AF0C8FD04900AF0C5FD03900AF0C2FDB2
:1033C000029000208DF8040001A8009002AB03AA2F
:1033D00004A92068A0300AF035FE04A914F5A06005
:1033E0000BF031FB0DF1110114F5A1600BF02BFB7B
:1033F0000DF1120114F5A2600BF025FB0DF1130184
:1034000014F5A3600BF01FFB03A914F5A4600BF0E7
:103410001AFB0DF10D0114F5A5600BF014FB0DF175
:103420000E0114F5A6600BF00EFB0DF10F0114F563
:10343000A7600BF008FB02A914F5A8600BF003FBD2
:103440000DF1090114F5A9600BF0FDFA0DF10A0167
:1034500014F5AA600BF0F7FA0DF10B0114F5AB604F
:103460000BF0F1FA9DF8041014F5AC600BF061FB61
:1034700006B010BDE4830508C3810508F88305087C
:1034800090780508AD470508D79C050870B505007C
:103490000E00140030003168C9688847C0B20028A7
:1034A00001D1012000E00020C0B2002804D030008B
:1034B0003168896A8847EDE7300009F051FFC0B2F2
:1034C000002801D0012000E00020C0B2002819D05F
:1034D000002C0DD020000EF0A1FE0BF06CFADFF8EE
:1034E000B41B0EF0EBF9DFF8A81B0EF0E1F909E0D0
:1034F0000BF061FADFF8A01B0EF0E0F9DFF8901B8B
:103500000EF0D6F9280070BD9459050804A90508E5
:103510000CA90508B8590508DC590508005A050822
:10352000245A050814A905080000F03F089E050864
:10353000045905080C9705081CA90508485A0508F0
:1035400070472DE9F843ADF5027D04000BF033FA26
:10355000DFF8481B0EF0B2F90BF02DFADFF8305B04
:1035600029000EF0A5F90BF026FA0600122180A81A
:103570000BF043FADDE98001CDE97E017EA9300040
:103580000BF042FADFF8186B31000EF0C1FADFF8E9
:10359000141B0EF093F90BF00EFA0700072180A818
:1035A0000BF02BFADDE98001CDE97C017CA9380024
:1035B0000BF02AFA31000EF0ABFA41F6D411615C3F
:1035C0000FF07CFB0BF0F7F90700202180A80BF02F
:1035D00014FADDE98001CDE97A017AA938000BF00F
:1035E00013FA31000EF094FADFF8BC1A0EF066F907
:1035F0000BF0E1F90700072180A80BF0FEF9DDE9E7
:103600008001CDE9780178A938000BF0FDF931008F
:103610000EF07EFA0BF0CFF90700202180A80BF006
:10362000ECF9DDE98001CDE9760176A938000BF0EF
:10363000EBF931000EF06CFADFF8701A0EF03EF97B
:103640000BF0B9F90700072180A80BF0D6F9DDE9E6
:103650008001CDE9740174A938000BF0D5F931006F
:103660000EF056FA0BF0A7F929000EF021F90BF035
:10367000A2F90700002180A80BF0BAF9DDE980016A
:10368000CDE9720172A938000BF0BEF90BF093F985
:103690000700122180A80BF0B0F9DDE98001CDE927
:1036A000700170A938000BF0AFF931000EF030FA5C
:1036B000DFF8FC190EF002F90BF07DF90700072185
:1036C00080A80BF09AF9DDE98001CDE96E016EA9C1
:1036D00038000BF099F931000EF01AFA0BF06BF983
:1036E0000700202180A80BF088F9DDE98001CDE9F1
:1036F0006C016CA938000BF087F931000EF008FA64
:10370000DFF8B0190EF0DAF80BF055F907000721D1
:1037100080A80BF072F9DDE98001CDE96A016AA9A0
:1037200038000BF071F931000EF0F2F90BF043F9AB
:103730000700202180A80BF060F9DDE98001CDE9C8
:10374000680168A938000BF05FF931000EF0E0F96C
:10375000DFF864190EF0B2F80BF02DF9070007211D
:1037600080A80BF04AF9DDE98001CDE9660166A980
:1037700038000BF049F931000EF0CAF90BF01BF9D3
:1037800029000EF095F80BF016F90700122180A819
:103790000BF033F9DDE98001CDE9640164A938005B
:1037A0000BF032F931000EF0B3F9DFF810190EF01A
:1037B00085F80BF000F90700072180A80BF01DF930
:1037C000DDE98001CDE9620162A938000BF01CF946
:1037D00031000EF09DF90BF0EEF80700DFF8E0087D
:1037E000D0E900010FF0D6FA8046894614F5CC5096
:1037F000D0E900010FF0CEFA42464B460FF000FB35
:1038000080468946DFF8BC08D0E900010FF0C2FA13
:1038100002000B00404649460FF0CEFB0022DFF8C5
:10382000A8380FF0EDFA41EC100B38000EF071FAE9
:103830000BF0C1F80700202180A80BF0DEF8DDE9CD
:103840008001CDE9600160A938000BF0DDF831009E
:103850000EF05EF9DFF874180EF030F80BF0ABF8EC
:103860000700072180A80BF0C8F8DDE98001CDE949
:103870005E015EA938000BF0C7F831000EF048F980
:103880000BF099F80700202180A80BF0B6F8DDE9CD
:103890008001CDE95C015CA938000BF0B5F831007E
:1038A0000EF036F9DFF828180EF008F80BF083F860
:1038B0000700072180A80BF0A0F8DDE98001CDE921
:1038C0005A015AA938000BF09FF831000EF020F988
:1038D0000BF071F829000DF0EBFF0BF06CF807000E
:1038E000122180A80BF089F8DDE98001CDE95801AB
:1038F00058A938000BF088F831000EF009F9DFF80C
:10390000D4170DF0DBFF0BF056F80700072180A855
:103910000BF073F8DDE98001CDE9560156A93800B6
:103920000BF072F831000EF0F3F841F6881161588F
:103930000EF0ABFA0BF03FF80700202180A80BF047
:103940005CF8DDE98001CDE9540154A938000BF0A1
:103950005BF831000EF0DCF8DFF87C170DF0AEFFFD
:103960000BF029F80700072180A80BF046F8DDE9E5
:103970008001CDE9520152A938000BF045F8310021
:103980000EF0C6F80BF017F80700202180A80BF006
:1039900034F8DDE98001CDE9500150A938000BF081
:1039A00033F831000EF0B4F8DFF830170DF086FF71
:1039B0000BF001F80700072180A80BF01EF8DDE9E5
:1039C0008001CDE94E014EA938000BF01DF8310001
:1039D0000EF09EF80AF0EFFF29000DF069FF0AF0E3
:1039E000EAFF0700122180A80BF007F8DDE980014B
:1039F000CDE94C014CA938000BF006F831000EF06F
:103A000087F8DFF8DC160DF059FF0AF0D4FF070045
:103A1000072180A80AF0F1FFDDE98001CDE94A0124
:103A20004AA938000AF0F0FF31000EF071F80AF0F0
:103A3000C2FF0700202180A80AF0DFFFDDE9800136
:103A4000CDE9480148A938000AF0DEFF31000EF048
:103A50005FF8DFF890160DF031FF0AF0ACFF0700B9
:103A6000072180A80AF0C9FFDDE98001CDE9460100
:103A700046A938000AF0C8FF31000EF049F80AF0F4
:103A80009AFF0700202180A80AF0B7FFDDE9800136
:103A9000CDE9440144A938000AF0B6FF31000EF028
:103AA00037F8DFF844160DF009FF0AF084FF07002D
:103AB000072180A80AF0A1FFDDE98001CDE94201DC
:103AC00042A938000AF0A0FF31000EF021F80AF0F8
:103AD00072FF29000DF0ECFE0AF06DFF07001221C5
:103AE00080A80AF08AFFDDE98001CDE9400140A904
:103AF00038000AF089FF31000EF00AF8DFF8EC1503
:103B00000DF0DCFE0AF057FF0700072180A80AF03D
:103B100074FFDDE98001CDE93E013EA938000AF0DD
:103B200073FF31000DF0F4FF41F63C11615C0EF0C3
:103B300042F80AF040FF0700202180A80AF05DFF4C
:103B4000DDE98001CDE93C013CA938000AF05CFFC9
:103B500031000DF0DDFFDFF898150DF0AFFE0AF033
:103B60002AFF0700072180A80AF047FFDDE980014E
:103B7000CDE93A013AA938000AF046FF31000DF0CC
:103B8000C7FF0AF018FF0700202180A80AF035FFC0
:103B9000DDE98001CDE9380138A938000AF034FFA9
:103BA00031000DF0B5FFDFF84C150DF087FE0AF07F
:103BB00002FF0700072180A80AF01FFFDDE980014E
:103BC000CDE9360136A938000AF01EFF31000DF0AC
:103BD0009FFF0AF0F0FE29000DF06AFE0AF0EBFEEE
:103BE0000700122180A80AF008FFDDE98001CDE975
:103BF000340134A938000AF007FF31000DF088FFC6
:103C0000DFF8F4140DF05AFE0AF0D5FE0700072184
:103C100080A80AF0F2FEDDE98001CDE9320132A987
:103C200038000AF0F1FE31000DF072FF070014F5C4
:103C30000D700AF0F9FE010038000EF026F90AF0C6
:103C4000BAFE0700202180A80AF0D7FEDDE9800136
:103C5000CDE9300130A938000AF0D6FE31000DF070
:103C600057FFDFF898140DF029FE0AF0A4FE0700B4
:103C7000072180A80AF0C1FEDDE98001CDE92E010F
:103C80002EA938000AF0C0FE31000DF041FF0AF005
:103C900092FE0700202180A80AF0AFFEDDE9800136
:103CA000CDE92C012CA938000AF0AEFE31000DF050
:103CB0002FFFDFF84C140DF001FE0AF07CFE070028
:103CC000072180A80AF099FEDDE98001CDE92A01EB
:103CD0002AA938000AF098FE31000DF019FF0AF009
:103CE0006AFE29000DF0E4FD0AF065FE07000121DF
:103CF00080A80AF07DFEDDE98001CDE9280128A930
:103D000038000AF081FE0AF056FE0700122180A852
:103D10000AF073FEDDE98001CDE9260126A938000D
:103D20000AF072FE31000DF0F3FEDFF8D8130DF04B
:103D3000C5FD0AF040FE0700202180A80AF05DFEC4
:103D4000DDE98001CDE9240124A938000AF05CFEF8
:103D500031000DF0DDFEEC490DF0B0FD0AF02BFE58
:103D60000700072180A80AF048FEDDE98001CDE9BF
:103D7000220122A938000AF047FE31000DF0C8FEEA
:103D80000AF019FE0700202180A80AF036FEDDE9BE
:103D90008001CDE9200120A938000AF035FE31006C
:103DA0000DF0B6FED9490DF089FD0AF004FE0700BA
:103DB000072180A80AF021FEDDE98001CDE91E017E
:103DC0001EA938000AF020FE31000DF0A1FE0AF015
:103DD000F2FD29000DF06CFD0AF0EDFD0700122147
:103DE00080A80AF00AFEDDE98001CDE91C011CA9CA
:103DF00038000AF009FE31000DF08AFEC4490DF0CA
:103E00005DFD0AF0D8FD0700202180A80AF0F5FD2D
:103E1000DDE98001CDE91A011AA938000AF0F4FDA4
:103E200031000DF075FEBB490DF048FD0AF0C3FDF1
:103E30000700202180A80AF0E0FDDDE98001CDE93E
:103E4000180118A938000AF0DFFD31000DF060FEFE
:103E5000B1490DF033FD0AF0AEFD29000DF028FD4B
:103E60000AF0A9FD0700122180A80AF0C6FDDDE9CD
:103E70008001CDE9160116A938000AF0C5FD310010
:103E80000DF046FEA5490DF019FD0AF094FD07005E
:103E9000072180A80AF0B1FDDDE98001CDE9140118
:103EA00014A938000AF0B0FD31000DF031FE070012
:103EB00014F54A700AF05DF8010038000DF07BFE41
:103EC0000AF079FD0700022180A80AF091FDDDE9E2
:103ED0008001CDE9120112A938000AF095FD0AF01F
:103EE0006AFD0700202180A80AF087FDDDE9800136
:103EF000CDE9100110A938000AF086FD31000DF05F
:103F000007FE87490DF0DAFC0AF055FD070007218E
:103F100080A80AF072FDDDE98001CDE90E010EA94D
:103F200038000AF071FD31000DF0F2FD0AF043FD9A
:103F3000070004F6F8100AF093FD38000DF0E9FED2
:103F40000AF039FD0700202180A80AF056FDDDE9BE
:103F50008001CDE90C010CA938000AF055FD3100B3
:103F60000DF0D6FD6F490DF0A9FC0AF024FD070005
:103F7000072180A80AF041FDDDE98001CDE90A01B1
:103F80000AA938000AF040FD31000DF0C1FD0AF029
:103F900012FD070014F51F600AF062FD38000DF0F5
:103FA000B8FE0AF008FD29000DF082FC0AF003FDBE
:103FB0000700122180A80AF020FDDDE98001CDE98B
:103FC000080108A938000AF01FFD31000DF0A0FD1E
:103FD00055490DF073FC0AF0EEFC07001C2180A887
:103FE0000AF00BFDDDE98001CDE9060106A93800E4
:103FF0000AF00AFD31000DF08BFD4C490DF05EFC1E
:104000000AF0D9FC4A490DF083FD0AF0D4FC494975
:104010000DF07EFD0700082180A80AF0E9FCDDE92B
:104020008001CDE9040104A938000AF0EDFC0AF092
:10403000C2FC07001C2180A80AF0DFFCDDE980013A
:10404000CDE9020102A938000AF0DEFC31000DF0D2
:104050005FFD39490DF032FC0AF0ADFC0700082184
:1040600080A80AF0CAFCDDE98001CDE900016946BB
:1040700038000AF0C9FC31000DF04AFD0AF09BFC43
:1040800029000DF015FC0DF5037DBDE8F08300005F
:10409000AD470508344F0508586E0508504105081E
:1040A000298B0508149E05081C9705080C84050833
:1040B0002C97050820840508348405083C970508DA
:1040C00000000020E093002000408F404884050855
:1040D000A87805084C970508C0780508746E05088F
:1040E0005C840508006605086C5A0508209E0508D2
:1040F00070840508D87805085C970508848405084D
:10410000F078050898840508AC8405080879050846
:104110002079050838790508906E0508507905085A
:1041200020660508905A0508687905088079050811
:10413000C381050821900508C08405082DE9F84FC2
:10414000EEB004000AF037FCDFF818160DF0E0FCC2
:10415000DFF8145629000DF0ABFB0AF02CFCDFF859
:104160000C160DF0ABFB0AF026FCDFF804B659463E
:104170000DF0A4FB29000DF09BFB0AF01CFCDFF8FE
:10418000F4150DF09BFB04F624100FF038F8C0B2C4
:10419000002801D0012000E00020C0B2002805D096
:1041A0000AF009FCDFF8D0150DF088FB14F5136058
:1041B0000FF025F8C0B2002801D0012000E0002057
:1041C000C0B2002805D00AF0F6FBDFF8B0150DF0FC
:1041D00075FB04F63C100FF012F8C0B2002801D0B5
:1041E000012000E00020C0B2002805D00AF0E3FB67
:1041F000DFF88C150DF062FB04F648100EF0FFFF9F
:10420000C0B2002801D0012000E00020C0B2002888
:1042100005D00AF0D0FBDFF86C150DF04FFB04F66B
:1042200054100EF0ECFFC0B2002801D0012000E0D5
:104230000020C0B2002805D00AF0BDFBDFF8481509
:104240000DF03CFB14F516600EF0D9FFC0B200284B
:1042500001D0012000E00020C0B2002805D00AF003
:10426000AAFBDFF828150DF029FB04F66C100EF000
:10427000C6FFC0B2002801D0012000E00020C0B27B
:10428000002805D00AF097FBDFF804150DF016FBA7
:1042900004F678100EF0B3FFC0B2002801D0012060
:1042A00000E00020C0B2002805D00AF084FBDFF84F
:1042B000E4140DF003FB04F684100EF0A0FFC0B26E
:1042C000002801D0012000E00020C0B2002805D065
:1042D0000AF071FBDFF8C0140DF0F0FA04F69C1040
:1042E0000EF08DFFC0B2002801D0012000E00020B8
:1042F000C0B2002805D00AF05EFBDFF89C1E0DF06E
:10430000DDFA04F6A8100EF07AFFC0B2002801D042
:10431000012000E00020C0B2002805D00AF04BFBCD
:10432000DFF8781E0DF0CAFA04F6B4100EF067FF3D
:10433000C0B2002801D0012000E00020C0B2002857
:1043400005D00AF038FBDFF8581E0DF0B7FA14F567
:104350001C600EF054FFC0B2002801D0012000E024
:104360000020C0B200280BD00AF025FBDFF8341E75
:104370000DF0A4FA0AF01FFBDFF82C1E0DF09EFAD8
:1043800004F6CC100EF03BFFC0B2002801D0012093
:1043900000E00020C0B200280BD00AF00CFBDFF8D0
:1043A0000C1E0DF08BFA0AF006FBDFF8041E0DF070
:1043B00085FA04F6D8100EF022FFC0B2002801D012
:1043C000012000E00020C0B200280BD00AF0F3FA70
:1043D000DFF8E01D0DF072FA0AF0EDFADFF8D81DF3
:1043E0000DF06CFA04F6E4100EF009FFC0B20028DC
:1043F00001D0012000E00020C0B200280AD00AF05D
:10440000DAFADFF8B81D0DF059FA0AF0D4FAD1A1A2
:104410000DF054FA41F63C1A14F80A0005284CD164
:104420000AF0C9FADFF8981D0DF048FA0AF0C3FA4D
:10443000DFF8901D0DF042FA0AF0BDFADFF8881D92
:104440000DF03CFA0AF0B7FADFF8801D0DF036FAED
:104450000AF0B1FADFF8781D0DF030FA0AF0ABFA85
:10446000DFF8701D0DF02AFA0AF0A5FADFF8681DD2
:104470000DF024FA0AF09FFADFF8C81D0DF01EFABD
:104480000AF099FADFF8C01D0DF018FA0AF093FA55
:10449000DFF8B81D0DF012FA0AF08DFADFF8B01D42
:1044A0000DF00CFA0AF087FADFF8AC1D0DF006FAF1
:1044B0000AF081FAA8A10DF001FA0AF07CFA2900AD
:1044C0000DF0F6F9002641F6C81704EB07000DF0D1
:1044D00095FE864280F000850AF06DFA80460A213A
:1044E0006CA80AF085FADDE96C01CDE96A016AA9D8
:1044F00040460AF089FA0AF05EFA804603216CA869
:104500000AF07BFADDE96C01CDE9680168A9404653
:104510000AF07AFA711C0DF0B8FC0AF04CFA0FF2AE
:104520003C2841460DF0CAF90AF045FA81460C21B3
:104530006CA80AF05DFADDE96C01CDE9660166A9B7
:1045400048460AF061FA04F624100EF058FEC0B294
:10455000002801D0012000E00020C0B200281CD0BB
:104560000AF029FA41460DF0A9F981460D216CA8FF
:104570000AF043FADDE96C01CDE9640164A948461B
:104580000AF042FA8146310004EB07000EF04FFEBC
:1045900090ED000B48460DF0BCFB0AF00CFA81468A
:1045A00001216CA80AF024FADDE96C01CDE9620171
:1045B00062A948460AF028FA04F654100EF01FFECD
:1045C000C0B2002801D0012000E00020C0B20028C5
:1045D0001CD00AF0F0F941460DF070F98146032134
:1045E0006CA80AF00AFADDE96C01CDE9600160A966
:1045F00048460AF009FA8146310004EB07000EF044
:1046000016FE90ED0A0B48460DF083FB14F516607C
:104610000EF0F5FDC0B2002801D0012000E000201E
:10462000C0B200281CD00AF0C6F94DA10DF046F921
:10463000814603216CA80AF0E0F9DDE96C01CDE9BF
:104640005E015EA948460AF0DFF98146310004EBBD
:1046500007000EF0ECFD90ED0C0B48460DF059FBF9
:1046600004F66C100EF0CBFDC0B2002801D0012082
:1046700000E00020C0B200281CD00AF09CF938A14C
:104680000DF01CF9814603216CA80AF0B6F9DDE9AA
:104690006C01CDE95C015CA948460AF0B5F9814698
:1046A000310004EB07000EF0C2FD90ED0E0B484602
:1046B0000DF02FFB0AF07FF9814600216CA80AF06B
:1046C00097F9DDE96C01CDE95A015AA948460AF08B
:1046D0009BF904F684100EF092FDC0B2002801D0C0
:1046E000012000E00020C0B200281BD00AF063F9CE
:1046F0001BA10DF0E3F8814605216CA80AF07DF9B5
:10470000DDE96C01CDE9580158A948460AF07CF969
:104710008146310004EB07000EF089FD016C48462C
:104720000DF0B3FB0AF047F9814602216CA80AF0AC
:104730005FF9DDE96C01CDE9560156A948460AF05A
:1047400063F904F69C100EF05AFDC0B2002825D083
:10475000012024E0442B00004552520020000000BC
:1047600020202000C3810508AD4705088C480508B6
:104770006C97050824A905087C9705088C970508FF
:104780009C970508AC9705082CA9050834A90508CD
:104790003CA9050844A905084CA905080020C0B299
:1047A00000281CD00AF007F941460DF087F8814631
:1047B00007216CA80AF021F9DDE96C01CDE954016B
:1047C00054A948460AF020F98146310004EB07005D
:1047D0000EF02DFD90ED120B48460DF09AFA04F6FE
:1047E000A8100EF00CFDC0B2002801D0012000E09E
:1047F0000020C0B200281CD00AF0DDF841460DF0C0
:104800005DF8814607216CA80AF0F7F8DDE96C0134
:10481000CDE9520152A948460AF0F6F88146310026
:1048200004EB07000EF003FD90ED140B48460DF06D
:1048300070FA04F6B4100EF0E2FCC0B2002801D009
:10484000012000E00020C0B200281CD00AF0B3F81C
:1048500041460DF033F8814607216CA80AF0CDF8E7
:10486000DDE96C01CDE9500150A948460AF0CCF8C9
:104870008146310004EB07000EF0D9FC90ED160BD9
:1048800048460DF046FA14F51C600EF0B8FCC0B2B4
:10489000002801D0012000E00020C0B2002839D05B
:1048A0000AF089F841460DF009F8814607216CA805
:1048B0000AF0A3F8DDE96C01CDE94E014EA94846A6
:1048C0000AF0A2F88146310004EB07000EF0AFFCBD
:1048D00090ED180B48460DF01CFA0AF06CF84146B2
:1048E0000CF0ECFF814607216CA80AF086F8DDE9A0
:1048F0006C01CDE94C014CA948460AF085F8814687
:10490000310004EB07000EF092FC90ED1A0B4846C4
:104910000DF0FFF90AF04FF8814604216CA80AF067
:1049200067F8DDE96C01CDE94A014AA948460AF079
:104930006BF804F6CC100EF062FCC0B2002801D077
:10494000012000E00020C0B2002839D00AF033F87E
:1049500041460CF0B3FF814607216CA80AF04DF8E0
:10496000DDE96C01CDE9480148A948460AF04CF858
:104970008146310004EB07000EF059FC90ED1C0B52
:1049800048460DF0C6F90AF016F841460CF096FFBD
:10499000814607216CA80AF030F8DDE96C01CDE909
:1049A000460146A948460AF02FF88146310004EB3B
:1049B00007000EF03CFC90ED1E0B48460DF0A9F9E7
:1049C00004F6D8100EF01BFCC0B2002801D0012064
:1049D00000E00020C0B2002839D009F0ECFF4146C9
:1049E0000CF06CFF814605216CA80AF006F8DDE9A1
:1049F0006C01CDE9440144A948460AF005F8814616
:104A0000310004EB07000EF012FCD0F8801048468D
:104A10000DF03BFA09F0CFFF41460CF04FFF814605
:104A200005216CA809F0E9FFDDE96C01CDE942013F
:104A300042A9484609F0E8FF8146310004EB07002F
:104A40000EF0F5FBD0F8841048460DF01EFA04F67F
:104A5000E4100EF0D4FBC0B2002801D0012000E029
:104A60000020C0B2002839D009F0A5FF41460CF063
:104A700025FF814605216CA809F0BFFFDDE96C0127
:104A8000CDE9400140A9484609F0BEFF814631000A
:104A900004EB07000EF0CBFB90ED040B48460DF045
:104AA00038F909F088FF41460CF008FF81460521DE
:104AB0006CA809F0A2FFDDE96C01CDE93E013EA939
:104AC000484609F0A1FF8146310004EB07000EF0D3
:104AD000AEFB90ED020B48460DF01BF914F80A00EE
:104AE000052840F0F18109F066FF814607216CA896
:104AF00009F07EFFDDE96C01CDE93C013CA94846A7
:104B000009F082FF09F057FF41460CF0D7FE8146BD
:104B100009216CA809F071FFDDE96C01CDE93A01CA
:104B20003AA9484609F070FF8146310004EB0700BE
:104B30000EF07DFB90ED220B48460DF0EAF809F0EF
:104B40003AFF814602216CA809F052FFDDE96C01B1
:104B5000CDE9380138A9484609F056FF09F02BFF86
:104B600041460CF0ABFE814605216CA809F045FFDB
:104B7000DDE96C01CDE9360136A9484609F044FF6C
:104B80008146310004EB07000EF051FB90ED240B41
:104B900048460DF0BEF809F00EFF41460CF08EFEBF
:104BA000814603216CA809F028FFDDE96C01CDE9FD
:104BB000340134A9484609F027FF8146310004EB4F
:104BC00007000EF034FBD0F8981048460DF05DF960
:104BD00009F0F1FE814607216CA809F009FFDDE923
:104BE0006C01CDE9320132A9484609F00DFF09F008
:104BF000E2FE41460CF062FE814609216CA809F0F4
:104C0000FCFEDDE96C01CDE9300130A9484609F030
:104C1000FBFE8146310004EB07000EF008FB90ED2F
:104C2000280B48460DF075F809F0C5FE81460221B3
:104C30006CA809F0DDFEDDE96C01CDE92E012EA99D
:104C4000484609F0E1FE09F0B6FE41460CF036FE9A
:104C5000814605216CA809F0D0FEDDE96C01CDE9A3
:104C60002C012CA9484609F0CFFE8146310004EB07
:104C700007000EF0DCFA90ED2A0B48460DF049F8DB
:104C800009F099FE41460CF019FE814603216CA8FB
:104C900009F0B3FEDDE96C01CDE92A012AA94846F5
:104CA00009F0B2FE8146310004EB07000EF0BFFAB6
:104CB000D0F8B01048460DF0E8F809F07CFE8146C7
:104CC00007216CA809F094FEDDE96C01CDE928010B
:104CD00028A9484609F098FE09F06DFE41460CF0FF
:104CE000EDFD814609216CA809F087FEDDE96C0124
:104CF000CDE9260126A9484609F086FE8146310005
:104D000004EB07000EF093FA90ED2E0B48460DF0E1
:104D100000F809F050FE814602216CA809F068FEF7
:104D2000DDE96C01CDE9240124A9484609F06CFEB7
:104D300009F041FE41460CF0C1FD814605216CA8F9
:104D400009F05BFEDDE96C01CDE9220122A94846AC
:104D500009F05AFE8146310004EB07000EF067FAB5
:104D600090ED300B48460CF0D4FF09F024FE41468C
:104D70000CF0A4FD814603216CA809F03EFEDDE99C
:104D80006C01CDE9200120A9484609F03DFE81468D
:104D9000310004EB07000EF04AFAD0F8C81048467C
:104DA0000DF073F809F007FE814607216CA809F0A1
:104DB0001FFEDDE96C01CDE91E011EA9484609F080
:104DC00023FE09F0F8FD41460CF078FD81460921EB
:104DD0006CA809F012FEDDE96C01CDE91C011CA9EB
:104DE000484609F011FE8146310004EB07000EF041
:104DF0001EFA90ED340B48460CF08BFF09F0DBFDFA
:104E0000814602216CA809F0F3FDDDE96C01CDE9D2
:104E10001A011AA9484609F0F7FD09F0CCFD4146F0
:104E20000CF04CFD814605216CA809F0E6FDDDE99A
:104E30006C01CDE9180118A9484609F0E5FD814645
:104E4000310004EB07000EF0F2F990ED360B484606
:104E50000CF05FFF09F0AFFD41460CF02FFD8146DD
:104E600003216CA809F0C9FDDDE96C01CDE916014B
:104E700016A9484609F0C8FD8146310004EB070039
:104E80000EF0D5F9D0F8E01048460CF0FEFF09F01E
:104E900092FD41460CF012FD804603216CA809F0FA
:104EA000ACFDDDE96C01CDE9140114A9404609F01F
:104EB000ABFD8046310004EB07000EF0B8F9D0F8E6
:104EC000E41040460CF0E1FF09F075FD29000CF0FC
:104ED000EFFC761CFFF7F7BA14F519600EF08FF9A6
:104EE000C0B2002801D0012000E00020C0B200289C
:104EF00000F04B8109F05FFD29000CF0D9FC09F0AE
:104F00005AFDDFF850150CF0D9FC09F054FD594654
:104F10000CF0D4FC29000CF0CBFC09F04CFDDFF8C0
:104F200038150CF0CBFC09F046FDDFF830150CF01D
:104F3000C5FC09F040FDDFF828150CF0BFFC09F0B6
:104F40003AFDDFF820150CF0B9FC09F034FDDFF86C
:104F500018150CF0B3FC14F80A00012811D009F060
:104F60002AFDDFF808150CF0A9FC09F024FDDFF894
:104F700000150CF0A3FC09F01EFDDFF8F8140CF08E
:104F80009DFC09F018FD29000CF092FC09F013FDBE
:104F9000DFF8E4140CF0BCFD002604EB07000DF074
:104FA0002DF9864280F0D38009F005FD804603216B
:104FB0006CA809F022FDDDE96C01CDE9120112A90E
:104FC000404609F021FD711C0CF05FFF09F0F3FC75
:104FD0000FF2802841460CF071FC09F0ECFC814690
:104FE00005216CA809F004FDDDE96C01CDE9100193
:104FF00010A9484609F008FD09F0DDFC81460D21A5
:105000006CA809F0FAFCDDE96C01CDE90E010EA9EE
:10501000484609F0F9FC8146310004EB07000EF028
:1050200006F990ED040B48460CF073FE09F0C3FC42
:1050300041460CF043FC09F0BEFC814600216CA8FF
:1050400009F0D6FCDDE96C01CDE90C010CA948465C
:1050500009F0DAFC09F0AFFC81460D216CA809F0DB
:10506000CCFCDDE96C01CDE90A010AA9484609F04A
:10507000CBFC8146310004EB07000EF0D8F890ED30
:10508000080B48460CF045FE09F095FC41460CF033
:1050900015FC09F090FC814605216CA809F0A8FCDC
:1050A000DDE96C01CDE9080108A9484609F0ACFC2E
:1050B00009F081FC81460D216CA809F09EFCDDE918
:1050C0006C01CDE9060106A9484609F09DFC814620
:1050D000310004EB07000EF0AAF890ED020B4846F1
:1050E0000CF017FE09F067FC814600216CA809F05E
:1050F0007FFCDDE96C01CDE9040104A9484609F013
:1051000083FC09F058FC41460CF0D8FB09F053FC35
:1051100080460D216CA809F070FCDDE96C01CDE939
:10512000020102A9404609F06FFC8046310004EB01
:1051300007000EF07CF890ED060B40460CF0E9FD00
:1051400009F039FC29000CF0B3FB761C25E709F0C7
:1051500032FC060008216CA809F04AFCDDE96C016C
:10516000CDE900016946300009F04EFC09F023FC4E
:10517000C2490CF0A3FB09F01EFCC1490CF09EFBD8
:1051800009F019FC29000CF093FB2000FEF7D9F977
:105190006FB0BDE8F08F00BF54A905082C9E05082C
:1051A000389E0508449E0508509E05085C9E05082B
:1051B000689E0508749E0508809E05085CA9050880
:1051C0008C9E050864A905086CA90508989E050829
:1051D00074A905087CA90508A49E050800210160A2
:1051E00000214160002181600121017300210161E2
:1051F00000214161002181610021C1610021016222
:1052000000214162704710B5040001202073002086
:105210002060002060600020A0600020206100204D
:1052200060610020A0610020E06114202062002065
:10523000606209F0C0FB93490CF040FB92490CF00E
:1052400037FB10BD84A905088CA90508B09E050888
:1052500094A90508200000009CA90508C16111F56A
:10526000967202610022426100228261704710B58D
:105270000400207B002809D0022810D007D304287E
:105280003ED024D306286FD052D387E086E022692F
:1052900000212069401E0CF004FB20617EE0606963
:1052A000401C6061226900212069401E0CF0F9FA5F
:1052B0002061616914204143E069B1FBF0F0A06115
:1052C00014220021A0690CF0ECFAA06166E060698C
:1052D000401C60612269E1212069401E0CF0E1FA66
:1052E0002061616A14204143206AB1FBF0F0143060
:1052F000A06128221421A0690CF0D3FAA0614DE02E
:105300006069401C60612269616896312069401EB5
:105310000CF0C7FA2061616A142041434908283122
:10532000A1613C222821A0690CF0BBFAA06135E004
:105330006069401C606122696168A06841184B3156
:105340002069401E0CF0ADFA2061616A14204143CF
:10535000206AB1FBF0F03C30A06150223C21A069F2
:105360000CF09FFAA06119E06069401C606122693D
:10537000616860684118A06841182069401E0CF0FF
:1053800090FA2061616A1420414349085031A161BB
:1053900064225021A0690CF084FAA06110BD00695C
:1053A00070478069704738B504000D002573207B75
:1053B000002809D0022809D007D304281AD006D320
:1053C000062843D02BD341E040E03FE03EE0606957
:1053D000206009F0F0FA2D490CF070FA09F0EBFAB0
:1053E00021680CF052FD1AA10CF068FA26490CF065
:1053F0005FFA2BE061692068091A616009F0DBFA45
:1054000023490CF05BFA09F0D6FA61680CF03DFD17
:105410000FA10CF053FA1C490CF04AFA16E061692E
:105420002068091A6068091AA16009F0C4FA1949CC
:105430000CF044FA09F0BFFAA1680CF026FD04A1B3
:105440000CF03CFA10490CF033FAFFE731BD0000D4
:1054500020F10000B8480508A4A90508BC97050874
:10546000CC970508DC970508EC970508FC9705081C
:105470000C9805081C980508298B0508E4480508C0
:105480002C980508BC9E0508AD4705084066050830
:10549000B45A0508AC6E0508016270470160704798
:1054A000F8B505000E0017001C0028000DF0CBFE1B
:1054B00015F108000DF0CCFE15F110000DF0C8FE3E
:1054C00015F118000DF0C4FE00230022002115F193
:1054D00020000DF0C2FE00230022002115F12C0057
:1054E0000DF0BBFE00230022002115F138000DF065
:1054F000B4FE00230022002115F144000DF0ADFEA2
:1055000000230022002115F150000DF0A6FE00231B
:105510000022002115F15C000DF09FFE0023002207
:10552000002115F168000DF098FE002300220021F3
:1055300015F174000DF091FE00230022002115F1F9
:1055400080000DF08AFE15F18C000DF081FE15F142
:1055500094000DF07DFE15F19C000DF079FE002306
:105560000022002115F1A4000DF077FE15F1B00026
:105570000DF077FE15F1B8000DF073FE15F1C000C7
:105580000DF06FFE15F1C8000DF06BFE15F1D000A7
:105590000DF067FE15F1D8000DF063FE0023002228
:1055A000002115F1E0000DF058FE0023002200213B
:1055B00015F1EC000DF051FE00230022002115F141
:1055C000F8000DF04AFE00230022002115F582703C
:1055D0000DF043FE00230022002115F588700DF028
:1055E0003CFE00230022002115F58E700DF035FEE3
:1055F00000230022002115F594700DF02EFE0023EB
:105600000022002115F59A700DF027FE00230022DC
:10561000002115F5A0700DF020FE002300220021CE
:1056200015F5A6700DF019FE00230022002115F5D6
:10563000AC700DF012FE00230022002115F5B270AF
:105640000DF00BFE00230022002115F5B8700DF0BF
:1056500004FE00230022002115F5BE700DF0FDFDB3
:1056600000230022002115F5C4700DF0F6FD15F59C
:10567000CA700DF0EDFD15F5CE700DF0E9FD0023BB
:105680000022002115F5D2700DF0E7FD15F5D87058
:105690000DF0E7FD15F5DC700DF0E8FD15F5E07097
:1056A0000DF0D6FD15F5E4700DF0D2FD15F5E8709E
:1056B0000DF0CEFD15F5EC700DF0CAFD15F5F0708E
:1056C0000DF0CFFD15F5F4700DF0CBFD15F5F8706C
:1056D0000DF0C7FD15F5FC700DF0B5FD15F500706A
:1056E0000DF0B1FD15F502700DF0BBFD15F5047060
:1056F0000DF0BCFD15F506700DF0A5FD15F5087053
:105700000DF0A1FD15F50A700DF09DFD15F50C705D
:105710000DF099FD15F50E700DF095FD15F5107055
:105720000DF091FD15F512700DF08DFD0023002296
:10573000002115F514700DF090FD002300220021CA
:1057400015F517700DF089FD00230022002115F5D5
:105750001A700DF082FD00230022002115F51D7046
:105760000DF07BFD00230022002115F520700DF0C7
:1057700074FD00230022002115F523700DF06DFD4E
:1057800000230022002115F526700DF066FD002390
:105790000022002115F529700DF05FFD15F52C7024
:1057A0000DF056FD00230022002115F52E700DF09E
:1057B00054FD00230022002115F531700DF04DFD40
:1057C00000230022002115F534700DF046FD002362
:1057D0000022002115F537700DF03FFD0023002257
:1057E000002115F53A700DF038FD0023002200214C
:1057F00015F53D700DF031FD00230022002115F557
:1058000040700DF02AFD00230022002115F54370A1
:105810000DF023FD00230022002115F546700DF048
:105820001CFD00230022002115F549700DF015FD27
:1058300000230022002115F54C700DF00EFD002311
:105840000022002115F54F700DF007FD0023002206
:10585000002115F552700DF000FD002300220021FB
:1058600015F555700DF0F9FC00230022002115F507
:1058700058700DF0F2FC15F55B700DF0E9FC15F5B4
:105880005D700DF0E5FC15F55F700DF0F4FC15F59D
:1058900061700DF0E6FC15F563700DF0E2FC15F596
:1058A00065700DF0D0FC15F567700DF0CCFC15F5AA
:1058B00069700DF0C8FC15F56B700DF0D2FC15F594
:1058C0006D700DF0CEFC15F56F700DF0D4FC15F574
:1058D00071700DF0D0FC15F573700DF0B4FC15F57A
:1058E00075700DF0BEFC15F577700DF0BFFC15F569
:1058F00079700DF0BBFC15F57B700DF0B7FC15F55C
:105900007D700DF0A0FC15F57F700DF0AAFC05F27E
:1059100004400DF0A6FC05F20C400DF0A2FC05F2CF
:1059200014400DF09EFC05F21C400DF09AFC05F2AF
:1059300024400DF096FC05F22C400DF092FC05F28F
:1059400034400DF08EFC05F23C400DF08AFC05F26F
:1059500044400DF086FC05F24C400DF082FC05F24F
:1059600054400DF07EFC05F25C400DF07AFC05F22F
:1059700064400DF076FC05F26C400DF072FC05F20F
:1059800074400DF06EFC05F27C400DF06AFC05F2EF
:1059900084400DF070FC05F28C400DF059FC05F2CE
:1059A00094400DF055FC05F29C400DF05AFC05F2B8
:1059B000A4400DF056FC05F2AC400DF052FC05F28F
:1059C000B4400DF04EFC05F2BC400DF04AFC05F26F
:1059D000C4400DF046FC05F2CC400DF042FC05F24F
:1059E000D4400DF03EFC05F2DC400DF03AFC05F22F
:1059F000E4400DF036FC05F2EC400DF032FC05F20F
:105A0000F4400DF033FC05F2FC400DF021FC05F2F2
:105A100004500DF01DFC05F20C500DF019FC05F2C0
:105A200014500DF015FC05F21C500DF011FC05F2A0
:105A300024500DF00DFC05F22C500DF009FC05F280
:105A400034500DF005FC05F23C500DF001FC05F260
:105A500044500DF0FDFB05F24C500DF0F9FB05F242
:105A600054500DF0F5FB00230022002105F25C509C
:105A70000DF0F3FB00230022002115F5AD600DF0C1
:105A8000ECFB00230022002105F274500DF0E5FB31
:105A900015F5B0600DF0DCFB15F5B1600DF0D8FB2D
:105AA00015F5B2600DF0D4FB15F5B3600DF0CBFB2E
:105AB00015F5B4600DF0D5FB15F5B5600DF0D1FB13
:105AC00015F5B6600DF0BFFB15F5B7600DF0BBFB2B
:105AD00015F5B8600DF0BCFB15F5B9600DF0B8FB1D
